{
	"contracts/WhitelistedTokenSale.sol": {
		"WhitelistedTokenSale": {
			"abi": [
				{
					"inputs": [],
					"stateMutability": "nonpayable",
					"type": "constructor"
				},
				{
					"anonymous": false,
					"inputs": [
						{
							"indexed": true,
							"internalType": "address",
							"name": "admin",
							"type": "address"
						}
					],
					"name": "AddAdmin",
					"type": "event"
				},
				{
					"anonymous": false,
					"inputs": [
						{
							"indexed": true,
							"internalType": "address",
							"name": "spender",
							"type": "address"
						},
						{
							"indexed": true,
							"internalType": "address",
							"name": "customer",
							"type": "address"
						},
						{
							"indexed": true,
							"internalType": "address",
							"name": "token",
							"type": "address"
						},
						{
							"indexed": false,
							"internalType": "uint256",
							"name": "tokenAmount",
							"type": "uint256"
						},
						{
							"indexed": false,
							"internalType": "uint256",
							"name": "resultAmount",
							"type": "uint256"
						}
					],
					"name": "BuyTokens",
					"type": "event"
				},
				{
					"anonymous": false,
					"inputs": [
						{
							"indexed": true,
							"internalType": "address",
							"name": "from",
							"type": "address"
						},
						{
							"indexed": false,
							"internalType": "uint256",
							"name": "amount",
							"type": "uint256"
						}
					],
					"name": "ContractFallbackReceivedTokens",
					"type": "event"
				},
				{
					"anonymous": false,
					"inputs": [
						{
							"indexed": true,
							"internalType": "address",
							"name": "from",
							"type": "address"
						},
						{
							"indexed": false,
							"internalType": "uint256",
							"name": "amount",
							"type": "uint256"
						}
					],
					"name": "ContractReceivedTokens",
					"type": "event"
				},
				{
					"anonymous": false,
					"inputs": [
						{
							"indexed": true,
							"internalType": "address",
							"name": "previousOwner",
							"type": "address"
						},
						{
							"indexed": true,
							"internalType": "address",
							"name": "newOwner",
							"type": "address"
						}
					],
					"name": "OwnershipTransferred",
					"type": "event"
				},
				{
					"anonymous": false,
					"inputs": [
						{
							"indexed": false,
							"internalType": "address",
							"name": "admin",
							"type": "address"
						}
					],
					"name": "Paused",
					"type": "event"
				},
				{
					"anonymous": false,
					"inputs": [
						{
							"indexed": true,
							"internalType": "address",
							"name": "admin",
							"type": "address"
						}
					],
					"name": "RemoveAdmin",
					"type": "event"
				},
				{
					"anonymous": false,
					"inputs": [
						{
							"indexed": true,
							"internalType": "address",
							"name": "token",
							"type": "address"
						},
						{
							"indexed": true,
							"internalType": "address",
							"name": "admin",
							"type": "address"
						}
					],
					"name": "RemoveCustomerToken",
					"type": "event"
				},
				{
					"anonymous": false,
					"inputs": [
						{
							"indexed": true,
							"internalType": "address",
							"name": "tokenSaleRegistry",
							"type": "address"
						},
						{
							"indexed": true,
							"internalType": "address",
							"name": "admin",
							"type": "address"
						},
						{
							"indexed": false,
							"internalType": "bool",
							"name": "enabled",
							"type": "bool"
						}
					],
					"name": "SetTokenSaleRegistry",
					"type": "event"
				},
				{
					"anonymous": false,
					"inputs": [
						{
							"indexed": true,
							"internalType": "address",
							"name": "wallet",
							"type": "address"
						},
						{
							"indexed": true,
							"internalType": "address",
							"name": "admin",
							"type": "address"
						}
					],
					"name": "SetWallet",
					"type": "event"
				},
				{
					"anonymous": false,
					"inputs": [
						{
							"indexed": false,
							"internalType": "address",
							"name": "admin",
							"type": "address"
						}
					],
					"name": "Unpaused",
					"type": "event"
				},
				{
					"anonymous": false,
					"inputs": [
						{
							"indexed": true,
							"internalType": "address",
							"name": "token",
							"type": "address"
						},
						{
							"indexed": false,
							"internalType": "uint256",
							"name": "rateMul",
							"type": "uint256"
						},
						{
							"indexed": false,
							"internalType": "uint256",
							"name": "rateDiv",
							"type": "uint256"
						},
						{
							"indexed": true,
							"internalType": "address",
							"name": "admin",
							"type": "address"
						}
					],
					"name": "UpdateCustomerToken",
					"type": "event"
				},
				{
					"stateMutability": "payable",
					"type": "fallback"
				},
				{
					"inputs": [
						{
							"internalType": "address",
							"name": "_admin",
							"type": "address"
						}
					],
					"name": "addAdmin",
					"outputs": [],
					"stateMutability": "nonpayable",
					"type": "function"
				},
				{
					"inputs": [],
					"name": "buyTokens6Working",
					"outputs": [
						{
							"internalType": "uint256",
							"name": "tokenAmount",
							"type": "uint256"
						}
					],
					"stateMutability": "payable",
					"type": "function"
				},
				{
					"inputs": [],
					"name": "buyTokens7",
					"outputs": [
						{
							"internalType": "uint256",
							"name": "tokenAmount",
							"type": "uint256"
						}
					],
					"stateMutability": "payable",
					"type": "function"
				},
				{
					"inputs": [
						{
							"internalType": "uint256",
							"name": "amountInWei",
							"type": "uint256"
						}
					],
					"name": "convertWeiToEther",
					"outputs": [
						{
							"internalType": "uint256",
							"name": "",
							"type": "uint256"
						}
					],
					"stateMutability": "pure",
					"type": "function"
				},
				{
					"inputs": [
						{
							"internalType": "address",
							"name": "",
							"type": "address"
						}
					],
					"name": "customerTokenInfo",
					"outputs": [
						{
							"internalType": "uint256",
							"name": "rateMul",
							"type": "uint256"
						},
						{
							"internalType": "uint256",
							"name": "rateDiv",
							"type": "uint256"
						},
						{
							"internalType": "uint256",
							"name": "totalReceived",
							"type": "uint256"
						},
						{
							"internalType": "uint256",
							"name": "totalSold",
							"type": "uint256"
						}
					],
					"stateMutability": "view",
					"type": "function"
				},
				{
					"inputs": [],
					"name": "getAdminCount",
					"outputs": [
						{
							"internalType": "uint256",
							"name": "",
							"type": "uint256"
						}
					],
					"stateMutability": "view",
					"type": "function"
				},
				{
					"inputs": [],
					"name": "getAdminList",
					"outputs": [
						{
							"internalType": "address[]",
							"name": "",
							"type": "address[]"
						}
					],
					"stateMutability": "view",
					"type": "function"
				},
				{
					"inputs": [],
					"name": "getContractBalance",
					"outputs": [
						{
							"internalType": "uint256",
							"name": "",
							"type": "uint256"
						}
					],
					"stateMutability": "view",
					"type": "function"
				},
				{
					"inputs": [],
					"name": "getContractBalanceWholeTokens",
					"outputs": [
						{
							"internalType": "uint256",
							"name": "",
							"type": "uint256"
						}
					],
					"stateMutability": "view",
					"type": "function"
				},
				{
					"inputs": [
						{
							"internalType": "address",
							"name": "someOwner",
							"type": "address"
						}
					],
					"name": "getTokenBalanceAnyWallet",
					"outputs": [
						{
							"internalType": "uint256",
							"name": "",
							"type": "uint256"
						}
					],
					"stateMutability": "view",
					"type": "function"
				},
				{
					"inputs": [
						{
							"internalType": "address",
							"name": "sender",
							"type": "address"
						}
					],
					"name": "initialize",
					"outputs": [],
					"stateMutability": "nonpayable",
					"type": "function"
				},
				{
					"inputs": [
						{
							"internalType": "address",
							"name": "_owner",
							"type": "address"
						},
						{
							"internalType": "address",
							"name": "_tokenToSell",
							"type": "address"
						},
						{
							"internalType": "address",
							"name": "_tokenSaleRegistry",
							"type": "address"
						},
						{
							"internalType": "bool",
							"name": "_whitelistEnabled",
							"type": "bool"
						}
					],
					"name": "initialize",
					"outputs": [],
					"stateMutability": "nonpayable",
					"type": "function"
				},
				{
					"inputs": [
						{
							"internalType": "address",
							"name": "_admin",
							"type": "address"
						}
					],
					"name": "isAdmin",
					"outputs": [
						{
							"internalType": "bool",
							"name": "",
							"type": "bool"
						}
					],
					"stateMutability": "view",
					"type": "function"
				},
				{
					"inputs": [],
					"name": "isOwner",
					"outputs": [
						{
							"internalType": "bool",
							"name": "",
							"type": "bool"
						}
					],
					"stateMutability": "view",
					"type": "function"
				},
				{
					"inputs": [],
					"name": "lastResultTokenAmount",
					"outputs": [
						{
							"internalType": "uint256",
							"name": "",
							"type": "uint256"
						}
					],
					"stateMutability": "view",
					"type": "function"
				},
				{
					"inputs": [],
					"name": "owner",
					"outputs": [
						{
							"internalType": "address",
							"name": "",
							"type": "address"
						}
					],
					"stateMutability": "view",
					"type": "function"
				},
				{
					"inputs": [],
					"name": "pause",
					"outputs": [],
					"stateMutability": "nonpayable",
					"type": "function"
				},
				{
					"inputs": [],
					"name": "paused",
					"outputs": [
						{
							"internalType": "bool",
							"name": "",
							"type": "bool"
						}
					],
					"stateMutability": "view",
					"type": "function"
				},
				{
					"inputs": [
						{
							"internalType": "address",
							"name": "_admin",
							"type": "address"
						}
					],
					"name": "removeAdmin",
					"outputs": [],
					"stateMutability": "nonpayable",
					"type": "function"
				},
				{
					"inputs": [],
					"name": "renounceOwnership",
					"outputs": [],
					"stateMutability": "nonpayable",
					"type": "function"
				},
				{
					"inputs": [
						{
							"internalType": "contract ITokenSaleRegistry",
							"name": "_tokenSaleWhitelistRegistry",
							"type": "address"
						},
						{
							"internalType": "bool",
							"name": "_whitelistEnabled",
							"type": "bool"
						}
					],
					"name": "setTokenSaleWhitelistRegistry",
					"outputs": [],
					"stateMutability": "nonpayable",
					"type": "function"
				},
				{
					"inputs": [
						{
							"internalType": "address",
							"name": "_wallet",
							"type": "address"
						}
					],
					"name": "setWallet",
					"outputs": [],
					"stateMutability": "nonpayable",
					"type": "function"
				},
				{
					"inputs": [
						{
							"internalType": "bool",
							"name": "_isEnabled",
							"type": "bool"
						}
					],
					"name": "setWhitelistEnabled",
					"outputs": [],
					"stateMutability": "nonpayable",
					"type": "function"
				},
				{
					"inputs": [],
					"name": "tokenSaleWhitelistRegistry",
					"outputs": [
						{
							"internalType": "contract ITokenSaleRegistry",
							"name": "",
							"type": "address"
						}
					],
					"stateMutability": "view",
					"type": "function"
				},
				{
					"inputs": [],
					"name": "tokenToSell",
					"outputs": [
						{
							"internalType": "contract IERC20",
							"name": "",
							"type": "address"
						}
					],
					"stateMutability": "view",
					"type": "function"
				},
				{
					"inputs": [],
					"name": "tokensPerEth",
					"outputs": [
						{
							"internalType": "uint256",
							"name": "",
							"type": "uint256"
						}
					],
					"stateMutability": "view",
					"type": "function"
				},
				{
					"inputs": [
						{
							"internalType": "address",
							"name": "newOwner",
							"type": "address"
						}
					],
					"name": "transferOwnership",
					"outputs": [],
					"stateMutability": "nonpayable",
					"type": "function"
				},
				{
					"inputs": [],
					"name": "unpause",
					"outputs": [],
					"stateMutability": "nonpayable",
					"type": "function"
				},
				{
					"inputs": [],
					"name": "wallet",
					"outputs": [
						{
							"internalType": "address",
							"name": "",
							"type": "address"
						}
					],
					"stateMutability": "view",
					"type": "function"
				},
				{
					"inputs": [],
					"name": "whitelistEnabled",
					"outputs": [
						{
							"internalType": "bool",
							"name": "",
							"type": "bool"
						}
					],
					"stateMutability": "view",
					"type": "function"
				},
				{
					"inputs": [],
					"name": "withdraw",
					"outputs": [],
					"stateMutability": "nonpayable",
					"type": "function"
				},
				{
					"stateMutability": "payable",
					"type": "receive"
				}
			],
			"devdoc": {
				"events": {
					"Paused(address)": {
						"details": "Emitted when the pause is triggered by an admin (`account`)."
					},
					"Unpaused(address)": {
						"details": "Emitted when the pause is lifted by an admin (`account`)."
					}
				},
				"kind": "dev",
				"methods": {
					"buyTokens7()": {
						"details": "When a function in a Solidity contract is marked as payable, it means the function can receive Ether directly. "
					},
					"getContractBalance()": {
						"details": "View-only function to return this contract's balance in WEI    NOTE: THIS IS VERY IMPORT BECAUSE IT'S GOING OUT TO THE LEDGE ESSENTIALLY OF THE MAIN TOKEN CONTRACT AND GETTING THE BALANCE OF THE ADDRESS     OF THE MYTOKEN ITSELF WHICH WAS PASSED INTO THE CONSTRUCTOR DURING THE DEPLOYMENT OF THIS MyTimeLocak SMART CONTRACT.    Anyone can send any type of tokens to the address of a smart contract such as this. They essentially just recorded in a ledger somewhere    of the token that is being transferred. So, this function goes out to the myToken's smart contract address and gets the balance owned    of our specific token, and owned by THIS (MyTimeLock's) address.",
						"returns": {
							"_0": "Full contract balance in WEI (with 18 0's after it). "
						}
					},
					"getContractBalanceWholeTokens()": {
						"details": "View-only function to return this contract's balance in whole tokens    NOTE: THIS IS VERY IMPORT BECAUSE IT'S GOING OUT TO THE LEDGE ESSENTIALLY OF THE MAIN TOKEN CONTRACT AND GETTING THE BALANCE OF THE ADDRESS     OF THE MYTOKEN ITSELF WHICH WAS PASSED INTO THE CONSTRUCTOR DURING THE DEPLOYMENT OF THIS MyTimeLocak SMART CONTRACT.    Anyone can send any type of tokens to the address of a smart contract such as this. They essentially just recorded in a ledger somewhere    of the token that is being transferred. So, this function goes out to the myToken's smart contract address and gets the balance owned    of our specific token, and owned by THIS (MyTimeLock's) address.",
						"returns": {
							"_0": "Full contract balance in ETH (whole tokens WITHOUT 18 0's after it). "
						}
					},
					"initialize(address)": {
						"details": "Initializes the contract setting the deployer as the initial owner."
					},
					"isOwner()": {
						"details": "Returns true if the caller is the current owner."
					},
					"owner()": {
						"details": "Returns the address of the current owner."
					},
					"pause()": {
						"details": "Called by a pauser to pause, triggers stopped state."
					},
					"paused()": {
						"details": "Returns true if the contract is paused, and false otherwise."
					},
					"renounceOwnership()": {
						"details": "Leaves the contract without owner. It will not be possible to call `onlyOwner` functions anymore. Can only be called by the current owner. > Note: Renouncing ownership will leave the contract without an owner, thereby removing any functionality that is only available to the owner."
					},
					"transferOwnership(address)": {
						"details": "Transfers ownership of the contract to a new account (`newOwner`). Can only be called by the current owner."
					},
					"unpause()": {
						"details": "Called by a pauser to unpause, returns to normal state."
					}
				},
				"version": 1
			},
			"evm": {
				"assembly": "    /* \"contracts/WhitelistedTokenSale.sol\":899:17916  contract WhitelistedTokenSale is Administrated, IWhitelistedTokenSale, Pausable {... */\n  mstore(0x40, 0x80)\n    /* \"contracts/WhitelistedTokenSale.sol\":1786:1788  20 */\n  0x14\n    /* \"contracts/WhitelistedTokenSale.sol\":1756:1788  uint256 public tokensPerEth = 20 */\n  0x6c\n  sstore\n    /* \"contracts/WhitelistedTokenSale.sol\":2083:2104  constructor() {... */\n  callvalue\n  dup1\n  iszero\n  tag_1\n  jumpi\n  0x00\n  dup1\n  revert\ntag_1:\n  pop\n    /* \"contracts/traits/Pausable.sol\":1423:1428  false */\n  0x00\n    /* \"contracts/traits/Pausable.sol\":1413:1420  _paused */\n  0x68\n  0x00\n    /* \"contracts/traits/Pausable.sol\":1413:1428  _paused = false */\n  0x0100\n  exp\n  dup2\n  sload\n  dup2\n  0xff\n  mul\n  not\n  and\n  swap1\n  dup4\n  iszero\n  iszero\n  mul\n  or\n  swap1\n  sstore\n  pop\n    /* \"contracts/WhitelistedTokenSale.sol\":899:17916  contract WhitelistedTokenSale is Administrated, IWhitelistedTokenSale, Pausable {... */\n  dataSize(sub_0)\n  dup1\n  dataOffset(sub_0)\n  0x00\n  codecopy\n  0x00\n  return\nstop\n\nsub_0: assembly {\n        /* \"contracts/WhitelistedTokenSale.sol\":899:17916  contract WhitelistedTokenSale is Administrated, IWhitelistedTokenSale, Pausable {... */\n      mstore(0x40, 0x80)\n      jumpi(tag_1, lt(calldatasize, 0x04))\n      shr(0xe0, calldataload(0x00))\n      dup1\n      0x8456cb59\n      gt\n      tag_34\n      jumpi\n      dup1\n      0xd0bab5b9\n      gt\n      tag_35\n      jumpi\n      dup1\n      0xea39de98\n      gt\n      tag_36\n      jumpi\n      dup1\n      0xea39de98\n      eq\n      tag_30\n      jumpi\n      dup1\n      0xf2fde38b\n      eq\n      tag_31\n      jumpi\n      dup1\n      0xf3ca7b41\n      eq\n      tag_32\n      jumpi\n      dup1\n      0xfecf9734\n      eq\n      tag_33\n      jumpi\n      jump(tag_2)\n    tag_36:\n      dup1\n      0xd0bab5b9\n      eq\n      tag_26\n      jumpi\n      dup1\n      0xd9f774fc\n      eq\n      tag_27\n      jumpi\n      dup1\n      0xdeaa59df\n      eq\n      tag_28\n      jumpi\n      dup1\n      0xdfc5d872\n      eq\n      tag_29\n      jumpi\n      jump(tag_2)\n    tag_35:\n      dup1\n      0x921de99b\n      gt\n      tag_37\n      jumpi\n      dup1\n      0x921de99b\n      eq\n      tag_22\n      jumpi\n      dup1\n      0xc4d66de8\n      eq\n      tag_23\n      jumpi\n      dup1\n      0xc68c4cc5\n      eq\n      tag_24\n      jumpi\n      dup1\n      0xcbdd69b5\n      eq\n      tag_25\n      jumpi\n      jump(tag_2)\n    tag_37:\n      dup1\n      0x8456cb59\n      eq\n      tag_18\n      jumpi\n      dup1\n      0x8b7bf3eb\n      eq\n      tag_19\n      jumpi\n      dup1\n      0x8da5cb5b\n      eq\n      tag_20\n      jumpi\n      dup1\n      0x8f32d59b\n      eq\n      tag_21\n      jumpi\n      jump(tag_2)\n    tag_34:\n      dup1\n      0x3f4ba83a\n      gt\n      tag_38\n      jumpi\n      dup1\n      0x6cd07154\n      gt\n      tag_39\n      jumpi\n      dup1\n      0x6cd07154\n      eq\n      tag_14\n      jumpi\n      dup1\n      0x6f9fb98a\n      eq\n      tag_15\n      jumpi\n      dup1\n      0x70480275\n      eq\n      tag_16\n      jumpi\n      dup1\n      0x715018a6\n      eq\n      tag_17\n      jumpi\n      jump(tag_2)\n    tag_39:\n      dup1\n      0x3f4ba83a\n      eq\n      tag_10\n      jumpi\n      dup1\n      0x51fb012d\n      eq\n      tag_11\n      jumpi\n      dup1\n      0x521eb273\n      eq\n      tag_12\n      jumpi\n      dup1\n      0x5c975abb\n      eq\n      tag_13\n      jumpi\n      jump(tag_2)\n    tag_38:\n      dup1\n      0x2f611f41\n      gt\n      tag_40\n      jumpi\n      dup1\n      0x2f611f41\n      eq\n      tag_6\n      jumpi\n      dup1\n      0x395a6063\n      eq\n      tag_7\n      jumpi\n      dup1\n      0x3ccfd60b\n      eq\n      tag_8\n      jumpi\n      dup1\n      0x3e70c2f1\n      eq\n      tag_9\n      jumpi\n      jump(tag_2)\n    tag_40:\n      dup1\n      0x052d9e7e\n      eq\n      tag_3\n      jumpi\n      dup1\n      0x1785f53c\n      eq\n      tag_4\n      jumpi\n      dup1\n      0x24d7806c\n      eq\n      tag_5\n      jumpi\n      jump(tag_2)\n    tag_1:\n      jumpi(tag_2, calldatasize)\n        /* \"contracts/WhitelistedTokenSale.sol\":17496:17506  msg.sender */\n      caller\n        /* \"contracts/WhitelistedTokenSale.sol\":17473:17518  ContractReceivedTokens(msg.sender, msg.value) */\n      0xffffffffffffffffffffffffffffffffffffffff\n      and\n      0x89c97b8fdda0bc916bf8986e40ebb0c827bbef4b17f09586ce69a696815727de\n        /* \"contracts/WhitelistedTokenSale.sol\":17508:17517  msg.value */\n      callvalue\n        /* \"contracts/WhitelistedTokenSale.sol\":17473:17518  ContractReceivedTokens(msg.sender, msg.value) */\n      mload(0x40)\n      tag_43\n      swap2\n      swap1\n      tag_44\n      jump\t// in\n    tag_43:\n      mload(0x40)\n      dup1\n      swap2\n      sub\n      swap1\n      log2\n        /* \"contracts/WhitelistedTokenSale.sol\":899:17916  contract WhitelistedTokenSale is Administrated, IWhitelistedTokenSale, Pausable {... */\n      stop\n    tag_2:\n        /* \"contracts/WhitelistedTokenSale.sol\":17765:17775  msg.sender */\n      caller\n        /* \"contracts/WhitelistedTokenSale.sol\":17734:17787  ContractFallbackReceivedTokens(msg.sender, msg.value) */\n      0xffffffffffffffffffffffffffffffffffffffff\n      and\n      0x1d01cf726c71f8d8fe63939223b6f641789776dac1dfdc9abbb06e60917845a3\n        /* \"contracts/WhitelistedTokenSale.sol\":17777:17786  msg.value */\n      callvalue\n        /* \"contracts/WhitelistedTokenSale.sol\":17734:17787  ContractFallbackReceivedTokens(msg.sender, msg.value) */\n      mload(0x40)\n      tag_47\n      swap2\n      swap1\n      tag_44\n      jump\t// in\n    tag_47:\n      mload(0x40)\n      dup1\n      swap2\n      sub\n      swap1\n      log2\n        /* \"contracts/WhitelistedTokenSale.sol\":899:17916  contract WhitelistedTokenSale is Administrated, IWhitelistedTokenSale, Pausable {... */\n      stop\n        /* \"contracts/WhitelistedTokenSale.sol\":2953:3064  function setWhitelistEnabled(bool _isEnabled) external onlyAdmin {... */\n    tag_3:\n      callvalue\n      dup1\n      iszero\n      tag_48\n      jumpi\n      0x00\n      dup1\n      revert\n    tag_48:\n      pop\n      tag_49\n      0x04\n      dup1\n      calldatasize\n      sub\n      dup2\n      add\n      swap1\n      tag_50\n      swap2\n      swap1\n      tag_51\n      jump\t// in\n    tag_50:\n      tag_52\n      jump\t// in\n    tag_49:\n      stop\n        /* \"contracts/traits/Administrated.sol\":1196:1314  function removeAdmin(address _admin) external onlyOwner {... */\n    tag_4:\n      callvalue\n      dup1\n      iszero\n      tag_53\n      jumpi\n      0x00\n      dup1\n      revert\n    tag_53:\n      pop\n      tag_54\n      0x04\n      dup1\n      calldatasize\n      sub\n      dup2\n      add\n      swap1\n      tag_55\n      swap2\n      swap1\n      tag_56\n      jump\t// in\n    tag_55:\n      tag_57\n      jump\t// in\n    tag_54:\n      stop\n        /* \"contracts/traits/Administrated.sol\":1318:1419  function isAdmin(address _admin) public view returns (bool) {... */\n    tag_5:\n      callvalue\n      dup1\n      iszero\n      tag_58\n      jumpi\n      0x00\n      dup1\n      revert\n    tag_58:\n      pop\n      tag_59\n      0x04\n      dup1\n      calldatasize\n      sub\n      dup2\n      add\n      swap1\n      tag_60\n      swap2\n      swap1\n      tag_56\n      jump\t// in\n    tag_60:\n      tag_61\n      jump\t// in\n    tag_59:\n      mload(0x40)\n      tag_62\n      swap2\n      swap1\n      tag_63\n      jump\t// in\n    tag_62:\n      mload(0x40)\n      dup1\n      swap2\n      sub\n      swap1\n      return\n        /* \"contracts/WhitelistedTokenSale.sol\":1453:1489  uint256 public lastResultTokenAmount */\n    tag_6:\n      callvalue\n      dup1\n      iszero\n      tag_64\n      jumpi\n      0x00\n      dup1\n      revert\n    tag_64:\n      pop\n      tag_65\n      tag_66\n      jump\t// in\n    tag_65:\n      mload(0x40)\n      tag_67\n      swap2\n      swap1\n      tag_44\n      jump\t// in\n    tag_67:\n      mload(0x40)\n      dup1\n      swap2\n      sub\n      swap1\n      return\n        /* \"contracts/WhitelistedTokenSale.sol\":15954:16127  function convertWeiToEther(uint256 amountInWei) public pure returns (uint256) {... */\n    tag_7:\n      callvalue\n      dup1\n      iszero\n      tag_68\n      jumpi\n      0x00\n      dup1\n      revert\n    tag_68:\n      pop\n      tag_69\n      0x04\n      dup1\n      calldatasize\n      sub\n      dup2\n      add\n      swap1\n      tag_70\n      swap2\n      swap1\n      tag_71\n      jump\t// in\n    tag_70:\n      tag_72\n      jump\t// in\n    tag_69:\n      mload(0x40)\n      tag_73\n      swap2\n      swap1\n      tag_44\n      jump\t// in\n    tag_73:\n      mload(0x40)\n      dup1\n      swap2\n      sub\n      swap1\n      return\n        /* \"contracts/WhitelistedTokenSale.sol\":16210:16527  function withdraw() public onlyOwner {... */\n    tag_8:\n      callvalue\n      dup1\n      iszero\n      tag_74\n      jumpi\n      0x00\n      dup1\n      revert\n    tag_74:\n      pop\n      tag_75\n      tag_76\n      jump\t// in\n    tag_75:\n      stop\n        /* \"contracts/WhitelistedTokenSale.sol\":12357:13609  function buyTokens7() public payable returns (uint256 tokenAmount) {... */\n    tag_9:\n      tag_77\n      tag_78\n      jump\t// in\n    tag_77:\n      mload(0x40)\n      tag_79\n      swap2\n      swap1\n      tag_44\n      jump\t// in\n    tag_79:\n      mload(0x40)\n      dup1\n      swap2\n      sub\n      swap1\n      return\n        /* \"contracts/traits/Pausable.sol\":2211:2315  function unpause() public onlyAdmin whenPaused {... */\n    tag_10:\n      callvalue\n      dup1\n      iszero\n      tag_80\n      jumpi\n      0x00\n      dup1\n      revert\n    tag_80:\n      pop\n      tag_81\n      tag_82\n      jump\t// in\n    tag_81:\n      stop\n        /* \"contracts/WhitelistedTokenSale.sol\":1316:1344  bool public whitelistEnabled */\n    tag_11:\n      callvalue\n      dup1\n      iszero\n      tag_83\n      jumpi\n      0x00\n      dup1\n      revert\n    tag_83:\n      pop\n      tag_84\n      tag_85\n      jump\t// in\n    tag_84:\n      mload(0x40)\n      tag_86\n      swap2\n      swap1\n      tag_63\n      jump\t// in\n    tag_86:\n      mload(0x40)\n      dup1\n      swap2\n      sub\n      swap1\n      return\n        /* \"contracts/WhitelistedTokenSale.sol\":1351:1372  address public wallet */\n    tag_12:\n      callvalue\n      dup1\n      iszero\n      tag_87\n      jumpi\n      0x00\n      dup1\n      revert\n    tag_87:\n      pop\n      tag_88\n      tag_89\n      jump\t// in\n    tag_88:\n      mload(0x40)\n      tag_90\n      swap2\n      swap1\n      tag_91\n      jump\t// in\n    tag_90:\n      mload(0x40)\n      dup1\n      swap2\n      sub\n      swap1\n      return\n        /* \"contracts/traits/Pausable.sol\":1520:1590  function paused() public view returns (bool) {... */\n    tag_13:\n      callvalue\n      dup1\n      iszero\n      tag_92\n      jumpi\n      0x00\n      dup1\n      revert\n    tag_92:\n      pop\n      tag_93\n      tag_94\n      jump\t// in\n    tag_93:\n      mload(0x40)\n      tag_95\n      swap2\n      swap1\n      tag_63\n      jump\t// in\n    tag_95:\n      mload(0x40)\n      dup1\n      swap2\n      sub\n      swap1\n      return\n        /* \"contracts/WhitelistedTokenSale.sol\":1227:1252  IERC20 public tokenToSell */\n    tag_14:\n      callvalue\n      dup1\n      iszero\n      tag_96\n      jumpi\n      0x00\n      dup1\n      revert\n    tag_96:\n      pop\n      tag_97\n      tag_98\n      jump\t// in\n    tag_97:\n      mload(0x40)\n      tag_99\n      swap2\n      swap1\n      tag_100\n      jump\t// in\n    tag_99:\n      mload(0x40)\n      dup1\n      swap2\n      sub\n      swap1\n      return\n        /* \"contracts/WhitelistedTokenSale.sol\":14560:14687  function getContractBalance() public view returns(uint256){... */\n    tag_15:\n      callvalue\n      dup1\n      iszero\n      tag_101\n      jumpi\n      0x00\n      dup1\n      revert\n    tag_101:\n      pop\n      tag_102\n      tag_103\n      jump\t// in\n    tag_102:\n      mload(0x40)\n      tag_104\n      swap2\n      swap1\n      tag_44\n      jump\t// in\n    tag_104:\n      mload(0x40)\n      dup1\n      swap2\n      sub\n      swap1\n      return\n        /* \"contracts/traits/Administrated.sol\":1083:1192  function addAdmin(address _admin) external onlyOwner {... */\n    tag_16:\n      callvalue\n      dup1\n      iszero\n      tag_105\n      jumpi\n      0x00\n      dup1\n      revert\n    tag_105:\n      pop\n      tag_106\n      0x04\n      dup1\n      calldatasize\n      sub\n      dup2\n      add\n      swap1\n      tag_107\n      swap2\n      swap1\n      tag_56\n      jump\t// in\n    tag_107:\n      tag_108\n      jump\t// in\n    tag_106:\n      stop\n        /* \"@openzeppelin/contracts-ethereum-package/contracts/ownership/Ownable.sol\":1820:1957  function renounceOwnership() public onlyOwner {... */\n    tag_17:\n      callvalue\n      dup1\n      iszero\n      tag_109\n      jumpi\n      0x00\n      dup1\n      revert\n    tag_109:\n      pop\n      tag_110\n      tag_111\n      jump\t// in\n    tag_110:\n      stop\n        /* \"contracts/traits/Pausable.sol\":2027:2129  function pause() public onlyAdmin whenNotPaused {... */\n    tag_18:\n      callvalue\n      dup1\n      iszero\n      tag_112\n      jumpi\n      0x00\n      dup1\n      revert\n    tag_112:\n      pop\n      tag_113\n      tag_114\n      jump\t// in\n    tag_113:\n      stop\n        /* \"contracts/traits/Administrated.sol\":1838:1928  function getAdminCount() external view returns (uint256) {... */\n    tag_19:\n      callvalue\n      dup1\n      iszero\n      tag_115\n      jumpi\n      0x00\n      dup1\n      revert\n    tag_115:\n      pop\n      tag_116\n      tag_117\n      jump\t// in\n    tag_116:\n      mload(0x40)\n      tag_118\n      swap2\n      swap1\n      tag_44\n      jump\t// in\n    tag_118:\n      mload(0x40)\n      dup1\n      swap2\n      sub\n      swap1\n      return\n        /* \"@openzeppelin/contracts-ethereum-package/contracts/ownership/Ownable.sol\":1033:1110  function owner() public view returns (address) {... */\n    tag_20:\n      callvalue\n      dup1\n      iszero\n      tag_119\n      jumpi\n      0x00\n      dup1\n      revert\n    tag_119:\n      pop\n      tag_120\n      tag_121\n      jump\t// in\n    tag_120:\n      mload(0x40)\n      tag_122\n      swap2\n      swap1\n      tag_91\n      jump\t// in\n    tag_122:\n      mload(0x40)\n      dup1\n      swap2\n      sub\n      swap1\n      return\n        /* \"@openzeppelin/contracts-ethereum-package/contracts/ownership/Ownable.sol\":1384:1476  function isOwner() public view returns (bool) {... */\n    tag_21:\n      callvalue\n      dup1\n      iszero\n      tag_123\n      jumpi\n      0x00\n      dup1\n      revert\n    tag_123:\n      pop\n      tag_124\n      tag_125\n      jump\t// in\n    tag_124:\n      mload(0x40)\n      tag_126\n      swap2\n      swap1\n      tag_63\n      jump\t// in\n    tag_126:\n      mload(0x40)\n      dup1\n      swap2\n      sub\n      swap1\n      return\n        /* \"contracts/WhitelistedTokenSale.sol\":15511:15948  function getContractBalanceWholeTokens() public view returns(uint256){... */\n    tag_22:\n      callvalue\n      dup1\n      iszero\n      tag_127\n      jumpi\n      0x00\n      dup1\n      revert\n    tag_127:\n      pop\n      tag_128\n      tag_129\n      jump\t// in\n    tag_128:\n      mload(0x40)\n      tag_130\n      swap2\n      swap1\n      tag_44\n      jump\t// in\n    tag_130:\n      mload(0x40)\n      dup1\n      swap2\n      sub\n      swap1\n      return\n        /* \"@openzeppelin/contracts-ethereum-package/contracts/ownership/Ownable.sol\":807:957  function initialize(address sender) public virtual initializer {... */\n    tag_23:\n      callvalue\n      dup1\n      iszero\n      tag_131\n      jumpi\n      0x00\n      dup1\n      revert\n    tag_131:\n      pop\n      tag_132\n      0x04\n      dup1\n      calldatasize\n      sub\n      dup2\n      add\n      swap1\n      tag_133\n      swap2\n      swap1\n      tag_56\n      jump\t// in\n    tag_133:\n      tag_134\n      jump\t// in\n    tag_132:\n      stop\n        /* \"contracts/WhitelistedTokenSale.sol\":13615:13761  function getTokenBalanceAnyWallet(address someOwner) public view returns(uint256){... */\n    tag_24:\n      callvalue\n      dup1\n      iszero\n      tag_135\n      jumpi\n      0x00\n      dup1\n      revert\n    tag_135:\n      pop\n      tag_136\n      0x04\n      dup1\n      calldatasize\n      sub\n      dup2\n      add\n      swap1\n      tag_137\n      swap2\n      swap1\n      tag_56\n      jump\t// in\n    tag_137:\n      tag_138\n      jump\t// in\n    tag_136:\n      mload(0x40)\n      tag_139\n      swap2\n      swap1\n      tag_44\n      jump\t// in\n    tag_139:\n      mload(0x40)\n      dup1\n      swap2\n      sub\n      swap1\n      return\n        /* \"contracts/WhitelistedTokenSale.sol\":1756:1788  uint256 public tokensPerEth = 20 */\n    tag_25:\n      callvalue\n      dup1\n      iszero\n      tag_140\n      jumpi\n      0x00\n      dup1\n      revert\n    tag_140:\n      pop\n      tag_141\n      tag_142\n      jump\t// in\n    tag_141:\n      mload(0x40)\n      tag_143\n      swap2\n      swap1\n      tag_44\n      jump\t// in\n    tag_143:\n      mload(0x40)\n      dup1\n      swap2\n      sub\n      swap1\n      return\n        /* \"contracts/WhitelistedTokenSale.sol\":11168:12166  function buyTokens6Working() public payable returns (uint256 tokenAmount) {... */\n    tag_26:\n      tag_144\n      tag_145\n      jump\t// in\n    tag_144:\n      mload(0x40)\n      tag_146\n      swap2\n      swap1\n      tag_44\n      jump\t// in\n    tag_146:\n      mload(0x40)\n      dup1\n      swap2\n      sub\n      swap1\n      return\n        /* \"contracts/traits/Administrated.sol\":1423:1834  function getAdminList() external view returns (address[] memory) {... */\n    tag_27:\n      callvalue\n      dup1\n      iszero\n      tag_147\n      jumpi\n      0x00\n      dup1\n      revert\n    tag_147:\n      pop\n      tag_148\n      tag_149\n      jump\t// in\n    tag_148:\n      mload(0x40)\n      tag_150\n      swap2\n      swap1\n      tag_151\n      jump\t// in\n    tag_150:\n      mload(0x40)\n      dup1\n      swap2\n      sub\n      swap1\n      return\n        /* \"contracts/WhitelistedTokenSale.sol\":2814:2947  function setWallet(address _wallet) external onlyAdmin {... */\n    tag_28:\n      callvalue\n      dup1\n      iszero\n      tag_152\n      jumpi\n      0x00\n      dup1\n      revert\n    tag_152:\n      pop\n      tag_153\n      0x04\n      dup1\n      calldatasize\n      sub\n      dup2\n      add\n      swap1\n      tag_154\n      swap2\n      swap1\n      tag_56\n      jump\t// in\n    tag_154:\n      tag_155\n      jump\t// in\n    tag_153:\n      stop\n        /* \"contracts/WhitelistedTokenSale.sol\":2455:2808  function setTokenSaleWhitelistRegistry(ITokenSaleRegistry _tokenSaleWhitelistRegistry, bool _whitelistEnabled) external onlyAdmin {... */\n    tag_29:\n      callvalue\n      dup1\n      iszero\n      tag_156\n      jumpi\n      0x00\n      dup1\n      revert\n    tag_156:\n      pop\n      tag_157\n      0x04\n      dup1\n      calldatasize\n      sub\n      dup2\n      add\n      swap1\n      tag_158\n      swap2\n      swap1\n      tag_159\n      jump\t// in\n    tag_158:\n      tag_160\n      jump\t// in\n    tag_157:\n      stop\n        /* \"contracts/WhitelistedTokenSale.sol\":2022:2076  mapping(address => TokenInfo) public customerTokenInfo */\n    tag_30:\n      callvalue\n      dup1\n      iszero\n      tag_161\n      jumpi\n      0x00\n      dup1\n      revert\n    tag_161:\n      pop\n      tag_162\n      0x04\n      dup1\n      calldatasize\n      sub\n      dup2\n      add\n      swap1\n      tag_163\n      swap2\n      swap1\n      tag_56\n      jump\t// in\n    tag_163:\n      tag_164\n      jump\t// in\n    tag_162:\n      mload(0x40)\n      tag_165\n      swap5\n      swap4\n      swap3\n      swap2\n      swap1\n      tag_166\n      jump\t// in\n    tag_165:\n      mload(0x40)\n      dup1\n      swap2\n      sub\n      swap1\n      return\n        /* \"@openzeppelin/contracts-ethereum-package/contracts/ownership/Ownable.sol\":2106:2213  function transferOwnership(address newOwner) public onlyOwner {... */\n    tag_31:\n      callvalue\n      dup1\n      iszero\n      tag_167\n      jumpi\n      0x00\n      dup1\n      revert\n    tag_167:\n      pop\n      tag_168\n      0x04\n      dup1\n      calldatasize\n      sub\n      dup2\n      add\n      swap1\n      tag_169\n      swap2\n      swap1\n      tag_56\n      jump\t// in\n    tag_169:\n      tag_170\n      jump\t// in\n    tag_168:\n      stop\n        /* \"contracts/WhitelistedTokenSale.sol\":1258:1310  ITokenSaleRegistry public tokenSaleWhitelistRegistry */\n    tag_32:\n      callvalue\n      dup1\n      iszero\n      tag_171\n      jumpi\n      0x00\n      dup1\n      revert\n    tag_171:\n      pop\n      tag_172\n      tag_173\n      jump\t// in\n    tag_172:\n      mload(0x40)\n      tag_174\n      swap2\n      swap1\n      tag_175\n      jump\t// in\n    tag_174:\n      mload(0x40)\n      dup1\n      swap2\n      sub\n      swap1\n      return\n        /* \"contracts/WhitelistedTokenSale.sol\":2110:2449  function initialize(address _owner, address _tokenToSell, address _tokenSaleRegistry, bool _whitelistEnabled) public initializer {... */\n    tag_33:\n      callvalue\n      dup1\n      iszero\n      tag_176\n      jumpi\n      0x00\n      dup1\n      revert\n    tag_176:\n      pop\n      tag_177\n      0x04\n      dup1\n      calldatasize\n      sub\n      dup2\n      add\n      swap1\n      tag_178\n      swap2\n      swap1\n      tag_179\n      jump\t// in\n    tag_178:\n      tag_180\n      jump\t// in\n    tag_177:\n      stop\n        /* \"contracts/WhitelistedTokenSale.sol\":2953:3064  function setWhitelistEnabled(bool _isEnabled) external onlyAdmin {... */\n    tag_52:\n        /* \"contracts/traits/Administrated.sol\":983:1002  isAdmin(msg.sender) */\n      tag_182\n        /* \"contracts/traits/Administrated.sol\":991:1001  msg.sender */\n      caller\n        /* \"contracts/traits/Administrated.sol\":983:990  isAdmin */\n      tag_61\n        /* \"contracts/traits/Administrated.sol\":983:1002  isAdmin(msg.sender) */\n      jump\t// in\n    tag_182:\n        /* \"contracts/traits/Administrated.sol\":975:1045  require(isAdmin(msg.sender), \"Administrated: Msg sender is not admin\") */\n      tag_183\n      jumpi\n      mload(0x40)\n      0x08c379a000000000000000000000000000000000000000000000000000000000\n      dup2\n      mstore\n      0x04\n      add\n      tag_184\n      swap1\n      tag_185\n      jump\t// in\n    tag_184:\n      mload(0x40)\n      dup1\n      swap2\n      sub\n      swap1\n      revert\n    tag_183:\n        /* \"contracts/WhitelistedTokenSale.sol\":3047:3057  _isEnabled */\n      dup1\n        /* \"contracts/WhitelistedTokenSale.sol\":3028:3044  whitelistEnabled */\n      0x69\n      0x14\n        /* \"contracts/WhitelistedTokenSale.sol\":3028:3057  whitelistEnabled = _isEnabled */\n      0x0100\n      exp\n      dup2\n      sload\n      dup2\n      0xff\n      mul\n      not\n      and\n      swap1\n      dup4\n      iszero\n      iszero\n      mul\n      or\n      swap1\n      sstore\n      pop\n        /* \"contracts/WhitelistedTokenSale.sol\":2953:3064  function setWhitelistEnabled(bool _isEnabled) external onlyAdmin {... */\n      pop\n      jump\t// out\n        /* \"contracts/traits/Administrated.sol\":1196:1314  function removeAdmin(address _admin) external onlyOwner {... */\n    tag_57:\n        /* \"@openzeppelin/contracts-ethereum-package/contracts/ownership/Ownable.sol\":1237:1246  isOwner() */\n      tag_188\n        /* \"@openzeppelin/contracts-ethereum-package/contracts/ownership/Ownable.sol\":1237:1244  isOwner */\n      tag_125\n        /* \"@openzeppelin/contracts-ethereum-package/contracts/ownership/Ownable.sol\":1237:1246  isOwner() */\n      jump\t// in\n    tag_188:\n        /* \"@openzeppelin/contracts-ethereum-package/contracts/ownership/Ownable.sol\":1229:1283  require(isOwner(), \"Ownable: caller is not the owner\") */\n      tag_189\n      jumpi\n      mload(0x40)\n      0x08c379a000000000000000000000000000000000000000000000000000000000\n      dup2\n      mstore\n      0x04\n      add\n      tag_190\n      swap1\n      tag_191\n      jump\t// in\n    tag_190:\n      mload(0x40)\n      dup1\n      swap2\n      sub\n      swap1\n      revert\n    tag_189:\n        /* \"contracts/traits/Administrated.sol\":1258:1279  admins.remove(_admin) */\n      tag_193\n        /* \"contracts/traits/Administrated.sol\":1272:1278  _admin */\n      dup2\n        /* \"contracts/traits/Administrated.sol\":1258:1264  admins */\n      0x66\n        /* \"contracts/traits/Administrated.sol\":1258:1271  admins.remove */\n      tag_194\n      swap1\n        /* \"contracts/traits/Administrated.sol\":1258:1279  admins.remove(_admin) */\n      swap2\n      swap1\n      0xffffffff\n      and\n      jump\t// in\n    tag_193:\n      pop\n        /* \"contracts/traits/Administrated.sol\":1302:1308  _admin */\n      dup1\n        /* \"contracts/traits/Administrated.sol\":1290:1309  RemoveAdmin(_admin) */\n      0xffffffffffffffffffffffffffffffffffffffff\n      and\n      0x753f40ca3312b2408759a67875b367955e7baa221daf08aa3d643d96202ac12b\n      mload(0x40)\n      mload(0x40)\n      dup1\n      swap2\n      sub\n      swap1\n      log2\n        /* \"contracts/traits/Administrated.sol\":1196:1314  function removeAdmin(address _admin) external onlyOwner {... */\n      pop\n      jump\t// out\n        /* \"contracts/traits/Administrated.sol\":1318:1419  function isAdmin(address _admin) public view returns (bool) {... */\n    tag_61:\n        /* \"contracts/traits/Administrated.sol\":1372:1376  bool */\n      0x00\n        /* \"contracts/traits/Administrated.sol\":1391:1414  admins.contains(_admin) */\n      tag_196\n        /* \"contracts/traits/Administrated.sol\":1407:1413  _admin */\n      dup3\n        /* \"contracts/traits/Administrated.sol\":1391:1397  admins */\n      0x66\n        /* \"contracts/traits/Administrated.sol\":1391:1406  admins.contains */\n      tag_197\n      swap1\n        /* \"contracts/traits/Administrated.sol\":1391:1414  admins.contains(_admin) */\n      swap2\n      swap1\n      0xffffffff\n      and\n      jump\t// in\n    tag_196:\n        /* \"contracts/traits/Administrated.sol\":1384:1414  return admins.contains(_admin) */\n      swap1\n      pop\n        /* \"contracts/traits/Administrated.sol\":1318:1419  function isAdmin(address _admin) public view returns (bool) {... */\n      swap2\n      swap1\n      pop\n      jump\t// out\n        /* \"contracts/WhitelistedTokenSale.sol\":1453:1489  uint256 public lastResultTokenAmount */\n    tag_66:\n      sload(0x6b)\n      dup2\n      jump\t// out\n        /* \"contracts/WhitelistedTokenSale.sol\":15954:16127  function convertWeiToEther(uint256 amountInWei) public pure returns (uint256) {... */\n    tag_72:\n        /* \"contracts/WhitelistedTokenSale.sol\":16023:16030  uint256 */\n      0x00\n        /* \"contracts/WhitelistedTokenSale.sol\":16042:16063  uint256 amountInEther */\n      dup1\n        /* \"contracts/WhitelistedTokenSale.sol\":16066:16090  amountInWei.div(1 ether) */\n      tag_199\n        /* \"contracts/WhitelistedTokenSale.sol\":16082:16089  1 ether */\n      0x0de0b6b3a7640000\n        /* \"contracts/WhitelistedTokenSale.sol\":16066:16077  amountInWei */\n      dup5\n        /* \"contracts/WhitelistedTokenSale.sol\":16066:16081  amountInWei.div */\n      tag_200\n      swap1\n        /* \"contracts/WhitelistedTokenSale.sol\":16066:16090  amountInWei.div(1 ether) */\n      swap2\n      swap1\n      0xffffffff\n      and\n      jump\t// in\n    tag_199:\n        /* \"contracts/WhitelistedTokenSale.sol\":16042:16090  uint256 amountInEther = amountInWei.div(1 ether) */\n      swap1\n      pop\n        /* \"contracts/WhitelistedTokenSale.sol\":16107:16120  amountInEther */\n      dup1\n        /* \"contracts/WhitelistedTokenSale.sol\":16100:16120  return amountInEther */\n      swap2\n      pop\n      pop\n        /* \"contracts/WhitelistedTokenSale.sol\":15954:16127  function convertWeiToEther(uint256 amountInWei) public pure returns (uint256) {... */\n      swap2\n      swap1\n      pop\n      jump\t// out\n        /* \"contracts/WhitelistedTokenSale.sol\":16210:16527  function withdraw() public onlyOwner {... */\n    tag_76:\n        /* \"@openzeppelin/contracts-ethereum-package/contracts/ownership/Ownable.sol\":1237:1246  isOwner() */\n      tag_202\n        /* \"@openzeppelin/contracts-ethereum-package/contracts/ownership/Ownable.sol\":1237:1244  isOwner */\n      tag_125\n        /* \"@openzeppelin/contracts-ethereum-package/contracts/ownership/Ownable.sol\":1237:1246  isOwner() */\n      jump\t// in\n    tag_202:\n        /* \"@openzeppelin/contracts-ethereum-package/contracts/ownership/Ownable.sol\":1229:1283  require(isOwner(), \"Ownable: caller is not the owner\") */\n      tag_203\n      jumpi\n      mload(0x40)\n      0x08c379a000000000000000000000000000000000000000000000000000000000\n      dup2\n      mstore\n      0x04\n      add\n      tag_204\n      swap1\n      tag_191\n      jump\t// in\n    tag_204:\n      mload(0x40)\n      dup1\n      swap2\n      sub\n      swap1\n      revert\n    tag_203:\n        /* \"contracts/WhitelistedTokenSale.sol\":16257:16277  uint256 ownerBalance */\n      0x00\n        /* \"contracts/WhitelistedTokenSale.sol\":16280:16301  address(this).balance */\n      selfbalance\n        /* \"contracts/WhitelistedTokenSale.sol\":16257:16301  uint256 ownerBalance = address(this).balance */\n      swap1\n      pop\n        /* \"contracts/WhitelistedTokenSale.sol\":16334:16335  0 */\n      0x00\n        /* \"contracts/WhitelistedTokenSale.sol\":16319:16331  ownerBalance */\n      dup2\n        /* \"contracts/WhitelistedTokenSale.sol\":16319:16335  ownerBalance > 0 */\n      gt\n        /* \"contracts/WhitelistedTokenSale.sol\":16311:16373  require(ownerBalance > 0, \"Owner has not balance to withdraw\") */\n      tag_206\n      jumpi\n      mload(0x40)\n      0x08c379a000000000000000000000000000000000000000000000000000000000\n      dup2\n      mstore\n      0x04\n      add\n      tag_207\n      swap1\n      tag_208\n      jump\t// in\n    tag_207:\n      mload(0x40)\n      dup1\n      swap2\n      sub\n      swap1\n      revert\n    tag_206:\n        /* \"contracts/WhitelistedTokenSale.sol\":16385:16394  bool sent */\n      0x00\n        /* \"contracts/WhitelistedTokenSale.sol\":16399:16409  msg.sender */\n      caller\n        /* \"contracts/WhitelistedTokenSale.sol\":16399:16414  msg.sender.call */\n      0xffffffffffffffffffffffffffffffffffffffff\n      and\n        /* \"contracts/WhitelistedTokenSale.sol\":16422:16443  address(this).balance */\n      selfbalance\n        /* \"contracts/WhitelistedTokenSale.sol\":16399:16448  msg.sender.call{value: address(this).balance}(\"\") */\n      mload(0x40)\n      tag_209\n      swap1\n      tag_210\n      jump\t// in\n    tag_209:\n      0x00\n      mload(0x40)\n      dup1\n      dup4\n      sub\n      dup2\n      dup6\n      dup8\n      gas\n      call\n      swap3\n      pop\n      pop\n      pop\n      returndatasize\n      dup1\n      0x00\n      dup2\n      eq\n      tag_213\n      jumpi\n      mload(0x40)\n      swap2\n      pop\n      and(add(returndatasize, 0x3f), not(0x1f))\n      dup3\n      add\n      0x40\n      mstore\n      returndatasize\n      dup3\n      mstore\n      returndatasize\n      0x00\n      0x20\n      dup5\n      add\n      returndatacopy\n      jump(tag_212)\n    tag_213:\n      0x60\n      swap2\n      pop\n    tag_212:\n      pop\n        /* \"contracts/WhitelistedTokenSale.sol\":16384:16448  (bool sent,) = msg.sender.call{value: address(this).balance}(\"\") */\n      pop\n      swap1\n      pop\n        /* \"contracts/WhitelistedTokenSale.sol\":16466:16470  sent */\n      dup1\n        /* \"contracts/WhitelistedTokenSale.sol\":16458:16520  require(sent, \"Failed to send user balance back to the owner\") */\n      tag_214\n      jumpi\n      mload(0x40)\n      0x08c379a000000000000000000000000000000000000000000000000000000000\n      dup2\n      mstore\n      0x04\n      add\n      tag_215\n      swap1\n      tag_216\n      jump\t// in\n    tag_215:\n      mload(0x40)\n      dup1\n      swap2\n      sub\n      swap1\n      revert\n    tag_214:\n        /* \"contracts/WhitelistedTokenSale.sol\":16247:16527  {... */\n      pop\n      pop\n        /* \"contracts/WhitelistedTokenSale.sol\":16210:16527  function withdraw() public onlyOwner {... */\n      jump\t// out\n        /* \"contracts/WhitelistedTokenSale.sol\":12357:13609  function buyTokens7() public payable returns (uint256 tokenAmount) {... */\n    tag_78:\n        /* \"contracts/WhitelistedTokenSale.sol\":12403:12422  uint256 tokenAmount */\n      0x00\n        /* \"contracts/WhitelistedTokenSale.sol\":12454:12455  0 */\n      dup1\n        /* \"contracts/WhitelistedTokenSale.sol\":12442:12451  msg.value */\n      callvalue\n        /* \"contracts/WhitelistedTokenSale.sol\":12442:12455  msg.value > 0 */\n      gt\n        /* \"contracts/WhitelistedTokenSale.sol\":12434:12487  require(msg.value > 0, \"Send ETH to buy some tokens\") */\n      tag_218\n      jumpi\n      mload(0x40)\n      0x08c379a000000000000000000000000000000000000000000000000000000000\n      dup2\n      mstore\n      0x04\n      add\n      tag_219\n      swap1\n      tag_220\n      jump\t// in\n    tag_219:\n      mload(0x40)\n      dup1\n      swap2\n      sub\n      swap1\n      revert\n    tag_218:\n        /* \"contracts/WhitelistedTokenSale.sol\":12600:12618  address ethAddress */\n      0x00\n        /* \"contracts/WhitelistedTokenSale.sol\":12711:12721  ethAddress */\n      dup1\n        /* \"contracts/WhitelistedTokenSale.sol\":12697:12721  msg.sender == ethAddress */\n      0xffffffffffffffffffffffffffffffffffffffff\n      and\n        /* \"contracts/WhitelistedTokenSale.sol\":12697:12707  msg.sender */\n      caller\n        /* \"contracts/WhitelistedTokenSale.sol\":12697:12721  msg.sender == ethAddress */\n      0xffffffffffffffffffffffffffffffffffffffff\n      and\n      eq\n        /* \"contracts/WhitelistedTokenSale.sol\":12689:12748  require(msg.sender == ethAddress, \"Only Ether is allowed!\") */\n      tag_221\n      jumpi\n      mload(0x40)\n      0x08c379a000000000000000000000000000000000000000000000000000000000\n      dup2\n      mstore\n      0x04\n      add\n      tag_222\n      swap1\n      tag_223\n      jump\t// in\n    tag_222:\n      mload(0x40)\n      dup1\n      swap2\n      sub\n      swap1\n      revert\n    tag_221:\n        /* \"contracts/WhitelistedTokenSale.sol\":12759:12778  uint256 amountToBuy */\n      0x00\n        /* \"contracts/WhitelistedTokenSale.sol\":12793:12805  tokensPerEth */\n      sload(0x6c)\n        /* \"contracts/WhitelistedTokenSale.sol\":12781:12790  msg.value */\n      callvalue\n        /* \"contracts/WhitelistedTokenSale.sol\":12781:12805  msg.value * tokensPerEth */\n      tag_224\n      swap2\n      swap1\n      tag_225\n      jump\t// in\n    tag_224:\n        /* \"contracts/WhitelistedTokenSale.sol\":12759:12805  uint256 amountToBuy = msg.value * tokensPerEth */\n      swap1\n      pop\n        /* \"contracts/WhitelistedTokenSale.sol\":12904:12925  uint256 vendorBalance */\n      0x00\n        /* \"contracts/WhitelistedTokenSale.sol\":12928:12939  tokenToSell */\n      0x68\n      0x01\n      swap1\n      sload\n      swap1\n      0x0100\n      exp\n      swap1\n      div\n      0xffffffffffffffffffffffffffffffffffffffff\n      and\n        /* \"contracts/WhitelistedTokenSale.sol\":12928:12949  tokenToSell.balanceOf */\n      0xffffffffffffffffffffffffffffffffffffffff\n      and\n      0x70a08231\n        /* \"contracts/WhitelistedTokenSale.sol\":12958:12962  this */\n      address\n        /* \"contracts/WhitelistedTokenSale.sol\":12928:12964  tokenToSell.balanceOf(address(this)) */\n      mload(0x40)\n      dup3\n      0xffffffff\n      and\n      0xe0\n      shl\n      dup2\n      mstore\n      0x04\n      add\n      tag_226\n      swap2\n      swap1\n      tag_91\n      jump\t// in\n    tag_226:\n      0x20\n      mload(0x40)\n      dup1\n      dup4\n      sub\n      dup2\n      dup7\n      gas\n      staticcall\n      iszero\n      dup1\n      iszero\n      tag_228\n      jumpi\n      returndatasize\n      0x00\n      dup1\n      returndatacopy\n      revert(0x00, returndatasize)\n    tag_228:\n      pop\n      pop\n      pop\n      pop\n      mload(0x40)\n      returndatasize\n      not(0x1f)\n      0x1f\n      dup3\n      add\n      and\n      dup3\n      add\n      dup1\n      0x40\n      mstore\n      pop\n      dup2\n      add\n      swap1\n      tag_229\n      swap2\n      swap1\n      tag_230\n      jump\t// in\n    tag_229:\n        /* \"contracts/WhitelistedTokenSale.sol\":12904:12964  uint256 vendorBalance = tokenToSell.balanceOf(address(this)) */\n      swap1\n      pop\n        /* \"contracts/WhitelistedTokenSale.sol\":12999:13010  amountToBuy */\n      dup2\n        /* \"contracts/WhitelistedTokenSale.sol\":12982:12995  vendorBalance */\n      dup2\n        /* \"contracts/WhitelistedTokenSale.sol\":12982:13010  vendorBalance >= amountToBuy */\n      lt\n      iszero\n        /* \"contracts/WhitelistedTokenSale.sol\":12974:13067  require(vendorBalance >= amountToBuy, \"Vendor contract has not enough tokens in its balance\") */\n      tag_231\n      jumpi\n      mload(0x40)\n      0x08c379a000000000000000000000000000000000000000000000000000000000\n      dup2\n      mstore\n      0x04\n      add\n      tag_232\n      swap1\n      tag_233\n      jump\t// in\n    tag_232:\n      mload(0x40)\n      dup1\n      swap2\n      sub\n      swap1\n      revert\n    tag_231:\n        /* \"contracts/WhitelistedTokenSale.sol\":13123:13132  bool sent */\n      0x00\n        /* \"contracts/WhitelistedTokenSale.sol\":13136:13147  tokenToSell */\n      0x68\n      0x01\n      swap1\n      sload\n      swap1\n      0x0100\n      exp\n      swap1\n      div\n      0xffffffffffffffffffffffffffffffffffffffff\n      and\n        /* \"contracts/WhitelistedTokenSale.sol\":13136:13156  tokenToSell.transfer */\n      0xffffffffffffffffffffffffffffffffffffffff\n      and\n      0xa9059cbb\n        /* \"contracts/WhitelistedTokenSale.sol\":13157:13167  msg.sender */\n      caller\n        /* \"contracts/WhitelistedTokenSale.sol\":13169:13180  amountToBuy */\n      dup6\n        /* \"contracts/WhitelistedTokenSale.sol\":13136:13181  tokenToSell.transfer(msg.sender, amountToBuy) */\n      mload(0x40)\n      dup4\n      0xffffffff\n      and\n      0xe0\n      shl\n      dup2\n      mstore\n      0x04\n      add\n      tag_234\n      swap3\n      swap2\n      swap1\n      tag_235\n      jump\t// in\n    tag_234:\n      0x20\n      mload(0x40)\n      dup1\n      dup4\n      sub\n      dup2\n      0x00\n      dup8\n      gas\n      call\n      iszero\n      dup1\n      iszero\n      tag_237\n      jumpi\n      returndatasize\n      0x00\n      dup1\n      returndatacopy\n      revert(0x00, returndatasize)\n    tag_237:\n      pop\n      pop\n      pop\n      pop\n      mload(0x40)\n      returndatasize\n      not(0x1f)\n      0x1f\n      dup3\n      add\n      and\n      dup3\n      add\n      dup1\n      0x40\n      mstore\n      pop\n      dup2\n      add\n      swap1\n      tag_238\n      swap2\n      swap1\n      tag_239\n      jump\t// in\n    tag_238:\n        /* \"contracts/WhitelistedTokenSale.sol\":13122:13181  (bool sent) = tokenToSell.transfer(msg.sender, amountToBuy) */\n      swap1\n      pop\n        /* \"contracts/WhitelistedTokenSale.sol\":13199:13203  sent */\n      dup1\n        /* \"contracts/WhitelistedTokenSale.sol\":13191:13240  require(sent, \"Failed to transfer token to user\") */\n      tag_240\n      jumpi\n      mload(0x40)\n      0x08c379a000000000000000000000000000000000000000000000000000000000\n      dup2\n      mstore\n      0x04\n      add\n      tag_241\n      swap1\n      tag_242\n      jump\t// in\n    tag_241:\n      mload(0x40)\n      dup1\n      swap2\n      sub\n      swap1\n      revert\n    tag_240:\n        /* \"contracts/WhitelistedTokenSale.sol\":13591:13602  amountToBuy */\n      dup3\n        /* \"contracts/WhitelistedTokenSale.sol\":13584:13602  return amountToBuy */\n      swap5\n      pop\n      pop\n      pop\n      pop\n      pop\n        /* \"contracts/WhitelistedTokenSale.sol\":12357:13609  function buyTokens7() public payable returns (uint256 tokenAmount) {... */\n      swap1\n      jump\t// out\n        /* \"contracts/traits/Pausable.sol\":2211:2315  function unpause() public onlyAdmin whenPaused {... */\n    tag_82:\n        /* \"contracts/traits/Administrated.sol\":983:1002  isAdmin(msg.sender) */\n      tag_244\n        /* \"contracts/traits/Administrated.sol\":991:1001  msg.sender */\n      caller\n        /* \"contracts/traits/Administrated.sol\":983:990  isAdmin */\n      tag_61\n        /* \"contracts/traits/Administrated.sol\":983:1002  isAdmin(msg.sender) */\n      jump\t// in\n    tag_244:\n        /* \"contracts/traits/Administrated.sol\":975:1045  require(isAdmin(msg.sender), \"Administrated: Msg sender is not admin\") */\n      tag_245\n      jumpi\n      mload(0x40)\n      0x08c379a000000000000000000000000000000000000000000000000000000000\n      dup2\n      mstore\n      0x04\n      add\n      tag_246\n      swap1\n      tag_185\n      jump\t// in\n    tag_246:\n      mload(0x40)\n      dup1\n      swap2\n      sub\n      swap1\n      revert\n    tag_245:\n        /* \"contracts/traits/Pausable.sol\":1904:1911  _paused */\n      0x68\n      0x00\n      swap1\n      sload\n      swap1\n      0x0100\n      exp\n      swap1\n      div\n      0xff\n      and\n        /* \"contracts/traits/Pausable.sol\":1896:1936  require(_paused, \"Pausable: not paused\") */\n      tag_248\n      jumpi\n      mload(0x40)\n      0x08c379a000000000000000000000000000000000000000000000000000000000\n      dup2\n      mstore\n      0x04\n      add\n      tag_249\n      swap1\n      tag_250\n      jump\t// in\n    tag_249:\n      mload(0x40)\n      dup1\n      swap2\n      sub\n      swap1\n      revert\n    tag_248:\n        /* \"contracts/traits/Pausable.sol\":2274:2279  false */\n      0x00\n        /* \"contracts/traits/Pausable.sol\":2264:2271  _paused */\n      0x68\n      0x00\n        /* \"contracts/traits/Pausable.sol\":2264:2279  _paused = false */\n      0x0100\n      exp\n      dup2\n      sload\n      dup2\n      0xff\n      mul\n      not\n      and\n      swap1\n      dup4\n      iszero\n      iszero\n      mul\n      or\n      swap1\n      sstore\n      pop\n        /* \"contracts/traits/Pausable.sol\":2290:2310  Unpaused(msg.sender) */\n      0x5db9ee0a495bf2e6ff9c91a7834c1ba4fdd244a5e8aa4e537bd38aeae4b073aa\n        /* \"contracts/traits/Pausable.sol\":2299:2309  msg.sender */\n      caller\n        /* \"contracts/traits/Pausable.sol\":2290:2310  Unpaused(msg.sender) */\n      mload(0x40)\n      tag_252\n      swap2\n      swap1\n      tag_91\n      jump\t// in\n    tag_252:\n      mload(0x40)\n      dup1\n      swap2\n      sub\n      swap1\n      log1\n        /* \"contracts/traits/Pausable.sol\":2211:2315  function unpause() public onlyAdmin whenPaused {... */\n      jump\t// out\n        /* \"contracts/WhitelistedTokenSale.sol\":1316:1344  bool public whitelistEnabled */\n    tag_85:\n      0x69\n      0x14\n      swap1\n      sload\n      swap1\n      0x0100\n      exp\n      swap1\n      div\n      0xff\n      and\n      dup2\n      jump\t// out\n        /* \"contracts/WhitelistedTokenSale.sol\":1351:1372  address public wallet */\n    tag_89:\n      0x6a\n      0x00\n      swap1\n      sload\n      swap1\n      0x0100\n      exp\n      swap1\n      div\n      0xffffffffffffffffffffffffffffffffffffffff\n      and\n      dup2\n      jump\t// out\n        /* \"contracts/traits/Pausable.sol\":1520:1590  function paused() public view returns (bool) {... */\n    tag_94:\n        /* \"contracts/traits/Pausable.sol\":1559:1563  bool */\n      0x00\n        /* \"contracts/traits/Pausable.sol\":1578:1585  _paused */\n      0x68\n      0x00\n      swap1\n      sload\n      swap1\n      0x0100\n      exp\n      swap1\n      div\n      0xff\n      and\n        /* \"contracts/traits/Pausable.sol\":1571:1585  return _paused */\n      swap1\n      pop\n        /* \"contracts/traits/Pausable.sol\":1520:1590  function paused() public view returns (bool) {... */\n      swap1\n      jump\t// out\n        /* \"contracts/WhitelistedTokenSale.sol\":1227:1252  IERC20 public tokenToSell */\n    tag_98:\n      0x68\n      0x01\n      swap1\n      sload\n      swap1\n      0x0100\n      exp\n      swap1\n      div\n      0xffffffffffffffffffffffffffffffffffffffff\n      and\n      dup2\n      jump\t// out\n        /* \"contracts/WhitelistedTokenSale.sol\":14560:14687  function getContractBalance() public view returns(uint256){... */\n    tag_103:\n        /* \"contracts/WhitelistedTokenSale.sol\":14610:14617  uint256 */\n      0x00\n        /* \"contracts/WhitelistedTokenSale.sol\":14642:14653  tokenToSell */\n      0x68\n      0x01\n      swap1\n      sload\n      swap1\n      0x0100\n      exp\n      swap1\n      div\n      0xffffffffffffffffffffffffffffffffffffffff\n      and\n        /* \"contracts/WhitelistedTokenSale.sol\":14635:14664  IERC20(tokenToSell).balanceOf */\n      0xffffffffffffffffffffffffffffffffffffffff\n      and\n      0x70a08231\n        /* \"contracts/WhitelistedTokenSale.sol\":14673:14677  this */\n      address\n        /* \"contracts/WhitelistedTokenSale.sol\":14635:14679  IERC20(tokenToSell).balanceOf(address(this)) */\n      mload(0x40)\n      dup3\n      0xffffffff\n      and\n      0xe0\n      shl\n      dup2\n      mstore\n      0x04\n      add\n      tag_255\n      swap2\n      swap1\n      tag_91\n      jump\t// in\n    tag_255:\n      0x20\n      mload(0x40)\n      dup1\n      dup4\n      sub\n      dup2\n      dup7\n      gas\n      staticcall\n      iszero\n      dup1\n      iszero\n      tag_257\n      jumpi\n      returndatasize\n      0x00\n      dup1\n      returndatacopy\n      revert(0x00, returndatasize)\n    tag_257:\n      pop\n      pop\n      pop\n      pop\n      mload(0x40)\n      returndatasize\n      not(0x1f)\n      0x1f\n      dup3\n      add\n      and\n      dup3\n      add\n      dup1\n      0x40\n      mstore\n      pop\n      dup2\n      add\n      swap1\n      tag_258\n      swap2\n      swap1\n      tag_230\n      jump\t// in\n    tag_258:\n        /* \"contracts/WhitelistedTokenSale.sol\":14628:14679  return IERC20(tokenToSell).balanceOf(address(this)) */\n      swap1\n      pop\n        /* \"contracts/WhitelistedTokenSale.sol\":14560:14687  function getContractBalance() public view returns(uint256){... */\n      swap1\n      jump\t// out\n        /* \"contracts/traits/Administrated.sol\":1083:1192  function addAdmin(address _admin) external onlyOwner {... */\n    tag_108:\n        /* \"@openzeppelin/contracts-ethereum-package/contracts/ownership/Ownable.sol\":1237:1246  isOwner() */\n      tag_260\n        /* \"@openzeppelin/contracts-ethereum-package/contracts/ownership/Ownable.sol\":1237:1244  isOwner */\n      tag_125\n        /* \"@openzeppelin/contracts-ethereum-package/contracts/ownership/Ownable.sol\":1237:1246  isOwner() */\n      jump\t// in\n    tag_260:\n        /* \"@openzeppelin/contracts-ethereum-package/contracts/ownership/Ownable.sol\":1229:1283  require(isOwner(), \"Ownable: caller is not the owner\") */\n      tag_261\n      jumpi\n      mload(0x40)\n      0x08c379a000000000000000000000000000000000000000000000000000000000\n      dup2\n      mstore\n      0x04\n      add\n      tag_262\n      swap1\n      tag_191\n      jump\t// in\n    tag_262:\n      mload(0x40)\n      dup1\n      swap2\n      sub\n      swap1\n      revert\n    tag_261:\n        /* \"contracts/traits/Administrated.sol\":1142:1160  admins.add(_admin) */\n      tag_264\n        /* \"contracts/traits/Administrated.sol\":1153:1159  _admin */\n      dup2\n        /* \"contracts/traits/Administrated.sol\":1142:1148  admins */\n      0x66\n        /* \"contracts/traits/Administrated.sol\":1142:1152  admins.add */\n      tag_265\n      swap1\n        /* \"contracts/traits/Administrated.sol\":1142:1160  admins.add(_admin) */\n      swap2\n      swap1\n      0xffffffff\n      and\n      jump\t// in\n    tag_264:\n      pop\n        /* \"contracts/traits/Administrated.sol\":1180:1186  _admin */\n      dup1\n        /* \"contracts/traits/Administrated.sol\":1171:1187  AddAdmin(_admin) */\n      0xffffffffffffffffffffffffffffffffffffffff\n      and\n      0xad6de4452a631e641cb59902236607946ce9272b9b981f2f80e8d129cb9084ba\n      mload(0x40)\n      mload(0x40)\n      dup1\n      swap2\n      sub\n      swap1\n      log2\n        /* \"contracts/traits/Administrated.sol\":1083:1192  function addAdmin(address _admin) external onlyOwner {... */\n      pop\n      jump\t// out\n        /* \"@openzeppelin/contracts-ethereum-package/contracts/ownership/Ownable.sol\":1820:1957  function renounceOwnership() public onlyOwner {... */\n    tag_111:\n        /* \"@openzeppelin/contracts-ethereum-package/contracts/ownership/Ownable.sol\":1237:1246  isOwner() */\n      tag_267\n        /* \"@openzeppelin/contracts-ethereum-package/contracts/ownership/Ownable.sol\":1237:1244  isOwner */\n      tag_125\n        /* \"@openzeppelin/contracts-ethereum-package/contracts/ownership/Ownable.sol\":1237:1246  isOwner() */\n      jump\t// in\n    tag_267:\n        /* \"@openzeppelin/contracts-ethereum-package/contracts/ownership/Ownable.sol\":1229:1283  require(isOwner(), \"Ownable: caller is not the owner\") */\n      tag_268\n      jumpi\n      mload(0x40)\n      0x08c379a000000000000000000000000000000000000000000000000000000000\n      dup2\n      mstore\n      0x04\n      add\n      tag_269\n      swap1\n      tag_191\n      jump\t// in\n    tag_269:\n      mload(0x40)\n      dup1\n      swap2\n      sub\n      swap1\n      revert\n    tag_268:\n        /* \"@openzeppelin/contracts-ethereum-package/contracts/ownership/Ownable.sol\":1918:1919  0 */\n      0x00\n        /* \"@openzeppelin/contracts-ethereum-package/contracts/ownership/Ownable.sol\":1881:1921  OwnershipTransferred(_owner, address(0)) */\n      0xffffffffffffffffffffffffffffffffffffffff\n      and\n        /* \"@openzeppelin/contracts-ethereum-package/contracts/ownership/Ownable.sol\":1902:1908  _owner */\n      0x33\n      0x00\n      swap1\n      sload\n      swap1\n      0x0100\n      exp\n      swap1\n      div\n      0xffffffffffffffffffffffffffffffffffffffff\n      and\n        /* \"@openzeppelin/contracts-ethereum-package/contracts/ownership/Ownable.sol\":1881:1921  OwnershipTransferred(_owner, address(0)) */\n      0xffffffffffffffffffffffffffffffffffffffff\n      and\n      0x8be0079c531659141344cd1fd0a4f28419497f9722a3daafe3b4186f6b6457e0\n      mload(0x40)\n      mload(0x40)\n      dup1\n      swap2\n      sub\n      swap1\n      log3\n        /* \"@openzeppelin/contracts-ethereum-package/contracts/ownership/Ownable.sol\":1948:1949  0 */\n      0x00\n        /* \"@openzeppelin/contracts-ethereum-package/contracts/ownership/Ownable.sol\":1931:1937  _owner */\n      0x33\n      0x00\n        /* \"@openzeppelin/contracts-ethereum-package/contracts/ownership/Ownable.sol\":1931:1950  _owner = address(0) */\n      0x0100\n      exp\n      dup2\n      sload\n      dup2\n      0xffffffffffffffffffffffffffffffffffffffff\n      mul\n      not\n      and\n      swap1\n      dup4\n      0xffffffffffffffffffffffffffffffffffffffff\n      and\n      mul\n      or\n      swap1\n      sstore\n      pop\n        /* \"@openzeppelin/contracts-ethereum-package/contracts/ownership/Ownable.sol\":1820:1957  function renounceOwnership() public onlyOwner {... */\n      jump\t// out\n        /* \"contracts/traits/Pausable.sol\":2027:2129  function pause() public onlyAdmin whenNotPaused {... */\n    tag_114:\n        /* \"contracts/traits/Administrated.sol\":983:1002  isAdmin(msg.sender) */\n      tag_272\n        /* \"contracts/traits/Administrated.sol\":991:1001  msg.sender */\n      caller\n        /* \"contracts/traits/Administrated.sol\":983:990  isAdmin */\n      tag_61\n        /* \"contracts/traits/Administrated.sol\":983:1002  isAdmin(msg.sender) */\n      jump\t// in\n    tag_272:\n        /* \"contracts/traits/Administrated.sol\":975:1045  require(isAdmin(msg.sender), \"Administrated: Msg sender is not admin\") */\n      tag_273\n      jumpi\n      mload(0x40)\n      0x08c379a000000000000000000000000000000000000000000000000000000000\n      dup2\n      mstore\n      0x04\n      add\n      tag_274\n      swap1\n      tag_185\n      jump\t// in\n    tag_274:\n      mload(0x40)\n      dup1\n      swap2\n      sub\n      swap1\n      revert\n    tag_273:\n        /* \"contracts/traits/Pausable.sol\":1731:1738  _paused */\n      0x68\n      0x00\n      swap1\n      sload\n      swap1\n      0x0100\n      exp\n      swap1\n      div\n      0xff\n      and\n        /* \"contracts/traits/Pausable.sol\":1730:1738  !_paused */\n      iszero\n        /* \"contracts/traits/Pausable.sol\":1722:1759  require(!_paused, \"Pausable: paused\") */\n      tag_276\n      jumpi\n      mload(0x40)\n      0x08c379a000000000000000000000000000000000000000000000000000000000\n      dup2\n      mstore\n      0x04\n      add\n      tag_277\n      swap1\n      tag_278\n      jump\t// in\n    tag_277:\n      mload(0x40)\n      dup1\n      swap2\n      sub\n      swap1\n      revert\n    tag_276:\n        /* \"contracts/traits/Pausable.sol\":2091:2095  true */\n      0x01\n        /* \"contracts/traits/Pausable.sol\":2081:2088  _paused */\n      0x68\n      0x00\n        /* \"contracts/traits/Pausable.sol\":2081:2095  _paused = true */\n      0x0100\n      exp\n      dup2\n      sload\n      dup2\n      0xff\n      mul\n      not\n      and\n      swap1\n      dup4\n      iszero\n      iszero\n      mul\n      or\n      swap1\n      sstore\n      pop\n        /* \"contracts/traits/Pausable.sol\":2106:2124  Paused(msg.sender) */\n      0x62e78cea01bee320cd4e420270b5ea74000d11b0c9f74754ebdbfc544b05a258\n        /* \"contracts/traits/Pausable.sol\":2113:2123  msg.sender */\n      caller\n        /* \"contracts/traits/Pausable.sol\":2106:2124  Paused(msg.sender) */\n      mload(0x40)\n      tag_280\n      swap2\n      swap1\n      tag_91\n      jump\t// in\n    tag_280:\n      mload(0x40)\n      dup1\n      swap2\n      sub\n      swap1\n      log1\n        /* \"contracts/traits/Pausable.sol\":2027:2129  function pause() public onlyAdmin whenNotPaused {... */\n      jump\t// out\n        /* \"contracts/traits/Administrated.sol\":1838:1928  function getAdminCount() external view returns (uint256) {... */\n    tag_117:\n        /* \"contracts/traits/Administrated.sol\":1886:1893  uint256 */\n      0x00\n        /* \"contracts/traits/Administrated.sol\":1908:1923  admins.length() */\n      tag_282\n        /* \"contracts/traits/Administrated.sol\":1908:1914  admins */\n      0x66\n        /* \"contracts/traits/Administrated.sol\":1908:1921  admins.length */\n      tag_283\n        /* \"contracts/traits/Administrated.sol\":1908:1923  admins.length() */\n      jump\t// in\n    tag_282:\n        /* \"contracts/traits/Administrated.sol\":1901:1923  return admins.length() */\n      swap1\n      pop\n        /* \"contracts/traits/Administrated.sol\":1838:1928  function getAdminCount() external view returns (uint256) {... */\n      swap1\n      jump\t// out\n        /* \"@openzeppelin/contracts-ethereum-package/contracts/ownership/Ownable.sol\":1033:1110  function owner() public view returns (address) {... */\n    tag_121:\n        /* \"@openzeppelin/contracts-ethereum-package/contracts/ownership/Ownable.sol\":1071:1078  address */\n      0x00\n        /* \"@openzeppelin/contracts-ethereum-package/contracts/ownership/Ownable.sol\":1097:1103  _owner */\n      0x33\n      0x00\n      swap1\n      sload\n      swap1\n      0x0100\n      exp\n      swap1\n      div\n      0xffffffffffffffffffffffffffffffffffffffff\n      and\n        /* \"@openzeppelin/contracts-ethereum-package/contracts/ownership/Ownable.sol\":1090:1103  return _owner */\n      swap1\n      pop\n        /* \"@openzeppelin/contracts-ethereum-package/contracts/ownership/Ownable.sol\":1033:1110  function owner() public view returns (address) {... */\n      swap1\n      jump\t// out\n        /* \"@openzeppelin/contracts-ethereum-package/contracts/ownership/Ownable.sol\":1384:1476  function isOwner() public view returns (bool) {... */\n    tag_125:\n        /* \"@openzeppelin/contracts-ethereum-package/contracts/ownership/Ownable.sol\":1424:1428  bool */\n      0x00\n        /* \"@openzeppelin/contracts-ethereum-package/contracts/ownership/Ownable.sol\":1463:1469  _owner */\n      0x33\n      0x00\n      swap1\n      sload\n      swap1\n      0x0100\n      exp\n      swap1\n      div\n      0xffffffffffffffffffffffffffffffffffffffff\n      and\n        /* \"@openzeppelin/contracts-ethereum-package/contracts/ownership/Ownable.sol\":1447:1469  _msgSender() == _owner */\n      0xffffffffffffffffffffffffffffffffffffffff\n      and\n        /* \"@openzeppelin/contracts-ethereum-package/contracts/ownership/Ownable.sol\":1447:1459  _msgSender() */\n      tag_286\n        /* \"@openzeppelin/contracts-ethereum-package/contracts/ownership/Ownable.sol\":1447:1457  _msgSender */\n      tag_287\n        /* \"@openzeppelin/contracts-ethereum-package/contracts/ownership/Ownable.sol\":1447:1459  _msgSender() */\n      jump\t// in\n    tag_286:\n        /* \"@openzeppelin/contracts-ethereum-package/contracts/ownership/Ownable.sol\":1447:1469  _msgSender() == _owner */\n      0xffffffffffffffffffffffffffffffffffffffff\n      and\n      eq\n        /* \"@openzeppelin/contracts-ethereum-package/contracts/ownership/Ownable.sol\":1440:1469  return _msgSender() == _owner */\n      swap1\n      pop\n        /* \"@openzeppelin/contracts-ethereum-package/contracts/ownership/Ownable.sol\":1384:1476  function isOwner() public view returns (bool) {... */\n      swap1\n      jump\t// out\n        /* \"contracts/WhitelistedTokenSale.sol\":15511:15948  function getContractBalanceWholeTokens() public view returns(uint256){... */\n    tag_129:\n        /* \"contracts/WhitelistedTokenSale.sol\":15572:15579  uint256 */\n      0x00\n        /* \"contracts/WhitelistedTokenSale.sol\":15590:15609  uint256 fullBalance */\n      dup1\n        /* \"contracts/WhitelistedTokenSale.sol\":15612:15632  getContractBalance() */\n      tag_289\n        /* \"contracts/WhitelistedTokenSale.sol\":15612:15630  getContractBalance */\n      tag_103\n        /* \"contracts/WhitelistedTokenSale.sol\":15612:15632  getContractBalance() */\n      jump\t// in\n    tag_289:\n        /* \"contracts/WhitelistedTokenSale.sol\":15590:15632  uint256 fullBalance = getContractBalance() */\n      swap1\n      pop\n        /* \"contracts/WhitelistedTokenSale.sol\":15661:15662  0 */\n      0x00\n        /* \"contracts/WhitelistedTokenSale.sol\":15647:15658  fullBalance */\n      dup2\n        /* \"contracts/WhitelistedTokenSale.sol\":15647:15662  fullBalance > 0 */\n      gt\n        /* \"contracts/WhitelistedTokenSale.sol\":15644:15942  if(fullBalance > 0)... */\n      iszero\n      tag_290\n      jumpi\n        /* \"contracts/WhitelistedTokenSale.sol\":15845:15875  convertWeiToEther(fullBalance) */\n      tag_291\n        /* \"contracts/WhitelistedTokenSale.sol\":15863:15874  fullBalance */\n      dup2\n        /* \"contracts/WhitelistedTokenSale.sol\":15845:15862  convertWeiToEther */\n      tag_72\n        /* \"contracts/WhitelistedTokenSale.sol\":15845:15875  convertWeiToEther(fullBalance) */\n      jump\t// in\n    tag_291:\n        /* \"contracts/WhitelistedTokenSale.sol\":15838:15875  return convertWeiToEther(fullBalance) */\n      swap2\n      pop\n      pop\n      jump(tag_288)\n        /* \"contracts/WhitelistedTokenSale.sol\":15644:15942  if(fullBalance > 0)... */\n    tag_290:\n        /* \"contracts/WhitelistedTokenSale.sol\":15930:15931  0 */\n      0x00\n        /* \"contracts/WhitelistedTokenSale.sol\":15923:15931  return 0 */\n      swap2\n      pop\n      pop\n        /* \"contracts/WhitelistedTokenSale.sol\":15511:15948  function getContractBalanceWholeTokens() public view returns(uint256){... */\n    tag_288:\n      swap1\n      jump\t// out\n        /* \"@openzeppelin/contracts-ethereum-package/contracts/ownership/Ownable.sol\":807:957  function initialize(address sender) public virtual initializer {... */\n    tag_134:\n        /* \"@openzeppelin/upgrades/contracts/Initializable.sol\":1056:1068  initializing */\n      0x00\n      0x01\n      swap1\n      sload\n      swap1\n      0x0100\n      exp\n      swap1\n      div\n      0xff\n      and\n        /* \"@openzeppelin/upgrades/contracts/Initializable.sol\":1056:1087  initializing || isConstructor() */\n      dup1\n      tag_294\n      jumpi\n      pop\n        /* \"@openzeppelin/upgrades/contracts/Initializable.sol\":1072:1087  isConstructor() */\n      tag_295\n        /* \"@openzeppelin/upgrades/contracts/Initializable.sol\":1072:1085  isConstructor */\n      tag_296\n        /* \"@openzeppelin/upgrades/contracts/Initializable.sol\":1072:1087  isConstructor() */\n      jump\t// in\n    tag_295:\n        /* \"@openzeppelin/upgrades/contracts/Initializable.sol\":1056:1087  initializing || isConstructor() */\n    tag_294:\n        /* \"@openzeppelin/upgrades/contracts/Initializable.sol\":1056:1103  initializing || isConstructor() || !initialized */\n      dup1\n      tag_297\n      jumpi\n      pop\n        /* \"@openzeppelin/upgrades/contracts/Initializable.sol\":1092:1103  initialized */\n      0x00\n      dup1\n      sload\n      swap1\n      0x0100\n      exp\n      swap1\n      div\n      0xff\n      and\n        /* \"@openzeppelin/upgrades/contracts/Initializable.sol\":1091:1103  !initialized */\n      iszero\n        /* \"@openzeppelin/upgrades/contracts/Initializable.sol\":1056:1103  initializing || isConstructor() || !initialized */\n    tag_297:\n        /* \"@openzeppelin/upgrades/contracts/Initializable.sol\":1048:1154  require(initializing || isConstructor() || !initialized, \"Contract instance has already been initialized\") */\n      tag_298\n      jumpi\n      mload(0x40)\n      0x08c379a000000000000000000000000000000000000000000000000000000000\n      dup2\n      mstore\n      0x04\n      add\n      tag_299\n      swap1\n      tag_300\n      jump\t// in\n    tag_299:\n      mload(0x40)\n      dup1\n      swap2\n      sub\n      swap1\n      revert\n    tag_298:\n        /* \"@openzeppelin/upgrades/contracts/Initializable.sol\":1161:1180  bool isTopLevelCall */\n      0x00\n        /* \"@openzeppelin/upgrades/contracts/Initializable.sol\":1184:1196  initializing */\n      dup1\n      0x01\n      swap1\n      sload\n      swap1\n      0x0100\n      exp\n      swap1\n      div\n      0xff\n      and\n        /* \"@openzeppelin/upgrades/contracts/Initializable.sol\":1183:1196  !initializing */\n      iszero\n        /* \"@openzeppelin/upgrades/contracts/Initializable.sol\":1161:1196  bool isTopLevelCall = !initializing */\n      swap1\n      pop\n        /* \"@openzeppelin/upgrades/contracts/Initializable.sol\":1206:1220  isTopLevelCall */\n      dup1\n        /* \"@openzeppelin/upgrades/contracts/Initializable.sol\":1202:1282  if (isTopLevelCall) {... */\n      iszero\n      tag_301\n      jumpi\n        /* \"@openzeppelin/upgrades/contracts/Initializable.sol\":1245:1249  true */\n      0x01\n        /* \"@openzeppelin/upgrades/contracts/Initializable.sol\":1230:1242  initializing */\n      0x00\n      0x01\n        /* \"@openzeppelin/upgrades/contracts/Initializable.sol\":1230:1249  initializing = true */\n      0x0100\n      exp\n      dup2\n      sload\n      dup2\n      0xff\n      mul\n      not\n      and\n      swap1\n      dup4\n      iszero\n      iszero\n      mul\n      or\n      swap1\n      sstore\n      pop\n        /* \"@openzeppelin/upgrades/contracts/Initializable.sol\":1271:1275  true */\n      0x01\n        /* \"@openzeppelin/upgrades/contracts/Initializable.sol\":1257:1268  initialized */\n      0x00\n      dup1\n        /* \"@openzeppelin/upgrades/contracts/Initializable.sol\":1257:1275  initialized = true */\n      0x0100\n      exp\n      dup2\n      sload\n      dup2\n      0xff\n      mul\n      not\n      and\n      swap1\n      dup4\n      iszero\n      iszero\n      mul\n      or\n      swap1\n      sstore\n      pop\n        /* \"@openzeppelin/upgrades/contracts/Initializable.sol\":1202:1282  if (isTopLevelCall) {... */\n    tag_301:\n        /* \"@openzeppelin/contracts-ethereum-package/contracts/ownership/Ownable.sol\":889:895  sender */\n      dup2\n        /* \"@openzeppelin/contracts-ethereum-package/contracts/ownership/Ownable.sol\":880:886  _owner */\n      0x33\n      0x00\n        /* \"@openzeppelin/contracts-ethereum-package/contracts/ownership/Ownable.sol\":880:895  _owner = sender */\n      0x0100\n      exp\n      dup2\n      sload\n      dup2\n      0xffffffffffffffffffffffffffffffffffffffff\n      mul\n      not\n      and\n      swap1\n      dup4\n      0xffffffffffffffffffffffffffffffffffffffff\n      and\n      mul\n      or\n      swap1\n      sstore\n      pop\n        /* \"@openzeppelin/contracts-ethereum-package/contracts/ownership/Ownable.sol\":943:949  _owner */\n      0x33\n      0x00\n      swap1\n      sload\n      swap1\n      0x0100\n      exp\n      swap1\n      div\n      0xffffffffffffffffffffffffffffffffffffffff\n      and\n        /* \"@openzeppelin/contracts-ethereum-package/contracts/ownership/Ownable.sol\":910:950  OwnershipTransferred(address(0), _owner) */\n      0xffffffffffffffffffffffffffffffffffffffff\n      and\n        /* \"@openzeppelin/contracts-ethereum-package/contracts/ownership/Ownable.sol\":939:940  0 */\n      0x00\n        /* \"@openzeppelin/contracts-ethereum-package/contracts/ownership/Ownable.sol\":910:950  OwnershipTransferred(address(0), _owner) */\n      0xffffffffffffffffffffffffffffffffffffffff\n      and\n      0x8be0079c531659141344cd1fd0a4f28419497f9722a3daafe3b4186f6b6457e0\n      mload(0x40)\n      mload(0x40)\n      dup1\n      swap2\n      sub\n      swap1\n      log3\n        /* \"@openzeppelin/upgrades/contracts/Initializable.sol\":1300:1314  isTopLevelCall */\n      dup1\n        /* \"@openzeppelin/upgrades/contracts/Initializable.sol\":1296:1351  if (isTopLevelCall) {... */\n      iszero\n      tag_303\n      jumpi\n        /* \"@openzeppelin/upgrades/contracts/Initializable.sol\":1339:1344  false */\n      0x00\n        /* \"@openzeppelin/upgrades/contracts/Initializable.sol\":1324:1336  initializing */\n      dup1\n      0x01\n        /* \"@openzeppelin/upgrades/contracts/Initializable.sol\":1324:1344  initializing = false */\n      0x0100\n      exp\n      dup2\n      sload\n      dup2\n      0xff\n      mul\n      not\n      and\n      swap1\n      dup4\n      iszero\n      iszero\n      mul\n      or\n      swap1\n      sstore\n      pop\n        /* \"@openzeppelin/upgrades/contracts/Initializable.sol\":1296:1351  if (isTopLevelCall) {... */\n    tag_303:\n        /* \"@openzeppelin/upgrades/contracts/Initializable.sol\":1042:1355  {... */\n      pop\n        /* \"@openzeppelin/contracts-ethereum-package/contracts/ownership/Ownable.sol\":807:957  function initialize(address sender) public virtual initializer {... */\n      pop\n      jump\t// out\n        /* \"contracts/WhitelistedTokenSale.sol\":13615:13761  function getTokenBalanceAnyWallet(address someOwner) public view returns(uint256){... */\n    tag_138:\n        /* \"contracts/WhitelistedTokenSale.sol\":13688:13695  uint256 */\n      0x00\n        /* \"contracts/WhitelistedTokenSale.sol\":13720:13731  tokenToSell */\n      0x68\n      0x01\n      swap1\n      sload\n      swap1\n      0x0100\n      exp\n      swap1\n      div\n      0xffffffffffffffffffffffffffffffffffffffff\n      and\n        /* \"contracts/WhitelistedTokenSale.sol\":13713:13742  IERC20(tokenToSell).balanceOf */\n      0xffffffffffffffffffffffffffffffffffffffff\n      and\n      0x70a08231\n        /* \"contracts/WhitelistedTokenSale.sol\":13743:13752  someOwner */\n      dup4\n        /* \"contracts/WhitelistedTokenSale.sol\":13713:13753  IERC20(tokenToSell).balanceOf(someOwner) */\n      mload(0x40)\n      dup3\n      0xffffffff\n      and\n      0xe0\n      shl\n      dup2\n      mstore\n      0x04\n      add\n      tag_305\n      swap2\n      swap1\n      tag_91\n      jump\t// in\n    tag_305:\n      0x20\n      mload(0x40)\n      dup1\n      dup4\n      sub\n      dup2\n      dup7\n      gas\n      staticcall\n      iszero\n      dup1\n      iszero\n      tag_307\n      jumpi\n      returndatasize\n      0x00\n      dup1\n      returndatacopy\n      revert(0x00, returndatasize)\n    tag_307:\n      pop\n      pop\n      pop\n      pop\n      mload(0x40)\n      returndatasize\n      not(0x1f)\n      0x1f\n      dup3\n      add\n      and\n      dup3\n      add\n      dup1\n      0x40\n      mstore\n      pop\n      dup2\n      add\n      swap1\n      tag_308\n      swap2\n      swap1\n      tag_230\n      jump\t// in\n    tag_308:\n        /* \"contracts/WhitelistedTokenSale.sol\":13706:13753  return IERC20(tokenToSell).balanceOf(someOwner) */\n      swap1\n      pop\n        /* \"contracts/WhitelistedTokenSale.sol\":13615:13761  function getTokenBalanceAnyWallet(address someOwner) public view returns(uint256){... */\n      swap2\n      swap1\n      pop\n      jump\t// out\n        /* \"contracts/WhitelistedTokenSale.sol\":1756:1788  uint256 public tokensPerEth = 20 */\n    tag_142:\n      sload(0x6c)\n      dup2\n      jump\t// out\n        /* \"contracts/WhitelistedTokenSale.sol\":11168:12166  function buyTokens6Working() public payable returns (uint256 tokenAmount) {... */\n    tag_145:\n        /* \"contracts/WhitelistedTokenSale.sol\":11221:11240  uint256 tokenAmount */\n      0x00\n        /* \"contracts/WhitelistedTokenSale.sol\":11272:11273  0 */\n      dup1\n        /* \"contracts/WhitelistedTokenSale.sol\":11260:11269  msg.value */\n      callvalue\n        /* \"contracts/WhitelistedTokenSale.sol\":11260:11273  msg.value > 0 */\n      gt\n        /* \"contracts/WhitelistedTokenSale.sol\":11252:11305  require(msg.value > 0, \"Send ETH to buy some tokens\") */\n      tag_310\n      jumpi\n      mload(0x40)\n      0x08c379a000000000000000000000000000000000000000000000000000000000\n      dup2\n      mstore\n      0x04\n      add\n      tag_311\n      swap1\n      tag_220\n      jump\t// in\n    tag_311:\n      mload(0x40)\n      dup1\n      swap2\n      sub\n      swap1\n      revert\n    tag_310:\n        /* \"contracts/WhitelistedTokenSale.sol\":11316:11335  uint256 amountToBuy */\n      0x00\n        /* \"contracts/WhitelistedTokenSale.sol\":11350:11362  tokensPerEth */\n      sload(0x6c)\n        /* \"contracts/WhitelistedTokenSale.sol\":11338:11347  msg.value */\n      callvalue\n        /* \"contracts/WhitelistedTokenSale.sol\":11338:11362  msg.value * tokensPerEth */\n      tag_312\n      swap2\n      swap1\n      tag_225\n      jump\t// in\n    tag_312:\n        /* \"contracts/WhitelistedTokenSale.sol\":11316:11362  uint256 amountToBuy = msg.value * tokensPerEth */\n      swap1\n      pop\n        /* \"contracts/WhitelistedTokenSale.sol\":11461:11482  uint256 vendorBalance */\n      0x00\n        /* \"contracts/WhitelistedTokenSale.sol\":11485:11496  tokenToSell */\n      0x68\n      0x01\n      swap1\n      sload\n      swap1\n      0x0100\n      exp\n      swap1\n      div\n      0xffffffffffffffffffffffffffffffffffffffff\n      and\n        /* \"contracts/WhitelistedTokenSale.sol\":11485:11506  tokenToSell.balanceOf */\n      0xffffffffffffffffffffffffffffffffffffffff\n      and\n      0x70a08231\n        /* \"contracts/WhitelistedTokenSale.sol\":11515:11519  this */\n      address\n        /* \"contracts/WhitelistedTokenSale.sol\":11485:11521  tokenToSell.balanceOf(address(this)) */\n      mload(0x40)\n      dup3\n      0xffffffff\n      and\n      0xe0\n      shl\n      dup2\n      mstore\n      0x04\n      add\n      tag_313\n      swap2\n      swap1\n      tag_91\n      jump\t// in\n    tag_313:\n      0x20\n      mload(0x40)\n      dup1\n      dup4\n      sub\n      dup2\n      dup7\n      gas\n      staticcall\n      iszero\n      dup1\n      iszero\n      tag_315\n      jumpi\n      returndatasize\n      0x00\n      dup1\n      returndatacopy\n      revert(0x00, returndatasize)\n    tag_315:\n      pop\n      pop\n      pop\n      pop\n      mload(0x40)\n      returndatasize\n      not(0x1f)\n      0x1f\n      dup3\n      add\n      and\n      dup3\n      add\n      dup1\n      0x40\n      mstore\n      pop\n      dup2\n      add\n      swap1\n      tag_316\n      swap2\n      swap1\n      tag_230\n      jump\t// in\n    tag_316:\n        /* \"contracts/WhitelistedTokenSale.sol\":11461:11521  uint256 vendorBalance = tokenToSell.balanceOf(address(this)) */\n      swap1\n      pop\n        /* \"contracts/WhitelistedTokenSale.sol\":11556:11567  amountToBuy */\n      dup2\n        /* \"contracts/WhitelistedTokenSale.sol\":11539:11552  vendorBalance */\n      dup2\n        /* \"contracts/WhitelistedTokenSale.sol\":11539:11567  vendorBalance >= amountToBuy */\n      lt\n      iszero\n        /* \"contracts/WhitelistedTokenSale.sol\":11531:11624  require(vendorBalance >= amountToBuy, \"Vendor contract has not enough tokens in its balance\") */\n      tag_317\n      jumpi\n      mload(0x40)\n      0x08c379a000000000000000000000000000000000000000000000000000000000\n      dup2\n      mstore\n      0x04\n      add\n      tag_318\n      swap1\n      tag_233\n      jump\t// in\n    tag_318:\n      mload(0x40)\n      dup1\n      swap2\n      sub\n      swap1\n      revert\n    tag_317:\n        /* \"contracts/WhitelistedTokenSale.sol\":11680:11689  bool sent */\n      0x00\n        /* \"contracts/WhitelistedTokenSale.sol\":11693:11704  tokenToSell */\n      0x68\n      0x01\n      swap1\n      sload\n      swap1\n      0x0100\n      exp\n      swap1\n      div\n      0xffffffffffffffffffffffffffffffffffffffff\n      and\n        /* \"contracts/WhitelistedTokenSale.sol\":11693:11713  tokenToSell.transfer */\n      0xffffffffffffffffffffffffffffffffffffffff\n      and\n      0xa9059cbb\n        /* \"contracts/WhitelistedTokenSale.sol\":11714:11724  msg.sender */\n      caller\n        /* \"contracts/WhitelistedTokenSale.sol\":11726:11737  amountToBuy */\n      dup6\n        /* \"contracts/WhitelistedTokenSale.sol\":11693:11738  tokenToSell.transfer(msg.sender, amountToBuy) */\n      mload(0x40)\n      dup4\n      0xffffffff\n      and\n      0xe0\n      shl\n      dup2\n      mstore\n      0x04\n      add\n      tag_319\n      swap3\n      swap2\n      swap1\n      tag_235\n      jump\t// in\n    tag_319:\n      0x20\n      mload(0x40)\n      dup1\n      dup4\n      sub\n      dup2\n      0x00\n      dup8\n      gas\n      call\n      iszero\n      dup1\n      iszero\n      tag_321\n      jumpi\n      returndatasize\n      0x00\n      dup1\n      returndatacopy\n      revert(0x00, returndatasize)\n    tag_321:\n      pop\n      pop\n      pop\n      pop\n      mload(0x40)\n      returndatasize\n      not(0x1f)\n      0x1f\n      dup3\n      add\n      and\n      dup3\n      add\n      dup1\n      0x40\n      mstore\n      pop\n      dup2\n      add\n      swap1\n      tag_322\n      swap2\n      swap1\n      tag_239\n      jump\t// in\n    tag_322:\n        /* \"contracts/WhitelistedTokenSale.sol\":11679:11738  (bool sent) = tokenToSell.transfer(msg.sender, amountToBuy) */\n      swap1\n      pop\n        /* \"contracts/WhitelistedTokenSale.sol\":11756:11760  sent */\n      dup1\n        /* \"contracts/WhitelistedTokenSale.sol\":11748:11797  require(sent, \"Failed to transfer token to user\") */\n      tag_323\n      jumpi\n      mload(0x40)\n      0x08c379a000000000000000000000000000000000000000000000000000000000\n      dup2\n      mstore\n      0x04\n      add\n      tag_324\n      swap1\n      tag_242\n      jump\t// in\n    tag_324:\n      mload(0x40)\n      dup1\n      swap2\n      sub\n      swap1\n      revert\n    tag_323:\n        /* \"contracts/WhitelistedTokenSale.sol\":12148:12159  amountToBuy */\n      dup3\n        /* \"contracts/WhitelistedTokenSale.sol\":12141:12159  return amountToBuy */\n      swap4\n      pop\n      pop\n      pop\n      pop\n        /* \"contracts/WhitelistedTokenSale.sol\":11168:12166  function buyTokens6Working() public payable returns (uint256 tokenAmount) {... */\n      swap1\n      jump\t// out\n        /* \"contracts/traits/Administrated.sol\":1423:1834  function getAdminList() external view returns (address[] memory) {... */\n    tag_149:\n        /* \"contracts/traits/Administrated.sol\":1470:1486  address[] memory */\n      0x60\n        /* \"contracts/traits/Administrated.sol\":1620:1634  uint256 length */\n      0x00\n        /* \"contracts/traits/Administrated.sol\":1637:1652  admins.length() */\n      tag_326\n        /* \"contracts/traits/Administrated.sol\":1637:1643  admins */\n      0x66\n        /* \"contracts/traits/Administrated.sol\":1637:1650  admins.length */\n      tag_283\n        /* \"contracts/traits/Administrated.sol\":1637:1652  admins.length() */\n      jump\t// in\n    tag_326:\n        /* \"contracts/traits/Administrated.sol\":1620:1652  uint256 length = admins.length() */\n      swap1\n      pop\n        /* \"contracts/traits/Administrated.sol\":1660:1683  address[] memory tokens */\n      0x00\n        /* \"contracts/traits/Administrated.sol\":1700:1706  length */\n      dup2\n        /* \"contracts/traits/Administrated.sol\":1686:1707  new address[](length) */\n      0xffffffffffffffff\n      dup2\n      gt\n      iszero\n      tag_327\n      jumpi\n      tag_328\n      tag_329\n      jump\t// in\n    tag_328:\n    tag_327:\n      mload(0x40)\n      swap1\n      dup1\n      dup3\n      mstore\n      dup1\n      0x20\n      mul\n      0x20\n      add\n      dup3\n      add\n      0x40\n      mstore\n      dup1\n      iszero\n      tag_330\n      jumpi\n      dup2\n      0x20\n      add\n      0x20\n      dup3\n      mul\n      dup1\n      calldatasize\n      dup4\n      calldatacopy\n      dup1\n      dup3\n      add\n      swap2\n      pop\n      pop\n      swap1\n      pop\n    tag_330:\n      pop\n        /* \"contracts/traits/Administrated.sol\":1660:1707  address[] memory tokens = new address[](length) */\n      swap1\n      pop\n        /* \"contracts/traits/Administrated.sol\":1727:1736  uint256 i */\n      0x00\n        /* \"contracts/traits/Administrated.sol\":1722:1802  for (uint256 i = 0; i < length; i++) {... */\n    tag_331:\n        /* \"contracts/traits/Administrated.sol\":1746:1752  length */\n      dup3\n        /* \"contracts/traits/Administrated.sol\":1742:1743  i */\n      dup2\n        /* \"contracts/traits/Administrated.sol\":1742:1752  i < length */\n      lt\n        /* \"contracts/traits/Administrated.sol\":1722:1802  for (uint256 i = 0; i < length; i++) {... */\n      iszero\n      tag_332\n      jumpi\n        /* \"contracts/traits/Administrated.sol\":1781:1793  admins.at(i) */\n      tag_334\n        /* \"contracts/traits/Administrated.sol\":1791:1792  i */\n      dup2\n        /* \"contracts/traits/Administrated.sol\":1781:1787  admins */\n      0x66\n        /* \"contracts/traits/Administrated.sol\":1781:1790  admins.at */\n      tag_335\n      swap1\n        /* \"contracts/traits/Administrated.sol\":1781:1793  admins.at(i) */\n      swap2\n      swap1\n      0xffffffff\n      and\n      jump\t// in\n    tag_334:\n        /* \"contracts/traits/Administrated.sol\":1769:1775  tokens */\n      dup3\n        /* \"contracts/traits/Administrated.sol\":1776:1777  i */\n      dup3\n        /* \"contracts/traits/Administrated.sol\":1769:1778  tokens[i] */\n      dup2\n      mload\n      dup2\n      lt\n      tag_336\n      jumpi\n      tag_337\n      tag_338\n      jump\t// in\n    tag_337:\n    tag_336:\n      0x20\n      mul\n      0x20\n      add\n      add\n        /* \"contracts/traits/Administrated.sol\":1769:1793  tokens[i] = admins.at(i) */\n      swap1\n      0xffffffffffffffffffffffffffffffffffffffff\n      and\n      swap1\n      dup2\n      0xffffffffffffffffffffffffffffffffffffffff\n      and\n      dup2\n      mstore\n      pop\n      pop\n        /* \"contracts/traits/Administrated.sol\":1754:1757  i++ */\n      dup1\n      dup1\n      tag_339\n      swap1\n      tag_340\n      jump\t// in\n    tag_339:\n      swap2\n      pop\n      pop\n        /* \"contracts/traits/Administrated.sol\":1722:1802  for (uint256 i = 0; i < length; i++) {... */\n      jump(tag_331)\n    tag_332:\n      pop\n        /* \"contracts/traits/Administrated.sol\":1823:1829  tokens */\n      dup1\n        /* \"contracts/traits/Administrated.sol\":1816:1829  return tokens */\n      swap3\n      pop\n      pop\n      pop\n        /* \"contracts/traits/Administrated.sol\":1423:1834  function getAdminList() external view returns (address[] memory) {... */\n      swap1\n      jump\t// out\n        /* \"contracts/WhitelistedTokenSale.sol\":2814:2947  function setWallet(address _wallet) external onlyAdmin {... */\n    tag_155:\n        /* \"contracts/traits/Administrated.sol\":983:1002  isAdmin(msg.sender) */\n      tag_342\n        /* \"contracts/traits/Administrated.sol\":991:1001  msg.sender */\n      caller\n        /* \"contracts/traits/Administrated.sol\":983:990  isAdmin */\n      tag_61\n        /* \"contracts/traits/Administrated.sol\":983:1002  isAdmin(msg.sender) */\n      jump\t// in\n    tag_342:\n        /* \"contracts/traits/Administrated.sol\":975:1045  require(isAdmin(msg.sender), \"Administrated: Msg sender is not admin\") */\n      tag_343\n      jumpi\n      mload(0x40)\n      0x08c379a000000000000000000000000000000000000000000000000000000000\n      dup2\n      mstore\n      0x04\n      add\n      tag_344\n      swap1\n      tag_185\n      jump\t// in\n    tag_344:\n      mload(0x40)\n      dup1\n      swap2\n      sub\n      swap1\n      revert\n    tag_343:\n        /* \"contracts/WhitelistedTokenSale.sol\":2888:2895  _wallet */\n      dup1\n        /* \"contracts/WhitelistedTokenSale.sol\":2879:2885  wallet */\n      0x6a\n      0x00\n        /* \"contracts/WhitelistedTokenSale.sol\":2879:2895  wallet = _wallet */\n      0x0100\n      exp\n      dup2\n      sload\n      dup2\n      0xffffffffffffffffffffffffffffffffffffffff\n      mul\n      not\n      and\n      swap1\n      dup4\n      0xffffffffffffffffffffffffffffffffffffffff\n      and\n      mul\n      or\n      swap1\n      sstore\n      pop\n        /* \"contracts/WhitelistedTokenSale.sol\":2929:2939  msg.sender */\n      caller\n        /* \"contracts/WhitelistedTokenSale.sol\":2910:2940  SetWallet(_wallet, msg.sender) */\n      0xffffffffffffffffffffffffffffffffffffffff\n      and\n        /* \"contracts/WhitelistedTokenSale.sol\":2920:2927  _wallet */\n      dup2\n        /* \"contracts/WhitelistedTokenSale.sol\":2910:2940  SetWallet(_wallet, msg.sender) */\n      0xffffffffffffffffffffffffffffffffffffffff\n      and\n      0x8595877311e370fe3ac87d4f6d12473603393f02ac660e68d2e5e3da5adb610c\n      mload(0x40)\n      mload(0x40)\n      dup1\n      swap2\n      sub\n      swap1\n      log3\n        /* \"contracts/WhitelistedTokenSale.sol\":2814:2947  function setWallet(address _wallet) external onlyAdmin {... */\n      pop\n      jump\t// out\n        /* \"contracts/WhitelistedTokenSale.sol\":2455:2808  function setTokenSaleWhitelistRegistry(ITokenSaleRegistry _tokenSaleWhitelistRegistry, bool _whitelistEnabled) external onlyAdmin {... */\n    tag_160:\n        /* \"contracts/traits/Administrated.sol\":983:1002  isAdmin(msg.sender) */\n      tag_347\n        /* \"contracts/traits/Administrated.sol\":991:1001  msg.sender */\n      caller\n        /* \"contracts/traits/Administrated.sol\":983:990  isAdmin */\n      tag_61\n        /* \"contracts/traits/Administrated.sol\":983:1002  isAdmin(msg.sender) */\n      jump\t// in\n    tag_347:\n        /* \"contracts/traits/Administrated.sol\":975:1045  require(isAdmin(msg.sender), \"Administrated: Msg sender is not admin\") */\n      tag_348\n      jumpi\n      mload(0x40)\n      0x08c379a000000000000000000000000000000000000000000000000000000000\n      dup2\n      mstore\n      0x04\n      add\n      tag_349\n      swap1\n      tag_185\n      jump\t// in\n    tag_349:\n      mload(0x40)\n      dup1\n      swap2\n      sub\n      swap1\n      revert\n    tag_348:\n        /* \"contracts/WhitelistedTokenSale.sol\":2624:2651  _tokenSaleWhitelistRegistry */\n      dup2\n        /* \"contracts/WhitelistedTokenSale.sol\":2595:2621  tokenSaleWhitelistRegistry */\n      0x69\n      0x00\n        /* \"contracts/WhitelistedTokenSale.sol\":2595:2651  tokenSaleWhitelistRegistry = _tokenSaleWhitelistRegistry */\n      0x0100\n      exp\n      dup2\n      sload\n      dup2\n      0xffffffffffffffffffffffffffffffffffffffff\n      mul\n      not\n      and\n      swap1\n      dup4\n      0xffffffffffffffffffffffffffffffffffffffff\n      and\n      mul\n      or\n      swap1\n      sstore\n      pop\n        /* \"contracts/WhitelistedTokenSale.sol\":2680:2697  _whitelistEnabled */\n      dup1\n        /* \"contracts/WhitelistedTokenSale.sol\":2661:2677  whitelistEnabled */\n      0x69\n      0x14\n        /* \"contracts/WhitelistedTokenSale.sol\":2661:2697  whitelistEnabled = _whitelistEnabled */\n      0x0100\n      exp\n      dup2\n      sload\n      dup2\n      0xff\n      mul\n      not\n      and\n      swap1\n      dup4\n      iszero\n      iszero\n      mul\n      or\n      swap1\n      sstore\n      pop\n        /* \"contracts/WhitelistedTokenSale.sol\":2771:2781  msg.sender */\n      caller\n        /* \"contracts/WhitelistedTokenSale.sol\":2712:2801  SetTokenSaleRegistry(address(_tokenSaleWhitelistRegistry), msg.sender, _whitelistEnabled) */\n      0xffffffffffffffffffffffffffffffffffffffff\n      and\n        /* \"contracts/WhitelistedTokenSale.sol\":2741:2768  _tokenSaleWhitelistRegistry */\n      dup3\n        /* \"contracts/WhitelistedTokenSale.sol\":2712:2801  SetTokenSaleRegistry(address(_tokenSaleWhitelistRegistry), msg.sender, _whitelistEnabled) */\n      0xffffffffffffffffffffffffffffffffffffffff\n      and\n      0x864d5a965313dc4bf4fd85bb02b7efff05cb1681cb2c4a4baf0d7e8520fb356c\n        /* \"contracts/WhitelistedTokenSale.sol\":2783:2800  _whitelistEnabled */\n      dup4\n        /* \"contracts/WhitelistedTokenSale.sol\":2712:2801  SetTokenSaleRegistry(address(_tokenSaleWhitelistRegistry), msg.sender, _whitelistEnabled) */\n      mload(0x40)\n      tag_351\n      swap2\n      swap1\n      tag_63\n      jump\t// in\n    tag_351:\n      mload(0x40)\n      dup1\n      swap2\n      sub\n      swap1\n      log3\n        /* \"contracts/WhitelistedTokenSale.sol\":2455:2808  function setTokenSaleWhitelistRegistry(ITokenSaleRegistry _tokenSaleWhitelistRegistry, bool _whitelistEnabled) external onlyAdmin {... */\n      pop\n      pop\n      jump\t// out\n        /* \"contracts/WhitelistedTokenSale.sol\":2022:2076  mapping(address => TokenInfo) public customerTokenInfo */\n    tag_164:\n      mstore(0x20, 0x6d)\n      dup1\n      0x00\n      mstore\n      keccak256(0x00, 0x40)\n      0x00\n      swap2\n      pop\n      swap1\n      pop\n      dup1\n      0x00\n      add\n      sload\n      swap1\n      dup1\n      0x01\n      add\n      sload\n      swap1\n      dup1\n      0x02\n      add\n      sload\n      swap1\n      dup1\n      0x03\n      add\n      sload\n      swap1\n      pop\n      dup5\n      jump\t// out\n        /* \"@openzeppelin/contracts-ethereum-package/contracts/ownership/Ownable.sol\":2106:2213  function transferOwnership(address newOwner) public onlyOwner {... */\n    tag_170:\n        /* \"@openzeppelin/contracts-ethereum-package/contracts/ownership/Ownable.sol\":1237:1246  isOwner() */\n      tag_353\n        /* \"@openzeppelin/contracts-ethereum-package/contracts/ownership/Ownable.sol\":1237:1244  isOwner */\n      tag_125\n        /* \"@openzeppelin/contracts-ethereum-package/contracts/ownership/Ownable.sol\":1237:1246  isOwner() */\n      jump\t// in\n    tag_353:\n        /* \"@openzeppelin/contracts-ethereum-package/contracts/ownership/Ownable.sol\":1229:1283  require(isOwner(), \"Ownable: caller is not the owner\") */\n      tag_354\n      jumpi\n      mload(0x40)\n      0x08c379a000000000000000000000000000000000000000000000000000000000\n      dup2\n      mstore\n      0x04\n      add\n      tag_355\n      swap1\n      tag_191\n      jump\t// in\n    tag_355:\n      mload(0x40)\n      dup1\n      swap2\n      sub\n      swap1\n      revert\n    tag_354:\n        /* \"@openzeppelin/contracts-ethereum-package/contracts/ownership/Ownable.sol\":2178:2206  _transferOwnership(newOwner) */\n      tag_357\n        /* \"@openzeppelin/contracts-ethereum-package/contracts/ownership/Ownable.sol\":2197:2205  newOwner */\n      dup2\n        /* \"@openzeppelin/contracts-ethereum-package/contracts/ownership/Ownable.sol\":2178:2196  _transferOwnership */\n      tag_358\n        /* \"@openzeppelin/contracts-ethereum-package/contracts/ownership/Ownable.sol\":2178:2206  _transferOwnership(newOwner) */\n      jump\t// in\n    tag_357:\n        /* \"@openzeppelin/contracts-ethereum-package/contracts/ownership/Ownable.sol\":2106:2213  function transferOwnership(address newOwner) public onlyOwner {... */\n      pop\n      jump\t// out\n        /* \"contracts/WhitelistedTokenSale.sol\":1258:1310  ITokenSaleRegistry public tokenSaleWhitelistRegistry */\n    tag_173:\n      0x69\n      0x00\n      swap1\n      sload\n      swap1\n      0x0100\n      exp\n      swap1\n      div\n      0xffffffffffffffffffffffffffffffffffffffff\n      and\n      dup2\n      jump\t// out\n        /* \"contracts/WhitelistedTokenSale.sol\":2110:2449  function initialize(address _owner, address _tokenToSell, address _tokenSaleRegistry, bool _whitelistEnabled) public initializer {... */\n    tag_180:\n        /* \"@openzeppelin/upgrades/contracts/Initializable.sol\":1056:1068  initializing */\n      0x00\n      0x01\n      swap1\n      sload\n      swap1\n      0x0100\n      exp\n      swap1\n      div\n      0xff\n      and\n        /* \"@openzeppelin/upgrades/contracts/Initializable.sol\":1056:1087  initializing || isConstructor() */\n      dup1\n      tag_360\n      jumpi\n      pop\n        /* \"@openzeppelin/upgrades/contracts/Initializable.sol\":1072:1087  isConstructor() */\n      tag_361\n        /* \"@openzeppelin/upgrades/contracts/Initializable.sol\":1072:1085  isConstructor */\n      tag_296\n        /* \"@openzeppelin/upgrades/contracts/Initializable.sol\":1072:1087  isConstructor() */\n      jump\t// in\n    tag_361:\n        /* \"@openzeppelin/upgrades/contracts/Initializable.sol\":1056:1087  initializing || isConstructor() */\n    tag_360:\n        /* \"@openzeppelin/upgrades/contracts/Initializable.sol\":1056:1103  initializing || isConstructor() || !initialized */\n      dup1\n      tag_362\n      jumpi\n      pop\n        /* \"@openzeppelin/upgrades/contracts/Initializable.sol\":1092:1103  initialized */\n      0x00\n      dup1\n      sload\n      swap1\n      0x0100\n      exp\n      swap1\n      div\n      0xff\n      and\n        /* \"@openzeppelin/upgrades/contracts/Initializable.sol\":1091:1103  !initialized */\n      iszero\n        /* \"@openzeppelin/upgrades/contracts/Initializable.sol\":1056:1103  initializing || isConstructor() || !initialized */\n    tag_362:\n        /* \"@openzeppelin/upgrades/contracts/Initializable.sol\":1048:1154  require(initializing || isConstructor() || !initialized, \"Contract instance has already been initialized\") */\n      tag_363\n      jumpi\n      mload(0x40)\n      0x08c379a000000000000000000000000000000000000000000000000000000000\n      dup2\n      mstore\n      0x04\n      add\n      tag_364\n      swap1\n      tag_300\n      jump\t// in\n    tag_364:\n      mload(0x40)\n      dup1\n      swap2\n      sub\n      swap1\n      revert\n    tag_363:\n        /* \"@openzeppelin/upgrades/contracts/Initializable.sol\":1161:1180  bool isTopLevelCall */\n      0x00\n        /* \"@openzeppelin/upgrades/contracts/Initializable.sol\":1184:1196  initializing */\n      dup1\n      0x01\n      swap1\n      sload\n      swap1\n      0x0100\n      exp\n      swap1\n      div\n      0xff\n      and\n        /* \"@openzeppelin/upgrades/contracts/Initializable.sol\":1183:1196  !initializing */\n      iszero\n        /* \"@openzeppelin/upgrades/contracts/Initializable.sol\":1161:1196  bool isTopLevelCall = !initializing */\n      swap1\n      pop\n        /* \"@openzeppelin/upgrades/contracts/Initializable.sol\":1206:1220  isTopLevelCall */\n      dup1\n        /* \"@openzeppelin/upgrades/contracts/Initializable.sol\":1202:1282  if (isTopLevelCall) {... */\n      iszero\n      tag_365\n      jumpi\n        /* \"@openzeppelin/upgrades/contracts/Initializable.sol\":1245:1249  true */\n      0x01\n        /* \"@openzeppelin/upgrades/contracts/Initializable.sol\":1230:1242  initializing */\n      0x00\n      0x01\n        /* \"@openzeppelin/upgrades/contracts/Initializable.sol\":1230:1249  initializing = true */\n      0x0100\n      exp\n      dup2\n      sload\n      dup2\n      0xff\n      mul\n      not\n      and\n      swap1\n      dup4\n      iszero\n      iszero\n      mul\n      or\n      swap1\n      sstore\n      pop\n        /* \"@openzeppelin/upgrades/contracts/Initializable.sol\":1271:1275  true */\n      0x01\n        /* \"@openzeppelin/upgrades/contracts/Initializable.sol\":1257:1268  initialized */\n      0x00\n      dup1\n        /* \"@openzeppelin/upgrades/contracts/Initializable.sol\":1257:1275  initialized = true */\n      0x0100\n      exp\n      dup2\n      sload\n      dup2\n      0xff\n      mul\n      not\n      and\n      swap1\n      dup4\n      iszero\n      iszero\n      mul\n      or\n      swap1\n      sstore\n      pop\n        /* \"@openzeppelin/upgrades/contracts/Initializable.sol\":1202:1282  if (isTopLevelCall) {... */\n    tag_365:\n        /* \"contracts/WhitelistedTokenSale.sol\":2249:2275  Ownable.initialize(_owner) */\n      tag_367\n        /* \"contracts/WhitelistedTokenSale.sol\":2268:2274  _owner */\n      dup6\n        /* \"contracts/WhitelistedTokenSale.sol\":2249:2267  Ownable.initialize */\n      tag_134\n        /* \"contracts/WhitelistedTokenSale.sol\":2249:2275  Ownable.initialize(_owner) */\n      jump\t// in\n    tag_367:\n        /* \"contracts/WhitelistedTokenSale.sol\":2306:2318  _tokenToSell */\n      dup4\n        /* \"contracts/WhitelistedTokenSale.sol\":2285:2296  tokenToSell */\n      0x68\n      0x01\n        /* \"contracts/WhitelistedTokenSale.sol\":2285:2319  tokenToSell = IERC20(_tokenToSell) */\n      0x0100\n      exp\n      dup2\n      sload\n      dup2\n      0xffffffffffffffffffffffffffffffffffffffff\n      mul\n      not\n      and\n      swap1\n      dup4\n      0xffffffffffffffffffffffffffffffffffffffff\n      and\n      mul\n      or\n      swap1\n      sstore\n      pop\n        /* \"contracts/WhitelistedTokenSale.sol\":2377:2395  _tokenSaleRegistry */\n      dup3\n        /* \"contracts/WhitelistedTokenSale.sol\":2329:2355  tokenSaleWhitelistRegistry */\n      0x69\n      0x00\n        /* \"contracts/WhitelistedTokenSale.sol\":2329:2396  tokenSaleWhitelistRegistry = ITokenSaleRegistry(_tokenSaleRegistry) */\n      0x0100\n      exp\n      dup2\n      sload\n      dup2\n      0xffffffffffffffffffffffffffffffffffffffff\n      mul\n      not\n      and\n      swap1\n      dup4\n      0xffffffffffffffffffffffffffffffffffffffff\n      and\n      mul\n      or\n      swap1\n      sstore\n      pop\n        /* \"contracts/WhitelistedTokenSale.sol\":2425:2442  _whitelistEnabled */\n      dup2\n        /* \"contracts/WhitelistedTokenSale.sol\":2406:2422  whitelistEnabled */\n      0x69\n      0x14\n        /* \"contracts/WhitelistedTokenSale.sol\":2406:2442  whitelistEnabled = _whitelistEnabled */\n      0x0100\n      exp\n      dup2\n      sload\n      dup2\n      0xff\n      mul\n      not\n      and\n      swap1\n      dup4\n      iszero\n      iszero\n      mul\n      or\n      swap1\n      sstore\n      pop\n        /* \"@openzeppelin/upgrades/contracts/Initializable.sol\":1300:1314  isTopLevelCall */\n      dup1\n        /* \"@openzeppelin/upgrades/contracts/Initializable.sol\":1296:1351  if (isTopLevelCall) {... */\n      iszero\n      tag_368\n      jumpi\n        /* \"@openzeppelin/upgrades/contracts/Initializable.sol\":1339:1344  false */\n      0x00\n        /* \"@openzeppelin/upgrades/contracts/Initializable.sol\":1324:1336  initializing */\n      dup1\n      0x01\n        /* \"@openzeppelin/upgrades/contracts/Initializable.sol\":1324:1344  initializing = false */\n      0x0100\n      exp\n      dup2\n      sload\n      dup2\n      0xff\n      mul\n      not\n      and\n      swap1\n      dup4\n      iszero\n      iszero\n      mul\n      or\n      swap1\n      sstore\n      pop\n        /* \"@openzeppelin/upgrades/contracts/Initializable.sol\":1296:1351  if (isTopLevelCall) {... */\n    tag_368:\n        /* \"@openzeppelin/upgrades/contracts/Initializable.sol\":1042:1355  {... */\n      pop\n        /* \"contracts/WhitelistedTokenSale.sol\":2110:2449  function initialize(address _owner, address _tokenToSell, address _tokenSaleRegistry, bool _whitelistEnabled) public initializer {... */\n      pop\n      pop\n      pop\n      pop\n      jump\t// out\n        /* \"@openzeppelin/contracts/utils/EnumerableSet.sol\":6747:6903  function remove(AddressSet storage set, address value) internal returns (bool) {... */\n    tag_194:\n        /* \"@openzeppelin/contracts/utils/EnumerableSet.sol\":6820:6824  bool */\n      0x00\n        /* \"@openzeppelin/contracts/utils/EnumerableSet.sol\":6843:6896  _remove(set._inner, bytes32(uint256(uint160(value)))) */\n      tag_370\n        /* \"@openzeppelin/contracts/utils/EnumerableSet.sol\":6851:6854  set */\n      dup4\n        /* \"@openzeppelin/contracts/utils/EnumerableSet.sol\":6851:6861  set._inner */\n      0x00\n      add\n        /* \"@openzeppelin/contracts/utils/EnumerableSet.sol\":6887:6892  value */\n      dup4\n        /* \"@openzeppelin/contracts/utils/EnumerableSet.sol\":6871:6894  uint256(uint160(value)) */\n      0xffffffffffffffffffffffffffffffffffffffff\n      and\n        /* \"@openzeppelin/contracts/utils/EnumerableSet.sol\":6863:6895  bytes32(uint256(uint160(value))) */\n      0x00\n      shl\n        /* \"@openzeppelin/contracts/utils/EnumerableSet.sol\":6843:6850  _remove */\n      tag_371\n        /* \"@openzeppelin/contracts/utils/EnumerableSet.sol\":6843:6896  _remove(set._inner, bytes32(uint256(uint160(value)))) */\n      jump\t// in\n    tag_370:\n        /* \"@openzeppelin/contracts/utils/EnumerableSet.sol\":6836:6896  return _remove(set._inner, bytes32(uint256(uint160(value)))) */\n      swap1\n      pop\n        /* \"@openzeppelin/contracts/utils/EnumerableSet.sol\":6747:6903  function remove(AddressSet storage set, address value) internal returns (bool) {... */\n      swap3\n      swap2\n      pop\n      pop\n      jump\t// out\n        /* \"@openzeppelin/contracts/utils/EnumerableSet.sol\":6984:7149  function contains(AddressSet storage set, address value) internal view returns (bool) {... */\n    tag_197:\n        /* \"@openzeppelin/contracts/utils/EnumerableSet.sol\":7064:7068  bool */\n      0x00\n        /* \"@openzeppelin/contracts/utils/EnumerableSet.sol\":7087:7142  _contains(set._inner, bytes32(uint256(uint160(value)))) */\n      tag_373\n        /* \"@openzeppelin/contracts/utils/EnumerableSet.sol\":7097:7100  set */\n      dup4\n        /* \"@openzeppelin/contracts/utils/EnumerableSet.sol\":7097:7107  set._inner */\n      0x00\n      add\n        /* \"@openzeppelin/contracts/utils/EnumerableSet.sol\":7133:7138  value */\n      dup4\n        /* \"@openzeppelin/contracts/utils/EnumerableSet.sol\":7117:7140  uint256(uint160(value)) */\n      0xffffffffffffffffffffffffffffffffffffffff\n      and\n        /* \"@openzeppelin/contracts/utils/EnumerableSet.sol\":7109:7141  bytes32(uint256(uint160(value))) */\n      0x00\n      shl\n        /* \"@openzeppelin/contracts/utils/EnumerableSet.sol\":7087:7096  _contains */\n      tag_374\n        /* \"@openzeppelin/contracts/utils/EnumerableSet.sol\":7087:7142  _contains(set._inner, bytes32(uint256(uint160(value)))) */\n      jump\t// in\n    tag_373:\n        /* \"@openzeppelin/contracts/utils/EnumerableSet.sol\":7080:7142  return _contains(set._inner, bytes32(uint256(uint160(value)))) */\n      swap1\n      pop\n        /* \"@openzeppelin/contracts/utils/EnumerableSet.sol\":6984:7149  function contains(AddressSet storage set, address value) internal view returns (bool) {... */\n      swap3\n      swap2\n      pop\n      pop\n      jump\t// out\n        /* \"@openzeppelin/contracts/math/SafeMath.sol\":4217:4367  function div(uint256 a, uint256 b) internal pure returns (uint256) {... */\n    tag_200:\n        /* \"@openzeppelin/contracts/math/SafeMath.sol\":4275:4282  uint256 */\n      0x00\n        /* \"@openzeppelin/contracts/math/SafeMath.sol\":4306:4307  0 */\n      dup1\n        /* \"@openzeppelin/contracts/math/SafeMath.sol\":4302:4303  b */\n      dup3\n        /* \"@openzeppelin/contracts/math/SafeMath.sol\":4302:4307  b > 0 */\n      gt\n        /* \"@openzeppelin/contracts/math/SafeMath.sol\":4294:4338  require(b > 0, \"SafeMath: division by zero\") */\n      tag_376\n      jumpi\n      mload(0x40)\n      0x08c379a000000000000000000000000000000000000000000000000000000000\n      dup2\n      mstore\n      0x04\n      add\n      tag_377\n      swap1\n      tag_378\n      jump\t// in\n    tag_377:\n      mload(0x40)\n      dup1\n      swap2\n      sub\n      swap1\n      revert\n    tag_376:\n        /* \"@openzeppelin/contracts/math/SafeMath.sol\":4359:4360  b */\n      dup2\n        /* \"@openzeppelin/contracts/math/SafeMath.sol\":4355:4356  a */\n      dup4\n        /* \"@openzeppelin/contracts/math/SafeMath.sol\":4355:4360  a / b */\n      tag_379\n      swap2\n      swap1\n      tag_380\n      jump\t// in\n    tag_379:\n        /* \"@openzeppelin/contracts/math/SafeMath.sol\":4348:4360  return a / b */\n      swap1\n      pop\n        /* \"@openzeppelin/contracts/math/SafeMath.sol\":4217:4367  function div(uint256 a, uint256 b) internal pure returns (uint256) {... */\n      swap3\n      swap2\n      pop\n      pop\n      jump\t// out\n        /* \"@openzeppelin/contracts/utils/EnumerableSet.sol\":6429:6579  function add(AddressSet storage set, address value) internal returns (bool) {... */\n    tag_265:\n        /* \"@openzeppelin/contracts/utils/EnumerableSet.sol\":6499:6503  bool */\n      0x00\n        /* \"@openzeppelin/contracts/utils/EnumerableSet.sol\":6522:6572  _add(set._inner, bytes32(uint256(uint160(value)))) */\n      tag_382\n        /* \"@openzeppelin/contracts/utils/EnumerableSet.sol\":6527:6530  set */\n      dup4\n        /* \"@openzeppelin/contracts/utils/EnumerableSet.sol\":6527:6537  set._inner */\n      0x00\n      add\n        /* \"@openzeppelin/contracts/utils/EnumerableSet.sol\":6563:6568  value */\n      dup4\n        /* \"@openzeppelin/contracts/utils/EnumerableSet.sol\":6547:6570  uint256(uint160(value)) */\n      0xffffffffffffffffffffffffffffffffffffffff\n      and\n        /* \"@openzeppelin/contracts/utils/EnumerableSet.sol\":6539:6571  bytes32(uint256(uint160(value))) */\n      0x00\n      shl\n        /* \"@openzeppelin/contracts/utils/EnumerableSet.sol\":6522:6526  _add */\n      tag_383\n        /* \"@openzeppelin/contracts/utils/EnumerableSet.sol\":6522:6572  _add(set._inner, bytes32(uint256(uint160(value)))) */\n      jump\t// in\n    tag_382:\n        /* \"@openzeppelin/contracts/utils/EnumerableSet.sol\":6515:6572  return _add(set._inner, bytes32(uint256(uint160(value)))) */\n      swap1\n      pop\n        /* \"@openzeppelin/contracts/utils/EnumerableSet.sol\":6429:6579  function add(AddressSet storage set, address value) internal returns (bool) {... */\n      swap3\n      swap2\n      pop\n      pop\n      jump\t// out\n        /* \"@openzeppelin/contracts/utils/EnumerableSet.sol\":7230:7345  function length(AddressSet storage set) internal view returns (uint256) {... */\n    tag_283:\n        /* \"@openzeppelin/contracts/utils/EnumerableSet.sol\":7293:7300  uint256 */\n      0x00\n        /* \"@openzeppelin/contracts/utils/EnumerableSet.sol\":7319:7338  _length(set._inner) */\n      tag_385\n        /* \"@openzeppelin/contracts/utils/EnumerableSet.sol\":7327:7330  set */\n      dup3\n        /* \"@openzeppelin/contracts/utils/EnumerableSet.sol\":7327:7337  set._inner */\n      0x00\n      add\n        /* \"@openzeppelin/contracts/utils/EnumerableSet.sol\":7319:7326  _length */\n      tag_386\n        /* \"@openzeppelin/contracts/utils/EnumerableSet.sol\":7319:7338  _length(set._inner) */\n      jump\t// in\n    tag_385:\n        /* \"@openzeppelin/contracts/utils/EnumerableSet.sol\":7312:7338  return _length(set._inner) */\n      swap1\n      pop\n        /* \"@openzeppelin/contracts/utils/EnumerableSet.sol\":7230:7345  function length(AddressSet storage set) internal view returns (uint256) {... */\n      swap2\n      swap1\n      pop\n      jump\t// out\n        /* \"@openzeppelin/contracts-ethereum-package/contracts/GSN/Context.sol\":691:789  function _msgSender() internal view virtual returns (address) {... */\n    tag_287:\n        /* \"@openzeppelin/contracts-ethereum-package/contracts/GSN/Context.sol\":744:751  address */\n      0x00\n        /* \"@openzeppelin/contracts-ethereum-package/contracts/GSN/Context.sol\":771:781  msg.sender */\n      caller\n        /* \"@openzeppelin/contracts-ethereum-package/contracts/GSN/Context.sol\":764:781  return msg.sender */\n      swap1\n      pop\n        /* \"@openzeppelin/contracts-ethereum-package/contracts/GSN/Context.sol\":691:789  function _msgSender() internal view virtual returns (address) {... */\n      swap1\n      jump\t// out\n        /* \"@openzeppelin/upgrades/contracts/Initializable.sol\":1441:1939  function isConstructor() private view returns (bool) {... */\n    tag_296:\n        /* \"@openzeppelin/upgrades/contracts/Initializable.sol\":1488:1492  bool */\n      0x00\n        /* \"@openzeppelin/upgrades/contracts/Initializable.sol\":1829:1841  address self */\n      dup1\n        /* \"@openzeppelin/upgrades/contracts/Initializable.sol\":1852:1856  this */\n      address\n        /* \"@openzeppelin/upgrades/contracts/Initializable.sol\":1829:1857  address self = address(this) */\n      swap1\n      pop\n        /* \"@openzeppelin/upgrades/contracts/Initializable.sol\":1863:1873  uint256 cs */\n      0x00\n        /* \"@openzeppelin/upgrades/contracts/Initializable.sol\":1908:1912  self */\n      dup2\n        /* \"@openzeppelin/upgrades/contracts/Initializable.sol\":1896:1913  extcodesize(self) */\n      extcodesize\n        /* \"@openzeppelin/upgrades/contracts/Initializable.sol\":1890:1913  cs := extcodesize(self) */\n      swap1\n      pop\n        /* \"@openzeppelin/upgrades/contracts/Initializable.sol\":1933:1934  0 */\n      0x00\n        /* \"@openzeppelin/upgrades/contracts/Initializable.sol\":1927:1929  cs */\n      dup2\n        /* \"@openzeppelin/upgrades/contracts/Initializable.sol\":1927:1934  cs == 0 */\n      eq\n        /* \"@openzeppelin/upgrades/contracts/Initializable.sol\":1920:1934  return cs == 0 */\n      swap3\n      pop\n      pop\n      pop\n        /* \"@openzeppelin/upgrades/contracts/Initializable.sol\":1441:1939  function isConstructor() private view returns (bool) {... */\n      swap1\n      jump\t// out\n        /* \"@openzeppelin/contracts/utils/EnumerableSet.sol\":7677:7833  function at(AddressSet storage set, uint256 index) internal view returns (address) {... */\n    tag_335:\n        /* \"@openzeppelin/contracts/utils/EnumerableSet.sol\":7751:7758  address */\n      0x00\n        /* \"@openzeppelin/contracts/utils/EnumerableSet.sol\":7801:7823  _at(set._inner, index) */\n      tag_390\n        /* \"@openzeppelin/contracts/utils/EnumerableSet.sol\":7805:7808  set */\n      dup4\n        /* \"@openzeppelin/contracts/utils/EnumerableSet.sol\":7805:7815  set._inner */\n      0x00\n      add\n        /* \"@openzeppelin/contracts/utils/EnumerableSet.sol\":7817:7822  index */\n      dup4\n        /* \"@openzeppelin/contracts/utils/EnumerableSet.sol\":7801:7804  _at */\n      tag_391\n        /* \"@openzeppelin/contracts/utils/EnumerableSet.sol\":7801:7823  _at(set._inner, index) */\n      jump\t// in\n    tag_390:\n        /* \"@openzeppelin/contracts/utils/EnumerableSet.sol\":7793:7824  uint256(_at(set._inner, index)) */\n      0x00\n      shr\n        /* \"@openzeppelin/contracts/utils/EnumerableSet.sol\":7770:7826  return address(uint160(uint256(_at(set._inner, index)))) */\n      swap1\n      pop\n        /* \"@openzeppelin/contracts/utils/EnumerableSet.sol\":7677:7833  function at(AddressSet storage set, uint256 index) internal view returns (address) {... */\n      swap3\n      swap2\n      pop\n      pop\n      jump\t// out\n        /* \"@openzeppelin/contracts-ethereum-package/contracts/ownership/Ownable.sol\":2314:2539  function _transferOwnership(address newOwner) internal {... */\n    tag_358:\n        /* \"@openzeppelin/contracts-ethereum-package/contracts/ownership/Ownable.sol\":2407:2408  0 */\n      0x00\n        /* \"@openzeppelin/contracts-ethereum-package/contracts/ownership/Ownable.sol\":2387:2409  newOwner != address(0) */\n      0xffffffffffffffffffffffffffffffffffffffff\n      and\n        /* \"@openzeppelin/contracts-ethereum-package/contracts/ownership/Ownable.sol\":2387:2395  newOwner */\n      dup2\n        /* \"@openzeppelin/contracts-ethereum-package/contracts/ownership/Ownable.sol\":2387:2409  newOwner != address(0) */\n      0xffffffffffffffffffffffffffffffffffffffff\n      and\n      sub\n        /* \"@openzeppelin/contracts-ethereum-package/contracts/ownership/Ownable.sol\":2379:2452  require(newOwner != address(0), \"Ownable: new owner is the zero address\") */\n      tag_393\n      jumpi\n      mload(0x40)\n      0x08c379a000000000000000000000000000000000000000000000000000000000\n      dup2\n      mstore\n      0x04\n      add\n      tag_394\n      swap1\n      tag_395\n      jump\t// in\n    tag_394:\n      mload(0x40)\n      dup1\n      swap2\n      sub\n      swap1\n      revert\n    tag_393:\n        /* \"@openzeppelin/contracts-ethereum-package/contracts/ownership/Ownable.sol\":2496:2504  newOwner */\n      dup1\n        /* \"@openzeppelin/contracts-ethereum-package/contracts/ownership/Ownable.sol\":2467:2505  OwnershipTransferred(_owner, newOwner) */\n      0xffffffffffffffffffffffffffffffffffffffff\n      and\n        /* \"@openzeppelin/contracts-ethereum-package/contracts/ownership/Ownable.sol\":2488:2494  _owner */\n      0x33\n      0x00\n      swap1\n      sload\n      swap1\n      0x0100\n      exp\n      swap1\n      div\n      0xffffffffffffffffffffffffffffffffffffffff\n      and\n        /* \"@openzeppelin/contracts-ethereum-package/contracts/ownership/Ownable.sol\":2467:2505  OwnershipTransferred(_owner, newOwner) */\n      0xffffffffffffffffffffffffffffffffffffffff\n      and\n      0x8be0079c531659141344cd1fd0a4f28419497f9722a3daafe3b4186f6b6457e0\n      mload(0x40)\n      mload(0x40)\n      dup1\n      swap2\n      sub\n      swap1\n      log3\n        /* \"@openzeppelin/contracts-ethereum-package/contracts/ownership/Ownable.sol\":2524:2532  newOwner */\n      dup1\n        /* \"@openzeppelin/contracts-ethereum-package/contracts/ownership/Ownable.sol\":2515:2521  _owner */\n      0x33\n      0x00\n        /* \"@openzeppelin/contracts-ethereum-package/contracts/ownership/Ownable.sol\":2515:2532  _owner = newOwner */\n      0x0100\n      exp\n      dup2\n      sload\n      dup2\n      0xffffffffffffffffffffffffffffffffffffffff\n      mul\n      not\n      and\n      swap1\n      dup4\n      0xffffffffffffffffffffffffffffffffffffffff\n      and\n      mul\n      or\n      swap1\n      sstore\n      pop\n        /* \"@openzeppelin/contracts-ethereum-package/contracts/ownership/Ownable.sol\":2314:2539  function _transferOwnership(address newOwner) internal {... */\n      pop\n      jump\t// out\n        /* \"@openzeppelin/contracts/utils/EnumerableSet.sol\":2212:3724  function _remove(Set storage set, bytes32 value) private returns (bool) {... */\n    tag_371:\n        /* \"@openzeppelin/contracts/utils/EnumerableSet.sol\":2278:2282  bool */\n      0x00\n        /* \"@openzeppelin/contracts/utils/EnumerableSet.sol\":2394:2412  uint256 valueIndex */\n      dup1\n        /* \"@openzeppelin/contracts/utils/EnumerableSet.sol\":2415:2418  set */\n      dup4\n        /* \"@openzeppelin/contracts/utils/EnumerableSet.sol\":2415:2427  set._indexes */\n      0x01\n      add\n        /* \"@openzeppelin/contracts/utils/EnumerableSet.sol\":2415:2434  set._indexes[value] */\n      0x00\n        /* \"@openzeppelin/contracts/utils/EnumerableSet.sol\":2428:2433  value */\n      dup5\n        /* \"@openzeppelin/contracts/utils/EnumerableSet.sol\":2415:2434  set._indexes[value] */\n      dup2\n      mstore\n      0x20\n      add\n      swap1\n      dup2\n      mstore\n      0x20\n      add\n      0x00\n      keccak256\n      sload\n        /* \"@openzeppelin/contracts/utils/EnumerableSet.sol\":2394:2434  uint256 valueIndex = set._indexes[value] */\n      swap1\n      pop\n        /* \"@openzeppelin/contracts/utils/EnumerableSet.sol\":2463:2464  0 */\n      0x00\n        /* \"@openzeppelin/contracts/utils/EnumerableSet.sol\":2449:2459  valueIndex */\n      dup2\n        /* \"@openzeppelin/contracts/utils/EnumerableSet.sol\":2449:2464  valueIndex != 0 */\n      eq\n        /* \"@openzeppelin/contracts/utils/EnumerableSet.sol\":2445:3718  if (valueIndex != 0) { // Equivalent to contains(set, value)... */\n      tag_397\n      jumpi\n        /* \"@openzeppelin/contracts/utils/EnumerableSet.sol\":2806:2827  uint256 toDeleteIndex */\n      0x00\n        /* \"@openzeppelin/contracts/utils/EnumerableSet.sol\":2843:2844  1 */\n      0x01\n        /* \"@openzeppelin/contracts/utils/EnumerableSet.sol\":2830:2840  valueIndex */\n      dup3\n        /* \"@openzeppelin/contracts/utils/EnumerableSet.sol\":2830:2844  valueIndex - 1 */\n      tag_398\n      swap2\n      swap1\n      tag_399\n      jump\t// in\n    tag_398:\n        /* \"@openzeppelin/contracts/utils/EnumerableSet.sol\":2806:2844  uint256 toDeleteIndex = valueIndex - 1 */\n      swap1\n      pop\n        /* \"@openzeppelin/contracts/utils/EnumerableSet.sol\":2858:2875  uint256 lastIndex */\n      0x00\n        /* \"@openzeppelin/contracts/utils/EnumerableSet.sol\":2899:2900  1 */\n      0x01\n        /* \"@openzeppelin/contracts/utils/EnumerableSet.sol\":2878:2881  set */\n      dup7\n        /* \"@openzeppelin/contracts/utils/EnumerableSet.sol\":2878:2889  set._values */\n      0x00\n      add\n        /* \"@openzeppelin/contracts/utils/EnumerableSet.sol\":2878:2896  set._values.length */\n      dup1\n      sload\n      swap1\n      pop\n        /* \"@openzeppelin/contracts/utils/EnumerableSet.sol\":2878:2900  set._values.length - 1 */\n      tag_400\n      swap2\n      swap1\n      tag_399\n      jump\t// in\n    tag_400:\n        /* \"@openzeppelin/contracts/utils/EnumerableSet.sol\":2858:2900  uint256 lastIndex = set._values.length - 1 */\n      swap1\n      pop\n        /* \"@openzeppelin/contracts/utils/EnumerableSet.sol\":3140:3157  bytes32 lastvalue */\n      0x00\n        /* \"@openzeppelin/contracts/utils/EnumerableSet.sol\":3160:3163  set */\n      dup7\n        /* \"@openzeppelin/contracts/utils/EnumerableSet.sol\":3160:3171  set._values */\n      0x00\n      add\n        /* \"@openzeppelin/contracts/utils/EnumerableSet.sol\":3172:3181  lastIndex */\n      dup3\n        /* \"@openzeppelin/contracts/utils/EnumerableSet.sol\":3160:3182  set._values[lastIndex] */\n      dup2\n      sload\n      dup2\n      lt\n      tag_401\n      jumpi\n      tag_402\n      tag_338\n      jump\t// in\n    tag_402:\n    tag_401:\n      swap1\n      0x00\n      mstore\n      keccak256(0x00, 0x20)\n      add\n      sload\n        /* \"@openzeppelin/contracts/utils/EnumerableSet.sol\":3140:3182  bytes32 lastvalue = set._values[lastIndex] */\n      swap1\n      pop\n        /* \"@openzeppelin/contracts/utils/EnumerableSet.sol\":3303:3312  lastvalue */\n      dup1\n        /* \"@openzeppelin/contracts/utils/EnumerableSet.sol\":3274:3277  set */\n      dup8\n        /* \"@openzeppelin/contracts/utils/EnumerableSet.sol\":3274:3285  set._values */\n      0x00\n      add\n        /* \"@openzeppelin/contracts/utils/EnumerableSet.sol\":3286:3299  toDeleteIndex */\n      dup5\n        /* \"@openzeppelin/contracts/utils/EnumerableSet.sol\":3274:3300  set._values[toDeleteIndex] */\n      dup2\n      sload\n      dup2\n      lt\n      tag_404\n      jumpi\n      tag_405\n      tag_338\n      jump\t// in\n    tag_405:\n    tag_404:\n      swap1\n      0x00\n      mstore\n      keccak256(0x00, 0x20)\n      add\n        /* \"@openzeppelin/contracts/utils/EnumerableSet.sol\":3274:3312  set._values[toDeleteIndex] = lastvalue */\n      dup2\n      swap1\n      sstore\n      pop\n        /* \"@openzeppelin/contracts/utils/EnumerableSet.sol\":3420:3421  1 */\n      0x01\n        /* \"@openzeppelin/contracts/utils/EnumerableSet.sol\":3404:3417  toDeleteIndex */\n      dup4\n        /* \"@openzeppelin/contracts/utils/EnumerableSet.sol\":3404:3421  toDeleteIndex + 1 */\n      tag_407\n      swap2\n      swap1\n      tag_408\n      jump\t// in\n    tag_407:\n        /* \"@openzeppelin/contracts/utils/EnumerableSet.sol\":3378:3381  set */\n      dup8\n        /* \"@openzeppelin/contracts/utils/EnumerableSet.sol\":3378:3390  set._indexes */\n      0x01\n      add\n        /* \"@openzeppelin/contracts/utils/EnumerableSet.sol\":3378:3401  set._indexes[lastvalue] */\n      0x00\n        /* \"@openzeppelin/contracts/utils/EnumerableSet.sol\":3391:3400  lastvalue */\n      dup4\n        /* \"@openzeppelin/contracts/utils/EnumerableSet.sol\":3378:3401  set._indexes[lastvalue] */\n      dup2\n      mstore\n      0x20\n      add\n      swap1\n      dup2\n      mstore\n      0x20\n      add\n      0x00\n      keccak256\n        /* \"@openzeppelin/contracts/utils/EnumerableSet.sol\":3378:3421  set._indexes[lastvalue] = toDeleteIndex + 1 */\n      dup2\n      swap1\n      sstore\n      pop\n        /* \"@openzeppelin/contracts/utils/EnumerableSet.sol\":3527:3530  set */\n      dup7\n        /* \"@openzeppelin/contracts/utils/EnumerableSet.sol\":3527:3538  set._values */\n      0x00\n      add\n        /* \"@openzeppelin/contracts/utils/EnumerableSet.sol\":3527:3544  set._values.pop() */\n      dup1\n      sload\n      dup1\n      tag_409\n      jumpi\n      tag_410\n      tag_411\n      jump\t// in\n    tag_410:\n    tag_409:\n      0x01\n      swap1\n      sub\n      dup2\n      dup2\n      swap1\n      0x00\n      mstore\n      keccak256(0x00, 0x20)\n      add\n      0x00\n      swap1\n      sstore\n      swap1\n      sstore\n        /* \"@openzeppelin/contracts/utils/EnumerableSet.sol\":3619:3622  set */\n      dup7\n        /* \"@openzeppelin/contracts/utils/EnumerableSet.sol\":3619:3631  set._indexes */\n      0x01\n      add\n        /* \"@openzeppelin/contracts/utils/EnumerableSet.sol\":3619:3638  set._indexes[value] */\n      0x00\n        /* \"@openzeppelin/contracts/utils/EnumerableSet.sol\":3632:3637  value */\n      dup8\n        /* \"@openzeppelin/contracts/utils/EnumerableSet.sol\":3619:3638  set._indexes[value] */\n      dup2\n      mstore\n      0x20\n      add\n      swap1\n      dup2\n      mstore\n      0x20\n      add\n      0x00\n      keccak256\n        /* \"@openzeppelin/contracts/utils/EnumerableSet.sol\":3612:3638  delete set._indexes[value] */\n      0x00\n      swap1\n      sstore\n        /* \"@openzeppelin/contracts/utils/EnumerableSet.sol\":3660:3664  true */\n      0x01\n        /* \"@openzeppelin/contracts/utils/EnumerableSet.sol\":3653:3664  return true */\n      swap5\n      pop\n      pop\n      pop\n      pop\n      pop\n      jump(tag_396)\n        /* \"@openzeppelin/contracts/utils/EnumerableSet.sol\":2445:3718  if (valueIndex != 0) { // Equivalent to contains(set, value)... */\n    tag_397:\n        /* \"@openzeppelin/contracts/utils/EnumerableSet.sol\":3702:3707  false */\n      0x00\n        /* \"@openzeppelin/contracts/utils/EnumerableSet.sol\":3695:3707  return false */\n      swap2\n      pop\n      pop\n        /* \"@openzeppelin/contracts/utils/EnumerableSet.sol\":2212:3724  function _remove(Set storage set, bytes32 value) private returns (bool) {... */\n    tag_396:\n      swap3\n      swap2\n      pop\n      pop\n      jump\t// out\n        /* \"@openzeppelin/contracts/utils/EnumerableSet.sol\":3805:3932  function _contains(Set storage set, bytes32 value) private view returns (bool) {... */\n    tag_374:\n        /* \"@openzeppelin/contracts/utils/EnumerableSet.sol\":3878:3882  bool */\n      0x00\n        /* \"@openzeppelin/contracts/utils/EnumerableSet.sol\":3924:3925  0 */\n      dup1\n        /* \"@openzeppelin/contracts/utils/EnumerableSet.sol\":3901:3904  set */\n      dup4\n        /* \"@openzeppelin/contracts/utils/EnumerableSet.sol\":3901:3913  set._indexes */\n      0x01\n      add\n        /* \"@openzeppelin/contracts/utils/EnumerableSet.sol\":3901:3920  set._indexes[value] */\n      0x00\n        /* \"@openzeppelin/contracts/utils/EnumerableSet.sol\":3914:3919  value */\n      dup5\n        /* \"@openzeppelin/contracts/utils/EnumerableSet.sol\":3901:3920  set._indexes[value] */\n      dup2\n      mstore\n      0x20\n      add\n      swap1\n      dup2\n      mstore\n      0x20\n      add\n      0x00\n      keccak256\n      sload\n        /* \"@openzeppelin/contracts/utils/EnumerableSet.sol\":3901:3925  set._indexes[value] != 0 */\n      eq\n      iszero\n        /* \"@openzeppelin/contracts/utils/EnumerableSet.sol\":3894:3925  return set._indexes[value] != 0 */\n      swap1\n      pop\n        /* \"@openzeppelin/contracts/utils/EnumerableSet.sol\":3805:3932  function _contains(Set storage set, bytes32 value) private view returns (bool) {... */\n      swap3\n      swap2\n      pop\n      pop\n      jump\t// out\n        /* \"@openzeppelin/contracts/utils/EnumerableSet.sol\":1640:2044  function _add(Set storage set, bytes32 value) private returns (bool) {... */\n    tag_383:\n        /* \"@openzeppelin/contracts/utils/EnumerableSet.sol\":1703:1707  bool */\n      0x00\n        /* \"@openzeppelin/contracts/utils/EnumerableSet.sol\":1724:1745  _contains(set, value) */\n      tag_416\n        /* \"@openzeppelin/contracts/utils/EnumerableSet.sol\":1734:1737  set */\n      dup4\n        /* \"@openzeppelin/contracts/utils/EnumerableSet.sol\":1739:1744  value */\n      dup4\n        /* \"@openzeppelin/contracts/utils/EnumerableSet.sol\":1724:1733  _contains */\n      tag_374\n        /* \"@openzeppelin/contracts/utils/EnumerableSet.sol\":1724:1745  _contains(set, value) */\n      jump\t// in\n    tag_416:\n        /* \"@openzeppelin/contracts/utils/EnumerableSet.sol\":1719:2038  if (!_contains(set, value)) {... */\n      tag_417\n      jumpi\n        /* \"@openzeppelin/contracts/utils/EnumerableSet.sol\":1761:1764  set */\n      dup3\n        /* \"@openzeppelin/contracts/utils/EnumerableSet.sol\":1761:1772  set._values */\n      0x00\n      add\n        /* \"@openzeppelin/contracts/utils/EnumerableSet.sol\":1778:1783  value */\n      dup3\n        /* \"@openzeppelin/contracts/utils/EnumerableSet.sol\":1761:1784  set._values.push(value) */\n      swap1\n      dup1\n      0x01\n      dup2\n      sload\n      add\n      dup1\n      dup3\n      sstore\n      dup1\n      swap2\n      pop\n      pop\n      0x01\n      swap1\n      sub\n      swap1\n      0x00\n      mstore\n      keccak256(0x00, 0x20)\n      add\n      0x00\n      swap1\n      swap2\n      swap1\n      swap2\n      swap1\n      swap2\n      pop\n      sstore\n        /* \"@openzeppelin/contracts/utils/EnumerableSet.sol\":1941:1944  set */\n      dup3\n        /* \"@openzeppelin/contracts/utils/EnumerableSet.sol\":1941:1952  set._values */\n      0x00\n      add\n        /* \"@openzeppelin/contracts/utils/EnumerableSet.sol\":1941:1959  set._values.length */\n      dup1\n      sload\n      swap1\n      pop\n        /* \"@openzeppelin/contracts/utils/EnumerableSet.sol\":1919:1922  set */\n      dup4\n        /* \"@openzeppelin/contracts/utils/EnumerableSet.sol\":1919:1931  set._indexes */\n      0x01\n      add\n        /* \"@openzeppelin/contracts/utils/EnumerableSet.sol\":1919:1938  set._indexes[value] */\n      0x00\n        /* \"@openzeppelin/contracts/utils/EnumerableSet.sol\":1932:1937  value */\n      dup5\n        /* \"@openzeppelin/contracts/utils/EnumerableSet.sol\":1919:1938  set._indexes[value] */\n      dup2\n      mstore\n      0x20\n      add\n      swap1\n      dup2\n      mstore\n      0x20\n      add\n      0x00\n      keccak256\n        /* \"@openzeppelin/contracts/utils/EnumerableSet.sol\":1919:1959  set._indexes[value] = set._values.length */\n      dup2\n      swap1\n      sstore\n      pop\n        /* \"@openzeppelin/contracts/utils/EnumerableSet.sol\":1980:1984  true */\n      0x01\n        /* \"@openzeppelin/contracts/utils/EnumerableSet.sol\":1973:1984  return true */\n      swap1\n      pop\n      jump(tag_415)\n        /* \"@openzeppelin/contracts/utils/EnumerableSet.sol\":1719:2038  if (!_contains(set, value)) {... */\n    tag_417:\n        /* \"@openzeppelin/contracts/utils/EnumerableSet.sol\":2022:2027  false */\n      0x00\n        /* \"@openzeppelin/contracts/utils/EnumerableSet.sol\":2015:2027  return false */\n      swap1\n      pop\n        /* \"@openzeppelin/contracts/utils/EnumerableSet.sol\":1640:2044  function _add(Set storage set, bytes32 value) private returns (bool) {... */\n    tag_415:\n      swap3\n      swap2\n      pop\n      pop\n      jump\t// out\n        /* \"@openzeppelin/contracts/utils/EnumerableSet.sol\":4013:4120  function _length(Set storage set) private view returns (uint256) {... */\n    tag_386:\n        /* \"@openzeppelin/contracts/utils/EnumerableSet.sol\":4069:4076  uint256 */\n      0x00\n        /* \"@openzeppelin/contracts/utils/EnumerableSet.sol\":4095:4098  set */\n      dup2\n        /* \"@openzeppelin/contracts/utils/EnumerableSet.sol\":4095:4106  set._values */\n      0x00\n      add\n        /* \"@openzeppelin/contracts/utils/EnumerableSet.sol\":4095:4113  set._values.length */\n      dup1\n      sload\n      swap1\n      pop\n        /* \"@openzeppelin/contracts/utils/EnumerableSet.sol\":4088:4113  return set._values.length */\n      swap1\n      pop\n        /* \"@openzeppelin/contracts/utils/EnumerableSet.sol\":4013:4120  function _length(Set storage set) private view returns (uint256) {... */\n      swap2\n      swap1\n      pop\n      jump\t// out\n        /* \"@openzeppelin/contracts/utils/EnumerableSet.sol\":4452:4653  function _at(Set storage set, uint256 index) private view returns (bytes32) {... */\n    tag_391:\n        /* \"@openzeppelin/contracts/utils/EnumerableSet.sol\":4519:4526  bytes32 */\n      0x00\n        /* \"@openzeppelin/contracts/utils/EnumerableSet.sol\":4567:4572  index */\n      dup2\n        /* \"@openzeppelin/contracts/utils/EnumerableSet.sol\":4546:4549  set */\n      dup4\n        /* \"@openzeppelin/contracts/utils/EnumerableSet.sol\":4546:4557  set._values */\n      0x00\n      add\n        /* \"@openzeppelin/contracts/utils/EnumerableSet.sol\":4546:4564  set._values.length */\n      dup1\n      sload\n      swap1\n      pop\n        /* \"@openzeppelin/contracts/utils/EnumerableSet.sol\":4546:4572  set._values.length > index */\n      gt\n        /* \"@openzeppelin/contracts/utils/EnumerableSet.sol\":4538:4611  require(set._values.length > index, \"EnumerableSet: index out of bounds\") */\n      tag_422\n      jumpi\n      mload(0x40)\n      0x08c379a000000000000000000000000000000000000000000000000000000000\n      dup2\n      mstore\n      0x04\n      add\n      tag_423\n      swap1\n      tag_424\n      jump\t// in\n    tag_423:\n      mload(0x40)\n      dup1\n      swap2\n      sub\n      swap1\n      revert\n    tag_422:\n        /* \"@openzeppelin/contracts/utils/EnumerableSet.sol\":4628:4631  set */\n      dup3\n        /* \"@openzeppelin/contracts/utils/EnumerableSet.sol\":4628:4639  set._values */\n      0x00\n      add\n        /* \"@openzeppelin/contracts/utils/EnumerableSet.sol\":4640:4645  index */\n      dup3\n        /* \"@openzeppelin/contracts/utils/EnumerableSet.sol\":4628:4646  set._values[index] */\n      dup2\n      sload\n      dup2\n      lt\n      tag_425\n      jumpi\n      tag_426\n      tag_338\n      jump\t// in\n    tag_426:\n    tag_425:\n      swap1\n      0x00\n      mstore\n      keccak256(0x00, 0x20)\n      add\n      sload\n        /* \"@openzeppelin/contracts/utils/EnumerableSet.sol\":4621:4646  return set._values[index] */\n      swap1\n      pop\n        /* \"@openzeppelin/contracts/utils/EnumerableSet.sol\":4452:4653  function _at(Set storage set, uint256 index) private view returns (bytes32) {... */\n      swap3\n      swap2\n      pop\n      pop\n      jump\t// out\n        /* \"#utility.yul\":7:84   */\n    tag_428:\n        /* \"#utility.yul\":44:51   */\n      0x00\n        /* \"#utility.yul\":73:78   */\n      dup2\n        /* \"#utility.yul\":62:78   */\n      swap1\n      pop\n        /* \"#utility.yul\":7:84   */\n      swap2\n      swap1\n      pop\n      jump\t// out\n        /* \"#utility.yul\":90:208   */\n    tag_429:\n        /* \"#utility.yul\":177:201   */\n      tag_500\n        /* \"#utility.yul\":195:200   */\n      dup2\n        /* \"#utility.yul\":177:201   */\n      tag_428\n      jump\t// in\n    tag_500:\n        /* \"#utility.yul\":172:175   */\n      dup3\n        /* \"#utility.yul\":165:202   */\n      mstore\n        /* \"#utility.yul\":90:208   */\n      pop\n      pop\n      jump\t// out\n        /* \"#utility.yul\":214:436   */\n    tag_44:\n        /* \"#utility.yul\":307:311   */\n      0x00\n        /* \"#utility.yul\":345:347   */\n      0x20\n        /* \"#utility.yul\":334:343   */\n      dup3\n        /* \"#utility.yul\":330:348   */\n      add\n        /* \"#utility.yul\":322:348   */\n      swap1\n      pop\n        /* \"#utility.yul\":358:429   */\n      tag_502\n        /* \"#utility.yul\":426:427   */\n      0x00\n        /* \"#utility.yul\":415:424   */\n      dup4\n        /* \"#utility.yul\":411:428   */\n      add\n        /* \"#utility.yul\":402:408   */\n      dup5\n        /* \"#utility.yul\":358:429   */\n      tag_429\n      jump\t// in\n    tag_502:\n        /* \"#utility.yul\":214:436   */\n      swap3\n      swap2\n      pop\n      pop\n      jump\t// out\n        /* \"#utility.yul\":523:640   */\n    tag_431:\n        /* \"#utility.yul\":632:633   */\n      0x00\n        /* \"#utility.yul\":629:630   */\n      dup1\n        /* \"#utility.yul\":622:634   */\n      revert\n        /* \"#utility.yul\":769:859   */\n    tag_433:\n        /* \"#utility.yul\":803:810   */\n      0x00\n        /* \"#utility.yul\":846:851   */\n      dup2\n        /* \"#utility.yul\":839:852   */\n      iszero\n        /* \"#utility.yul\":832:853   */\n      iszero\n        /* \"#utility.yul\":821:853   */\n      swap1\n      pop\n        /* \"#utility.yul\":769:859   */\n      swap2\n      swap1\n      pop\n      jump\t// out\n        /* \"#utility.yul\":865:981   */\n    tag_434:\n        /* \"#utility.yul\":935:956   */\n      tag_508\n        /* \"#utility.yul\":950:955   */\n      dup2\n        /* \"#utility.yul\":935:956   */\n      tag_433\n      jump\t// in\n    tag_508:\n        /* \"#utility.yul\":928:933   */\n      dup2\n        /* \"#utility.yul\":925:957   */\n      eq\n        /* \"#utility.yul\":915:975   */\n      tag_509\n      jumpi\n        /* \"#utility.yul\":971:972   */\n      0x00\n        /* \"#utility.yul\":968:969   */\n      dup1\n        /* \"#utility.yul\":961:973   */\n      revert\n        /* \"#utility.yul\":915:975   */\n    tag_509:\n        /* \"#utility.yul\":865:981   */\n      pop\n      jump\t// out\n        /* \"#utility.yul\":987:1120   */\n    tag_435:\n        /* \"#utility.yul\":1030:1035   */\n      0x00\n        /* \"#utility.yul\":1068:1074   */\n      dup2\n        /* \"#utility.yul\":1055:1075   */\n      calldataload\n        /* \"#utility.yul\":1046:1075   */\n      swap1\n      pop\n        /* \"#utility.yul\":1084:1114   */\n      tag_511\n        /* \"#utility.yul\":1108:1113   */\n      dup2\n        /* \"#utility.yul\":1084:1114   */\n      tag_434\n      jump\t// in\n    tag_511:\n        /* \"#utility.yul\":987:1120   */\n      swap3\n      swap2\n      pop\n      pop\n      jump\t// out\n        /* \"#utility.yul\":1126:1449   */\n    tag_51:\n        /* \"#utility.yul\":1182:1188   */\n      0x00\n        /* \"#utility.yul\":1231:1233   */\n      0x20\n        /* \"#utility.yul\":1219:1228   */\n      dup3\n        /* \"#utility.yul\":1210:1217   */\n      dup5\n        /* \"#utility.yul\":1206:1229   */\n      sub\n        /* \"#utility.yul\":1202:1234   */\n      slt\n        /* \"#utility.yul\":1199:1318   */\n      iszero\n      tag_513\n      jumpi\n        /* \"#utility.yul\":1237:1316   */\n      tag_514\n      tag_431\n      jump\t// in\n    tag_514:\n        /* \"#utility.yul\":1199:1318   */\n    tag_513:\n        /* \"#utility.yul\":1357:1358   */\n      0x00\n        /* \"#utility.yul\":1382:1432   */\n      tag_515\n        /* \"#utility.yul\":1424:1431   */\n      dup5\n        /* \"#utility.yul\":1415:1421   */\n      dup3\n        /* \"#utility.yul\":1404:1413   */\n      dup6\n        /* \"#utility.yul\":1400:1422   */\n      add\n        /* \"#utility.yul\":1382:1432   */\n      tag_435\n      jump\t// in\n    tag_515:\n        /* \"#utility.yul\":1372:1432   */\n      swap2\n      pop\n        /* \"#utility.yul\":1328:1442   */\n      pop\n        /* \"#utility.yul\":1126:1449   */\n      swap3\n      swap2\n      pop\n      pop\n      jump\t// out\n        /* \"#utility.yul\":1455:1581   */\n    tag_436:\n        /* \"#utility.yul\":1492:1499   */\n      0x00\n        /* \"#utility.yul\":1532:1574   */\n      0xffffffffffffffffffffffffffffffffffffffff\n        /* \"#utility.yul\":1525:1530   */\n      dup3\n        /* \"#utility.yul\":1521:1575   */\n      and\n        /* \"#utility.yul\":1510:1575   */\n      swap1\n      pop\n        /* \"#utility.yul\":1455:1581   */\n      swap2\n      swap1\n      pop\n      jump\t// out\n        /* \"#utility.yul\":1587:1683   */\n    tag_437:\n        /* \"#utility.yul\":1624:1631   */\n      0x00\n        /* \"#utility.yul\":1653:1677   */\n      tag_518\n        /* \"#utility.yul\":1671:1676   */\n      dup3\n        /* \"#utility.yul\":1653:1677   */\n      tag_436\n      jump\t// in\n    tag_518:\n        /* \"#utility.yul\":1642:1677   */\n      swap1\n      pop\n        /* \"#utility.yul\":1587:1683   */\n      swap2\n      swap1\n      pop\n      jump\t// out\n        /* \"#utility.yul\":1689:1811   */\n    tag_438:\n        /* \"#utility.yul\":1762:1786   */\n      tag_520\n        /* \"#utility.yul\":1780:1785   */\n      dup2\n        /* \"#utility.yul\":1762:1786   */\n      tag_437\n      jump\t// in\n    tag_520:\n        /* \"#utility.yul\":1755:1760   */\n      dup2\n        /* \"#utility.yul\":1752:1787   */\n      eq\n        /* \"#utility.yul\":1742:1805   */\n      tag_521\n      jumpi\n        /* \"#utility.yul\":1801:1802   */\n      0x00\n        /* \"#utility.yul\":1798:1799   */\n      dup1\n        /* \"#utility.yul\":1791:1803   */\n      revert\n        /* \"#utility.yul\":1742:1805   */\n    tag_521:\n        /* \"#utility.yul\":1689:1811   */\n      pop\n      jump\t// out\n        /* \"#utility.yul\":1817:1956   */\n    tag_439:\n        /* \"#utility.yul\":1863:1868   */\n      0x00\n        /* \"#utility.yul\":1901:1907   */\n      dup2\n        /* \"#utility.yul\":1888:1908   */\n      calldataload\n        /* \"#utility.yul\":1879:1908   */\n      swap1\n      pop\n        /* \"#utility.yul\":1917:1950   */\n      tag_523\n        /* \"#utility.yul\":1944:1949   */\n      dup2\n        /* \"#utility.yul\":1917:1950   */\n      tag_438\n      jump\t// in\n    tag_523:\n        /* \"#utility.yul\":1817:1956   */\n      swap3\n      swap2\n      pop\n      pop\n      jump\t// out\n        /* \"#utility.yul\":1962:2291   */\n    tag_56:\n        /* \"#utility.yul\":2021:2027   */\n      0x00\n        /* \"#utility.yul\":2070:2072   */\n      0x20\n        /* \"#utility.yul\":2058:2067   */\n      dup3\n        /* \"#utility.yul\":2049:2056   */\n      dup5\n        /* \"#utility.yul\":2045:2068   */\n      sub\n        /* \"#utility.yul\":2041:2073   */\n      slt\n        /* \"#utility.yul\":2038:2157   */\n      iszero\n      tag_525\n      jumpi\n        /* \"#utility.yul\":2076:2155   */\n      tag_526\n      tag_431\n      jump\t// in\n    tag_526:\n        /* \"#utility.yul\":2038:2157   */\n    tag_525:\n        /* \"#utility.yul\":2196:2197   */\n      0x00\n        /* \"#utility.yul\":2221:2274   */\n      tag_527\n        /* \"#utility.yul\":2266:2273   */\n      dup5\n        /* \"#utility.yul\":2257:2263   */\n      dup3\n        /* \"#utility.yul\":2246:2255   */\n      dup6\n        /* \"#utility.yul\":2242:2264   */\n      add\n        /* \"#utility.yul\":2221:2274   */\n      tag_439\n      jump\t// in\n    tag_527:\n        /* \"#utility.yul\":2211:2274   */\n      swap2\n      pop\n        /* \"#utility.yul\":2167:2284   */\n      pop\n        /* \"#utility.yul\":1962:2291   */\n      swap3\n      swap2\n      pop\n      pop\n      jump\t// out\n        /* \"#utility.yul\":2297:2406   */\n    tag_440:\n        /* \"#utility.yul\":2378:2399   */\n      tag_529\n        /* \"#utility.yul\":2393:2398   */\n      dup2\n        /* \"#utility.yul\":2378:2399   */\n      tag_433\n      jump\t// in\n    tag_529:\n        /* \"#utility.yul\":2373:2376   */\n      dup3\n        /* \"#utility.yul\":2366:2400   */\n      mstore\n        /* \"#utility.yul\":2297:2406   */\n      pop\n      pop\n      jump\t// out\n        /* \"#utility.yul\":2412:2622   */\n    tag_63:\n        /* \"#utility.yul\":2499:2503   */\n      0x00\n        /* \"#utility.yul\":2537:2539   */\n      0x20\n        /* \"#utility.yul\":2526:2535   */\n      dup3\n        /* \"#utility.yul\":2522:2540   */\n      add\n        /* \"#utility.yul\":2514:2540   */\n      swap1\n      pop\n        /* \"#utility.yul\":2550:2615   */\n      tag_531\n        /* \"#utility.yul\":2612:2613   */\n      0x00\n        /* \"#utility.yul\":2601:2610   */\n      dup4\n        /* \"#utility.yul\":2597:2614   */\n      add\n        /* \"#utility.yul\":2588:2594   */\n      dup5\n        /* \"#utility.yul\":2550:2615   */\n      tag_440\n      jump\t// in\n    tag_531:\n        /* \"#utility.yul\":2412:2622   */\n      swap3\n      swap2\n      pop\n      pop\n      jump\t// out\n        /* \"#utility.yul\":2628:2750   */\n    tag_441:\n        /* \"#utility.yul\":2701:2725   */\n      tag_533\n        /* \"#utility.yul\":2719:2724   */\n      dup2\n        /* \"#utility.yul\":2701:2725   */\n      tag_428\n      jump\t// in\n    tag_533:\n        /* \"#utility.yul\":2694:2699   */\n      dup2\n        /* \"#utility.yul\":2691:2726   */\n      eq\n        /* \"#utility.yul\":2681:2744   */\n      tag_534\n      jumpi\n        /* \"#utility.yul\":2740:2741   */\n      0x00\n        /* \"#utility.yul\":2737:2738   */\n      dup1\n        /* \"#utility.yul\":2730:2742   */\n      revert\n        /* \"#utility.yul\":2681:2744   */\n    tag_534:\n        /* \"#utility.yul\":2628:2750   */\n      pop\n      jump\t// out\n        /* \"#utility.yul\":2756:2895   */\n    tag_442:\n        /* \"#utility.yul\":2802:2807   */\n      0x00\n        /* \"#utility.yul\":2840:2846   */\n      dup2\n        /* \"#utility.yul\":2827:2847   */\n      calldataload\n        /* \"#utility.yul\":2818:2847   */\n      swap1\n      pop\n        /* \"#utility.yul\":2856:2889   */\n      tag_536\n        /* \"#utility.yul\":2883:2888   */\n      dup2\n        /* \"#utility.yul\":2856:2889   */\n      tag_441\n      jump\t// in\n    tag_536:\n        /* \"#utility.yul\":2756:2895   */\n      swap3\n      swap2\n      pop\n      pop\n      jump\t// out\n        /* \"#utility.yul\":2901:3230   */\n    tag_71:\n        /* \"#utility.yul\":2960:2966   */\n      0x00\n        /* \"#utility.yul\":3009:3011   */\n      0x20\n        /* \"#utility.yul\":2997:3006   */\n      dup3\n        /* \"#utility.yul\":2988:2995   */\n      dup5\n        /* \"#utility.yul\":2984:3007   */\n      sub\n        /* \"#utility.yul\":2980:3012   */\n      slt\n        /* \"#utility.yul\":2977:3096   */\n      iszero\n      tag_538\n      jumpi\n        /* \"#utility.yul\":3015:3094   */\n      tag_539\n      tag_431\n      jump\t// in\n    tag_539:\n        /* \"#utility.yul\":2977:3096   */\n    tag_538:\n        /* \"#utility.yul\":3135:3136   */\n      0x00\n        /* \"#utility.yul\":3160:3213   */\n      tag_540\n        /* \"#utility.yul\":3205:3212   */\n      dup5\n        /* \"#utility.yul\":3196:3202   */\n      dup3\n        /* \"#utility.yul\":3185:3194   */\n      dup6\n        /* \"#utility.yul\":3181:3203   */\n      add\n        /* \"#utility.yul\":3160:3213   */\n      tag_442\n      jump\t// in\n    tag_540:\n        /* \"#utility.yul\":3150:3213   */\n      swap2\n      pop\n        /* \"#utility.yul\":3106:3223   */\n      pop\n        /* \"#utility.yul\":2901:3230   */\n      swap3\n      swap2\n      pop\n      pop\n      jump\t// out\n        /* \"#utility.yul\":3236:3354   */\n    tag_443:\n        /* \"#utility.yul\":3323:3347   */\n      tag_542\n        /* \"#utility.yul\":3341:3346   */\n      dup2\n        /* \"#utility.yul\":3323:3347   */\n      tag_437\n      jump\t// in\n    tag_542:\n        /* \"#utility.yul\":3318:3321   */\n      dup3\n        /* \"#utility.yul\":3311:3348   */\n      mstore\n        /* \"#utility.yul\":3236:3354   */\n      pop\n      pop\n      jump\t// out\n        /* \"#utility.yul\":3360:3582   */\n    tag_91:\n        /* \"#utility.yul\":3453:3457   */\n      0x00\n        /* \"#utility.yul\":3491:3493   */\n      0x20\n        /* \"#utility.yul\":3480:3489   */\n      dup3\n        /* \"#utility.yul\":3476:3494   */\n      add\n        /* \"#utility.yul\":3468:3494   */\n      swap1\n      pop\n        /* \"#utility.yul\":3504:3575   */\n      tag_544\n        /* \"#utility.yul\":3572:3573   */\n      0x00\n        /* \"#utility.yul\":3561:3570   */\n      dup4\n        /* \"#utility.yul\":3557:3574   */\n      add\n        /* \"#utility.yul\":3548:3554   */\n      dup5\n        /* \"#utility.yul\":3504:3575   */\n      tag_443\n      jump\t// in\n    tag_544:\n        /* \"#utility.yul\":3360:3582   */\n      swap3\n      swap2\n      pop\n      pop\n      jump\t// out\n        /* \"#utility.yul\":3588:3648   */\n    tag_444:\n        /* \"#utility.yul\":3616:3619   */\n      0x00\n        /* \"#utility.yul\":3637:3642   */\n      dup2\n        /* \"#utility.yul\":3630:3642   */\n      swap1\n      pop\n        /* \"#utility.yul\":3588:3648   */\n      swap2\n      swap1\n      pop\n      jump\t// out\n        /* \"#utility.yul\":3654:3796   */\n    tag_445:\n        /* \"#utility.yul\":3704:3713   */\n      0x00\n        /* \"#utility.yul\":3737:3790   */\n      tag_547\n        /* \"#utility.yul\":3755:3789   */\n      tag_548\n        /* \"#utility.yul\":3764:3788   */\n      tag_549\n        /* \"#utility.yul\":3782:3787   */\n      dup5\n        /* \"#utility.yul\":3764:3788   */\n      tag_436\n      jump\t// in\n    tag_549:\n        /* \"#utility.yul\":3755:3789   */\n      tag_444\n      jump\t// in\n    tag_548:\n        /* \"#utility.yul\":3737:3790   */\n      tag_436\n      jump\t// in\n    tag_547:\n        /* \"#utility.yul\":3724:3790   */\n      swap1\n      pop\n        /* \"#utility.yul\":3654:3796   */\n      swap2\n      swap1\n      pop\n      jump\t// out\n        /* \"#utility.yul\":3802:3928   */\n    tag_446:\n        /* \"#utility.yul\":3852:3861   */\n      0x00\n        /* \"#utility.yul\":3885:3922   */\n      tag_551\n        /* \"#utility.yul\":3916:3921   */\n      dup3\n        /* \"#utility.yul\":3885:3922   */\n      tag_445\n      jump\t// in\n    tag_551:\n        /* \"#utility.yul\":3872:3922   */\n      swap1\n      pop\n        /* \"#utility.yul\":3802:3928   */\n      swap2\n      swap1\n      pop\n      jump\t// out\n        /* \"#utility.yul\":3934:4074   */\n    tag_447:\n        /* \"#utility.yul\":3998:4007   */\n      0x00\n        /* \"#utility.yul\":4031:4068   */\n      tag_553\n        /* \"#utility.yul\":4062:4067   */\n      dup3\n        /* \"#utility.yul\":4031:4068   */\n      tag_446\n      jump\t// in\n    tag_553:\n        /* \"#utility.yul\":4018:4068   */\n      swap1\n      pop\n        /* \"#utility.yul\":3934:4074   */\n      swap2\n      swap1\n      pop\n      jump\t// out\n        /* \"#utility.yul\":4080:4239   */\n    tag_448:\n        /* \"#utility.yul\":4181:4232   */\n      tag_555\n        /* \"#utility.yul\":4226:4231   */\n      dup2\n        /* \"#utility.yul\":4181:4232   */\n      tag_447\n      jump\t// in\n    tag_555:\n        /* \"#utility.yul\":4176:4179   */\n      dup3\n        /* \"#utility.yul\":4169:4233   */\n      mstore\n        /* \"#utility.yul\":4080:4239   */\n      pop\n      pop\n      jump\t// out\n        /* \"#utility.yul\":4245:4495   */\n    tag_100:\n        /* \"#utility.yul\":4352:4356   */\n      0x00\n        /* \"#utility.yul\":4390:4392   */\n      0x20\n        /* \"#utility.yul\":4379:4388   */\n      dup3\n        /* \"#utility.yul\":4375:4393   */\n      add\n        /* \"#utility.yul\":4367:4393   */\n      swap1\n      pop\n        /* \"#utility.yul\":4403:4488   */\n      tag_557\n        /* \"#utility.yul\":4485:4486   */\n      0x00\n        /* \"#utility.yul\":4474:4483   */\n      dup4\n        /* \"#utility.yul\":4470:4487   */\n      add\n        /* \"#utility.yul\":4461:4467   */\n      dup5\n        /* \"#utility.yul\":4403:4488   */\n      tag_448\n      jump\t// in\n    tag_557:\n        /* \"#utility.yul\":4245:4495   */\n      swap3\n      swap2\n      pop\n      pop\n      jump\t// out\n        /* \"#utility.yul\":4501:4615   */\n    tag_449:\n        /* \"#utility.yul\":4568:4574   */\n      0x00\n        /* \"#utility.yul\":4602:4607   */\n      dup2\n        /* \"#utility.yul\":4596:4608   */\n      mload\n        /* \"#utility.yul\":4586:4608   */\n      swap1\n      pop\n        /* \"#utility.yul\":4501:4615   */\n      swap2\n      swap1\n      pop\n      jump\t// out\n        /* \"#utility.yul\":4621:4805   */\n    tag_450:\n        /* \"#utility.yul\":4720:4731   */\n      0x00\n        /* \"#utility.yul\":4754:4760   */\n      dup3\n        /* \"#utility.yul\":4749:4752   */\n      dup3\n        /* \"#utility.yul\":4742:4761   */\n      mstore\n        /* \"#utility.yul\":4794:4798   */\n      0x20\n        /* \"#utility.yul\":4789:4792   */\n      dup3\n        /* \"#utility.yul\":4785:4799   */\n      add\n        /* \"#utility.yul\":4770:4799   */\n      swap1\n      pop\n        /* \"#utility.yul\":4621:4805   */\n      swap3\n      swap2\n      pop\n      pop\n      jump\t// out\n        /* \"#utility.yul\":4811:4943   */\n    tag_451:\n        /* \"#utility.yul\":4878:4882   */\n      0x00\n        /* \"#utility.yul\":4901:4904   */\n      dup2\n        /* \"#utility.yul\":4893:4904   */\n      swap1\n      pop\n        /* \"#utility.yul\":4931:4935   */\n      0x20\n        /* \"#utility.yul\":4926:4929   */\n      dup3\n        /* \"#utility.yul\":4922:4936   */\n      add\n        /* \"#utility.yul\":4914:4936   */\n      swap1\n      pop\n        /* \"#utility.yul\":4811:4943   */\n      swap2\n      swap1\n      pop\n      jump\t// out\n        /* \"#utility.yul\":4949:5057   */\n    tag_452:\n        /* \"#utility.yul\":5026:5050   */\n      tag_562\n        /* \"#utility.yul\":5044:5049   */\n      dup2\n        /* \"#utility.yul\":5026:5050   */\n      tag_437\n      jump\t// in\n    tag_562:\n        /* \"#utility.yul\":5021:5024   */\n      dup3\n        /* \"#utility.yul\":5014:5051   */\n      mstore\n        /* \"#utility.yul\":4949:5057   */\n      pop\n      pop\n      jump\t// out\n        /* \"#utility.yul\":5063:5242   */\n    tag_453:\n        /* \"#utility.yul\":5132:5142   */\n      0x00\n        /* \"#utility.yul\":5153:5199   */\n      tag_564\n        /* \"#utility.yul\":5195:5198   */\n      dup4\n        /* \"#utility.yul\":5187:5193   */\n      dup4\n        /* \"#utility.yul\":5153:5199   */\n      tag_452\n      jump\t// in\n    tag_564:\n        /* \"#utility.yul\":5231:5235   */\n      0x20\n        /* \"#utility.yul\":5226:5229   */\n      dup4\n        /* \"#utility.yul\":5222:5236   */\n      add\n        /* \"#utility.yul\":5208:5236   */\n      swap1\n      pop\n        /* \"#utility.yul\":5063:5242   */\n      swap3\n      swap2\n      pop\n      pop\n      jump\t// out\n        /* \"#utility.yul\":5248:5361   */\n    tag_454:\n        /* \"#utility.yul\":5318:5322   */\n      0x00\n        /* \"#utility.yul\":5350:5354   */\n      0x20\n        /* \"#utility.yul\":5345:5348   */\n      dup3\n        /* \"#utility.yul\":5341:5355   */\n      add\n        /* \"#utility.yul\":5333:5355   */\n      swap1\n      pop\n        /* \"#utility.yul\":5248:5361   */\n      swap2\n      swap1\n      pop\n      jump\t// out\n        /* \"#utility.yul\":5397:6129   */\n    tag_455:\n        /* \"#utility.yul\":5516:5519   */\n      0x00\n        /* \"#utility.yul\":5545:5599   */\n      tag_567\n        /* \"#utility.yul\":5593:5598   */\n      dup3\n        /* \"#utility.yul\":5545:5599   */\n      tag_449\n      jump\t// in\n    tag_567:\n        /* \"#utility.yul\":5615:5701   */\n      tag_568\n        /* \"#utility.yul\":5694:5700   */\n      dup2\n        /* \"#utility.yul\":5689:5692   */\n      dup6\n        /* \"#utility.yul\":5615:5701   */\n      tag_450\n      jump\t// in\n    tag_568:\n        /* \"#utility.yul\":5608:5701   */\n      swap4\n      pop\n        /* \"#utility.yul\":5725:5781   */\n      tag_569\n        /* \"#utility.yul\":5775:5780   */\n      dup4\n        /* \"#utility.yul\":5725:5781   */\n      tag_451\n      jump\t// in\n    tag_569:\n        /* \"#utility.yul\":5804:5811   */\n      dup1\n        /* \"#utility.yul\":5835:5836   */\n      0x00\n        /* \"#utility.yul\":5820:6104   */\n    tag_570:\n        /* \"#utility.yul\":5845:5851   */\n      dup4\n        /* \"#utility.yul\":5842:5843   */\n      dup2\n        /* \"#utility.yul\":5839:5852   */\n      lt\n        /* \"#utility.yul\":5820:6104   */\n      iszero\n      tag_572\n      jumpi\n        /* \"#utility.yul\":5921:5927   */\n      dup2\n        /* \"#utility.yul\":5915:5928   */\n      mload\n        /* \"#utility.yul\":5948:6011   */\n      tag_573\n        /* \"#utility.yul\":6007:6010   */\n      dup9\n        /* \"#utility.yul\":5992:6005   */\n      dup3\n        /* \"#utility.yul\":5948:6011   */\n      tag_453\n      jump\t// in\n    tag_573:\n        /* \"#utility.yul\":5941:6011   */\n      swap8\n      pop\n        /* \"#utility.yul\":6034:6094   */\n      tag_574\n        /* \"#utility.yul\":6087:6093   */\n      dup4\n        /* \"#utility.yul\":6034:6094   */\n      tag_454\n      jump\t// in\n    tag_574:\n        /* \"#utility.yul\":6024:6094   */\n      swap3\n      pop\n        /* \"#utility.yul\":5880:6104   */\n      pop\n        /* \"#utility.yul\":5867:5868   */\n      0x01\n        /* \"#utility.yul\":5864:5865   */\n      dup2\n        /* \"#utility.yul\":5860:5869   */\n      add\n        /* \"#utility.yul\":5855:5869   */\n      swap1\n      pop\n        /* \"#utility.yul\":5820:6104   */\n      jump(tag_570)\n    tag_572:\n        /* \"#utility.yul\":5824:5838   */\n      pop\n        /* \"#utility.yul\":6120:6123   */\n      dup6\n        /* \"#utility.yul\":6113:6123   */\n      swap4\n      pop\n        /* \"#utility.yul\":5521:6129   */\n      pop\n      pop\n      pop\n        /* \"#utility.yul\":5397:6129   */\n      swap3\n      swap2\n      pop\n      pop\n      jump\t// out\n        /* \"#utility.yul\":6135:6508   */\n    tag_151:\n        /* \"#utility.yul\":6278:6282   */\n      0x00\n        /* \"#utility.yul\":6316:6318   */\n      0x20\n        /* \"#utility.yul\":6305:6314   */\n      dup3\n        /* \"#utility.yul\":6301:6319   */\n      add\n        /* \"#utility.yul\":6293:6319   */\n      swap1\n      pop\n        /* \"#utility.yul\":6365:6374   */\n      dup2\n        /* \"#utility.yul\":6359:6363   */\n      dup2\n        /* \"#utility.yul\":6355:6375   */\n      sub\n        /* \"#utility.yul\":6351:6352   */\n      0x00\n        /* \"#utility.yul\":6340:6349   */\n      dup4\n        /* \"#utility.yul\":6336:6353   */\n      add\n        /* \"#utility.yul\":6329:6376   */\n      mstore\n        /* \"#utility.yul\":6393:6501   */\n      tag_576\n        /* \"#utility.yul\":6496:6500   */\n      dup2\n        /* \"#utility.yul\":6487:6493   */\n      dup5\n        /* \"#utility.yul\":6393:6501   */\n      tag_455\n      jump\t// in\n    tag_576:\n        /* \"#utility.yul\":6385:6501   */\n      swap1\n      pop\n        /* \"#utility.yul\":6135:6508   */\n      swap3\n      swap2\n      pop\n      pop\n      jump\t// out\n        /* \"#utility.yul\":6514:6637   */\n    tag_456:\n        /* \"#utility.yul\":6578:6585   */\n      0x00\n        /* \"#utility.yul\":6607:6631   */\n      tag_578\n        /* \"#utility.yul\":6625:6630   */\n      dup3\n        /* \"#utility.yul\":6607:6631   */\n      tag_437\n      jump\t// in\n    tag_578:\n        /* \"#utility.yul\":6596:6631   */\n      swap1\n      pop\n        /* \"#utility.yul\":6514:6637   */\n      swap2\n      swap1\n      pop\n      jump\t// out\n        /* \"#utility.yul\":6643:6819   */\n    tag_457:\n        /* \"#utility.yul\":6743:6794   */\n      tag_580\n        /* \"#utility.yul\":6788:6793   */\n      dup2\n        /* \"#utility.yul\":6743:6794   */\n      tag_456\n      jump\t// in\n    tag_580:\n        /* \"#utility.yul\":6736:6741   */\n      dup2\n        /* \"#utility.yul\":6733:6795   */\n      eq\n        /* \"#utility.yul\":6723:6813   */\n      tag_581\n      jumpi\n        /* \"#utility.yul\":6809:6810   */\n      0x00\n        /* \"#utility.yul\":6806:6807   */\n      dup1\n        /* \"#utility.yul\":6799:6811   */\n      revert\n        /* \"#utility.yul\":6723:6813   */\n    tag_581:\n        /* \"#utility.yul\":6643:6819   */\n      pop\n      jump\t// out\n        /* \"#utility.yul\":6825:7018   */\n    tag_458:\n        /* \"#utility.yul\":6898:6903   */\n      0x00\n        /* \"#utility.yul\":6936:6942   */\n      dup2\n        /* \"#utility.yul\":6923:6943   */\n      calldataload\n        /* \"#utility.yul\":6914:6943   */\n      swap1\n      pop\n        /* \"#utility.yul\":6952:7012   */\n      tag_583\n        /* \"#utility.yul\":7006:7011   */\n      dup2\n        /* \"#utility.yul\":6952:7012   */\n      tag_457\n      jump\t// in\n    tag_583:\n        /* \"#utility.yul\":6825:7018   */\n      swap3\n      swap2\n      pop\n      pop\n      jump\t// out\n        /* \"#utility.yul\":7024:7546   */\n    tag_159:\n        /* \"#utility.yul\":7116:7122   */\n      0x00\n        /* \"#utility.yul\":7124:7130   */\n      dup1\n        /* \"#utility.yul\":7173:7175   */\n      0x40\n        /* \"#utility.yul\":7161:7170   */\n      dup4\n        /* \"#utility.yul\":7152:7159   */\n      dup6\n        /* \"#utility.yul\":7148:7171   */\n      sub\n        /* \"#utility.yul\":7144:7176   */\n      slt\n        /* \"#utility.yul\":7141:7260   */\n      iszero\n      tag_585\n      jumpi\n        /* \"#utility.yul\":7179:7258   */\n      tag_586\n      tag_431\n      jump\t// in\n    tag_586:\n        /* \"#utility.yul\":7141:7260   */\n    tag_585:\n        /* \"#utility.yul\":7299:7300   */\n      0x00\n        /* \"#utility.yul\":7324:7404   */\n      tag_587\n        /* \"#utility.yul\":7396:7403   */\n      dup6\n        /* \"#utility.yul\":7387:7393   */\n      dup3\n        /* \"#utility.yul\":7376:7385   */\n      dup7\n        /* \"#utility.yul\":7372:7394   */\n      add\n        /* \"#utility.yul\":7324:7404   */\n      tag_458\n      jump\t// in\n    tag_587:\n        /* \"#utility.yul\":7314:7404   */\n      swap3\n      pop\n        /* \"#utility.yul\":7270:7414   */\n      pop\n        /* \"#utility.yul\":7453:7455   */\n      0x20\n        /* \"#utility.yul\":7479:7529   */\n      tag_588\n        /* \"#utility.yul\":7521:7528   */\n      dup6\n        /* \"#utility.yul\":7512:7518   */\n      dup3\n        /* \"#utility.yul\":7501:7510   */\n      dup7\n        /* \"#utility.yul\":7497:7519   */\n      add\n        /* \"#utility.yul\":7479:7529   */\n      tag_435\n      jump\t// in\n    tag_588:\n        /* \"#utility.yul\":7469:7529   */\n      swap2\n      pop\n        /* \"#utility.yul\":7424:7539   */\n      pop\n        /* \"#utility.yul\":7024:7546   */\n      swap3\n      pop\n      swap3\n      swap1\n      pop\n      jump\t// out\n        /* \"#utility.yul\":7552:8105   */\n    tag_166:\n        /* \"#utility.yul\":7729:7733   */\n      0x00\n        /* \"#utility.yul\":7767:7770   */\n      0x80\n        /* \"#utility.yul\":7756:7765   */\n      dup3\n        /* \"#utility.yul\":7752:7771   */\n      add\n        /* \"#utility.yul\":7744:7771   */\n      swap1\n      pop\n        /* \"#utility.yul\":7781:7852   */\n      tag_590\n        /* \"#utility.yul\":7849:7850   */\n      0x00\n        /* \"#utility.yul\":7838:7847   */\n      dup4\n        /* \"#utility.yul\":7834:7851   */\n      add\n        /* \"#utility.yul\":7825:7831   */\n      dup8\n        /* \"#utility.yul\":7781:7852   */\n      tag_429\n      jump\t// in\n    tag_590:\n        /* \"#utility.yul\":7862:7934   */\n      tag_591\n        /* \"#utility.yul\":7930:7932   */\n      0x20\n        /* \"#utility.yul\":7919:7928   */\n      dup4\n        /* \"#utility.yul\":7915:7933   */\n      add\n        /* \"#utility.yul\":7906:7912   */\n      dup7\n        /* \"#utility.yul\":7862:7934   */\n      tag_429\n      jump\t// in\n    tag_591:\n        /* \"#utility.yul\":7944:8016   */\n      tag_592\n        /* \"#utility.yul\":8012:8014   */\n      0x40\n        /* \"#utility.yul\":8001:8010   */\n      dup4\n        /* \"#utility.yul\":7997:8015   */\n      add\n        /* \"#utility.yul\":7988:7994   */\n      dup6\n        /* \"#utility.yul\":7944:8016   */\n      tag_429\n      jump\t// in\n    tag_592:\n        /* \"#utility.yul\":8026:8098   */\n      tag_593\n        /* \"#utility.yul\":8094:8096   */\n      0x60\n        /* \"#utility.yul\":8083:8092   */\n      dup4\n        /* \"#utility.yul\":8079:8097   */\n      add\n        /* \"#utility.yul\":8070:8076   */\n      dup5\n        /* \"#utility.yul\":8026:8098   */\n      tag_429\n      jump\t// in\n    tag_593:\n        /* \"#utility.yul\":7552:8105   */\n      swap6\n      swap5\n      pop\n      pop\n      pop\n      pop\n      pop\n      jump\t// out\n        /* \"#utility.yul\":8111:8264   */\n    tag_459:\n        /* \"#utility.yul\":8188:8197   */\n      0x00\n        /* \"#utility.yul\":8221:8258   */\n      tag_595\n        /* \"#utility.yul\":8252:8257   */\n      dup3\n        /* \"#utility.yul\":8221:8258   */\n      tag_446\n      jump\t// in\n    tag_595:\n        /* \"#utility.yul\":8208:8258   */\n      swap1\n      pop\n        /* \"#utility.yul\":8111:8264   */\n      swap2\n      swap1\n      pop\n      jump\t// out\n        /* \"#utility.yul\":8270:8455   */\n    tag_460:\n        /* \"#utility.yul\":8384:8448   */\n      tag_597\n        /* \"#utility.yul\":8442:8447   */\n      dup2\n        /* \"#utility.yul\":8384:8448   */\n      tag_459\n      jump\t// in\n    tag_597:\n        /* \"#utility.yul\":8379:8382   */\n      dup3\n        /* \"#utility.yul\":8372:8449   */\n      mstore\n        /* \"#utility.yul\":8270:8455   */\n      pop\n      pop\n      jump\t// out\n        /* \"#utility.yul\":8461:8737   */\n    tag_175:\n        /* \"#utility.yul\":8581:8585   */\n      0x00\n        /* \"#utility.yul\":8619:8621   */\n      0x20\n        /* \"#utility.yul\":8608:8617   */\n      dup3\n        /* \"#utility.yul\":8604:8622   */\n      add\n        /* \"#utility.yul\":8596:8622   */\n      swap1\n      pop\n        /* \"#utility.yul\":8632:8730   */\n      tag_599\n        /* \"#utility.yul\":8727:8728   */\n      0x00\n        /* \"#utility.yul\":8716:8725   */\n      dup4\n        /* \"#utility.yul\":8712:8729   */\n      add\n        /* \"#utility.yul\":8703:8709   */\n      dup5\n        /* \"#utility.yul\":8632:8730   */\n      tag_460\n      jump\t// in\n    tag_599:\n        /* \"#utility.yul\":8461:8737   */\n      swap3\n      swap2\n      pop\n      pop\n      jump\t// out\n        /* \"#utility.yul\":8743:9502   */\n    tag_179:\n        /* \"#utility.yul\":8826:8832   */\n      0x00\n        /* \"#utility.yul\":8834:8840   */\n      dup1\n        /* \"#utility.yul\":8842:8848   */\n      0x00\n        /* \"#utility.yul\":8850:8856   */\n      dup1\n        /* \"#utility.yul\":8899:8902   */\n      0x80\n        /* \"#utility.yul\":8887:8896   */\n      dup6\n        /* \"#utility.yul\":8878:8885   */\n      dup8\n        /* \"#utility.yul\":8874:8897   */\n      sub\n        /* \"#utility.yul\":8870:8903   */\n      slt\n        /* \"#utility.yul\":8867:8987   */\n      iszero\n      tag_601\n      jumpi\n        /* \"#utility.yul\":8906:8985   */\n      tag_602\n      tag_431\n      jump\t// in\n    tag_602:\n        /* \"#utility.yul\":8867:8987   */\n    tag_601:\n        /* \"#utility.yul\":9026:9027   */\n      0x00\n        /* \"#utility.yul\":9051:9104   */\n      tag_603\n        /* \"#utility.yul\":9096:9103   */\n      dup8\n        /* \"#utility.yul\":9087:9093   */\n      dup3\n        /* \"#utility.yul\":9076:9085   */\n      dup9\n        /* \"#utility.yul\":9072:9094   */\n      add\n        /* \"#utility.yul\":9051:9104   */\n      tag_439\n      jump\t// in\n    tag_603:\n        /* \"#utility.yul\":9041:9104   */\n      swap5\n      pop\n        /* \"#utility.yul\":8997:9114   */\n      pop\n        /* \"#utility.yul\":9153:9155   */\n      0x20\n        /* \"#utility.yul\":9179:9232   */\n      tag_604\n        /* \"#utility.yul\":9224:9231   */\n      dup8\n        /* \"#utility.yul\":9215:9221   */\n      dup3\n        /* \"#utility.yul\":9204:9213   */\n      dup9\n        /* \"#utility.yul\":9200:9222   */\n      add\n        /* \"#utility.yul\":9179:9232   */\n      tag_439\n      jump\t// in\n    tag_604:\n        /* \"#utility.yul\":9169:9232   */\n      swap4\n      pop\n        /* \"#utility.yul\":9124:9242   */\n      pop\n        /* \"#utility.yul\":9281:9283   */\n      0x40\n        /* \"#utility.yul\":9307:9360   */\n      tag_605\n        /* \"#utility.yul\":9352:9359   */\n      dup8\n        /* \"#utility.yul\":9343:9349   */\n      dup3\n        /* \"#utility.yul\":9332:9341   */\n      dup9\n        /* \"#utility.yul\":9328:9350   */\n      add\n        /* \"#utility.yul\":9307:9360   */\n      tag_439\n      jump\t// in\n    tag_605:\n        /* \"#utility.yul\":9297:9360   */\n      swap3\n      pop\n        /* \"#utility.yul\":9252:9370   */\n      pop\n        /* \"#utility.yul\":9409:9411   */\n      0x60\n        /* \"#utility.yul\":9435:9485   */\n      tag_606\n        /* \"#utility.yul\":9477:9484   */\n      dup8\n        /* \"#utility.yul\":9468:9474   */\n      dup3\n        /* \"#utility.yul\":9457:9466   */\n      dup9\n        /* \"#utility.yul\":9453:9475   */\n      add\n        /* \"#utility.yul\":9435:9485   */\n      tag_435\n      jump\t// in\n    tag_606:\n        /* \"#utility.yul\":9425:9485   */\n      swap2\n      pop\n        /* \"#utility.yul\":9380:9495   */\n      pop\n        /* \"#utility.yul\":8743:9502   */\n      swap3\n      swap6\n      swap2\n      swap5\n      pop\n      swap3\n      pop\n      jump\t// out\n        /* \"#utility.yul\":9508:9677   */\n    tag_461:\n        /* \"#utility.yul\":9592:9603   */\n      0x00\n        /* \"#utility.yul\":9626:9632   */\n      dup3\n        /* \"#utility.yul\":9621:9624   */\n      dup3\n        /* \"#utility.yul\":9614:9633   */\n      mstore\n        /* \"#utility.yul\":9666:9670   */\n      0x20\n        /* \"#utility.yul\":9661:9664   */\n      dup3\n        /* \"#utility.yul\":9657:9671   */\n      add\n        /* \"#utility.yul\":9642:9671   */\n      swap1\n      pop\n        /* \"#utility.yul\":9508:9677   */\n      swap3\n      swap2\n      pop\n      pop\n      jump\t// out\n        /* \"#utility.yul\":9683:9908   */\n    tag_462:\n        /* \"#utility.yul\":9823:9857   */\n      0x41646d696e69737472617465643a204d73672073656e646572206973206e6f74\n        /* \"#utility.yul\":9819:9820   */\n      0x00\n        /* \"#utility.yul\":9811:9817   */\n      dup3\n        /* \"#utility.yul\":9807:9821   */\n      add\n        /* \"#utility.yul\":9800:9858   */\n      mstore\n        /* \"#utility.yul\":9892:9900   */\n      0x2061646d696e0000000000000000000000000000000000000000000000000000\n        /* \"#utility.yul\":9887:9889   */\n      0x20\n        /* \"#utility.yul\":9879:9885   */\n      dup3\n        /* \"#utility.yul\":9875:9890   */\n      add\n        /* \"#utility.yul\":9868:9901   */\n      mstore\n        /* \"#utility.yul\":9683:9908   */\n      pop\n      jump\t// out\n        /* \"#utility.yul\":9914:10280   */\n    tag_463:\n        /* \"#utility.yul\":10056:10059   */\n      0x00\n        /* \"#utility.yul\":10077:10144   */\n      tag_610\n        /* \"#utility.yul\":10141:10143   */\n      0x26\n        /* \"#utility.yul\":10136:10139   */\n      dup4\n        /* \"#utility.yul\":10077:10144   */\n      tag_461\n      jump\t// in\n    tag_610:\n        /* \"#utility.yul\":10070:10144   */\n      swap2\n      pop\n        /* \"#utility.yul\":10153:10246   */\n      tag_611\n        /* \"#utility.yul\":10242:10245   */\n      dup3\n        /* \"#utility.yul\":10153:10246   */\n      tag_462\n      jump\t// in\n    tag_611:\n        /* \"#utility.yul\":10271:10273   */\n      0x40\n        /* \"#utility.yul\":10266:10269   */\n      dup3\n        /* \"#utility.yul\":10262:10274   */\n      add\n        /* \"#utility.yul\":10255:10274   */\n      swap1\n      pop\n        /* \"#utility.yul\":9914:10280   */\n      swap2\n      swap1\n      pop\n      jump\t// out\n        /* \"#utility.yul\":10286:10705   */\n    tag_185:\n        /* \"#utility.yul\":10452:10456   */\n      0x00\n        /* \"#utility.yul\":10490:10492   */\n      0x20\n        /* \"#utility.yul\":10479:10488   */\n      dup3\n        /* \"#utility.yul\":10475:10493   */\n      add\n        /* \"#utility.yul\":10467:10493   */\n      swap1\n      pop\n        /* \"#utility.yul\":10539:10548   */\n      dup2\n        /* \"#utility.yul\":10533:10537   */\n      dup2\n        /* \"#utility.yul\":10529:10549   */\n      sub\n        /* \"#utility.yul\":10525:10526   */\n      0x00\n        /* \"#utility.yul\":10514:10523   */\n      dup4\n        /* \"#utility.yul\":10510:10527   */\n      add\n        /* \"#utility.yul\":10503:10550   */\n      mstore\n        /* \"#utility.yul\":10567:10698   */\n      tag_613\n        /* \"#utility.yul\":10693:10697   */\n      dup2\n        /* \"#utility.yul\":10567:10698   */\n      tag_463\n      jump\t// in\n    tag_613:\n        /* \"#utility.yul\":10559:10698   */\n      swap1\n      pop\n        /* \"#utility.yul\":10286:10705   */\n      swap2\n      swap1\n      pop\n      jump\t// out\n        /* \"#utility.yul\":10711:10893   */\n    tag_464:\n        /* \"#utility.yul\":10851:10885   */\n      0x4f776e61626c653a2063616c6c6572206973206e6f7420746865206f776e6572\n        /* \"#utility.yul\":10847:10848   */\n      0x00\n        /* \"#utility.yul\":10839:10845   */\n      dup3\n        /* \"#utility.yul\":10835:10849   */\n      add\n        /* \"#utility.yul\":10828:10886   */\n      mstore\n        /* \"#utility.yul\":10711:10893   */\n      pop\n      jump\t// out\n        /* \"#utility.yul\":10899:11265   */\n    tag_465:\n        /* \"#utility.yul\":11041:11044   */\n      0x00\n        /* \"#utility.yul\":11062:11129   */\n      tag_616\n        /* \"#utility.yul\":11126:11128   */\n      0x20\n        /* \"#utility.yul\":11121:11124   */\n      dup4\n        /* \"#utility.yul\":11062:11129   */\n      tag_461\n      jump\t// in\n    tag_616:\n        /* \"#utility.yul\":11055:11129   */\n      swap2\n      pop\n        /* \"#utility.yul\":11138:11231   */\n      tag_617\n        /* \"#utility.yul\":11227:11230   */\n      dup3\n        /* \"#utility.yul\":11138:11231   */\n      tag_464\n      jump\t// in\n    tag_617:\n        /* \"#utility.yul\":11256:11258   */\n      0x20\n        /* \"#utility.yul\":11251:11254   */\n      dup3\n        /* \"#utility.yul\":11247:11259   */\n      add\n        /* \"#utility.yul\":11240:11259   */\n      swap1\n      pop\n        /* \"#utility.yul\":10899:11265   */\n      swap2\n      swap1\n      pop\n      jump\t// out\n        /* \"#utility.yul\":11271:11690   */\n    tag_191:\n        /* \"#utility.yul\":11437:11441   */\n      0x00\n        /* \"#utility.yul\":11475:11477   */\n      0x20\n        /* \"#utility.yul\":11464:11473   */\n      dup3\n        /* \"#utility.yul\":11460:11478   */\n      add\n        /* \"#utility.yul\":11452:11478   */\n      swap1\n      pop\n        /* \"#utility.yul\":11524:11533   */\n      dup2\n        /* \"#utility.yul\":11518:11522   */\n      dup2\n        /* \"#utility.yul\":11514:11534   */\n      sub\n        /* \"#utility.yul\":11510:11511   */\n      0x00\n        /* \"#utility.yul\":11499:11508   */\n      dup4\n        /* \"#utility.yul\":11495:11512   */\n      add\n        /* \"#utility.yul\":11488:11535   */\n      mstore\n        /* \"#utility.yul\":11552:11683   */\n      tag_619\n        /* \"#utility.yul\":11678:11682   */\n      dup2\n        /* \"#utility.yul\":11552:11683   */\n      tag_465\n      jump\t// in\n    tag_619:\n        /* \"#utility.yul\":11544:11683   */\n      swap1\n      pop\n        /* \"#utility.yul\":11271:11690   */\n      swap2\n      swap1\n      pop\n      jump\t// out\n        /* \"#utility.yul\":11696:11916   */\n    tag_466:\n        /* \"#utility.yul\":11836:11870   */\n      0x4f776e657220686173206e6f742062616c616e636520746f2077697468647261\n        /* \"#utility.yul\":11832:11833   */\n      0x00\n        /* \"#utility.yul\":11824:11830   */\n      dup3\n        /* \"#utility.yul\":11820:11834   */\n      add\n        /* \"#utility.yul\":11813:11871   */\n      mstore\n        /* \"#utility.yul\":11905:11908   */\n      0x7700000000000000000000000000000000000000000000000000000000000000\n        /* \"#utility.yul\":11900:11902   */\n      0x20\n        /* \"#utility.yul\":11892:11898   */\n      dup3\n        /* \"#utility.yul\":11888:11903   */\n      add\n        /* \"#utility.yul\":11881:11909   */\n      mstore\n        /* \"#utility.yul\":11696:11916   */\n      pop\n      jump\t// out\n        /* \"#utility.yul\":11922:12288   */\n    tag_467:\n        /* \"#utility.yul\":12064:12067   */\n      0x00\n        /* \"#utility.yul\":12085:12152   */\n      tag_622\n        /* \"#utility.yul\":12149:12151   */\n      0x21\n        /* \"#utility.yul\":12144:12147   */\n      dup4\n        /* \"#utility.yul\":12085:12152   */\n      tag_461\n      jump\t// in\n    tag_622:\n        /* \"#utility.yul\":12078:12152   */\n      swap2\n      pop\n        /* \"#utility.yul\":12161:12254   */\n      tag_623\n        /* \"#utility.yul\":12250:12253   */\n      dup3\n        /* \"#utility.yul\":12161:12254   */\n      tag_466\n      jump\t// in\n    tag_623:\n        /* \"#utility.yul\":12279:12281   */\n      0x40\n        /* \"#utility.yul\":12274:12277   */\n      dup3\n        /* \"#utility.yul\":12270:12282   */\n      add\n        /* \"#utility.yul\":12263:12282   */\n      swap1\n      pop\n        /* \"#utility.yul\":11922:12288   */\n      swap2\n      swap1\n      pop\n      jump\t// out\n        /* \"#utility.yul\":12294:12713   */\n    tag_208:\n        /* \"#utility.yul\":12460:12464   */\n      0x00\n        /* \"#utility.yul\":12498:12500   */\n      0x20\n        /* \"#utility.yul\":12487:12496   */\n      dup3\n        /* \"#utility.yul\":12483:12501   */\n      add\n        /* \"#utility.yul\":12475:12501   */\n      swap1\n      pop\n        /* \"#utility.yul\":12547:12556   */\n      dup2\n        /* \"#utility.yul\":12541:12545   */\n      dup2\n        /* \"#utility.yul\":12537:12557   */\n      sub\n        /* \"#utility.yul\":12533:12534   */\n      0x00\n        /* \"#utility.yul\":12522:12531   */\n      dup4\n        /* \"#utility.yul\":12518:12535   */\n      add\n        /* \"#utility.yul\":12511:12558   */\n      mstore\n        /* \"#utility.yul\":12575:12706   */\n      tag_625\n        /* \"#utility.yul\":12701:12705   */\n      dup2\n        /* \"#utility.yul\":12575:12706   */\n      tag_467\n      jump\t// in\n    tag_625:\n        /* \"#utility.yul\":12567:12706   */\n      swap1\n      pop\n        /* \"#utility.yul\":12294:12713   */\n      swap2\n      swap1\n      pop\n      jump\t// out\n        /* \"#utility.yul\":12719:12866   */\n    tag_468:\n        /* \"#utility.yul\":12820:12831   */\n      0x00\n        /* \"#utility.yul\":12857:12860   */\n      dup2\n        /* \"#utility.yul\":12842:12860   */\n      swap1\n      pop\n        /* \"#utility.yul\":12719:12866   */\n      swap3\n      swap2\n      pop\n      pop\n      jump\t// out\n        /* \"#utility.yul\":12872:12986   */\n    tag_469:\n      pop\n      jump\t// out\n        /* \"#utility.yul\":12992:13390   */\n    tag_470:\n        /* \"#utility.yul\":13151:13154   */\n      0x00\n        /* \"#utility.yul\":13172:13255   */\n      tag_629\n        /* \"#utility.yul\":13253:13254   */\n      0x00\n        /* \"#utility.yul\":13248:13251   */\n      dup4\n        /* \"#utility.yul\":13172:13255   */\n      tag_468\n      jump\t// in\n    tag_629:\n        /* \"#utility.yul\":13165:13255   */\n      swap2\n      pop\n        /* \"#utility.yul\":13264:13357   */\n      tag_630\n        /* \"#utility.yul\":13353:13356   */\n      dup3\n        /* \"#utility.yul\":13264:13357   */\n      tag_469\n      jump\t// in\n    tag_630:\n        /* \"#utility.yul\":13382:13383   */\n      0x00\n        /* \"#utility.yul\":13377:13380   */\n      dup3\n        /* \"#utility.yul\":13373:13384   */\n      add\n        /* \"#utility.yul\":13366:13384   */\n      swap1\n      pop\n        /* \"#utility.yul\":12992:13390   */\n      swap2\n      swap1\n      pop\n      jump\t// out\n        /* \"#utility.yul\":13396:13775   */\n    tag_210:\n        /* \"#utility.yul\":13580:13583   */\n      0x00\n        /* \"#utility.yul\":13602:13749   */\n      tag_632\n        /* \"#utility.yul\":13745:13748   */\n      dup3\n        /* \"#utility.yul\":13602:13749   */\n      tag_470\n      jump\t// in\n    tag_632:\n        /* \"#utility.yul\":13595:13749   */\n      swap2\n      pop\n        /* \"#utility.yul\":13766:13769   */\n      dup2\n        /* \"#utility.yul\":13759:13769   */\n      swap1\n      pop\n        /* \"#utility.yul\":13396:13775   */\n      swap2\n      swap1\n      pop\n      jump\t// out\n        /* \"#utility.yul\":13781:14013   */\n    tag_471:\n        /* \"#utility.yul\":13921:13955   */\n      0x4661696c656420746f2073656e6420757365722062616c616e6365206261636b\n        /* \"#utility.yul\":13917:13918   */\n      0x00\n        /* \"#utility.yul\":13909:13915   */\n      dup3\n        /* \"#utility.yul\":13905:13919   */\n      add\n        /* \"#utility.yul\":13898:13956   */\n      mstore\n        /* \"#utility.yul\":13990:14005   */\n      0x20746f20746865206f776e657200000000000000000000000000000000000000\n        /* \"#utility.yul\":13985:13987   */\n      0x20\n        /* \"#utility.yul\":13977:13983   */\n      dup3\n        /* \"#utility.yul\":13973:13988   */\n      add\n        /* \"#utility.yul\":13966:14006   */\n      mstore\n        /* \"#utility.yul\":13781:14013   */\n      pop\n      jump\t// out\n        /* \"#utility.yul\":14019:14385   */\n    tag_472:\n        /* \"#utility.yul\":14161:14164   */\n      0x00\n        /* \"#utility.yul\":14182:14249   */\n      tag_635\n        /* \"#utility.yul\":14246:14248   */\n      0x2d\n        /* \"#utility.yul\":14241:14244   */\n      dup4\n        /* \"#utility.yul\":14182:14249   */\n      tag_461\n      jump\t// in\n    tag_635:\n        /* \"#utility.yul\":14175:14249   */\n      swap2\n      pop\n        /* \"#utility.yul\":14258:14351   */\n      tag_636\n        /* \"#utility.yul\":14347:14350   */\n      dup3\n        /* \"#utility.yul\":14258:14351   */\n      tag_471\n      jump\t// in\n    tag_636:\n        /* \"#utility.yul\":14376:14378   */\n      0x40\n        /* \"#utility.yul\":14371:14374   */\n      dup3\n        /* \"#utility.yul\":14367:14379   */\n      add\n        /* \"#utility.yul\":14360:14379   */\n      swap1\n      pop\n        /* \"#utility.yul\":14019:14385   */\n      swap2\n      swap1\n      pop\n      jump\t// out\n        /* \"#utility.yul\":14391:14810   */\n    tag_216:\n        /* \"#utility.yul\":14557:14561   */\n      0x00\n        /* \"#utility.yul\":14595:14597   */\n      0x20\n        /* \"#utility.yul\":14584:14593   */\n      dup3\n        /* \"#utility.yul\":14580:14598   */\n      add\n        /* \"#utility.yul\":14572:14598   */\n      swap1\n      pop\n        /* \"#utility.yul\":14644:14653   */\n      dup2\n        /* \"#utility.yul\":14638:14642   */\n      dup2\n        /* \"#utility.yul\":14634:14654   */\n      sub\n        /* \"#utility.yul\":14630:14631   */\n      0x00\n        /* \"#utility.yul\":14619:14628   */\n      dup4\n        /* \"#utility.yul\":14615:14632   */\n      add\n        /* \"#utility.yul\":14608:14655   */\n      mstore\n        /* \"#utility.yul\":14672:14803   */\n      tag_638\n        /* \"#utility.yul\":14798:14802   */\n      dup2\n        /* \"#utility.yul\":14672:14803   */\n      tag_472\n      jump\t// in\n    tag_638:\n        /* \"#utility.yul\":14664:14803   */\n      swap1\n      pop\n        /* \"#utility.yul\":14391:14810   */\n      swap2\n      swap1\n      pop\n      jump\t// out\n        /* \"#utility.yul\":14816:14993   */\n    tag_473:\n        /* \"#utility.yul\":14956:14985   */\n      0x53656e642045544820746f2062757920736f6d6520746f6b656e730000000000\n        /* \"#utility.yul\":14952:14953   */\n      0x00\n        /* \"#utility.yul\":14944:14950   */\n      dup3\n        /* \"#utility.yul\":14940:14954   */\n      add\n        /* \"#utility.yul\":14933:14986   */\n      mstore\n        /* \"#utility.yul\":14816:14993   */\n      pop\n      jump\t// out\n        /* \"#utility.yul\":14999:15365   */\n    tag_474:\n        /* \"#utility.yul\":15141:15144   */\n      0x00\n        /* \"#utility.yul\":15162:15229   */\n      tag_641\n        /* \"#utility.yul\":15226:15228   */\n      0x1b\n        /* \"#utility.yul\":15221:15224   */\n      dup4\n        /* \"#utility.yul\":15162:15229   */\n      tag_461\n      jump\t// in\n    tag_641:\n        /* \"#utility.yul\":15155:15229   */\n      swap2\n      pop\n        /* \"#utility.yul\":15238:15331   */\n      tag_642\n        /* \"#utility.yul\":15327:15330   */\n      dup3\n        /* \"#utility.yul\":15238:15331   */\n      tag_473\n      jump\t// in\n    tag_642:\n        /* \"#utility.yul\":15356:15358   */\n      0x20\n        /* \"#utility.yul\":15351:15354   */\n      dup3\n        /* \"#utility.yul\":15347:15359   */\n      add\n        /* \"#utility.yul\":15340:15359   */\n      swap1\n      pop\n        /* \"#utility.yul\":14999:15365   */\n      swap2\n      swap1\n      pop\n      jump\t// out\n        /* \"#utility.yul\":15371:15790   */\n    tag_220:\n        /* \"#utility.yul\":15537:15541   */\n      0x00\n        /* \"#utility.yul\":15575:15577   */\n      0x20\n        /* \"#utility.yul\":15564:15573   */\n      dup3\n        /* \"#utility.yul\":15560:15578   */\n      add\n        /* \"#utility.yul\":15552:15578   */\n      swap1\n      pop\n        /* \"#utility.yul\":15624:15633   */\n      dup2\n        /* \"#utility.yul\":15618:15622   */\n      dup2\n        /* \"#utility.yul\":15614:15634   */\n      sub\n        /* \"#utility.yul\":15610:15611   */\n      0x00\n        /* \"#utility.yul\":15599:15608   */\n      dup4\n        /* \"#utility.yul\":15595:15612   */\n      add\n        /* \"#utility.yul\":15588:15635   */\n      mstore\n        /* \"#utility.yul\":15652:15783   */\n      tag_644\n        /* \"#utility.yul\":15778:15782   */\n      dup2\n        /* \"#utility.yul\":15652:15783   */\n      tag_474\n      jump\t// in\n    tag_644:\n        /* \"#utility.yul\":15644:15783   */\n      swap1\n      pop\n        /* \"#utility.yul\":15371:15790   */\n      swap2\n      swap1\n      pop\n      jump\t// out\n        /* \"#utility.yul\":15796:15968   */\n    tag_475:\n        /* \"#utility.yul\":15936:15960   */\n      0x4f6e6c7920457468657220697320616c6c6f7765642100000000000000000000\n        /* \"#utility.yul\":15932:15933   */\n      0x00\n        /* \"#utility.yul\":15924:15930   */\n      dup3\n        /* \"#utility.yul\":15920:15934   */\n      add\n        /* \"#utility.yul\":15913:15961   */\n      mstore\n        /* \"#utility.yul\":15796:15968   */\n      pop\n      jump\t// out\n        /* \"#utility.yul\":15974:16340   */\n    tag_476:\n        /* \"#utility.yul\":16116:16119   */\n      0x00\n        /* \"#utility.yul\":16137:16204   */\n      tag_647\n        /* \"#utility.yul\":16201:16203   */\n      0x16\n        /* \"#utility.yul\":16196:16199   */\n      dup4\n        /* \"#utility.yul\":16137:16204   */\n      tag_461\n      jump\t// in\n    tag_647:\n        /* \"#utility.yul\":16130:16204   */\n      swap2\n      pop\n        /* \"#utility.yul\":16213:16306   */\n      tag_648\n        /* \"#utility.yul\":16302:16305   */\n      dup3\n        /* \"#utility.yul\":16213:16306   */\n      tag_475\n      jump\t// in\n    tag_648:\n        /* \"#utility.yul\":16331:16333   */\n      0x20\n        /* \"#utility.yul\":16326:16329   */\n      dup3\n        /* \"#utility.yul\":16322:16334   */\n      add\n        /* \"#utility.yul\":16315:16334   */\n      swap1\n      pop\n        /* \"#utility.yul\":15974:16340   */\n      swap2\n      swap1\n      pop\n      jump\t// out\n        /* \"#utility.yul\":16346:16765   */\n    tag_223:\n        /* \"#utility.yul\":16512:16516   */\n      0x00\n        /* \"#utility.yul\":16550:16552   */\n      0x20\n        /* \"#utility.yul\":16539:16548   */\n      dup3\n        /* \"#utility.yul\":16535:16553   */\n      add\n        /* \"#utility.yul\":16527:16553   */\n      swap1\n      pop\n        /* \"#utility.yul\":16599:16608   */\n      dup2\n        /* \"#utility.yul\":16593:16597   */\n      dup2\n        /* \"#utility.yul\":16589:16609   */\n      sub\n        /* \"#utility.yul\":16585:16586   */\n      0x00\n        /* \"#utility.yul\":16574:16583   */\n      dup4\n        /* \"#utility.yul\":16570:16587   */\n      add\n        /* \"#utility.yul\":16563:16610   */\n      mstore\n        /* \"#utility.yul\":16627:16758   */\n      tag_650\n        /* \"#utility.yul\":16753:16757   */\n      dup2\n        /* \"#utility.yul\":16627:16758   */\n      tag_476\n      jump\t// in\n    tag_650:\n        /* \"#utility.yul\":16619:16758   */\n      swap1\n      pop\n        /* \"#utility.yul\":16346:16765   */\n      swap2\n      swap1\n      pop\n      jump\t// out\n        /* \"#utility.yul\":16771:16951   */\n    tag_477:\n        /* \"#utility.yul\":16819:16896   */\n      0x4e487b7100000000000000000000000000000000000000000000000000000000\n        /* \"#utility.yul\":16816:16817   */\n      0x00\n        /* \"#utility.yul\":16809:16897   */\n      mstore\n        /* \"#utility.yul\":16916:16920   */\n      0x11\n        /* \"#utility.yul\":16913:16914   */\n      0x04\n        /* \"#utility.yul\":16906:16921   */\n      mstore\n        /* \"#utility.yul\":16940:16944   */\n      0x24\n        /* \"#utility.yul\":16937:16938   */\n      0x00\n        /* \"#utility.yul\":16930:16945   */\n      revert\n        /* \"#utility.yul\":16957:17367   */\n    tag_225:\n        /* \"#utility.yul\":16997:17004   */\n      0x00\n        /* \"#utility.yul\":17020:17040   */\n      tag_653\n        /* \"#utility.yul\":17038:17039   */\n      dup3\n        /* \"#utility.yul\":17020:17040   */\n      tag_428\n      jump\t// in\n    tag_653:\n        /* \"#utility.yul\":17015:17040   */\n      swap2\n      pop\n        /* \"#utility.yul\":17054:17074   */\n      tag_654\n        /* \"#utility.yul\":17072:17073   */\n      dup4\n        /* \"#utility.yul\":17054:17074   */\n      tag_428\n      jump\t// in\n    tag_654:\n        /* \"#utility.yul\":17049:17074   */\n      swap3\n      pop\n        /* \"#utility.yul\":17109:17110   */\n      dup3\n        /* \"#utility.yul\":17106:17107   */\n      dup3\n        /* \"#utility.yul\":17102:17111   */\n      mul\n        /* \"#utility.yul\":17131:17161   */\n      tag_655\n        /* \"#utility.yul\":17149:17160   */\n      dup2\n        /* \"#utility.yul\":17131:17161   */\n      tag_428\n      jump\t// in\n    tag_655:\n        /* \"#utility.yul\":17120:17161   */\n      swap2\n      pop\n        /* \"#utility.yul\":17310:17311   */\n      dup3\n        /* \"#utility.yul\":17301:17308   */\n      dup3\n        /* \"#utility.yul\":17297:17312   */\n      div\n        /* \"#utility.yul\":17294:17295   */\n      dup5\n        /* \"#utility.yul\":17291:17313   */\n      eq\n        /* \"#utility.yul\":17271:17272   */\n      dup4\n        /* \"#utility.yul\":17264:17273   */\n      iszero\n        /* \"#utility.yul\":17244:17327   */\n      or\n        /* \"#utility.yul\":17221:17360   */\n      tag_656\n      jumpi\n        /* \"#utility.yul\":17340:17358   */\n      tag_657\n      tag_477\n      jump\t// in\n    tag_657:\n        /* \"#utility.yul\":17221:17360   */\n    tag_656:\n        /* \"#utility.yul\":17005:17367   */\n      pop\n        /* \"#utility.yul\":16957:17367   */\n      swap3\n      swap2\n      pop\n      pop\n      jump\t// out\n        /* \"#utility.yul\":17373:17516   */\n    tag_478:\n        /* \"#utility.yul\":17430:17435   */\n      0x00\n        /* \"#utility.yul\":17461:17467   */\n      dup2\n        /* \"#utility.yul\":17455:17468   */\n      mload\n        /* \"#utility.yul\":17446:17468   */\n      swap1\n      pop\n        /* \"#utility.yul\":17477:17510   */\n      tag_659\n        /* \"#utility.yul\":17504:17509   */\n      dup2\n        /* \"#utility.yul\":17477:17510   */\n      tag_441\n      jump\t// in\n    tag_659:\n        /* \"#utility.yul\":17373:17516   */\n      swap3\n      swap2\n      pop\n      pop\n      jump\t// out\n        /* \"#utility.yul\":17522:17873   */\n    tag_230:\n        /* \"#utility.yul\":17592:17598   */\n      0x00\n        /* \"#utility.yul\":17641:17643   */\n      0x20\n        /* \"#utility.yul\":17629:17638   */\n      dup3\n        /* \"#utility.yul\":17620:17627   */\n      dup5\n        /* \"#utility.yul\":17616:17639   */\n      sub\n        /* \"#utility.yul\":17612:17644   */\n      slt\n        /* \"#utility.yul\":17609:17728   */\n      iszero\n      tag_661\n      jumpi\n        /* \"#utility.yul\":17647:17726   */\n      tag_662\n      tag_431\n      jump\t// in\n    tag_662:\n        /* \"#utility.yul\":17609:17728   */\n    tag_661:\n        /* \"#utility.yul\":17767:17768   */\n      0x00\n        /* \"#utility.yul\":17792:17856   */\n      tag_663\n        /* \"#utility.yul\":17848:17855   */\n      dup5\n        /* \"#utility.yul\":17839:17845   */\n      dup3\n        /* \"#utility.yul\":17828:17837   */\n      dup6\n        /* \"#utility.yul\":17824:17846   */\n      add\n        /* \"#utility.yul\":17792:17856   */\n      tag_478\n      jump\t// in\n    tag_663:\n        /* \"#utility.yul\":17782:17856   */\n      swap2\n      pop\n        /* \"#utility.yul\":17738:17866   */\n      pop\n        /* \"#utility.yul\":17522:17873   */\n      swap3\n      swap2\n      pop\n      pop\n      jump\t// out\n        /* \"#utility.yul\":17879:18118   */\n    tag_479:\n        /* \"#utility.yul\":18019:18053   */\n      0x56656e646f7220636f6e747261637420686173206e6f7420656e6f7567682074\n        /* \"#utility.yul\":18015:18016   */\n      0x00\n        /* \"#utility.yul\":18007:18013   */\n      dup3\n        /* \"#utility.yul\":18003:18017   */\n      add\n        /* \"#utility.yul\":17996:18054   */\n      mstore\n        /* \"#utility.yul\":18088:18110   */\n      0x6f6b656e7320696e206974732062616c616e6365000000000000000000000000\n        /* \"#utility.yul\":18083:18085   */\n      0x20\n        /* \"#utility.yul\":18075:18081   */\n      dup3\n        /* \"#utility.yul\":18071:18086   */\n      add\n        /* \"#utility.yul\":18064:18111   */\n      mstore\n        /* \"#utility.yul\":17879:18118   */\n      pop\n      jump\t// out\n        /* \"#utility.yul\":18124:18490   */\n    tag_480:\n        /* \"#utility.yul\":18266:18269   */\n      0x00\n        /* \"#utility.yul\":18287:18354   */\n      tag_666\n        /* \"#utility.yul\":18351:18353   */\n      0x34\n        /* \"#utility.yul\":18346:18349   */\n      dup4\n        /* \"#utility.yul\":18287:18354   */\n      tag_461\n      jump\t// in\n    tag_666:\n        /* \"#utility.yul\":18280:18354   */\n      swap2\n      pop\n        /* \"#utility.yul\":18363:18456   */\n      tag_667\n        /* \"#utility.yul\":18452:18455   */\n      dup3\n        /* \"#utility.yul\":18363:18456   */\n      tag_479\n      jump\t// in\n    tag_667:\n        /* \"#utility.yul\":18481:18483   */\n      0x40\n        /* \"#utility.yul\":18476:18479   */\n      dup3\n        /* \"#utility.yul\":18472:18484   */\n      add\n        /* \"#utility.yul\":18465:18484   */\n      swap1\n      pop\n        /* \"#utility.yul\":18124:18490   */\n      swap2\n      swap1\n      pop\n      jump\t// out\n        /* \"#utility.yul\":18496:18915   */\n    tag_233:\n        /* \"#utility.yul\":18662:18666   */\n      0x00\n        /* \"#utility.yul\":18700:18702   */\n      0x20\n        /* \"#utility.yul\":18689:18698   */\n      dup3\n        /* \"#utility.yul\":18685:18703   */\n      add\n        /* \"#utility.yul\":18677:18703   */\n      swap1\n      pop\n        /* \"#utility.yul\":18749:18758   */\n      dup2\n        /* \"#utility.yul\":18743:18747   */\n      dup2\n        /* \"#utility.yul\":18739:18759   */\n      sub\n        /* \"#utility.yul\":18735:18736   */\n      0x00\n        /* \"#utility.yul\":18724:18733   */\n      dup4\n        /* \"#utility.yul\":18720:18737   */\n      add\n        /* \"#utility.yul\":18713:18760   */\n      mstore\n        /* \"#utility.yul\":18777:18908   */\n      tag_669\n        /* \"#utility.yul\":18903:18907   */\n      dup2\n        /* \"#utility.yul\":18777:18908   */\n      tag_480\n      jump\t// in\n    tag_669:\n        /* \"#utility.yul\":18769:18908   */\n      swap1\n      pop\n        /* \"#utility.yul\":18496:18915   */\n      swap2\n      swap1\n      pop\n      jump\t// out\n        /* \"#utility.yul\":18921:19253   */\n    tag_235:\n        /* \"#utility.yul\":19042:19046   */\n      0x00\n        /* \"#utility.yul\":19080:19082   */\n      0x40\n        /* \"#utility.yul\":19069:19078   */\n      dup3\n        /* \"#utility.yul\":19065:19083   */\n      add\n        /* \"#utility.yul\":19057:19083   */\n      swap1\n      pop\n        /* \"#utility.yul\":19093:19164   */\n      tag_671\n        /* \"#utility.yul\":19161:19162   */\n      0x00\n        /* \"#utility.yul\":19150:19159   */\n      dup4\n        /* \"#utility.yul\":19146:19163   */\n      add\n        /* \"#utility.yul\":19137:19143   */\n      dup6\n        /* \"#utility.yul\":19093:19164   */\n      tag_443\n      jump\t// in\n    tag_671:\n        /* \"#utility.yul\":19174:19246   */\n      tag_672\n        /* \"#utility.yul\":19242:19244   */\n      0x20\n        /* \"#utility.yul\":19231:19240   */\n      dup4\n        /* \"#utility.yul\":19227:19245   */\n      add\n        /* \"#utility.yul\":19218:19224   */\n      dup5\n        /* \"#utility.yul\":19174:19246   */\n      tag_429\n      jump\t// in\n    tag_672:\n        /* \"#utility.yul\":18921:19253   */\n      swap4\n      swap3\n      pop\n      pop\n      pop\n      jump\t// out\n        /* \"#utility.yul\":19259:19396   */\n    tag_481:\n        /* \"#utility.yul\":19313:19318   */\n      0x00\n        /* \"#utility.yul\":19344:19350   */\n      dup2\n        /* \"#utility.yul\":19338:19351   */\n      mload\n        /* \"#utility.yul\":19329:19351   */\n      swap1\n      pop\n        /* \"#utility.yul\":19360:19390   */\n      tag_674\n        /* \"#utility.yul\":19384:19389   */\n      dup2\n        /* \"#utility.yul\":19360:19390   */\n      tag_434\n      jump\t// in\n    tag_674:\n        /* \"#utility.yul\":19259:19396   */\n      swap3\n      swap2\n      pop\n      pop\n      jump\t// out\n        /* \"#utility.yul\":19402:19747   */\n    tag_239:\n        /* \"#utility.yul\":19469:19475   */\n      0x00\n        /* \"#utility.yul\":19518:19520   */\n      0x20\n        /* \"#utility.yul\":19506:19515   */\n      dup3\n        /* \"#utility.yul\":19497:19504   */\n      dup5\n        /* \"#utility.yul\":19493:19516   */\n      sub\n        /* \"#utility.yul\":19489:19521   */\n      slt\n        /* \"#utility.yul\":19486:19605   */\n      iszero\n      tag_676\n      jumpi\n        /* \"#utility.yul\":19524:19603   */\n      tag_677\n      tag_431\n      jump\t// in\n    tag_677:\n        /* \"#utility.yul\":19486:19605   */\n    tag_676:\n        /* \"#utility.yul\":19644:19645   */\n      0x00\n        /* \"#utility.yul\":19669:19730   */\n      tag_678\n        /* \"#utility.yul\":19722:19729   */\n      dup5\n        /* \"#utility.yul\":19713:19719   */\n      dup3\n        /* \"#utility.yul\":19702:19711   */\n      dup6\n        /* \"#utility.yul\":19698:19720   */\n      add\n        /* \"#utility.yul\":19669:19730   */\n      tag_481\n      jump\t// in\n    tag_678:\n        /* \"#utility.yul\":19659:19730   */\n      swap2\n      pop\n        /* \"#utility.yul\":19615:19740   */\n      pop\n        /* \"#utility.yul\":19402:19747   */\n      swap3\n      swap2\n      pop\n      pop\n      jump\t// out\n        /* \"#utility.yul\":19753:19935   */\n    tag_482:\n        /* \"#utility.yul\":19893:19927   */\n      0x4661696c656420746f207472616e7366657220746f6b656e20746f2075736572\n        /* \"#utility.yul\":19889:19890   */\n      0x00\n        /* \"#utility.yul\":19881:19887   */\n      dup3\n        /* \"#utility.yul\":19877:19891   */\n      add\n        /* \"#utility.yul\":19870:19928   */\n      mstore\n        /* \"#utility.yul\":19753:19935   */\n      pop\n      jump\t// out\n        /* \"#utility.yul\":19941:20307   */\n    tag_483:\n        /* \"#utility.yul\":20083:20086   */\n      0x00\n        /* \"#utility.yul\":20104:20171   */\n      tag_681\n        /* \"#utility.yul\":20168:20170   */\n      0x20\n        /* \"#utility.yul\":20163:20166   */\n      dup4\n        /* \"#utility.yul\":20104:20171   */\n      tag_461\n      jump\t// in\n    tag_681:\n        /* \"#utility.yul\":20097:20171   */\n      swap2\n      pop\n        /* \"#utility.yul\":20180:20273   */\n      tag_682\n        /* \"#utility.yul\":20269:20272   */\n      dup3\n        /* \"#utility.yul\":20180:20273   */\n      tag_482\n      jump\t// in\n    tag_682:\n        /* \"#utility.yul\":20298:20300   */\n      0x20\n        /* \"#utility.yul\":20293:20296   */\n      dup3\n        /* \"#utility.yul\":20289:20301   */\n      add\n        /* \"#utility.yul\":20282:20301   */\n      swap1\n      pop\n        /* \"#utility.yul\":19941:20307   */\n      swap2\n      swap1\n      pop\n      jump\t// out\n        /* \"#utility.yul\":20313:20732   */\n    tag_242:\n        /* \"#utility.yul\":20479:20483   */\n      0x00\n        /* \"#utility.yul\":20517:20519   */\n      0x20\n        /* \"#utility.yul\":20506:20515   */\n      dup3\n        /* \"#utility.yul\":20502:20520   */\n      add\n        /* \"#utility.yul\":20494:20520   */\n      swap1\n      pop\n        /* \"#utility.yul\":20566:20575   */\n      dup2\n        /* \"#utility.yul\":20560:20564   */\n      dup2\n        /* \"#utility.yul\":20556:20576   */\n      sub\n        /* \"#utility.yul\":20552:20553   */\n      0x00\n        /* \"#utility.yul\":20541:20550   */\n      dup4\n        /* \"#utility.yul\":20537:20554   */\n      add\n        /* \"#utility.yul\":20530:20577   */\n      mstore\n        /* \"#utility.yul\":20594:20725   */\n      tag_684\n        /* \"#utility.yul\":20720:20724   */\n      dup2\n        /* \"#utility.yul\":20594:20725   */\n      tag_483\n      jump\t// in\n    tag_684:\n        /* \"#utility.yul\":20586:20725   */\n      swap1\n      pop\n        /* \"#utility.yul\":20313:20732   */\n      swap2\n      swap1\n      pop\n      jump\t// out\n        /* \"#utility.yul\":20738:20908   */\n    tag_484:\n        /* \"#utility.yul\":20878:20900   */\n      0x5061757361626c653a206e6f7420706175736564000000000000000000000000\n        /* \"#utility.yul\":20874:20875   */\n      0x00\n        /* \"#utility.yul\":20866:20872   */\n      dup3\n        /* \"#utility.yul\":20862:20876   */\n      add\n        /* \"#utility.yul\":20855:20901   */\n      mstore\n        /* \"#utility.yul\":20738:20908   */\n      pop\n      jump\t// out\n        /* \"#utility.yul\":20914:21280   */\n    tag_485:\n        /* \"#utility.yul\":21056:21059   */\n      0x00\n        /* \"#utility.yul\":21077:21144   */\n      tag_687\n        /* \"#utility.yul\":21141:21143   */\n      0x14\n        /* \"#utility.yul\":21136:21139   */\n      dup4\n        /* \"#utility.yul\":21077:21144   */\n      tag_461\n      jump\t// in\n    tag_687:\n        /* \"#utility.yul\":21070:21144   */\n      swap2\n      pop\n        /* \"#utility.yul\":21153:21246   */\n      tag_688\n        /* \"#utility.yul\":21242:21245   */\n      dup3\n        /* \"#utility.yul\":21153:21246   */\n      tag_484\n      jump\t// in\n    tag_688:\n        /* \"#utility.yul\":21271:21273   */\n      0x20\n        /* \"#utility.yul\":21266:21269   */\n      dup3\n        /* \"#utility.yul\":21262:21274   */\n      add\n        /* \"#utility.yul\":21255:21274   */\n      swap1\n      pop\n        /* \"#utility.yul\":20914:21280   */\n      swap2\n      swap1\n      pop\n      jump\t// out\n        /* \"#utility.yul\":21286:21705   */\n    tag_250:\n        /* \"#utility.yul\":21452:21456   */\n      0x00\n        /* \"#utility.yul\":21490:21492   */\n      0x20\n        /* \"#utility.yul\":21479:21488   */\n      dup3\n        /* \"#utility.yul\":21475:21493   */\n      add\n        /* \"#utility.yul\":21467:21493   */\n      swap1\n      pop\n        /* \"#utility.yul\":21539:21548   */\n      dup2\n        /* \"#utility.yul\":21533:21537   */\n      dup2\n        /* \"#utility.yul\":21529:21549   */\n      sub\n        /* \"#utility.yul\":21525:21526   */\n      0x00\n        /* \"#utility.yul\":21514:21523   */\n      dup4\n        /* \"#utility.yul\":21510:21527   */\n      add\n        /* \"#utility.yul\":21503:21550   */\n      mstore\n        /* \"#utility.yul\":21567:21698   */\n      tag_690\n        /* \"#utility.yul\":21693:21697   */\n      dup2\n        /* \"#utility.yul\":21567:21698   */\n      tag_485\n      jump\t// in\n    tag_690:\n        /* \"#utility.yul\":21559:21698   */\n      swap1\n      pop\n        /* \"#utility.yul\":21286:21705   */\n      swap2\n      swap1\n      pop\n      jump\t// out\n        /* \"#utility.yul\":21711:21877   */\n    tag_486:\n        /* \"#utility.yul\":21851:21869   */\n      0x5061757361626c653a2070617573656400000000000000000000000000000000\n        /* \"#utility.yul\":21847:21848   */\n      0x00\n        /* \"#utility.yul\":21839:21845   */\n      dup3\n        /* \"#utility.yul\":21835:21849   */\n      add\n        /* \"#utility.yul\":21828:21870   */\n      mstore\n        /* \"#utility.yul\":21711:21877   */\n      pop\n      jump\t// out\n        /* \"#utility.yul\":21883:22249   */\n    tag_487:\n        /* \"#utility.yul\":22025:22028   */\n      0x00\n        /* \"#utility.yul\":22046:22113   */\n      tag_693\n        /* \"#utility.yul\":22110:22112   */\n      0x10\n        /* \"#utility.yul\":22105:22108   */\n      dup4\n        /* \"#utility.yul\":22046:22113   */\n      tag_461\n      jump\t// in\n    tag_693:\n        /* \"#utility.yul\":22039:22113   */\n      swap2\n      pop\n        /* \"#utility.yul\":22122:22215   */\n      tag_694\n        /* \"#utility.yul\":22211:22214   */\n      dup3\n        /* \"#utility.yul\":22122:22215   */\n      tag_486\n      jump\t// in\n    tag_694:\n        /* \"#utility.yul\":22240:22242   */\n      0x20\n        /* \"#utility.yul\":22235:22238   */\n      dup3\n        /* \"#utility.yul\":22231:22243   */\n      add\n        /* \"#utility.yul\":22224:22243   */\n      swap1\n      pop\n        /* \"#utility.yul\":21883:22249   */\n      swap2\n      swap1\n      pop\n      jump\t// out\n        /* \"#utility.yul\":22255:22674   */\n    tag_278:\n        /* \"#utility.yul\":22421:22425   */\n      0x00\n        /* \"#utility.yul\":22459:22461   */\n      0x20\n        /* \"#utility.yul\":22448:22457   */\n      dup3\n        /* \"#utility.yul\":22444:22462   */\n      add\n        /* \"#utility.yul\":22436:22462   */\n      swap1\n      pop\n        /* \"#utility.yul\":22508:22517   */\n      dup2\n        /* \"#utility.yul\":22502:22506   */\n      dup2\n        /* \"#utility.yul\":22498:22518   */\n      sub\n        /* \"#utility.yul\":22494:22495   */\n      0x00\n        /* \"#utility.yul\":22483:22492   */\n      dup4\n        /* \"#utility.yul\":22479:22496   */\n      add\n        /* \"#utility.yul\":22472:22519   */\n      mstore\n        /* \"#utility.yul\":22536:22667   */\n      tag_696\n        /* \"#utility.yul\":22662:22666   */\n      dup2\n        /* \"#utility.yul\":22536:22667   */\n      tag_487\n      jump\t// in\n    tag_696:\n        /* \"#utility.yul\":22528:22667   */\n      swap1\n      pop\n        /* \"#utility.yul\":22255:22674   */\n      swap2\n      swap1\n      pop\n      jump\t// out\n        /* \"#utility.yul\":22680:22913   */\n    tag_488:\n        /* \"#utility.yul\":22820:22854   */\n      0x436f6e747261637420696e7374616e63652068617320616c7265616479206265\n        /* \"#utility.yul\":22816:22817   */\n      0x00\n        /* \"#utility.yul\":22808:22814   */\n      dup3\n        /* \"#utility.yul\":22804:22818   */\n      add\n        /* \"#utility.yul\":22797:22855   */\n      mstore\n        /* \"#utility.yul\":22889:22905   */\n      0x656e20696e697469616c697a6564000000000000000000000000000000000000\n        /* \"#utility.yul\":22884:22886   */\n      0x20\n        /* \"#utility.yul\":22876:22882   */\n      dup3\n        /* \"#utility.yul\":22872:22887   */\n      add\n        /* \"#utility.yul\":22865:22906   */\n      mstore\n        /* \"#utility.yul\":22680:22913   */\n      pop\n      jump\t// out\n        /* \"#utility.yul\":22919:23285   */\n    tag_489:\n        /* \"#utility.yul\":23061:23064   */\n      0x00\n        /* \"#utility.yul\":23082:23149   */\n      tag_699\n        /* \"#utility.yul\":23146:23148   */\n      0x2e\n        /* \"#utility.yul\":23141:23144   */\n      dup4\n        /* \"#utility.yul\":23082:23149   */\n      tag_461\n      jump\t// in\n    tag_699:\n        /* \"#utility.yul\":23075:23149   */\n      swap2\n      pop\n        /* \"#utility.yul\":23158:23251   */\n      tag_700\n        /* \"#utility.yul\":23247:23250   */\n      dup3\n        /* \"#utility.yul\":23158:23251   */\n      tag_488\n      jump\t// in\n    tag_700:\n        /* \"#utility.yul\":23276:23278   */\n      0x40\n        /* \"#utility.yul\":23271:23274   */\n      dup3\n        /* \"#utility.yul\":23267:23279   */\n      add\n        /* \"#utility.yul\":23260:23279   */\n      swap1\n      pop\n        /* \"#utility.yul\":22919:23285   */\n      swap2\n      swap1\n      pop\n      jump\t// out\n        /* \"#utility.yul\":23291:23710   */\n    tag_300:\n        /* \"#utility.yul\":23457:23461   */\n      0x00\n        /* \"#utility.yul\":23495:23497   */\n      0x20\n        /* \"#utility.yul\":23484:23493   */\n      dup3\n        /* \"#utility.yul\":23480:23498   */\n      add\n        /* \"#utility.yul\":23472:23498   */\n      swap1\n      pop\n        /* \"#utility.yul\":23544:23553   */\n      dup2\n        /* \"#utility.yul\":23538:23542   */\n      dup2\n        /* \"#utility.yul\":23534:23554   */\n      sub\n        /* \"#utility.yul\":23530:23531   */\n      0x00\n        /* \"#utility.yul\":23519:23528   */\n      dup4\n        /* \"#utility.yul\":23515:23532   */\n      add\n        /* \"#utility.yul\":23508:23555   */\n      mstore\n        /* \"#utility.yul\":23572:23703   */\n      tag_702\n        /* \"#utility.yul\":23698:23702   */\n      dup2\n        /* \"#utility.yul\":23572:23703   */\n      tag_489\n      jump\t// in\n    tag_702:\n        /* \"#utility.yul\":23564:23703   */\n      swap1\n      pop\n        /* \"#utility.yul\":23291:23710   */\n      swap2\n      swap1\n      pop\n      jump\t// out\n        /* \"#utility.yul\":23716:23896   */\n    tag_329:\n        /* \"#utility.yul\":23764:23841   */\n      0x4e487b7100000000000000000000000000000000000000000000000000000000\n        /* \"#utility.yul\":23761:23762   */\n      0x00\n        /* \"#utility.yul\":23754:23842   */\n      mstore\n        /* \"#utility.yul\":23861:23865   */\n      0x41\n        /* \"#utility.yul\":23858:23859   */\n      0x04\n        /* \"#utility.yul\":23851:23866   */\n      mstore\n        /* \"#utility.yul\":23885:23889   */\n      0x24\n        /* \"#utility.yul\":23882:23883   */\n      0x00\n        /* \"#utility.yul\":23875:23890   */\n      revert\n        /* \"#utility.yul\":23902:24082   */\n    tag_338:\n        /* \"#utility.yul\":23950:24027   */\n      0x4e487b7100000000000000000000000000000000000000000000000000000000\n        /* \"#utility.yul\":23947:23948   */\n      0x00\n        /* \"#utility.yul\":23940:24028   */\n      mstore\n        /* \"#utility.yul\":24047:24051   */\n      0x32\n        /* \"#utility.yul\":24044:24045   */\n      0x04\n        /* \"#utility.yul\":24037:24052   */\n      mstore\n        /* \"#utility.yul\":24071:24075   */\n      0x24\n        /* \"#utility.yul\":24068:24069   */\n      0x00\n        /* \"#utility.yul\":24061:24076   */\n      revert\n        /* \"#utility.yul\":24088:24321   */\n    tag_340:\n        /* \"#utility.yul\":24127:24130   */\n      0x00\n        /* \"#utility.yul\":24150:24174   */\n      tag_706\n        /* \"#utility.yul\":24168:24173   */\n      dup3\n        /* \"#utility.yul\":24150:24174   */\n      tag_428\n      jump\t// in\n    tag_706:\n        /* \"#utility.yul\":24141:24174   */\n      swap2\n      pop\n        /* \"#utility.yul\":24196:24262   */\n      0xffffffffffffffffffffffffffffffffffffffffffffffffffffffffffffffff\n        /* \"#utility.yul\":24189:24194   */\n      dup3\n        /* \"#utility.yul\":24186:24263   */\n      sub\n        /* \"#utility.yul\":24183:24286   */\n      tag_707\n      jumpi\n        /* \"#utility.yul\":24266:24284   */\n      tag_708\n      tag_477\n      jump\t// in\n    tag_708:\n        /* \"#utility.yul\":24183:24286   */\n    tag_707:\n        /* \"#utility.yul\":24313:24314   */\n      0x01\n        /* \"#utility.yul\":24306:24311   */\n      dup3\n        /* \"#utility.yul\":24302:24315   */\n      add\n        /* \"#utility.yul\":24295:24315   */\n      swap1\n      pop\n        /* \"#utility.yul\":24088:24321   */\n      swap2\n      swap1\n      pop\n      jump\t// out\n        /* \"#utility.yul\":24327:24503   */\n    tag_490:\n        /* \"#utility.yul\":24467:24495   */\n      0x536166654d6174683a206469766973696f6e206279207a65726f000000000000\n        /* \"#utility.yul\":24463:24464   */\n      0x00\n        /* \"#utility.yul\":24455:24461   */\n      dup3\n        /* \"#utility.yul\":24451:24465   */\n      add\n        /* \"#utility.yul\":24444:24496   */\n      mstore\n        /* \"#utility.yul\":24327:24503   */\n      pop\n      jump\t// out\n        /* \"#utility.yul\":24509:24875   */\n    tag_491:\n        /* \"#utility.yul\":24651:24654   */\n      0x00\n        /* \"#utility.yul\":24672:24739   */\n      tag_711\n        /* \"#utility.yul\":24736:24738   */\n      0x1a\n        /* \"#utility.yul\":24731:24734   */\n      dup4\n        /* \"#utility.yul\":24672:24739   */\n      tag_461\n      jump\t// in\n    tag_711:\n        /* \"#utility.yul\":24665:24739   */\n      swap2\n      pop\n        /* \"#utility.yul\":24748:24841   */\n      tag_712\n        /* \"#utility.yul\":24837:24840   */\n      dup3\n        /* \"#utility.yul\":24748:24841   */\n      tag_490\n      jump\t// in\n    tag_712:\n        /* \"#utility.yul\":24866:24868   */\n      0x20\n        /* \"#utility.yul\":24861:24864   */\n      dup3\n        /* \"#utility.yul\":24857:24869   */\n      add\n        /* \"#utility.yul\":24850:24869   */\n      swap1\n      pop\n        /* \"#utility.yul\":24509:24875   */\n      swap2\n      swap1\n      pop\n      jump\t// out\n        /* \"#utility.yul\":24881:25300   */\n    tag_378:\n        /* \"#utility.yul\":25047:25051   */\n      0x00\n        /* \"#utility.yul\":25085:25087   */\n      0x20\n        /* \"#utility.yul\":25074:25083   */\n      dup3\n        /* \"#utility.yul\":25070:25088   */\n      add\n        /* \"#utility.yul\":25062:25088   */\n      swap1\n      pop\n        /* \"#utility.yul\":25134:25143   */\n      dup2\n        /* \"#utility.yul\":25128:25132   */\n      dup2\n        /* \"#utility.yul\":25124:25144   */\n      sub\n        /* \"#utility.yul\":25120:25121   */\n      0x00\n        /* \"#utility.yul\":25109:25118   */\n      dup4\n        /* \"#utility.yul\":25105:25122   */\n      add\n        /* \"#utility.yul\":25098:25145   */\n      mstore\n        /* \"#utility.yul\":25162:25293   */\n      tag_714\n        /* \"#utility.yul\":25288:25292   */\n      dup2\n        /* \"#utility.yul\":25162:25293   */\n      tag_491\n      jump\t// in\n    tag_714:\n        /* \"#utility.yul\":25154:25293   */\n      swap1\n      pop\n        /* \"#utility.yul\":24881:25300   */\n      swap2\n      swap1\n      pop\n      jump\t// out\n        /* \"#utility.yul\":25306:25486   */\n    tag_492:\n        /* \"#utility.yul\":25354:25431   */\n      0x4e487b7100000000000000000000000000000000000000000000000000000000\n        /* \"#utility.yul\":25351:25352   */\n      0x00\n        /* \"#utility.yul\":25344:25432   */\n      mstore\n        /* \"#utility.yul\":25451:25455   */\n      0x12\n        /* \"#utility.yul\":25448:25449   */\n      0x04\n        /* \"#utility.yul\":25441:25456   */\n      mstore\n        /* \"#utility.yul\":25475:25479   */\n      0x24\n        /* \"#utility.yul\":25472:25473   */\n      0x00\n        /* \"#utility.yul\":25465:25480   */\n      revert\n        /* \"#utility.yul\":25492:25677   */\n    tag_380:\n        /* \"#utility.yul\":25532:25533   */\n      0x00\n        /* \"#utility.yul\":25549:25569   */\n      tag_717\n        /* \"#utility.yul\":25567:25568   */\n      dup3\n        /* \"#utility.yul\":25549:25569   */\n      tag_428\n      jump\t// in\n    tag_717:\n        /* \"#utility.yul\":25544:25569   */\n      swap2\n      pop\n        /* \"#utility.yul\":25583:25603   */\n      tag_718\n        /* \"#utility.yul\":25601:25602   */\n      dup4\n        /* \"#utility.yul\":25583:25603   */\n      tag_428\n      jump\t// in\n    tag_718:\n        /* \"#utility.yul\":25578:25603   */\n      swap3\n      pop\n        /* \"#utility.yul\":25622:25623   */\n      dup3\n        /* \"#utility.yul\":25612:25647   */\n      tag_719\n      jumpi\n        /* \"#utility.yul\":25627:25645   */\n      tag_720\n      tag_492\n      jump\t// in\n    tag_720:\n        /* \"#utility.yul\":25612:25647   */\n    tag_719:\n        /* \"#utility.yul\":25669:25670   */\n      dup3\n        /* \"#utility.yul\":25666:25667   */\n      dup3\n        /* \"#utility.yul\":25662:25671   */\n      div\n        /* \"#utility.yul\":25657:25671   */\n      swap1\n      pop\n        /* \"#utility.yul\":25492:25677   */\n      swap3\n      swap2\n      pop\n      pop\n      jump\t// out\n        /* \"#utility.yul\":25683:25908   */\n    tag_493:\n        /* \"#utility.yul\":25823:25857   */\n      0x4f776e61626c653a206e6577206f776e657220697320746865207a65726f2061\n        /* \"#utility.yul\":25819:25820   */\n      0x00\n        /* \"#utility.yul\":25811:25817   */\n      dup3\n        /* \"#utility.yul\":25807:25821   */\n      add\n        /* \"#utility.yul\":25800:25858   */\n      mstore\n        /* \"#utility.yul\":25892:25900   */\n      0x6464726573730000000000000000000000000000000000000000000000000000\n        /* \"#utility.yul\":25887:25889   */\n      0x20\n        /* \"#utility.yul\":25879:25885   */\n      dup3\n        /* \"#utility.yul\":25875:25890   */\n      add\n        /* \"#utility.yul\":25868:25901   */\n      mstore\n        /* \"#utility.yul\":25683:25908   */\n      pop\n      jump\t// out\n        /* \"#utility.yul\":25914:26280   */\n    tag_494:\n        /* \"#utility.yul\":26056:26059   */\n      0x00\n        /* \"#utility.yul\":26077:26144   */\n      tag_723\n        /* \"#utility.yul\":26141:26143   */\n      0x26\n        /* \"#utility.yul\":26136:26139   */\n      dup4\n        /* \"#utility.yul\":26077:26144   */\n      tag_461\n      jump\t// in\n    tag_723:\n        /* \"#utility.yul\":26070:26144   */\n      swap2\n      pop\n        /* \"#utility.yul\":26153:26246   */\n      tag_724\n        /* \"#utility.yul\":26242:26245   */\n      dup3\n        /* \"#utility.yul\":26153:26246   */\n      tag_493\n      jump\t// in\n    tag_724:\n        /* \"#utility.yul\":26271:26273   */\n      0x40\n        /* \"#utility.yul\":26266:26269   */\n      dup3\n        /* \"#utility.yul\":26262:26274   */\n      add\n        /* \"#utility.yul\":26255:26274   */\n      swap1\n      pop\n        /* \"#utility.yul\":25914:26280   */\n      swap2\n      swap1\n      pop\n      jump\t// out\n        /* \"#utility.yul\":26286:26705   */\n    tag_395:\n        /* \"#utility.yul\":26452:26456   */\n      0x00\n        /* \"#utility.yul\":26490:26492   */\n      0x20\n        /* \"#utility.yul\":26479:26488   */\n      dup3\n        /* \"#utility.yul\":26475:26493   */\n      add\n        /* \"#utility.yul\":26467:26493   */\n      swap1\n      pop\n        /* \"#utility.yul\":26539:26548   */\n      dup2\n        /* \"#utility.yul\":26533:26537   */\n      dup2\n        /* \"#utility.yul\":26529:26549   */\n      sub\n        /* \"#utility.yul\":26525:26526   */\n      0x00\n        /* \"#utility.yul\":26514:26523   */\n      dup4\n        /* \"#utility.yul\":26510:26527   */\n      add\n        /* \"#utility.yul\":26503:26550   */\n      mstore\n        /* \"#utility.yul\":26567:26698   */\n      tag_726\n        /* \"#utility.yul\":26693:26697   */\n      dup2\n        /* \"#utility.yul\":26567:26698   */\n      tag_494\n      jump\t// in\n    tag_726:\n        /* \"#utility.yul\":26559:26698   */\n      swap1\n      pop\n        /* \"#utility.yul\":26286:26705   */\n      swap2\n      swap1\n      pop\n      jump\t// out\n        /* \"#utility.yul\":26711:26905   */\n    tag_399:\n        /* \"#utility.yul\":26751:26755   */\n      0x00\n        /* \"#utility.yul\":26771:26791   */\n      tag_728\n        /* \"#utility.yul\":26789:26790   */\n      dup3\n        /* \"#utility.yul\":26771:26791   */\n      tag_428\n      jump\t// in\n    tag_728:\n        /* \"#utility.yul\":26766:26791   */\n      swap2\n      pop\n        /* \"#utility.yul\":26805:26825   */\n      tag_729\n        /* \"#utility.yul\":26823:26824   */\n      dup4\n        /* \"#utility.yul\":26805:26825   */\n      tag_428\n      jump\t// in\n    tag_729:\n        /* \"#utility.yul\":26800:26825   */\n      swap3\n      pop\n        /* \"#utility.yul\":26849:26850   */\n      dup3\n        /* \"#utility.yul\":26846:26847   */\n      dup3\n        /* \"#utility.yul\":26842:26851   */\n      sub\n        /* \"#utility.yul\":26834:26851   */\n      swap1\n      pop\n        /* \"#utility.yul\":26873:26874   */\n      dup2\n        /* \"#utility.yul\":26867:26871   */\n      dup2\n        /* \"#utility.yul\":26864:26875   */\n      gt\n        /* \"#utility.yul\":26861:26898   */\n      iszero\n      tag_730\n      jumpi\n        /* \"#utility.yul\":26878:26896   */\n      tag_731\n      tag_477\n      jump\t// in\n    tag_731:\n        /* \"#utility.yul\":26861:26898   */\n    tag_730:\n        /* \"#utility.yul\":26711:26905   */\n      swap3\n      swap2\n      pop\n      pop\n      jump\t// out\n        /* \"#utility.yul\":26911:27102   */\n    tag_408:\n        /* \"#utility.yul\":26951:26954   */\n      0x00\n        /* \"#utility.yul\":26970:26990   */\n      tag_733\n        /* \"#utility.yul\":26988:26989   */\n      dup3\n        /* \"#utility.yul\":26970:26990   */\n      tag_428\n      jump\t// in\n    tag_733:\n        /* \"#utility.yul\":26965:26990   */\n      swap2\n      pop\n        /* \"#utility.yul\":27004:27024   */\n      tag_734\n        /* \"#utility.yul\":27022:27023   */\n      dup4\n        /* \"#utility.yul\":27004:27024   */\n      tag_428\n      jump\t// in\n    tag_734:\n        /* \"#utility.yul\":26999:27024   */\n      swap3\n      pop\n        /* \"#utility.yul\":27047:27048   */\n      dup3\n        /* \"#utility.yul\":27044:27045   */\n      dup3\n        /* \"#utility.yul\":27040:27049   */\n      add\n        /* \"#utility.yul\":27033:27049   */\n      swap1\n      pop\n        /* \"#utility.yul\":27068:27071   */\n      dup1\n        /* \"#utility.yul\":27065:27066   */\n      dup3\n        /* \"#utility.yul\":27062:27072   */\n      gt\n        /* \"#utility.yul\":27059:27095   */\n      iszero\n      tag_735\n      jumpi\n        /* \"#utility.yul\":27075:27093   */\n      tag_736\n      tag_477\n      jump\t// in\n    tag_736:\n        /* \"#utility.yul\":27059:27095   */\n    tag_735:\n        /* \"#utility.yul\":26911:27102   */\n      swap3\n      swap2\n      pop\n      pop\n      jump\t// out\n        /* \"#utility.yul\":27108:27288   */\n    tag_411:\n        /* \"#utility.yul\":27156:27233   */\n      0x4e487b7100000000000000000000000000000000000000000000000000000000\n        /* \"#utility.yul\":27153:27154   */\n      0x00\n        /* \"#utility.yul\":27146:27234   */\n      mstore\n        /* \"#utility.yul\":27253:27257   */\n      0x31\n        /* \"#utility.yul\":27250:27251   */\n      0x04\n        /* \"#utility.yul\":27243:27258   */\n      mstore\n        /* \"#utility.yul\":27277:27281   */\n      0x24\n        /* \"#utility.yul\":27274:27275   */\n      0x00\n        /* \"#utility.yul\":27267:27282   */\n      revert\n        /* \"#utility.yul\":27294:27515   */\n    tag_495:\n        /* \"#utility.yul\":27434:27468   */\n      0x456e756d657261626c655365743a20696e646578206f7574206f6620626f756e\n        /* \"#utility.yul\":27430:27431   */\n      0x00\n        /* \"#utility.yul\":27422:27428   */\n      dup3\n        /* \"#utility.yul\":27418:27432   */\n      add\n        /* \"#utility.yul\":27411:27469   */\n      mstore\n        /* \"#utility.yul\":27503:27507   */\n      0x6473000000000000000000000000000000000000000000000000000000000000\n        /* \"#utility.yul\":27498:27500   */\n      0x20\n        /* \"#utility.yul\":27490:27496   */\n      dup3\n        /* \"#utility.yul\":27486:27501   */\n      add\n        /* \"#utility.yul\":27479:27508   */\n      mstore\n        /* \"#utility.yul\":27294:27515   */\n      pop\n      jump\t// out\n        /* \"#utility.yul\":27521:27887   */\n    tag_496:\n        /* \"#utility.yul\":27663:27666   */\n      0x00\n        /* \"#utility.yul\":27684:27751   */\n      tag_740\n        /* \"#utility.yul\":27748:27750   */\n      0x22\n        /* \"#utility.yul\":27743:27746   */\n      dup4\n        /* \"#utility.yul\":27684:27751   */\n      tag_461\n      jump\t// in\n    tag_740:\n        /* \"#utility.yul\":27677:27751   */\n      swap2\n      pop\n        /* \"#utility.yul\":27760:27853   */\n      tag_741\n        /* \"#utility.yul\":27849:27852   */\n      dup3\n        /* \"#utility.yul\":27760:27853   */\n      tag_495\n      jump\t// in\n    tag_741:\n        /* \"#utility.yul\":27878:27880   */\n      0x40\n        /* \"#utility.yul\":27873:27876   */\n      dup3\n        /* \"#utility.yul\":27869:27881   */\n      add\n        /* \"#utility.yul\":27862:27881   */\n      swap1\n      pop\n        /* \"#utility.yul\":27521:27887   */\n      swap2\n      swap1\n      pop\n      jump\t// out\n        /* \"#utility.yul\":27893:28312   */\n    tag_424:\n        /* \"#utility.yul\":28059:28063   */\n      0x00\n        /* \"#utility.yul\":28097:28099   */\n      0x20\n        /* \"#utility.yul\":28086:28095   */\n      dup3\n        /* \"#utility.yul\":28082:28100   */\n      add\n        /* \"#utility.yul\":28074:28100   */\n      swap1\n      pop\n        /* \"#utility.yul\":28146:28155   */\n      dup2\n        /* \"#utility.yul\":28140:28144   */\n      dup2\n        /* \"#utility.yul\":28136:28156   */\n      sub\n        /* \"#utility.yul\":28132:28133   */\n      0x00\n        /* \"#utility.yul\":28121:28130   */\n      dup4\n        /* \"#utility.yul\":28117:28134   */\n      add\n        /* \"#utility.yul\":28110:28157   */\n      mstore\n        /* \"#utility.yul\":28174:28305   */\n      tag_743\n        /* \"#utility.yul\":28300:28304   */\n      dup2\n        /* \"#utility.yul\":28174:28305   */\n      tag_496\n      jump\t// in\n    tag_743:\n        /* \"#utility.yul\":28166:28305   */\n      swap1\n      pop\n        /* \"#utility.yul\":27893:28312   */\n      swap2\n      swap1\n      pop\n      jump\t// out\n\n    auxdata: 0xa264697066735822122008eafcae4a10a36f3c199fbe627f670e72c584802ac77ce05fd1c9307d8542d664736f6c63430008120033\n}\n",
				"bytecode": {
					"linkReferences": {},
					"object": "60806040526014606c5534801561001557600080fd5b506000606860006101000a81548160ff021916908315150217905550612f02806100406000396000f3fe6080604052600436106101dc5760003560e01c80638456cb5911610102578063d0bab5b911610095578063ea39de9811610064578063ea39de98146106ca578063f2fde38b1461070a578063f3ca7b4114610733578063fecf97341461075e57610231565b8063d0bab5b91461062f578063d9f774fc1461064d578063deaa59df14610678578063dfc5d872146106a157610231565b8063921de99b116100d1578063921de99b14610573578063c4d66de81461059e578063c68c4cc5146105c7578063cbdd69b51461060457610231565b80638456cb59146104db5780638b7bf3eb146104f25780638da5cb5b1461051d5780638f32d59b1461054857610231565b80633f4ba83a1161017a5780636cd07154116101495780636cd07154146104455780636f9fb98a14610470578063704802751461049b578063715018a6146104c457610231565b80633f4ba83a146103ad57806351fb012d146103c4578063521eb273146103ef5780635c975abb1461041a57610231565b80632f611f41116101b65780632f611f4114610310578063395a60631461033b5780633ccfd60b146103785780633e70c2f11461038f57610231565b8063052d9e7e146102815780631785f53c146102aa57806324d7806c146102d357610231565b36610231573373ffffffffffffffffffffffffffffffffffffffff167f89c97b8fdda0bc916bf8986e40ebb0c827bbef4b17f09586ce69a696815727de34604051610227919061204b565b60405180910390a2005b3373ffffffffffffffffffffffffffffffffffffffff167f1d01cf726c71f8d8fe63939223b6f641789776dac1dfdc9abbb06e60917845a334604051610277919061204b565b60405180910390a2005b34801561028d57600080fd5b506102a860048036038101906102a391906120a3565b610787565b005b3480156102b657600080fd5b506102d160048036038101906102cc919061212e565b6107ec565b005b3480156102df57600080fd5b506102fa60048036038101906102f5919061212e565b61088e565b604051610307919061216a565b60405180910390f35b34801561031c57600080fd5b506103256108ab565b604051610332919061204b565b60405180910390f35b34801561034757600080fd5b50610362600480360381019061035d91906121b1565b6108b1565b60405161036f919061204b565b60405180910390f35b34801561038457600080fd5b5061038d6108da565b005b610397610a19565b6040516103a4919061204b565b60405180910390f35b3480156103b957600080fd5b506103c2610cb0565b005b3480156103d057600080fd5b506103d9610d9b565b6040516103e6919061216a565b60405180910390f35b3480156103fb57600080fd5b50610404610dae565b60405161041191906121ed565b60405180910390f35b34801561042657600080fd5b5061042f610dd4565b60405161043c919061216a565b60405180910390f35b34801561045157600080fd5b5061045a610deb565b6040516104679190612267565b60405180910390f35b34801561047c57600080fd5b50610485610e11565b604051610492919061204b565b60405180910390f35b3480156104a757600080fd5b506104c260048036038101906104bd919061212e565b610eb4565b005b3480156104d057600080fd5b506104d9610f56565b005b3480156104e757600080fd5b506104f061105e565b005b3480156104fe57600080fd5b5061050761114a565b604051610514919061204b565b60405180910390f35b34801561052957600080fd5b5061053261115b565b60405161053f91906121ed565b60405180910390f35b34801561055457600080fd5b5061055d611185565b60405161056a919061216a565b60405180910390f35b34801561057f57600080fd5b506105886111e4565b604051610595919061204b565b60405180910390f35b3480156105aa57600080fd5b506105c560048036038101906105c0919061212e565b611214565b005b3480156105d357600080fd5b506105ee60048036038101906105e9919061212e565b6113bb565b6040516105fb919061204b565b60405180910390f35b34801561061057600080fd5b50610619611460565b604051610626919061204b565b60405180910390f35b610637611466565b604051610644919061204b565b60405180910390f35b34801561065957600080fd5b5061066261168c565b60405161066f9190612340565b60405180910390f35b34801561068457600080fd5b5061069f600480360381019061069a919061212e565b611771565b005b3480156106ad57600080fd5b506106c860048036038101906106c391906123a0565b611857565b005b3480156106d657600080fd5b506106f160048036038101906106ec919061212e565b611963565b60405161070194939291906123e0565b60405180910390f35b34801561071657600080fd5b50610731600480360381019061072c919061212e565b611993565b005b34801561073f57600080fd5b506107486119e6565b6040516107559190612446565b60405180910390f35b34801561076a57600080fd5b5061078560048036038101906107809190612461565b611a0c565b005b6107903361088e565b6107cf576040517f08c379a00000000000000000000000000000000000000000000000000000000081526004016107c69061254b565b60405180910390fd5b80606960146101000a81548160ff02191690831515021790555050565b6107f4611185565b610833576040517f08c379a000000000000000000000000000000000000000000000000000000000815260040161082a906125b7565b60405180910390fd5b610847816066611b9d90919063ffffffff16565b508073ffffffffffffffffffffffffffffffffffffffff167f753f40ca3312b2408759a67875b367955e7baa221daf08aa3d643d96202ac12b60405160405180910390a250565b60006108a4826066611bcd90919063ffffffff16565b9050919050565b606b5481565b6000806108cf670de0b6b3a764000084611bfd90919063ffffffff16565b905080915050919050565b6108e2611185565b610921576040517f08c379a0000000000000000000000000000000000000000000000000000000008152600401610918906125b7565b60405180910390fd5b600047905060008111610969576040517f08c379a000000000000000000000000000000000000000000000000000000000815260040161096090612649565b60405180910390fd5b60003373ffffffffffffffffffffffffffffffffffffffff164760405161098f9061269a565b60006040518083038185875af1925050503d80600081146109cc576040519150601f19603f3d011682016040523d82523d6000602084013e6109d1565b606091505b5050905080610a15576040517f08c379a0000000000000000000000000000000000000000000000000000000008152600401610a0c90612721565b60405180910390fd5b5050565b6000803411610a5d576040517f08c379a0000000000000000000000000000000000000000000000000000000008152600401610a549061278d565b60405180910390fd5b60008073ffffffffffffffffffffffffffffffffffffffff163373ffffffffffffffffffffffffffffffffffffffff1614610acd576040517f08c379a0000000000000000000000000000000000000000000000000000000008152600401610ac4906127f9565b60405180910390fd5b6000606c5434610add9190612848565b90506000606860019054906101000a900473ffffffffffffffffffffffffffffffffffffffff1673ffffffffffffffffffffffffffffffffffffffff166370a08231306040518263ffffffff1660e01b8152600401610b3c91906121ed565b602060405180830381865afa158015610b59573d6000803e3d6000fd5b505050506040513d601f19601f82011682018060405250810190610b7d919061289f565b905081811015610bc2576040517f08c379a0000000000000000000000000000000000000000000000000000000008152600401610bb99061293e565b60405180910390fd5b6000606860019054906101000a900473ffffffffffffffffffffffffffffffffffffffff1673ffffffffffffffffffffffffffffffffffffffff1663a9059cbb33856040518363ffffffff1660e01b8152600401610c2192919061295e565b6020604051808303816000875af1158015610c40573d6000803e3d6000fd5b505050506040513d601f19601f82011682018060405250810190610c64919061299c565b905080610ca6576040517f08c379a0000000000000000000000000000000000000000000000000000000008152600401610c9d90612a15565b60405180910390fd5b8294505050505090565b610cb93361088e565b610cf8576040517f08c379a0000000000000000000000000000000000000000000000000000000008152600401610cef9061254b565b60405180910390fd5b606860009054906101000a900460ff16610d47576040517f08c379a0000000000000000000000000000000000000000000000000000000008152600401610d3e90612a81565b60405180910390fd5b6000606860006101000a81548160ff0219169083151502179055507f5db9ee0a495bf2e6ff9c91a7834c1ba4fdd244a5e8aa4e537bd38aeae4b073aa33604051610d9191906121ed565b60405180910390a1565b606960149054906101000a900460ff1681565b606a60009054906101000a900473ffffffffffffffffffffffffffffffffffffffff1681565b6000606860009054906101000a900460ff16905090565b606860019054906101000a900473ffffffffffffffffffffffffffffffffffffffff1681565b6000606860019054906101000a900473ffffffffffffffffffffffffffffffffffffffff1673ffffffffffffffffffffffffffffffffffffffff166370a08231306040518263ffffffff1660e01b8152600401610e6e91906121ed565b602060405180830381865afa158015610e8b573d6000803e3d6000fd5b505050506040513d601f19601f82011682018060405250810190610eaf919061289f565b905090565b610ebc611185565b610efb576040517f08c379a0000000000000000000000000000000000000000000000000000000008152600401610ef2906125b7565b60405180910390fd5b610f0f816066611c5590919063ffffffff16565b508073ffffffffffffffffffffffffffffffffffffffff167fad6de4452a631e641cb59902236607946ce9272b9b981f2f80e8d129cb9084ba60405160405180910390a250565b610f5e611185565b610f9d576040517f08c379a0000000000000000000000000000000000000000000000000000000008152600401610f94906125b7565b60405180910390fd5b600073ffffffffffffffffffffffffffffffffffffffff16603360009054906101000a900473ffffffffffffffffffffffffffffffffffffffff1673ffffffffffffffffffffffffffffffffffffffff167f8be0079c531659141344cd1fd0a4f28419497f9722a3daafe3b4186f6b6457e060405160405180910390a36000603360006101000a81548173ffffffffffffffffffffffffffffffffffffffff021916908373ffffffffffffffffffffffffffffffffffffffff160217905550565b6110673361088e565b6110a6576040517f08c379a000000000000000000000000000000000000000000000000000000000815260040161109d9061254b565b60405180910390fd5b606860009054906101000a900460ff16156110f6576040517f08c379a00000000000000000000000000000000000000000000000000000000081526004016110ed90612aed565b60405180910390fd5b6001606860006101000a81548160ff0219169083151502179055507f62e78cea01bee320cd4e420270b5ea74000d11b0c9f74754ebdbfc544b05a2583360405161114091906121ed565b60405180910390a1565b60006111566066611c85565b905090565b6000603360009054906101000a900473ffffffffffffffffffffffffffffffffffffffff16905090565b6000603360009054906101000a900473ffffffffffffffffffffffffffffffffffffffff1673ffffffffffffffffffffffffffffffffffffffff166111c8611c9a565b73ffffffffffffffffffffffffffffffffffffffff1614905090565b6000806111ef610e11565b9050600081111561120b57611203816108b1565b915050611211565b60009150505b90565b600060019054906101000a900460ff16806112335750611232611ca2565b5b80611249575060008054906101000a900460ff16155b611288576040517f08c379a000000000000000000000000000000000000000000000000000000000815260040161127f90612b7f565b60405180910390fd5b60008060019054906101000a900460ff1615905080156112d8576001600060016101000a81548160ff02191690831515021790555060016000806101000a81548160ff0219169083151502179055505b81603360006101000a81548173ffffffffffffffffffffffffffffffffffffffff021916908373ffffffffffffffffffffffffffffffffffffffff160217905550603360009054906101000a900473ffffffffffffffffffffffffffffffffffffffff1673ffffffffffffffffffffffffffffffffffffffff16600073ffffffffffffffffffffffffffffffffffffffff167f8be0079c531659141344cd1fd0a4f28419497f9722a3daafe3b4186f6b6457e060405160405180910390a380156113b75760008060016101000a81548160ff0219169083151502179055505b5050565b6000606860019054906101000a900473ffffffffffffffffffffffffffffffffffffffff1673ffffffffffffffffffffffffffffffffffffffff166370a08231836040518263ffffffff1660e01b815260040161141891906121ed565b602060405180830381865afa158015611435573d6000803e3d6000fd5b505050506040513d601f19601f82011682018060405250810190611459919061289f565b9050919050565b606c5481565b60008034116114aa576040517f08c379a00000000000000000000000000000000000000000000000000000000081526004016114a19061278d565b60405180910390fd5b6000606c54346114ba9190612848565b90506000606860019054906101000a900473ffffffffffffffffffffffffffffffffffffffff1673ffffffffffffffffffffffffffffffffffffffff166370a08231306040518263ffffffff1660e01b815260040161151991906121ed565b602060405180830381865afa158015611536573d6000803e3d6000fd5b505050506040513d601f19601f8201168201806040525081019061155a919061289f565b90508181101561159f576040517f08c379a00000000000000000000000000000000000000000000000000000000081526004016115969061293e565b60405180910390fd5b6000606860019054906101000a900473ffffffffffffffffffffffffffffffffffffffff1673ffffffffffffffffffffffffffffffffffffffff1663a9059cbb33856040518363ffffffff1660e01b81526004016115fe92919061295e565b6020604051808303816000875af115801561161d573d6000803e3d6000fd5b505050506040513d601f19601f82011682018060405250810190611641919061299c565b905080611683576040517f08c379a000000000000000000000000000000000000000000000000000000000815260040161167a90612a15565b60405180910390fd5b82935050505090565b6060600061169a6066611c85565b905060008167ffffffffffffffff8111156116b8576116b7612b9f565b5b6040519080825280602002602001820160405280156116e65781602001602082028036833780820191505090505b50905060005b8281101561176857611708816066611cb990919063ffffffff16565b82828151811061171b5761171a612bce565b5b602002602001019073ffffffffffffffffffffffffffffffffffffffff16908173ffffffffffffffffffffffffffffffffffffffff1681525050808061176090612bfd565b9150506116ec565b50809250505090565b61177a3361088e565b6117b9576040517f08c379a00000000000000000000000000000000000000000000000000000000081526004016117b09061254b565b60405180910390fd5b80606a60006101000a81548173ffffffffffffffffffffffffffffffffffffffff021916908373ffffffffffffffffffffffffffffffffffffffff1602179055503373ffffffffffffffffffffffffffffffffffffffff168173ffffffffffffffffffffffffffffffffffffffff167f8595877311e370fe3ac87d4f6d12473603393f02ac660e68d2e5e3da5adb610c60405160405180910390a350565b6118603361088e565b61189f576040517f08c379a00000000000000000000000000000000000000000000000000000000081526004016118969061254b565b60405180910390fd5b81606960006101000a81548173ffffffffffffffffffffffffffffffffffffffff021916908373ffffffffffffffffffffffffffffffffffffffff16021790555080606960146101000a81548160ff0219169083151502179055503373ffffffffffffffffffffffffffffffffffffffff168273ffffffffffffffffffffffffffffffffffffffff167f864d5a965313dc4bf4fd85bb02b7efff05cb1681cb2c4a4baf0d7e8520fb356c83604051611957919061216a565b60405180910390a35050565b606d6020528060005260406000206000915090508060000154908060010154908060020154908060030154905084565b61199b611185565b6119da576040517f08c379a00000000000000000000000000000000000000000000000000000000081526004016119d1906125b7565b60405180910390fd5b6119e381611cd3565b50565b606960009054906101000a900473ffffffffffffffffffffffffffffffffffffffff1681565b600060019054906101000a900460ff1680611a2b5750611a2a611ca2565b5b80611a41575060008054906101000a900460ff16155b611a80576040517f08c379a0000000000000000000000000000000000000000000000000000000008152600401611a7790612b7f565b60405180910390fd5b60008060019054906101000a900460ff161590508015611ad0576001600060016101000a81548160ff02191690831515021790555060016000806101000a81548160ff0219169083151502179055505b611ad985611214565b83606860016101000a81548173ffffffffffffffffffffffffffffffffffffffff021916908373ffffffffffffffffffffffffffffffffffffffff16021790555082606960006101000a81548173ffffffffffffffffffffffffffffffffffffffff021916908373ffffffffffffffffffffffffffffffffffffffff16021790555081606960146101000a81548160ff0219169083151502179055508015611b965760008060016101000a81548160ff0219169083151502179055505b5050505050565b6000611bc5836000018373ffffffffffffffffffffffffffffffffffffffff1660001b611e02565b905092915050565b6000611bf5836000018373ffffffffffffffffffffffffffffffffffffffff1660001b611f1a565b905092915050565b6000808211611c41576040517f08c379a0000000000000000000000000000000000000000000000000000000008152600401611c3890612c91565b60405180910390fd5b8183611c4d9190612ce0565b905092915050565b6000611c7d836000018373ffffffffffffffffffffffffffffffffffffffff1660001b611f3d565b905092915050565b6000611c9382600001611fad565b9050919050565b600033905090565b6000803090506000813b9050600081149250505090565b6000611cc88360000183611fbe565b60001c905092915050565b600073ffffffffffffffffffffffffffffffffffffffff168173ffffffffffffffffffffffffffffffffffffffff1603611d42576040517f08c379a0000000000000000000000000000000000000000000000000000000008152600401611d3990612d83565b60405180910390fd5b8073ffffffffffffffffffffffffffffffffffffffff16603360009054906101000a900473ffffffffffffffffffffffffffffffffffffffff1673ffffffffffffffffffffffffffffffffffffffff167f8be0079c531659141344cd1fd0a4f28419497f9722a3daafe3b4186f6b6457e060405160405180910390a380603360006101000a81548173ffffffffffffffffffffffffffffffffffffffff021916908373ffffffffffffffffffffffffffffffffffffffff16021790555050565b60008083600101600084815260200190815260200160002054905060008114611f0e576000600182611e349190612da3565b9050600060018660000180549050611e4c9190612da3565b90506000866000018281548110611e6657611e65612bce565b5b9060005260206000200154905080876000018481548110611e8a57611e89612bce565b5b9060005260206000200181905550600183611ea59190612dd7565b8760010160008381526020019081526020016000208190555086600001805480611ed257611ed1612e0b565b5b60019003818190600052602060002001600090559055866001016000878152602001908152602001600020600090556001945050505050611f14565b60009150505b92915050565b600080836001016000848152602001908152602001600020541415905092915050565b6000611f498383611f1a565b611fa2578260000182908060018154018082558091505060019003906000526020600020016000909190919091505582600001805490508360010160008481526020019081526020016000208190555060019050611fa7565b600090505b92915050565b600081600001805490509050919050565b600081836000018054905011612009576040517f08c379a000000000000000000000000000000000000000000000000000000000815260040161200090612eac565b60405180910390fd5b82600001828154811061201f5761201e612bce565b5b9060005260206000200154905092915050565b6000819050919050565b61204581612032565b82525050565b6000602082019050612060600083018461203c565b92915050565b600080fd5b60008115159050919050565b6120808161206b565b811461208b57600080fd5b50565b60008135905061209d81612077565b92915050565b6000602082840312156120b9576120b8612066565b5b60006120c78482850161208e565b91505092915050565b600073ffffffffffffffffffffffffffffffffffffffff82169050919050565b60006120fb826120d0565b9050919050565b61210b816120f0565b811461211657600080fd5b50565b60008135905061212881612102565b92915050565b60006020828403121561214457612143612066565b5b600061215284828501612119565b91505092915050565b6121648161206b565b82525050565b600060208201905061217f600083018461215b565b92915050565b61218e81612032565b811461219957600080fd5b50565b6000813590506121ab81612185565b92915050565b6000602082840312156121c7576121c6612066565b5b60006121d58482850161219c565b91505092915050565b6121e7816120f0565b82525050565b600060208201905061220260008301846121de565b92915050565b6000819050919050565b600061222d612228612223846120d0565b612208565b6120d0565b9050919050565b600061223f82612212565b9050919050565b600061225182612234565b9050919050565b61226181612246565b82525050565b600060208201905061227c6000830184612258565b92915050565b600081519050919050565b600082825260208201905092915050565b6000819050602082019050919050565b6122b7816120f0565b82525050565b60006122c983836122ae565b60208301905092915050565b6000602082019050919050565b60006122ed82612282565b6122f7818561228d565b93506123028361229e565b8060005b8381101561233357815161231a88826122bd565b9750612325836122d5565b925050600181019050612306565b5085935050505092915050565b6000602082019050818103600083015261235a81846122e2565b905092915050565b600061236d826120f0565b9050919050565b61237d81612362565b811461238857600080fd5b50565b60008135905061239a81612374565b92915050565b600080604083850312156123b7576123b6612066565b5b60006123c58582860161238b565b92505060206123d68582860161208e565b9150509250929050565b60006080820190506123f5600083018761203c565b612402602083018661203c565b61240f604083018561203c565b61241c606083018461203c565b95945050505050565b600061243082612234565b9050919050565b61244081612425565b82525050565b600060208201905061245b6000830184612437565b92915050565b6000806000806080858703121561247b5761247a612066565b5b600061248987828801612119565b945050602061249a87828801612119565b93505060406124ab87828801612119565b92505060606124bc8782880161208e565b91505092959194509250565b600082825260208201905092915050565b7f41646d696e69737472617465643a204d73672073656e646572206973206e6f7460008201527f2061646d696e0000000000000000000000000000000000000000000000000000602082015250565b60006125356026836124c8565b9150612540826124d9565b604082019050919050565b6000602082019050818103600083015261256481612528565b9050919050565b7f4f776e61626c653a2063616c6c6572206973206e6f7420746865206f776e6572600082015250565b60006125a16020836124c8565b91506125ac8261256b565b602082019050919050565b600060208201905081810360008301526125d081612594565b9050919050565b7f4f776e657220686173206e6f742062616c616e636520746f207769746864726160008201527f7700000000000000000000000000000000000000000000000000000000000000602082015250565b60006126336021836124c8565b915061263e826125d7565b604082019050919050565b6000602082019050818103600083015261266281612626565b9050919050565b600081905092915050565b50565b6000612684600083612669565b915061268f82612674565b600082019050919050565b60006126a582612677565b9150819050919050565b7f4661696c656420746f2073656e6420757365722062616c616e6365206261636b60008201527f20746f20746865206f776e657200000000000000000000000000000000000000602082015250565b600061270b602d836124c8565b9150612716826126af565b604082019050919050565b6000602082019050818103600083015261273a816126fe565b9050919050565b7f53656e642045544820746f2062757920736f6d6520746f6b656e730000000000600082015250565b6000612777601b836124c8565b915061278282612741565b602082019050919050565b600060208201905081810360008301526127a68161276a565b9050919050565b7f4f6e6c7920457468657220697320616c6c6f7765642100000000000000000000600082015250565b60006127e36016836124c8565b91506127ee826127ad565b602082019050919050565b60006020820190508181036000830152612812816127d6565b9050919050565b7f4e487b7100000000000000000000000000000000000000000000000000000000600052601160045260246000fd5b600061285382612032565b915061285e83612032565b925082820261286c81612032565b9150828204841483151761288357612882612819565b5b5092915050565b60008151905061289981612185565b92915050565b6000602082840312156128b5576128b4612066565b5b60006128c38482850161288a565b91505092915050565b7f56656e646f7220636f6e747261637420686173206e6f7420656e6f756768207460008201527f6f6b656e7320696e206974732062616c616e6365000000000000000000000000602082015250565b60006129286034836124c8565b9150612933826128cc565b604082019050919050565b600060208201905081810360008301526129578161291b565b9050919050565b600060408201905061297360008301856121de565b612980602083018461203c565b9392505050565b60008151905061299681612077565b92915050565b6000602082840312156129b2576129b1612066565b5b60006129c084828501612987565b91505092915050565b7f4661696c656420746f207472616e7366657220746f6b656e20746f2075736572600082015250565b60006129ff6020836124c8565b9150612a0a826129c9565b602082019050919050565b60006020820190508181036000830152612a2e816129f2565b9050919050565b7f5061757361626c653a206e6f7420706175736564000000000000000000000000600082015250565b6000612a6b6014836124c8565b9150612a7682612a35565b602082019050919050565b60006020820190508181036000830152612a9a81612a5e565b9050919050565b7f5061757361626c653a2070617573656400000000000000000000000000000000600082015250565b6000612ad76010836124c8565b9150612ae282612aa1565b602082019050919050565b60006020820190508181036000830152612b0681612aca565b9050919050565b7f436f6e747261637420696e7374616e63652068617320616c726561647920626560008201527f656e20696e697469616c697a6564000000000000000000000000000000000000602082015250565b6000612b69602e836124c8565b9150612b7482612b0d565b604082019050919050565b60006020820190508181036000830152612b9881612b5c565b9050919050565b7f4e487b7100000000000000000000000000000000000000000000000000000000600052604160045260246000fd5b7f4e487b7100000000000000000000000000000000000000000000000000000000600052603260045260246000fd5b6000612c0882612032565b91507fffffffffffffffffffffffffffffffffffffffffffffffffffffffffffffffff8203612c3a57612c39612819565b5b600182019050919050565b7f536166654d6174683a206469766973696f6e206279207a65726f000000000000600082015250565b6000612c7b601a836124c8565b9150612c8682612c45565b602082019050919050565b60006020820190508181036000830152612caa81612c6e565b9050919050565b7f4e487b7100000000000000000000000000000000000000000000000000000000600052601260045260246000fd5b6000612ceb82612032565b9150612cf683612032565b925082612d0657612d05612cb1565b5b828204905092915050565b7f4f776e61626c653a206e6577206f776e657220697320746865207a65726f206160008201527f6464726573730000000000000000000000000000000000000000000000000000602082015250565b6000612d6d6026836124c8565b9150612d7882612d11565b604082019050919050565b60006020820190508181036000830152612d9c81612d60565b9050919050565b6000612dae82612032565b9150612db983612032565b9250828203905081811115612dd157612dd0612819565b5b92915050565b6000612de282612032565b9150612ded83612032565b9250828201905080821115612e0557612e04612819565b5b92915050565b7f4e487b7100000000000000000000000000000000000000000000000000000000600052603160045260246000fd5b7f456e756d657261626c655365743a20696e646578206f7574206f6620626f756e60008201527f6473000000000000000000000000000000000000000000000000000000000000602082015250565b6000612e966022836124c8565b9150612ea182612e3a565b604082019050919050565b60006020820190508181036000830152612ec581612e89565b905091905056fea264697066735822122008eafcae4a10a36f3c199fbe627f670e72c584802ac77ce05fd1c9307d8542d664736f6c63430008120033",
					"opcodes": "PUSH1 0x80 PUSH1 0x40 MSTORE PUSH1 0x14 PUSH1 0x6C SSTORE CALLVALUE DUP1 ISZERO PUSH2 0x15 JUMPI PUSH1 0x0 DUP1 REVERT JUMPDEST POP PUSH1 0x0 PUSH1 0x68 PUSH1 0x0 PUSH2 0x100 EXP DUP2 SLOAD DUP2 PUSH1 0xFF MUL NOT AND SWAP1 DUP4 ISZERO ISZERO MUL OR SWAP1 SSTORE POP PUSH2 0x2F02 DUP1 PUSH2 0x40 PUSH1 0x0 CODECOPY PUSH1 0x0 RETURN INVALID PUSH1 0x80 PUSH1 0x40 MSTORE PUSH1 0x4 CALLDATASIZE LT PUSH2 0x1DC JUMPI PUSH1 0x0 CALLDATALOAD PUSH1 0xE0 SHR DUP1 PUSH4 0x8456CB59 GT PUSH2 0x102 JUMPI DUP1 PUSH4 0xD0BAB5B9 GT PUSH2 0x95 JUMPI DUP1 PUSH4 0xEA39DE98 GT PUSH2 0x64 JUMPI DUP1 PUSH4 0xEA39DE98 EQ PUSH2 0x6CA JUMPI DUP1 PUSH4 0xF2FDE38B EQ PUSH2 0x70A JUMPI DUP1 PUSH4 0xF3CA7B41 EQ PUSH2 0x733 JUMPI DUP1 PUSH4 0xFECF9734 EQ PUSH2 0x75E JUMPI PUSH2 0x231 JUMP JUMPDEST DUP1 PUSH4 0xD0BAB5B9 EQ PUSH2 0x62F JUMPI DUP1 PUSH4 0xD9F774FC EQ PUSH2 0x64D JUMPI DUP1 PUSH4 0xDEAA59DF EQ PUSH2 0x678 JUMPI DUP1 PUSH4 0xDFC5D872 EQ PUSH2 0x6A1 JUMPI PUSH2 0x231 JUMP JUMPDEST DUP1 PUSH4 0x921DE99B GT PUSH2 0xD1 JUMPI DUP1 PUSH4 0x921DE99B EQ PUSH2 0x573 JUMPI DUP1 PUSH4 0xC4D66DE8 EQ PUSH2 0x59E JUMPI DUP1 PUSH4 0xC68C4CC5 EQ PUSH2 0x5C7 JUMPI DUP1 PUSH4 0xCBDD69B5 EQ PUSH2 0x604 JUMPI PUSH2 0x231 JUMP JUMPDEST DUP1 PUSH4 0x8456CB59 EQ PUSH2 0x4DB JUMPI DUP1 PUSH4 0x8B7BF3EB EQ PUSH2 0x4F2 JUMPI DUP1 PUSH4 0x8DA5CB5B EQ PUSH2 0x51D JUMPI DUP1 PUSH4 0x8F32D59B EQ PUSH2 0x548 JUMPI PUSH2 0x231 JUMP JUMPDEST DUP1 PUSH4 0x3F4BA83A GT PUSH2 0x17A JUMPI DUP1 PUSH4 0x6CD07154 GT PUSH2 0x149 JUMPI DUP1 PUSH4 0x6CD07154 EQ PUSH2 0x445 JUMPI DUP1 PUSH4 0x6F9FB98A EQ PUSH2 0x470 JUMPI DUP1 PUSH4 0x70480275 EQ PUSH2 0x49B JUMPI DUP1 PUSH4 0x715018A6 EQ PUSH2 0x4C4 JUMPI PUSH2 0x231 JUMP JUMPDEST DUP1 PUSH4 0x3F4BA83A EQ PUSH2 0x3AD JUMPI DUP1 PUSH4 0x51FB012D EQ PUSH2 0x3C4 JUMPI DUP1 PUSH4 0x521EB273 EQ PUSH2 0x3EF JUMPI DUP1 PUSH4 0x5C975ABB EQ PUSH2 0x41A JUMPI PUSH2 0x231 JUMP JUMPDEST DUP1 PUSH4 0x2F611F41 GT PUSH2 0x1B6 JUMPI DUP1 PUSH4 0x2F611F41 EQ PUSH2 0x310 JUMPI DUP1 PUSH4 0x395A6063 EQ PUSH2 0x33B JUMPI DUP1 PUSH4 0x3CCFD60B EQ PUSH2 0x378 JUMPI DUP1 PUSH4 0x3E70C2F1 EQ PUSH2 0x38F JUMPI PUSH2 0x231 JUMP JUMPDEST DUP1 PUSH4 0x52D9E7E EQ PUSH2 0x281 JUMPI DUP1 PUSH4 0x1785F53C EQ PUSH2 0x2AA JUMPI DUP1 PUSH4 0x24D7806C EQ PUSH2 0x2D3 JUMPI PUSH2 0x231 JUMP JUMPDEST CALLDATASIZE PUSH2 0x231 JUMPI CALLER PUSH20 0xFFFFFFFFFFFFFFFFFFFFFFFFFFFFFFFFFFFFFFFF AND PUSH32 0x89C97B8FDDA0BC916BF8986E40EBB0C827BBEF4B17F09586CE69A696815727DE CALLVALUE PUSH1 0x40 MLOAD PUSH2 0x227 SWAP2 SWAP1 PUSH2 0x204B JUMP JUMPDEST PUSH1 0x40 MLOAD DUP1 SWAP2 SUB SWAP1 LOG2 STOP JUMPDEST CALLER PUSH20 0xFFFFFFFFFFFFFFFFFFFFFFFFFFFFFFFFFFFFFFFF AND PUSH32 0x1D01CF726C71F8D8FE63939223B6F641789776DAC1DFDC9ABBB06E60917845A3 CALLVALUE PUSH1 0x40 MLOAD PUSH2 0x277 SWAP2 SWAP1 PUSH2 0x204B JUMP JUMPDEST PUSH1 0x40 MLOAD DUP1 SWAP2 SUB SWAP1 LOG2 STOP JUMPDEST CALLVALUE DUP1 ISZERO PUSH2 0x28D JUMPI PUSH1 0x0 DUP1 REVERT JUMPDEST POP PUSH2 0x2A8 PUSH1 0x4 DUP1 CALLDATASIZE SUB DUP2 ADD SWAP1 PUSH2 0x2A3 SWAP2 SWAP1 PUSH2 0x20A3 JUMP JUMPDEST PUSH2 0x787 JUMP JUMPDEST STOP JUMPDEST CALLVALUE DUP1 ISZERO PUSH2 0x2B6 JUMPI PUSH1 0x0 DUP1 REVERT JUMPDEST POP PUSH2 0x2D1 PUSH1 0x4 DUP1 CALLDATASIZE SUB DUP2 ADD SWAP1 PUSH2 0x2CC SWAP2 SWAP1 PUSH2 0x212E JUMP JUMPDEST PUSH2 0x7EC JUMP JUMPDEST STOP JUMPDEST CALLVALUE DUP1 ISZERO PUSH2 0x2DF JUMPI PUSH1 0x0 DUP1 REVERT JUMPDEST POP PUSH2 0x2FA PUSH1 0x4 DUP1 CALLDATASIZE SUB DUP2 ADD SWAP1 PUSH2 0x2F5 SWAP2 SWAP1 PUSH2 0x212E JUMP JUMPDEST PUSH2 0x88E JUMP JUMPDEST PUSH1 0x40 MLOAD PUSH2 0x307 SWAP2 SWAP1 PUSH2 0x216A JUMP JUMPDEST PUSH1 0x40 MLOAD DUP1 SWAP2 SUB SWAP1 RETURN JUMPDEST CALLVALUE DUP1 ISZERO PUSH2 0x31C JUMPI PUSH1 0x0 DUP1 REVERT JUMPDEST POP PUSH2 0x325 PUSH2 0x8AB JUMP JUMPDEST PUSH1 0x40 MLOAD PUSH2 0x332 SWAP2 SWAP1 PUSH2 0x204B JUMP JUMPDEST PUSH1 0x40 MLOAD DUP1 SWAP2 SUB SWAP1 RETURN JUMPDEST CALLVALUE DUP1 ISZERO PUSH2 0x347 JUMPI PUSH1 0x0 DUP1 REVERT JUMPDEST POP PUSH2 0x362 PUSH1 0x4 DUP1 CALLDATASIZE SUB DUP2 ADD SWAP1 PUSH2 0x35D SWAP2 SWAP1 PUSH2 0x21B1 JUMP JUMPDEST PUSH2 0x8B1 JUMP JUMPDEST PUSH1 0x40 MLOAD PUSH2 0x36F SWAP2 SWAP1 PUSH2 0x204B JUMP JUMPDEST PUSH1 0x40 MLOAD DUP1 SWAP2 SUB SWAP1 RETURN JUMPDEST CALLVALUE DUP1 ISZERO PUSH2 0x384 JUMPI PUSH1 0x0 DUP1 REVERT JUMPDEST POP PUSH2 0x38D PUSH2 0x8DA JUMP JUMPDEST STOP JUMPDEST PUSH2 0x397 PUSH2 0xA19 JUMP JUMPDEST PUSH1 0x40 MLOAD PUSH2 0x3A4 SWAP2 SWAP1 PUSH2 0x204B JUMP JUMPDEST PUSH1 0x40 MLOAD DUP1 SWAP2 SUB SWAP1 RETURN JUMPDEST CALLVALUE DUP1 ISZERO PUSH2 0x3B9 JUMPI PUSH1 0x0 DUP1 REVERT JUMPDEST POP PUSH2 0x3C2 PUSH2 0xCB0 JUMP JUMPDEST STOP JUMPDEST CALLVALUE DUP1 ISZERO PUSH2 0x3D0 JUMPI PUSH1 0x0 DUP1 REVERT JUMPDEST POP PUSH2 0x3D9 PUSH2 0xD9B JUMP JUMPDEST PUSH1 0x40 MLOAD PUSH2 0x3E6 SWAP2 SWAP1 PUSH2 0x216A JUMP JUMPDEST PUSH1 0x40 MLOAD DUP1 SWAP2 SUB SWAP1 RETURN JUMPDEST CALLVALUE DUP1 ISZERO PUSH2 0x3FB JUMPI PUSH1 0x0 DUP1 REVERT JUMPDEST POP PUSH2 0x404 PUSH2 0xDAE JUMP JUMPDEST PUSH1 0x40 MLOAD PUSH2 0x411 SWAP2 SWAP1 PUSH2 0x21ED JUMP JUMPDEST PUSH1 0x40 MLOAD DUP1 SWAP2 SUB SWAP1 RETURN JUMPDEST CALLVALUE DUP1 ISZERO PUSH2 0x426 JUMPI PUSH1 0x0 DUP1 REVERT JUMPDEST POP PUSH2 0x42F PUSH2 0xDD4 JUMP JUMPDEST PUSH1 0x40 MLOAD PUSH2 0x43C SWAP2 SWAP1 PUSH2 0x216A JUMP JUMPDEST PUSH1 0x40 MLOAD DUP1 SWAP2 SUB SWAP1 RETURN JUMPDEST CALLVALUE DUP1 ISZERO PUSH2 0x451 JUMPI PUSH1 0x0 DUP1 REVERT JUMPDEST POP PUSH2 0x45A PUSH2 0xDEB JUMP JUMPDEST PUSH1 0x40 MLOAD PUSH2 0x467 SWAP2 SWAP1 PUSH2 0x2267 JUMP JUMPDEST PUSH1 0x40 MLOAD DUP1 SWAP2 SUB SWAP1 RETURN JUMPDEST CALLVALUE DUP1 ISZERO PUSH2 0x47C JUMPI PUSH1 0x0 DUP1 REVERT JUMPDEST POP PUSH2 0x485 PUSH2 0xE11 JUMP JUMPDEST PUSH1 0x40 MLOAD PUSH2 0x492 SWAP2 SWAP1 PUSH2 0x204B JUMP JUMPDEST PUSH1 0x40 MLOAD DUP1 SWAP2 SUB SWAP1 RETURN JUMPDEST CALLVALUE DUP1 ISZERO PUSH2 0x4A7 JUMPI PUSH1 0x0 DUP1 REVERT JUMPDEST POP PUSH2 0x4C2 PUSH1 0x4 DUP1 CALLDATASIZE SUB DUP2 ADD SWAP1 PUSH2 0x4BD SWAP2 SWAP1 PUSH2 0x212E JUMP JUMPDEST PUSH2 0xEB4 JUMP JUMPDEST STOP JUMPDEST CALLVALUE DUP1 ISZERO PUSH2 0x4D0 JUMPI PUSH1 0x0 DUP1 REVERT JUMPDEST POP PUSH2 0x4D9 PUSH2 0xF56 JUMP JUMPDEST STOP JUMPDEST CALLVALUE DUP1 ISZERO PUSH2 0x4E7 JUMPI PUSH1 0x0 DUP1 REVERT JUMPDEST POP PUSH2 0x4F0 PUSH2 0x105E JUMP JUMPDEST STOP JUMPDEST CALLVALUE DUP1 ISZERO PUSH2 0x4FE JUMPI PUSH1 0x0 DUP1 REVERT JUMPDEST POP PUSH2 0x507 PUSH2 0x114A JUMP JUMPDEST PUSH1 0x40 MLOAD PUSH2 0x514 SWAP2 SWAP1 PUSH2 0x204B JUMP JUMPDEST PUSH1 0x40 MLOAD DUP1 SWAP2 SUB SWAP1 RETURN JUMPDEST CALLVALUE DUP1 ISZERO PUSH2 0x529 JUMPI PUSH1 0x0 DUP1 REVERT JUMPDEST POP PUSH2 0x532 PUSH2 0x115B JUMP JUMPDEST PUSH1 0x40 MLOAD PUSH2 0x53F SWAP2 SWAP1 PUSH2 0x21ED JUMP JUMPDEST PUSH1 0x40 MLOAD DUP1 SWAP2 SUB SWAP1 RETURN JUMPDEST CALLVALUE DUP1 ISZERO PUSH2 0x554 JUMPI PUSH1 0x0 DUP1 REVERT JUMPDEST POP PUSH2 0x55D PUSH2 0x1185 JUMP JUMPDEST PUSH1 0x40 MLOAD PUSH2 0x56A SWAP2 SWAP1 PUSH2 0x216A JUMP JUMPDEST PUSH1 0x40 MLOAD DUP1 SWAP2 SUB SWAP1 RETURN JUMPDEST CALLVALUE DUP1 ISZERO PUSH2 0x57F JUMPI PUSH1 0x0 DUP1 REVERT JUMPDEST POP PUSH2 0x588 PUSH2 0x11E4 JUMP JUMPDEST PUSH1 0x40 MLOAD PUSH2 0x595 SWAP2 SWAP1 PUSH2 0x204B JUMP JUMPDEST PUSH1 0x40 MLOAD DUP1 SWAP2 SUB SWAP1 RETURN JUMPDEST CALLVALUE DUP1 ISZERO PUSH2 0x5AA JUMPI PUSH1 0x0 DUP1 REVERT JUMPDEST POP PUSH2 0x5C5 PUSH1 0x4 DUP1 CALLDATASIZE SUB DUP2 ADD SWAP1 PUSH2 0x5C0 SWAP2 SWAP1 PUSH2 0x212E JUMP JUMPDEST PUSH2 0x1214 JUMP JUMPDEST STOP JUMPDEST CALLVALUE DUP1 ISZERO PUSH2 0x5D3 JUMPI PUSH1 0x0 DUP1 REVERT JUMPDEST POP PUSH2 0x5EE PUSH1 0x4 DUP1 CALLDATASIZE SUB DUP2 ADD SWAP1 PUSH2 0x5E9 SWAP2 SWAP1 PUSH2 0x212E JUMP JUMPDEST PUSH2 0x13BB JUMP JUMPDEST PUSH1 0x40 MLOAD PUSH2 0x5FB SWAP2 SWAP1 PUSH2 0x204B JUMP JUMPDEST PUSH1 0x40 MLOAD DUP1 SWAP2 SUB SWAP1 RETURN JUMPDEST CALLVALUE DUP1 ISZERO PUSH2 0x610 JUMPI PUSH1 0x0 DUP1 REVERT JUMPDEST POP PUSH2 0x619 PUSH2 0x1460 JUMP JUMPDEST PUSH1 0x40 MLOAD PUSH2 0x626 SWAP2 SWAP1 PUSH2 0x204B JUMP JUMPDEST PUSH1 0x40 MLOAD DUP1 SWAP2 SUB SWAP1 RETURN JUMPDEST PUSH2 0x637 PUSH2 0x1466 JUMP JUMPDEST PUSH1 0x40 MLOAD PUSH2 0x644 SWAP2 SWAP1 PUSH2 0x204B JUMP JUMPDEST PUSH1 0x40 MLOAD DUP1 SWAP2 SUB SWAP1 RETURN JUMPDEST CALLVALUE DUP1 ISZERO PUSH2 0x659 JUMPI PUSH1 0x0 DUP1 REVERT JUMPDEST POP PUSH2 0x662 PUSH2 0x168C JUMP JUMPDEST PUSH1 0x40 MLOAD PUSH2 0x66F SWAP2 SWAP1 PUSH2 0x2340 JUMP JUMPDEST PUSH1 0x40 MLOAD DUP1 SWAP2 SUB SWAP1 RETURN JUMPDEST CALLVALUE DUP1 ISZERO PUSH2 0x684 JUMPI PUSH1 0x0 DUP1 REVERT JUMPDEST POP PUSH2 0x69F PUSH1 0x4 DUP1 CALLDATASIZE SUB DUP2 ADD SWAP1 PUSH2 0x69A SWAP2 SWAP1 PUSH2 0x212E JUMP JUMPDEST PUSH2 0x1771 JUMP JUMPDEST STOP JUMPDEST CALLVALUE DUP1 ISZERO PUSH2 0x6AD JUMPI PUSH1 0x0 DUP1 REVERT JUMPDEST POP PUSH2 0x6C8 PUSH1 0x4 DUP1 CALLDATASIZE SUB DUP2 ADD SWAP1 PUSH2 0x6C3 SWAP2 SWAP1 PUSH2 0x23A0 JUMP JUMPDEST PUSH2 0x1857 JUMP JUMPDEST STOP JUMPDEST CALLVALUE DUP1 ISZERO PUSH2 0x6D6 JUMPI PUSH1 0x0 DUP1 REVERT JUMPDEST POP PUSH2 0x6F1 PUSH1 0x4 DUP1 CALLDATASIZE SUB DUP2 ADD SWAP1 PUSH2 0x6EC SWAP2 SWAP1 PUSH2 0x212E JUMP JUMPDEST PUSH2 0x1963 JUMP JUMPDEST PUSH1 0x40 MLOAD PUSH2 0x701 SWAP5 SWAP4 SWAP3 SWAP2 SWAP1 PUSH2 0x23E0 JUMP JUMPDEST PUSH1 0x40 MLOAD DUP1 SWAP2 SUB SWAP1 RETURN JUMPDEST CALLVALUE DUP1 ISZERO PUSH2 0x716 JUMPI PUSH1 0x0 DUP1 REVERT JUMPDEST POP PUSH2 0x731 PUSH1 0x4 DUP1 CALLDATASIZE SUB DUP2 ADD SWAP1 PUSH2 0x72C SWAP2 SWAP1 PUSH2 0x212E JUMP JUMPDEST PUSH2 0x1993 JUMP JUMPDEST STOP JUMPDEST CALLVALUE DUP1 ISZERO PUSH2 0x73F JUMPI PUSH1 0x0 DUP1 REVERT JUMPDEST POP PUSH2 0x748 PUSH2 0x19E6 JUMP JUMPDEST PUSH1 0x40 MLOAD PUSH2 0x755 SWAP2 SWAP1 PUSH2 0x2446 JUMP JUMPDEST PUSH1 0x40 MLOAD DUP1 SWAP2 SUB SWAP1 RETURN JUMPDEST CALLVALUE DUP1 ISZERO PUSH2 0x76A JUMPI PUSH1 0x0 DUP1 REVERT JUMPDEST POP PUSH2 0x785 PUSH1 0x4 DUP1 CALLDATASIZE SUB DUP2 ADD SWAP1 PUSH2 0x780 SWAP2 SWAP1 PUSH2 0x2461 JUMP JUMPDEST PUSH2 0x1A0C JUMP JUMPDEST STOP JUMPDEST PUSH2 0x790 CALLER PUSH2 0x88E JUMP JUMPDEST PUSH2 0x7CF JUMPI PUSH1 0x40 MLOAD PUSH32 0x8C379A000000000000000000000000000000000000000000000000000000000 DUP2 MSTORE PUSH1 0x4 ADD PUSH2 0x7C6 SWAP1 PUSH2 0x254B JUMP JUMPDEST PUSH1 0x40 MLOAD DUP1 SWAP2 SUB SWAP1 REVERT JUMPDEST DUP1 PUSH1 0x69 PUSH1 0x14 PUSH2 0x100 EXP DUP2 SLOAD DUP2 PUSH1 0xFF MUL NOT AND SWAP1 DUP4 ISZERO ISZERO MUL OR SWAP1 SSTORE POP POP JUMP JUMPDEST PUSH2 0x7F4 PUSH2 0x1185 JUMP JUMPDEST PUSH2 0x833 JUMPI PUSH1 0x40 MLOAD PUSH32 0x8C379A000000000000000000000000000000000000000000000000000000000 DUP2 MSTORE PUSH1 0x4 ADD PUSH2 0x82A SWAP1 PUSH2 0x25B7 JUMP JUMPDEST PUSH1 0x40 MLOAD DUP1 SWAP2 SUB SWAP1 REVERT JUMPDEST PUSH2 0x847 DUP2 PUSH1 0x66 PUSH2 0x1B9D SWAP1 SWAP2 SWAP1 PUSH4 0xFFFFFFFF AND JUMP JUMPDEST POP DUP1 PUSH20 0xFFFFFFFFFFFFFFFFFFFFFFFFFFFFFFFFFFFFFFFF AND PUSH32 0x753F40CA3312B2408759A67875B367955E7BAA221DAF08AA3D643D96202AC12B PUSH1 0x40 MLOAD PUSH1 0x40 MLOAD DUP1 SWAP2 SUB SWAP1 LOG2 POP JUMP JUMPDEST PUSH1 0x0 PUSH2 0x8A4 DUP3 PUSH1 0x66 PUSH2 0x1BCD SWAP1 SWAP2 SWAP1 PUSH4 0xFFFFFFFF AND JUMP JUMPDEST SWAP1 POP SWAP2 SWAP1 POP JUMP JUMPDEST PUSH1 0x6B SLOAD DUP2 JUMP JUMPDEST PUSH1 0x0 DUP1 PUSH2 0x8CF PUSH8 0xDE0B6B3A7640000 DUP5 PUSH2 0x1BFD SWAP1 SWAP2 SWAP1 PUSH4 0xFFFFFFFF AND JUMP JUMPDEST SWAP1 POP DUP1 SWAP2 POP POP SWAP2 SWAP1 POP JUMP JUMPDEST PUSH2 0x8E2 PUSH2 0x1185 JUMP JUMPDEST PUSH2 0x921 JUMPI PUSH1 0x40 MLOAD PUSH32 0x8C379A000000000000000000000000000000000000000000000000000000000 DUP2 MSTORE PUSH1 0x4 ADD PUSH2 0x918 SWAP1 PUSH2 0x25B7 JUMP JUMPDEST PUSH1 0x40 MLOAD DUP1 SWAP2 SUB SWAP1 REVERT JUMPDEST PUSH1 0x0 SELFBALANCE SWAP1 POP PUSH1 0x0 DUP2 GT PUSH2 0x969 JUMPI PUSH1 0x40 MLOAD PUSH32 0x8C379A000000000000000000000000000000000000000000000000000000000 DUP2 MSTORE PUSH1 0x4 ADD PUSH2 0x960 SWAP1 PUSH2 0x2649 JUMP JUMPDEST PUSH1 0x40 MLOAD DUP1 SWAP2 SUB SWAP1 REVERT JUMPDEST PUSH1 0x0 CALLER PUSH20 0xFFFFFFFFFFFFFFFFFFFFFFFFFFFFFFFFFFFFFFFF AND SELFBALANCE PUSH1 0x40 MLOAD PUSH2 0x98F SWAP1 PUSH2 0x269A JUMP JUMPDEST PUSH1 0x0 PUSH1 0x40 MLOAD DUP1 DUP4 SUB DUP2 DUP6 DUP8 GAS CALL SWAP3 POP POP POP RETURNDATASIZE DUP1 PUSH1 0x0 DUP2 EQ PUSH2 0x9CC JUMPI PUSH1 0x40 MLOAD SWAP2 POP PUSH1 0x1F NOT PUSH1 0x3F RETURNDATASIZE ADD AND DUP3 ADD PUSH1 0x40 MSTORE RETURNDATASIZE DUP3 MSTORE RETURNDATASIZE PUSH1 0x0 PUSH1 0x20 DUP5 ADD RETURNDATACOPY PUSH2 0x9D1 JUMP JUMPDEST PUSH1 0x60 SWAP2 POP JUMPDEST POP POP SWAP1 POP DUP1 PUSH2 0xA15 JUMPI PUSH1 0x40 MLOAD PUSH32 0x8C379A000000000000000000000000000000000000000000000000000000000 DUP2 MSTORE PUSH1 0x4 ADD PUSH2 0xA0C SWAP1 PUSH2 0x2721 JUMP JUMPDEST PUSH1 0x40 MLOAD DUP1 SWAP2 SUB SWAP1 REVERT JUMPDEST POP POP JUMP JUMPDEST PUSH1 0x0 DUP1 CALLVALUE GT PUSH2 0xA5D JUMPI PUSH1 0x40 MLOAD PUSH32 0x8C379A000000000000000000000000000000000000000000000000000000000 DUP2 MSTORE PUSH1 0x4 ADD PUSH2 0xA54 SWAP1 PUSH2 0x278D JUMP JUMPDEST PUSH1 0x40 MLOAD DUP1 SWAP2 SUB SWAP1 REVERT JUMPDEST PUSH1 0x0 DUP1 PUSH20 0xFFFFFFFFFFFFFFFFFFFFFFFFFFFFFFFFFFFFFFFF AND CALLER PUSH20 0xFFFFFFFFFFFFFFFFFFFFFFFFFFFFFFFFFFFFFFFF AND EQ PUSH2 0xACD JUMPI PUSH1 0x40 MLOAD PUSH32 0x8C379A000000000000000000000000000000000000000000000000000000000 DUP2 MSTORE PUSH1 0x4 ADD PUSH2 0xAC4 SWAP1 PUSH2 0x27F9 JUMP JUMPDEST PUSH1 0x40 MLOAD DUP1 SWAP2 SUB SWAP1 REVERT JUMPDEST PUSH1 0x0 PUSH1 0x6C SLOAD CALLVALUE PUSH2 0xADD SWAP2 SWAP1 PUSH2 0x2848 JUMP JUMPDEST SWAP1 POP PUSH1 0x0 PUSH1 0x68 PUSH1 0x1 SWAP1 SLOAD SWAP1 PUSH2 0x100 EXP SWAP1 DIV PUSH20 0xFFFFFFFFFFFFFFFFFFFFFFFFFFFFFFFFFFFFFFFF AND PUSH20 0xFFFFFFFFFFFFFFFFFFFFFFFFFFFFFFFFFFFFFFFF AND PUSH4 0x70A08231 ADDRESS PUSH1 0x40 MLOAD DUP3 PUSH4 0xFFFFFFFF AND PUSH1 0xE0 SHL DUP2 MSTORE PUSH1 0x4 ADD PUSH2 0xB3C SWAP2 SWAP1 PUSH2 0x21ED JUMP JUMPDEST PUSH1 0x20 PUSH1 0x40 MLOAD DUP1 DUP4 SUB DUP2 DUP7 GAS STATICCALL ISZERO DUP1 ISZERO PUSH2 0xB59 JUMPI RETURNDATASIZE PUSH1 0x0 DUP1 RETURNDATACOPY RETURNDATASIZE PUSH1 0x0 REVERT JUMPDEST POP POP POP POP PUSH1 0x40 MLOAD RETURNDATASIZE PUSH1 0x1F NOT PUSH1 0x1F DUP3 ADD AND DUP3 ADD DUP1 PUSH1 0x40 MSTORE POP DUP2 ADD SWAP1 PUSH2 0xB7D SWAP2 SWAP1 PUSH2 0x289F JUMP JUMPDEST SWAP1 POP DUP2 DUP2 LT ISZERO PUSH2 0xBC2 JUMPI PUSH1 0x40 MLOAD PUSH32 0x8C379A000000000000000000000000000000000000000000000000000000000 DUP2 MSTORE PUSH1 0x4 ADD PUSH2 0xBB9 SWAP1 PUSH2 0x293E JUMP JUMPDEST PUSH1 0x40 MLOAD DUP1 SWAP2 SUB SWAP1 REVERT JUMPDEST PUSH1 0x0 PUSH1 0x68 PUSH1 0x1 SWAP1 SLOAD SWAP1 PUSH2 0x100 EXP SWAP1 DIV PUSH20 0xFFFFFFFFFFFFFFFFFFFFFFFFFFFFFFFFFFFFFFFF AND PUSH20 0xFFFFFFFFFFFFFFFFFFFFFFFFFFFFFFFFFFFFFFFF AND PUSH4 0xA9059CBB CALLER DUP6 PUSH1 0x40 MLOAD DUP4 PUSH4 0xFFFFFFFF AND PUSH1 0xE0 SHL DUP2 MSTORE PUSH1 0x4 ADD PUSH2 0xC21 SWAP3 SWAP2 SWAP1 PUSH2 0x295E JUMP JUMPDEST PUSH1 0x20 PUSH1 0x40 MLOAD DUP1 DUP4 SUB DUP2 PUSH1 0x0 DUP8 GAS CALL ISZERO DUP1 ISZERO PUSH2 0xC40 JUMPI RETURNDATASIZE PUSH1 0x0 DUP1 RETURNDATACOPY RETURNDATASIZE PUSH1 0x0 REVERT JUMPDEST POP POP POP POP PUSH1 0x40 MLOAD RETURNDATASIZE PUSH1 0x1F NOT PUSH1 0x1F DUP3 ADD AND DUP3 ADD DUP1 PUSH1 0x40 MSTORE POP DUP2 ADD SWAP1 PUSH2 0xC64 SWAP2 SWAP1 PUSH2 0x299C JUMP JUMPDEST SWAP1 POP DUP1 PUSH2 0xCA6 JUMPI PUSH1 0x40 MLOAD PUSH32 0x8C379A000000000000000000000000000000000000000000000000000000000 DUP2 MSTORE PUSH1 0x4 ADD PUSH2 0xC9D SWAP1 PUSH2 0x2A15 JUMP JUMPDEST PUSH1 0x40 MLOAD DUP1 SWAP2 SUB SWAP1 REVERT JUMPDEST DUP3 SWAP5 POP POP POP POP POP SWAP1 JUMP JUMPDEST PUSH2 0xCB9 CALLER PUSH2 0x88E JUMP JUMPDEST PUSH2 0xCF8 JUMPI PUSH1 0x40 MLOAD PUSH32 0x8C379A000000000000000000000000000000000000000000000000000000000 DUP2 MSTORE PUSH1 0x4 ADD PUSH2 0xCEF SWAP1 PUSH2 0x254B JUMP JUMPDEST PUSH1 0x40 MLOAD DUP1 SWAP2 SUB SWAP1 REVERT JUMPDEST PUSH1 0x68 PUSH1 0x0 SWAP1 SLOAD SWAP1 PUSH2 0x100 EXP SWAP1 DIV PUSH1 0xFF AND PUSH2 0xD47 JUMPI PUSH1 0x40 MLOAD PUSH32 0x8C379A000000000000000000000000000000000000000000000000000000000 DUP2 MSTORE PUSH1 0x4 ADD PUSH2 0xD3E SWAP1 PUSH2 0x2A81 JUMP JUMPDEST PUSH1 0x40 MLOAD DUP1 SWAP2 SUB SWAP1 REVERT JUMPDEST PUSH1 0x0 PUSH1 0x68 PUSH1 0x0 PUSH2 0x100 EXP DUP2 SLOAD DUP2 PUSH1 0xFF MUL NOT AND SWAP1 DUP4 ISZERO ISZERO MUL OR SWAP1 SSTORE POP PUSH32 0x5DB9EE0A495BF2E6FF9C91A7834C1BA4FDD244A5E8AA4E537BD38AEAE4B073AA CALLER PUSH1 0x40 MLOAD PUSH2 0xD91 SWAP2 SWAP1 PUSH2 0x21ED JUMP JUMPDEST PUSH1 0x40 MLOAD DUP1 SWAP2 SUB SWAP1 LOG1 JUMP JUMPDEST PUSH1 0x69 PUSH1 0x14 SWAP1 SLOAD SWAP1 PUSH2 0x100 EXP SWAP1 DIV PUSH1 0xFF AND DUP2 JUMP JUMPDEST PUSH1 0x6A PUSH1 0x0 SWAP1 SLOAD SWAP1 PUSH2 0x100 EXP SWAP1 DIV PUSH20 0xFFFFFFFFFFFFFFFFFFFFFFFFFFFFFFFFFFFFFFFF AND DUP2 JUMP JUMPDEST PUSH1 0x0 PUSH1 0x68 PUSH1 0x0 SWAP1 SLOAD SWAP1 PUSH2 0x100 EXP SWAP1 DIV PUSH1 0xFF AND SWAP1 POP SWAP1 JUMP JUMPDEST PUSH1 0x68 PUSH1 0x1 SWAP1 SLOAD SWAP1 PUSH2 0x100 EXP SWAP1 DIV PUSH20 0xFFFFFFFFFFFFFFFFFFFFFFFFFFFFFFFFFFFFFFFF AND DUP2 JUMP JUMPDEST PUSH1 0x0 PUSH1 0x68 PUSH1 0x1 SWAP1 SLOAD SWAP1 PUSH2 0x100 EXP SWAP1 DIV PUSH20 0xFFFFFFFFFFFFFFFFFFFFFFFFFFFFFFFFFFFFFFFF AND PUSH20 0xFFFFFFFFFFFFFFFFFFFFFFFFFFFFFFFFFFFFFFFF AND PUSH4 0x70A08231 ADDRESS PUSH1 0x40 MLOAD DUP3 PUSH4 0xFFFFFFFF AND PUSH1 0xE0 SHL DUP2 MSTORE PUSH1 0x4 ADD PUSH2 0xE6E SWAP2 SWAP1 PUSH2 0x21ED JUMP JUMPDEST PUSH1 0x20 PUSH1 0x40 MLOAD DUP1 DUP4 SUB DUP2 DUP7 GAS STATICCALL ISZERO DUP1 ISZERO PUSH2 0xE8B JUMPI RETURNDATASIZE PUSH1 0x0 DUP1 RETURNDATACOPY RETURNDATASIZE PUSH1 0x0 REVERT JUMPDEST POP POP POP POP PUSH1 0x40 MLOAD RETURNDATASIZE PUSH1 0x1F NOT PUSH1 0x1F DUP3 ADD AND DUP3 ADD DUP1 PUSH1 0x40 MSTORE POP DUP2 ADD SWAP1 PUSH2 0xEAF SWAP2 SWAP1 PUSH2 0x289F JUMP JUMPDEST SWAP1 POP SWAP1 JUMP JUMPDEST PUSH2 0xEBC PUSH2 0x1185 JUMP JUMPDEST PUSH2 0xEFB JUMPI PUSH1 0x40 MLOAD PUSH32 0x8C379A000000000000000000000000000000000000000000000000000000000 DUP2 MSTORE PUSH1 0x4 ADD PUSH2 0xEF2 SWAP1 PUSH2 0x25B7 JUMP JUMPDEST PUSH1 0x40 MLOAD DUP1 SWAP2 SUB SWAP1 REVERT JUMPDEST PUSH2 0xF0F DUP2 PUSH1 0x66 PUSH2 0x1C55 SWAP1 SWAP2 SWAP1 PUSH4 0xFFFFFFFF AND JUMP JUMPDEST POP DUP1 PUSH20 0xFFFFFFFFFFFFFFFFFFFFFFFFFFFFFFFFFFFFFFFF AND PUSH32 0xAD6DE4452A631E641CB59902236607946CE9272B9B981F2F80E8D129CB9084BA PUSH1 0x40 MLOAD PUSH1 0x40 MLOAD DUP1 SWAP2 SUB SWAP1 LOG2 POP JUMP JUMPDEST PUSH2 0xF5E PUSH2 0x1185 JUMP JUMPDEST PUSH2 0xF9D JUMPI PUSH1 0x40 MLOAD PUSH32 0x8C379A000000000000000000000000000000000000000000000000000000000 DUP2 MSTORE PUSH1 0x4 ADD PUSH2 0xF94 SWAP1 PUSH2 0x25B7 JUMP JUMPDEST PUSH1 0x40 MLOAD DUP1 SWAP2 SUB SWAP1 REVERT JUMPDEST PUSH1 0x0 PUSH20 0xFFFFFFFFFFFFFFFFFFFFFFFFFFFFFFFFFFFFFFFF AND PUSH1 0x33 PUSH1 0x0 SWAP1 SLOAD SWAP1 PUSH2 0x100 EXP SWAP1 DIV PUSH20 0xFFFFFFFFFFFFFFFFFFFFFFFFFFFFFFFFFFFFFFFF AND PUSH20 0xFFFFFFFFFFFFFFFFFFFFFFFFFFFFFFFFFFFFFFFF AND PUSH32 0x8BE0079C531659141344CD1FD0A4F28419497F9722A3DAAFE3B4186F6B6457E0 PUSH1 0x40 MLOAD PUSH1 0x40 MLOAD DUP1 SWAP2 SUB SWAP1 LOG3 PUSH1 0x0 PUSH1 0x33 PUSH1 0x0 PUSH2 0x100 EXP DUP2 SLOAD DUP2 PUSH20 0xFFFFFFFFFFFFFFFFFFFFFFFFFFFFFFFFFFFFFFFF MUL NOT AND SWAP1 DUP4 PUSH20 0xFFFFFFFFFFFFFFFFFFFFFFFFFFFFFFFFFFFFFFFF AND MUL OR SWAP1 SSTORE POP JUMP JUMPDEST PUSH2 0x1067 CALLER PUSH2 0x88E JUMP JUMPDEST PUSH2 0x10A6 JUMPI PUSH1 0x40 MLOAD PUSH32 0x8C379A000000000000000000000000000000000000000000000000000000000 DUP2 MSTORE PUSH1 0x4 ADD PUSH2 0x109D SWAP1 PUSH2 0x254B JUMP JUMPDEST PUSH1 0x40 MLOAD DUP1 SWAP2 SUB SWAP1 REVERT JUMPDEST PUSH1 0x68 PUSH1 0x0 SWAP1 SLOAD SWAP1 PUSH2 0x100 EXP SWAP1 DIV PUSH1 0xFF AND ISZERO PUSH2 0x10F6 JUMPI PUSH1 0x40 MLOAD PUSH32 0x8C379A000000000000000000000000000000000000000000000000000000000 DUP2 MSTORE PUSH1 0x4 ADD PUSH2 0x10ED SWAP1 PUSH2 0x2AED JUMP JUMPDEST PUSH1 0x40 MLOAD DUP1 SWAP2 SUB SWAP1 REVERT JUMPDEST PUSH1 0x1 PUSH1 0x68 PUSH1 0x0 PUSH2 0x100 EXP DUP2 SLOAD DUP2 PUSH1 0xFF MUL NOT AND SWAP1 DUP4 ISZERO ISZERO MUL OR SWAP1 SSTORE POP PUSH32 0x62E78CEA01BEE320CD4E420270B5EA74000D11B0C9F74754EBDBFC544B05A258 CALLER PUSH1 0x40 MLOAD PUSH2 0x1140 SWAP2 SWAP1 PUSH2 0x21ED JUMP JUMPDEST PUSH1 0x40 MLOAD DUP1 SWAP2 SUB SWAP1 LOG1 JUMP JUMPDEST PUSH1 0x0 PUSH2 0x1156 PUSH1 0x66 PUSH2 0x1C85 JUMP JUMPDEST SWAP1 POP SWAP1 JUMP JUMPDEST PUSH1 0x0 PUSH1 0x33 PUSH1 0x0 SWAP1 SLOAD SWAP1 PUSH2 0x100 EXP SWAP1 DIV PUSH20 0xFFFFFFFFFFFFFFFFFFFFFFFFFFFFFFFFFFFFFFFF AND SWAP1 POP SWAP1 JUMP JUMPDEST PUSH1 0x0 PUSH1 0x33 PUSH1 0x0 SWAP1 SLOAD SWAP1 PUSH2 0x100 EXP SWAP1 DIV PUSH20 0xFFFFFFFFFFFFFFFFFFFFFFFFFFFFFFFFFFFFFFFF AND PUSH20 0xFFFFFFFFFFFFFFFFFFFFFFFFFFFFFFFFFFFFFFFF AND PUSH2 0x11C8 PUSH2 0x1C9A JUMP JUMPDEST PUSH20 0xFFFFFFFFFFFFFFFFFFFFFFFFFFFFFFFFFFFFFFFF AND EQ SWAP1 POP SWAP1 JUMP JUMPDEST PUSH1 0x0 DUP1 PUSH2 0x11EF PUSH2 0xE11 JUMP JUMPDEST SWAP1 POP PUSH1 0x0 DUP2 GT ISZERO PUSH2 0x120B JUMPI PUSH2 0x1203 DUP2 PUSH2 0x8B1 JUMP JUMPDEST SWAP2 POP POP PUSH2 0x1211 JUMP JUMPDEST PUSH1 0x0 SWAP2 POP POP JUMPDEST SWAP1 JUMP JUMPDEST PUSH1 0x0 PUSH1 0x1 SWAP1 SLOAD SWAP1 PUSH2 0x100 EXP SWAP1 DIV PUSH1 0xFF AND DUP1 PUSH2 0x1233 JUMPI POP PUSH2 0x1232 PUSH2 0x1CA2 JUMP JUMPDEST JUMPDEST DUP1 PUSH2 0x1249 JUMPI POP PUSH1 0x0 DUP1 SLOAD SWAP1 PUSH2 0x100 EXP SWAP1 DIV PUSH1 0xFF AND ISZERO JUMPDEST PUSH2 0x1288 JUMPI PUSH1 0x40 MLOAD PUSH32 0x8C379A000000000000000000000000000000000000000000000000000000000 DUP2 MSTORE PUSH1 0x4 ADD PUSH2 0x127F SWAP1 PUSH2 0x2B7F JUMP JUMPDEST PUSH1 0x40 MLOAD DUP1 SWAP2 SUB SWAP1 REVERT JUMPDEST PUSH1 0x0 DUP1 PUSH1 0x1 SWAP1 SLOAD SWAP1 PUSH2 0x100 EXP SWAP1 DIV PUSH1 0xFF AND ISZERO SWAP1 POP DUP1 ISZERO PUSH2 0x12D8 JUMPI PUSH1 0x1 PUSH1 0x0 PUSH1 0x1 PUSH2 0x100 EXP DUP2 SLOAD DUP2 PUSH1 0xFF MUL NOT AND SWAP1 DUP4 ISZERO ISZERO MUL OR SWAP1 SSTORE POP PUSH1 0x1 PUSH1 0x0 DUP1 PUSH2 0x100 EXP DUP2 SLOAD DUP2 PUSH1 0xFF MUL NOT AND SWAP1 DUP4 ISZERO ISZERO MUL OR SWAP1 SSTORE POP JUMPDEST DUP2 PUSH1 0x33 PUSH1 0x0 PUSH2 0x100 EXP DUP2 SLOAD DUP2 PUSH20 0xFFFFFFFFFFFFFFFFFFFFFFFFFFFFFFFFFFFFFFFF MUL NOT AND SWAP1 DUP4 PUSH20 0xFFFFFFFFFFFFFFFFFFFFFFFFFFFFFFFFFFFFFFFF AND MUL OR SWAP1 SSTORE POP PUSH1 0x33 PUSH1 0x0 SWAP1 SLOAD SWAP1 PUSH2 0x100 EXP SWAP1 DIV PUSH20 0xFFFFFFFFFFFFFFFFFFFFFFFFFFFFFFFFFFFFFFFF AND PUSH20 0xFFFFFFFFFFFFFFFFFFFFFFFFFFFFFFFFFFFFFFFF AND PUSH1 0x0 PUSH20 0xFFFFFFFFFFFFFFFFFFFFFFFFFFFFFFFFFFFFFFFF AND PUSH32 0x8BE0079C531659141344CD1FD0A4F28419497F9722A3DAAFE3B4186F6B6457E0 PUSH1 0x40 MLOAD PUSH1 0x40 MLOAD DUP1 SWAP2 SUB SWAP1 LOG3 DUP1 ISZERO PUSH2 0x13B7 JUMPI PUSH1 0x0 DUP1 PUSH1 0x1 PUSH2 0x100 EXP DUP2 SLOAD DUP2 PUSH1 0xFF MUL NOT AND SWAP1 DUP4 ISZERO ISZERO MUL OR SWAP1 SSTORE POP JUMPDEST POP POP JUMP JUMPDEST PUSH1 0x0 PUSH1 0x68 PUSH1 0x1 SWAP1 SLOAD SWAP1 PUSH2 0x100 EXP SWAP1 DIV PUSH20 0xFFFFFFFFFFFFFFFFFFFFFFFFFFFFFFFFFFFFFFFF AND PUSH20 0xFFFFFFFFFFFFFFFFFFFFFFFFFFFFFFFFFFFFFFFF AND PUSH4 0x70A08231 DUP4 PUSH1 0x40 MLOAD DUP3 PUSH4 0xFFFFFFFF AND PUSH1 0xE0 SHL DUP2 MSTORE PUSH1 0x4 ADD PUSH2 0x1418 SWAP2 SWAP1 PUSH2 0x21ED JUMP JUMPDEST PUSH1 0x20 PUSH1 0x40 MLOAD DUP1 DUP4 SUB DUP2 DUP7 GAS STATICCALL ISZERO DUP1 ISZERO PUSH2 0x1435 JUMPI RETURNDATASIZE PUSH1 0x0 DUP1 RETURNDATACOPY RETURNDATASIZE PUSH1 0x0 REVERT JUMPDEST POP POP POP POP PUSH1 0x40 MLOAD RETURNDATASIZE PUSH1 0x1F NOT PUSH1 0x1F DUP3 ADD AND DUP3 ADD DUP1 PUSH1 0x40 MSTORE POP DUP2 ADD SWAP1 PUSH2 0x1459 SWAP2 SWAP1 PUSH2 0x289F JUMP JUMPDEST SWAP1 POP SWAP2 SWAP1 POP JUMP JUMPDEST PUSH1 0x6C SLOAD DUP2 JUMP JUMPDEST PUSH1 0x0 DUP1 CALLVALUE GT PUSH2 0x14AA JUMPI PUSH1 0x40 MLOAD PUSH32 0x8C379A000000000000000000000000000000000000000000000000000000000 DUP2 MSTORE PUSH1 0x4 ADD PUSH2 0x14A1 SWAP1 PUSH2 0x278D JUMP JUMPDEST PUSH1 0x40 MLOAD DUP1 SWAP2 SUB SWAP1 REVERT JUMPDEST PUSH1 0x0 PUSH1 0x6C SLOAD CALLVALUE PUSH2 0x14BA SWAP2 SWAP1 PUSH2 0x2848 JUMP JUMPDEST SWAP1 POP PUSH1 0x0 PUSH1 0x68 PUSH1 0x1 SWAP1 SLOAD SWAP1 PUSH2 0x100 EXP SWAP1 DIV PUSH20 0xFFFFFFFFFFFFFFFFFFFFFFFFFFFFFFFFFFFFFFFF AND PUSH20 0xFFFFFFFFFFFFFFFFFFFFFFFFFFFFFFFFFFFFFFFF AND PUSH4 0x70A08231 ADDRESS PUSH1 0x40 MLOAD DUP3 PUSH4 0xFFFFFFFF AND PUSH1 0xE0 SHL DUP2 MSTORE PUSH1 0x4 ADD PUSH2 0x1519 SWAP2 SWAP1 PUSH2 0x21ED JUMP JUMPDEST PUSH1 0x20 PUSH1 0x40 MLOAD DUP1 DUP4 SUB DUP2 DUP7 GAS STATICCALL ISZERO DUP1 ISZERO PUSH2 0x1536 JUMPI RETURNDATASIZE PUSH1 0x0 DUP1 RETURNDATACOPY RETURNDATASIZE PUSH1 0x0 REVERT JUMPDEST POP POP POP POP PUSH1 0x40 MLOAD RETURNDATASIZE PUSH1 0x1F NOT PUSH1 0x1F DUP3 ADD AND DUP3 ADD DUP1 PUSH1 0x40 MSTORE POP DUP2 ADD SWAP1 PUSH2 0x155A SWAP2 SWAP1 PUSH2 0x289F JUMP JUMPDEST SWAP1 POP DUP2 DUP2 LT ISZERO PUSH2 0x159F JUMPI PUSH1 0x40 MLOAD PUSH32 0x8C379A000000000000000000000000000000000000000000000000000000000 DUP2 MSTORE PUSH1 0x4 ADD PUSH2 0x1596 SWAP1 PUSH2 0x293E JUMP JUMPDEST PUSH1 0x40 MLOAD DUP1 SWAP2 SUB SWAP1 REVERT JUMPDEST PUSH1 0x0 PUSH1 0x68 PUSH1 0x1 SWAP1 SLOAD SWAP1 PUSH2 0x100 EXP SWAP1 DIV PUSH20 0xFFFFFFFFFFFFFFFFFFFFFFFFFFFFFFFFFFFFFFFF AND PUSH20 0xFFFFFFFFFFFFFFFFFFFFFFFFFFFFFFFFFFFFFFFF AND PUSH4 0xA9059CBB CALLER DUP6 PUSH1 0x40 MLOAD DUP4 PUSH4 0xFFFFFFFF AND PUSH1 0xE0 SHL DUP2 MSTORE PUSH1 0x4 ADD PUSH2 0x15FE SWAP3 SWAP2 SWAP1 PUSH2 0x295E JUMP JUMPDEST PUSH1 0x20 PUSH1 0x40 MLOAD DUP1 DUP4 SUB DUP2 PUSH1 0x0 DUP8 GAS CALL ISZERO DUP1 ISZERO PUSH2 0x161D JUMPI RETURNDATASIZE PUSH1 0x0 DUP1 RETURNDATACOPY RETURNDATASIZE PUSH1 0x0 REVERT JUMPDEST POP POP POP POP PUSH1 0x40 MLOAD RETURNDATASIZE PUSH1 0x1F NOT PUSH1 0x1F DUP3 ADD AND DUP3 ADD DUP1 PUSH1 0x40 MSTORE POP DUP2 ADD SWAP1 PUSH2 0x1641 SWAP2 SWAP1 PUSH2 0x299C JUMP JUMPDEST SWAP1 POP DUP1 PUSH2 0x1683 JUMPI PUSH1 0x40 MLOAD PUSH32 0x8C379A000000000000000000000000000000000000000000000000000000000 DUP2 MSTORE PUSH1 0x4 ADD PUSH2 0x167A SWAP1 PUSH2 0x2A15 JUMP JUMPDEST PUSH1 0x40 MLOAD DUP1 SWAP2 SUB SWAP1 REVERT JUMPDEST DUP3 SWAP4 POP POP POP POP SWAP1 JUMP JUMPDEST PUSH1 0x60 PUSH1 0x0 PUSH2 0x169A PUSH1 0x66 PUSH2 0x1C85 JUMP JUMPDEST SWAP1 POP PUSH1 0x0 DUP2 PUSH8 0xFFFFFFFFFFFFFFFF DUP2 GT ISZERO PUSH2 0x16B8 JUMPI PUSH2 0x16B7 PUSH2 0x2B9F JUMP JUMPDEST JUMPDEST PUSH1 0x40 MLOAD SWAP1 DUP1 DUP3 MSTORE DUP1 PUSH1 0x20 MUL PUSH1 0x20 ADD DUP3 ADD PUSH1 0x40 MSTORE DUP1 ISZERO PUSH2 0x16E6 JUMPI DUP2 PUSH1 0x20 ADD PUSH1 0x20 DUP3 MUL DUP1 CALLDATASIZE DUP4 CALLDATACOPY DUP1 DUP3 ADD SWAP2 POP POP SWAP1 POP JUMPDEST POP SWAP1 POP PUSH1 0x0 JUMPDEST DUP3 DUP2 LT ISZERO PUSH2 0x1768 JUMPI PUSH2 0x1708 DUP2 PUSH1 0x66 PUSH2 0x1CB9 SWAP1 SWAP2 SWAP1 PUSH4 0xFFFFFFFF AND JUMP JUMPDEST DUP3 DUP3 DUP2 MLOAD DUP2 LT PUSH2 0x171B JUMPI PUSH2 0x171A PUSH2 0x2BCE JUMP JUMPDEST JUMPDEST PUSH1 0x20 MUL PUSH1 0x20 ADD ADD SWAP1 PUSH20 0xFFFFFFFFFFFFFFFFFFFFFFFFFFFFFFFFFFFFFFFF AND SWAP1 DUP2 PUSH20 0xFFFFFFFFFFFFFFFFFFFFFFFFFFFFFFFFFFFFFFFF AND DUP2 MSTORE POP POP DUP1 DUP1 PUSH2 0x1760 SWAP1 PUSH2 0x2BFD JUMP JUMPDEST SWAP2 POP POP PUSH2 0x16EC JUMP JUMPDEST POP DUP1 SWAP3 POP POP POP SWAP1 JUMP JUMPDEST PUSH2 0x177A CALLER PUSH2 0x88E JUMP JUMPDEST PUSH2 0x17B9 JUMPI PUSH1 0x40 MLOAD PUSH32 0x8C379A000000000000000000000000000000000000000000000000000000000 DUP2 MSTORE PUSH1 0x4 ADD PUSH2 0x17B0 SWAP1 PUSH2 0x254B JUMP JUMPDEST PUSH1 0x40 MLOAD DUP1 SWAP2 SUB SWAP1 REVERT JUMPDEST DUP1 PUSH1 0x6A PUSH1 0x0 PUSH2 0x100 EXP DUP2 SLOAD DUP2 PUSH20 0xFFFFFFFFFFFFFFFFFFFFFFFFFFFFFFFFFFFFFFFF MUL NOT AND SWAP1 DUP4 PUSH20 0xFFFFFFFFFFFFFFFFFFFFFFFFFFFFFFFFFFFFFFFF AND MUL OR SWAP1 SSTORE POP CALLER PUSH20 0xFFFFFFFFFFFFFFFFFFFFFFFFFFFFFFFFFFFFFFFF AND DUP2 PUSH20 0xFFFFFFFFFFFFFFFFFFFFFFFFFFFFFFFFFFFFFFFF AND PUSH32 0x8595877311E370FE3AC87D4F6D12473603393F02AC660E68D2E5E3DA5ADB610C PUSH1 0x40 MLOAD PUSH1 0x40 MLOAD DUP1 SWAP2 SUB SWAP1 LOG3 POP JUMP JUMPDEST PUSH2 0x1860 CALLER PUSH2 0x88E JUMP JUMPDEST PUSH2 0x189F JUMPI PUSH1 0x40 MLOAD PUSH32 0x8C379A000000000000000000000000000000000000000000000000000000000 DUP2 MSTORE PUSH1 0x4 ADD PUSH2 0x1896 SWAP1 PUSH2 0x254B JUMP JUMPDEST PUSH1 0x40 MLOAD DUP1 SWAP2 SUB SWAP1 REVERT JUMPDEST DUP2 PUSH1 0x69 PUSH1 0x0 PUSH2 0x100 EXP DUP2 SLOAD DUP2 PUSH20 0xFFFFFFFFFFFFFFFFFFFFFFFFFFFFFFFFFFFFFFFF MUL NOT AND SWAP1 DUP4 PUSH20 0xFFFFFFFFFFFFFFFFFFFFFFFFFFFFFFFFFFFFFFFF AND MUL OR SWAP1 SSTORE POP DUP1 PUSH1 0x69 PUSH1 0x14 PUSH2 0x100 EXP DUP2 SLOAD DUP2 PUSH1 0xFF MUL NOT AND SWAP1 DUP4 ISZERO ISZERO MUL OR SWAP1 SSTORE POP CALLER PUSH20 0xFFFFFFFFFFFFFFFFFFFFFFFFFFFFFFFFFFFFFFFF AND DUP3 PUSH20 0xFFFFFFFFFFFFFFFFFFFFFFFFFFFFFFFFFFFFFFFF AND PUSH32 0x864D5A965313DC4BF4FD85BB02B7EFFF05CB1681CB2C4A4BAF0D7E8520FB356C DUP4 PUSH1 0x40 MLOAD PUSH2 0x1957 SWAP2 SWAP1 PUSH2 0x216A JUMP JUMPDEST PUSH1 0x40 MLOAD DUP1 SWAP2 SUB SWAP1 LOG3 POP POP JUMP JUMPDEST PUSH1 0x6D PUSH1 0x20 MSTORE DUP1 PUSH1 0x0 MSTORE PUSH1 0x40 PUSH1 0x0 KECCAK256 PUSH1 0x0 SWAP2 POP SWAP1 POP DUP1 PUSH1 0x0 ADD SLOAD SWAP1 DUP1 PUSH1 0x1 ADD SLOAD SWAP1 DUP1 PUSH1 0x2 ADD SLOAD SWAP1 DUP1 PUSH1 0x3 ADD SLOAD SWAP1 POP DUP5 JUMP JUMPDEST PUSH2 0x199B PUSH2 0x1185 JUMP JUMPDEST PUSH2 0x19DA JUMPI PUSH1 0x40 MLOAD PUSH32 0x8C379A000000000000000000000000000000000000000000000000000000000 DUP2 MSTORE PUSH1 0x4 ADD PUSH2 0x19D1 SWAP1 PUSH2 0x25B7 JUMP JUMPDEST PUSH1 0x40 MLOAD DUP1 SWAP2 SUB SWAP1 REVERT JUMPDEST PUSH2 0x19E3 DUP2 PUSH2 0x1CD3 JUMP JUMPDEST POP JUMP JUMPDEST PUSH1 0x69 PUSH1 0x0 SWAP1 SLOAD SWAP1 PUSH2 0x100 EXP SWAP1 DIV PUSH20 0xFFFFFFFFFFFFFFFFFFFFFFFFFFFFFFFFFFFFFFFF AND DUP2 JUMP JUMPDEST PUSH1 0x0 PUSH1 0x1 SWAP1 SLOAD SWAP1 PUSH2 0x100 EXP SWAP1 DIV PUSH1 0xFF AND DUP1 PUSH2 0x1A2B JUMPI POP PUSH2 0x1A2A PUSH2 0x1CA2 JUMP JUMPDEST JUMPDEST DUP1 PUSH2 0x1A41 JUMPI POP PUSH1 0x0 DUP1 SLOAD SWAP1 PUSH2 0x100 EXP SWAP1 DIV PUSH1 0xFF AND ISZERO JUMPDEST PUSH2 0x1A80 JUMPI PUSH1 0x40 MLOAD PUSH32 0x8C379A000000000000000000000000000000000000000000000000000000000 DUP2 MSTORE PUSH1 0x4 ADD PUSH2 0x1A77 SWAP1 PUSH2 0x2B7F JUMP JUMPDEST PUSH1 0x40 MLOAD DUP1 SWAP2 SUB SWAP1 REVERT JUMPDEST PUSH1 0x0 DUP1 PUSH1 0x1 SWAP1 SLOAD SWAP1 PUSH2 0x100 EXP SWAP1 DIV PUSH1 0xFF AND ISZERO SWAP1 POP DUP1 ISZERO PUSH2 0x1AD0 JUMPI PUSH1 0x1 PUSH1 0x0 PUSH1 0x1 PUSH2 0x100 EXP DUP2 SLOAD DUP2 PUSH1 0xFF MUL NOT AND SWAP1 DUP4 ISZERO ISZERO MUL OR SWAP1 SSTORE POP PUSH1 0x1 PUSH1 0x0 DUP1 PUSH2 0x100 EXP DUP2 SLOAD DUP2 PUSH1 0xFF MUL NOT AND SWAP1 DUP4 ISZERO ISZERO MUL OR SWAP1 SSTORE POP JUMPDEST PUSH2 0x1AD9 DUP6 PUSH2 0x1214 JUMP JUMPDEST DUP4 PUSH1 0x68 PUSH1 0x1 PUSH2 0x100 EXP DUP2 SLOAD DUP2 PUSH20 0xFFFFFFFFFFFFFFFFFFFFFFFFFFFFFFFFFFFFFFFF MUL NOT AND SWAP1 DUP4 PUSH20 0xFFFFFFFFFFFFFFFFFFFFFFFFFFFFFFFFFFFFFFFF AND MUL OR SWAP1 SSTORE POP DUP3 PUSH1 0x69 PUSH1 0x0 PUSH2 0x100 EXP DUP2 SLOAD DUP2 PUSH20 0xFFFFFFFFFFFFFFFFFFFFFFFFFFFFFFFFFFFFFFFF MUL NOT AND SWAP1 DUP4 PUSH20 0xFFFFFFFFFFFFFFFFFFFFFFFFFFFFFFFFFFFFFFFF AND MUL OR SWAP1 SSTORE POP DUP2 PUSH1 0x69 PUSH1 0x14 PUSH2 0x100 EXP DUP2 SLOAD DUP2 PUSH1 0xFF MUL NOT AND SWAP1 DUP4 ISZERO ISZERO MUL OR SWAP1 SSTORE POP DUP1 ISZERO PUSH2 0x1B96 JUMPI PUSH1 0x0 DUP1 PUSH1 0x1 PUSH2 0x100 EXP DUP2 SLOAD DUP2 PUSH1 0xFF MUL NOT AND SWAP1 DUP4 ISZERO ISZERO MUL OR SWAP1 SSTORE POP JUMPDEST POP POP POP POP POP JUMP JUMPDEST PUSH1 0x0 PUSH2 0x1BC5 DUP4 PUSH1 0x0 ADD DUP4 PUSH20 0xFFFFFFFFFFFFFFFFFFFFFFFFFFFFFFFFFFFFFFFF AND PUSH1 0x0 SHL PUSH2 0x1E02 JUMP JUMPDEST SWAP1 POP SWAP3 SWAP2 POP POP JUMP JUMPDEST PUSH1 0x0 PUSH2 0x1BF5 DUP4 PUSH1 0x0 ADD DUP4 PUSH20 0xFFFFFFFFFFFFFFFFFFFFFFFFFFFFFFFFFFFFFFFF AND PUSH1 0x0 SHL PUSH2 0x1F1A JUMP JUMPDEST SWAP1 POP SWAP3 SWAP2 POP POP JUMP JUMPDEST PUSH1 0x0 DUP1 DUP3 GT PUSH2 0x1C41 JUMPI PUSH1 0x40 MLOAD PUSH32 0x8C379A000000000000000000000000000000000000000000000000000000000 DUP2 MSTORE PUSH1 0x4 ADD PUSH2 0x1C38 SWAP1 PUSH2 0x2C91 JUMP JUMPDEST PUSH1 0x40 MLOAD DUP1 SWAP2 SUB SWAP1 REVERT JUMPDEST DUP2 DUP4 PUSH2 0x1C4D SWAP2 SWAP1 PUSH2 0x2CE0 JUMP JUMPDEST SWAP1 POP SWAP3 SWAP2 POP POP JUMP JUMPDEST PUSH1 0x0 PUSH2 0x1C7D DUP4 PUSH1 0x0 ADD DUP4 PUSH20 0xFFFFFFFFFFFFFFFFFFFFFFFFFFFFFFFFFFFFFFFF AND PUSH1 0x0 SHL PUSH2 0x1F3D JUMP JUMPDEST SWAP1 POP SWAP3 SWAP2 POP POP JUMP JUMPDEST PUSH1 0x0 PUSH2 0x1C93 DUP3 PUSH1 0x0 ADD PUSH2 0x1FAD JUMP JUMPDEST SWAP1 POP SWAP2 SWAP1 POP JUMP JUMPDEST PUSH1 0x0 CALLER SWAP1 POP SWAP1 JUMP JUMPDEST PUSH1 0x0 DUP1 ADDRESS SWAP1 POP PUSH1 0x0 DUP2 EXTCODESIZE SWAP1 POP PUSH1 0x0 DUP2 EQ SWAP3 POP POP POP SWAP1 JUMP JUMPDEST PUSH1 0x0 PUSH2 0x1CC8 DUP4 PUSH1 0x0 ADD DUP4 PUSH2 0x1FBE JUMP JUMPDEST PUSH1 0x0 SHR SWAP1 POP SWAP3 SWAP2 POP POP JUMP JUMPDEST PUSH1 0x0 PUSH20 0xFFFFFFFFFFFFFFFFFFFFFFFFFFFFFFFFFFFFFFFF AND DUP2 PUSH20 0xFFFFFFFFFFFFFFFFFFFFFFFFFFFFFFFFFFFFFFFF AND SUB PUSH2 0x1D42 JUMPI PUSH1 0x40 MLOAD PUSH32 0x8C379A000000000000000000000000000000000000000000000000000000000 DUP2 MSTORE PUSH1 0x4 ADD PUSH2 0x1D39 SWAP1 PUSH2 0x2D83 JUMP JUMPDEST PUSH1 0x40 MLOAD DUP1 SWAP2 SUB SWAP1 REVERT JUMPDEST DUP1 PUSH20 0xFFFFFFFFFFFFFFFFFFFFFFFFFFFFFFFFFFFFFFFF AND PUSH1 0x33 PUSH1 0x0 SWAP1 SLOAD SWAP1 PUSH2 0x100 EXP SWAP1 DIV PUSH20 0xFFFFFFFFFFFFFFFFFFFFFFFFFFFFFFFFFFFFFFFF AND PUSH20 0xFFFFFFFFFFFFFFFFFFFFFFFFFFFFFFFFFFFFFFFF AND PUSH32 0x8BE0079C531659141344CD1FD0A4F28419497F9722A3DAAFE3B4186F6B6457E0 PUSH1 0x40 MLOAD PUSH1 0x40 MLOAD DUP1 SWAP2 SUB SWAP1 LOG3 DUP1 PUSH1 0x33 PUSH1 0x0 PUSH2 0x100 EXP DUP2 SLOAD DUP2 PUSH20 0xFFFFFFFFFFFFFFFFFFFFFFFFFFFFFFFFFFFFFFFF MUL NOT AND SWAP1 DUP4 PUSH20 0xFFFFFFFFFFFFFFFFFFFFFFFFFFFFFFFFFFFFFFFF AND MUL OR SWAP1 SSTORE POP POP JUMP JUMPDEST PUSH1 0x0 DUP1 DUP4 PUSH1 0x1 ADD PUSH1 0x0 DUP5 DUP2 MSTORE PUSH1 0x20 ADD SWAP1 DUP2 MSTORE PUSH1 0x20 ADD PUSH1 0x0 KECCAK256 SLOAD SWAP1 POP PUSH1 0x0 DUP2 EQ PUSH2 0x1F0E JUMPI PUSH1 0x0 PUSH1 0x1 DUP3 PUSH2 0x1E34 SWAP2 SWAP1 PUSH2 0x2DA3 JUMP JUMPDEST SWAP1 POP PUSH1 0x0 PUSH1 0x1 DUP7 PUSH1 0x0 ADD DUP1 SLOAD SWAP1 POP PUSH2 0x1E4C SWAP2 SWAP1 PUSH2 0x2DA3 JUMP JUMPDEST SWAP1 POP PUSH1 0x0 DUP7 PUSH1 0x0 ADD DUP3 DUP2 SLOAD DUP2 LT PUSH2 0x1E66 JUMPI PUSH2 0x1E65 PUSH2 0x2BCE JUMP JUMPDEST JUMPDEST SWAP1 PUSH1 0x0 MSTORE PUSH1 0x20 PUSH1 0x0 KECCAK256 ADD SLOAD SWAP1 POP DUP1 DUP8 PUSH1 0x0 ADD DUP5 DUP2 SLOAD DUP2 LT PUSH2 0x1E8A JUMPI PUSH2 0x1E89 PUSH2 0x2BCE JUMP JUMPDEST JUMPDEST SWAP1 PUSH1 0x0 MSTORE PUSH1 0x20 PUSH1 0x0 KECCAK256 ADD DUP2 SWAP1 SSTORE POP PUSH1 0x1 DUP4 PUSH2 0x1EA5 SWAP2 SWAP1 PUSH2 0x2DD7 JUMP JUMPDEST DUP8 PUSH1 0x1 ADD PUSH1 0x0 DUP4 DUP2 MSTORE PUSH1 0x20 ADD SWAP1 DUP2 MSTORE PUSH1 0x20 ADD PUSH1 0x0 KECCAK256 DUP2 SWAP1 SSTORE POP DUP7 PUSH1 0x0 ADD DUP1 SLOAD DUP1 PUSH2 0x1ED2 JUMPI PUSH2 0x1ED1 PUSH2 0x2E0B JUMP JUMPDEST JUMPDEST PUSH1 0x1 SWAP1 SUB DUP2 DUP2 SWAP1 PUSH1 0x0 MSTORE PUSH1 0x20 PUSH1 0x0 KECCAK256 ADD PUSH1 0x0 SWAP1 SSTORE SWAP1 SSTORE DUP7 PUSH1 0x1 ADD PUSH1 0x0 DUP8 DUP2 MSTORE PUSH1 0x20 ADD SWAP1 DUP2 MSTORE PUSH1 0x20 ADD PUSH1 0x0 KECCAK256 PUSH1 0x0 SWAP1 SSTORE PUSH1 0x1 SWAP5 POP POP POP POP POP PUSH2 0x1F14 JUMP JUMPDEST PUSH1 0x0 SWAP2 POP POP JUMPDEST SWAP3 SWAP2 POP POP JUMP JUMPDEST PUSH1 0x0 DUP1 DUP4 PUSH1 0x1 ADD PUSH1 0x0 DUP5 DUP2 MSTORE PUSH1 0x20 ADD SWAP1 DUP2 MSTORE PUSH1 0x20 ADD PUSH1 0x0 KECCAK256 SLOAD EQ ISZERO SWAP1 POP SWAP3 SWAP2 POP POP JUMP JUMPDEST PUSH1 0x0 PUSH2 0x1F49 DUP4 DUP4 PUSH2 0x1F1A JUMP JUMPDEST PUSH2 0x1FA2 JUMPI DUP3 PUSH1 0x0 ADD DUP3 SWAP1 DUP1 PUSH1 0x1 DUP2 SLOAD ADD DUP1 DUP3 SSTORE DUP1 SWAP2 POP POP PUSH1 0x1 SWAP1 SUB SWAP1 PUSH1 0x0 MSTORE PUSH1 0x20 PUSH1 0x0 KECCAK256 ADD PUSH1 0x0 SWAP1 SWAP2 SWAP1 SWAP2 SWAP1 SWAP2 POP SSTORE DUP3 PUSH1 0x0 ADD DUP1 SLOAD SWAP1 POP DUP4 PUSH1 0x1 ADD PUSH1 0x0 DUP5 DUP2 MSTORE PUSH1 0x20 ADD SWAP1 DUP2 MSTORE PUSH1 0x20 ADD PUSH1 0x0 KECCAK256 DUP2 SWAP1 SSTORE POP PUSH1 0x1 SWAP1 POP PUSH2 0x1FA7 JUMP JUMPDEST PUSH1 0x0 SWAP1 POP JUMPDEST SWAP3 SWAP2 POP POP JUMP JUMPDEST PUSH1 0x0 DUP2 PUSH1 0x0 ADD DUP1 SLOAD SWAP1 POP SWAP1 POP SWAP2 SWAP1 POP JUMP JUMPDEST PUSH1 0x0 DUP2 DUP4 PUSH1 0x0 ADD DUP1 SLOAD SWAP1 POP GT PUSH2 0x2009 JUMPI PUSH1 0x40 MLOAD PUSH32 0x8C379A000000000000000000000000000000000000000000000000000000000 DUP2 MSTORE PUSH1 0x4 ADD PUSH2 0x2000 SWAP1 PUSH2 0x2EAC JUMP JUMPDEST PUSH1 0x40 MLOAD DUP1 SWAP2 SUB SWAP1 REVERT JUMPDEST DUP3 PUSH1 0x0 ADD DUP3 DUP2 SLOAD DUP2 LT PUSH2 0x201F JUMPI PUSH2 0x201E PUSH2 0x2BCE JUMP JUMPDEST JUMPDEST SWAP1 PUSH1 0x0 MSTORE PUSH1 0x20 PUSH1 0x0 KECCAK256 ADD SLOAD SWAP1 POP SWAP3 SWAP2 POP POP JUMP JUMPDEST PUSH1 0x0 DUP2 SWAP1 POP SWAP2 SWAP1 POP JUMP JUMPDEST PUSH2 0x2045 DUP2 PUSH2 0x2032 JUMP JUMPDEST DUP3 MSTORE POP POP JUMP JUMPDEST PUSH1 0x0 PUSH1 0x20 DUP3 ADD SWAP1 POP PUSH2 0x2060 PUSH1 0x0 DUP4 ADD DUP5 PUSH2 0x203C JUMP JUMPDEST SWAP3 SWAP2 POP POP JUMP JUMPDEST PUSH1 0x0 DUP1 REVERT JUMPDEST PUSH1 0x0 DUP2 ISZERO ISZERO SWAP1 POP SWAP2 SWAP1 POP JUMP JUMPDEST PUSH2 0x2080 DUP2 PUSH2 0x206B JUMP JUMPDEST DUP2 EQ PUSH2 0x208B JUMPI PUSH1 0x0 DUP1 REVERT JUMPDEST POP JUMP JUMPDEST PUSH1 0x0 DUP2 CALLDATALOAD SWAP1 POP PUSH2 0x209D DUP2 PUSH2 0x2077 JUMP JUMPDEST SWAP3 SWAP2 POP POP JUMP JUMPDEST PUSH1 0x0 PUSH1 0x20 DUP3 DUP5 SUB SLT ISZERO PUSH2 0x20B9 JUMPI PUSH2 0x20B8 PUSH2 0x2066 JUMP JUMPDEST JUMPDEST PUSH1 0x0 PUSH2 0x20C7 DUP5 DUP3 DUP6 ADD PUSH2 0x208E JUMP JUMPDEST SWAP2 POP POP SWAP3 SWAP2 POP POP JUMP JUMPDEST PUSH1 0x0 PUSH20 0xFFFFFFFFFFFFFFFFFFFFFFFFFFFFFFFFFFFFFFFF DUP3 AND SWAP1 POP SWAP2 SWAP1 POP JUMP JUMPDEST PUSH1 0x0 PUSH2 0x20FB DUP3 PUSH2 0x20D0 JUMP JUMPDEST SWAP1 POP SWAP2 SWAP1 POP JUMP JUMPDEST PUSH2 0x210B DUP2 PUSH2 0x20F0 JUMP JUMPDEST DUP2 EQ PUSH2 0x2116 JUMPI PUSH1 0x0 DUP1 REVERT JUMPDEST POP JUMP JUMPDEST PUSH1 0x0 DUP2 CALLDATALOAD SWAP1 POP PUSH2 0x2128 DUP2 PUSH2 0x2102 JUMP JUMPDEST SWAP3 SWAP2 POP POP JUMP JUMPDEST PUSH1 0x0 PUSH1 0x20 DUP3 DUP5 SUB SLT ISZERO PUSH2 0x2144 JUMPI PUSH2 0x2143 PUSH2 0x2066 JUMP JUMPDEST JUMPDEST PUSH1 0x0 PUSH2 0x2152 DUP5 DUP3 DUP6 ADD PUSH2 0x2119 JUMP JUMPDEST SWAP2 POP POP SWAP3 SWAP2 POP POP JUMP JUMPDEST PUSH2 0x2164 DUP2 PUSH2 0x206B JUMP JUMPDEST DUP3 MSTORE POP POP JUMP JUMPDEST PUSH1 0x0 PUSH1 0x20 DUP3 ADD SWAP1 POP PUSH2 0x217F PUSH1 0x0 DUP4 ADD DUP5 PUSH2 0x215B JUMP JUMPDEST SWAP3 SWAP2 POP POP JUMP JUMPDEST PUSH2 0x218E DUP2 PUSH2 0x2032 JUMP JUMPDEST DUP2 EQ PUSH2 0x2199 JUMPI PUSH1 0x0 DUP1 REVERT JUMPDEST POP JUMP JUMPDEST PUSH1 0x0 DUP2 CALLDATALOAD SWAP1 POP PUSH2 0x21AB DUP2 PUSH2 0x2185 JUMP JUMPDEST SWAP3 SWAP2 POP POP JUMP JUMPDEST PUSH1 0x0 PUSH1 0x20 DUP3 DUP5 SUB SLT ISZERO PUSH2 0x21C7 JUMPI PUSH2 0x21C6 PUSH2 0x2066 JUMP JUMPDEST JUMPDEST PUSH1 0x0 PUSH2 0x21D5 DUP5 DUP3 DUP6 ADD PUSH2 0x219C JUMP JUMPDEST SWAP2 POP POP SWAP3 SWAP2 POP POP JUMP JUMPDEST PUSH2 0x21E7 DUP2 PUSH2 0x20F0 JUMP JUMPDEST DUP3 MSTORE POP POP JUMP JUMPDEST PUSH1 0x0 PUSH1 0x20 DUP3 ADD SWAP1 POP PUSH2 0x2202 PUSH1 0x0 DUP4 ADD DUP5 PUSH2 0x21DE JUMP JUMPDEST SWAP3 SWAP2 POP POP JUMP JUMPDEST PUSH1 0x0 DUP2 SWAP1 POP SWAP2 SWAP1 POP JUMP JUMPDEST PUSH1 0x0 PUSH2 0x222D PUSH2 0x2228 PUSH2 0x2223 DUP5 PUSH2 0x20D0 JUMP JUMPDEST PUSH2 0x2208 JUMP JUMPDEST PUSH2 0x20D0 JUMP JUMPDEST SWAP1 POP SWAP2 SWAP1 POP JUMP JUMPDEST PUSH1 0x0 PUSH2 0x223F DUP3 PUSH2 0x2212 JUMP JUMPDEST SWAP1 POP SWAP2 SWAP1 POP JUMP JUMPDEST PUSH1 0x0 PUSH2 0x2251 DUP3 PUSH2 0x2234 JUMP JUMPDEST SWAP1 POP SWAP2 SWAP1 POP JUMP JUMPDEST PUSH2 0x2261 DUP2 PUSH2 0x2246 JUMP JUMPDEST DUP3 MSTORE POP POP JUMP JUMPDEST PUSH1 0x0 PUSH1 0x20 DUP3 ADD SWAP1 POP PUSH2 0x227C PUSH1 0x0 DUP4 ADD DUP5 PUSH2 0x2258 JUMP JUMPDEST SWAP3 SWAP2 POP POP JUMP JUMPDEST PUSH1 0x0 DUP2 MLOAD SWAP1 POP SWAP2 SWAP1 POP JUMP JUMPDEST PUSH1 0x0 DUP3 DUP3 MSTORE PUSH1 0x20 DUP3 ADD SWAP1 POP SWAP3 SWAP2 POP POP JUMP JUMPDEST PUSH1 0x0 DUP2 SWAP1 POP PUSH1 0x20 DUP3 ADD SWAP1 POP SWAP2 SWAP1 POP JUMP JUMPDEST PUSH2 0x22B7 DUP2 PUSH2 0x20F0 JUMP JUMPDEST DUP3 MSTORE POP POP JUMP JUMPDEST PUSH1 0x0 PUSH2 0x22C9 DUP4 DUP4 PUSH2 0x22AE JUMP JUMPDEST PUSH1 0x20 DUP4 ADD SWAP1 POP SWAP3 SWAP2 POP POP JUMP JUMPDEST PUSH1 0x0 PUSH1 0x20 DUP3 ADD SWAP1 POP SWAP2 SWAP1 POP JUMP JUMPDEST PUSH1 0x0 PUSH2 0x22ED DUP3 PUSH2 0x2282 JUMP JUMPDEST PUSH2 0x22F7 DUP2 DUP6 PUSH2 0x228D JUMP JUMPDEST SWAP4 POP PUSH2 0x2302 DUP4 PUSH2 0x229E JUMP JUMPDEST DUP1 PUSH1 0x0 JUMPDEST DUP4 DUP2 LT ISZERO PUSH2 0x2333 JUMPI DUP2 MLOAD PUSH2 0x231A DUP9 DUP3 PUSH2 0x22BD JUMP JUMPDEST SWAP8 POP PUSH2 0x2325 DUP4 PUSH2 0x22D5 JUMP JUMPDEST SWAP3 POP POP PUSH1 0x1 DUP2 ADD SWAP1 POP PUSH2 0x2306 JUMP JUMPDEST POP DUP6 SWAP4 POP POP POP POP SWAP3 SWAP2 POP POP JUMP JUMPDEST PUSH1 0x0 PUSH1 0x20 DUP3 ADD SWAP1 POP DUP2 DUP2 SUB PUSH1 0x0 DUP4 ADD MSTORE PUSH2 0x235A DUP2 DUP5 PUSH2 0x22E2 JUMP JUMPDEST SWAP1 POP SWAP3 SWAP2 POP POP JUMP JUMPDEST PUSH1 0x0 PUSH2 0x236D DUP3 PUSH2 0x20F0 JUMP JUMPDEST SWAP1 POP SWAP2 SWAP1 POP JUMP JUMPDEST PUSH2 0x237D DUP2 PUSH2 0x2362 JUMP JUMPDEST DUP2 EQ PUSH2 0x2388 JUMPI PUSH1 0x0 DUP1 REVERT JUMPDEST POP JUMP JUMPDEST PUSH1 0x0 DUP2 CALLDATALOAD SWAP1 POP PUSH2 0x239A DUP2 PUSH2 0x2374 JUMP JUMPDEST SWAP3 SWAP2 POP POP JUMP JUMPDEST PUSH1 0x0 DUP1 PUSH1 0x40 DUP4 DUP6 SUB SLT ISZERO PUSH2 0x23B7 JUMPI PUSH2 0x23B6 PUSH2 0x2066 JUMP JUMPDEST JUMPDEST PUSH1 0x0 PUSH2 0x23C5 DUP6 DUP3 DUP7 ADD PUSH2 0x238B JUMP JUMPDEST SWAP3 POP POP PUSH1 0x20 PUSH2 0x23D6 DUP6 DUP3 DUP7 ADD PUSH2 0x208E JUMP JUMPDEST SWAP2 POP POP SWAP3 POP SWAP3 SWAP1 POP JUMP JUMPDEST PUSH1 0x0 PUSH1 0x80 DUP3 ADD SWAP1 POP PUSH2 0x23F5 PUSH1 0x0 DUP4 ADD DUP8 PUSH2 0x203C JUMP JUMPDEST PUSH2 0x2402 PUSH1 0x20 DUP4 ADD DUP7 PUSH2 0x203C JUMP JUMPDEST PUSH2 0x240F PUSH1 0x40 DUP4 ADD DUP6 PUSH2 0x203C JUMP JUMPDEST PUSH2 0x241C PUSH1 0x60 DUP4 ADD DUP5 PUSH2 0x203C JUMP JUMPDEST SWAP6 SWAP5 POP POP POP POP POP JUMP JUMPDEST PUSH1 0x0 PUSH2 0x2430 DUP3 PUSH2 0x2234 JUMP JUMPDEST SWAP1 POP SWAP2 SWAP1 POP JUMP JUMPDEST PUSH2 0x2440 DUP2 PUSH2 0x2425 JUMP JUMPDEST DUP3 MSTORE POP POP JUMP JUMPDEST PUSH1 0x0 PUSH1 0x20 DUP3 ADD SWAP1 POP PUSH2 0x245B PUSH1 0x0 DUP4 ADD DUP5 PUSH2 0x2437 JUMP JUMPDEST SWAP3 SWAP2 POP POP JUMP JUMPDEST PUSH1 0x0 DUP1 PUSH1 0x0 DUP1 PUSH1 0x80 DUP6 DUP8 SUB SLT ISZERO PUSH2 0x247B JUMPI PUSH2 0x247A PUSH2 0x2066 JUMP JUMPDEST JUMPDEST PUSH1 0x0 PUSH2 0x2489 DUP8 DUP3 DUP9 ADD PUSH2 0x2119 JUMP JUMPDEST SWAP5 POP POP PUSH1 0x20 PUSH2 0x249A DUP8 DUP3 DUP9 ADD PUSH2 0x2119 JUMP JUMPDEST SWAP4 POP POP PUSH1 0x40 PUSH2 0x24AB DUP8 DUP3 DUP9 ADD PUSH2 0x2119 JUMP JUMPDEST SWAP3 POP POP PUSH1 0x60 PUSH2 0x24BC DUP8 DUP3 DUP9 ADD PUSH2 0x208E JUMP JUMPDEST SWAP2 POP POP SWAP3 SWAP6 SWAP2 SWAP5 POP SWAP3 POP JUMP JUMPDEST PUSH1 0x0 DUP3 DUP3 MSTORE PUSH1 0x20 DUP3 ADD SWAP1 POP SWAP3 SWAP2 POP POP JUMP JUMPDEST PUSH32 0x41646D696E69737472617465643A204D73672073656E646572206973206E6F74 PUSH1 0x0 DUP3 ADD MSTORE PUSH32 0x2061646D696E0000000000000000000000000000000000000000000000000000 PUSH1 0x20 DUP3 ADD MSTORE POP JUMP JUMPDEST PUSH1 0x0 PUSH2 0x2535 PUSH1 0x26 DUP4 PUSH2 0x24C8 JUMP JUMPDEST SWAP2 POP PUSH2 0x2540 DUP3 PUSH2 0x24D9 JUMP JUMPDEST PUSH1 0x40 DUP3 ADD SWAP1 POP SWAP2 SWAP1 POP JUMP JUMPDEST PUSH1 0x0 PUSH1 0x20 DUP3 ADD SWAP1 POP DUP2 DUP2 SUB PUSH1 0x0 DUP4 ADD MSTORE PUSH2 0x2564 DUP2 PUSH2 0x2528 JUMP JUMPDEST SWAP1 POP SWAP2 SWAP1 POP JUMP JUMPDEST PUSH32 0x4F776E61626C653A2063616C6C6572206973206E6F7420746865206F776E6572 PUSH1 0x0 DUP3 ADD MSTORE POP JUMP JUMPDEST PUSH1 0x0 PUSH2 0x25A1 PUSH1 0x20 DUP4 PUSH2 0x24C8 JUMP JUMPDEST SWAP2 POP PUSH2 0x25AC DUP3 PUSH2 0x256B JUMP JUMPDEST PUSH1 0x20 DUP3 ADD SWAP1 POP SWAP2 SWAP1 POP JUMP JUMPDEST PUSH1 0x0 PUSH1 0x20 DUP3 ADD SWAP1 POP DUP2 DUP2 SUB PUSH1 0x0 DUP4 ADD MSTORE PUSH2 0x25D0 DUP2 PUSH2 0x2594 JUMP JUMPDEST SWAP1 POP SWAP2 SWAP1 POP JUMP JUMPDEST PUSH32 0x4F776E657220686173206E6F742062616C616E636520746F2077697468647261 PUSH1 0x0 DUP3 ADD MSTORE PUSH32 0x7700000000000000000000000000000000000000000000000000000000000000 PUSH1 0x20 DUP3 ADD MSTORE POP JUMP JUMPDEST PUSH1 0x0 PUSH2 0x2633 PUSH1 0x21 DUP4 PUSH2 0x24C8 JUMP JUMPDEST SWAP2 POP PUSH2 0x263E DUP3 PUSH2 0x25D7 JUMP JUMPDEST PUSH1 0x40 DUP3 ADD SWAP1 POP SWAP2 SWAP1 POP JUMP JUMPDEST PUSH1 0x0 PUSH1 0x20 DUP3 ADD SWAP1 POP DUP2 DUP2 SUB PUSH1 0x0 DUP4 ADD MSTORE PUSH2 0x2662 DUP2 PUSH2 0x2626 JUMP JUMPDEST SWAP1 POP SWAP2 SWAP1 POP JUMP JUMPDEST PUSH1 0x0 DUP2 SWAP1 POP SWAP3 SWAP2 POP POP JUMP JUMPDEST POP JUMP JUMPDEST PUSH1 0x0 PUSH2 0x2684 PUSH1 0x0 DUP4 PUSH2 0x2669 JUMP JUMPDEST SWAP2 POP PUSH2 0x268F DUP3 PUSH2 0x2674 JUMP JUMPDEST PUSH1 0x0 DUP3 ADD SWAP1 POP SWAP2 SWAP1 POP JUMP JUMPDEST PUSH1 0x0 PUSH2 0x26A5 DUP3 PUSH2 0x2677 JUMP JUMPDEST SWAP2 POP DUP2 SWAP1 POP SWAP2 SWAP1 POP JUMP JUMPDEST PUSH32 0x4661696C656420746F2073656E6420757365722062616C616E6365206261636B PUSH1 0x0 DUP3 ADD MSTORE PUSH32 0x20746F20746865206F776E657200000000000000000000000000000000000000 PUSH1 0x20 DUP3 ADD MSTORE POP JUMP JUMPDEST PUSH1 0x0 PUSH2 0x270B PUSH1 0x2D DUP4 PUSH2 0x24C8 JUMP JUMPDEST SWAP2 POP PUSH2 0x2716 DUP3 PUSH2 0x26AF JUMP JUMPDEST PUSH1 0x40 DUP3 ADD SWAP1 POP SWAP2 SWAP1 POP JUMP JUMPDEST PUSH1 0x0 PUSH1 0x20 DUP3 ADD SWAP1 POP DUP2 DUP2 SUB PUSH1 0x0 DUP4 ADD MSTORE PUSH2 0x273A DUP2 PUSH2 0x26FE JUMP JUMPDEST SWAP1 POP SWAP2 SWAP1 POP JUMP JUMPDEST PUSH32 0x53656E642045544820746F2062757920736F6D6520746F6B656E730000000000 PUSH1 0x0 DUP3 ADD MSTORE POP JUMP JUMPDEST PUSH1 0x0 PUSH2 0x2777 PUSH1 0x1B DUP4 PUSH2 0x24C8 JUMP JUMPDEST SWAP2 POP PUSH2 0x2782 DUP3 PUSH2 0x2741 JUMP JUMPDEST PUSH1 0x20 DUP3 ADD SWAP1 POP SWAP2 SWAP1 POP JUMP JUMPDEST PUSH1 0x0 PUSH1 0x20 DUP3 ADD SWAP1 POP DUP2 DUP2 SUB PUSH1 0x0 DUP4 ADD MSTORE PUSH2 0x27A6 DUP2 PUSH2 0x276A JUMP JUMPDEST SWAP1 POP SWAP2 SWAP1 POP JUMP JUMPDEST PUSH32 0x4F6E6C7920457468657220697320616C6C6F7765642100000000000000000000 PUSH1 0x0 DUP3 ADD MSTORE POP JUMP JUMPDEST PUSH1 0x0 PUSH2 0x27E3 PUSH1 0x16 DUP4 PUSH2 0x24C8 JUMP JUMPDEST SWAP2 POP PUSH2 0x27EE DUP3 PUSH2 0x27AD JUMP JUMPDEST PUSH1 0x20 DUP3 ADD SWAP1 POP SWAP2 SWAP1 POP JUMP JUMPDEST PUSH1 0x0 PUSH1 0x20 DUP3 ADD SWAP1 POP DUP2 DUP2 SUB PUSH1 0x0 DUP4 ADD MSTORE PUSH2 0x2812 DUP2 PUSH2 0x27D6 JUMP JUMPDEST SWAP1 POP SWAP2 SWAP1 POP JUMP JUMPDEST PUSH32 0x4E487B7100000000000000000000000000000000000000000000000000000000 PUSH1 0x0 MSTORE PUSH1 0x11 PUSH1 0x4 MSTORE PUSH1 0x24 PUSH1 0x0 REVERT JUMPDEST PUSH1 0x0 PUSH2 0x2853 DUP3 PUSH2 0x2032 JUMP JUMPDEST SWAP2 POP PUSH2 0x285E DUP4 PUSH2 0x2032 JUMP JUMPDEST SWAP3 POP DUP3 DUP3 MUL PUSH2 0x286C DUP2 PUSH2 0x2032 JUMP JUMPDEST SWAP2 POP DUP3 DUP3 DIV DUP5 EQ DUP4 ISZERO OR PUSH2 0x2883 JUMPI PUSH2 0x2882 PUSH2 0x2819 JUMP JUMPDEST JUMPDEST POP SWAP3 SWAP2 POP POP JUMP JUMPDEST PUSH1 0x0 DUP2 MLOAD SWAP1 POP PUSH2 0x2899 DUP2 PUSH2 0x2185 JUMP JUMPDEST SWAP3 SWAP2 POP POP JUMP JUMPDEST PUSH1 0x0 PUSH1 0x20 DUP3 DUP5 SUB SLT ISZERO PUSH2 0x28B5 JUMPI PUSH2 0x28B4 PUSH2 0x2066 JUMP JUMPDEST JUMPDEST PUSH1 0x0 PUSH2 0x28C3 DUP5 DUP3 DUP6 ADD PUSH2 0x288A JUMP JUMPDEST SWAP2 POP POP SWAP3 SWAP2 POP POP JUMP JUMPDEST PUSH32 0x56656E646F7220636F6E747261637420686173206E6F7420656E6F7567682074 PUSH1 0x0 DUP3 ADD MSTORE PUSH32 0x6F6B656E7320696E206974732062616C616E6365000000000000000000000000 PUSH1 0x20 DUP3 ADD MSTORE POP JUMP JUMPDEST PUSH1 0x0 PUSH2 0x2928 PUSH1 0x34 DUP4 PUSH2 0x24C8 JUMP JUMPDEST SWAP2 POP PUSH2 0x2933 DUP3 PUSH2 0x28CC JUMP JUMPDEST PUSH1 0x40 DUP3 ADD SWAP1 POP SWAP2 SWAP1 POP JUMP JUMPDEST PUSH1 0x0 PUSH1 0x20 DUP3 ADD SWAP1 POP DUP2 DUP2 SUB PUSH1 0x0 DUP4 ADD MSTORE PUSH2 0x2957 DUP2 PUSH2 0x291B JUMP JUMPDEST SWAP1 POP SWAP2 SWAP1 POP JUMP JUMPDEST PUSH1 0x0 PUSH1 0x40 DUP3 ADD SWAP1 POP PUSH2 0x2973 PUSH1 0x0 DUP4 ADD DUP6 PUSH2 0x21DE JUMP JUMPDEST PUSH2 0x2980 PUSH1 0x20 DUP4 ADD DUP5 PUSH2 0x203C JUMP JUMPDEST SWAP4 SWAP3 POP POP POP JUMP JUMPDEST PUSH1 0x0 DUP2 MLOAD SWAP1 POP PUSH2 0x2996 DUP2 PUSH2 0x2077 JUMP JUMPDEST SWAP3 SWAP2 POP POP JUMP JUMPDEST PUSH1 0x0 PUSH1 0x20 DUP3 DUP5 SUB SLT ISZERO PUSH2 0x29B2 JUMPI PUSH2 0x29B1 PUSH2 0x2066 JUMP JUMPDEST JUMPDEST PUSH1 0x0 PUSH2 0x29C0 DUP5 DUP3 DUP6 ADD PUSH2 0x2987 JUMP JUMPDEST SWAP2 POP POP SWAP3 SWAP2 POP POP JUMP JUMPDEST PUSH32 0x4661696C656420746F207472616E7366657220746F6B656E20746F2075736572 PUSH1 0x0 DUP3 ADD MSTORE POP JUMP JUMPDEST PUSH1 0x0 PUSH2 0x29FF PUSH1 0x20 DUP4 PUSH2 0x24C8 JUMP JUMPDEST SWAP2 POP PUSH2 0x2A0A DUP3 PUSH2 0x29C9 JUMP JUMPDEST PUSH1 0x20 DUP3 ADD SWAP1 POP SWAP2 SWAP1 POP JUMP JUMPDEST PUSH1 0x0 PUSH1 0x20 DUP3 ADD SWAP1 POP DUP2 DUP2 SUB PUSH1 0x0 DUP4 ADD MSTORE PUSH2 0x2A2E DUP2 PUSH2 0x29F2 JUMP JUMPDEST SWAP1 POP SWAP2 SWAP1 POP JUMP JUMPDEST PUSH32 0x5061757361626C653A206E6F7420706175736564000000000000000000000000 PUSH1 0x0 DUP3 ADD MSTORE POP JUMP JUMPDEST PUSH1 0x0 PUSH2 0x2A6B PUSH1 0x14 DUP4 PUSH2 0x24C8 JUMP JUMPDEST SWAP2 POP PUSH2 0x2A76 DUP3 PUSH2 0x2A35 JUMP JUMPDEST PUSH1 0x20 DUP3 ADD SWAP1 POP SWAP2 SWAP1 POP JUMP JUMPDEST PUSH1 0x0 PUSH1 0x20 DUP3 ADD SWAP1 POP DUP2 DUP2 SUB PUSH1 0x0 DUP4 ADD MSTORE PUSH2 0x2A9A DUP2 PUSH2 0x2A5E JUMP JUMPDEST SWAP1 POP SWAP2 SWAP1 POP JUMP JUMPDEST PUSH32 0x5061757361626C653A2070617573656400000000000000000000000000000000 PUSH1 0x0 DUP3 ADD MSTORE POP JUMP JUMPDEST PUSH1 0x0 PUSH2 0x2AD7 PUSH1 0x10 DUP4 PUSH2 0x24C8 JUMP JUMPDEST SWAP2 POP PUSH2 0x2AE2 DUP3 PUSH2 0x2AA1 JUMP JUMPDEST PUSH1 0x20 DUP3 ADD SWAP1 POP SWAP2 SWAP1 POP JUMP JUMPDEST PUSH1 0x0 PUSH1 0x20 DUP3 ADD SWAP1 POP DUP2 DUP2 SUB PUSH1 0x0 DUP4 ADD MSTORE PUSH2 0x2B06 DUP2 PUSH2 0x2ACA JUMP JUMPDEST SWAP1 POP SWAP2 SWAP1 POP JUMP JUMPDEST PUSH32 0x436F6E747261637420696E7374616E63652068617320616C7265616479206265 PUSH1 0x0 DUP3 ADD MSTORE PUSH32 0x656E20696E697469616C697A6564000000000000000000000000000000000000 PUSH1 0x20 DUP3 ADD MSTORE POP JUMP JUMPDEST PUSH1 0x0 PUSH2 0x2B69 PUSH1 0x2E DUP4 PUSH2 0x24C8 JUMP JUMPDEST SWAP2 POP PUSH2 0x2B74 DUP3 PUSH2 0x2B0D JUMP JUMPDEST PUSH1 0x40 DUP3 ADD SWAP1 POP SWAP2 SWAP1 POP JUMP JUMPDEST PUSH1 0x0 PUSH1 0x20 DUP3 ADD SWAP1 POP DUP2 DUP2 SUB PUSH1 0x0 DUP4 ADD MSTORE PUSH2 0x2B98 DUP2 PUSH2 0x2B5C JUMP JUMPDEST SWAP1 POP SWAP2 SWAP1 POP JUMP JUMPDEST PUSH32 0x4E487B7100000000000000000000000000000000000000000000000000000000 PUSH1 0x0 MSTORE PUSH1 0x41 PUSH1 0x4 MSTORE PUSH1 0x24 PUSH1 0x0 REVERT JUMPDEST PUSH32 0x4E487B7100000000000000000000000000000000000000000000000000000000 PUSH1 0x0 MSTORE PUSH1 0x32 PUSH1 0x4 MSTORE PUSH1 0x24 PUSH1 0x0 REVERT JUMPDEST PUSH1 0x0 PUSH2 0x2C08 DUP3 PUSH2 0x2032 JUMP JUMPDEST SWAP2 POP PUSH32 0xFFFFFFFFFFFFFFFFFFFFFFFFFFFFFFFFFFFFFFFFFFFFFFFFFFFFFFFFFFFFFFFF DUP3 SUB PUSH2 0x2C3A JUMPI PUSH2 0x2C39 PUSH2 0x2819 JUMP JUMPDEST JUMPDEST PUSH1 0x1 DUP3 ADD SWAP1 POP SWAP2 SWAP1 POP JUMP JUMPDEST PUSH32 0x536166654D6174683A206469766973696F6E206279207A65726F000000000000 PUSH1 0x0 DUP3 ADD MSTORE POP JUMP JUMPDEST PUSH1 0x0 PUSH2 0x2C7B PUSH1 0x1A DUP4 PUSH2 0x24C8 JUMP JUMPDEST SWAP2 POP PUSH2 0x2C86 DUP3 PUSH2 0x2C45 JUMP JUMPDEST PUSH1 0x20 DUP3 ADD SWAP1 POP SWAP2 SWAP1 POP JUMP JUMPDEST PUSH1 0x0 PUSH1 0x20 DUP3 ADD SWAP1 POP DUP2 DUP2 SUB PUSH1 0x0 DUP4 ADD MSTORE PUSH2 0x2CAA DUP2 PUSH2 0x2C6E JUMP JUMPDEST SWAP1 POP SWAP2 SWAP1 POP JUMP JUMPDEST PUSH32 0x4E487B7100000000000000000000000000000000000000000000000000000000 PUSH1 0x0 MSTORE PUSH1 0x12 PUSH1 0x4 MSTORE PUSH1 0x24 PUSH1 0x0 REVERT JUMPDEST PUSH1 0x0 PUSH2 0x2CEB DUP3 PUSH2 0x2032 JUMP JUMPDEST SWAP2 POP PUSH2 0x2CF6 DUP4 PUSH2 0x2032 JUMP JUMPDEST SWAP3 POP DUP3 PUSH2 0x2D06 JUMPI PUSH2 0x2D05 PUSH2 0x2CB1 JUMP JUMPDEST JUMPDEST DUP3 DUP3 DIV SWAP1 POP SWAP3 SWAP2 POP POP JUMP JUMPDEST PUSH32 0x4F776E61626C653A206E6577206F776E657220697320746865207A65726F2061 PUSH1 0x0 DUP3 ADD MSTORE PUSH32 0x6464726573730000000000000000000000000000000000000000000000000000 PUSH1 0x20 DUP3 ADD MSTORE POP JUMP JUMPDEST PUSH1 0x0 PUSH2 0x2D6D PUSH1 0x26 DUP4 PUSH2 0x24C8 JUMP JUMPDEST SWAP2 POP PUSH2 0x2D78 DUP3 PUSH2 0x2D11 JUMP JUMPDEST PUSH1 0x40 DUP3 ADD SWAP1 POP SWAP2 SWAP1 POP JUMP JUMPDEST PUSH1 0x0 PUSH1 0x20 DUP3 ADD SWAP1 POP DUP2 DUP2 SUB PUSH1 0x0 DUP4 ADD MSTORE PUSH2 0x2D9C DUP2 PUSH2 0x2D60 JUMP JUMPDEST SWAP1 POP SWAP2 SWAP1 POP JUMP JUMPDEST PUSH1 0x0 PUSH2 0x2DAE DUP3 PUSH2 0x2032 JUMP JUMPDEST SWAP2 POP PUSH2 0x2DB9 DUP4 PUSH2 0x2032 JUMP JUMPDEST SWAP3 POP DUP3 DUP3 SUB SWAP1 POP DUP2 DUP2 GT ISZERO PUSH2 0x2DD1 JUMPI PUSH2 0x2DD0 PUSH2 0x2819 JUMP JUMPDEST JUMPDEST SWAP3 SWAP2 POP POP JUMP JUMPDEST PUSH1 0x0 PUSH2 0x2DE2 DUP3 PUSH2 0x2032 JUMP JUMPDEST SWAP2 POP PUSH2 0x2DED DUP4 PUSH2 0x2032 JUMP JUMPDEST SWAP3 POP DUP3 DUP3 ADD SWAP1 POP DUP1 DUP3 GT ISZERO PUSH2 0x2E05 JUMPI PUSH2 0x2E04 PUSH2 0x2819 JUMP JUMPDEST JUMPDEST SWAP3 SWAP2 POP POP JUMP JUMPDEST PUSH32 0x4E487B7100000000000000000000000000000000000000000000000000000000 PUSH1 0x0 MSTORE PUSH1 0x31 PUSH1 0x4 MSTORE PUSH1 0x24 PUSH1 0x0 REVERT JUMPDEST PUSH32 0x456E756D657261626C655365743A20696E646578206F7574206F6620626F756E PUSH1 0x0 DUP3 ADD MSTORE PUSH32 0x6473000000000000000000000000000000000000000000000000000000000000 PUSH1 0x20 DUP3 ADD MSTORE POP JUMP JUMPDEST PUSH1 0x0 PUSH2 0x2E96 PUSH1 0x22 DUP4 PUSH2 0x24C8 JUMP JUMPDEST SWAP2 POP PUSH2 0x2EA1 DUP3 PUSH2 0x2E3A JUMP JUMPDEST PUSH1 0x40 DUP3 ADD SWAP1 POP SWAP2 SWAP1 POP JUMP JUMPDEST PUSH1 0x0 PUSH1 0x20 DUP3 ADD SWAP1 POP DUP2 DUP2 SUB PUSH1 0x0 DUP4 ADD MSTORE PUSH2 0x2EC5 DUP2 PUSH2 0x2E89 JUMP JUMPDEST SWAP1 POP SWAP2 SWAP1 POP JUMP INVALID LOG2 PUSH5 0x6970667358 0x22 SLT KECCAK256 ADDMOD 0xEA 0xFC 0xAE 0x4A LT LOG3 PUSH16 0x3C199FBE627F670E72C584802AC77CE0 0x5F 0xD1 0xC9 ADDRESS PUSH30 0x8542D664736F6C6343000812003300000000000000000000000000000000 "
				},
				"gasEstimates": {
					"creation": {
						"codeDepositCost": "2406800",
						"executionCost": "48963",
						"totalCost": "2455763"
					},
					"external": {
						"": "1771",
						"addAdmin(address)": "infinite",
						"buyTokens6Working()": "infinite",
						"buyTokens7()": "infinite",
						"convertWeiToEther(uint256)": "infinite",
						"customerTokenInfo(address)": "infinite",
						"getAdminCount()": "2611",
						"getAdminList()": "infinite",
						"getContractBalance()": "infinite",
						"getContractBalanceWholeTokens()": "infinite",
						"getTokenBalanceAnyWallet(address)": "infinite",
						"initialize(address)": "110662",
						"initialize(address,address,address,bool)": "infinite",
						"isAdmin(address)": "infinite",
						"isOwner()": "2643",
						"lastResultTokenAmount()": "2475",
						"owner()": "2612",
						"pause()": "infinite",
						"paused()": "2591",
						"removeAdmin(address)": "infinite",
						"renounceOwnership()": "30443",
						"setTokenSaleWhitelistRegistry(address,bool)": "infinite",
						"setWallet(address)": "infinite",
						"setWhitelistEnabled(bool)": "infinite",
						"tokenSaleWhitelistRegistry()": "infinite",
						"tokenToSell()": "infinite",
						"tokensPerEth()": "2540",
						"transferOwnership(address)": "30773",
						"unpause()": "infinite",
						"wallet()": "2604",
						"whitelistEnabled()": "2589",
						"withdraw()": "infinite"
					}
				},
				"methodIdentifiers": {
					"addAdmin(address)": "70480275",
					"buyTokens6Working()": "d0bab5b9",
					"buyTokens7()": "3e70c2f1",
					"convertWeiToEther(uint256)": "395a6063",
					"customerTokenInfo(address)": "ea39de98",
					"getAdminCount()": "8b7bf3eb",
					"getAdminList()": "d9f774fc",
					"getContractBalance()": "6f9fb98a",
					"getContractBalanceWholeTokens()": "921de99b",
					"getTokenBalanceAnyWallet(address)": "c68c4cc5",
					"initialize(address)": "c4d66de8",
					"initialize(address,address,address,bool)": "fecf9734",
					"isAdmin(address)": "24d7806c",
					"isOwner()": "8f32d59b",
					"lastResultTokenAmount()": "2f611f41",
					"owner()": "8da5cb5b",
					"pause()": "8456cb59",
					"paused()": "5c975abb",
					"removeAdmin(address)": "1785f53c",
					"renounceOwnership()": "715018a6",
					"setTokenSaleWhitelistRegistry(address,bool)": "dfc5d872",
					"setWallet(address)": "deaa59df",
					"setWhitelistEnabled(bool)": "052d9e7e",
					"tokenSaleWhitelistRegistry()": "f3ca7b41",
					"tokenToSell()": "6cd07154",
					"tokensPerEth()": "cbdd69b5",
					"transferOwnership(address)": "f2fde38b",
					"unpause()": "3f4ba83a",
					"wallet()": "521eb273",
					"whitelistEnabled()": "51fb012d",
					"withdraw()": "3ccfd60b"
				}
			},
			"storageLayout": {
				"storage": [
					{
						"astId": 1660,
						"contract": "contracts/WhitelistedTokenSale.sol:WhitelistedTokenSale",
						"label": "initialized",
						"offset": 0,
						"slot": "0",
						"type": "t_bool"
					},
					{
						"astId": 1663,
						"contract": "contracts/WhitelistedTokenSale.sol:WhitelistedTokenSale",
						"label": "initializing",
						"offset": 1,
						"slot": "0",
						"type": "t_bool"
					},
					{
						"astId": 1728,
						"contract": "contracts/WhitelistedTokenSale.sol:WhitelistedTokenSale",
						"label": "______gap",
						"offset": 0,
						"slot": "1",
						"type": "t_array(t_uint256)50_storage"
					},
					{
						"astId": 32,
						"contract": "contracts/WhitelistedTokenSale.sol:WhitelistedTokenSale",
						"label": "_owner",
						"offset": 0,
						"slot": "51",
						"type": "t_address"
					},
					{
						"astId": 156,
						"contract": "contracts/WhitelistedTokenSale.sol:WhitelistedTokenSale",
						"label": "______gap",
						"offset": 0,
						"slot": "52",
						"type": "t_array(t_uint256)50_storage"
					},
					{
						"astId": 2249,
						"contract": "contracts/WhitelistedTokenSale.sol:WhitelistedTokenSale",
						"label": "admins",
						"offset": 0,
						"slot": "102",
						"type": "t_struct(AddressSet)1427_storage"
					},
					{
						"astId": 2390,
						"contract": "contracts/WhitelistedTokenSale.sol:WhitelistedTokenSale",
						"label": "_paused",
						"offset": 0,
						"slot": "104",
						"type": "t_bool"
					},
					{
						"astId": 1759,
						"contract": "contracts/WhitelistedTokenSale.sol:WhitelistedTokenSale",
						"label": "tokenToSell",
						"offset": 1,
						"slot": "104",
						"type": "t_contract(IERC20)590"
					},
					{
						"astId": 1762,
						"contract": "contracts/WhitelistedTokenSale.sol:WhitelistedTokenSale",
						"label": "tokenSaleWhitelistRegistry",
						"offset": 0,
						"slot": "105",
						"type": "t_contract(ITokenSaleRegistry)2180"
					},
					{
						"astId": 1764,
						"contract": "contracts/WhitelistedTokenSale.sol:WhitelistedTokenSale",
						"label": "whitelistEnabled",
						"offset": 20,
						"slot": "105",
						"type": "t_bool"
					},
					{
						"astId": 1766,
						"contract": "contracts/WhitelistedTokenSale.sol:WhitelistedTokenSale",
						"label": "wallet",
						"offset": 0,
						"slot": "106",
						"type": "t_address"
					},
					{
						"astId": 1768,
						"contract": "contracts/WhitelistedTokenSale.sol:WhitelistedTokenSale",
						"label": "lastResultTokenAmount",
						"offset": 0,
						"slot": "107",
						"type": "t_uint256"
					},
					{
						"astId": 1783,
						"contract": "contracts/WhitelistedTokenSale.sol:WhitelistedTokenSale",
						"label": "tokensPerEth",
						"offset": 0,
						"slot": "108",
						"type": "t_uint256"
					},
					{
						"astId": 1797,
						"contract": "contracts/WhitelistedTokenSale.sol:WhitelistedTokenSale",
						"label": "customerTokenInfo",
						"offset": 0,
						"slot": "109",
						"type": "t_mapping(t_address,t_struct(TokenInfo)1792_storage)"
					}
				],
				"types": {
					"t_address": {
						"encoding": "inplace",
						"label": "address",
						"numberOfBytes": "20"
					},
					"t_array(t_bytes32)dyn_storage": {
						"base": "t_bytes32",
						"encoding": "dynamic_array",
						"label": "bytes32[]",
						"numberOfBytes": "32"
					},
					"t_array(t_uint256)50_storage": {
						"base": "t_uint256",
						"encoding": "inplace",
						"label": "uint256[50]",
						"numberOfBytes": "1600"
					},
					"t_bool": {
						"encoding": "inplace",
						"label": "bool",
						"numberOfBytes": "1"
					},
					"t_bytes32": {
						"encoding": "inplace",
						"label": "bytes32",
						"numberOfBytes": "32"
					},
					"t_contract(IERC20)590": {
						"encoding": "inplace",
						"label": "contract IERC20",
						"numberOfBytes": "20"
					},
					"t_contract(ITokenSaleRegistry)2180": {
						"encoding": "inplace",
						"label": "contract ITokenSaleRegistry",
						"numberOfBytes": "20"
					},
					"t_mapping(t_address,t_struct(TokenInfo)1792_storage)": {
						"encoding": "mapping",
						"key": "t_address",
						"label": "mapping(address => struct WhitelistedTokenSale.TokenInfo)",
						"numberOfBytes": "32",
						"value": "t_struct(TokenInfo)1792_storage"
					},
					"t_mapping(t_bytes32,t_uint256)": {
						"encoding": "mapping",
						"key": "t_bytes32",
						"label": "mapping(bytes32 => uint256)",
						"numberOfBytes": "32",
						"value": "t_uint256"
					},
					"t_struct(AddressSet)1427_storage": {
						"encoding": "inplace",
						"label": "struct EnumerableSet.AddressSet",
						"members": [
							{
								"astId": 1426,
								"contract": "contracts/WhitelistedTokenSale.sol:WhitelistedTokenSale",
								"label": "_inner",
								"offset": 0,
								"slot": "0",
								"type": "t_struct(Set)1150_storage"
							}
						],
						"numberOfBytes": "64"
					},
					"t_struct(Set)1150_storage": {
						"encoding": "inplace",
						"label": "struct EnumerableSet.Set",
						"members": [
							{
								"astId": 1145,
								"contract": "contracts/WhitelistedTokenSale.sol:WhitelistedTokenSale",
								"label": "_values",
								"offset": 0,
								"slot": "0",
								"type": "t_array(t_bytes32)dyn_storage"
							},
							{
								"astId": 1149,
								"contract": "contracts/WhitelistedTokenSale.sol:WhitelistedTokenSale",
								"label": "_indexes",
								"offset": 0,
								"slot": "1",
								"type": "t_mapping(t_bytes32,t_uint256)"
							}
						],
						"numberOfBytes": "64"
					},
					"t_struct(TokenInfo)1792_storage": {
						"encoding": "inplace",
						"label": "struct WhitelistedTokenSale.TokenInfo",
						"members": [
							{
								"astId": 1785,
								"contract": "contracts/WhitelistedTokenSale.sol:WhitelistedTokenSale",
								"label": "rateMul",
								"offset": 0,
								"slot": "0",
								"type": "t_uint256"
							},
							{
								"astId": 1787,
								"contract": "contracts/WhitelistedTokenSale.sol:WhitelistedTokenSale",
								"label": "rateDiv",
								"offset": 0,
								"slot": "1",
								"type": "t_uint256"
							},
							{
								"astId": 1789,
								"contract": "contracts/WhitelistedTokenSale.sol:WhitelistedTokenSale",
								"label": "totalReceived",
								"offset": 0,
								"slot": "2",
								"type": "t_uint256"
							},
							{
								"astId": 1791,
								"contract": "contracts/WhitelistedTokenSale.sol:WhitelistedTokenSale",
								"label": "totalSold",
								"offset": 0,
								"slot": "3",
								"type": "t_uint256"
							}
						],
						"numberOfBytes": "128"
					},
					"t_uint256": {
						"encoding": "inplace",
						"label": "uint256",
						"numberOfBytes": "32"
					}
				}
			},
			"userdoc": {
				"kind": "user",
				"methods": {
					"buyTokens6Working()": {
						"notice": "Allow users to buy token for ETH"
					},
					"buyTokens7()": {
						"notice": "Allow users to buy token for ETH"
					},
					"withdraw()": {
						"notice": "Allow the owner of the contract to withdraw ETH"
					}
				},
				"version": 1
			}
		}
	}
}