{
	"contracts/TokenSaleRegistry.sol": {
		"TokenSaleRegistry": {
			"abi": [
				{
					"anonymous": false,
					"inputs": [
						{
							"indexed": true,
							"internalType": "address",
							"name": "admin",
							"type": "address"
						}
					],
					"name": "AddAdmin",
					"type": "event"
				},
				{
					"anonymous": false,
					"inputs": [
						{
							"indexed": true,
							"internalType": "address",
							"name": "manager",
							"type": "address"
						},
						{
							"indexed": true,
							"internalType": "address",
							"name": "admin",
							"type": "address"
						}
					],
					"name": "AddManager",
					"type": "event"
				},
				{
					"anonymous": false,
					"inputs": [
						{
							"indexed": true,
							"internalType": "address",
							"name": "customer",
							"type": "address"
						},
						{
							"indexed": true,
							"internalType": "address",
							"name": "manager",
							"type": "address"
						}
					],
					"name": "AddWhitelistedCustomer",
					"type": "event"
				},
				{
					"anonymous": false,
					"inputs": [
						{
							"indexed": true,
							"internalType": "address",
							"name": "previousOwner",
							"type": "address"
						},
						{
							"indexed": true,
							"internalType": "address",
							"name": "newOwner",
							"type": "address"
						}
					],
					"name": "OwnershipTransferred",
					"type": "event"
				},
				{
					"anonymous": false,
					"inputs": [
						{
							"indexed": true,
							"internalType": "address",
							"name": "admin",
							"type": "address"
						}
					],
					"name": "RemoveAdmin",
					"type": "event"
				},
				{
					"anonymous": false,
					"inputs": [
						{
							"indexed": true,
							"internalType": "address",
							"name": "manager",
							"type": "address"
						},
						{
							"indexed": true,
							"internalType": "address",
							"name": "admin",
							"type": "address"
						}
					],
					"name": "RemoveManager",
					"type": "event"
				},
				{
					"anonymous": false,
					"inputs": [
						{
							"indexed": true,
							"internalType": "address",
							"name": "customer",
							"type": "address"
						},
						{
							"indexed": true,
							"internalType": "address",
							"name": "manager",
							"type": "address"
						}
					],
					"name": "RemoveWhitelistedCustomer",
					"type": "event"
				},
				{
					"inputs": [
						{
							"internalType": "address",
							"name": "_admin",
							"type": "address"
						}
					],
					"name": "addAdmin",
					"outputs": [],
					"stateMutability": "nonpayable",
					"type": "function"
				},
				{
					"inputs": [
						{
							"internalType": "address",
							"name": "_customer",
							"type": "address"
						}
					],
					"name": "addCustomerToWhiteList",
					"outputs": [],
					"stateMutability": "nonpayable",
					"type": "function"
				},
				{
					"inputs": [
						{
							"internalType": "address",
							"name": "_manager",
							"type": "address"
						}
					],
					"name": "addManager",
					"outputs": [],
					"stateMutability": "nonpayable",
					"type": "function"
				},
				{
					"inputs": [],
					"name": "getAdminCount",
					"outputs": [
						{
							"internalType": "uint256",
							"name": "",
							"type": "uint256"
						}
					],
					"stateMutability": "view",
					"type": "function"
				},
				{
					"inputs": [],
					"name": "getAdminList",
					"outputs": [
						{
							"internalType": "address[]",
							"name": "",
							"type": "address[]"
						}
					],
					"stateMutability": "view",
					"type": "function"
				},
				{
					"inputs": [],
					"name": "getCustomersWhiteList",
					"outputs": [
						{
							"internalType": "address[]",
							"name": "",
							"type": "address[]"
						}
					],
					"stateMutability": "view",
					"type": "function"
				},
				{
					"inputs": [],
					"name": "getCustomersWhiteListCount",
					"outputs": [
						{
							"internalType": "uint256",
							"name": "",
							"type": "uint256"
						}
					],
					"stateMutability": "view",
					"type": "function"
				},
				{
					"inputs": [],
					"name": "getManagerCount",
					"outputs": [
						{
							"internalType": "uint256",
							"name": "",
							"type": "uint256"
						}
					],
					"stateMutability": "view",
					"type": "function"
				},
				{
					"inputs": [],
					"name": "getManagerList",
					"outputs": [
						{
							"internalType": "address[]",
							"name": "",
							"type": "address[]"
						}
					],
					"stateMutability": "view",
					"type": "function"
				},
				{
					"inputs": [
						{
							"internalType": "address",
							"name": "_owner",
							"type": "address"
						}
					],
					"name": "initialize",
					"outputs": [],
					"stateMutability": "nonpayable",
					"type": "function"
				},
				{
					"inputs": [
						{
							"internalType": "address",
							"name": "_admin",
							"type": "address"
						}
					],
					"name": "isAdmin",
					"outputs": [
						{
							"internalType": "bool",
							"name": "",
							"type": "bool"
						}
					],
					"stateMutability": "view",
					"type": "function"
				},
				{
					"inputs": [
						{
							"internalType": "address",
							"name": "_customer",
							"type": "address"
						}
					],
					"name": "isCustomerInWhiteList",
					"outputs": [
						{
							"internalType": "bool",
							"name": "",
							"type": "bool"
						}
					],
					"stateMutability": "view",
					"type": "function"
				},
				{
					"inputs": [
						{
							"internalType": "address",
							"name": "_manager",
							"type": "address"
						}
					],
					"name": "isManager",
					"outputs": [
						{
							"internalType": "bool",
							"name": "",
							"type": "bool"
						}
					],
					"stateMutability": "view",
					"type": "function"
				},
				{
					"inputs": [],
					"name": "isOwner",
					"outputs": [
						{
							"internalType": "bool",
							"name": "",
							"type": "bool"
						}
					],
					"stateMutability": "view",
					"type": "function"
				},
				{
					"inputs": [],
					"name": "owner",
					"outputs": [
						{
							"internalType": "address",
							"name": "",
							"type": "address"
						}
					],
					"stateMutability": "view",
					"type": "function"
				},
				{
					"inputs": [
						{
							"internalType": "address",
							"name": "_admin",
							"type": "address"
						}
					],
					"name": "removeAdmin",
					"outputs": [],
					"stateMutability": "nonpayable",
					"type": "function"
				},
				{
					"inputs": [
						{
							"internalType": "address",
							"name": "_customer",
							"type": "address"
						}
					],
					"name": "removeCustomerFromWhiteList",
					"outputs": [],
					"stateMutability": "nonpayable",
					"type": "function"
				},
				{
					"inputs": [
						{
							"internalType": "address",
							"name": "_manager",
							"type": "address"
						}
					],
					"name": "removeManager",
					"outputs": [],
					"stateMutability": "nonpayable",
					"type": "function"
				},
				{
					"inputs": [],
					"name": "renounceOwnership",
					"outputs": [],
					"stateMutability": "nonpayable",
					"type": "function"
				},
				{
					"inputs": [
						{
							"internalType": "address",
							"name": "newOwner",
							"type": "address"
						}
					],
					"name": "transferOwnership",
					"outputs": [],
					"stateMutability": "nonpayable",
					"type": "function"
				},
				{
					"inputs": [
						{
							"internalType": "address",
							"name": "_customer",
							"type": "address"
						}
					],
					"name": "validateWhitelistedCustomer",
					"outputs": [],
					"stateMutability": "view",
					"type": "function"
				}
			],
			"devdoc": {
				"kind": "dev",
				"methods": {
					"isOwner()": {
						"details": "Returns true if the caller is the current owner."
					},
					"owner()": {
						"details": "Returns the address of the current owner."
					},
					"renounceOwnership()": {
						"details": "Leaves the contract without owner. It will not be possible to call `onlyOwner` functions anymore. Can only be called by the current owner. > Note: Renouncing ownership will leave the contract without an owner, thereby removing any functionality that is only available to the owner."
					},
					"transferOwnership(address)": {
						"details": "Transfers ownership of the contract to a new account (`newOwner`). Can only be called by the current owner."
					}
				},
				"version": 1
			},
			"evm": {
				"assembly": "    /* \"contracts/TokenSaleRegistry.sol\":644:2293  contract TokenSaleRegistry is Managed, ITokenSaleRegistry {... */\n  mstore(0x40, 0x80)\n  callvalue\n  dup1\n  iszero\n  tag_1\n  jumpi\n  0x00\n  dup1\n  revert\ntag_1:\n  pop\n  dataSize(sub_0)\n  dup1\n  dataOffset(sub_0)\n  0x00\n  codecopy\n  0x00\n  return\nstop\n\nsub_0: assembly {\n        /* \"contracts/TokenSaleRegistry.sol\":644:2293  contract TokenSaleRegistry is Managed, ITokenSaleRegistry {... */\n      mstore(0x40, 0x80)\n      callvalue\n      dup1\n      iszero\n      tag_1\n      jumpi\n      0x00\n      dup1\n      revert\n    tag_1:\n      pop\n      jumpi(tag_2, lt(calldatasize, 0x04))\n      shr(0xe0, calldataload(0x00))\n      dup1\n      0x8f32d59b\n      gt\n      tag_24\n      jumpi\n      dup1\n      0xc4d66de8\n      gt\n      tag_25\n      jumpi\n      dup1\n      0xc4d66de8\n      eq\n      tag_18\n      jumpi\n      dup1\n      0xcf928384\n      eq\n      tag_19\n      jumpi\n      dup1\n      0xd9f774fc\n      eq\n      tag_20\n      jumpi\n      dup1\n      0xf2fde38b\n      eq\n      tag_21\n      jumpi\n      dup1\n      0xf3ae2415\n      eq\n      tag_22\n      jumpi\n      dup1\n      0xf8c94ecf\n      eq\n      tag_23\n      jumpi\n      jump(tag_2)\n    tag_25:\n      dup1\n      0x8f32d59b\n      eq\n      tag_13\n      jumpi\n      dup1\n      0x941208e3\n      eq\n      tag_14\n      jumpi\n      dup1\n      0x9a718924\n      eq\n      tag_15\n      jumpi\n      dup1\n      0xac18de43\n      eq\n      tag_16\n      jumpi\n      dup1\n      0xb01cd323\n      eq\n      tag_17\n      jumpi\n      jump(tag_2)\n    tag_24:\n      dup1\n      0x70480275\n      gt\n      tag_26\n      jumpi\n      dup1\n      0x70480275\n      eq\n      tag_8\n      jumpi\n      dup1\n      0x715018a6\n      eq\n      tag_9\n      jumpi\n      dup1\n      0x8b7bf3eb\n      eq\n      tag_10\n      jumpi\n      dup1\n      0x8da5cb5b\n      eq\n      tag_11\n      jumpi\n      dup1\n      0x8ed40983\n      eq\n      tag_12\n      jumpi\n      jump(tag_2)\n    tag_26:\n      dup1\n      0x1785f53c\n      eq\n      tag_3\n      jumpi\n      dup1\n      0x24d7806c\n      eq\n      tag_4\n      jumpi\n      dup1\n      0x26b7b1c0\n      eq\n      tag_5\n      jumpi\n      dup1\n      0x2d06177a\n      eq\n      tag_6\n      jumpi\n      dup1\n      0x3b5a892a\n      eq\n      tag_7\n      jumpi\n    tag_2:\n      0x00\n      dup1\n      revert\n        /* \"contracts/traits/Administrated.sol\":1196:1314  function removeAdmin(address _admin) external onlyOwner {... */\n    tag_3:\n      tag_27\n      0x04\n      dup1\n      calldatasize\n      sub\n      dup2\n      add\n      swap1\n      tag_28\n      swap2\n      swap1\n      tag_29\n      jump\t// in\n    tag_28:\n      tag_30\n      jump\t// in\n    tag_27:\n      stop\n        /* \"contracts/traits/Administrated.sol\":1318:1419  function isAdmin(address _admin) public view returns (bool) {... */\n    tag_4:\n      tag_31\n      0x04\n      dup1\n      calldatasize\n      sub\n      dup2\n      add\n      swap1\n      tag_32\n      swap2\n      swap1\n      tag_29\n      jump\t// in\n    tag_32:\n      tag_33\n      jump\t// in\n    tag_31:\n      mload(0x40)\n      tag_34\n      swap2\n      swap1\n      tag_35\n      jump\t// in\n    tag_34:\n      mload(0x40)\n      dup1\n      swap2\n      sub\n      swap1\n      return\n        /* \"contracts/TokenSaleRegistry.sol\":1336:1477  function isCustomerInWhiteList(address _customer) external view returns (bool) {... */\n    tag_5:\n      tag_36\n      0x04\n      dup1\n      calldatasize\n      sub\n      dup2\n      add\n      swap1\n      tag_37\n      swap2\n      swap1\n      tag_29\n      jump\t// in\n    tag_37:\n      tag_38\n      jump\t// in\n    tag_36:\n      mload(0x40)\n      tag_39\n      swap2\n      swap1\n      tag_35\n      jump\t// in\n    tag_39:\n      mload(0x40)\n      dup1\n      swap2\n      sub\n      swap1\n      return\n        /* \"contracts/traits/Managed.sol\":1087:1220  function addManager(address _manager) external onlyAdmin {... */\n    tag_6:\n      tag_40\n      0x04\n      dup1\n      calldatasize\n      sub\n      dup2\n      add\n      swap1\n      tag_41\n      swap2\n      swap1\n      tag_29\n      jump\t// in\n    tag_41:\n      tag_42\n      jump\t// in\n    tag_40:\n      stop\n        /* \"contracts/TokenSaleRegistry.sol\":1675:2164  function getCustomersWhiteList() external view returns (address[] memory) {... */\n    tag_7:\n      tag_43\n      tag_44\n      jump\t// in\n    tag_43:\n      mload(0x40)\n      tag_45\n      swap2\n      swap1\n      tag_46\n      jump\t// in\n    tag_45:\n      mload(0x40)\n      dup1\n      swap2\n      sub\n      swap1\n      return\n        /* \"contracts/traits/Administrated.sol\":1083:1192  function addAdmin(address _admin) external onlyOwner {... */\n    tag_8:\n      tag_47\n      0x04\n      dup1\n      calldatasize\n      sub\n      dup2\n      add\n      swap1\n      tag_48\n      swap2\n      swap1\n      tag_29\n      jump\t// in\n    tag_48:\n      tag_49\n      jump\t// in\n    tag_47:\n      stop\n        /* \"@openzeppelin/contracts-ethereum-package/contracts/ownership/Ownable.sol\":1820:1957  function renounceOwnership() public onlyOwner {... */\n    tag_9:\n      tag_50\n      tag_51\n      jump\t// in\n    tag_50:\n      stop\n        /* \"contracts/traits/Administrated.sol\":1838:1928  function getAdminCount() external view returns (uint256) {... */\n    tag_10:\n      tag_52\n      tag_53\n      jump\t// in\n    tag_52:\n      mload(0x40)\n      tag_54\n      swap2\n      swap1\n      tag_55\n      jump\t// in\n    tag_54:\n      mload(0x40)\n      dup1\n      swap2\n      sub\n      swap1\n      return\n        /* \"@openzeppelin/contracts-ethereum-package/contracts/ownership/Ownable.sol\":1033:1110  function owner() public view returns (address) {... */\n    tag_11:\n      tag_56\n      tag_57\n      jump\t// in\n    tag_56:\n      mload(0x40)\n      tag_58\n      swap2\n      swap1\n      tag_59\n      jump\t// in\n    tag_58:\n      mload(0x40)\n      dup1\n      swap2\n      sub\n      swap1\n      return\n        /* \"contracts/TokenSaleRegistry.sol\":935:1124  function addCustomerToWhiteList(address _customer) external onlyAdminOrManager {... */\n    tag_12:\n      tag_60\n      0x04\n      dup1\n      calldatasize\n      sub\n      dup2\n      add\n      swap1\n      tag_61\n      swap2\n      swap1\n      tag_29\n      jump\t// in\n    tag_61:\n      tag_62\n      jump\t// in\n    tag_60:\n      stop\n        /* \"@openzeppelin/contracts-ethereum-package/contracts/ownership/Ownable.sol\":1384:1476  function isOwner() public view returns (bool) {... */\n    tag_13:\n      tag_63\n      tag_64\n      jump\t// in\n    tag_63:\n      mload(0x40)\n      tag_65\n      swap2\n      swap1\n      tag_35\n      jump\t// in\n    tag_65:\n      mload(0x40)\n      dup1\n      swap2\n      sub\n      swap1\n      return\n        /* \"contracts/TokenSaleRegistry.sol\":1130:1330  function removeCustomerFromWhiteList(address _customer) external onlyAdminOrManager {... */\n    tag_14:\n      tag_66\n      0x04\n      dup1\n      calldatasize\n      sub\n      dup2\n      add\n      swap1\n      tag_67\n      swap2\n      swap1\n      tag_29\n      jump\t// in\n    tag_67:\n      tag_68\n      jump\t// in\n    tag_66:\n      stop\n        /* \"contracts/TokenSaleRegistry.sol\":1483:1669  function validateWhitelistedCustomer(address _customer) external view {... */\n    tag_15:\n      tag_69\n      0x04\n      dup1\n      calldatasize\n      sub\n      dup2\n      add\n      swap1\n      tag_70\n      swap2\n      swap1\n      tag_29\n      jump\t// in\n    tag_70:\n      tag_71\n      jump\t// in\n    tag_69:\n      stop\n        /* \"contracts/traits/Managed.sol\":1224:1366  function removeManager(address _manager) external onlyAdmin {... */\n    tag_16:\n      tag_72\n      0x04\n      dup1\n      calldatasize\n      sub\n      dup2\n      add\n      swap1\n      tag_73\n      swap2\n      swap1\n      tag_29\n      jump\t// in\n    tag_73:\n      tag_74\n      jump\t// in\n    tag_72:\n      stop\n        /* \"contracts/traits/Managed.sol\":1483:1891  function getManagerList() external view returns (address[] memory) {... */\n    tag_17:\n      tag_75\n      tag_76\n      jump\t// in\n    tag_75:\n      mload(0x40)\n      tag_77\n      swap2\n      swap1\n      tag_46\n      jump\t// in\n    tag_77:\n      mload(0x40)\n      dup1\n      swap2\n      sub\n      swap1\n      return\n        /* \"contracts/TokenSaleRegistry.sol\":822:929  function initialize(address _owner) public override initializer {... */\n    tag_18:\n      tag_78\n      0x04\n      dup1\n      calldatasize\n      sub\n      dup2\n      add\n      swap1\n      tag_79\n      swap2\n      swap1\n      tag_29\n      jump\t// in\n    tag_79:\n      tag_80\n      jump\t// in\n    tag_78:\n      stop\n        /* \"contracts/traits/Managed.sol\":1895:1989  function getManagerCount() external view returns (uint256) {... */\n    tag_19:\n      tag_81\n      tag_82\n      jump\t// in\n    tag_81:\n      mload(0x40)\n      tag_83\n      swap2\n      swap1\n      tag_55\n      jump\t// in\n    tag_83:\n      mload(0x40)\n      dup1\n      swap2\n      sub\n      swap1\n      return\n        /* \"contracts/traits/Administrated.sol\":1423:1834  function getAdminList() external view returns (address[] memory) {... */\n    tag_20:\n      tag_84\n      tag_85\n      jump\t// in\n    tag_84:\n      mload(0x40)\n      tag_86\n      swap2\n      swap1\n      tag_46\n      jump\t// in\n    tag_86:\n      mload(0x40)\n      dup1\n      swap2\n      sub\n      swap1\n      return\n        /* \"@openzeppelin/contracts-ethereum-package/contracts/ownership/Ownable.sol\":2106:2213  function transferOwnership(address newOwner) public onlyOwner {... */\n    tag_21:\n      tag_87\n      0x04\n      dup1\n      calldatasize\n      sub\n      dup2\n      add\n      swap1\n      tag_88\n      swap2\n      swap1\n      tag_29\n      jump\t// in\n    tag_88:\n      tag_89\n      jump\t// in\n    tag_87:\n      stop\n        /* \"contracts/traits/Managed.sol\":1370:1479  function isManager(address _manager) public view returns (bool) {... */\n    tag_22:\n      tag_90\n      0x04\n      dup1\n      calldatasize\n      sub\n      dup2\n      add\n      swap1\n      tag_91\n      swap2\n      swap1\n      tag_29\n      jump\t// in\n    tag_91:\n      tag_92\n      jump\t// in\n    tag_90:\n      mload(0x40)\n      tag_93\n      swap2\n      swap1\n      tag_35\n      jump\t// in\n    tag_93:\n      mload(0x40)\n      dup1\n      swap2\n      sub\n      swap1\n      return\n        /* \"contracts/TokenSaleRegistry.sol\":2170:2291  function getCustomersWhiteListCount() external view returns (uint256) {... */\n    tag_23:\n      tag_94\n      tag_95\n      jump\t// in\n    tag_94:\n      mload(0x40)\n      tag_96\n      swap2\n      swap1\n      tag_55\n      jump\t// in\n    tag_96:\n      mload(0x40)\n      dup1\n      swap2\n      sub\n      swap1\n      return\n        /* \"contracts/traits/Administrated.sol\":1196:1314  function removeAdmin(address _admin) external onlyOwner {... */\n    tag_30:\n        /* \"@openzeppelin/contracts-ethereum-package/contracts/ownership/Ownable.sol\":1237:1246  isOwner() */\n      tag_98\n        /* \"@openzeppelin/contracts-ethereum-package/contracts/ownership/Ownable.sol\":1237:1244  isOwner */\n      tag_64\n        /* \"@openzeppelin/contracts-ethereum-package/contracts/ownership/Ownable.sol\":1237:1246  isOwner() */\n      jump\t// in\n    tag_98:\n        /* \"@openzeppelin/contracts-ethereum-package/contracts/ownership/Ownable.sol\":1229:1283  require(isOwner(), \"Ownable: caller is not the owner\") */\n      tag_99\n      jumpi\n      mload(0x40)\n      0x08c379a000000000000000000000000000000000000000000000000000000000\n      dup2\n      mstore\n      0x04\n      add\n      tag_100\n      swap1\n      tag_101\n      jump\t// in\n    tag_100:\n      mload(0x40)\n      dup1\n      swap2\n      sub\n      swap1\n      revert\n    tag_99:\n        /* \"contracts/traits/Administrated.sol\":1258:1279  admins.remove(_admin) */\n      tag_103\n        /* \"contracts/traits/Administrated.sol\":1272:1278  _admin */\n      dup2\n        /* \"contracts/traits/Administrated.sol\":1258:1264  admins */\n      0x66\n        /* \"contracts/traits/Administrated.sol\":1258:1271  admins.remove */\n      tag_104\n      swap1\n        /* \"contracts/traits/Administrated.sol\":1258:1279  admins.remove(_admin) */\n      swap2\n      swap1\n      0xffffffff\n      and\n      jump\t// in\n    tag_103:\n      pop\n        /* \"contracts/traits/Administrated.sol\":1302:1308  _admin */\n      dup1\n        /* \"contracts/traits/Administrated.sol\":1290:1309  RemoveAdmin(_admin) */\n      0xffffffffffffffffffffffffffffffffffffffff\n      and\n      0x753f40ca3312b2408759a67875b367955e7baa221daf08aa3d643d96202ac12b\n      mload(0x40)\n      mload(0x40)\n      dup1\n      swap2\n      sub\n      swap1\n      log2\n        /* \"contracts/traits/Administrated.sol\":1196:1314  function removeAdmin(address _admin) external onlyOwner {... */\n      pop\n      jump\t// out\n        /* \"contracts/traits/Administrated.sol\":1318:1419  function isAdmin(address _admin) public view returns (bool) {... */\n    tag_33:\n        /* \"contracts/traits/Administrated.sol\":1372:1376  bool */\n      0x00\n        /* \"contracts/traits/Administrated.sol\":1391:1414  admins.contains(_admin) */\n      tag_106\n        /* \"contracts/traits/Administrated.sol\":1407:1413  _admin */\n      dup3\n        /* \"contracts/traits/Administrated.sol\":1391:1397  admins */\n      0x66\n        /* \"contracts/traits/Administrated.sol\":1391:1406  admins.contains */\n      tag_107\n      swap1\n        /* \"contracts/traits/Administrated.sol\":1391:1414  admins.contains(_admin) */\n      swap2\n      swap1\n      0xffffffff\n      and\n      jump\t// in\n    tag_106:\n        /* \"contracts/traits/Administrated.sol\":1384:1414  return admins.contains(_admin) */\n      swap1\n      pop\n        /* \"contracts/traits/Administrated.sol\":1318:1419  function isAdmin(address _admin) public view returns (bool) {... */\n      swap2\n      swap1\n      pop\n      jump\t// out\n        /* \"contracts/TokenSaleRegistry.sol\":1336:1477  function isCustomerInWhiteList(address _customer) external view returns (bool) {... */\n    tag_38:\n        /* \"contracts/TokenSaleRegistry.sol\":1409:1413  bool */\n      0x00\n        /* \"contracts/TokenSaleRegistry.sol\":1432:1470  customersWhiteList.contains(_customer) */\n      tag_109\n        /* \"contracts/TokenSaleRegistry.sol\":1460:1469  _customer */\n      dup3\n        /* \"contracts/TokenSaleRegistry.sol\":1432:1450  customersWhiteList */\n      0x6a\n        /* \"contracts/TokenSaleRegistry.sol\":1432:1459  customersWhiteList.contains */\n      tag_107\n      swap1\n        /* \"contracts/TokenSaleRegistry.sol\":1432:1470  customersWhiteList.contains(_customer) */\n      swap2\n      swap1\n      0xffffffff\n      and\n      jump\t// in\n    tag_109:\n        /* \"contracts/TokenSaleRegistry.sol\":1425:1470  return customersWhiteList.contains(_customer) */\n      swap1\n      pop\n        /* \"contracts/TokenSaleRegistry.sol\":1336:1477  function isCustomerInWhiteList(address _customer) external view returns (bool) {... */\n      swap2\n      swap1\n      pop\n      jump\t// out\n        /* \"contracts/traits/Managed.sol\":1087:1220  function addManager(address _manager) external onlyAdmin {... */\n    tag_42:\n        /* \"contracts/traits/Administrated.sol\":983:1002  isAdmin(msg.sender) */\n      tag_111\n        /* \"contracts/traits/Administrated.sol\":991:1001  msg.sender */\n      caller\n        /* \"contracts/traits/Administrated.sol\":983:990  isAdmin */\n      tag_33\n        /* \"contracts/traits/Administrated.sol\":983:1002  isAdmin(msg.sender) */\n      jump\t// in\n    tag_111:\n        /* \"contracts/traits/Administrated.sol\":975:1045  require(isAdmin(msg.sender), \"Administrated: Msg sender is not admin\") */\n      tag_112\n      jumpi\n      mload(0x40)\n      0x08c379a000000000000000000000000000000000000000000000000000000000\n      dup2\n      mstore\n      0x04\n      add\n      tag_113\n      swap1\n      tag_114\n      jump\t// in\n    tag_113:\n      mload(0x40)\n      dup1\n      swap2\n      sub\n      swap1\n      revert\n    tag_112:\n        /* \"contracts/traits/Managed.sol\":1150:1172  managers.add(_manager) */\n      tag_116\n        /* \"contracts/traits/Managed.sol\":1163:1171  _manager */\n      dup2\n        /* \"contracts/traits/Managed.sol\":1150:1158  managers */\n      0x68\n        /* \"contracts/traits/Managed.sol\":1150:1162  managers.add */\n      tag_117\n      swap1\n        /* \"contracts/traits/Managed.sol\":1150:1172  managers.add(_manager) */\n      swap2\n      swap1\n      0xffffffff\n      and\n      jump\t// in\n    tag_116:\n      pop\n        /* \"contracts/traits/Managed.sol\":1204:1214  msg.sender */\n      caller\n        /* \"contracts/traits/Managed.sol\":1183:1215  AddManager(_manager, msg.sender) */\n      0xffffffffffffffffffffffffffffffffffffffff\n      and\n        /* \"contracts/traits/Managed.sol\":1194:1202  _manager */\n      dup2\n        /* \"contracts/traits/Managed.sol\":1183:1215  AddManager(_manager, msg.sender) */\n      0xffffffffffffffffffffffffffffffffffffffff\n      and\n      0x80dc3d87a7a642c46b6272b119f53d4db8aef58e5984b633f1055308b77dce6d\n      mload(0x40)\n      mload(0x40)\n      dup1\n      swap2\n      sub\n      swap1\n      log3\n        /* \"contracts/traits/Managed.sol\":1087:1220  function addManager(address _manager) external onlyAdmin {... */\n      pop\n      jump\t// out\n        /* \"contracts/TokenSaleRegistry.sol\":1675:2164  function getCustomersWhiteList() external view returns (address[] memory) {... */\n    tag_44:\n        /* \"contracts/TokenSaleRegistry.sol\":1731:1747  address[] memory */\n      0x60\n        /* \"contracts/TokenSaleRegistry.sol\":1910:1924  uint256 length */\n      0x00\n        /* \"contracts/TokenSaleRegistry.sol\":1927:1954  customersWhiteList.length() */\n      tag_119\n        /* \"contracts/TokenSaleRegistry.sol\":1927:1945  customersWhiteList */\n      0x6a\n        /* \"contracts/TokenSaleRegistry.sol\":1927:1952  customersWhiteList.length */\n      tag_120\n        /* \"contracts/TokenSaleRegistry.sol\":1927:1954  customersWhiteList.length() */\n      jump\t// in\n    tag_119:\n        /* \"contracts/TokenSaleRegistry.sol\":1910:1954  uint256 length = customersWhiteList.length() */\n      swap1\n      pop\n        /* \"contracts/TokenSaleRegistry.sol\":1964:1987  address[] memory tokens */\n      0x00\n        /* \"contracts/TokenSaleRegistry.sol\":2004:2010  length */\n      dup2\n        /* \"contracts/TokenSaleRegistry.sol\":1990:2011  new address[](length) */\n      0xffffffffffffffff\n      dup2\n      gt\n      iszero\n      tag_121\n      jumpi\n      tag_122\n      tag_123\n      jump\t// in\n    tag_122:\n    tag_121:\n      mload(0x40)\n      swap1\n      dup1\n      dup3\n      mstore\n      dup1\n      0x20\n      mul\n      0x20\n      add\n      dup3\n      add\n      0x40\n      mstore\n      dup1\n      iszero\n      tag_124\n      jumpi\n      dup2\n      0x20\n      add\n      0x20\n      dup3\n      mul\n      dup1\n      calldatasize\n      dup4\n      calldatacopy\n      dup1\n      dup3\n      add\n      swap2\n      pop\n      pop\n      swap1\n      pop\n    tag_124:\n      pop\n        /* \"contracts/TokenSaleRegistry.sol\":1964:2011  address[] memory tokens = new address[](length) */\n      swap1\n      pop\n        /* \"contracts/TokenSaleRegistry.sol\":2035:2044  uint256 i */\n      0x00\n        /* \"contracts/TokenSaleRegistry.sol\":2030:2126  for (uint256 i = 0; i < length; i++) {... */\n    tag_125:\n        /* \"contracts/TokenSaleRegistry.sol\":2054:2060  length */\n      dup3\n        /* \"contracts/TokenSaleRegistry.sol\":2050:2051  i */\n      dup2\n        /* \"contracts/TokenSaleRegistry.sol\":2050:2060  i < length */\n      lt\n        /* \"contracts/TokenSaleRegistry.sol\":2030:2126  for (uint256 i = 0; i < length; i++) {... */\n      iszero\n      tag_126\n      jumpi\n        /* \"contracts/TokenSaleRegistry.sol\":2091:2115  customersWhiteList.at(i) */\n      tag_128\n        /* \"contracts/TokenSaleRegistry.sol\":2113:2114  i */\n      dup2\n        /* \"contracts/TokenSaleRegistry.sol\":2091:2109  customersWhiteList */\n      0x6a\n        /* \"contracts/TokenSaleRegistry.sol\":2091:2112  customersWhiteList.at */\n      tag_129\n      swap1\n        /* \"contracts/TokenSaleRegistry.sol\":2091:2115  customersWhiteList.at(i) */\n      swap2\n      swap1\n      0xffffffff\n      and\n      jump\t// in\n    tag_128:\n        /* \"contracts/TokenSaleRegistry.sol\":2079:2085  tokens */\n      dup3\n        /* \"contracts/TokenSaleRegistry.sol\":2086:2087  i */\n      dup3\n        /* \"contracts/TokenSaleRegistry.sol\":2079:2088  tokens[i] */\n      dup2\n      mload\n      dup2\n      lt\n      tag_130\n      jumpi\n      tag_131\n      tag_132\n      jump\t// in\n    tag_131:\n    tag_130:\n      0x20\n      mul\n      0x20\n      add\n      add\n        /* \"contracts/TokenSaleRegistry.sol\":2079:2115  tokens[i] = customersWhiteList.at(i) */\n      swap1\n      0xffffffffffffffffffffffffffffffffffffffff\n      and\n      swap1\n      dup2\n      0xffffffffffffffffffffffffffffffffffffffff\n      and\n      dup2\n      mstore\n      pop\n      pop\n        /* \"contracts/TokenSaleRegistry.sol\":2062:2065  i++ */\n      dup1\n      dup1\n      tag_133\n      swap1\n      tag_134\n      jump\t// in\n    tag_133:\n      swap2\n      pop\n      pop\n        /* \"contracts/TokenSaleRegistry.sol\":2030:2126  for (uint256 i = 0; i < length; i++) {... */\n      jump(tag_125)\n    tag_126:\n      pop\n        /* \"contracts/TokenSaleRegistry.sol\":2151:2157  tokens */\n      dup1\n        /* \"contracts/TokenSaleRegistry.sol\":2144:2157  return tokens */\n      swap3\n      pop\n      pop\n      pop\n        /* \"contracts/TokenSaleRegistry.sol\":1675:2164  function getCustomersWhiteList() external view returns (address[] memory) {... */\n      swap1\n      jump\t// out\n        /* \"contracts/traits/Administrated.sol\":1083:1192  function addAdmin(address _admin) external onlyOwner {... */\n    tag_49:\n        /* \"@openzeppelin/contracts-ethereum-package/contracts/ownership/Ownable.sol\":1237:1246  isOwner() */\n      tag_136\n        /* \"@openzeppelin/contracts-ethereum-package/contracts/ownership/Ownable.sol\":1237:1244  isOwner */\n      tag_64\n        /* \"@openzeppelin/contracts-ethereum-package/contracts/ownership/Ownable.sol\":1237:1246  isOwner() */\n      jump\t// in\n    tag_136:\n        /* \"@openzeppelin/contracts-ethereum-package/contracts/ownership/Ownable.sol\":1229:1283  require(isOwner(), \"Ownable: caller is not the owner\") */\n      tag_137\n      jumpi\n      mload(0x40)\n      0x08c379a000000000000000000000000000000000000000000000000000000000\n      dup2\n      mstore\n      0x04\n      add\n      tag_138\n      swap1\n      tag_101\n      jump\t// in\n    tag_138:\n      mload(0x40)\n      dup1\n      swap2\n      sub\n      swap1\n      revert\n    tag_137:\n        /* \"contracts/traits/Administrated.sol\":1142:1160  admins.add(_admin) */\n      tag_140\n        /* \"contracts/traits/Administrated.sol\":1153:1159  _admin */\n      dup2\n        /* \"contracts/traits/Administrated.sol\":1142:1148  admins */\n      0x66\n        /* \"contracts/traits/Administrated.sol\":1142:1152  admins.add */\n      tag_117\n      swap1\n        /* \"contracts/traits/Administrated.sol\":1142:1160  admins.add(_admin) */\n      swap2\n      swap1\n      0xffffffff\n      and\n      jump\t// in\n    tag_140:\n      pop\n        /* \"contracts/traits/Administrated.sol\":1180:1186  _admin */\n      dup1\n        /* \"contracts/traits/Administrated.sol\":1171:1187  AddAdmin(_admin) */\n      0xffffffffffffffffffffffffffffffffffffffff\n      and\n      0xad6de4452a631e641cb59902236607946ce9272b9b981f2f80e8d129cb9084ba\n      mload(0x40)\n      mload(0x40)\n      dup1\n      swap2\n      sub\n      swap1\n      log2\n        /* \"contracts/traits/Administrated.sol\":1083:1192  function addAdmin(address _admin) external onlyOwner {... */\n      pop\n      jump\t// out\n        /* \"@openzeppelin/contracts-ethereum-package/contracts/ownership/Ownable.sol\":1820:1957  function renounceOwnership() public onlyOwner {... */\n    tag_51:\n        /* \"@openzeppelin/contracts-ethereum-package/contracts/ownership/Ownable.sol\":1237:1246  isOwner() */\n      tag_142\n        /* \"@openzeppelin/contracts-ethereum-package/contracts/ownership/Ownable.sol\":1237:1244  isOwner */\n      tag_64\n        /* \"@openzeppelin/contracts-ethereum-package/contracts/ownership/Ownable.sol\":1237:1246  isOwner() */\n      jump\t// in\n    tag_142:\n        /* \"@openzeppelin/contracts-ethereum-package/contracts/ownership/Ownable.sol\":1229:1283  require(isOwner(), \"Ownable: caller is not the owner\") */\n      tag_143\n      jumpi\n      mload(0x40)\n      0x08c379a000000000000000000000000000000000000000000000000000000000\n      dup2\n      mstore\n      0x04\n      add\n      tag_144\n      swap1\n      tag_101\n      jump\t// in\n    tag_144:\n      mload(0x40)\n      dup1\n      swap2\n      sub\n      swap1\n      revert\n    tag_143:\n        /* \"@openzeppelin/contracts-ethereum-package/contracts/ownership/Ownable.sol\":1918:1919  0 */\n      0x00\n        /* \"@openzeppelin/contracts-ethereum-package/contracts/ownership/Ownable.sol\":1881:1921  OwnershipTransferred(_owner, address(0)) */\n      0xffffffffffffffffffffffffffffffffffffffff\n      and\n        /* \"@openzeppelin/contracts-ethereum-package/contracts/ownership/Ownable.sol\":1902:1908  _owner */\n      0x33\n      0x00\n      swap1\n      sload\n      swap1\n      0x0100\n      exp\n      swap1\n      div\n      0xffffffffffffffffffffffffffffffffffffffff\n      and\n        /* \"@openzeppelin/contracts-ethereum-package/contracts/ownership/Ownable.sol\":1881:1921  OwnershipTransferred(_owner, address(0)) */\n      0xffffffffffffffffffffffffffffffffffffffff\n      and\n      0x8be0079c531659141344cd1fd0a4f28419497f9722a3daafe3b4186f6b6457e0\n      mload(0x40)\n      mload(0x40)\n      dup1\n      swap2\n      sub\n      swap1\n      log3\n        /* \"@openzeppelin/contracts-ethereum-package/contracts/ownership/Ownable.sol\":1948:1949  0 */\n      0x00\n        /* \"@openzeppelin/contracts-ethereum-package/contracts/ownership/Ownable.sol\":1931:1937  _owner */\n      0x33\n      0x00\n        /* \"@openzeppelin/contracts-ethereum-package/contracts/ownership/Ownable.sol\":1931:1950  _owner = address(0) */\n      0x0100\n      exp\n      dup2\n      sload\n      dup2\n      0xffffffffffffffffffffffffffffffffffffffff\n      mul\n      not\n      and\n      swap1\n      dup4\n      0xffffffffffffffffffffffffffffffffffffffff\n      and\n      mul\n      or\n      swap1\n      sstore\n      pop\n        /* \"@openzeppelin/contracts-ethereum-package/contracts/ownership/Ownable.sol\":1820:1957  function renounceOwnership() public onlyOwner {... */\n      jump\t// out\n        /* \"contracts/traits/Administrated.sol\":1838:1928  function getAdminCount() external view returns (uint256) {... */\n    tag_53:\n        /* \"contracts/traits/Administrated.sol\":1886:1893  uint256 */\n      0x00\n        /* \"contracts/traits/Administrated.sol\":1908:1923  admins.length() */\n      tag_147\n        /* \"contracts/traits/Administrated.sol\":1908:1914  admins */\n      0x66\n        /* \"contracts/traits/Administrated.sol\":1908:1921  admins.length */\n      tag_120\n        /* \"contracts/traits/Administrated.sol\":1908:1923  admins.length() */\n      jump\t// in\n    tag_147:\n        /* \"contracts/traits/Administrated.sol\":1901:1923  return admins.length() */\n      swap1\n      pop\n        /* \"contracts/traits/Administrated.sol\":1838:1928  function getAdminCount() external view returns (uint256) {... */\n      swap1\n      jump\t// out\n        /* \"@openzeppelin/contracts-ethereum-package/contracts/ownership/Ownable.sol\":1033:1110  function owner() public view returns (address) {... */\n    tag_57:\n        /* \"@openzeppelin/contracts-ethereum-package/contracts/ownership/Ownable.sol\":1071:1078  address */\n      0x00\n        /* \"@openzeppelin/contracts-ethereum-package/contracts/ownership/Ownable.sol\":1097:1103  _owner */\n      0x33\n      0x00\n      swap1\n      sload\n      swap1\n      0x0100\n      exp\n      swap1\n      div\n      0xffffffffffffffffffffffffffffffffffffffff\n      and\n        /* \"@openzeppelin/contracts-ethereum-package/contracts/ownership/Ownable.sol\":1090:1103  return _owner */\n      swap1\n      pop\n        /* \"@openzeppelin/contracts-ethereum-package/contracts/ownership/Ownable.sol\":1033:1110  function owner() public view returns (address) {... */\n      swap1\n      jump\t// out\n        /* \"contracts/TokenSaleRegistry.sol\":935:1124  function addCustomerToWhiteList(address _customer) external onlyAdminOrManager {... */\n    tag_62:\n        /* \"contracts/traits/Managed.sol\":862:881  isAdmin(msg.sender) */\n      tag_150\n        /* \"contracts/traits/Managed.sol\":870:880  msg.sender */\n      caller\n        /* \"contracts/traits/Managed.sol\":862:869  isAdmin */\n      tag_33\n        /* \"contracts/traits/Managed.sol\":862:881  isAdmin(msg.sender) */\n      jump\t// in\n    tag_150:\n        /* \"contracts/traits/Managed.sol\":862:906  isAdmin(msg.sender) || isManager(msg.sender) */\n      dup1\n      tag_151\n      jumpi\n      pop\n        /* \"contracts/traits/Managed.sol\":885:906  isManager(msg.sender) */\n      tag_152\n        /* \"contracts/traits/Managed.sol\":895:905  msg.sender */\n      caller\n        /* \"contracts/traits/Managed.sol\":885:894  isManager */\n      tag_92\n        /* \"contracts/traits/Managed.sol\":885:906  isManager(msg.sender) */\n      jump\t// in\n    tag_152:\n        /* \"contracts/traits/Managed.sol\":862:906  isAdmin(msg.sender) || isManager(msg.sender) */\n    tag_151:\n        /* \"contracts/traits/Managed.sol\":854:956  require(isAdmin(msg.sender) || isManager(msg.sender), \"Managered: Msg sender is not admin or manager\") */\n      tag_153\n      jumpi\n      mload(0x40)\n      0x08c379a000000000000000000000000000000000000000000000000000000000\n      dup2\n      mstore\n      0x04\n      add\n      tag_154\n      swap1\n      tag_155\n      jump\t// in\n    tag_154:\n      mload(0x40)\n      dup1\n      swap2\n      sub\n      swap1\n      revert\n    tag_153:\n        /* \"contracts/TokenSaleRegistry.sol\":1024:1057  customersWhiteList.add(_customer) */\n      tag_157\n        /* \"contracts/TokenSaleRegistry.sol\":1047:1056  _customer */\n      dup2\n        /* \"contracts/TokenSaleRegistry.sol\":1024:1042  customersWhiteList */\n      0x6a\n        /* \"contracts/TokenSaleRegistry.sol\":1024:1046  customersWhiteList.add */\n      tag_117\n      swap1\n        /* \"contracts/TokenSaleRegistry.sol\":1024:1057  customersWhiteList.add(_customer) */\n      swap2\n      swap1\n      0xffffffff\n      and\n      jump\t// in\n    tag_157:\n      pop\n        /* \"contracts/TokenSaleRegistry.sol\":1106:1116  msg.sender */\n      caller\n        /* \"contracts/TokenSaleRegistry.sol\":1072:1117  AddWhitelistedCustomer(_customer, msg.sender) */\n      0xffffffffffffffffffffffffffffffffffffffff\n      and\n        /* \"contracts/TokenSaleRegistry.sol\":1095:1104  _customer */\n      dup2\n        /* \"contracts/TokenSaleRegistry.sol\":1072:1117  AddWhitelistedCustomer(_customer, msg.sender) */\n      0xffffffffffffffffffffffffffffffffffffffff\n      and\n      0x2b80a7166094666d080c901ac2df54fb586e96001a35a0d2caacd94cf65e7db7\n      mload(0x40)\n      mload(0x40)\n      dup1\n      swap2\n      sub\n      swap1\n      log3\n        /* \"contracts/TokenSaleRegistry.sol\":935:1124  function addCustomerToWhiteList(address _customer) external onlyAdminOrManager {... */\n      pop\n      jump\t// out\n        /* \"@openzeppelin/contracts-ethereum-package/contracts/ownership/Ownable.sol\":1384:1476  function isOwner() public view returns (bool) {... */\n    tag_64:\n        /* \"@openzeppelin/contracts-ethereum-package/contracts/ownership/Ownable.sol\":1424:1428  bool */\n      0x00\n        /* \"@openzeppelin/contracts-ethereum-package/contracts/ownership/Ownable.sol\":1463:1469  _owner */\n      0x33\n      0x00\n      swap1\n      sload\n      swap1\n      0x0100\n      exp\n      swap1\n      div\n      0xffffffffffffffffffffffffffffffffffffffff\n      and\n        /* \"@openzeppelin/contracts-ethereum-package/contracts/ownership/Ownable.sol\":1447:1469  _msgSender() == _owner */\n      0xffffffffffffffffffffffffffffffffffffffff\n      and\n        /* \"@openzeppelin/contracts-ethereum-package/contracts/ownership/Ownable.sol\":1447:1459  _msgSender() */\n      tag_159\n        /* \"@openzeppelin/contracts-ethereum-package/contracts/ownership/Ownable.sol\":1447:1457  _msgSender */\n      tag_160\n        /* \"@openzeppelin/contracts-ethereum-package/contracts/ownership/Ownable.sol\":1447:1459  _msgSender() */\n      jump\t// in\n    tag_159:\n        /* \"@openzeppelin/contracts-ethereum-package/contracts/ownership/Ownable.sol\":1447:1469  _msgSender() == _owner */\n      0xffffffffffffffffffffffffffffffffffffffff\n      and\n      eq\n        /* \"@openzeppelin/contracts-ethereum-package/contracts/ownership/Ownable.sol\":1440:1469  return _msgSender() == _owner */\n      swap1\n      pop\n        /* \"@openzeppelin/contracts-ethereum-package/contracts/ownership/Ownable.sol\":1384:1476  function isOwner() public view returns (bool) {... */\n      swap1\n      jump\t// out\n        /* \"contracts/TokenSaleRegistry.sol\":1130:1330  function removeCustomerFromWhiteList(address _customer) external onlyAdminOrManager {... */\n    tag_68:\n        /* \"contracts/traits/Managed.sol\":862:881  isAdmin(msg.sender) */\n      tag_162\n        /* \"contracts/traits/Managed.sol\":870:880  msg.sender */\n      caller\n        /* \"contracts/traits/Managed.sol\":862:869  isAdmin */\n      tag_33\n        /* \"contracts/traits/Managed.sol\":862:881  isAdmin(msg.sender) */\n      jump\t// in\n    tag_162:\n        /* \"contracts/traits/Managed.sol\":862:906  isAdmin(msg.sender) || isManager(msg.sender) */\n      dup1\n      tag_163\n      jumpi\n      pop\n        /* \"contracts/traits/Managed.sol\":885:906  isManager(msg.sender) */\n      tag_164\n        /* \"contracts/traits/Managed.sol\":895:905  msg.sender */\n      caller\n        /* \"contracts/traits/Managed.sol\":885:894  isManager */\n      tag_92\n        /* \"contracts/traits/Managed.sol\":885:906  isManager(msg.sender) */\n      jump\t// in\n    tag_164:\n        /* \"contracts/traits/Managed.sol\":862:906  isAdmin(msg.sender) || isManager(msg.sender) */\n    tag_163:\n        /* \"contracts/traits/Managed.sol\":854:956  require(isAdmin(msg.sender) || isManager(msg.sender), \"Managered: Msg sender is not admin or manager\") */\n      tag_165\n      jumpi\n      mload(0x40)\n      0x08c379a000000000000000000000000000000000000000000000000000000000\n      dup2\n      mstore\n      0x04\n      add\n      tag_166\n      swap1\n      tag_155\n      jump\t// in\n    tag_166:\n      mload(0x40)\n      dup1\n      swap2\n      sub\n      swap1\n      revert\n    tag_165:\n        /* \"contracts/TokenSaleRegistry.sol\":1224:1260  customersWhiteList.remove(_customer) */\n      tag_168\n        /* \"contracts/TokenSaleRegistry.sol\":1250:1259  _customer */\n      dup2\n        /* \"contracts/TokenSaleRegistry.sol\":1224:1242  customersWhiteList */\n      0x6a\n        /* \"contracts/TokenSaleRegistry.sol\":1224:1249  customersWhiteList.remove */\n      tag_104\n      swap1\n        /* \"contracts/TokenSaleRegistry.sol\":1224:1260  customersWhiteList.remove(_customer) */\n      swap2\n      swap1\n      0xffffffff\n      and\n      jump\t// in\n    tag_168:\n      pop\n        /* \"contracts/TokenSaleRegistry.sol\":1312:1322  msg.sender */\n      caller\n        /* \"contracts/TokenSaleRegistry.sol\":1275:1323  RemoveWhitelistedCustomer(_customer, msg.sender) */\n      0xffffffffffffffffffffffffffffffffffffffff\n      and\n        /* \"contracts/TokenSaleRegistry.sol\":1301:1310  _customer */\n      dup2\n        /* \"contracts/TokenSaleRegistry.sol\":1275:1323  RemoveWhitelistedCustomer(_customer, msg.sender) */\n      0xffffffffffffffffffffffffffffffffffffffff\n      and\n      0xb5dc59fd5fd7f818cc36389dab245ac1e49cb5261773f5bba251cd049edd2c2f\n      mload(0x40)\n      mload(0x40)\n      dup1\n      swap2\n      sub\n      swap1\n      log3\n        /* \"contracts/TokenSaleRegistry.sol\":1130:1330  function removeCustomerFromWhiteList(address _customer) external onlyAdminOrManager {... */\n      pop\n      jump\t// out\n        /* \"contracts/TokenSaleRegistry.sol\":1483:1669  function validateWhitelistedCustomer(address _customer) external view {... */\n    tag_71:\n        /* \"contracts/TokenSaleRegistry.sol\":1571:1609  customersWhiteList.contains(_customer) */\n      tag_170\n        /* \"contracts/TokenSaleRegistry.sol\":1599:1608  _customer */\n      dup2\n        /* \"contracts/TokenSaleRegistry.sol\":1571:1589  customersWhiteList */\n      0x6a\n        /* \"contracts/TokenSaleRegistry.sol\":1571:1598  customersWhiteList.contains */\n      tag_107\n      swap1\n        /* \"contracts/TokenSaleRegistry.sol\":1571:1609  customersWhiteList.contains(_customer) */\n      swap2\n      swap1\n      0xffffffff\n      and\n      jump\t// in\n    tag_170:\n        /* \"contracts/TokenSaleRegistry.sol\":1563:1662  require(customersWhiteList.contains(_customer), \"TokenSaleRegistry: Recipient is not in whitelist\") */\n      tag_171\n      jumpi\n      mload(0x40)\n      0x08c379a000000000000000000000000000000000000000000000000000000000\n      dup2\n      mstore\n      0x04\n      add\n      tag_172\n      swap1\n      tag_173\n      jump\t// in\n    tag_172:\n      mload(0x40)\n      dup1\n      swap2\n      sub\n      swap1\n      revert\n    tag_171:\n        /* \"contracts/TokenSaleRegistry.sol\":1483:1669  function validateWhitelistedCustomer(address _customer) external view {... */\n      pop\n      jump\t// out\n        /* \"contracts/traits/Managed.sol\":1224:1366  function removeManager(address _manager) external onlyAdmin {... */\n    tag_74:\n        /* \"contracts/traits/Administrated.sol\":983:1002  isAdmin(msg.sender) */\n      tag_175\n        /* \"contracts/traits/Administrated.sol\":991:1001  msg.sender */\n      caller\n        /* \"contracts/traits/Administrated.sol\":983:990  isAdmin */\n      tag_33\n        /* \"contracts/traits/Administrated.sol\":983:1002  isAdmin(msg.sender) */\n      jump\t// in\n    tag_175:\n        /* \"contracts/traits/Administrated.sol\":975:1045  require(isAdmin(msg.sender), \"Administrated: Msg sender is not admin\") */\n      tag_176\n      jumpi\n      mload(0x40)\n      0x08c379a000000000000000000000000000000000000000000000000000000000\n      dup2\n      mstore\n      0x04\n      add\n      tag_177\n      swap1\n      tag_114\n      jump\t// in\n    tag_177:\n      mload(0x40)\n      dup1\n      swap2\n      sub\n      swap1\n      revert\n    tag_176:\n        /* \"contracts/traits/Managed.sol\":1290:1315  managers.remove(_manager) */\n      tag_179\n        /* \"contracts/traits/Managed.sol\":1306:1314  _manager */\n      dup2\n        /* \"contracts/traits/Managed.sol\":1290:1298  managers */\n      0x68\n        /* \"contracts/traits/Managed.sol\":1290:1305  managers.remove */\n      tag_104\n      swap1\n        /* \"contracts/traits/Managed.sol\":1290:1315  managers.remove(_manager) */\n      swap2\n      swap1\n      0xffffffff\n      and\n      jump\t// in\n    tag_179:\n      pop\n        /* \"contracts/traits/Managed.sol\":1350:1360  msg.sender */\n      caller\n        /* \"contracts/traits/Managed.sol\":1326:1361  RemoveManager(_manager, msg.sender) */\n      0xffffffffffffffffffffffffffffffffffffffff\n      and\n        /* \"contracts/traits/Managed.sol\":1340:1348  _manager */\n      dup2\n        /* \"contracts/traits/Managed.sol\":1326:1361  RemoveManager(_manager, msg.sender) */\n      0xffffffffffffffffffffffffffffffffffffffff\n      and\n      0x82854a3ef36f2eb671d3d796a049df4c263e4aae926ac9a7cf483fc411f8e90d\n      mload(0x40)\n      mload(0x40)\n      dup1\n      swap2\n      sub\n      swap1\n      log3\n        /* \"contracts/traits/Managed.sol\":1224:1366  function removeManager(address _manager) external onlyAdmin {... */\n      pop\n      jump\t// out\n        /* \"contracts/traits/Managed.sol\":1483:1891  function getManagerList() external view returns (address[] memory) {... */\n    tag_76:\n        /* \"contracts/traits/Managed.sol\":1532:1548  address[] memory */\n      0x60\n        /* \"contracts/traits/Managed.sol\":1687:1701  uint256 length */\n      0x00\n        /* \"contracts/traits/Managed.sol\":1704:1721  managers.length() */\n      tag_181\n        /* \"contracts/traits/Managed.sol\":1704:1712  managers */\n      0x68\n        /* \"contracts/traits/Managed.sol\":1704:1719  managers.length */\n      tag_120\n        /* \"contracts/traits/Managed.sol\":1704:1721  managers.length() */\n      jump\t// in\n    tag_181:\n        /* \"contracts/traits/Managed.sol\":1687:1721  uint256 length = managers.length() */\n      swap1\n      pop\n        /* \"contracts/traits/Managed.sol\":1727:1750  address[] memory tokens */\n      0x00\n        /* \"contracts/traits/Managed.sol\":1767:1773  length */\n      dup2\n        /* \"contracts/traits/Managed.sol\":1753:1774  new address[](length) */\n      0xffffffffffffffff\n      dup2\n      gt\n      iszero\n      tag_182\n      jumpi\n      tag_183\n      tag_123\n      jump\t// in\n    tag_183:\n    tag_182:\n      mload(0x40)\n      swap1\n      dup1\n      dup3\n      mstore\n      dup1\n      0x20\n      mul\n      0x20\n      add\n      dup3\n      add\n      0x40\n      mstore\n      dup1\n      iszero\n      tag_184\n      jumpi\n      dup2\n      0x20\n      add\n      0x20\n      dup3\n      mul\n      dup1\n      calldatasize\n      dup4\n      calldatacopy\n      dup1\n      dup3\n      add\n      swap2\n      pop\n      pop\n      swap1\n      pop\n    tag_184:\n      pop\n        /* \"contracts/traits/Managed.sol\":1727:1774  address[] memory tokens = new address[](length) */\n      swap1\n      pop\n        /* \"contracts/traits/Managed.sol\":1790:1799  uint256 i */\n      0x00\n        /* \"contracts/traits/Managed.sol\":1785:1863  for (uint256 i = 0; i < length; i++) {... */\n    tag_185:\n        /* \"contracts/traits/Managed.sol\":1809:1815  length */\n      dup3\n        /* \"contracts/traits/Managed.sol\":1805:1806  i */\n      dup2\n        /* \"contracts/traits/Managed.sol\":1805:1815  i < length */\n      lt\n        /* \"contracts/traits/Managed.sol\":1785:1863  for (uint256 i = 0; i < length; i++) {... */\n      iszero\n      tag_186\n      jumpi\n        /* \"contracts/traits/Managed.sol\":1842:1856  managers.at(i) */\n      tag_188\n        /* \"contracts/traits/Managed.sol\":1854:1855  i */\n      dup2\n        /* \"contracts/traits/Managed.sol\":1842:1850  managers */\n      0x68\n        /* \"contracts/traits/Managed.sol\":1842:1853  managers.at */\n      tag_129\n      swap1\n        /* \"contracts/traits/Managed.sol\":1842:1856  managers.at(i) */\n      swap2\n      swap1\n      0xffffffff\n      and\n      jump\t// in\n    tag_188:\n        /* \"contracts/traits/Managed.sol\":1830:1836  tokens */\n      dup3\n        /* \"contracts/traits/Managed.sol\":1837:1838  i */\n      dup3\n        /* \"contracts/traits/Managed.sol\":1830:1839  tokens[i] */\n      dup2\n      mload\n      dup2\n      lt\n      tag_189\n      jumpi\n      tag_190\n      tag_132\n      jump\t// in\n    tag_190:\n    tag_189:\n      0x20\n      mul\n      0x20\n      add\n      add\n        /* \"contracts/traits/Managed.sol\":1830:1856  tokens[i] = managers.at(i) */\n      swap1\n      0xffffffffffffffffffffffffffffffffffffffff\n      and\n      swap1\n      dup2\n      0xffffffffffffffffffffffffffffffffffffffff\n      and\n      dup2\n      mstore\n      pop\n      pop\n        /* \"contracts/traits/Managed.sol\":1817:1820  i++ */\n      dup1\n      dup1\n      tag_191\n      swap1\n      tag_134\n      jump\t// in\n    tag_191:\n      swap2\n      pop\n      pop\n        /* \"contracts/traits/Managed.sol\":1785:1863  for (uint256 i = 0; i < length; i++) {... */\n      jump(tag_185)\n    tag_186:\n      pop\n        /* \"contracts/traits/Managed.sol\":1880:1886  tokens */\n      dup1\n        /* \"contracts/traits/Managed.sol\":1873:1886  return tokens */\n      swap3\n      pop\n      pop\n      pop\n        /* \"contracts/traits/Managed.sol\":1483:1891  function getManagerList() external view returns (address[] memory) {... */\n      swap1\n      jump\t// out\n        /* \"contracts/TokenSaleRegistry.sol\":822:929  function initialize(address _owner) public override initializer {... */\n    tag_80:\n        /* \"@openzeppelin/upgrades/contracts/Initializable.sol\":1056:1068  initializing */\n      0x00\n      0x01\n      swap1\n      sload\n      swap1\n      0x0100\n      exp\n      swap1\n      div\n      0xff\n      and\n        /* \"@openzeppelin/upgrades/contracts/Initializable.sol\":1056:1087  initializing || isConstructor() */\n      dup1\n      tag_193\n      jumpi\n      pop\n        /* \"@openzeppelin/upgrades/contracts/Initializable.sol\":1072:1087  isConstructor() */\n      tag_194\n        /* \"@openzeppelin/upgrades/contracts/Initializable.sol\":1072:1085  isConstructor */\n      tag_195\n        /* \"@openzeppelin/upgrades/contracts/Initializable.sol\":1072:1087  isConstructor() */\n      jump\t// in\n    tag_194:\n        /* \"@openzeppelin/upgrades/contracts/Initializable.sol\":1056:1087  initializing || isConstructor() */\n    tag_193:\n        /* \"@openzeppelin/upgrades/contracts/Initializable.sol\":1056:1103  initializing || isConstructor() || !initialized */\n      dup1\n      tag_196\n      jumpi\n      pop\n        /* \"@openzeppelin/upgrades/contracts/Initializable.sol\":1092:1103  initialized */\n      0x00\n      dup1\n      sload\n      swap1\n      0x0100\n      exp\n      swap1\n      div\n      0xff\n      and\n        /* \"@openzeppelin/upgrades/contracts/Initializable.sol\":1091:1103  !initialized */\n      iszero\n        /* \"@openzeppelin/upgrades/contracts/Initializable.sol\":1056:1103  initializing || isConstructor() || !initialized */\n    tag_196:\n        /* \"@openzeppelin/upgrades/contracts/Initializable.sol\":1048:1154  require(initializing || isConstructor() || !initialized, \"Contract instance has already been initialized\") */\n      tag_197\n      jumpi\n      mload(0x40)\n      0x08c379a000000000000000000000000000000000000000000000000000000000\n      dup2\n      mstore\n      0x04\n      add\n      tag_198\n      swap1\n      tag_199\n      jump\t// in\n    tag_198:\n      mload(0x40)\n      dup1\n      swap2\n      sub\n      swap1\n      revert\n    tag_197:\n        /* \"@openzeppelin/upgrades/contracts/Initializable.sol\":1161:1180  bool isTopLevelCall */\n      0x00\n        /* \"@openzeppelin/upgrades/contracts/Initializable.sol\":1184:1196  initializing */\n      dup1\n      0x01\n      swap1\n      sload\n      swap1\n      0x0100\n      exp\n      swap1\n      div\n      0xff\n      and\n        /* \"@openzeppelin/upgrades/contracts/Initializable.sol\":1183:1196  !initializing */\n      iszero\n        /* \"@openzeppelin/upgrades/contracts/Initializable.sol\":1161:1196  bool isTopLevelCall = !initializing */\n      swap1\n      pop\n        /* \"@openzeppelin/upgrades/contracts/Initializable.sol\":1206:1220  isTopLevelCall */\n      dup1\n        /* \"@openzeppelin/upgrades/contracts/Initializable.sol\":1202:1282  if (isTopLevelCall) {... */\n      iszero\n      tag_200\n      jumpi\n        /* \"@openzeppelin/upgrades/contracts/Initializable.sol\":1245:1249  true */\n      0x01\n        /* \"@openzeppelin/upgrades/contracts/Initializable.sol\":1230:1242  initializing */\n      0x00\n      0x01\n        /* \"@openzeppelin/upgrades/contracts/Initializable.sol\":1230:1249  initializing = true */\n      0x0100\n      exp\n      dup2\n      sload\n      dup2\n      0xff\n      mul\n      not\n      and\n      swap1\n      dup4\n      iszero\n      iszero\n      mul\n      or\n      swap1\n      sstore\n      pop\n        /* \"@openzeppelin/upgrades/contracts/Initializable.sol\":1271:1275  true */\n      0x01\n        /* \"@openzeppelin/upgrades/contracts/Initializable.sol\":1257:1268  initialized */\n      0x00\n      dup1\n        /* \"@openzeppelin/upgrades/contracts/Initializable.sol\":1257:1275  initialized = true */\n      0x0100\n      exp\n      dup2\n      sload\n      dup2\n      0xff\n      mul\n      not\n      and\n      swap1\n      dup4\n      iszero\n      iszero\n      mul\n      or\n      swap1\n      sstore\n      pop\n        /* \"@openzeppelin/upgrades/contracts/Initializable.sol\":1202:1282  if (isTopLevelCall) {... */\n    tag_200:\n        /* \"contracts/TokenSaleRegistry.sol\":896:922  Ownable.initialize(_owner) */\n      tag_202\n        /* \"contracts/TokenSaleRegistry.sol\":915:921  _owner */\n      dup3\n        /* \"contracts/TokenSaleRegistry.sol\":896:914  Ownable.initialize */\n      tag_203\n        /* \"contracts/TokenSaleRegistry.sol\":896:922  Ownable.initialize(_owner) */\n      jump\t// in\n    tag_202:\n        /* \"@openzeppelin/upgrades/contracts/Initializable.sol\":1300:1314  isTopLevelCall */\n      dup1\n        /* \"@openzeppelin/upgrades/contracts/Initializable.sol\":1296:1351  if (isTopLevelCall) {... */\n      iszero\n      tag_204\n      jumpi\n        /* \"@openzeppelin/upgrades/contracts/Initializable.sol\":1339:1344  false */\n      0x00\n        /* \"@openzeppelin/upgrades/contracts/Initializable.sol\":1324:1336  initializing */\n      dup1\n      0x01\n        /* \"@openzeppelin/upgrades/contracts/Initializable.sol\":1324:1344  initializing = false */\n      0x0100\n      exp\n      dup2\n      sload\n      dup2\n      0xff\n      mul\n      not\n      and\n      swap1\n      dup4\n      iszero\n      iszero\n      mul\n      or\n      swap1\n      sstore\n      pop\n        /* \"@openzeppelin/upgrades/contracts/Initializable.sol\":1296:1351  if (isTopLevelCall) {... */\n    tag_204:\n        /* \"@openzeppelin/upgrades/contracts/Initializable.sol\":1042:1355  {... */\n      pop\n        /* \"contracts/TokenSaleRegistry.sol\":822:929  function initialize(address _owner) public override initializer {... */\n      pop\n      jump\t// out\n        /* \"contracts/traits/Managed.sol\":1895:1989  function getManagerCount() external view returns (uint256) {... */\n    tag_82:\n        /* \"contracts/traits/Managed.sol\":1945:1952  uint256 */\n      0x00\n        /* \"contracts/traits/Managed.sol\":1967:1984  managers.length() */\n      tag_206\n        /* \"contracts/traits/Managed.sol\":1967:1975  managers */\n      0x68\n        /* \"contracts/traits/Managed.sol\":1967:1982  managers.length */\n      tag_120\n        /* \"contracts/traits/Managed.sol\":1967:1984  managers.length() */\n      jump\t// in\n    tag_206:\n        /* \"contracts/traits/Managed.sol\":1960:1984  return managers.length() */\n      swap1\n      pop\n        /* \"contracts/traits/Managed.sol\":1895:1989  function getManagerCount() external view returns (uint256) {... */\n      swap1\n      jump\t// out\n        /* \"contracts/traits/Administrated.sol\":1423:1834  function getAdminList() external view returns (address[] memory) {... */\n    tag_85:\n        /* \"contracts/traits/Administrated.sol\":1470:1486  address[] memory */\n      0x60\n        /* \"contracts/traits/Administrated.sol\":1620:1634  uint256 length */\n      0x00\n        /* \"contracts/traits/Administrated.sol\":1637:1652  admins.length() */\n      tag_208\n        /* \"contracts/traits/Administrated.sol\":1637:1643  admins */\n      0x66\n        /* \"contracts/traits/Administrated.sol\":1637:1650  admins.length */\n      tag_120\n        /* \"contracts/traits/Administrated.sol\":1637:1652  admins.length() */\n      jump\t// in\n    tag_208:\n        /* \"contracts/traits/Administrated.sol\":1620:1652  uint256 length = admins.length() */\n      swap1\n      pop\n        /* \"contracts/traits/Administrated.sol\":1660:1683  address[] memory tokens */\n      0x00\n        /* \"contracts/traits/Administrated.sol\":1700:1706  length */\n      dup2\n        /* \"contracts/traits/Administrated.sol\":1686:1707  new address[](length) */\n      0xffffffffffffffff\n      dup2\n      gt\n      iszero\n      tag_209\n      jumpi\n      tag_210\n      tag_123\n      jump\t// in\n    tag_210:\n    tag_209:\n      mload(0x40)\n      swap1\n      dup1\n      dup3\n      mstore\n      dup1\n      0x20\n      mul\n      0x20\n      add\n      dup3\n      add\n      0x40\n      mstore\n      dup1\n      iszero\n      tag_211\n      jumpi\n      dup2\n      0x20\n      add\n      0x20\n      dup3\n      mul\n      dup1\n      calldatasize\n      dup4\n      calldatacopy\n      dup1\n      dup3\n      add\n      swap2\n      pop\n      pop\n      swap1\n      pop\n    tag_211:\n      pop\n        /* \"contracts/traits/Administrated.sol\":1660:1707  address[] memory tokens = new address[](length) */\n      swap1\n      pop\n        /* \"contracts/traits/Administrated.sol\":1727:1736  uint256 i */\n      0x00\n        /* \"contracts/traits/Administrated.sol\":1722:1802  for (uint256 i = 0; i < length; i++) {... */\n    tag_212:\n        /* \"contracts/traits/Administrated.sol\":1746:1752  length */\n      dup3\n        /* \"contracts/traits/Administrated.sol\":1742:1743  i */\n      dup2\n        /* \"contracts/traits/Administrated.sol\":1742:1752  i < length */\n      lt\n        /* \"contracts/traits/Administrated.sol\":1722:1802  for (uint256 i = 0; i < length; i++) {... */\n      iszero\n      tag_213\n      jumpi\n        /* \"contracts/traits/Administrated.sol\":1781:1793  admins.at(i) */\n      tag_215\n        /* \"contracts/traits/Administrated.sol\":1791:1792  i */\n      dup2\n        /* \"contracts/traits/Administrated.sol\":1781:1787  admins */\n      0x66\n        /* \"contracts/traits/Administrated.sol\":1781:1790  admins.at */\n      tag_129\n      swap1\n        /* \"contracts/traits/Administrated.sol\":1781:1793  admins.at(i) */\n      swap2\n      swap1\n      0xffffffff\n      and\n      jump\t// in\n    tag_215:\n        /* \"contracts/traits/Administrated.sol\":1769:1775  tokens */\n      dup3\n        /* \"contracts/traits/Administrated.sol\":1776:1777  i */\n      dup3\n        /* \"contracts/traits/Administrated.sol\":1769:1778  tokens[i] */\n      dup2\n      mload\n      dup2\n      lt\n      tag_216\n      jumpi\n      tag_217\n      tag_132\n      jump\t// in\n    tag_217:\n    tag_216:\n      0x20\n      mul\n      0x20\n      add\n      add\n        /* \"contracts/traits/Administrated.sol\":1769:1793  tokens[i] = admins.at(i) */\n      swap1\n      0xffffffffffffffffffffffffffffffffffffffff\n      and\n      swap1\n      dup2\n      0xffffffffffffffffffffffffffffffffffffffff\n      and\n      dup2\n      mstore\n      pop\n      pop\n        /* \"contracts/traits/Administrated.sol\":1754:1757  i++ */\n      dup1\n      dup1\n      tag_218\n      swap1\n      tag_134\n      jump\t// in\n    tag_218:\n      swap2\n      pop\n      pop\n        /* \"contracts/traits/Administrated.sol\":1722:1802  for (uint256 i = 0; i < length; i++) {... */\n      jump(tag_212)\n    tag_213:\n      pop\n        /* \"contracts/traits/Administrated.sol\":1823:1829  tokens */\n      dup1\n        /* \"contracts/traits/Administrated.sol\":1816:1829  return tokens */\n      swap3\n      pop\n      pop\n      pop\n        /* \"contracts/traits/Administrated.sol\":1423:1834  function getAdminList() external view returns (address[] memory) {... */\n      swap1\n      jump\t// out\n        /* \"@openzeppelin/contracts-ethereum-package/contracts/ownership/Ownable.sol\":2106:2213  function transferOwnership(address newOwner) public onlyOwner {... */\n    tag_89:\n        /* \"@openzeppelin/contracts-ethereum-package/contracts/ownership/Ownable.sol\":1237:1246  isOwner() */\n      tag_220\n        /* \"@openzeppelin/contracts-ethereum-package/contracts/ownership/Ownable.sol\":1237:1244  isOwner */\n      tag_64\n        /* \"@openzeppelin/contracts-ethereum-package/contracts/ownership/Ownable.sol\":1237:1246  isOwner() */\n      jump\t// in\n    tag_220:\n        /* \"@openzeppelin/contracts-ethereum-package/contracts/ownership/Ownable.sol\":1229:1283  require(isOwner(), \"Ownable: caller is not the owner\") */\n      tag_221\n      jumpi\n      mload(0x40)\n      0x08c379a000000000000000000000000000000000000000000000000000000000\n      dup2\n      mstore\n      0x04\n      add\n      tag_222\n      swap1\n      tag_101\n      jump\t// in\n    tag_222:\n      mload(0x40)\n      dup1\n      swap2\n      sub\n      swap1\n      revert\n    tag_221:\n        /* \"@openzeppelin/contracts-ethereum-package/contracts/ownership/Ownable.sol\":2178:2206  _transferOwnership(newOwner) */\n      tag_224\n        /* \"@openzeppelin/contracts-ethereum-package/contracts/ownership/Ownable.sol\":2197:2205  newOwner */\n      dup2\n        /* \"@openzeppelin/contracts-ethereum-package/contracts/ownership/Ownable.sol\":2178:2196  _transferOwnership */\n      tag_225\n        /* \"@openzeppelin/contracts-ethereum-package/contracts/ownership/Ownable.sol\":2178:2206  _transferOwnership(newOwner) */\n      jump\t// in\n    tag_224:\n        /* \"@openzeppelin/contracts-ethereum-package/contracts/ownership/Ownable.sol\":2106:2213  function transferOwnership(address newOwner) public onlyOwner {... */\n      pop\n      jump\t// out\n        /* \"contracts/traits/Managed.sol\":1370:1479  function isManager(address _manager) public view returns (bool) {... */\n    tag_92:\n        /* \"contracts/traits/Managed.sol\":1428:1432  bool */\n      0x00\n        /* \"contracts/traits/Managed.sol\":1447:1474  managers.contains(_manager) */\n      tag_227\n        /* \"contracts/traits/Managed.sol\":1465:1473  _manager */\n      dup3\n        /* \"contracts/traits/Managed.sol\":1447:1455  managers */\n      0x68\n        /* \"contracts/traits/Managed.sol\":1447:1464  managers.contains */\n      tag_107\n      swap1\n        /* \"contracts/traits/Managed.sol\":1447:1474  managers.contains(_manager) */\n      swap2\n      swap1\n      0xffffffff\n      and\n      jump\t// in\n    tag_227:\n        /* \"contracts/traits/Managed.sol\":1440:1474  return managers.contains(_manager) */\n      swap1\n      pop\n        /* \"contracts/traits/Managed.sol\":1370:1479  function isManager(address _manager) public view returns (bool) {... */\n      swap2\n      swap1\n      pop\n      jump\t// out\n        /* \"contracts/TokenSaleRegistry.sol\":2170:2291  function getCustomersWhiteListCount() external view returns (uint256) {... */\n    tag_95:\n        /* \"contracts/TokenSaleRegistry.sol\":2231:2238  uint256 */\n      0x00\n        /* \"contracts/TokenSaleRegistry.sol\":2257:2284  customersWhiteList.length() */\n      tag_229\n        /* \"contracts/TokenSaleRegistry.sol\":2257:2275  customersWhiteList */\n      0x6a\n        /* \"contracts/TokenSaleRegistry.sol\":2257:2282  customersWhiteList.length */\n      tag_120\n        /* \"contracts/TokenSaleRegistry.sol\":2257:2284  customersWhiteList.length() */\n      jump\t// in\n    tag_229:\n        /* \"contracts/TokenSaleRegistry.sol\":2250:2284  return customersWhiteList.length() */\n      swap1\n      pop\n        /* \"contracts/TokenSaleRegistry.sol\":2170:2291  function getCustomersWhiteListCount() external view returns (uint256) {... */\n      swap1\n      jump\t// out\n        /* \"@openzeppelin/contracts/utils/EnumerableSet.sol\":6747:6903  function remove(AddressSet storage set, address value) internal returns (bool) {... */\n    tag_104:\n        /* \"@openzeppelin/contracts/utils/EnumerableSet.sol\":6820:6824  bool */\n      0x00\n        /* \"@openzeppelin/contracts/utils/EnumerableSet.sol\":6843:6896  _remove(set._inner, bytes32(uint256(uint160(value)))) */\n      tag_231\n        /* \"@openzeppelin/contracts/utils/EnumerableSet.sol\":6851:6854  set */\n      dup4\n        /* \"@openzeppelin/contracts/utils/EnumerableSet.sol\":6851:6861  set._inner */\n      0x00\n      add\n        /* \"@openzeppelin/contracts/utils/EnumerableSet.sol\":6887:6892  value */\n      dup4\n        /* \"@openzeppelin/contracts/utils/EnumerableSet.sol\":6871:6894  uint256(uint160(value)) */\n      0xffffffffffffffffffffffffffffffffffffffff\n      and\n        /* \"@openzeppelin/contracts/utils/EnumerableSet.sol\":6863:6895  bytes32(uint256(uint160(value))) */\n      0x00\n      shl\n        /* \"@openzeppelin/contracts/utils/EnumerableSet.sol\":6843:6850  _remove */\n      tag_232\n        /* \"@openzeppelin/contracts/utils/EnumerableSet.sol\":6843:6896  _remove(set._inner, bytes32(uint256(uint160(value)))) */\n      jump\t// in\n    tag_231:\n        /* \"@openzeppelin/contracts/utils/EnumerableSet.sol\":6836:6896  return _remove(set._inner, bytes32(uint256(uint160(value)))) */\n      swap1\n      pop\n        /* \"@openzeppelin/contracts/utils/EnumerableSet.sol\":6747:6903  function remove(AddressSet storage set, address value) internal returns (bool) {... */\n      swap3\n      swap2\n      pop\n      pop\n      jump\t// out\n        /* \"@openzeppelin/contracts/utils/EnumerableSet.sol\":6984:7149  function contains(AddressSet storage set, address value) internal view returns (bool) {... */\n    tag_107:\n        /* \"@openzeppelin/contracts/utils/EnumerableSet.sol\":7064:7068  bool */\n      0x00\n        /* \"@openzeppelin/contracts/utils/EnumerableSet.sol\":7087:7142  _contains(set._inner, bytes32(uint256(uint160(value)))) */\n      tag_234\n        /* \"@openzeppelin/contracts/utils/EnumerableSet.sol\":7097:7100  set */\n      dup4\n        /* \"@openzeppelin/contracts/utils/EnumerableSet.sol\":7097:7107  set._inner */\n      0x00\n      add\n        /* \"@openzeppelin/contracts/utils/EnumerableSet.sol\":7133:7138  value */\n      dup4\n        /* \"@openzeppelin/contracts/utils/EnumerableSet.sol\":7117:7140  uint256(uint160(value)) */\n      0xffffffffffffffffffffffffffffffffffffffff\n      and\n        /* \"@openzeppelin/contracts/utils/EnumerableSet.sol\":7109:7141  bytes32(uint256(uint160(value))) */\n      0x00\n      shl\n        /* \"@openzeppelin/contracts/utils/EnumerableSet.sol\":7087:7096  _contains */\n      tag_235\n        /* \"@openzeppelin/contracts/utils/EnumerableSet.sol\":7087:7142  _contains(set._inner, bytes32(uint256(uint160(value)))) */\n      jump\t// in\n    tag_234:\n        /* \"@openzeppelin/contracts/utils/EnumerableSet.sol\":7080:7142  return _contains(set._inner, bytes32(uint256(uint160(value)))) */\n      swap1\n      pop\n        /* \"@openzeppelin/contracts/utils/EnumerableSet.sol\":6984:7149  function contains(AddressSet storage set, address value) internal view returns (bool) {... */\n      swap3\n      swap2\n      pop\n      pop\n      jump\t// out\n        /* \"@openzeppelin/contracts/utils/EnumerableSet.sol\":6429:6579  function add(AddressSet storage set, address value) internal returns (bool) {... */\n    tag_117:\n        /* \"@openzeppelin/contracts/utils/EnumerableSet.sol\":6499:6503  bool */\n      0x00\n        /* \"@openzeppelin/contracts/utils/EnumerableSet.sol\":6522:6572  _add(set._inner, bytes32(uint256(uint160(value)))) */\n      tag_237\n        /* \"@openzeppelin/contracts/utils/EnumerableSet.sol\":6527:6530  set */\n      dup4\n        /* \"@openzeppelin/contracts/utils/EnumerableSet.sol\":6527:6537  set._inner */\n      0x00\n      add\n        /* \"@openzeppelin/contracts/utils/EnumerableSet.sol\":6563:6568  value */\n      dup4\n        /* \"@openzeppelin/contracts/utils/EnumerableSet.sol\":6547:6570  uint256(uint160(value)) */\n      0xffffffffffffffffffffffffffffffffffffffff\n      and\n        /* \"@openzeppelin/contracts/utils/EnumerableSet.sol\":6539:6571  bytes32(uint256(uint160(value))) */\n      0x00\n      shl\n        /* \"@openzeppelin/contracts/utils/EnumerableSet.sol\":6522:6526  _add */\n      tag_238\n        /* \"@openzeppelin/contracts/utils/EnumerableSet.sol\":6522:6572  _add(set._inner, bytes32(uint256(uint160(value)))) */\n      jump\t// in\n    tag_237:\n        /* \"@openzeppelin/contracts/utils/EnumerableSet.sol\":6515:6572  return _add(set._inner, bytes32(uint256(uint160(value)))) */\n      swap1\n      pop\n        /* \"@openzeppelin/contracts/utils/EnumerableSet.sol\":6429:6579  function add(AddressSet storage set, address value) internal returns (bool) {... */\n      swap3\n      swap2\n      pop\n      pop\n      jump\t// out\n        /* \"@openzeppelin/contracts/utils/EnumerableSet.sol\":7230:7345  function length(AddressSet storage set) internal view returns (uint256) {... */\n    tag_120:\n        /* \"@openzeppelin/contracts/utils/EnumerableSet.sol\":7293:7300  uint256 */\n      0x00\n        /* \"@openzeppelin/contracts/utils/EnumerableSet.sol\":7319:7338  _length(set._inner) */\n      tag_240\n        /* \"@openzeppelin/contracts/utils/EnumerableSet.sol\":7327:7330  set */\n      dup3\n        /* \"@openzeppelin/contracts/utils/EnumerableSet.sol\":7327:7337  set._inner */\n      0x00\n      add\n        /* \"@openzeppelin/contracts/utils/EnumerableSet.sol\":7319:7326  _length */\n      tag_241\n        /* \"@openzeppelin/contracts/utils/EnumerableSet.sol\":7319:7338  _length(set._inner) */\n      jump\t// in\n    tag_240:\n        /* \"@openzeppelin/contracts/utils/EnumerableSet.sol\":7312:7338  return _length(set._inner) */\n      swap1\n      pop\n        /* \"@openzeppelin/contracts/utils/EnumerableSet.sol\":7230:7345  function length(AddressSet storage set) internal view returns (uint256) {... */\n      swap2\n      swap1\n      pop\n      jump\t// out\n        /* \"@openzeppelin/contracts/utils/EnumerableSet.sol\":7677:7833  function at(AddressSet storage set, uint256 index) internal view returns (address) {... */\n    tag_129:\n        /* \"@openzeppelin/contracts/utils/EnumerableSet.sol\":7751:7758  address */\n      0x00\n        /* \"@openzeppelin/contracts/utils/EnumerableSet.sol\":7801:7823  _at(set._inner, index) */\n      tag_243\n        /* \"@openzeppelin/contracts/utils/EnumerableSet.sol\":7805:7808  set */\n      dup4\n        /* \"@openzeppelin/contracts/utils/EnumerableSet.sol\":7805:7815  set._inner */\n      0x00\n      add\n        /* \"@openzeppelin/contracts/utils/EnumerableSet.sol\":7817:7822  index */\n      dup4\n        /* \"@openzeppelin/contracts/utils/EnumerableSet.sol\":7801:7804  _at */\n      tag_244\n        /* \"@openzeppelin/contracts/utils/EnumerableSet.sol\":7801:7823  _at(set._inner, index) */\n      jump\t// in\n    tag_243:\n        /* \"@openzeppelin/contracts/utils/EnumerableSet.sol\":7793:7824  uint256(_at(set._inner, index)) */\n      0x00\n      shr\n        /* \"@openzeppelin/contracts/utils/EnumerableSet.sol\":7770:7826  return address(uint160(uint256(_at(set._inner, index)))) */\n      swap1\n      pop\n        /* \"@openzeppelin/contracts/utils/EnumerableSet.sol\":7677:7833  function at(AddressSet storage set, uint256 index) internal view returns (address) {... */\n      swap3\n      swap2\n      pop\n      pop\n      jump\t// out\n        /* \"@openzeppelin/contracts-ethereum-package/contracts/GSN/Context.sol\":691:789  function _msgSender() internal view virtual returns (address) {... */\n    tag_160:\n        /* \"@openzeppelin/contracts-ethereum-package/contracts/GSN/Context.sol\":744:751  address */\n      0x00\n        /* \"@openzeppelin/contracts-ethereum-package/contracts/GSN/Context.sol\":771:781  msg.sender */\n      caller\n        /* \"@openzeppelin/contracts-ethereum-package/contracts/GSN/Context.sol\":764:781  return msg.sender */\n      swap1\n      pop\n        /* \"@openzeppelin/contracts-ethereum-package/contracts/GSN/Context.sol\":691:789  function _msgSender() internal view virtual returns (address) {... */\n      swap1\n      jump\t// out\n        /* \"@openzeppelin/upgrades/contracts/Initializable.sol\":1441:1939  function isConstructor() private view returns (bool) {... */\n    tag_195:\n        /* \"@openzeppelin/upgrades/contracts/Initializable.sol\":1488:1492  bool */\n      0x00\n        /* \"@openzeppelin/upgrades/contracts/Initializable.sol\":1829:1841  address self */\n      dup1\n        /* \"@openzeppelin/upgrades/contracts/Initializable.sol\":1852:1856  this */\n      address\n        /* \"@openzeppelin/upgrades/contracts/Initializable.sol\":1829:1857  address self = address(this) */\n      swap1\n      pop\n        /* \"@openzeppelin/upgrades/contracts/Initializable.sol\":1863:1873  uint256 cs */\n      0x00\n        /* \"@openzeppelin/upgrades/contracts/Initializable.sol\":1908:1912  self */\n      dup2\n        /* \"@openzeppelin/upgrades/contracts/Initializable.sol\":1896:1913  extcodesize(self) */\n      extcodesize\n        /* \"@openzeppelin/upgrades/contracts/Initializable.sol\":1890:1913  cs := extcodesize(self) */\n      swap1\n      pop\n        /* \"@openzeppelin/upgrades/contracts/Initializable.sol\":1933:1934  0 */\n      0x00\n        /* \"@openzeppelin/upgrades/contracts/Initializable.sol\":1927:1929  cs */\n      dup2\n        /* \"@openzeppelin/upgrades/contracts/Initializable.sol\":1927:1934  cs == 0 */\n      eq\n        /* \"@openzeppelin/upgrades/contracts/Initializable.sol\":1920:1934  return cs == 0 */\n      swap3\n      pop\n      pop\n      pop\n        /* \"@openzeppelin/upgrades/contracts/Initializable.sol\":1441:1939  function isConstructor() private view returns (bool) {... */\n      swap1\n      jump\t// out\n        /* \"@openzeppelin/contracts-ethereum-package/contracts/ownership/Ownable.sol\":807:957  function initialize(address sender) public virtual initializer {... */\n    tag_203:\n        /* \"@openzeppelin/upgrades/contracts/Initializable.sol\":1056:1068  initializing */\n      0x00\n      0x01\n      swap1\n      sload\n      swap1\n      0x0100\n      exp\n      swap1\n      div\n      0xff\n      and\n        /* \"@openzeppelin/upgrades/contracts/Initializable.sol\":1056:1087  initializing || isConstructor() */\n      dup1\n      tag_248\n      jumpi\n      pop\n        /* \"@openzeppelin/upgrades/contracts/Initializable.sol\":1072:1087  isConstructor() */\n      tag_249\n        /* \"@openzeppelin/upgrades/contracts/Initializable.sol\":1072:1085  isConstructor */\n      tag_195\n        /* \"@openzeppelin/upgrades/contracts/Initializable.sol\":1072:1087  isConstructor() */\n      jump\t// in\n    tag_249:\n        /* \"@openzeppelin/upgrades/contracts/Initializable.sol\":1056:1087  initializing || isConstructor() */\n    tag_248:\n        /* \"@openzeppelin/upgrades/contracts/Initializable.sol\":1056:1103  initializing || isConstructor() || !initialized */\n      dup1\n      tag_250\n      jumpi\n      pop\n        /* \"@openzeppelin/upgrades/contracts/Initializable.sol\":1092:1103  initialized */\n      0x00\n      dup1\n      sload\n      swap1\n      0x0100\n      exp\n      swap1\n      div\n      0xff\n      and\n        /* \"@openzeppelin/upgrades/contracts/Initializable.sol\":1091:1103  !initialized */\n      iszero\n        /* \"@openzeppelin/upgrades/contracts/Initializable.sol\":1056:1103  initializing || isConstructor() || !initialized */\n    tag_250:\n        /* \"@openzeppelin/upgrades/contracts/Initializable.sol\":1048:1154  require(initializing || isConstructor() || !initialized, \"Contract instance has already been initialized\") */\n      tag_251\n      jumpi\n      mload(0x40)\n      0x08c379a000000000000000000000000000000000000000000000000000000000\n      dup2\n      mstore\n      0x04\n      add\n      tag_252\n      swap1\n      tag_199\n      jump\t// in\n    tag_252:\n      mload(0x40)\n      dup1\n      swap2\n      sub\n      swap1\n      revert\n    tag_251:\n        /* \"@openzeppelin/upgrades/contracts/Initializable.sol\":1161:1180  bool isTopLevelCall */\n      0x00\n        /* \"@openzeppelin/upgrades/contracts/Initializable.sol\":1184:1196  initializing */\n      dup1\n      0x01\n      swap1\n      sload\n      swap1\n      0x0100\n      exp\n      swap1\n      div\n      0xff\n      and\n        /* \"@openzeppelin/upgrades/contracts/Initializable.sol\":1183:1196  !initializing */\n      iszero\n        /* \"@openzeppelin/upgrades/contracts/Initializable.sol\":1161:1196  bool isTopLevelCall = !initializing */\n      swap1\n      pop\n        /* \"@openzeppelin/upgrades/contracts/Initializable.sol\":1206:1220  isTopLevelCall */\n      dup1\n        /* \"@openzeppelin/upgrades/contracts/Initializable.sol\":1202:1282  if (isTopLevelCall) {... */\n      iszero\n      tag_253\n      jumpi\n        /* \"@openzeppelin/upgrades/contracts/Initializable.sol\":1245:1249  true */\n      0x01\n        /* \"@openzeppelin/upgrades/contracts/Initializable.sol\":1230:1242  initializing */\n      0x00\n      0x01\n        /* \"@openzeppelin/upgrades/contracts/Initializable.sol\":1230:1249  initializing = true */\n      0x0100\n      exp\n      dup2\n      sload\n      dup2\n      0xff\n      mul\n      not\n      and\n      swap1\n      dup4\n      iszero\n      iszero\n      mul\n      or\n      swap1\n      sstore\n      pop\n        /* \"@openzeppelin/upgrades/contracts/Initializable.sol\":1271:1275  true */\n      0x01\n        /* \"@openzeppelin/upgrades/contracts/Initializable.sol\":1257:1268  initialized */\n      0x00\n      dup1\n        /* \"@openzeppelin/upgrades/contracts/Initializable.sol\":1257:1275  initialized = true */\n      0x0100\n      exp\n      dup2\n      sload\n      dup2\n      0xff\n      mul\n      not\n      and\n      swap1\n      dup4\n      iszero\n      iszero\n      mul\n      or\n      swap1\n      sstore\n      pop\n        /* \"@openzeppelin/upgrades/contracts/Initializable.sol\":1202:1282  if (isTopLevelCall) {... */\n    tag_253:\n        /* \"@openzeppelin/contracts-ethereum-package/contracts/ownership/Ownable.sol\":889:895  sender */\n      dup2\n        /* \"@openzeppelin/contracts-ethereum-package/contracts/ownership/Ownable.sol\":880:886  _owner */\n      0x33\n      0x00\n        /* \"@openzeppelin/contracts-ethereum-package/contracts/ownership/Ownable.sol\":880:895  _owner = sender */\n      0x0100\n      exp\n      dup2\n      sload\n      dup2\n      0xffffffffffffffffffffffffffffffffffffffff\n      mul\n      not\n      and\n      swap1\n      dup4\n      0xffffffffffffffffffffffffffffffffffffffff\n      and\n      mul\n      or\n      swap1\n      sstore\n      pop\n        /* \"@openzeppelin/contracts-ethereum-package/contracts/ownership/Ownable.sol\":943:949  _owner */\n      0x33\n      0x00\n      swap1\n      sload\n      swap1\n      0x0100\n      exp\n      swap1\n      div\n      0xffffffffffffffffffffffffffffffffffffffff\n      and\n        /* \"@openzeppelin/contracts-ethereum-package/contracts/ownership/Ownable.sol\":910:950  OwnershipTransferred(address(0), _owner) */\n      0xffffffffffffffffffffffffffffffffffffffff\n      and\n        /* \"@openzeppelin/contracts-ethereum-package/contracts/ownership/Ownable.sol\":939:940  0 */\n      0x00\n        /* \"@openzeppelin/contracts-ethereum-package/contracts/ownership/Ownable.sol\":910:950  OwnershipTransferred(address(0), _owner) */\n      0xffffffffffffffffffffffffffffffffffffffff\n      and\n      0x8be0079c531659141344cd1fd0a4f28419497f9722a3daafe3b4186f6b6457e0\n      mload(0x40)\n      mload(0x40)\n      dup1\n      swap2\n      sub\n      swap1\n      log3\n        /* \"@openzeppelin/upgrades/contracts/Initializable.sol\":1300:1314  isTopLevelCall */\n      dup1\n        /* \"@openzeppelin/upgrades/contracts/Initializable.sol\":1296:1351  if (isTopLevelCall) {... */\n      iszero\n      tag_255\n      jumpi\n        /* \"@openzeppelin/upgrades/contracts/Initializable.sol\":1339:1344  false */\n      0x00\n        /* \"@openzeppelin/upgrades/contracts/Initializable.sol\":1324:1336  initializing */\n      dup1\n      0x01\n        /* \"@openzeppelin/upgrades/contracts/Initializable.sol\":1324:1344  initializing = false */\n      0x0100\n      exp\n      dup2\n      sload\n      dup2\n      0xff\n      mul\n      not\n      and\n      swap1\n      dup4\n      iszero\n      iszero\n      mul\n      or\n      swap1\n      sstore\n      pop\n        /* \"@openzeppelin/upgrades/contracts/Initializable.sol\":1296:1351  if (isTopLevelCall) {... */\n    tag_255:\n        /* \"@openzeppelin/upgrades/contracts/Initializable.sol\":1042:1355  {... */\n      pop\n        /* \"@openzeppelin/contracts-ethereum-package/contracts/ownership/Ownable.sol\":807:957  function initialize(address sender) public virtual initializer {... */\n      pop\n      jump\t// out\n        /* \"@openzeppelin/contracts-ethereum-package/contracts/ownership/Ownable.sol\":2314:2539  function _transferOwnership(address newOwner) internal {... */\n    tag_225:\n        /* \"@openzeppelin/contracts-ethereum-package/contracts/ownership/Ownable.sol\":2407:2408  0 */\n      0x00\n        /* \"@openzeppelin/contracts-ethereum-package/contracts/ownership/Ownable.sol\":2387:2409  newOwner != address(0) */\n      0xffffffffffffffffffffffffffffffffffffffff\n      and\n        /* \"@openzeppelin/contracts-ethereum-package/contracts/ownership/Ownable.sol\":2387:2395  newOwner */\n      dup2\n        /* \"@openzeppelin/contracts-ethereum-package/contracts/ownership/Ownable.sol\":2387:2409  newOwner != address(0) */\n      0xffffffffffffffffffffffffffffffffffffffff\n      and\n      sub\n        /* \"@openzeppelin/contracts-ethereum-package/contracts/ownership/Ownable.sol\":2379:2452  require(newOwner != address(0), \"Ownable: new owner is the zero address\") */\n      tag_257\n      jumpi\n      mload(0x40)\n      0x08c379a000000000000000000000000000000000000000000000000000000000\n      dup2\n      mstore\n      0x04\n      add\n      tag_258\n      swap1\n      tag_259\n      jump\t// in\n    tag_258:\n      mload(0x40)\n      dup1\n      swap2\n      sub\n      swap1\n      revert\n    tag_257:\n        /* \"@openzeppelin/contracts-ethereum-package/contracts/ownership/Ownable.sol\":2496:2504  newOwner */\n      dup1\n        /* \"@openzeppelin/contracts-ethereum-package/contracts/ownership/Ownable.sol\":2467:2505  OwnershipTransferred(_owner, newOwner) */\n      0xffffffffffffffffffffffffffffffffffffffff\n      and\n        /* \"@openzeppelin/contracts-ethereum-package/contracts/ownership/Ownable.sol\":2488:2494  _owner */\n      0x33\n      0x00\n      swap1\n      sload\n      swap1\n      0x0100\n      exp\n      swap1\n      div\n      0xffffffffffffffffffffffffffffffffffffffff\n      and\n        /* \"@openzeppelin/contracts-ethereum-package/contracts/ownership/Ownable.sol\":2467:2505  OwnershipTransferred(_owner, newOwner) */\n      0xffffffffffffffffffffffffffffffffffffffff\n      and\n      0x8be0079c531659141344cd1fd0a4f28419497f9722a3daafe3b4186f6b6457e0\n      mload(0x40)\n      mload(0x40)\n      dup1\n      swap2\n      sub\n      swap1\n      log3\n        /* \"@openzeppelin/contracts-ethereum-package/contracts/ownership/Ownable.sol\":2524:2532  newOwner */\n      dup1\n        /* \"@openzeppelin/contracts-ethereum-package/contracts/ownership/Ownable.sol\":2515:2521  _owner */\n      0x33\n      0x00\n        /* \"@openzeppelin/contracts-ethereum-package/contracts/ownership/Ownable.sol\":2515:2532  _owner = newOwner */\n      0x0100\n      exp\n      dup2\n      sload\n      dup2\n      0xffffffffffffffffffffffffffffffffffffffff\n      mul\n      not\n      and\n      swap1\n      dup4\n      0xffffffffffffffffffffffffffffffffffffffff\n      and\n      mul\n      or\n      swap1\n      sstore\n      pop\n        /* \"@openzeppelin/contracts-ethereum-package/contracts/ownership/Ownable.sol\":2314:2539  function _transferOwnership(address newOwner) internal {... */\n      pop\n      jump\t// out\n        /* \"@openzeppelin/contracts/utils/EnumerableSet.sol\":2212:3724  function _remove(Set storage set, bytes32 value) private returns (bool) {... */\n    tag_232:\n        /* \"@openzeppelin/contracts/utils/EnumerableSet.sol\":2278:2282  bool */\n      0x00\n        /* \"@openzeppelin/contracts/utils/EnumerableSet.sol\":2394:2412  uint256 valueIndex */\n      dup1\n        /* \"@openzeppelin/contracts/utils/EnumerableSet.sol\":2415:2418  set */\n      dup4\n        /* \"@openzeppelin/contracts/utils/EnumerableSet.sol\":2415:2427  set._indexes */\n      0x01\n      add\n        /* \"@openzeppelin/contracts/utils/EnumerableSet.sol\":2415:2434  set._indexes[value] */\n      0x00\n        /* \"@openzeppelin/contracts/utils/EnumerableSet.sol\":2428:2433  value */\n      dup5\n        /* \"@openzeppelin/contracts/utils/EnumerableSet.sol\":2415:2434  set._indexes[value] */\n      dup2\n      mstore\n      0x20\n      add\n      swap1\n      dup2\n      mstore\n      0x20\n      add\n      0x00\n      keccak256\n      sload\n        /* \"@openzeppelin/contracts/utils/EnumerableSet.sol\":2394:2434  uint256 valueIndex = set._indexes[value] */\n      swap1\n      pop\n        /* \"@openzeppelin/contracts/utils/EnumerableSet.sol\":2463:2464  0 */\n      0x00\n        /* \"@openzeppelin/contracts/utils/EnumerableSet.sol\":2449:2459  valueIndex */\n      dup2\n        /* \"@openzeppelin/contracts/utils/EnumerableSet.sol\":2449:2464  valueIndex != 0 */\n      eq\n        /* \"@openzeppelin/contracts/utils/EnumerableSet.sol\":2445:3718  if (valueIndex != 0) { // Equivalent to contains(set, value)... */\n      tag_261\n      jumpi\n        /* \"@openzeppelin/contracts/utils/EnumerableSet.sol\":2806:2827  uint256 toDeleteIndex */\n      0x00\n        /* \"@openzeppelin/contracts/utils/EnumerableSet.sol\":2843:2844  1 */\n      0x01\n        /* \"@openzeppelin/contracts/utils/EnumerableSet.sol\":2830:2840  valueIndex */\n      dup3\n        /* \"@openzeppelin/contracts/utils/EnumerableSet.sol\":2830:2844  valueIndex - 1 */\n      tag_262\n      swap2\n      swap1\n      tag_263\n      jump\t// in\n    tag_262:\n        /* \"@openzeppelin/contracts/utils/EnumerableSet.sol\":2806:2844  uint256 toDeleteIndex = valueIndex - 1 */\n      swap1\n      pop\n        /* \"@openzeppelin/contracts/utils/EnumerableSet.sol\":2858:2875  uint256 lastIndex */\n      0x00\n        /* \"@openzeppelin/contracts/utils/EnumerableSet.sol\":2899:2900  1 */\n      0x01\n        /* \"@openzeppelin/contracts/utils/EnumerableSet.sol\":2878:2881  set */\n      dup7\n        /* \"@openzeppelin/contracts/utils/EnumerableSet.sol\":2878:2889  set._values */\n      0x00\n      add\n        /* \"@openzeppelin/contracts/utils/EnumerableSet.sol\":2878:2896  set._values.length */\n      dup1\n      sload\n      swap1\n      pop\n        /* \"@openzeppelin/contracts/utils/EnumerableSet.sol\":2878:2900  set._values.length - 1 */\n      tag_264\n      swap2\n      swap1\n      tag_263\n      jump\t// in\n    tag_264:\n        /* \"@openzeppelin/contracts/utils/EnumerableSet.sol\":2858:2900  uint256 lastIndex = set._values.length - 1 */\n      swap1\n      pop\n        /* \"@openzeppelin/contracts/utils/EnumerableSet.sol\":3140:3157  bytes32 lastvalue */\n      0x00\n        /* \"@openzeppelin/contracts/utils/EnumerableSet.sol\":3160:3163  set */\n      dup7\n        /* \"@openzeppelin/contracts/utils/EnumerableSet.sol\":3160:3171  set._values */\n      0x00\n      add\n        /* \"@openzeppelin/contracts/utils/EnumerableSet.sol\":3172:3181  lastIndex */\n      dup3\n        /* \"@openzeppelin/contracts/utils/EnumerableSet.sol\":3160:3182  set._values[lastIndex] */\n      dup2\n      sload\n      dup2\n      lt\n      tag_265\n      jumpi\n      tag_266\n      tag_132\n      jump\t// in\n    tag_266:\n    tag_265:\n      swap1\n      0x00\n      mstore\n      keccak256(0x00, 0x20)\n      add\n      sload\n        /* \"@openzeppelin/contracts/utils/EnumerableSet.sol\":3140:3182  bytes32 lastvalue = set._values[lastIndex] */\n      swap1\n      pop\n        /* \"@openzeppelin/contracts/utils/EnumerableSet.sol\":3303:3312  lastvalue */\n      dup1\n        /* \"@openzeppelin/contracts/utils/EnumerableSet.sol\":3274:3277  set */\n      dup8\n        /* \"@openzeppelin/contracts/utils/EnumerableSet.sol\":3274:3285  set._values */\n      0x00\n      add\n        /* \"@openzeppelin/contracts/utils/EnumerableSet.sol\":3286:3299  toDeleteIndex */\n      dup5\n        /* \"@openzeppelin/contracts/utils/EnumerableSet.sol\":3274:3300  set._values[toDeleteIndex] */\n      dup2\n      sload\n      dup2\n      lt\n      tag_268\n      jumpi\n      tag_269\n      tag_132\n      jump\t// in\n    tag_269:\n    tag_268:\n      swap1\n      0x00\n      mstore\n      keccak256(0x00, 0x20)\n      add\n        /* \"@openzeppelin/contracts/utils/EnumerableSet.sol\":3274:3312  set._values[toDeleteIndex] = lastvalue */\n      dup2\n      swap1\n      sstore\n      pop\n        /* \"@openzeppelin/contracts/utils/EnumerableSet.sol\":3420:3421  1 */\n      0x01\n        /* \"@openzeppelin/contracts/utils/EnumerableSet.sol\":3404:3417  toDeleteIndex */\n      dup4\n        /* \"@openzeppelin/contracts/utils/EnumerableSet.sol\":3404:3421  toDeleteIndex + 1 */\n      tag_271\n      swap2\n      swap1\n      tag_272\n      jump\t// in\n    tag_271:\n        /* \"@openzeppelin/contracts/utils/EnumerableSet.sol\":3378:3381  set */\n      dup8\n        /* \"@openzeppelin/contracts/utils/EnumerableSet.sol\":3378:3390  set._indexes */\n      0x01\n      add\n        /* \"@openzeppelin/contracts/utils/EnumerableSet.sol\":3378:3401  set._indexes[lastvalue] */\n      0x00\n        /* \"@openzeppelin/contracts/utils/EnumerableSet.sol\":3391:3400  lastvalue */\n      dup4\n        /* \"@openzeppelin/contracts/utils/EnumerableSet.sol\":3378:3401  set._indexes[lastvalue] */\n      dup2\n      mstore\n      0x20\n      add\n      swap1\n      dup2\n      mstore\n      0x20\n      add\n      0x00\n      keccak256\n        /* \"@openzeppelin/contracts/utils/EnumerableSet.sol\":3378:3421  set._indexes[lastvalue] = toDeleteIndex + 1 */\n      dup2\n      swap1\n      sstore\n      pop\n        /* \"@openzeppelin/contracts/utils/EnumerableSet.sol\":3527:3530  set */\n      dup7\n        /* \"@openzeppelin/contracts/utils/EnumerableSet.sol\":3527:3538  set._values */\n      0x00\n      add\n        /* \"@openzeppelin/contracts/utils/EnumerableSet.sol\":3527:3544  set._values.pop() */\n      dup1\n      sload\n      dup1\n      tag_273\n      jumpi\n      tag_274\n      tag_275\n      jump\t// in\n    tag_274:\n    tag_273:\n      0x01\n      swap1\n      sub\n      dup2\n      dup2\n      swap1\n      0x00\n      mstore\n      keccak256(0x00, 0x20)\n      add\n      0x00\n      swap1\n      sstore\n      swap1\n      sstore\n        /* \"@openzeppelin/contracts/utils/EnumerableSet.sol\":3619:3622  set */\n      dup7\n        /* \"@openzeppelin/contracts/utils/EnumerableSet.sol\":3619:3631  set._indexes */\n      0x01\n      add\n        /* \"@openzeppelin/contracts/utils/EnumerableSet.sol\":3619:3638  set._indexes[value] */\n      0x00\n        /* \"@openzeppelin/contracts/utils/EnumerableSet.sol\":3632:3637  value */\n      dup8\n        /* \"@openzeppelin/contracts/utils/EnumerableSet.sol\":3619:3638  set._indexes[value] */\n      dup2\n      mstore\n      0x20\n      add\n      swap1\n      dup2\n      mstore\n      0x20\n      add\n      0x00\n      keccak256\n        /* \"@openzeppelin/contracts/utils/EnumerableSet.sol\":3612:3638  delete set._indexes[value] */\n      0x00\n      swap1\n      sstore\n        /* \"@openzeppelin/contracts/utils/EnumerableSet.sol\":3660:3664  true */\n      0x01\n        /* \"@openzeppelin/contracts/utils/EnumerableSet.sol\":3653:3664  return true */\n      swap5\n      pop\n      pop\n      pop\n      pop\n      pop\n      jump(tag_260)\n        /* \"@openzeppelin/contracts/utils/EnumerableSet.sol\":2445:3718  if (valueIndex != 0) { // Equivalent to contains(set, value)... */\n    tag_261:\n        /* \"@openzeppelin/contracts/utils/EnumerableSet.sol\":3702:3707  false */\n      0x00\n        /* \"@openzeppelin/contracts/utils/EnumerableSet.sol\":3695:3707  return false */\n      swap2\n      pop\n      pop\n        /* \"@openzeppelin/contracts/utils/EnumerableSet.sol\":2212:3724  function _remove(Set storage set, bytes32 value) private returns (bool) {... */\n    tag_260:\n      swap3\n      swap2\n      pop\n      pop\n      jump\t// out\n        /* \"@openzeppelin/contracts/utils/EnumerableSet.sol\":3805:3932  function _contains(Set storage set, bytes32 value) private view returns (bool) {... */\n    tag_235:\n        /* \"@openzeppelin/contracts/utils/EnumerableSet.sol\":3878:3882  bool */\n      0x00\n        /* \"@openzeppelin/contracts/utils/EnumerableSet.sol\":3924:3925  0 */\n      dup1\n        /* \"@openzeppelin/contracts/utils/EnumerableSet.sol\":3901:3904  set */\n      dup4\n        /* \"@openzeppelin/contracts/utils/EnumerableSet.sol\":3901:3913  set._indexes */\n      0x01\n      add\n        /* \"@openzeppelin/contracts/utils/EnumerableSet.sol\":3901:3920  set._indexes[value] */\n      0x00\n        /* \"@openzeppelin/contracts/utils/EnumerableSet.sol\":3914:3919  value */\n      dup5\n        /* \"@openzeppelin/contracts/utils/EnumerableSet.sol\":3901:3920  set._indexes[value] */\n      dup2\n      mstore\n      0x20\n      add\n      swap1\n      dup2\n      mstore\n      0x20\n      add\n      0x00\n      keccak256\n      sload\n        /* \"@openzeppelin/contracts/utils/EnumerableSet.sol\":3901:3925  set._indexes[value] != 0 */\n      eq\n      iszero\n        /* \"@openzeppelin/contracts/utils/EnumerableSet.sol\":3894:3925  return set._indexes[value] != 0 */\n      swap1\n      pop\n        /* \"@openzeppelin/contracts/utils/EnumerableSet.sol\":3805:3932  function _contains(Set storage set, bytes32 value) private view returns (bool) {... */\n      swap3\n      swap2\n      pop\n      pop\n      jump\t// out\n        /* \"@openzeppelin/contracts/utils/EnumerableSet.sol\":1640:2044  function _add(Set storage set, bytes32 value) private returns (bool) {... */\n    tag_238:\n        /* \"@openzeppelin/contracts/utils/EnumerableSet.sol\":1703:1707  bool */\n      0x00\n        /* \"@openzeppelin/contracts/utils/EnumerableSet.sol\":1724:1745  _contains(set, value) */\n      tag_280\n        /* \"@openzeppelin/contracts/utils/EnumerableSet.sol\":1734:1737  set */\n      dup4\n        /* \"@openzeppelin/contracts/utils/EnumerableSet.sol\":1739:1744  value */\n      dup4\n        /* \"@openzeppelin/contracts/utils/EnumerableSet.sol\":1724:1733  _contains */\n      tag_235\n        /* \"@openzeppelin/contracts/utils/EnumerableSet.sol\":1724:1745  _contains(set, value) */\n      jump\t// in\n    tag_280:\n        /* \"@openzeppelin/contracts/utils/EnumerableSet.sol\":1719:2038  if (!_contains(set, value)) {... */\n      tag_281\n      jumpi\n        /* \"@openzeppelin/contracts/utils/EnumerableSet.sol\":1761:1764  set */\n      dup3\n        /* \"@openzeppelin/contracts/utils/EnumerableSet.sol\":1761:1772  set._values */\n      0x00\n      add\n        /* \"@openzeppelin/contracts/utils/EnumerableSet.sol\":1778:1783  value */\n      dup3\n        /* \"@openzeppelin/contracts/utils/EnumerableSet.sol\":1761:1784  set._values.push(value) */\n      swap1\n      dup1\n      0x01\n      dup2\n      sload\n      add\n      dup1\n      dup3\n      sstore\n      dup1\n      swap2\n      pop\n      pop\n      0x01\n      swap1\n      sub\n      swap1\n      0x00\n      mstore\n      keccak256(0x00, 0x20)\n      add\n      0x00\n      swap1\n      swap2\n      swap1\n      swap2\n      swap1\n      swap2\n      pop\n      sstore\n        /* \"@openzeppelin/contracts/utils/EnumerableSet.sol\":1941:1944  set */\n      dup3\n        /* \"@openzeppelin/contracts/utils/EnumerableSet.sol\":1941:1952  set._values */\n      0x00\n      add\n        /* \"@openzeppelin/contracts/utils/EnumerableSet.sol\":1941:1959  set._values.length */\n      dup1\n      sload\n      swap1\n      pop\n        /* \"@openzeppelin/contracts/utils/EnumerableSet.sol\":1919:1922  set */\n      dup4\n        /* \"@openzeppelin/contracts/utils/EnumerableSet.sol\":1919:1931  set._indexes */\n      0x01\n      add\n        /* \"@openzeppelin/contracts/utils/EnumerableSet.sol\":1919:1938  set._indexes[value] */\n      0x00\n        /* \"@openzeppelin/contracts/utils/EnumerableSet.sol\":1932:1937  value */\n      dup5\n        /* \"@openzeppelin/contracts/utils/EnumerableSet.sol\":1919:1938  set._indexes[value] */\n      dup2\n      mstore\n      0x20\n      add\n      swap1\n      dup2\n      mstore\n      0x20\n      add\n      0x00\n      keccak256\n        /* \"@openzeppelin/contracts/utils/EnumerableSet.sol\":1919:1959  set._indexes[value] = set._values.length */\n      dup2\n      swap1\n      sstore\n      pop\n        /* \"@openzeppelin/contracts/utils/EnumerableSet.sol\":1980:1984  true */\n      0x01\n        /* \"@openzeppelin/contracts/utils/EnumerableSet.sol\":1973:1984  return true */\n      swap1\n      pop\n      jump(tag_279)\n        /* \"@openzeppelin/contracts/utils/EnumerableSet.sol\":1719:2038  if (!_contains(set, value)) {... */\n    tag_281:\n        /* \"@openzeppelin/contracts/utils/EnumerableSet.sol\":2022:2027  false */\n      0x00\n        /* \"@openzeppelin/contracts/utils/EnumerableSet.sol\":2015:2027  return false */\n      swap1\n      pop\n        /* \"@openzeppelin/contracts/utils/EnumerableSet.sol\":1640:2044  function _add(Set storage set, bytes32 value) private returns (bool) {... */\n    tag_279:\n      swap3\n      swap2\n      pop\n      pop\n      jump\t// out\n        /* \"@openzeppelin/contracts/utils/EnumerableSet.sol\":4013:4120  function _length(Set storage set) private view returns (uint256) {... */\n    tag_241:\n        /* \"@openzeppelin/contracts/utils/EnumerableSet.sol\":4069:4076  uint256 */\n      0x00\n        /* \"@openzeppelin/contracts/utils/EnumerableSet.sol\":4095:4098  set */\n      dup2\n        /* \"@openzeppelin/contracts/utils/EnumerableSet.sol\":4095:4106  set._values */\n      0x00\n      add\n        /* \"@openzeppelin/contracts/utils/EnumerableSet.sol\":4095:4113  set._values.length */\n      dup1\n      sload\n      swap1\n      pop\n        /* \"@openzeppelin/contracts/utils/EnumerableSet.sol\":4088:4113  return set._values.length */\n      swap1\n      pop\n        /* \"@openzeppelin/contracts/utils/EnumerableSet.sol\":4013:4120  function _length(Set storage set) private view returns (uint256) {... */\n      swap2\n      swap1\n      pop\n      jump\t// out\n        /* \"@openzeppelin/contracts/utils/EnumerableSet.sol\":4452:4653  function _at(Set storage set, uint256 index) private view returns (bytes32) {... */\n    tag_244:\n        /* \"@openzeppelin/contracts/utils/EnumerableSet.sol\":4519:4526  bytes32 */\n      0x00\n        /* \"@openzeppelin/contracts/utils/EnumerableSet.sol\":4567:4572  index */\n      dup2\n        /* \"@openzeppelin/contracts/utils/EnumerableSet.sol\":4546:4549  set */\n      dup4\n        /* \"@openzeppelin/contracts/utils/EnumerableSet.sol\":4546:4557  set._values */\n      0x00\n      add\n        /* \"@openzeppelin/contracts/utils/EnumerableSet.sol\":4546:4564  set._values.length */\n      dup1\n      sload\n      swap1\n      pop\n        /* \"@openzeppelin/contracts/utils/EnumerableSet.sol\":4546:4572  set._values.length > index */\n      gt\n        /* \"@openzeppelin/contracts/utils/EnumerableSet.sol\":4538:4611  require(set._values.length > index, \"EnumerableSet: index out of bounds\") */\n      tag_286\n      jumpi\n      mload(0x40)\n      0x08c379a000000000000000000000000000000000000000000000000000000000\n      dup2\n      mstore\n      0x04\n      add\n      tag_287\n      swap1\n      tag_288\n      jump\t// in\n    tag_287:\n      mload(0x40)\n      dup1\n      swap2\n      sub\n      swap1\n      revert\n    tag_286:\n        /* \"@openzeppelin/contracts/utils/EnumerableSet.sol\":4628:4631  set */\n      dup3\n        /* \"@openzeppelin/contracts/utils/EnumerableSet.sol\":4628:4639  set._values */\n      0x00\n      add\n        /* \"@openzeppelin/contracts/utils/EnumerableSet.sol\":4640:4645  index */\n      dup3\n        /* \"@openzeppelin/contracts/utils/EnumerableSet.sol\":4628:4646  set._values[index] */\n      dup2\n      sload\n      dup2\n      lt\n      tag_289\n      jumpi\n      tag_290\n      tag_132\n      jump\t// in\n    tag_290:\n    tag_289:\n      swap1\n      0x00\n      mstore\n      keccak256(0x00, 0x20)\n      add\n      sload\n        /* \"@openzeppelin/contracts/utils/EnumerableSet.sol\":4621:4646  return set._values[index] */\n      swap1\n      pop\n        /* \"@openzeppelin/contracts/utils/EnumerableSet.sol\":4452:4653  function _at(Set storage set, uint256 index) private view returns (bytes32) {... */\n      swap3\n      swap2\n      pop\n      pop\n      jump\t// out\n        /* \"#utility.yul\":88:205   */\n    tag_293:\n        /* \"#utility.yul\":197:198   */\n      0x00\n        /* \"#utility.yul\":194:195   */\n      dup1\n        /* \"#utility.yul\":187:199   */\n      revert\n        /* \"#utility.yul\":334:460   */\n    tag_295:\n        /* \"#utility.yul\":371:378   */\n      0x00\n        /* \"#utility.yul\":411:453   */\n      0xffffffffffffffffffffffffffffffffffffffff\n        /* \"#utility.yul\":404:409   */\n      dup3\n        /* \"#utility.yul\":400:454   */\n      and\n        /* \"#utility.yul\":389:454   */\n      swap1\n      pop\n        /* \"#utility.yul\":334:460   */\n      swap2\n      swap1\n      pop\n      jump\t// out\n        /* \"#utility.yul\":466:562   */\n    tag_296:\n        /* \"#utility.yul\":503:510   */\n      0x00\n        /* \"#utility.yul\":532:556   */\n      tag_333\n        /* \"#utility.yul\":550:555   */\n      dup3\n        /* \"#utility.yul\":532:556   */\n      tag_295\n      jump\t// in\n    tag_333:\n        /* \"#utility.yul\":521:556   */\n      swap1\n      pop\n        /* \"#utility.yul\":466:562   */\n      swap2\n      swap1\n      pop\n      jump\t// out\n        /* \"#utility.yul\":568:690   */\n    tag_297:\n        /* \"#utility.yul\":641:665   */\n      tag_335\n        /* \"#utility.yul\":659:664   */\n      dup2\n        /* \"#utility.yul\":641:665   */\n      tag_296\n      jump\t// in\n    tag_335:\n        /* \"#utility.yul\":634:639   */\n      dup2\n        /* \"#utility.yul\":631:666   */\n      eq\n        /* \"#utility.yul\":621:684   */\n      tag_336\n      jumpi\n        /* \"#utility.yul\":680:681   */\n      0x00\n        /* \"#utility.yul\":677:678   */\n      dup1\n        /* \"#utility.yul\":670:682   */\n      revert\n        /* \"#utility.yul\":621:684   */\n    tag_336:\n        /* \"#utility.yul\":568:690   */\n      pop\n      jump\t// out\n        /* \"#utility.yul\":696:835   */\n    tag_298:\n        /* \"#utility.yul\":742:747   */\n      0x00\n        /* \"#utility.yul\":780:786   */\n      dup2\n        /* \"#utility.yul\":767:787   */\n      calldataload\n        /* \"#utility.yul\":758:787   */\n      swap1\n      pop\n        /* \"#utility.yul\":796:829   */\n      tag_338\n        /* \"#utility.yul\":823:828   */\n      dup2\n        /* \"#utility.yul\":796:829   */\n      tag_297\n      jump\t// in\n    tag_338:\n        /* \"#utility.yul\":696:835   */\n      swap3\n      swap2\n      pop\n      pop\n      jump\t// out\n        /* \"#utility.yul\":841:1170   */\n    tag_29:\n        /* \"#utility.yul\":900:906   */\n      0x00\n        /* \"#utility.yul\":949:951   */\n      0x20\n        /* \"#utility.yul\":937:946   */\n      dup3\n        /* \"#utility.yul\":928:935   */\n      dup5\n        /* \"#utility.yul\":924:947   */\n      sub\n        /* \"#utility.yul\":920:952   */\n      slt\n        /* \"#utility.yul\":917:1036   */\n      iszero\n      tag_340\n      jumpi\n        /* \"#utility.yul\":955:1034   */\n      tag_341\n      tag_293\n      jump\t// in\n    tag_341:\n        /* \"#utility.yul\":917:1036   */\n    tag_340:\n        /* \"#utility.yul\":1075:1076   */\n      0x00\n        /* \"#utility.yul\":1100:1153   */\n      tag_342\n        /* \"#utility.yul\":1145:1152   */\n      dup5\n        /* \"#utility.yul\":1136:1142   */\n      dup3\n        /* \"#utility.yul\":1125:1134   */\n      dup6\n        /* \"#utility.yul\":1121:1143   */\n      add\n        /* \"#utility.yul\":1100:1153   */\n      tag_298\n      jump\t// in\n    tag_342:\n        /* \"#utility.yul\":1090:1153   */\n      swap2\n      pop\n        /* \"#utility.yul\":1046:1163   */\n      pop\n        /* \"#utility.yul\":841:1170   */\n      swap3\n      swap2\n      pop\n      pop\n      jump\t// out\n        /* \"#utility.yul\":1176:1266   */\n    tag_299:\n        /* \"#utility.yul\":1210:1217   */\n      0x00\n        /* \"#utility.yul\":1253:1258   */\n      dup2\n        /* \"#utility.yul\":1246:1259   */\n      iszero\n        /* \"#utility.yul\":1239:1260   */\n      iszero\n        /* \"#utility.yul\":1228:1260   */\n      swap1\n      pop\n        /* \"#utility.yul\":1176:1266   */\n      swap2\n      swap1\n      pop\n      jump\t// out\n        /* \"#utility.yul\":1272:1381   */\n    tag_300:\n        /* \"#utility.yul\":1353:1374   */\n      tag_345\n        /* \"#utility.yul\":1368:1373   */\n      dup2\n        /* \"#utility.yul\":1353:1374   */\n      tag_299\n      jump\t// in\n    tag_345:\n        /* \"#utility.yul\":1348:1351   */\n      dup3\n        /* \"#utility.yul\":1341:1375   */\n      mstore\n        /* \"#utility.yul\":1272:1381   */\n      pop\n      pop\n      jump\t// out\n        /* \"#utility.yul\":1387:1597   */\n    tag_35:\n        /* \"#utility.yul\":1474:1478   */\n      0x00\n        /* \"#utility.yul\":1512:1514   */\n      0x20\n        /* \"#utility.yul\":1501:1510   */\n      dup3\n        /* \"#utility.yul\":1497:1515   */\n      add\n        /* \"#utility.yul\":1489:1515   */\n      swap1\n      pop\n        /* \"#utility.yul\":1525:1590   */\n      tag_347\n        /* \"#utility.yul\":1587:1588   */\n      0x00\n        /* \"#utility.yul\":1576:1585   */\n      dup4\n        /* \"#utility.yul\":1572:1589   */\n      add\n        /* \"#utility.yul\":1563:1569   */\n      dup5\n        /* \"#utility.yul\":1525:1590   */\n      tag_300\n      jump\t// in\n    tag_347:\n        /* \"#utility.yul\":1387:1597   */\n      swap3\n      swap2\n      pop\n      pop\n      jump\t// out\n        /* \"#utility.yul\":1603:1717   */\n    tag_301:\n        /* \"#utility.yul\":1670:1676   */\n      0x00\n        /* \"#utility.yul\":1704:1709   */\n      dup2\n        /* \"#utility.yul\":1698:1710   */\n      mload\n        /* \"#utility.yul\":1688:1710   */\n      swap1\n      pop\n        /* \"#utility.yul\":1603:1717   */\n      swap2\n      swap1\n      pop\n      jump\t// out\n        /* \"#utility.yul\":1723:1907   */\n    tag_302:\n        /* \"#utility.yul\":1822:1833   */\n      0x00\n        /* \"#utility.yul\":1856:1862   */\n      dup3\n        /* \"#utility.yul\":1851:1854   */\n      dup3\n        /* \"#utility.yul\":1844:1863   */\n      mstore\n        /* \"#utility.yul\":1896:1900   */\n      0x20\n        /* \"#utility.yul\":1891:1894   */\n      dup3\n        /* \"#utility.yul\":1887:1901   */\n      add\n        /* \"#utility.yul\":1872:1901   */\n      swap1\n      pop\n        /* \"#utility.yul\":1723:1907   */\n      swap3\n      swap2\n      pop\n      pop\n      jump\t// out\n        /* \"#utility.yul\":1913:2045   */\n    tag_303:\n        /* \"#utility.yul\":1980:1984   */\n      0x00\n        /* \"#utility.yul\":2003:2006   */\n      dup2\n        /* \"#utility.yul\":1995:2006   */\n      swap1\n      pop\n        /* \"#utility.yul\":2033:2037   */\n      0x20\n        /* \"#utility.yul\":2028:2031   */\n      dup3\n        /* \"#utility.yul\":2024:2038   */\n      add\n        /* \"#utility.yul\":2016:2038   */\n      swap1\n      pop\n        /* \"#utility.yul\":1913:2045   */\n      swap2\n      swap1\n      pop\n      jump\t// out\n        /* \"#utility.yul\":2051:2159   */\n    tag_304:\n        /* \"#utility.yul\":2128:2152   */\n      tag_352\n        /* \"#utility.yul\":2146:2151   */\n      dup2\n        /* \"#utility.yul\":2128:2152   */\n      tag_296\n      jump\t// in\n    tag_352:\n        /* \"#utility.yul\":2123:2126   */\n      dup3\n        /* \"#utility.yul\":2116:2153   */\n      mstore\n        /* \"#utility.yul\":2051:2159   */\n      pop\n      pop\n      jump\t// out\n        /* \"#utility.yul\":2165:2344   */\n    tag_305:\n        /* \"#utility.yul\":2234:2244   */\n      0x00\n        /* \"#utility.yul\":2255:2301   */\n      tag_354\n        /* \"#utility.yul\":2297:2300   */\n      dup4\n        /* \"#utility.yul\":2289:2295   */\n      dup4\n        /* \"#utility.yul\":2255:2301   */\n      tag_304\n      jump\t// in\n    tag_354:\n        /* \"#utility.yul\":2333:2337   */\n      0x20\n        /* \"#utility.yul\":2328:2331   */\n      dup4\n        /* \"#utility.yul\":2324:2338   */\n      add\n        /* \"#utility.yul\":2310:2338   */\n      swap1\n      pop\n        /* \"#utility.yul\":2165:2344   */\n      swap3\n      swap2\n      pop\n      pop\n      jump\t// out\n        /* \"#utility.yul\":2350:2463   */\n    tag_306:\n        /* \"#utility.yul\":2420:2424   */\n      0x00\n        /* \"#utility.yul\":2452:2456   */\n      0x20\n        /* \"#utility.yul\":2447:2450   */\n      dup3\n        /* \"#utility.yul\":2443:2457   */\n      add\n        /* \"#utility.yul\":2435:2457   */\n      swap1\n      pop\n        /* \"#utility.yul\":2350:2463   */\n      swap2\n      swap1\n      pop\n      jump\t// out\n        /* \"#utility.yul\":2499:3231   */\n    tag_307:\n        /* \"#utility.yul\":2618:2621   */\n      0x00\n        /* \"#utility.yul\":2647:2701   */\n      tag_357\n        /* \"#utility.yul\":2695:2700   */\n      dup3\n        /* \"#utility.yul\":2647:2701   */\n      tag_301\n      jump\t// in\n    tag_357:\n        /* \"#utility.yul\":2717:2803   */\n      tag_358\n        /* \"#utility.yul\":2796:2802   */\n      dup2\n        /* \"#utility.yul\":2791:2794   */\n      dup6\n        /* \"#utility.yul\":2717:2803   */\n      tag_302\n      jump\t// in\n    tag_358:\n        /* \"#utility.yul\":2710:2803   */\n      swap4\n      pop\n        /* \"#utility.yul\":2827:2883   */\n      tag_359\n        /* \"#utility.yul\":2877:2882   */\n      dup4\n        /* \"#utility.yul\":2827:2883   */\n      tag_303\n      jump\t// in\n    tag_359:\n        /* \"#utility.yul\":2906:2913   */\n      dup1\n        /* \"#utility.yul\":2937:2938   */\n      0x00\n        /* \"#utility.yul\":2922:3206   */\n    tag_360:\n        /* \"#utility.yul\":2947:2953   */\n      dup4\n        /* \"#utility.yul\":2944:2945   */\n      dup2\n        /* \"#utility.yul\":2941:2954   */\n      lt\n        /* \"#utility.yul\":2922:3206   */\n      iszero\n      tag_362\n      jumpi\n        /* \"#utility.yul\":3023:3029   */\n      dup2\n        /* \"#utility.yul\":3017:3030   */\n      mload\n        /* \"#utility.yul\":3050:3113   */\n      tag_363\n        /* \"#utility.yul\":3109:3112   */\n      dup9\n        /* \"#utility.yul\":3094:3107   */\n      dup3\n        /* \"#utility.yul\":3050:3113   */\n      tag_305\n      jump\t// in\n    tag_363:\n        /* \"#utility.yul\":3043:3113   */\n      swap8\n      pop\n        /* \"#utility.yul\":3136:3196   */\n      tag_364\n        /* \"#utility.yul\":3189:3195   */\n      dup4\n        /* \"#utility.yul\":3136:3196   */\n      tag_306\n      jump\t// in\n    tag_364:\n        /* \"#utility.yul\":3126:3196   */\n      swap3\n      pop\n        /* \"#utility.yul\":2982:3206   */\n      pop\n        /* \"#utility.yul\":2969:2970   */\n      0x01\n        /* \"#utility.yul\":2966:2967   */\n      dup2\n        /* \"#utility.yul\":2962:2971   */\n      add\n        /* \"#utility.yul\":2957:2971   */\n      swap1\n      pop\n        /* \"#utility.yul\":2922:3206   */\n      jump(tag_360)\n    tag_362:\n        /* \"#utility.yul\":2926:2940   */\n      pop\n        /* \"#utility.yul\":3222:3225   */\n      dup6\n        /* \"#utility.yul\":3215:3225   */\n      swap4\n      pop\n        /* \"#utility.yul\":2623:3231   */\n      pop\n      pop\n      pop\n        /* \"#utility.yul\":2499:3231   */\n      swap3\n      swap2\n      pop\n      pop\n      jump\t// out\n        /* \"#utility.yul\":3237:3610   */\n    tag_46:\n        /* \"#utility.yul\":3380:3384   */\n      0x00\n        /* \"#utility.yul\":3418:3420   */\n      0x20\n        /* \"#utility.yul\":3407:3416   */\n      dup3\n        /* \"#utility.yul\":3403:3421   */\n      add\n        /* \"#utility.yul\":3395:3421   */\n      swap1\n      pop\n        /* \"#utility.yul\":3467:3476   */\n      dup2\n        /* \"#utility.yul\":3461:3465   */\n      dup2\n        /* \"#utility.yul\":3457:3477   */\n      sub\n        /* \"#utility.yul\":3453:3454   */\n      0x00\n        /* \"#utility.yul\":3442:3451   */\n      dup4\n        /* \"#utility.yul\":3438:3455   */\n      add\n        /* \"#utility.yul\":3431:3478   */\n      mstore\n        /* \"#utility.yul\":3495:3603   */\n      tag_366\n        /* \"#utility.yul\":3598:3602   */\n      dup2\n        /* \"#utility.yul\":3589:3595   */\n      dup5\n        /* \"#utility.yul\":3495:3603   */\n      tag_307\n      jump\t// in\n    tag_366:\n        /* \"#utility.yul\":3487:3603   */\n      swap1\n      pop\n        /* \"#utility.yul\":3237:3610   */\n      swap3\n      swap2\n      pop\n      pop\n      jump\t// out\n        /* \"#utility.yul\":3616:3693   */\n    tag_308:\n        /* \"#utility.yul\":3653:3660   */\n      0x00\n        /* \"#utility.yul\":3682:3687   */\n      dup2\n        /* \"#utility.yul\":3671:3687   */\n      swap1\n      pop\n        /* \"#utility.yul\":3616:3693   */\n      swap2\n      swap1\n      pop\n      jump\t// out\n        /* \"#utility.yul\":3699:3817   */\n    tag_309:\n        /* \"#utility.yul\":3786:3810   */\n      tag_369\n        /* \"#utility.yul\":3804:3809   */\n      dup2\n        /* \"#utility.yul\":3786:3810   */\n      tag_308\n      jump\t// in\n    tag_369:\n        /* \"#utility.yul\":3781:3784   */\n      dup3\n        /* \"#utility.yul\":3774:3811   */\n      mstore\n        /* \"#utility.yul\":3699:3817   */\n      pop\n      pop\n      jump\t// out\n        /* \"#utility.yul\":3823:4045   */\n    tag_55:\n        /* \"#utility.yul\":3916:3920   */\n      0x00\n        /* \"#utility.yul\":3954:3956   */\n      0x20\n        /* \"#utility.yul\":3943:3952   */\n      dup3\n        /* \"#utility.yul\":3939:3957   */\n      add\n        /* \"#utility.yul\":3931:3957   */\n      swap1\n      pop\n        /* \"#utility.yul\":3967:4038   */\n      tag_371\n        /* \"#utility.yul\":4035:4036   */\n      0x00\n        /* \"#utility.yul\":4024:4033   */\n      dup4\n        /* \"#utility.yul\":4020:4037   */\n      add\n        /* \"#utility.yul\":4011:4017   */\n      dup5\n        /* \"#utility.yul\":3967:4038   */\n      tag_309\n      jump\t// in\n    tag_371:\n        /* \"#utility.yul\":3823:4045   */\n      swap3\n      swap2\n      pop\n      pop\n      jump\t// out\n        /* \"#utility.yul\":4051:4169   */\n    tag_310:\n        /* \"#utility.yul\":4138:4162   */\n      tag_373\n        /* \"#utility.yul\":4156:4161   */\n      dup2\n        /* \"#utility.yul\":4138:4162   */\n      tag_296\n      jump\t// in\n    tag_373:\n        /* \"#utility.yul\":4133:4136   */\n      dup3\n        /* \"#utility.yul\":4126:4163   */\n      mstore\n        /* \"#utility.yul\":4051:4169   */\n      pop\n      pop\n      jump\t// out\n        /* \"#utility.yul\":4175:4397   */\n    tag_59:\n        /* \"#utility.yul\":4268:4272   */\n      0x00\n        /* \"#utility.yul\":4306:4308   */\n      0x20\n        /* \"#utility.yul\":4295:4304   */\n      dup3\n        /* \"#utility.yul\":4291:4309   */\n      add\n        /* \"#utility.yul\":4283:4309   */\n      swap1\n      pop\n        /* \"#utility.yul\":4319:4390   */\n      tag_375\n        /* \"#utility.yul\":4387:4388   */\n      0x00\n        /* \"#utility.yul\":4376:4385   */\n      dup4\n        /* \"#utility.yul\":4372:4389   */\n      add\n        /* \"#utility.yul\":4363:4369   */\n      dup5\n        /* \"#utility.yul\":4319:4390   */\n      tag_310\n      jump\t// in\n    tag_375:\n        /* \"#utility.yul\":4175:4397   */\n      swap3\n      swap2\n      pop\n      pop\n      jump\t// out\n        /* \"#utility.yul\":4403:4572   */\n    tag_311:\n        /* \"#utility.yul\":4487:4498   */\n      0x00\n        /* \"#utility.yul\":4521:4527   */\n      dup3\n        /* \"#utility.yul\":4516:4519   */\n      dup3\n        /* \"#utility.yul\":4509:4528   */\n      mstore\n        /* \"#utility.yul\":4561:4565   */\n      0x20\n        /* \"#utility.yul\":4556:4559   */\n      dup3\n        /* \"#utility.yul\":4552:4566   */\n      add\n        /* \"#utility.yul\":4537:4566   */\n      swap1\n      pop\n        /* \"#utility.yul\":4403:4572   */\n      swap3\n      swap2\n      pop\n      pop\n      jump\t// out\n        /* \"#utility.yul\":4578:4760   */\n    tag_312:\n        /* \"#utility.yul\":4718:4752   */\n      0x4f776e61626c653a2063616c6c6572206973206e6f7420746865206f776e6572\n        /* \"#utility.yul\":4714:4715   */\n      0x00\n        /* \"#utility.yul\":4706:4712   */\n      dup3\n        /* \"#utility.yul\":4702:4716   */\n      add\n        /* \"#utility.yul\":4695:4753   */\n      mstore\n        /* \"#utility.yul\":4578:4760   */\n      pop\n      jump\t// out\n        /* \"#utility.yul\":4766:5132   */\n    tag_313:\n        /* \"#utility.yul\":4908:4911   */\n      0x00\n        /* \"#utility.yul\":4929:4996   */\n      tag_379\n        /* \"#utility.yul\":4993:4995   */\n      0x20\n        /* \"#utility.yul\":4988:4991   */\n      dup4\n        /* \"#utility.yul\":4929:4996   */\n      tag_311\n      jump\t// in\n    tag_379:\n        /* \"#utility.yul\":4922:4996   */\n      swap2\n      pop\n        /* \"#utility.yul\":5005:5098   */\n      tag_380\n        /* \"#utility.yul\":5094:5097   */\n      dup3\n        /* \"#utility.yul\":5005:5098   */\n      tag_312\n      jump\t// in\n    tag_380:\n        /* \"#utility.yul\":5123:5125   */\n      0x20\n        /* \"#utility.yul\":5118:5121   */\n      dup3\n        /* \"#utility.yul\":5114:5126   */\n      add\n        /* \"#utility.yul\":5107:5126   */\n      swap1\n      pop\n        /* \"#utility.yul\":4766:5132   */\n      swap2\n      swap1\n      pop\n      jump\t// out\n        /* \"#utility.yul\":5138:5557   */\n    tag_101:\n        /* \"#utility.yul\":5304:5308   */\n      0x00\n        /* \"#utility.yul\":5342:5344   */\n      0x20\n        /* \"#utility.yul\":5331:5340   */\n      dup3\n        /* \"#utility.yul\":5327:5345   */\n      add\n        /* \"#utility.yul\":5319:5345   */\n      swap1\n      pop\n        /* \"#utility.yul\":5391:5400   */\n      dup2\n        /* \"#utility.yul\":5385:5389   */\n      dup2\n        /* \"#utility.yul\":5381:5401   */\n      sub\n        /* \"#utility.yul\":5377:5378   */\n      0x00\n        /* \"#utility.yul\":5366:5375   */\n      dup4\n        /* \"#utility.yul\":5362:5379   */\n      add\n        /* \"#utility.yul\":5355:5402   */\n      mstore\n        /* \"#utility.yul\":5419:5550   */\n      tag_382\n        /* \"#utility.yul\":5545:5549   */\n      dup2\n        /* \"#utility.yul\":5419:5550   */\n      tag_313\n      jump\t// in\n    tag_382:\n        /* \"#utility.yul\":5411:5550   */\n      swap1\n      pop\n        /* \"#utility.yul\":5138:5557   */\n      swap2\n      swap1\n      pop\n      jump\t// out\n        /* \"#utility.yul\":5563:5788   */\n    tag_314:\n        /* \"#utility.yul\":5703:5737   */\n      0x41646d696e69737472617465643a204d73672073656e646572206973206e6f74\n        /* \"#utility.yul\":5699:5700   */\n      0x00\n        /* \"#utility.yul\":5691:5697   */\n      dup3\n        /* \"#utility.yul\":5687:5701   */\n      add\n        /* \"#utility.yul\":5680:5738   */\n      mstore\n        /* \"#utility.yul\":5772:5780   */\n      0x2061646d696e0000000000000000000000000000000000000000000000000000\n        /* \"#utility.yul\":5767:5769   */\n      0x20\n        /* \"#utility.yul\":5759:5765   */\n      dup3\n        /* \"#utility.yul\":5755:5770   */\n      add\n        /* \"#utility.yul\":5748:5781   */\n      mstore\n        /* \"#utility.yul\":5563:5788   */\n      pop\n      jump\t// out\n        /* \"#utility.yul\":5794:6160   */\n    tag_315:\n        /* \"#utility.yul\":5936:5939   */\n      0x00\n        /* \"#utility.yul\":5957:6024   */\n      tag_385\n        /* \"#utility.yul\":6021:6023   */\n      0x26\n        /* \"#utility.yul\":6016:6019   */\n      dup4\n        /* \"#utility.yul\":5957:6024   */\n      tag_311\n      jump\t// in\n    tag_385:\n        /* \"#utility.yul\":5950:6024   */\n      swap2\n      pop\n        /* \"#utility.yul\":6033:6126   */\n      tag_386\n        /* \"#utility.yul\":6122:6125   */\n      dup3\n        /* \"#utility.yul\":6033:6126   */\n      tag_314\n      jump\t// in\n    tag_386:\n        /* \"#utility.yul\":6151:6153   */\n      0x40\n        /* \"#utility.yul\":6146:6149   */\n      dup3\n        /* \"#utility.yul\":6142:6154   */\n      add\n        /* \"#utility.yul\":6135:6154   */\n      swap1\n      pop\n        /* \"#utility.yul\":5794:6160   */\n      swap2\n      swap1\n      pop\n      jump\t// out\n        /* \"#utility.yul\":6166:6585   */\n    tag_114:\n        /* \"#utility.yul\":6332:6336   */\n      0x00\n        /* \"#utility.yul\":6370:6372   */\n      0x20\n        /* \"#utility.yul\":6359:6368   */\n      dup3\n        /* \"#utility.yul\":6355:6373   */\n      add\n        /* \"#utility.yul\":6347:6373   */\n      swap1\n      pop\n        /* \"#utility.yul\":6419:6428   */\n      dup2\n        /* \"#utility.yul\":6413:6417   */\n      dup2\n        /* \"#utility.yul\":6409:6429   */\n      sub\n        /* \"#utility.yul\":6405:6406   */\n      0x00\n        /* \"#utility.yul\":6394:6403   */\n      dup4\n        /* \"#utility.yul\":6390:6407   */\n      add\n        /* \"#utility.yul\":6383:6430   */\n      mstore\n        /* \"#utility.yul\":6447:6578   */\n      tag_388\n        /* \"#utility.yul\":6573:6577   */\n      dup2\n        /* \"#utility.yul\":6447:6578   */\n      tag_315\n      jump\t// in\n    tag_388:\n        /* \"#utility.yul\":6439:6578   */\n      swap1\n      pop\n        /* \"#utility.yul\":6166:6585   */\n      swap2\n      swap1\n      pop\n      jump\t// out\n        /* \"#utility.yul\":6591:6771   */\n    tag_123:\n        /* \"#utility.yul\":6639:6716   */\n      0x4e487b7100000000000000000000000000000000000000000000000000000000\n        /* \"#utility.yul\":6636:6637   */\n      0x00\n        /* \"#utility.yul\":6629:6717   */\n      mstore\n        /* \"#utility.yul\":6736:6740   */\n      0x41\n        /* \"#utility.yul\":6733:6734   */\n      0x04\n        /* \"#utility.yul\":6726:6741   */\n      mstore\n        /* \"#utility.yul\":6760:6764   */\n      0x24\n        /* \"#utility.yul\":6757:6758   */\n      0x00\n        /* \"#utility.yul\":6750:6765   */\n      revert\n        /* \"#utility.yul\":6777:6957   */\n    tag_132:\n        /* \"#utility.yul\":6825:6902   */\n      0x4e487b7100000000000000000000000000000000000000000000000000000000\n        /* \"#utility.yul\":6822:6823   */\n      0x00\n        /* \"#utility.yul\":6815:6903   */\n      mstore\n        /* \"#utility.yul\":6922:6926   */\n      0x32\n        /* \"#utility.yul\":6919:6920   */\n      0x04\n        /* \"#utility.yul\":6912:6927   */\n      mstore\n        /* \"#utility.yul\":6946:6950   */\n      0x24\n        /* \"#utility.yul\":6943:6944   */\n      0x00\n        /* \"#utility.yul\":6936:6951   */\n      revert\n        /* \"#utility.yul\":6963:7143   */\n    tag_316:\n        /* \"#utility.yul\":7011:7088   */\n      0x4e487b7100000000000000000000000000000000000000000000000000000000\n        /* \"#utility.yul\":7008:7009   */\n      0x00\n        /* \"#utility.yul\":7001:7089   */\n      mstore\n        /* \"#utility.yul\":7108:7112   */\n      0x11\n        /* \"#utility.yul\":7105:7106   */\n      0x04\n        /* \"#utility.yul\":7098:7113   */\n      mstore\n        /* \"#utility.yul\":7132:7136   */\n      0x24\n        /* \"#utility.yul\":7129:7130   */\n      0x00\n        /* \"#utility.yul\":7122:7137   */\n      revert\n        /* \"#utility.yul\":7149:7382   */\n    tag_134:\n        /* \"#utility.yul\":7188:7191   */\n      0x00\n        /* \"#utility.yul\":7211:7235   */\n      tag_393\n        /* \"#utility.yul\":7229:7234   */\n      dup3\n        /* \"#utility.yul\":7211:7235   */\n      tag_308\n      jump\t// in\n    tag_393:\n        /* \"#utility.yul\":7202:7235   */\n      swap2\n      pop\n        /* \"#utility.yul\":7257:7323   */\n      0xffffffffffffffffffffffffffffffffffffffffffffffffffffffffffffffff\n        /* \"#utility.yul\":7250:7255   */\n      dup3\n        /* \"#utility.yul\":7247:7324   */\n      sub\n        /* \"#utility.yul\":7244:7347   */\n      tag_394\n      jumpi\n        /* \"#utility.yul\":7327:7345   */\n      tag_395\n      tag_316\n      jump\t// in\n    tag_395:\n        /* \"#utility.yul\":7244:7347   */\n    tag_394:\n        /* \"#utility.yul\":7374:7375   */\n      0x01\n        /* \"#utility.yul\":7367:7372   */\n      dup3\n        /* \"#utility.yul\":7363:7376   */\n      add\n        /* \"#utility.yul\":7356:7376   */\n      swap1\n      pop\n        /* \"#utility.yul\":7149:7382   */\n      swap2\n      swap1\n      pop\n      jump\t// out\n        /* \"#utility.yul\":7388:7620   */\n    tag_317:\n        /* \"#utility.yul\":7528:7562   */\n      0x4d616e6167657265643a204d73672073656e646572206973206e6f742061646d\n        /* \"#utility.yul\":7524:7525   */\n      0x00\n        /* \"#utility.yul\":7516:7522   */\n      dup3\n        /* \"#utility.yul\":7512:7526   */\n      add\n        /* \"#utility.yul\":7505:7563   */\n      mstore\n        /* \"#utility.yul\":7597:7612   */\n      0x696e206f72206d616e6167657200000000000000000000000000000000000000\n        /* \"#utility.yul\":7592:7594   */\n      0x20\n        /* \"#utility.yul\":7584:7590   */\n      dup3\n        /* \"#utility.yul\":7580:7595   */\n      add\n        /* \"#utility.yul\":7573:7613   */\n      mstore\n        /* \"#utility.yul\":7388:7620   */\n      pop\n      jump\t// out\n        /* \"#utility.yul\":7626:7992   */\n    tag_318:\n        /* \"#utility.yul\":7768:7771   */\n      0x00\n        /* \"#utility.yul\":7789:7856   */\n      tag_398\n        /* \"#utility.yul\":7853:7855   */\n      0x2d\n        /* \"#utility.yul\":7848:7851   */\n      dup4\n        /* \"#utility.yul\":7789:7856   */\n      tag_311\n      jump\t// in\n    tag_398:\n        /* \"#utility.yul\":7782:7856   */\n      swap2\n      pop\n        /* \"#utility.yul\":7865:7958   */\n      tag_399\n        /* \"#utility.yul\":7954:7957   */\n      dup3\n        /* \"#utility.yul\":7865:7958   */\n      tag_317\n      jump\t// in\n    tag_399:\n        /* \"#utility.yul\":7983:7985   */\n      0x40\n        /* \"#utility.yul\":7978:7981   */\n      dup3\n        /* \"#utility.yul\":7974:7986   */\n      add\n        /* \"#utility.yul\":7967:7986   */\n      swap1\n      pop\n        /* \"#utility.yul\":7626:7992   */\n      swap2\n      swap1\n      pop\n      jump\t// out\n        /* \"#utility.yul\":7998:8417   */\n    tag_155:\n        /* \"#utility.yul\":8164:8168   */\n      0x00\n        /* \"#utility.yul\":8202:8204   */\n      0x20\n        /* \"#utility.yul\":8191:8200   */\n      dup3\n        /* \"#utility.yul\":8187:8205   */\n      add\n        /* \"#utility.yul\":8179:8205   */\n      swap1\n      pop\n        /* \"#utility.yul\":8251:8260   */\n      dup2\n        /* \"#utility.yul\":8245:8249   */\n      dup2\n        /* \"#utility.yul\":8241:8261   */\n      sub\n        /* \"#utility.yul\":8237:8238   */\n      0x00\n        /* \"#utility.yul\":8226:8235   */\n      dup4\n        /* \"#utility.yul\":8222:8239   */\n      add\n        /* \"#utility.yul\":8215:8262   */\n      mstore\n        /* \"#utility.yul\":8279:8410   */\n      tag_401\n        /* \"#utility.yul\":8405:8409   */\n      dup2\n        /* \"#utility.yul\":8279:8410   */\n      tag_318\n      jump\t// in\n    tag_401:\n        /* \"#utility.yul\":8271:8410   */\n      swap1\n      pop\n        /* \"#utility.yul\":7998:8417   */\n      swap2\n      swap1\n      pop\n      jump\t// out\n        /* \"#utility.yul\":8423:8658   */\n    tag_319:\n        /* \"#utility.yul\":8563:8597   */\n      0x546f6b656e53616c6552656769737472793a20526563697069656e7420697320\n        /* \"#utility.yul\":8559:8560   */\n      0x00\n        /* \"#utility.yul\":8551:8557   */\n      dup3\n        /* \"#utility.yul\":8547:8561   */\n      add\n        /* \"#utility.yul\":8540:8598   */\n      mstore\n        /* \"#utility.yul\":8632:8650   */\n      0x6e6f7420696e2077686974656c69737400000000000000000000000000000000\n        /* \"#utility.yul\":8627:8629   */\n      0x20\n        /* \"#utility.yul\":8619:8625   */\n      dup3\n        /* \"#utility.yul\":8615:8630   */\n      add\n        /* \"#utility.yul\":8608:8651   */\n      mstore\n        /* \"#utility.yul\":8423:8658   */\n      pop\n      jump\t// out\n        /* \"#utility.yul\":8664:9030   */\n    tag_320:\n        /* \"#utility.yul\":8806:8809   */\n      0x00\n        /* \"#utility.yul\":8827:8894   */\n      tag_404\n        /* \"#utility.yul\":8891:8893   */\n      0x30\n        /* \"#utility.yul\":8886:8889   */\n      dup4\n        /* \"#utility.yul\":8827:8894   */\n      tag_311\n      jump\t// in\n    tag_404:\n        /* \"#utility.yul\":8820:8894   */\n      swap2\n      pop\n        /* \"#utility.yul\":8903:8996   */\n      tag_405\n        /* \"#utility.yul\":8992:8995   */\n      dup3\n        /* \"#utility.yul\":8903:8996   */\n      tag_319\n      jump\t// in\n    tag_405:\n        /* \"#utility.yul\":9021:9023   */\n      0x40\n        /* \"#utility.yul\":9016:9019   */\n      dup3\n        /* \"#utility.yul\":9012:9024   */\n      add\n        /* \"#utility.yul\":9005:9024   */\n      swap1\n      pop\n        /* \"#utility.yul\":8664:9030   */\n      swap2\n      swap1\n      pop\n      jump\t// out\n        /* \"#utility.yul\":9036:9455   */\n    tag_173:\n        /* \"#utility.yul\":9202:9206   */\n      0x00\n        /* \"#utility.yul\":9240:9242   */\n      0x20\n        /* \"#utility.yul\":9229:9238   */\n      dup3\n        /* \"#utility.yul\":9225:9243   */\n      add\n        /* \"#utility.yul\":9217:9243   */\n      swap1\n      pop\n        /* \"#utility.yul\":9289:9298   */\n      dup2\n        /* \"#utility.yul\":9283:9287   */\n      dup2\n        /* \"#utility.yul\":9279:9299   */\n      sub\n        /* \"#utility.yul\":9275:9276   */\n      0x00\n        /* \"#utility.yul\":9264:9273   */\n      dup4\n        /* \"#utility.yul\":9260:9277   */\n      add\n        /* \"#utility.yul\":9253:9300   */\n      mstore\n        /* \"#utility.yul\":9317:9448   */\n      tag_407\n        /* \"#utility.yul\":9443:9447   */\n      dup2\n        /* \"#utility.yul\":9317:9448   */\n      tag_320\n      jump\t// in\n    tag_407:\n        /* \"#utility.yul\":9309:9448   */\n      swap1\n      pop\n        /* \"#utility.yul\":9036:9455   */\n      swap2\n      swap1\n      pop\n      jump\t// out\n        /* \"#utility.yul\":9461:9694   */\n    tag_321:\n        /* \"#utility.yul\":9601:9635   */\n      0x436f6e747261637420696e7374616e63652068617320616c7265616479206265\n        /* \"#utility.yul\":9597:9598   */\n      0x00\n        /* \"#utility.yul\":9589:9595   */\n      dup3\n        /* \"#utility.yul\":9585:9599   */\n      add\n        /* \"#utility.yul\":9578:9636   */\n      mstore\n        /* \"#utility.yul\":9670:9686   */\n      0x656e20696e697469616c697a6564000000000000000000000000000000000000\n        /* \"#utility.yul\":9665:9667   */\n      0x20\n        /* \"#utility.yul\":9657:9663   */\n      dup3\n        /* \"#utility.yul\":9653:9668   */\n      add\n        /* \"#utility.yul\":9646:9687   */\n      mstore\n        /* \"#utility.yul\":9461:9694   */\n      pop\n      jump\t// out\n        /* \"#utility.yul\":9700:10066   */\n    tag_322:\n        /* \"#utility.yul\":9842:9845   */\n      0x00\n        /* \"#utility.yul\":9863:9930   */\n      tag_410\n        /* \"#utility.yul\":9927:9929   */\n      0x2e\n        /* \"#utility.yul\":9922:9925   */\n      dup4\n        /* \"#utility.yul\":9863:9930   */\n      tag_311\n      jump\t// in\n    tag_410:\n        /* \"#utility.yul\":9856:9930   */\n      swap2\n      pop\n        /* \"#utility.yul\":9939:10032   */\n      tag_411\n        /* \"#utility.yul\":10028:10031   */\n      dup3\n        /* \"#utility.yul\":9939:10032   */\n      tag_321\n      jump\t// in\n    tag_411:\n        /* \"#utility.yul\":10057:10059   */\n      0x40\n        /* \"#utility.yul\":10052:10055   */\n      dup3\n        /* \"#utility.yul\":10048:10060   */\n      add\n        /* \"#utility.yul\":10041:10060   */\n      swap1\n      pop\n        /* \"#utility.yul\":9700:10066   */\n      swap2\n      swap1\n      pop\n      jump\t// out\n        /* \"#utility.yul\":10072:10491   */\n    tag_199:\n        /* \"#utility.yul\":10238:10242   */\n      0x00\n        /* \"#utility.yul\":10276:10278   */\n      0x20\n        /* \"#utility.yul\":10265:10274   */\n      dup3\n        /* \"#utility.yul\":10261:10279   */\n      add\n        /* \"#utility.yul\":10253:10279   */\n      swap1\n      pop\n        /* \"#utility.yul\":10325:10334   */\n      dup2\n        /* \"#utility.yul\":10319:10323   */\n      dup2\n        /* \"#utility.yul\":10315:10335   */\n      sub\n        /* \"#utility.yul\":10311:10312   */\n      0x00\n        /* \"#utility.yul\":10300:10309   */\n      dup4\n        /* \"#utility.yul\":10296:10313   */\n      add\n        /* \"#utility.yul\":10289:10336   */\n      mstore\n        /* \"#utility.yul\":10353:10484   */\n      tag_413\n        /* \"#utility.yul\":10479:10483   */\n      dup2\n        /* \"#utility.yul\":10353:10484   */\n      tag_322\n      jump\t// in\n    tag_413:\n        /* \"#utility.yul\":10345:10484   */\n      swap1\n      pop\n        /* \"#utility.yul\":10072:10491   */\n      swap2\n      swap1\n      pop\n      jump\t// out\n        /* \"#utility.yul\":10497:10722   */\n    tag_323:\n        /* \"#utility.yul\":10637:10671   */\n      0x4f776e61626c653a206e6577206f776e657220697320746865207a65726f2061\n        /* \"#utility.yul\":10633:10634   */\n      0x00\n        /* \"#utility.yul\":10625:10631   */\n      dup3\n        /* \"#utility.yul\":10621:10635   */\n      add\n        /* \"#utility.yul\":10614:10672   */\n      mstore\n        /* \"#utility.yul\":10706:10714   */\n      0x6464726573730000000000000000000000000000000000000000000000000000\n        /* \"#utility.yul\":10701:10703   */\n      0x20\n        /* \"#utility.yul\":10693:10699   */\n      dup3\n        /* \"#utility.yul\":10689:10704   */\n      add\n        /* \"#utility.yul\":10682:10715   */\n      mstore\n        /* \"#utility.yul\":10497:10722   */\n      pop\n      jump\t// out\n        /* \"#utility.yul\":10728:11094   */\n    tag_324:\n        /* \"#utility.yul\":10870:10873   */\n      0x00\n        /* \"#utility.yul\":10891:10958   */\n      tag_416\n        /* \"#utility.yul\":10955:10957   */\n      0x26\n        /* \"#utility.yul\":10950:10953   */\n      dup4\n        /* \"#utility.yul\":10891:10958   */\n      tag_311\n      jump\t// in\n    tag_416:\n        /* \"#utility.yul\":10884:10958   */\n      swap2\n      pop\n        /* \"#utility.yul\":10967:11060   */\n      tag_417\n        /* \"#utility.yul\":11056:11059   */\n      dup3\n        /* \"#utility.yul\":10967:11060   */\n      tag_323\n      jump\t// in\n    tag_417:\n        /* \"#utility.yul\":11085:11087   */\n      0x40\n        /* \"#utility.yul\":11080:11083   */\n      dup3\n        /* \"#utility.yul\":11076:11088   */\n      add\n        /* \"#utility.yul\":11069:11088   */\n      swap1\n      pop\n        /* \"#utility.yul\":10728:11094   */\n      swap2\n      swap1\n      pop\n      jump\t// out\n        /* \"#utility.yul\":11100:11519   */\n    tag_259:\n        /* \"#utility.yul\":11266:11270   */\n      0x00\n        /* \"#utility.yul\":11304:11306   */\n      0x20\n        /* \"#utility.yul\":11293:11302   */\n      dup3\n        /* \"#utility.yul\":11289:11307   */\n      add\n        /* \"#utility.yul\":11281:11307   */\n      swap1\n      pop\n        /* \"#utility.yul\":11353:11362   */\n      dup2\n        /* \"#utility.yul\":11347:11351   */\n      dup2\n        /* \"#utility.yul\":11343:11363   */\n      sub\n        /* \"#utility.yul\":11339:11340   */\n      0x00\n        /* \"#utility.yul\":11328:11337   */\n      dup4\n        /* \"#utility.yul\":11324:11341   */\n      add\n        /* \"#utility.yul\":11317:11364   */\n      mstore\n        /* \"#utility.yul\":11381:11512   */\n      tag_419\n        /* \"#utility.yul\":11507:11511   */\n      dup2\n        /* \"#utility.yul\":11381:11512   */\n      tag_324\n      jump\t// in\n    tag_419:\n        /* \"#utility.yul\":11373:11512   */\n      swap1\n      pop\n        /* \"#utility.yul\":11100:11519   */\n      swap2\n      swap1\n      pop\n      jump\t// out\n        /* \"#utility.yul\":11525:11719   */\n    tag_263:\n        /* \"#utility.yul\":11565:11569   */\n      0x00\n        /* \"#utility.yul\":11585:11605   */\n      tag_421\n        /* \"#utility.yul\":11603:11604   */\n      dup3\n        /* \"#utility.yul\":11585:11605   */\n      tag_308\n      jump\t// in\n    tag_421:\n        /* \"#utility.yul\":11580:11605   */\n      swap2\n      pop\n        /* \"#utility.yul\":11619:11639   */\n      tag_422\n        /* \"#utility.yul\":11637:11638   */\n      dup4\n        /* \"#utility.yul\":11619:11639   */\n      tag_308\n      jump\t// in\n    tag_422:\n        /* \"#utility.yul\":11614:11639   */\n      swap3\n      pop\n        /* \"#utility.yul\":11663:11664   */\n      dup3\n        /* \"#utility.yul\":11660:11661   */\n      dup3\n        /* \"#utility.yul\":11656:11665   */\n      sub\n        /* \"#utility.yul\":11648:11665   */\n      swap1\n      pop\n        /* \"#utility.yul\":11687:11688   */\n      dup2\n        /* \"#utility.yul\":11681:11685   */\n      dup2\n        /* \"#utility.yul\":11678:11689   */\n      gt\n        /* \"#utility.yul\":11675:11712   */\n      iszero\n      tag_423\n      jumpi\n        /* \"#utility.yul\":11692:11710   */\n      tag_424\n      tag_316\n      jump\t// in\n    tag_424:\n        /* \"#utility.yul\":11675:11712   */\n    tag_423:\n        /* \"#utility.yul\":11525:11719   */\n      swap3\n      swap2\n      pop\n      pop\n      jump\t// out\n        /* \"#utility.yul\":11725:11916   */\n    tag_272:\n        /* \"#utility.yul\":11765:11768   */\n      0x00\n        /* \"#utility.yul\":11784:11804   */\n      tag_426\n        /* \"#utility.yul\":11802:11803   */\n      dup3\n        /* \"#utility.yul\":11784:11804   */\n      tag_308\n      jump\t// in\n    tag_426:\n        /* \"#utility.yul\":11779:11804   */\n      swap2\n      pop\n        /* \"#utility.yul\":11818:11838   */\n      tag_427\n        /* \"#utility.yul\":11836:11837   */\n      dup4\n        /* \"#utility.yul\":11818:11838   */\n      tag_308\n      jump\t// in\n    tag_427:\n        /* \"#utility.yul\":11813:11838   */\n      swap3\n      pop\n        /* \"#utility.yul\":11861:11862   */\n      dup3\n        /* \"#utility.yul\":11858:11859   */\n      dup3\n        /* \"#utility.yul\":11854:11863   */\n      add\n        /* \"#utility.yul\":11847:11863   */\n      swap1\n      pop\n        /* \"#utility.yul\":11882:11885   */\n      dup1\n        /* \"#utility.yul\":11879:11880   */\n      dup3\n        /* \"#utility.yul\":11876:11886   */\n      gt\n        /* \"#utility.yul\":11873:11909   */\n      iszero\n      tag_428\n      jumpi\n        /* \"#utility.yul\":11889:11907   */\n      tag_429\n      tag_316\n      jump\t// in\n    tag_429:\n        /* \"#utility.yul\":11873:11909   */\n    tag_428:\n        /* \"#utility.yul\":11725:11916   */\n      swap3\n      swap2\n      pop\n      pop\n      jump\t// out\n        /* \"#utility.yul\":11922:12102   */\n    tag_275:\n        /* \"#utility.yul\":11970:12047   */\n      0x4e487b7100000000000000000000000000000000000000000000000000000000\n        /* \"#utility.yul\":11967:11968   */\n      0x00\n        /* \"#utility.yul\":11960:12048   */\n      mstore\n        /* \"#utility.yul\":12067:12071   */\n      0x31\n        /* \"#utility.yul\":12064:12065   */\n      0x04\n        /* \"#utility.yul\":12057:12072   */\n      mstore\n        /* \"#utility.yul\":12091:12095   */\n      0x24\n        /* \"#utility.yul\":12088:12089   */\n      0x00\n        /* \"#utility.yul\":12081:12096   */\n      revert\n        /* \"#utility.yul\":12108:12329   */\n    tag_325:\n        /* \"#utility.yul\":12248:12282   */\n      0x456e756d657261626c655365743a20696e646578206f7574206f6620626f756e\n        /* \"#utility.yul\":12244:12245   */\n      0x00\n        /* \"#utility.yul\":12236:12242   */\n      dup3\n        /* \"#utility.yul\":12232:12246   */\n      add\n        /* \"#utility.yul\":12225:12283   */\n      mstore\n        /* \"#utility.yul\":12317:12321   */\n      0x6473000000000000000000000000000000000000000000000000000000000000\n        /* \"#utility.yul\":12312:12314   */\n      0x20\n        /* \"#utility.yul\":12304:12310   */\n      dup3\n        /* \"#utility.yul\":12300:12315   */\n      add\n        /* \"#utility.yul\":12293:12322   */\n      mstore\n        /* \"#utility.yul\":12108:12329   */\n      pop\n      jump\t// out\n        /* \"#utility.yul\":12335:12701   */\n    tag_326:\n        /* \"#utility.yul\":12477:12480   */\n      0x00\n        /* \"#utility.yul\":12498:12565   */\n      tag_433\n        /* \"#utility.yul\":12562:12564   */\n      0x22\n        /* \"#utility.yul\":12557:12560   */\n      dup4\n        /* \"#utility.yul\":12498:12565   */\n      tag_311\n      jump\t// in\n    tag_433:\n        /* \"#utility.yul\":12491:12565   */\n      swap2\n      pop\n        /* \"#utility.yul\":12574:12667   */\n      tag_434\n        /* \"#utility.yul\":12663:12666   */\n      dup3\n        /* \"#utility.yul\":12574:12667   */\n      tag_325\n      jump\t// in\n    tag_434:\n        /* \"#utility.yul\":12692:12694   */\n      0x40\n        /* \"#utility.yul\":12687:12690   */\n      dup3\n        /* \"#utility.yul\":12683:12695   */\n      add\n        /* \"#utility.yul\":12676:12695   */\n      swap1\n      pop\n        /* \"#utility.yul\":12335:12701   */\n      swap2\n      swap1\n      pop\n      jump\t// out\n        /* \"#utility.yul\":12707:13126   */\n    tag_288:\n        /* \"#utility.yul\":12873:12877   */\n      0x00\n        /* \"#utility.yul\":12911:12913   */\n      0x20\n        /* \"#utility.yul\":12900:12909   */\n      dup3\n        /* \"#utility.yul\":12896:12914   */\n      add\n        /* \"#utility.yul\":12888:12914   */\n      swap1\n      pop\n        /* \"#utility.yul\":12960:12969   */\n      dup2\n        /* \"#utility.yul\":12954:12958   */\n      dup2\n        /* \"#utility.yul\":12950:12970   */\n      sub\n        /* \"#utility.yul\":12946:12947   */\n      0x00\n        /* \"#utility.yul\":12935:12944   */\n      dup4\n        /* \"#utility.yul\":12931:12948   */\n      add\n        /* \"#utility.yul\":12924:12971   */\n      mstore\n        /* \"#utility.yul\":12988:13119   */\n      tag_436\n        /* \"#utility.yul\":13114:13118   */\n      dup2\n        /* \"#utility.yul\":12988:13119   */\n      tag_326\n      jump\t// in\n    tag_436:\n        /* \"#utility.yul\":12980:13119   */\n      swap1\n      pop\n        /* \"#utility.yul\":12707:13126   */\n      swap2\n      swap1\n      pop\n      jump\t// out\n\n    auxdata: 0xa264697066735822122086dc8aa3e210af9476aa68eb8554f73b0794bffd5d20ef1171e0a2c941c4a2f364736f6c63430008130033\n}\n",
				"bytecode": {
					"linkReferences": {},
					"object": "608060405234801561001057600080fd5b50611be6806100206000396000f3fe608060405234801561001057600080fd5b50600436106101375760003560e01c80638f32d59b116100b8578063c4d66de81161007c578063c4d66de814610300578063cf9283841461031c578063d9f774fc1461033a578063f2fde38b14610358578063f3ae241514610374578063f8c94ecf146103a457610137565b80638f32d59b14610270578063941208e31461028e5780639a718924146102aa578063ac18de43146102c6578063b01cd323146102e257610137565b806370480275116100ff57806370480275146101f2578063715018a61461020e5780638b7bf3eb146102185780638da5cb5b146102365780638ed409831461025457610137565b80631785f53c1461013c57806324d7806c1461015857806326b7b1c0146101885780632d06177a146101b85780633b5a892a146101d4575b600080fd5b610156600480360381019061015191906114ba565b6103c2565b005b610172600480360381019061016d91906114ba565b610464565b60405161017f9190611502565b60405180910390f35b6101a2600480360381019061019d91906114ba565b610481565b6040516101af9190611502565b60405180910390f35b6101d260048036038101906101cd91906114ba565b61049e565b005b6101dc610558565b6040516101e991906115db565b60405180910390f35b61020c600480360381019061020791906114ba565b61063d565b005b6102166106df565b005b6102206107e7565b60405161022d9190611616565b60405180910390f35b61023e6107f8565b60405161024b9190611640565b60405180910390f35b61026e600480360381019061026991906114ba565b610822565b005b6102786108ec565b6040516102859190611502565b60405180910390f35b6102a860048036038101906102a391906114ba565b61094b565b005b6102c460048036038101906102bf91906114ba565b610a15565b005b6102e060048036038101906102db91906114ba565b610a6b565b005b6102ea610b25565b6040516102f791906115db565b60405180910390f35b61031a600480360381019061031591906114ba565b610c0a565b005b610324610cfc565b6040516103319190611616565b60405180910390f35b610342610d0d565b60405161034f91906115db565b60405180910390f35b610372600480360381019061036d91906114ba565b610df2565b005b61038e600480360381019061038991906114ba565b610e45565b60405161039b9190611502565b60405180910390f35b6103ac610e62565b6040516103b99190611616565b60405180910390f35b6103ca6108ec565b610409576040517f08c379a0000000000000000000000000000000000000000000000000000000008152600401610400906116b8565b60405180910390fd5b61041d816066610e7390919063ffffffff16565b508073ffffffffffffffffffffffffffffffffffffffff167f753f40ca3312b2408759a67875b367955e7baa221daf08aa3d643d96202ac12b60405160405180910390a250565b600061047a826066610ea390919063ffffffff16565b9050919050565b600061049782606a610ea390919063ffffffff16565b9050919050565b6104a733610464565b6104e6576040517f08c379a00000000000000000000000000000000000000000000000000000000081526004016104dd9061174a565b60405180910390fd5b6104fa816068610ed390919063ffffffff16565b503373ffffffffffffffffffffffffffffffffffffffff168173ffffffffffffffffffffffffffffffffffffffff167f80dc3d87a7a642c46b6272b119f53d4db8aef58e5984b633f1055308b77dce6d60405160405180910390a350565b60606000610566606a610f03565b905060008167ffffffffffffffff8111156105845761058361176a565b5b6040519080825280602002602001820160405280156105b25781602001602082028036833780820191505090505b50905060005b82811015610634576105d481606a610f1890919063ffffffff16565b8282815181106105e7576105e6611799565b5b602002602001019073ffffffffffffffffffffffffffffffffffffffff16908173ffffffffffffffffffffffffffffffffffffffff1681525050808061062c906117f7565b9150506105b8565b50809250505090565b6106456108ec565b610684576040517f08c379a000000000000000000000000000000000000000000000000000000000815260040161067b906116b8565b60405180910390fd5b610698816066610ed390919063ffffffff16565b508073ffffffffffffffffffffffffffffffffffffffff167fad6de4452a631e641cb59902236607946ce9272b9b981f2f80e8d129cb9084ba60405160405180910390a250565b6106e76108ec565b610726576040517f08c379a000000000000000000000000000000000000000000000000000000000815260040161071d906116b8565b60405180910390fd5b600073ffffffffffffffffffffffffffffffffffffffff16603360009054906101000a900473ffffffffffffffffffffffffffffffffffffffff1673ffffffffffffffffffffffffffffffffffffffff167f8be0079c531659141344cd1fd0a4f28419497f9722a3daafe3b4186f6b6457e060405160405180910390a36000603360006101000a81548173ffffffffffffffffffffffffffffffffffffffff021916908373ffffffffffffffffffffffffffffffffffffffff160217905550565b60006107f36066610f03565b905090565b6000603360009054906101000a900473ffffffffffffffffffffffffffffffffffffffff16905090565b61082b33610464565b8061083b575061083a33610e45565b5b61087a576040517f08c379a0000000000000000000000000000000000000000000000000000000008152600401610871906118b1565b60405180910390fd5b61088e81606a610ed390919063ffffffff16565b503373ffffffffffffffffffffffffffffffffffffffff168173ffffffffffffffffffffffffffffffffffffffff167f2b80a7166094666d080c901ac2df54fb586e96001a35a0d2caacd94cf65e7db760405160405180910390a350565b6000603360009054906101000a900473ffffffffffffffffffffffffffffffffffffffff1673ffffffffffffffffffffffffffffffffffffffff1661092f610f32565b73ffffffffffffffffffffffffffffffffffffffff1614905090565b61095433610464565b80610964575061096333610e45565b5b6109a3576040517f08c379a000000000000000000000000000000000000000000000000000000000815260040161099a906118b1565b60405180910390fd5b6109b781606a610e7390919063ffffffff16565b503373ffffffffffffffffffffffffffffffffffffffff168173ffffffffffffffffffffffffffffffffffffffff167fb5dc59fd5fd7f818cc36389dab245ac1e49cb5261773f5bba251cd049edd2c2f60405160405180910390a350565b610a2981606a610ea390919063ffffffff16565b610a68576040517f08c379a0000000000000000000000000000000000000000000000000000000008152600401610a5f90611943565b60405180910390fd5b50565b610a7433610464565b610ab3576040517f08c379a0000000000000000000000000000000000000000000000000000000008152600401610aaa9061174a565b60405180910390fd5b610ac7816068610e7390919063ffffffff16565b503373ffffffffffffffffffffffffffffffffffffffff168173ffffffffffffffffffffffffffffffffffffffff167f82854a3ef36f2eb671d3d796a049df4c263e4aae926ac9a7cf483fc411f8e90d60405160405180910390a350565b60606000610b336068610f03565b905060008167ffffffffffffffff811115610b5157610b5061176a565b5b604051908082528060200260200182016040528015610b7f5781602001602082028036833780820191505090505b50905060005b82811015610c0157610ba1816068610f1890919063ffffffff16565b828281518110610bb457610bb3611799565b5b602002602001019073ffffffffffffffffffffffffffffffffffffffff16908173ffffffffffffffffffffffffffffffffffffffff16815250508080610bf9906117f7565b915050610b85565b50809250505090565b600060019054906101000a900460ff1680610c295750610c28610f3a565b5b80610c3f575060008054906101000a900460ff16155b610c7e576040517f08c379a0000000000000000000000000000000000000000000000000000000008152600401610c75906119d5565b60405180910390fd5b60008060019054906101000a900460ff161590508015610cce576001600060016101000a81548160ff02191690831515021790555060016000806101000a81548160ff0219169083151502179055505b610cd782610f51565b8015610cf85760008060016101000a81548160ff0219169083151502179055505b5050565b6000610d086068610f03565b905090565b60606000610d1b6066610f03565b905060008167ffffffffffffffff811115610d3957610d3861176a565b5b604051908082528060200260200182016040528015610d675781602001602082028036833780820191505090505b50905060005b82811015610de957610d89816066610f1890919063ffffffff16565b828281518110610d9c57610d9b611799565b5b602002602001019073ffffffffffffffffffffffffffffffffffffffff16908173ffffffffffffffffffffffffffffffffffffffff16815250508080610de1906117f7565b915050610d6d565b50809250505090565b610dfa6108ec565b610e39576040517f08c379a0000000000000000000000000000000000000000000000000000000008152600401610e30906116b8565b60405180910390fd5b610e42816110f8565b50565b6000610e5b826068610ea390919063ffffffff16565b9050919050565b6000610e6e606a610f03565b905090565b6000610e9b836000018373ffffffffffffffffffffffffffffffffffffffff1660001b611227565b905092915050565b6000610ecb836000018373ffffffffffffffffffffffffffffffffffffffff1660001b61133f565b905092915050565b6000610efb836000018373ffffffffffffffffffffffffffffffffffffffff1660001b611362565b905092915050565b6000610f11826000016113d2565b9050919050565b6000610f2783600001836113e3565b60001c905092915050565b600033905090565b6000803090506000813b9050600081149250505090565b600060019054906101000a900460ff1680610f705750610f6f610f3a565b5b80610f86575060008054906101000a900460ff16155b610fc5576040517f08c379a0000000000000000000000000000000000000000000000000000000008152600401610fbc906119d5565b60405180910390fd5b60008060019054906101000a900460ff161590508015611015576001600060016101000a81548160ff02191690831515021790555060016000806101000a81548160ff0219169083151502179055505b81603360006101000a81548173ffffffffffffffffffffffffffffffffffffffff021916908373ffffffffffffffffffffffffffffffffffffffff160217905550603360009054906101000a900473ffffffffffffffffffffffffffffffffffffffff1673ffffffffffffffffffffffffffffffffffffffff16600073ffffffffffffffffffffffffffffffffffffffff167f8be0079c531659141344cd1fd0a4f28419497f9722a3daafe3b4186f6b6457e060405160405180910390a380156110f45760008060016101000a81548160ff0219169083151502179055505b5050565b600073ffffffffffffffffffffffffffffffffffffffff168173ffffffffffffffffffffffffffffffffffffffff1603611167576040517f08c379a000000000000000000000000000000000000000000000000000000000815260040161115e90611a67565b60405180910390fd5b8073ffffffffffffffffffffffffffffffffffffffff16603360009054906101000a900473ffffffffffffffffffffffffffffffffffffffff1673ffffffffffffffffffffffffffffffffffffffff167f8be0079c531659141344cd1fd0a4f28419497f9722a3daafe3b4186f6b6457e060405160405180910390a380603360006101000a81548173ffffffffffffffffffffffffffffffffffffffff021916908373ffffffffffffffffffffffffffffffffffffffff16021790555050565b600080836001016000848152602001908152602001600020549050600081146113335760006001826112599190611a87565b90506000600186600001805490506112719190611a87565b9050600086600001828154811061128b5761128a611799565b5b90600052602060002001549050808760000184815481106112af576112ae611799565b5b90600052602060002001819055506001836112ca9190611abb565b87600101600083815260200190815260200160002081905550866000018054806112f7576112f6611aef565b5b60019003818190600052602060002001600090559055866001016000878152602001908152602001600020600090556001945050505050611339565b60009150505b92915050565b600080836001016000848152602001908152602001600020541415905092915050565b600061136e838361133f565b6113c75782600001829080600181540180825580915050600190039060005260206000200160009091909190915055826000018054905083600101600084815260200190815260200160002081905550600190506113cc565b600090505b92915050565b600081600001805490509050919050565b60008183600001805490501161142e576040517f08c379a000000000000000000000000000000000000000000000000000000000815260040161142590611b90565b60405180910390fd5b82600001828154811061144457611443611799565b5b9060005260206000200154905092915050565b600080fd5b600073ffffffffffffffffffffffffffffffffffffffff82169050919050565b60006114878261145c565b9050919050565b6114978161147c565b81146114a257600080fd5b50565b6000813590506114b48161148e565b92915050565b6000602082840312156114d0576114cf611457565b5b60006114de848285016114a5565b91505092915050565b60008115159050919050565b6114fc816114e7565b82525050565b600060208201905061151760008301846114f3565b92915050565b600081519050919050565b600082825260208201905092915050565b6000819050602082019050919050565b6115528161147c565b82525050565b60006115648383611549565b60208301905092915050565b6000602082019050919050565b60006115888261151d565b6115928185611528565b935061159d83611539565b8060005b838110156115ce5781516115b58882611558565b97506115c083611570565b9250506001810190506115a1565b5085935050505092915050565b600060208201905081810360008301526115f5818461157d565b905092915050565b6000819050919050565b611610816115fd565b82525050565b600060208201905061162b6000830184611607565b92915050565b61163a8161147c565b82525050565b60006020820190506116556000830184611631565b92915050565b600082825260208201905092915050565b7f4f776e61626c653a2063616c6c6572206973206e6f7420746865206f776e6572600082015250565b60006116a260208361165b565b91506116ad8261166c565b602082019050919050565b600060208201905081810360008301526116d181611695565b9050919050565b7f41646d696e69737472617465643a204d73672073656e646572206973206e6f7460008201527f2061646d696e0000000000000000000000000000000000000000000000000000602082015250565b600061173460268361165b565b915061173f826116d8565b604082019050919050565b6000602082019050818103600083015261176381611727565b9050919050565b7f4e487b7100000000000000000000000000000000000000000000000000000000600052604160045260246000fd5b7f4e487b7100000000000000000000000000000000000000000000000000000000600052603260045260246000fd5b7f4e487b7100000000000000000000000000000000000000000000000000000000600052601160045260246000fd5b6000611802826115fd565b91507fffffffffffffffffffffffffffffffffffffffffffffffffffffffffffffffff8203611834576118336117c8565b5b600182019050919050565b7f4d616e6167657265643a204d73672073656e646572206973206e6f742061646d60008201527f696e206f72206d616e6167657200000000000000000000000000000000000000602082015250565b600061189b602d8361165b565b91506118a68261183f565b604082019050919050565b600060208201905081810360008301526118ca8161188e565b9050919050565b7f546f6b656e53616c6552656769737472793a20526563697069656e742069732060008201527f6e6f7420696e2077686974656c69737400000000000000000000000000000000602082015250565b600061192d60308361165b565b9150611938826118d1565b604082019050919050565b6000602082019050818103600083015261195c81611920565b9050919050565b7f436f6e747261637420696e7374616e63652068617320616c726561647920626560008201527f656e20696e697469616c697a6564000000000000000000000000000000000000602082015250565b60006119bf602e8361165b565b91506119ca82611963565b604082019050919050565b600060208201905081810360008301526119ee816119b2565b9050919050565b7f4f776e61626c653a206e6577206f776e657220697320746865207a65726f206160008201527f6464726573730000000000000000000000000000000000000000000000000000602082015250565b6000611a5160268361165b565b9150611a5c826119f5565b604082019050919050565b60006020820190508181036000830152611a8081611a44565b9050919050565b6000611a92826115fd565b9150611a9d836115fd565b9250828203905081811115611ab557611ab46117c8565b5b92915050565b6000611ac6826115fd565b9150611ad1836115fd565b9250828201905080821115611ae957611ae86117c8565b5b92915050565b7f4e487b7100000000000000000000000000000000000000000000000000000000600052603160045260246000fd5b7f456e756d657261626c655365743a20696e646578206f7574206f6620626f756e60008201527f6473000000000000000000000000000000000000000000000000000000000000602082015250565b6000611b7a60228361165b565b9150611b8582611b1e565b604082019050919050565b60006020820190508181036000830152611ba981611b6d565b905091905056fea264697066735822122086dc8aa3e210af9476aa68eb8554f73b0794bffd5d20ef1171e0a2c941c4a2f364736f6c63430008130033",
					"opcodes": "PUSH1 0x80 PUSH1 0x40 MSTORE CALLVALUE DUP1 ISZERO PUSH2 0x10 JUMPI PUSH1 0x0 DUP1 REVERT JUMPDEST POP PUSH2 0x1BE6 DUP1 PUSH2 0x20 PUSH1 0x0 CODECOPY PUSH1 0x0 RETURN INVALID PUSH1 0x80 PUSH1 0x40 MSTORE CALLVALUE DUP1 ISZERO PUSH2 0x10 JUMPI PUSH1 0x0 DUP1 REVERT JUMPDEST POP PUSH1 0x4 CALLDATASIZE LT PUSH2 0x137 JUMPI PUSH1 0x0 CALLDATALOAD PUSH1 0xE0 SHR DUP1 PUSH4 0x8F32D59B GT PUSH2 0xB8 JUMPI DUP1 PUSH4 0xC4D66DE8 GT PUSH2 0x7C JUMPI DUP1 PUSH4 0xC4D66DE8 EQ PUSH2 0x300 JUMPI DUP1 PUSH4 0xCF928384 EQ PUSH2 0x31C JUMPI DUP1 PUSH4 0xD9F774FC EQ PUSH2 0x33A JUMPI DUP1 PUSH4 0xF2FDE38B EQ PUSH2 0x358 JUMPI DUP1 PUSH4 0xF3AE2415 EQ PUSH2 0x374 JUMPI DUP1 PUSH4 0xF8C94ECF EQ PUSH2 0x3A4 JUMPI PUSH2 0x137 JUMP JUMPDEST DUP1 PUSH4 0x8F32D59B EQ PUSH2 0x270 JUMPI DUP1 PUSH4 0x941208E3 EQ PUSH2 0x28E JUMPI DUP1 PUSH4 0x9A718924 EQ PUSH2 0x2AA JUMPI DUP1 PUSH4 0xAC18DE43 EQ PUSH2 0x2C6 JUMPI DUP1 PUSH4 0xB01CD323 EQ PUSH2 0x2E2 JUMPI PUSH2 0x137 JUMP JUMPDEST DUP1 PUSH4 0x70480275 GT PUSH2 0xFF JUMPI DUP1 PUSH4 0x70480275 EQ PUSH2 0x1F2 JUMPI DUP1 PUSH4 0x715018A6 EQ PUSH2 0x20E JUMPI DUP1 PUSH4 0x8B7BF3EB EQ PUSH2 0x218 JUMPI DUP1 PUSH4 0x8DA5CB5B EQ PUSH2 0x236 JUMPI DUP1 PUSH4 0x8ED40983 EQ PUSH2 0x254 JUMPI PUSH2 0x137 JUMP JUMPDEST DUP1 PUSH4 0x1785F53C EQ PUSH2 0x13C JUMPI DUP1 PUSH4 0x24D7806C EQ PUSH2 0x158 JUMPI DUP1 PUSH4 0x26B7B1C0 EQ PUSH2 0x188 JUMPI DUP1 PUSH4 0x2D06177A EQ PUSH2 0x1B8 JUMPI DUP1 PUSH4 0x3B5A892A EQ PUSH2 0x1D4 JUMPI JUMPDEST PUSH1 0x0 DUP1 REVERT JUMPDEST PUSH2 0x156 PUSH1 0x4 DUP1 CALLDATASIZE SUB DUP2 ADD SWAP1 PUSH2 0x151 SWAP2 SWAP1 PUSH2 0x14BA JUMP JUMPDEST PUSH2 0x3C2 JUMP JUMPDEST STOP JUMPDEST PUSH2 0x172 PUSH1 0x4 DUP1 CALLDATASIZE SUB DUP2 ADD SWAP1 PUSH2 0x16D SWAP2 SWAP1 PUSH2 0x14BA JUMP JUMPDEST PUSH2 0x464 JUMP JUMPDEST PUSH1 0x40 MLOAD PUSH2 0x17F SWAP2 SWAP1 PUSH2 0x1502 JUMP JUMPDEST PUSH1 0x40 MLOAD DUP1 SWAP2 SUB SWAP1 RETURN JUMPDEST PUSH2 0x1A2 PUSH1 0x4 DUP1 CALLDATASIZE SUB DUP2 ADD SWAP1 PUSH2 0x19D SWAP2 SWAP1 PUSH2 0x14BA JUMP JUMPDEST PUSH2 0x481 JUMP JUMPDEST PUSH1 0x40 MLOAD PUSH2 0x1AF SWAP2 SWAP1 PUSH2 0x1502 JUMP JUMPDEST PUSH1 0x40 MLOAD DUP1 SWAP2 SUB SWAP1 RETURN JUMPDEST PUSH2 0x1D2 PUSH1 0x4 DUP1 CALLDATASIZE SUB DUP2 ADD SWAP1 PUSH2 0x1CD SWAP2 SWAP1 PUSH2 0x14BA JUMP JUMPDEST PUSH2 0x49E JUMP JUMPDEST STOP JUMPDEST PUSH2 0x1DC PUSH2 0x558 JUMP JUMPDEST PUSH1 0x40 MLOAD PUSH2 0x1E9 SWAP2 SWAP1 PUSH2 0x15DB JUMP JUMPDEST PUSH1 0x40 MLOAD DUP1 SWAP2 SUB SWAP1 RETURN JUMPDEST PUSH2 0x20C PUSH1 0x4 DUP1 CALLDATASIZE SUB DUP2 ADD SWAP1 PUSH2 0x207 SWAP2 SWAP1 PUSH2 0x14BA JUMP JUMPDEST PUSH2 0x63D JUMP JUMPDEST STOP JUMPDEST PUSH2 0x216 PUSH2 0x6DF JUMP JUMPDEST STOP JUMPDEST PUSH2 0x220 PUSH2 0x7E7 JUMP JUMPDEST PUSH1 0x40 MLOAD PUSH2 0x22D SWAP2 SWAP1 PUSH2 0x1616 JUMP JUMPDEST PUSH1 0x40 MLOAD DUP1 SWAP2 SUB SWAP1 RETURN JUMPDEST PUSH2 0x23E PUSH2 0x7F8 JUMP JUMPDEST PUSH1 0x40 MLOAD PUSH2 0x24B SWAP2 SWAP1 PUSH2 0x1640 JUMP JUMPDEST PUSH1 0x40 MLOAD DUP1 SWAP2 SUB SWAP1 RETURN JUMPDEST PUSH2 0x26E PUSH1 0x4 DUP1 CALLDATASIZE SUB DUP2 ADD SWAP1 PUSH2 0x269 SWAP2 SWAP1 PUSH2 0x14BA JUMP JUMPDEST PUSH2 0x822 JUMP JUMPDEST STOP JUMPDEST PUSH2 0x278 PUSH2 0x8EC JUMP JUMPDEST PUSH1 0x40 MLOAD PUSH2 0x285 SWAP2 SWAP1 PUSH2 0x1502 JUMP JUMPDEST PUSH1 0x40 MLOAD DUP1 SWAP2 SUB SWAP1 RETURN JUMPDEST PUSH2 0x2A8 PUSH1 0x4 DUP1 CALLDATASIZE SUB DUP2 ADD SWAP1 PUSH2 0x2A3 SWAP2 SWAP1 PUSH2 0x14BA JUMP JUMPDEST PUSH2 0x94B JUMP JUMPDEST STOP JUMPDEST PUSH2 0x2C4 PUSH1 0x4 DUP1 CALLDATASIZE SUB DUP2 ADD SWAP1 PUSH2 0x2BF SWAP2 SWAP1 PUSH2 0x14BA JUMP JUMPDEST PUSH2 0xA15 JUMP JUMPDEST STOP JUMPDEST PUSH2 0x2E0 PUSH1 0x4 DUP1 CALLDATASIZE SUB DUP2 ADD SWAP1 PUSH2 0x2DB SWAP2 SWAP1 PUSH2 0x14BA JUMP JUMPDEST PUSH2 0xA6B JUMP JUMPDEST STOP JUMPDEST PUSH2 0x2EA PUSH2 0xB25 JUMP JUMPDEST PUSH1 0x40 MLOAD PUSH2 0x2F7 SWAP2 SWAP1 PUSH2 0x15DB JUMP JUMPDEST PUSH1 0x40 MLOAD DUP1 SWAP2 SUB SWAP1 RETURN JUMPDEST PUSH2 0x31A PUSH1 0x4 DUP1 CALLDATASIZE SUB DUP2 ADD SWAP1 PUSH2 0x315 SWAP2 SWAP1 PUSH2 0x14BA JUMP JUMPDEST PUSH2 0xC0A JUMP JUMPDEST STOP JUMPDEST PUSH2 0x324 PUSH2 0xCFC JUMP JUMPDEST PUSH1 0x40 MLOAD PUSH2 0x331 SWAP2 SWAP1 PUSH2 0x1616 JUMP JUMPDEST PUSH1 0x40 MLOAD DUP1 SWAP2 SUB SWAP1 RETURN JUMPDEST PUSH2 0x342 PUSH2 0xD0D JUMP JUMPDEST PUSH1 0x40 MLOAD PUSH2 0x34F SWAP2 SWAP1 PUSH2 0x15DB JUMP JUMPDEST PUSH1 0x40 MLOAD DUP1 SWAP2 SUB SWAP1 RETURN JUMPDEST PUSH2 0x372 PUSH1 0x4 DUP1 CALLDATASIZE SUB DUP2 ADD SWAP1 PUSH2 0x36D SWAP2 SWAP1 PUSH2 0x14BA JUMP JUMPDEST PUSH2 0xDF2 JUMP JUMPDEST STOP JUMPDEST PUSH2 0x38E PUSH1 0x4 DUP1 CALLDATASIZE SUB DUP2 ADD SWAP1 PUSH2 0x389 SWAP2 SWAP1 PUSH2 0x14BA JUMP JUMPDEST PUSH2 0xE45 JUMP JUMPDEST PUSH1 0x40 MLOAD PUSH2 0x39B SWAP2 SWAP1 PUSH2 0x1502 JUMP JUMPDEST PUSH1 0x40 MLOAD DUP1 SWAP2 SUB SWAP1 RETURN JUMPDEST PUSH2 0x3AC PUSH2 0xE62 JUMP JUMPDEST PUSH1 0x40 MLOAD PUSH2 0x3B9 SWAP2 SWAP1 PUSH2 0x1616 JUMP JUMPDEST PUSH1 0x40 MLOAD DUP1 SWAP2 SUB SWAP1 RETURN JUMPDEST PUSH2 0x3CA PUSH2 0x8EC JUMP JUMPDEST PUSH2 0x409 JUMPI PUSH1 0x40 MLOAD PUSH32 0x8C379A000000000000000000000000000000000000000000000000000000000 DUP2 MSTORE PUSH1 0x4 ADD PUSH2 0x400 SWAP1 PUSH2 0x16B8 JUMP JUMPDEST PUSH1 0x40 MLOAD DUP1 SWAP2 SUB SWAP1 REVERT JUMPDEST PUSH2 0x41D DUP2 PUSH1 0x66 PUSH2 0xE73 SWAP1 SWAP2 SWAP1 PUSH4 0xFFFFFFFF AND JUMP JUMPDEST POP DUP1 PUSH20 0xFFFFFFFFFFFFFFFFFFFFFFFFFFFFFFFFFFFFFFFF AND PUSH32 0x753F40CA3312B2408759A67875B367955E7BAA221DAF08AA3D643D96202AC12B PUSH1 0x40 MLOAD PUSH1 0x40 MLOAD DUP1 SWAP2 SUB SWAP1 LOG2 POP JUMP JUMPDEST PUSH1 0x0 PUSH2 0x47A DUP3 PUSH1 0x66 PUSH2 0xEA3 SWAP1 SWAP2 SWAP1 PUSH4 0xFFFFFFFF AND JUMP JUMPDEST SWAP1 POP SWAP2 SWAP1 POP JUMP JUMPDEST PUSH1 0x0 PUSH2 0x497 DUP3 PUSH1 0x6A PUSH2 0xEA3 SWAP1 SWAP2 SWAP1 PUSH4 0xFFFFFFFF AND JUMP JUMPDEST SWAP1 POP SWAP2 SWAP1 POP JUMP JUMPDEST PUSH2 0x4A7 CALLER PUSH2 0x464 JUMP JUMPDEST PUSH2 0x4E6 JUMPI PUSH1 0x40 MLOAD PUSH32 0x8C379A000000000000000000000000000000000000000000000000000000000 DUP2 MSTORE PUSH1 0x4 ADD PUSH2 0x4DD SWAP1 PUSH2 0x174A JUMP JUMPDEST PUSH1 0x40 MLOAD DUP1 SWAP2 SUB SWAP1 REVERT JUMPDEST PUSH2 0x4FA DUP2 PUSH1 0x68 PUSH2 0xED3 SWAP1 SWAP2 SWAP1 PUSH4 0xFFFFFFFF AND JUMP JUMPDEST POP CALLER PUSH20 0xFFFFFFFFFFFFFFFFFFFFFFFFFFFFFFFFFFFFFFFF AND DUP2 PUSH20 0xFFFFFFFFFFFFFFFFFFFFFFFFFFFFFFFFFFFFFFFF AND PUSH32 0x80DC3D87A7A642C46B6272B119F53D4DB8AEF58E5984B633F1055308B77DCE6D PUSH1 0x40 MLOAD PUSH1 0x40 MLOAD DUP1 SWAP2 SUB SWAP1 LOG3 POP JUMP JUMPDEST PUSH1 0x60 PUSH1 0x0 PUSH2 0x566 PUSH1 0x6A PUSH2 0xF03 JUMP JUMPDEST SWAP1 POP PUSH1 0x0 DUP2 PUSH8 0xFFFFFFFFFFFFFFFF DUP2 GT ISZERO PUSH2 0x584 JUMPI PUSH2 0x583 PUSH2 0x176A JUMP JUMPDEST JUMPDEST PUSH1 0x40 MLOAD SWAP1 DUP1 DUP3 MSTORE DUP1 PUSH1 0x20 MUL PUSH1 0x20 ADD DUP3 ADD PUSH1 0x40 MSTORE DUP1 ISZERO PUSH2 0x5B2 JUMPI DUP2 PUSH1 0x20 ADD PUSH1 0x20 DUP3 MUL DUP1 CALLDATASIZE DUP4 CALLDATACOPY DUP1 DUP3 ADD SWAP2 POP POP SWAP1 POP JUMPDEST POP SWAP1 POP PUSH1 0x0 JUMPDEST DUP3 DUP2 LT ISZERO PUSH2 0x634 JUMPI PUSH2 0x5D4 DUP2 PUSH1 0x6A PUSH2 0xF18 SWAP1 SWAP2 SWAP1 PUSH4 0xFFFFFFFF AND JUMP JUMPDEST DUP3 DUP3 DUP2 MLOAD DUP2 LT PUSH2 0x5E7 JUMPI PUSH2 0x5E6 PUSH2 0x1799 JUMP JUMPDEST JUMPDEST PUSH1 0x20 MUL PUSH1 0x20 ADD ADD SWAP1 PUSH20 0xFFFFFFFFFFFFFFFFFFFFFFFFFFFFFFFFFFFFFFFF AND SWAP1 DUP2 PUSH20 0xFFFFFFFFFFFFFFFFFFFFFFFFFFFFFFFFFFFFFFFF AND DUP2 MSTORE POP POP DUP1 DUP1 PUSH2 0x62C SWAP1 PUSH2 0x17F7 JUMP JUMPDEST SWAP2 POP POP PUSH2 0x5B8 JUMP JUMPDEST POP DUP1 SWAP3 POP POP POP SWAP1 JUMP JUMPDEST PUSH2 0x645 PUSH2 0x8EC JUMP JUMPDEST PUSH2 0x684 JUMPI PUSH1 0x40 MLOAD PUSH32 0x8C379A000000000000000000000000000000000000000000000000000000000 DUP2 MSTORE PUSH1 0x4 ADD PUSH2 0x67B SWAP1 PUSH2 0x16B8 JUMP JUMPDEST PUSH1 0x40 MLOAD DUP1 SWAP2 SUB SWAP1 REVERT JUMPDEST PUSH2 0x698 DUP2 PUSH1 0x66 PUSH2 0xED3 SWAP1 SWAP2 SWAP1 PUSH4 0xFFFFFFFF AND JUMP JUMPDEST POP DUP1 PUSH20 0xFFFFFFFFFFFFFFFFFFFFFFFFFFFFFFFFFFFFFFFF AND PUSH32 0xAD6DE4452A631E641CB59902236607946CE9272B9B981F2F80E8D129CB9084BA PUSH1 0x40 MLOAD PUSH1 0x40 MLOAD DUP1 SWAP2 SUB SWAP1 LOG2 POP JUMP JUMPDEST PUSH2 0x6E7 PUSH2 0x8EC JUMP JUMPDEST PUSH2 0x726 JUMPI PUSH1 0x40 MLOAD PUSH32 0x8C379A000000000000000000000000000000000000000000000000000000000 DUP2 MSTORE PUSH1 0x4 ADD PUSH2 0x71D SWAP1 PUSH2 0x16B8 JUMP JUMPDEST PUSH1 0x40 MLOAD DUP1 SWAP2 SUB SWAP1 REVERT JUMPDEST PUSH1 0x0 PUSH20 0xFFFFFFFFFFFFFFFFFFFFFFFFFFFFFFFFFFFFFFFF AND PUSH1 0x33 PUSH1 0x0 SWAP1 SLOAD SWAP1 PUSH2 0x100 EXP SWAP1 DIV PUSH20 0xFFFFFFFFFFFFFFFFFFFFFFFFFFFFFFFFFFFFFFFF AND PUSH20 0xFFFFFFFFFFFFFFFFFFFFFFFFFFFFFFFFFFFFFFFF AND PUSH32 0x8BE0079C531659141344CD1FD0A4F28419497F9722A3DAAFE3B4186F6B6457E0 PUSH1 0x40 MLOAD PUSH1 0x40 MLOAD DUP1 SWAP2 SUB SWAP1 LOG3 PUSH1 0x0 PUSH1 0x33 PUSH1 0x0 PUSH2 0x100 EXP DUP2 SLOAD DUP2 PUSH20 0xFFFFFFFFFFFFFFFFFFFFFFFFFFFFFFFFFFFFFFFF MUL NOT AND SWAP1 DUP4 PUSH20 0xFFFFFFFFFFFFFFFFFFFFFFFFFFFFFFFFFFFFFFFF AND MUL OR SWAP1 SSTORE POP JUMP JUMPDEST PUSH1 0x0 PUSH2 0x7F3 PUSH1 0x66 PUSH2 0xF03 JUMP JUMPDEST SWAP1 POP SWAP1 JUMP JUMPDEST PUSH1 0x0 PUSH1 0x33 PUSH1 0x0 SWAP1 SLOAD SWAP1 PUSH2 0x100 EXP SWAP1 DIV PUSH20 0xFFFFFFFFFFFFFFFFFFFFFFFFFFFFFFFFFFFFFFFF AND SWAP1 POP SWAP1 JUMP JUMPDEST PUSH2 0x82B CALLER PUSH2 0x464 JUMP JUMPDEST DUP1 PUSH2 0x83B JUMPI POP PUSH2 0x83A CALLER PUSH2 0xE45 JUMP JUMPDEST JUMPDEST PUSH2 0x87A JUMPI PUSH1 0x40 MLOAD PUSH32 0x8C379A000000000000000000000000000000000000000000000000000000000 DUP2 MSTORE PUSH1 0x4 ADD PUSH2 0x871 SWAP1 PUSH2 0x18B1 JUMP JUMPDEST PUSH1 0x40 MLOAD DUP1 SWAP2 SUB SWAP1 REVERT JUMPDEST PUSH2 0x88E DUP2 PUSH1 0x6A PUSH2 0xED3 SWAP1 SWAP2 SWAP1 PUSH4 0xFFFFFFFF AND JUMP JUMPDEST POP CALLER PUSH20 0xFFFFFFFFFFFFFFFFFFFFFFFFFFFFFFFFFFFFFFFF AND DUP2 PUSH20 0xFFFFFFFFFFFFFFFFFFFFFFFFFFFFFFFFFFFFFFFF AND PUSH32 0x2B80A7166094666D080C901AC2DF54FB586E96001A35A0D2CAACD94CF65E7DB7 PUSH1 0x40 MLOAD PUSH1 0x40 MLOAD DUP1 SWAP2 SUB SWAP1 LOG3 POP JUMP JUMPDEST PUSH1 0x0 PUSH1 0x33 PUSH1 0x0 SWAP1 SLOAD SWAP1 PUSH2 0x100 EXP SWAP1 DIV PUSH20 0xFFFFFFFFFFFFFFFFFFFFFFFFFFFFFFFFFFFFFFFF AND PUSH20 0xFFFFFFFFFFFFFFFFFFFFFFFFFFFFFFFFFFFFFFFF AND PUSH2 0x92F PUSH2 0xF32 JUMP JUMPDEST PUSH20 0xFFFFFFFFFFFFFFFFFFFFFFFFFFFFFFFFFFFFFFFF AND EQ SWAP1 POP SWAP1 JUMP JUMPDEST PUSH2 0x954 CALLER PUSH2 0x464 JUMP JUMPDEST DUP1 PUSH2 0x964 JUMPI POP PUSH2 0x963 CALLER PUSH2 0xE45 JUMP JUMPDEST JUMPDEST PUSH2 0x9A3 JUMPI PUSH1 0x40 MLOAD PUSH32 0x8C379A000000000000000000000000000000000000000000000000000000000 DUP2 MSTORE PUSH1 0x4 ADD PUSH2 0x99A SWAP1 PUSH2 0x18B1 JUMP JUMPDEST PUSH1 0x40 MLOAD DUP1 SWAP2 SUB SWAP1 REVERT JUMPDEST PUSH2 0x9B7 DUP2 PUSH1 0x6A PUSH2 0xE73 SWAP1 SWAP2 SWAP1 PUSH4 0xFFFFFFFF AND JUMP JUMPDEST POP CALLER PUSH20 0xFFFFFFFFFFFFFFFFFFFFFFFFFFFFFFFFFFFFFFFF AND DUP2 PUSH20 0xFFFFFFFFFFFFFFFFFFFFFFFFFFFFFFFFFFFFFFFF AND PUSH32 0xB5DC59FD5FD7F818CC36389DAB245AC1E49CB5261773F5BBA251CD049EDD2C2F PUSH1 0x40 MLOAD PUSH1 0x40 MLOAD DUP1 SWAP2 SUB SWAP1 LOG3 POP JUMP JUMPDEST PUSH2 0xA29 DUP2 PUSH1 0x6A PUSH2 0xEA3 SWAP1 SWAP2 SWAP1 PUSH4 0xFFFFFFFF AND JUMP JUMPDEST PUSH2 0xA68 JUMPI PUSH1 0x40 MLOAD PUSH32 0x8C379A000000000000000000000000000000000000000000000000000000000 DUP2 MSTORE PUSH1 0x4 ADD PUSH2 0xA5F SWAP1 PUSH2 0x1943 JUMP JUMPDEST PUSH1 0x40 MLOAD DUP1 SWAP2 SUB SWAP1 REVERT JUMPDEST POP JUMP JUMPDEST PUSH2 0xA74 CALLER PUSH2 0x464 JUMP JUMPDEST PUSH2 0xAB3 JUMPI PUSH1 0x40 MLOAD PUSH32 0x8C379A000000000000000000000000000000000000000000000000000000000 DUP2 MSTORE PUSH1 0x4 ADD PUSH2 0xAAA SWAP1 PUSH2 0x174A JUMP JUMPDEST PUSH1 0x40 MLOAD DUP1 SWAP2 SUB SWAP1 REVERT JUMPDEST PUSH2 0xAC7 DUP2 PUSH1 0x68 PUSH2 0xE73 SWAP1 SWAP2 SWAP1 PUSH4 0xFFFFFFFF AND JUMP JUMPDEST POP CALLER PUSH20 0xFFFFFFFFFFFFFFFFFFFFFFFFFFFFFFFFFFFFFFFF AND DUP2 PUSH20 0xFFFFFFFFFFFFFFFFFFFFFFFFFFFFFFFFFFFFFFFF AND PUSH32 0x82854A3EF36F2EB671D3D796A049DF4C263E4AAE926AC9A7CF483FC411F8E90D PUSH1 0x40 MLOAD PUSH1 0x40 MLOAD DUP1 SWAP2 SUB SWAP1 LOG3 POP JUMP JUMPDEST PUSH1 0x60 PUSH1 0x0 PUSH2 0xB33 PUSH1 0x68 PUSH2 0xF03 JUMP JUMPDEST SWAP1 POP PUSH1 0x0 DUP2 PUSH8 0xFFFFFFFFFFFFFFFF DUP2 GT ISZERO PUSH2 0xB51 JUMPI PUSH2 0xB50 PUSH2 0x176A JUMP JUMPDEST JUMPDEST PUSH1 0x40 MLOAD SWAP1 DUP1 DUP3 MSTORE DUP1 PUSH1 0x20 MUL PUSH1 0x20 ADD DUP3 ADD PUSH1 0x40 MSTORE DUP1 ISZERO PUSH2 0xB7F JUMPI DUP2 PUSH1 0x20 ADD PUSH1 0x20 DUP3 MUL DUP1 CALLDATASIZE DUP4 CALLDATACOPY DUP1 DUP3 ADD SWAP2 POP POP SWAP1 POP JUMPDEST POP SWAP1 POP PUSH1 0x0 JUMPDEST DUP3 DUP2 LT ISZERO PUSH2 0xC01 JUMPI PUSH2 0xBA1 DUP2 PUSH1 0x68 PUSH2 0xF18 SWAP1 SWAP2 SWAP1 PUSH4 0xFFFFFFFF AND JUMP JUMPDEST DUP3 DUP3 DUP2 MLOAD DUP2 LT PUSH2 0xBB4 JUMPI PUSH2 0xBB3 PUSH2 0x1799 JUMP JUMPDEST JUMPDEST PUSH1 0x20 MUL PUSH1 0x20 ADD ADD SWAP1 PUSH20 0xFFFFFFFFFFFFFFFFFFFFFFFFFFFFFFFFFFFFFFFF AND SWAP1 DUP2 PUSH20 0xFFFFFFFFFFFFFFFFFFFFFFFFFFFFFFFFFFFFFFFF AND DUP2 MSTORE POP POP DUP1 DUP1 PUSH2 0xBF9 SWAP1 PUSH2 0x17F7 JUMP JUMPDEST SWAP2 POP POP PUSH2 0xB85 JUMP JUMPDEST POP DUP1 SWAP3 POP POP POP SWAP1 JUMP JUMPDEST PUSH1 0x0 PUSH1 0x1 SWAP1 SLOAD SWAP1 PUSH2 0x100 EXP SWAP1 DIV PUSH1 0xFF AND DUP1 PUSH2 0xC29 JUMPI POP PUSH2 0xC28 PUSH2 0xF3A JUMP JUMPDEST JUMPDEST DUP1 PUSH2 0xC3F JUMPI POP PUSH1 0x0 DUP1 SLOAD SWAP1 PUSH2 0x100 EXP SWAP1 DIV PUSH1 0xFF AND ISZERO JUMPDEST PUSH2 0xC7E JUMPI PUSH1 0x40 MLOAD PUSH32 0x8C379A000000000000000000000000000000000000000000000000000000000 DUP2 MSTORE PUSH1 0x4 ADD PUSH2 0xC75 SWAP1 PUSH2 0x19D5 JUMP JUMPDEST PUSH1 0x40 MLOAD DUP1 SWAP2 SUB SWAP1 REVERT JUMPDEST PUSH1 0x0 DUP1 PUSH1 0x1 SWAP1 SLOAD SWAP1 PUSH2 0x100 EXP SWAP1 DIV PUSH1 0xFF AND ISZERO SWAP1 POP DUP1 ISZERO PUSH2 0xCCE JUMPI PUSH1 0x1 PUSH1 0x0 PUSH1 0x1 PUSH2 0x100 EXP DUP2 SLOAD DUP2 PUSH1 0xFF MUL NOT AND SWAP1 DUP4 ISZERO ISZERO MUL OR SWAP1 SSTORE POP PUSH1 0x1 PUSH1 0x0 DUP1 PUSH2 0x100 EXP DUP2 SLOAD DUP2 PUSH1 0xFF MUL NOT AND SWAP1 DUP4 ISZERO ISZERO MUL OR SWAP1 SSTORE POP JUMPDEST PUSH2 0xCD7 DUP3 PUSH2 0xF51 JUMP JUMPDEST DUP1 ISZERO PUSH2 0xCF8 JUMPI PUSH1 0x0 DUP1 PUSH1 0x1 PUSH2 0x100 EXP DUP2 SLOAD DUP2 PUSH1 0xFF MUL NOT AND SWAP1 DUP4 ISZERO ISZERO MUL OR SWAP1 SSTORE POP JUMPDEST POP POP JUMP JUMPDEST PUSH1 0x0 PUSH2 0xD08 PUSH1 0x68 PUSH2 0xF03 JUMP JUMPDEST SWAP1 POP SWAP1 JUMP JUMPDEST PUSH1 0x60 PUSH1 0x0 PUSH2 0xD1B PUSH1 0x66 PUSH2 0xF03 JUMP JUMPDEST SWAP1 POP PUSH1 0x0 DUP2 PUSH8 0xFFFFFFFFFFFFFFFF DUP2 GT ISZERO PUSH2 0xD39 JUMPI PUSH2 0xD38 PUSH2 0x176A JUMP JUMPDEST JUMPDEST PUSH1 0x40 MLOAD SWAP1 DUP1 DUP3 MSTORE DUP1 PUSH1 0x20 MUL PUSH1 0x20 ADD DUP3 ADD PUSH1 0x40 MSTORE DUP1 ISZERO PUSH2 0xD67 JUMPI DUP2 PUSH1 0x20 ADD PUSH1 0x20 DUP3 MUL DUP1 CALLDATASIZE DUP4 CALLDATACOPY DUP1 DUP3 ADD SWAP2 POP POP SWAP1 POP JUMPDEST POP SWAP1 POP PUSH1 0x0 JUMPDEST DUP3 DUP2 LT ISZERO PUSH2 0xDE9 JUMPI PUSH2 0xD89 DUP2 PUSH1 0x66 PUSH2 0xF18 SWAP1 SWAP2 SWAP1 PUSH4 0xFFFFFFFF AND JUMP JUMPDEST DUP3 DUP3 DUP2 MLOAD DUP2 LT PUSH2 0xD9C JUMPI PUSH2 0xD9B PUSH2 0x1799 JUMP JUMPDEST JUMPDEST PUSH1 0x20 MUL PUSH1 0x20 ADD ADD SWAP1 PUSH20 0xFFFFFFFFFFFFFFFFFFFFFFFFFFFFFFFFFFFFFFFF AND SWAP1 DUP2 PUSH20 0xFFFFFFFFFFFFFFFFFFFFFFFFFFFFFFFFFFFFFFFF AND DUP2 MSTORE POP POP DUP1 DUP1 PUSH2 0xDE1 SWAP1 PUSH2 0x17F7 JUMP JUMPDEST SWAP2 POP POP PUSH2 0xD6D JUMP JUMPDEST POP DUP1 SWAP3 POP POP POP SWAP1 JUMP JUMPDEST PUSH2 0xDFA PUSH2 0x8EC JUMP JUMPDEST PUSH2 0xE39 JUMPI PUSH1 0x40 MLOAD PUSH32 0x8C379A000000000000000000000000000000000000000000000000000000000 DUP2 MSTORE PUSH1 0x4 ADD PUSH2 0xE30 SWAP1 PUSH2 0x16B8 JUMP JUMPDEST PUSH1 0x40 MLOAD DUP1 SWAP2 SUB SWAP1 REVERT JUMPDEST PUSH2 0xE42 DUP2 PUSH2 0x10F8 JUMP JUMPDEST POP JUMP JUMPDEST PUSH1 0x0 PUSH2 0xE5B DUP3 PUSH1 0x68 PUSH2 0xEA3 SWAP1 SWAP2 SWAP1 PUSH4 0xFFFFFFFF AND JUMP JUMPDEST SWAP1 POP SWAP2 SWAP1 POP JUMP JUMPDEST PUSH1 0x0 PUSH2 0xE6E PUSH1 0x6A PUSH2 0xF03 JUMP JUMPDEST SWAP1 POP SWAP1 JUMP JUMPDEST PUSH1 0x0 PUSH2 0xE9B DUP4 PUSH1 0x0 ADD DUP4 PUSH20 0xFFFFFFFFFFFFFFFFFFFFFFFFFFFFFFFFFFFFFFFF AND PUSH1 0x0 SHL PUSH2 0x1227 JUMP JUMPDEST SWAP1 POP SWAP3 SWAP2 POP POP JUMP JUMPDEST PUSH1 0x0 PUSH2 0xECB DUP4 PUSH1 0x0 ADD DUP4 PUSH20 0xFFFFFFFFFFFFFFFFFFFFFFFFFFFFFFFFFFFFFFFF AND PUSH1 0x0 SHL PUSH2 0x133F JUMP JUMPDEST SWAP1 POP SWAP3 SWAP2 POP POP JUMP JUMPDEST PUSH1 0x0 PUSH2 0xEFB DUP4 PUSH1 0x0 ADD DUP4 PUSH20 0xFFFFFFFFFFFFFFFFFFFFFFFFFFFFFFFFFFFFFFFF AND PUSH1 0x0 SHL PUSH2 0x1362 JUMP JUMPDEST SWAP1 POP SWAP3 SWAP2 POP POP JUMP JUMPDEST PUSH1 0x0 PUSH2 0xF11 DUP3 PUSH1 0x0 ADD PUSH2 0x13D2 JUMP JUMPDEST SWAP1 POP SWAP2 SWAP1 POP JUMP JUMPDEST PUSH1 0x0 PUSH2 0xF27 DUP4 PUSH1 0x0 ADD DUP4 PUSH2 0x13E3 JUMP JUMPDEST PUSH1 0x0 SHR SWAP1 POP SWAP3 SWAP2 POP POP JUMP JUMPDEST PUSH1 0x0 CALLER SWAP1 POP SWAP1 JUMP JUMPDEST PUSH1 0x0 DUP1 ADDRESS SWAP1 POP PUSH1 0x0 DUP2 EXTCODESIZE SWAP1 POP PUSH1 0x0 DUP2 EQ SWAP3 POP POP POP SWAP1 JUMP JUMPDEST PUSH1 0x0 PUSH1 0x1 SWAP1 SLOAD SWAP1 PUSH2 0x100 EXP SWAP1 DIV PUSH1 0xFF AND DUP1 PUSH2 0xF70 JUMPI POP PUSH2 0xF6F PUSH2 0xF3A JUMP JUMPDEST JUMPDEST DUP1 PUSH2 0xF86 JUMPI POP PUSH1 0x0 DUP1 SLOAD SWAP1 PUSH2 0x100 EXP SWAP1 DIV PUSH1 0xFF AND ISZERO JUMPDEST PUSH2 0xFC5 JUMPI PUSH1 0x40 MLOAD PUSH32 0x8C379A000000000000000000000000000000000000000000000000000000000 DUP2 MSTORE PUSH1 0x4 ADD PUSH2 0xFBC SWAP1 PUSH2 0x19D5 JUMP JUMPDEST PUSH1 0x40 MLOAD DUP1 SWAP2 SUB SWAP1 REVERT JUMPDEST PUSH1 0x0 DUP1 PUSH1 0x1 SWAP1 SLOAD SWAP1 PUSH2 0x100 EXP SWAP1 DIV PUSH1 0xFF AND ISZERO SWAP1 POP DUP1 ISZERO PUSH2 0x1015 JUMPI PUSH1 0x1 PUSH1 0x0 PUSH1 0x1 PUSH2 0x100 EXP DUP2 SLOAD DUP2 PUSH1 0xFF MUL NOT AND SWAP1 DUP4 ISZERO ISZERO MUL OR SWAP1 SSTORE POP PUSH1 0x1 PUSH1 0x0 DUP1 PUSH2 0x100 EXP DUP2 SLOAD DUP2 PUSH1 0xFF MUL NOT AND SWAP1 DUP4 ISZERO ISZERO MUL OR SWAP1 SSTORE POP JUMPDEST DUP2 PUSH1 0x33 PUSH1 0x0 PUSH2 0x100 EXP DUP2 SLOAD DUP2 PUSH20 0xFFFFFFFFFFFFFFFFFFFFFFFFFFFFFFFFFFFFFFFF MUL NOT AND SWAP1 DUP4 PUSH20 0xFFFFFFFFFFFFFFFFFFFFFFFFFFFFFFFFFFFFFFFF AND MUL OR SWAP1 SSTORE POP PUSH1 0x33 PUSH1 0x0 SWAP1 SLOAD SWAP1 PUSH2 0x100 EXP SWAP1 DIV PUSH20 0xFFFFFFFFFFFFFFFFFFFFFFFFFFFFFFFFFFFFFFFF AND PUSH20 0xFFFFFFFFFFFFFFFFFFFFFFFFFFFFFFFFFFFFFFFF AND PUSH1 0x0 PUSH20 0xFFFFFFFFFFFFFFFFFFFFFFFFFFFFFFFFFFFFFFFF AND PUSH32 0x8BE0079C531659141344CD1FD0A4F28419497F9722A3DAAFE3B4186F6B6457E0 PUSH1 0x40 MLOAD PUSH1 0x40 MLOAD DUP1 SWAP2 SUB SWAP1 LOG3 DUP1 ISZERO PUSH2 0x10F4 JUMPI PUSH1 0x0 DUP1 PUSH1 0x1 PUSH2 0x100 EXP DUP2 SLOAD DUP2 PUSH1 0xFF MUL NOT AND SWAP1 DUP4 ISZERO ISZERO MUL OR SWAP1 SSTORE POP JUMPDEST POP POP JUMP JUMPDEST PUSH1 0x0 PUSH20 0xFFFFFFFFFFFFFFFFFFFFFFFFFFFFFFFFFFFFFFFF AND DUP2 PUSH20 0xFFFFFFFFFFFFFFFFFFFFFFFFFFFFFFFFFFFFFFFF AND SUB PUSH2 0x1167 JUMPI PUSH1 0x40 MLOAD PUSH32 0x8C379A000000000000000000000000000000000000000000000000000000000 DUP2 MSTORE PUSH1 0x4 ADD PUSH2 0x115E SWAP1 PUSH2 0x1A67 JUMP JUMPDEST PUSH1 0x40 MLOAD DUP1 SWAP2 SUB SWAP1 REVERT JUMPDEST DUP1 PUSH20 0xFFFFFFFFFFFFFFFFFFFFFFFFFFFFFFFFFFFFFFFF AND PUSH1 0x33 PUSH1 0x0 SWAP1 SLOAD SWAP1 PUSH2 0x100 EXP SWAP1 DIV PUSH20 0xFFFFFFFFFFFFFFFFFFFFFFFFFFFFFFFFFFFFFFFF AND PUSH20 0xFFFFFFFFFFFFFFFFFFFFFFFFFFFFFFFFFFFFFFFF AND PUSH32 0x8BE0079C531659141344CD1FD0A4F28419497F9722A3DAAFE3B4186F6B6457E0 PUSH1 0x40 MLOAD PUSH1 0x40 MLOAD DUP1 SWAP2 SUB SWAP1 LOG3 DUP1 PUSH1 0x33 PUSH1 0x0 PUSH2 0x100 EXP DUP2 SLOAD DUP2 PUSH20 0xFFFFFFFFFFFFFFFFFFFFFFFFFFFFFFFFFFFFFFFF MUL NOT AND SWAP1 DUP4 PUSH20 0xFFFFFFFFFFFFFFFFFFFFFFFFFFFFFFFFFFFFFFFF AND MUL OR SWAP1 SSTORE POP POP JUMP JUMPDEST PUSH1 0x0 DUP1 DUP4 PUSH1 0x1 ADD PUSH1 0x0 DUP5 DUP2 MSTORE PUSH1 0x20 ADD SWAP1 DUP2 MSTORE PUSH1 0x20 ADD PUSH1 0x0 KECCAK256 SLOAD SWAP1 POP PUSH1 0x0 DUP2 EQ PUSH2 0x1333 JUMPI PUSH1 0x0 PUSH1 0x1 DUP3 PUSH2 0x1259 SWAP2 SWAP1 PUSH2 0x1A87 JUMP JUMPDEST SWAP1 POP PUSH1 0x0 PUSH1 0x1 DUP7 PUSH1 0x0 ADD DUP1 SLOAD SWAP1 POP PUSH2 0x1271 SWAP2 SWAP1 PUSH2 0x1A87 JUMP JUMPDEST SWAP1 POP PUSH1 0x0 DUP7 PUSH1 0x0 ADD DUP3 DUP2 SLOAD DUP2 LT PUSH2 0x128B JUMPI PUSH2 0x128A PUSH2 0x1799 JUMP JUMPDEST JUMPDEST SWAP1 PUSH1 0x0 MSTORE PUSH1 0x20 PUSH1 0x0 KECCAK256 ADD SLOAD SWAP1 POP DUP1 DUP8 PUSH1 0x0 ADD DUP5 DUP2 SLOAD DUP2 LT PUSH2 0x12AF JUMPI PUSH2 0x12AE PUSH2 0x1799 JUMP JUMPDEST JUMPDEST SWAP1 PUSH1 0x0 MSTORE PUSH1 0x20 PUSH1 0x0 KECCAK256 ADD DUP2 SWAP1 SSTORE POP PUSH1 0x1 DUP4 PUSH2 0x12CA SWAP2 SWAP1 PUSH2 0x1ABB JUMP JUMPDEST DUP8 PUSH1 0x1 ADD PUSH1 0x0 DUP4 DUP2 MSTORE PUSH1 0x20 ADD SWAP1 DUP2 MSTORE PUSH1 0x20 ADD PUSH1 0x0 KECCAK256 DUP2 SWAP1 SSTORE POP DUP7 PUSH1 0x0 ADD DUP1 SLOAD DUP1 PUSH2 0x12F7 JUMPI PUSH2 0x12F6 PUSH2 0x1AEF JUMP JUMPDEST JUMPDEST PUSH1 0x1 SWAP1 SUB DUP2 DUP2 SWAP1 PUSH1 0x0 MSTORE PUSH1 0x20 PUSH1 0x0 KECCAK256 ADD PUSH1 0x0 SWAP1 SSTORE SWAP1 SSTORE DUP7 PUSH1 0x1 ADD PUSH1 0x0 DUP8 DUP2 MSTORE PUSH1 0x20 ADD SWAP1 DUP2 MSTORE PUSH1 0x20 ADD PUSH1 0x0 KECCAK256 PUSH1 0x0 SWAP1 SSTORE PUSH1 0x1 SWAP5 POP POP POP POP POP PUSH2 0x1339 JUMP JUMPDEST PUSH1 0x0 SWAP2 POP POP JUMPDEST SWAP3 SWAP2 POP POP JUMP JUMPDEST PUSH1 0x0 DUP1 DUP4 PUSH1 0x1 ADD PUSH1 0x0 DUP5 DUP2 MSTORE PUSH1 0x20 ADD SWAP1 DUP2 MSTORE PUSH1 0x20 ADD PUSH1 0x0 KECCAK256 SLOAD EQ ISZERO SWAP1 POP SWAP3 SWAP2 POP POP JUMP JUMPDEST PUSH1 0x0 PUSH2 0x136E DUP4 DUP4 PUSH2 0x133F JUMP JUMPDEST PUSH2 0x13C7 JUMPI DUP3 PUSH1 0x0 ADD DUP3 SWAP1 DUP1 PUSH1 0x1 DUP2 SLOAD ADD DUP1 DUP3 SSTORE DUP1 SWAP2 POP POP PUSH1 0x1 SWAP1 SUB SWAP1 PUSH1 0x0 MSTORE PUSH1 0x20 PUSH1 0x0 KECCAK256 ADD PUSH1 0x0 SWAP1 SWAP2 SWAP1 SWAP2 SWAP1 SWAP2 POP SSTORE DUP3 PUSH1 0x0 ADD DUP1 SLOAD SWAP1 POP DUP4 PUSH1 0x1 ADD PUSH1 0x0 DUP5 DUP2 MSTORE PUSH1 0x20 ADD SWAP1 DUP2 MSTORE PUSH1 0x20 ADD PUSH1 0x0 KECCAK256 DUP2 SWAP1 SSTORE POP PUSH1 0x1 SWAP1 POP PUSH2 0x13CC JUMP JUMPDEST PUSH1 0x0 SWAP1 POP JUMPDEST SWAP3 SWAP2 POP POP JUMP JUMPDEST PUSH1 0x0 DUP2 PUSH1 0x0 ADD DUP1 SLOAD SWAP1 POP SWAP1 POP SWAP2 SWAP1 POP JUMP JUMPDEST PUSH1 0x0 DUP2 DUP4 PUSH1 0x0 ADD DUP1 SLOAD SWAP1 POP GT PUSH2 0x142E JUMPI PUSH1 0x40 MLOAD PUSH32 0x8C379A000000000000000000000000000000000000000000000000000000000 DUP2 MSTORE PUSH1 0x4 ADD PUSH2 0x1425 SWAP1 PUSH2 0x1B90 JUMP JUMPDEST PUSH1 0x40 MLOAD DUP1 SWAP2 SUB SWAP1 REVERT JUMPDEST DUP3 PUSH1 0x0 ADD DUP3 DUP2 SLOAD DUP2 LT PUSH2 0x1444 JUMPI PUSH2 0x1443 PUSH2 0x1799 JUMP JUMPDEST JUMPDEST SWAP1 PUSH1 0x0 MSTORE PUSH1 0x20 PUSH1 0x0 KECCAK256 ADD SLOAD SWAP1 POP SWAP3 SWAP2 POP POP JUMP JUMPDEST PUSH1 0x0 DUP1 REVERT JUMPDEST PUSH1 0x0 PUSH20 0xFFFFFFFFFFFFFFFFFFFFFFFFFFFFFFFFFFFFFFFF DUP3 AND SWAP1 POP SWAP2 SWAP1 POP JUMP JUMPDEST PUSH1 0x0 PUSH2 0x1487 DUP3 PUSH2 0x145C JUMP JUMPDEST SWAP1 POP SWAP2 SWAP1 POP JUMP JUMPDEST PUSH2 0x1497 DUP2 PUSH2 0x147C JUMP JUMPDEST DUP2 EQ PUSH2 0x14A2 JUMPI PUSH1 0x0 DUP1 REVERT JUMPDEST POP JUMP JUMPDEST PUSH1 0x0 DUP2 CALLDATALOAD SWAP1 POP PUSH2 0x14B4 DUP2 PUSH2 0x148E JUMP JUMPDEST SWAP3 SWAP2 POP POP JUMP JUMPDEST PUSH1 0x0 PUSH1 0x20 DUP3 DUP5 SUB SLT ISZERO PUSH2 0x14D0 JUMPI PUSH2 0x14CF PUSH2 0x1457 JUMP JUMPDEST JUMPDEST PUSH1 0x0 PUSH2 0x14DE DUP5 DUP3 DUP6 ADD PUSH2 0x14A5 JUMP JUMPDEST SWAP2 POP POP SWAP3 SWAP2 POP POP JUMP JUMPDEST PUSH1 0x0 DUP2 ISZERO ISZERO SWAP1 POP SWAP2 SWAP1 POP JUMP JUMPDEST PUSH2 0x14FC DUP2 PUSH2 0x14E7 JUMP JUMPDEST DUP3 MSTORE POP POP JUMP JUMPDEST PUSH1 0x0 PUSH1 0x20 DUP3 ADD SWAP1 POP PUSH2 0x1517 PUSH1 0x0 DUP4 ADD DUP5 PUSH2 0x14F3 JUMP JUMPDEST SWAP3 SWAP2 POP POP JUMP JUMPDEST PUSH1 0x0 DUP2 MLOAD SWAP1 POP SWAP2 SWAP1 POP JUMP JUMPDEST PUSH1 0x0 DUP3 DUP3 MSTORE PUSH1 0x20 DUP3 ADD SWAP1 POP SWAP3 SWAP2 POP POP JUMP JUMPDEST PUSH1 0x0 DUP2 SWAP1 POP PUSH1 0x20 DUP3 ADD SWAP1 POP SWAP2 SWAP1 POP JUMP JUMPDEST PUSH2 0x1552 DUP2 PUSH2 0x147C JUMP JUMPDEST DUP3 MSTORE POP POP JUMP JUMPDEST PUSH1 0x0 PUSH2 0x1564 DUP4 DUP4 PUSH2 0x1549 JUMP JUMPDEST PUSH1 0x20 DUP4 ADD SWAP1 POP SWAP3 SWAP2 POP POP JUMP JUMPDEST PUSH1 0x0 PUSH1 0x20 DUP3 ADD SWAP1 POP SWAP2 SWAP1 POP JUMP JUMPDEST PUSH1 0x0 PUSH2 0x1588 DUP3 PUSH2 0x151D JUMP JUMPDEST PUSH2 0x1592 DUP2 DUP6 PUSH2 0x1528 JUMP JUMPDEST SWAP4 POP PUSH2 0x159D DUP4 PUSH2 0x1539 JUMP JUMPDEST DUP1 PUSH1 0x0 JUMPDEST DUP4 DUP2 LT ISZERO PUSH2 0x15CE JUMPI DUP2 MLOAD PUSH2 0x15B5 DUP9 DUP3 PUSH2 0x1558 JUMP JUMPDEST SWAP8 POP PUSH2 0x15C0 DUP4 PUSH2 0x1570 JUMP JUMPDEST SWAP3 POP POP PUSH1 0x1 DUP2 ADD SWAP1 POP PUSH2 0x15A1 JUMP JUMPDEST POP DUP6 SWAP4 POP POP POP POP SWAP3 SWAP2 POP POP JUMP JUMPDEST PUSH1 0x0 PUSH1 0x20 DUP3 ADD SWAP1 POP DUP2 DUP2 SUB PUSH1 0x0 DUP4 ADD MSTORE PUSH2 0x15F5 DUP2 DUP5 PUSH2 0x157D JUMP JUMPDEST SWAP1 POP SWAP3 SWAP2 POP POP JUMP JUMPDEST PUSH1 0x0 DUP2 SWAP1 POP SWAP2 SWAP1 POP JUMP JUMPDEST PUSH2 0x1610 DUP2 PUSH2 0x15FD JUMP JUMPDEST DUP3 MSTORE POP POP JUMP JUMPDEST PUSH1 0x0 PUSH1 0x20 DUP3 ADD SWAP1 POP PUSH2 0x162B PUSH1 0x0 DUP4 ADD DUP5 PUSH2 0x1607 JUMP JUMPDEST SWAP3 SWAP2 POP POP JUMP JUMPDEST PUSH2 0x163A DUP2 PUSH2 0x147C JUMP JUMPDEST DUP3 MSTORE POP POP JUMP JUMPDEST PUSH1 0x0 PUSH1 0x20 DUP3 ADD SWAP1 POP PUSH2 0x1655 PUSH1 0x0 DUP4 ADD DUP5 PUSH2 0x1631 JUMP JUMPDEST SWAP3 SWAP2 POP POP JUMP JUMPDEST PUSH1 0x0 DUP3 DUP3 MSTORE PUSH1 0x20 DUP3 ADD SWAP1 POP SWAP3 SWAP2 POP POP JUMP JUMPDEST PUSH32 0x4F776E61626C653A2063616C6C6572206973206E6F7420746865206F776E6572 PUSH1 0x0 DUP3 ADD MSTORE POP JUMP JUMPDEST PUSH1 0x0 PUSH2 0x16A2 PUSH1 0x20 DUP4 PUSH2 0x165B JUMP JUMPDEST SWAP2 POP PUSH2 0x16AD DUP3 PUSH2 0x166C JUMP JUMPDEST PUSH1 0x20 DUP3 ADD SWAP1 POP SWAP2 SWAP1 POP JUMP JUMPDEST PUSH1 0x0 PUSH1 0x20 DUP3 ADD SWAP1 POP DUP2 DUP2 SUB PUSH1 0x0 DUP4 ADD MSTORE PUSH2 0x16D1 DUP2 PUSH2 0x1695 JUMP JUMPDEST SWAP1 POP SWAP2 SWAP1 POP JUMP JUMPDEST PUSH32 0x41646D696E69737472617465643A204D73672073656E646572206973206E6F74 PUSH1 0x0 DUP3 ADD MSTORE PUSH32 0x2061646D696E0000000000000000000000000000000000000000000000000000 PUSH1 0x20 DUP3 ADD MSTORE POP JUMP JUMPDEST PUSH1 0x0 PUSH2 0x1734 PUSH1 0x26 DUP4 PUSH2 0x165B JUMP JUMPDEST SWAP2 POP PUSH2 0x173F DUP3 PUSH2 0x16D8 JUMP JUMPDEST PUSH1 0x40 DUP3 ADD SWAP1 POP SWAP2 SWAP1 POP JUMP JUMPDEST PUSH1 0x0 PUSH1 0x20 DUP3 ADD SWAP1 POP DUP2 DUP2 SUB PUSH1 0x0 DUP4 ADD MSTORE PUSH2 0x1763 DUP2 PUSH2 0x1727 JUMP JUMPDEST SWAP1 POP SWAP2 SWAP1 POP JUMP JUMPDEST PUSH32 0x4E487B7100000000000000000000000000000000000000000000000000000000 PUSH1 0x0 MSTORE PUSH1 0x41 PUSH1 0x4 MSTORE PUSH1 0x24 PUSH1 0x0 REVERT JUMPDEST PUSH32 0x4E487B7100000000000000000000000000000000000000000000000000000000 PUSH1 0x0 MSTORE PUSH1 0x32 PUSH1 0x4 MSTORE PUSH1 0x24 PUSH1 0x0 REVERT JUMPDEST PUSH32 0x4E487B7100000000000000000000000000000000000000000000000000000000 PUSH1 0x0 MSTORE PUSH1 0x11 PUSH1 0x4 MSTORE PUSH1 0x24 PUSH1 0x0 REVERT JUMPDEST PUSH1 0x0 PUSH2 0x1802 DUP3 PUSH2 0x15FD JUMP JUMPDEST SWAP2 POP PUSH32 0xFFFFFFFFFFFFFFFFFFFFFFFFFFFFFFFFFFFFFFFFFFFFFFFFFFFFFFFFFFFFFFFF DUP3 SUB PUSH2 0x1834 JUMPI PUSH2 0x1833 PUSH2 0x17C8 JUMP JUMPDEST JUMPDEST PUSH1 0x1 DUP3 ADD SWAP1 POP SWAP2 SWAP1 POP JUMP JUMPDEST PUSH32 0x4D616E6167657265643A204D73672073656E646572206973206E6F742061646D PUSH1 0x0 DUP3 ADD MSTORE PUSH32 0x696E206F72206D616E6167657200000000000000000000000000000000000000 PUSH1 0x20 DUP3 ADD MSTORE POP JUMP JUMPDEST PUSH1 0x0 PUSH2 0x189B PUSH1 0x2D DUP4 PUSH2 0x165B JUMP JUMPDEST SWAP2 POP PUSH2 0x18A6 DUP3 PUSH2 0x183F JUMP JUMPDEST PUSH1 0x40 DUP3 ADD SWAP1 POP SWAP2 SWAP1 POP JUMP JUMPDEST PUSH1 0x0 PUSH1 0x20 DUP3 ADD SWAP1 POP DUP2 DUP2 SUB PUSH1 0x0 DUP4 ADD MSTORE PUSH2 0x18CA DUP2 PUSH2 0x188E JUMP JUMPDEST SWAP1 POP SWAP2 SWAP1 POP JUMP JUMPDEST PUSH32 0x546F6B656E53616C6552656769737472793A20526563697069656E7420697320 PUSH1 0x0 DUP3 ADD MSTORE PUSH32 0x6E6F7420696E2077686974656C69737400000000000000000000000000000000 PUSH1 0x20 DUP3 ADD MSTORE POP JUMP JUMPDEST PUSH1 0x0 PUSH2 0x192D PUSH1 0x30 DUP4 PUSH2 0x165B JUMP JUMPDEST SWAP2 POP PUSH2 0x1938 DUP3 PUSH2 0x18D1 JUMP JUMPDEST PUSH1 0x40 DUP3 ADD SWAP1 POP SWAP2 SWAP1 POP JUMP JUMPDEST PUSH1 0x0 PUSH1 0x20 DUP3 ADD SWAP1 POP DUP2 DUP2 SUB PUSH1 0x0 DUP4 ADD MSTORE PUSH2 0x195C DUP2 PUSH2 0x1920 JUMP JUMPDEST SWAP1 POP SWAP2 SWAP1 POP JUMP JUMPDEST PUSH32 0x436F6E747261637420696E7374616E63652068617320616C7265616479206265 PUSH1 0x0 DUP3 ADD MSTORE PUSH32 0x656E20696E697469616C697A6564000000000000000000000000000000000000 PUSH1 0x20 DUP3 ADD MSTORE POP JUMP JUMPDEST PUSH1 0x0 PUSH2 0x19BF PUSH1 0x2E DUP4 PUSH2 0x165B JUMP JUMPDEST SWAP2 POP PUSH2 0x19CA DUP3 PUSH2 0x1963 JUMP JUMPDEST PUSH1 0x40 DUP3 ADD SWAP1 POP SWAP2 SWAP1 POP JUMP JUMPDEST PUSH1 0x0 PUSH1 0x20 DUP3 ADD SWAP1 POP DUP2 DUP2 SUB PUSH1 0x0 DUP4 ADD MSTORE PUSH2 0x19EE DUP2 PUSH2 0x19B2 JUMP JUMPDEST SWAP1 POP SWAP2 SWAP1 POP JUMP JUMPDEST PUSH32 0x4F776E61626C653A206E6577206F776E657220697320746865207A65726F2061 PUSH1 0x0 DUP3 ADD MSTORE PUSH32 0x6464726573730000000000000000000000000000000000000000000000000000 PUSH1 0x20 DUP3 ADD MSTORE POP JUMP JUMPDEST PUSH1 0x0 PUSH2 0x1A51 PUSH1 0x26 DUP4 PUSH2 0x165B JUMP JUMPDEST SWAP2 POP PUSH2 0x1A5C DUP3 PUSH2 0x19F5 JUMP JUMPDEST PUSH1 0x40 DUP3 ADD SWAP1 POP SWAP2 SWAP1 POP JUMP JUMPDEST PUSH1 0x0 PUSH1 0x20 DUP3 ADD SWAP1 POP DUP2 DUP2 SUB PUSH1 0x0 DUP4 ADD MSTORE PUSH2 0x1A80 DUP2 PUSH2 0x1A44 JUMP JUMPDEST SWAP1 POP SWAP2 SWAP1 POP JUMP JUMPDEST PUSH1 0x0 PUSH2 0x1A92 DUP3 PUSH2 0x15FD JUMP JUMPDEST SWAP2 POP PUSH2 0x1A9D DUP4 PUSH2 0x15FD JUMP JUMPDEST SWAP3 POP DUP3 DUP3 SUB SWAP1 POP DUP2 DUP2 GT ISZERO PUSH2 0x1AB5 JUMPI PUSH2 0x1AB4 PUSH2 0x17C8 JUMP JUMPDEST JUMPDEST SWAP3 SWAP2 POP POP JUMP JUMPDEST PUSH1 0x0 PUSH2 0x1AC6 DUP3 PUSH2 0x15FD JUMP JUMPDEST SWAP2 POP PUSH2 0x1AD1 DUP4 PUSH2 0x15FD JUMP JUMPDEST SWAP3 POP DUP3 DUP3 ADD SWAP1 POP DUP1 DUP3 GT ISZERO PUSH2 0x1AE9 JUMPI PUSH2 0x1AE8 PUSH2 0x17C8 JUMP JUMPDEST JUMPDEST SWAP3 SWAP2 POP POP JUMP JUMPDEST PUSH32 0x4E487B7100000000000000000000000000000000000000000000000000000000 PUSH1 0x0 MSTORE PUSH1 0x31 PUSH1 0x4 MSTORE PUSH1 0x24 PUSH1 0x0 REVERT JUMPDEST PUSH32 0x456E756D657261626C655365743A20696E646578206F7574206F6620626F756E PUSH1 0x0 DUP3 ADD MSTORE PUSH32 0x6473000000000000000000000000000000000000000000000000000000000000 PUSH1 0x20 DUP3 ADD MSTORE POP JUMP JUMPDEST PUSH1 0x0 PUSH2 0x1B7A PUSH1 0x22 DUP4 PUSH2 0x165B JUMP JUMPDEST SWAP2 POP PUSH2 0x1B85 DUP3 PUSH2 0x1B1E JUMP JUMPDEST PUSH1 0x40 DUP3 ADD SWAP1 POP SWAP2 SWAP1 POP JUMP JUMPDEST PUSH1 0x0 PUSH1 0x20 DUP3 ADD SWAP1 POP DUP2 DUP2 SUB PUSH1 0x0 DUP4 ADD MSTORE PUSH2 0x1BA9 DUP2 PUSH2 0x1B6D JUMP JUMPDEST SWAP1 POP SWAP2 SWAP1 POP JUMP INVALID LOG2 PUSH5 0x6970667358 0x22 SLT KECCAK256 DUP7 0xDC DUP11 LOG3 0xE2 LT 0xAF SWAP5 PUSH23 0xAA68EB8554F73B0794BFFD5D20EF1171E0A2C941C4A2F3 PUSH5 0x736F6C6343 STOP ADDMOD SGT STOP CALLER "
				},
				"gasEstimates": {
					"creation": {
						"codeDepositCost": "1428400",
						"executionCost": "1493",
						"totalCost": "1429893"
					},
					"external": {
						"addAdmin(address)": "infinite",
						"addCustomerToWhiteList(address)": "infinite",
						"addManager(address)": "infinite",
						"getAdminCount()": "2610",
						"getAdminList()": "infinite",
						"getCustomersWhiteList()": "infinite",
						"getCustomersWhiteListCount()": "2675",
						"getManagerCount()": "2587",
						"getManagerList()": "infinite",
						"initialize(address)": "infinite",
						"isAdmin(address)": "infinite",
						"isCustomerInWhiteList(address)": "infinite",
						"isManager(address)": "infinite",
						"isOwner()": "2554",
						"owner()": "2611",
						"removeAdmin(address)": "infinite",
						"removeCustomerFromWhiteList(address)": "infinite",
						"removeManager(address)": "infinite",
						"renounceOwnership()": "30377",
						"transferOwnership(address)": "30795",
						"validateWhitelistedCustomer(address)": "infinite"
					}
				},
				"methodIdentifiers": {
					"addAdmin(address)": "70480275",
					"addCustomerToWhiteList(address)": "8ed40983",
					"addManager(address)": "2d06177a",
					"getAdminCount()": "8b7bf3eb",
					"getAdminList()": "d9f774fc",
					"getCustomersWhiteList()": "3b5a892a",
					"getCustomersWhiteListCount()": "f8c94ecf",
					"getManagerCount()": "cf928384",
					"getManagerList()": "b01cd323",
					"initialize(address)": "c4d66de8",
					"isAdmin(address)": "24d7806c",
					"isCustomerInWhiteList(address)": "26b7b1c0",
					"isManager(address)": "f3ae2415",
					"isOwner()": "8f32d59b",
					"owner()": "8da5cb5b",
					"removeAdmin(address)": "1785f53c",
					"removeCustomerFromWhiteList(address)": "941208e3",
					"removeManager(address)": "ac18de43",
					"renounceOwnership()": "715018a6",
					"transferOwnership(address)": "f2fde38b",
					"validateWhitelistedCustomer(address)": "9a718924"
				}
			},
			"storageLayout": {
				"storage": [
					{
						"astId": 678,
						"contract": "contracts/TokenSaleRegistry.sol:TokenSaleRegistry",
						"label": "initialized",
						"offset": 0,
						"slot": "0",
						"type": "t_bool"
					},
					{
						"astId": 681,
						"contract": "contracts/TokenSaleRegistry.sol:TokenSaleRegistry",
						"label": "initializing",
						"offset": 1,
						"slot": "0",
						"type": "t_bool"
					},
					{
						"astId": 746,
						"contract": "contracts/TokenSaleRegistry.sol:TokenSaleRegistry",
						"label": "______gap",
						"offset": 0,
						"slot": "1",
						"type": "t_array(t_uint256)50_storage"
					},
					{
						"astId": 32,
						"contract": "contracts/TokenSaleRegistry.sol:TokenSaleRegistry",
						"label": "_owner",
						"offset": 0,
						"slot": "51",
						"type": "t_address"
					},
					{
						"astId": 156,
						"contract": "contracts/TokenSaleRegistry.sol:TokenSaleRegistry",
						"label": "______gap",
						"offset": 0,
						"slot": "52",
						"type": "t_array(t_uint256)50_storage"
					},
					{
						"astId": 947,
						"contract": "contracts/TokenSaleRegistry.sol:TokenSaleRegistry",
						"label": "admins",
						"offset": 0,
						"slot": "102",
						"type": "t_struct(AddressSet)445_storage"
					},
					{
						"astId": 1094,
						"contract": "contracts/TokenSaleRegistry.sol:TokenSaleRegistry",
						"label": "managers",
						"offset": 0,
						"slot": "104",
						"type": "t_struct(AddressSet)445_storage"
					},
					{
						"astId": 763,
						"contract": "contracts/TokenSaleRegistry.sol:TokenSaleRegistry",
						"label": "customersWhiteList",
						"offset": 0,
						"slot": "106",
						"type": "t_struct(AddressSet)445_storage"
					}
				],
				"types": {
					"t_address": {
						"encoding": "inplace",
						"label": "address",
						"numberOfBytes": "20"
					},
					"t_array(t_bytes32)dyn_storage": {
						"base": "t_bytes32",
						"encoding": "dynamic_array",
						"label": "bytes32[]",
						"numberOfBytes": "32"
					},
					"t_array(t_uint256)50_storage": {
						"base": "t_uint256",
						"encoding": "inplace",
						"label": "uint256[50]",
						"numberOfBytes": "1600"
					},
					"t_bool": {
						"encoding": "inplace",
						"label": "bool",
						"numberOfBytes": "1"
					},
					"t_bytes32": {
						"encoding": "inplace",
						"label": "bytes32",
						"numberOfBytes": "32"
					},
					"t_mapping(t_bytes32,t_uint256)": {
						"encoding": "mapping",
						"key": "t_bytes32",
						"label": "mapping(bytes32 => uint256)",
						"numberOfBytes": "32",
						"value": "t_uint256"
					},
					"t_struct(AddressSet)445_storage": {
						"encoding": "inplace",
						"label": "struct EnumerableSet.AddressSet",
						"members": [
							{
								"astId": 444,
								"contract": "contracts/TokenSaleRegistry.sol:TokenSaleRegistry",
								"label": "_inner",
								"offset": 0,
								"slot": "0",
								"type": "t_struct(Set)168_storage"
							}
						],
						"numberOfBytes": "64"
					},
					"t_struct(Set)168_storage": {
						"encoding": "inplace",
						"label": "struct EnumerableSet.Set",
						"members": [
							{
								"astId": 163,
								"contract": "contracts/TokenSaleRegistry.sol:TokenSaleRegistry",
								"label": "_values",
								"offset": 0,
								"slot": "0",
								"type": "t_array(t_bytes32)dyn_storage"
							},
							{
								"astId": 167,
								"contract": "contracts/TokenSaleRegistry.sol:TokenSaleRegistry",
								"label": "_indexes",
								"offset": 0,
								"slot": "1",
								"type": "t_mapping(t_bytes32,t_uint256)"
							}
						],
						"numberOfBytes": "64"
					},
					"t_uint256": {
						"encoding": "inplace",
						"label": "uint256",
						"numberOfBytes": "32"
					}
				}
			},
			"userdoc": {
				"kind": "user",
				"methods": {},
				"version": 1
			}
		}
	}
}