{
	"@openzeppelin/contracts-ethereum-package/contracts/ownership/Ownable.sol": {
		"Ownable": {
			"abi": [
				{
					"anonymous": false,
					"inputs": [
						{
							"indexed": true,
							"internalType": "address",
							"name": "previousOwner",
							"type": "address"
						},
						{
							"indexed": true,
							"internalType": "address",
							"name": "newOwner",
							"type": "address"
						}
					],
					"name": "OwnershipTransferred",
					"type": "event"
				},
				{
					"inputs": [
						{
							"internalType": "address",
							"name": "sender",
							"type": "address"
						}
					],
					"name": "initialize",
					"outputs": [],
					"stateMutability": "nonpayable",
					"type": "function"
				},
				{
					"inputs": [],
					"name": "isOwner",
					"outputs": [
						{
							"internalType": "bool",
							"name": "",
							"type": "bool"
						}
					],
					"stateMutability": "view",
					"type": "function"
				},
				{
					"inputs": [],
					"name": "owner",
					"outputs": [
						{
							"internalType": "address",
							"name": "",
							"type": "address"
						}
					],
					"stateMutability": "view",
					"type": "function"
				},
				{
					"inputs": [],
					"name": "renounceOwnership",
					"outputs": [],
					"stateMutability": "nonpayable",
					"type": "function"
				},
				{
					"inputs": [
						{
							"internalType": "address",
							"name": "newOwner",
							"type": "address"
						}
					],
					"name": "transferOwnership",
					"outputs": [],
					"stateMutability": "nonpayable",
					"type": "function"
				}
			],
			"devdoc": {
				"details": "Contract module which provides a basic access control mechanism, where there is an account (an owner) that can be granted exclusive access to specific functions. This module is used through inheritance. It will make available the modifier `onlyOwner`, which can be aplied to your functions to restrict their use to the owner.",
				"kind": "dev",
				"methods": {
					"initialize(address)": {
						"details": "Initializes the contract setting the deployer as the initial owner."
					},
					"isOwner()": {
						"details": "Returns true if the caller is the current owner."
					},
					"owner()": {
						"details": "Returns the address of the current owner."
					},
					"renounceOwnership()": {
						"details": "Leaves the contract without owner. It will not be possible to call `onlyOwner` functions anymore. Can only be called by the current owner. > Note: Renouncing ownership will leave the contract without an owner, thereby removing any functionality that is only available to the owner."
					},
					"transferOwnership(address)": {
						"details": "Transfers ownership of the contract to a new account (`newOwner`). Can only be called by the current owner."
					}
				},
				"version": 1
			},
			"evm": {
				"assembly": "    /* \"@openzeppelin/contracts-ethereum-package/contracts/ownership/Ownable.sol\":543:2577  contract Ownable is Initializable, Context {... */\n  mstore(0x40, 0x80)\n  callvalue\n  dup1\n  iszero\n  tag_1\n  jumpi\n  0x00\n  dup1\n  revert\ntag_1:\n  pop\n  dataSize(sub_0)\n  dup1\n  dataOffset(sub_0)\n  0x00\n  codecopy\n  0x00\n  return\nstop\n\nsub_0: assembly {\n        /* \"@openzeppelin/contracts-ethereum-package/contracts/ownership/Ownable.sol\":543:2577  contract Ownable is Initializable, Context {... */\n      mstore(0x40, 0x80)\n      callvalue\n      dup1\n      iszero\n      tag_1\n      jumpi\n      0x00\n      dup1\n      revert\n    tag_1:\n      pop\n      jumpi(tag_2, lt(calldatasize, 0x04))\n      shr(0xe0, calldataload(0x00))\n      dup1\n      0x715018a6\n      eq\n      tag_3\n      jumpi\n      dup1\n      0x8da5cb5b\n      eq\n      tag_4\n      jumpi\n      dup1\n      0x8f32d59b\n      eq\n      tag_5\n      jumpi\n      dup1\n      0xc4d66de8\n      eq\n      tag_6\n      jumpi\n      dup1\n      0xf2fde38b\n      eq\n      tag_7\n      jumpi\n    tag_2:\n      0x00\n      dup1\n      revert\n        /* \"@openzeppelin/contracts-ethereum-package/contracts/ownership/Ownable.sol\":1820:1957  function renounceOwnership() public onlyOwner {... */\n    tag_3:\n      tag_8\n      tag_9\n      jump\t// in\n    tag_8:\n      stop\n        /* \"@openzeppelin/contracts-ethereum-package/contracts/ownership/Ownable.sol\":1033:1110  function owner() public view returns (address) {... */\n    tag_4:\n      tag_10\n      tag_11\n      jump\t// in\n    tag_10:\n      mload(0x40)\n      tag_12\n      swap2\n      swap1\n      tag_13\n      jump\t// in\n    tag_12:\n      mload(0x40)\n      dup1\n      swap2\n      sub\n      swap1\n      return\n        /* \"@openzeppelin/contracts-ethereum-package/contracts/ownership/Ownable.sol\":1384:1476  function isOwner() public view returns (bool) {... */\n    tag_5:\n      tag_14\n      tag_15\n      jump\t// in\n    tag_14:\n      mload(0x40)\n      tag_16\n      swap2\n      swap1\n      tag_17\n      jump\t// in\n    tag_16:\n      mload(0x40)\n      dup1\n      swap2\n      sub\n      swap1\n      return\n        /* \"@openzeppelin/contracts-ethereum-package/contracts/ownership/Ownable.sol\":807:957  function initialize(address sender) public virtual initializer {... */\n    tag_6:\n      tag_18\n      0x04\n      dup1\n      calldatasize\n      sub\n      dup2\n      add\n      swap1\n      tag_19\n      swap2\n      swap1\n      tag_20\n      jump\t// in\n    tag_19:\n      tag_21\n      jump\t// in\n    tag_18:\n      stop\n        /* \"@openzeppelin/contracts-ethereum-package/contracts/ownership/Ownable.sol\":2106:2213  function transferOwnership(address newOwner) public onlyOwner {... */\n    tag_7:\n      tag_22\n      0x04\n      dup1\n      calldatasize\n      sub\n      dup2\n      add\n      swap1\n      tag_23\n      swap2\n      swap1\n      tag_20\n      jump\t// in\n    tag_23:\n      tag_24\n      jump\t// in\n    tag_22:\n      stop\n        /* \"@openzeppelin/contracts-ethereum-package/contracts/ownership/Ownable.sol\":1820:1957  function renounceOwnership() public onlyOwner {... */\n    tag_9:\n        /* \"@openzeppelin/contracts-ethereum-package/contracts/ownership/Ownable.sol\":1237:1246  isOwner() */\n      tag_26\n        /* \"@openzeppelin/contracts-ethereum-package/contracts/ownership/Ownable.sol\":1237:1244  isOwner */\n      tag_15\n        /* \"@openzeppelin/contracts-ethereum-package/contracts/ownership/Ownable.sol\":1237:1246  isOwner() */\n      jump\t// in\n    tag_26:\n        /* \"@openzeppelin/contracts-ethereum-package/contracts/ownership/Ownable.sol\":1229:1283  require(isOwner(), \"Ownable: caller is not the owner\") */\n      tag_27\n      jumpi\n      mload(0x40)\n      0x08c379a000000000000000000000000000000000000000000000000000000000\n      dup2\n      mstore\n      0x04\n      add\n      tag_28\n      swap1\n      tag_29\n      jump\t// in\n    tag_28:\n      mload(0x40)\n      dup1\n      swap2\n      sub\n      swap1\n      revert\n    tag_27:\n        /* \"@openzeppelin/contracts-ethereum-package/contracts/ownership/Ownable.sol\":1918:1919  0 */\n      0x00\n        /* \"@openzeppelin/contracts-ethereum-package/contracts/ownership/Ownable.sol\":1881:1921  OwnershipTransferred(_owner, address(0)) */\n      0xffffffffffffffffffffffffffffffffffffffff\n      and\n        /* \"@openzeppelin/contracts-ethereum-package/contracts/ownership/Ownable.sol\":1902:1908  _owner */\n      0x33\n      0x00\n      swap1\n      sload\n      swap1\n      0x0100\n      exp\n      swap1\n      div\n      0xffffffffffffffffffffffffffffffffffffffff\n      and\n        /* \"@openzeppelin/contracts-ethereum-package/contracts/ownership/Ownable.sol\":1881:1921  OwnershipTransferred(_owner, address(0)) */\n      0xffffffffffffffffffffffffffffffffffffffff\n      and\n      0x8be0079c531659141344cd1fd0a4f28419497f9722a3daafe3b4186f6b6457e0\n      mload(0x40)\n      mload(0x40)\n      dup1\n      swap2\n      sub\n      swap1\n      log3\n        /* \"@openzeppelin/contracts-ethereum-package/contracts/ownership/Ownable.sol\":1948:1949  0 */\n      0x00\n        /* \"@openzeppelin/contracts-ethereum-package/contracts/ownership/Ownable.sol\":1931:1937  _owner */\n      0x33\n      0x00\n        /* \"@openzeppelin/contracts-ethereum-package/contracts/ownership/Ownable.sol\":1931:1950  _owner = address(0) */\n      0x0100\n      exp\n      dup2\n      sload\n      dup2\n      0xffffffffffffffffffffffffffffffffffffffff\n      mul\n      not\n      and\n      swap1\n      dup4\n      0xffffffffffffffffffffffffffffffffffffffff\n      and\n      mul\n      or\n      swap1\n      sstore\n      pop\n        /* \"@openzeppelin/contracts-ethereum-package/contracts/ownership/Ownable.sol\":1820:1957  function renounceOwnership() public onlyOwner {... */\n      jump\t// out\n        /* \"@openzeppelin/contracts-ethereum-package/contracts/ownership/Ownable.sol\":1033:1110  function owner() public view returns (address) {... */\n    tag_11:\n        /* \"@openzeppelin/contracts-ethereum-package/contracts/ownership/Ownable.sol\":1071:1078  address */\n      0x00\n        /* \"@openzeppelin/contracts-ethereum-package/contracts/ownership/Ownable.sol\":1097:1103  _owner */\n      0x33\n      0x00\n      swap1\n      sload\n      swap1\n      0x0100\n      exp\n      swap1\n      div\n      0xffffffffffffffffffffffffffffffffffffffff\n      and\n        /* \"@openzeppelin/contracts-ethereum-package/contracts/ownership/Ownable.sol\":1090:1103  return _owner */\n      swap1\n      pop\n        /* \"@openzeppelin/contracts-ethereum-package/contracts/ownership/Ownable.sol\":1033:1110  function owner() public view returns (address) {... */\n      swap1\n      jump\t// out\n        /* \"@openzeppelin/contracts-ethereum-package/contracts/ownership/Ownable.sol\":1384:1476  function isOwner() public view returns (bool) {... */\n    tag_15:\n        /* \"@openzeppelin/contracts-ethereum-package/contracts/ownership/Ownable.sol\":1424:1428  bool */\n      0x00\n        /* \"@openzeppelin/contracts-ethereum-package/contracts/ownership/Ownable.sol\":1463:1469  _owner */\n      0x33\n      0x00\n      swap1\n      sload\n      swap1\n      0x0100\n      exp\n      swap1\n      div\n      0xffffffffffffffffffffffffffffffffffffffff\n      and\n        /* \"@openzeppelin/contracts-ethereum-package/contracts/ownership/Ownable.sol\":1447:1469  _msgSender() == _owner */\n      0xffffffffffffffffffffffffffffffffffffffff\n      and\n        /* \"@openzeppelin/contracts-ethereum-package/contracts/ownership/Ownable.sol\":1447:1459  _msgSender() */\n      tag_33\n        /* \"@openzeppelin/contracts-ethereum-package/contracts/ownership/Ownable.sol\":1447:1457  _msgSender */\n      tag_34\n        /* \"@openzeppelin/contracts-ethereum-package/contracts/ownership/Ownable.sol\":1447:1459  _msgSender() */\n      jump\t// in\n    tag_33:\n        /* \"@openzeppelin/contracts-ethereum-package/contracts/ownership/Ownable.sol\":1447:1469  _msgSender() == _owner */\n      0xffffffffffffffffffffffffffffffffffffffff\n      and\n      eq\n        /* \"@openzeppelin/contracts-ethereum-package/contracts/ownership/Ownable.sol\":1440:1469  return _msgSender() == _owner */\n      swap1\n      pop\n        /* \"@openzeppelin/contracts-ethereum-package/contracts/ownership/Ownable.sol\":1384:1476  function isOwner() public view returns (bool) {... */\n      swap1\n      jump\t// out\n        /* \"@openzeppelin/contracts-ethereum-package/contracts/ownership/Ownable.sol\":807:957  function initialize(address sender) public virtual initializer {... */\n    tag_21:\n        /* \"@openzeppelin/upgrades/contracts/Initializable.sol\":1056:1068  initializing */\n      0x00\n      0x01\n      swap1\n      sload\n      swap1\n      0x0100\n      exp\n      swap1\n      div\n      0xff\n      and\n        /* \"@openzeppelin/upgrades/contracts/Initializable.sol\":1056:1087  initializing || isConstructor() */\n      dup1\n      tag_36\n      jumpi\n      pop\n        /* \"@openzeppelin/upgrades/contracts/Initializable.sol\":1072:1087  isConstructor() */\n      tag_37\n        /* \"@openzeppelin/upgrades/contracts/Initializable.sol\":1072:1085  isConstructor */\n      tag_38\n        /* \"@openzeppelin/upgrades/contracts/Initializable.sol\":1072:1087  isConstructor() */\n      jump\t// in\n    tag_37:\n        /* \"@openzeppelin/upgrades/contracts/Initializable.sol\":1056:1087  initializing || isConstructor() */\n    tag_36:\n        /* \"@openzeppelin/upgrades/contracts/Initializable.sol\":1056:1103  initializing || isConstructor() || !initialized */\n      dup1\n      tag_39\n      jumpi\n      pop\n        /* \"@openzeppelin/upgrades/contracts/Initializable.sol\":1092:1103  initialized */\n      0x00\n      dup1\n      sload\n      swap1\n      0x0100\n      exp\n      swap1\n      div\n      0xff\n      and\n        /* \"@openzeppelin/upgrades/contracts/Initializable.sol\":1091:1103  !initialized */\n      iszero\n        /* \"@openzeppelin/upgrades/contracts/Initializable.sol\":1056:1103  initializing || isConstructor() || !initialized */\n    tag_39:\n        /* \"@openzeppelin/upgrades/contracts/Initializable.sol\":1048:1154  require(initializing || isConstructor() || !initialized, \"Contract instance has already been initialized\") */\n      tag_40\n      jumpi\n      mload(0x40)\n      0x08c379a000000000000000000000000000000000000000000000000000000000\n      dup2\n      mstore\n      0x04\n      add\n      tag_41\n      swap1\n      tag_42\n      jump\t// in\n    tag_41:\n      mload(0x40)\n      dup1\n      swap2\n      sub\n      swap1\n      revert\n    tag_40:\n        /* \"@openzeppelin/upgrades/contracts/Initializable.sol\":1161:1180  bool isTopLevelCall */\n      0x00\n        /* \"@openzeppelin/upgrades/contracts/Initializable.sol\":1184:1196  initializing */\n      dup1\n      0x01\n      swap1\n      sload\n      swap1\n      0x0100\n      exp\n      swap1\n      div\n      0xff\n      and\n        /* \"@openzeppelin/upgrades/contracts/Initializable.sol\":1183:1196  !initializing */\n      iszero\n        /* \"@openzeppelin/upgrades/contracts/Initializable.sol\":1161:1196  bool isTopLevelCall = !initializing */\n      swap1\n      pop\n        /* \"@openzeppelin/upgrades/contracts/Initializable.sol\":1206:1220  isTopLevelCall */\n      dup1\n        /* \"@openzeppelin/upgrades/contracts/Initializable.sol\":1202:1282  if (isTopLevelCall) {... */\n      iszero\n      tag_43\n      jumpi\n        /* \"@openzeppelin/upgrades/contracts/Initializable.sol\":1245:1249  true */\n      0x01\n        /* \"@openzeppelin/upgrades/contracts/Initializable.sol\":1230:1242  initializing */\n      0x00\n      0x01\n        /* \"@openzeppelin/upgrades/contracts/Initializable.sol\":1230:1249  initializing = true */\n      0x0100\n      exp\n      dup2\n      sload\n      dup2\n      0xff\n      mul\n      not\n      and\n      swap1\n      dup4\n      iszero\n      iszero\n      mul\n      or\n      swap1\n      sstore\n      pop\n        /* \"@openzeppelin/upgrades/contracts/Initializable.sol\":1271:1275  true */\n      0x01\n        /* \"@openzeppelin/upgrades/contracts/Initializable.sol\":1257:1268  initialized */\n      0x00\n      dup1\n        /* \"@openzeppelin/upgrades/contracts/Initializable.sol\":1257:1275  initialized = true */\n      0x0100\n      exp\n      dup2\n      sload\n      dup2\n      0xff\n      mul\n      not\n      and\n      swap1\n      dup4\n      iszero\n      iszero\n      mul\n      or\n      swap1\n      sstore\n      pop\n        /* \"@openzeppelin/upgrades/contracts/Initializable.sol\":1202:1282  if (isTopLevelCall) {... */\n    tag_43:\n        /* \"@openzeppelin/contracts-ethereum-package/contracts/ownership/Ownable.sol\":889:895  sender */\n      dup2\n        /* \"@openzeppelin/contracts-ethereum-package/contracts/ownership/Ownable.sol\":880:886  _owner */\n      0x33\n      0x00\n        /* \"@openzeppelin/contracts-ethereum-package/contracts/ownership/Ownable.sol\":880:895  _owner = sender */\n      0x0100\n      exp\n      dup2\n      sload\n      dup2\n      0xffffffffffffffffffffffffffffffffffffffff\n      mul\n      not\n      and\n      swap1\n      dup4\n      0xffffffffffffffffffffffffffffffffffffffff\n      and\n      mul\n      or\n      swap1\n      sstore\n      pop\n        /* \"@openzeppelin/contracts-ethereum-package/contracts/ownership/Ownable.sol\":943:949  _owner */\n      0x33\n      0x00\n      swap1\n      sload\n      swap1\n      0x0100\n      exp\n      swap1\n      div\n      0xffffffffffffffffffffffffffffffffffffffff\n      and\n        /* \"@openzeppelin/contracts-ethereum-package/contracts/ownership/Ownable.sol\":910:950  OwnershipTransferred(address(0), _owner) */\n      0xffffffffffffffffffffffffffffffffffffffff\n      and\n        /* \"@openzeppelin/contracts-ethereum-package/contracts/ownership/Ownable.sol\":939:940  0 */\n      0x00\n        /* \"@openzeppelin/contracts-ethereum-package/contracts/ownership/Ownable.sol\":910:950  OwnershipTransferred(address(0), _owner) */\n      0xffffffffffffffffffffffffffffffffffffffff\n      and\n      0x8be0079c531659141344cd1fd0a4f28419497f9722a3daafe3b4186f6b6457e0\n      mload(0x40)\n      mload(0x40)\n      dup1\n      swap2\n      sub\n      swap1\n      log3\n        /* \"@openzeppelin/upgrades/contracts/Initializable.sol\":1300:1314  isTopLevelCall */\n      dup1\n        /* \"@openzeppelin/upgrades/contracts/Initializable.sol\":1296:1351  if (isTopLevelCall) {... */\n      iszero\n      tag_45\n      jumpi\n        /* \"@openzeppelin/upgrades/contracts/Initializable.sol\":1339:1344  false */\n      0x00\n        /* \"@openzeppelin/upgrades/contracts/Initializable.sol\":1324:1336  initializing */\n      dup1\n      0x01\n        /* \"@openzeppelin/upgrades/contracts/Initializable.sol\":1324:1344  initializing = false */\n      0x0100\n      exp\n      dup2\n      sload\n      dup2\n      0xff\n      mul\n      not\n      and\n      swap1\n      dup4\n      iszero\n      iszero\n      mul\n      or\n      swap1\n      sstore\n      pop\n        /* \"@openzeppelin/upgrades/contracts/Initializable.sol\":1296:1351  if (isTopLevelCall) {... */\n    tag_45:\n        /* \"@openzeppelin/upgrades/contracts/Initializable.sol\":1042:1355  {... */\n      pop\n        /* \"@openzeppelin/contracts-ethereum-package/contracts/ownership/Ownable.sol\":807:957  function initialize(address sender) public virtual initializer {... */\n      pop\n      jump\t// out\n        /* \"@openzeppelin/contracts-ethereum-package/contracts/ownership/Ownable.sol\":2106:2213  function transferOwnership(address newOwner) public onlyOwner {... */\n    tag_24:\n        /* \"@openzeppelin/contracts-ethereum-package/contracts/ownership/Ownable.sol\":1237:1246  isOwner() */\n      tag_47\n        /* \"@openzeppelin/contracts-ethereum-package/contracts/ownership/Ownable.sol\":1237:1244  isOwner */\n      tag_15\n        /* \"@openzeppelin/contracts-ethereum-package/contracts/ownership/Ownable.sol\":1237:1246  isOwner() */\n      jump\t// in\n    tag_47:\n        /* \"@openzeppelin/contracts-ethereum-package/contracts/ownership/Ownable.sol\":1229:1283  require(isOwner(), \"Ownable: caller is not the owner\") */\n      tag_48\n      jumpi\n      mload(0x40)\n      0x08c379a000000000000000000000000000000000000000000000000000000000\n      dup2\n      mstore\n      0x04\n      add\n      tag_49\n      swap1\n      tag_29\n      jump\t// in\n    tag_49:\n      mload(0x40)\n      dup1\n      swap2\n      sub\n      swap1\n      revert\n    tag_48:\n        /* \"@openzeppelin/contracts-ethereum-package/contracts/ownership/Ownable.sol\":2178:2206  _transferOwnership(newOwner) */\n      tag_51\n        /* \"@openzeppelin/contracts-ethereum-package/contracts/ownership/Ownable.sol\":2197:2205  newOwner */\n      dup2\n        /* \"@openzeppelin/contracts-ethereum-package/contracts/ownership/Ownable.sol\":2178:2196  _transferOwnership */\n      tag_52\n        /* \"@openzeppelin/contracts-ethereum-package/contracts/ownership/Ownable.sol\":2178:2206  _transferOwnership(newOwner) */\n      jump\t// in\n    tag_51:\n        /* \"@openzeppelin/contracts-ethereum-package/contracts/ownership/Ownable.sol\":2106:2213  function transferOwnership(address newOwner) public onlyOwner {... */\n      pop\n      jump\t// out\n        /* \"@openzeppelin/contracts-ethereum-package/contracts/GSN/Context.sol\":691:789  function _msgSender() internal view virtual returns (address) {... */\n    tag_34:\n        /* \"@openzeppelin/contracts-ethereum-package/contracts/GSN/Context.sol\":744:751  address */\n      0x00\n        /* \"@openzeppelin/contracts-ethereum-package/contracts/GSN/Context.sol\":771:781  msg.sender */\n      caller\n        /* \"@openzeppelin/contracts-ethereum-package/contracts/GSN/Context.sol\":764:781  return msg.sender */\n      swap1\n      pop\n        /* \"@openzeppelin/contracts-ethereum-package/contracts/GSN/Context.sol\":691:789  function _msgSender() internal view virtual returns (address) {... */\n      swap1\n      jump\t// out\n        /* \"@openzeppelin/upgrades/contracts/Initializable.sol\":1441:1939  function isConstructor() private view returns (bool) {... */\n    tag_38:\n        /* \"@openzeppelin/upgrades/contracts/Initializable.sol\":1488:1492  bool */\n      0x00\n        /* \"@openzeppelin/upgrades/contracts/Initializable.sol\":1829:1841  address self */\n      dup1\n        /* \"@openzeppelin/upgrades/contracts/Initializable.sol\":1852:1856  this */\n      address\n        /* \"@openzeppelin/upgrades/contracts/Initializable.sol\":1829:1857  address self = address(this) */\n      swap1\n      pop\n        /* \"@openzeppelin/upgrades/contracts/Initializable.sol\":1863:1873  uint256 cs */\n      0x00\n        /* \"@openzeppelin/upgrades/contracts/Initializable.sol\":1908:1912  self */\n      dup2\n        /* \"@openzeppelin/upgrades/contracts/Initializable.sol\":1896:1913  extcodesize(self) */\n      extcodesize\n        /* \"@openzeppelin/upgrades/contracts/Initializable.sol\":1890:1913  cs := extcodesize(self) */\n      swap1\n      pop\n        /* \"@openzeppelin/upgrades/contracts/Initializable.sol\":1933:1934  0 */\n      0x00\n        /* \"@openzeppelin/upgrades/contracts/Initializable.sol\":1927:1929  cs */\n      dup2\n        /* \"@openzeppelin/upgrades/contracts/Initializable.sol\":1927:1934  cs == 0 */\n      eq\n        /* \"@openzeppelin/upgrades/contracts/Initializable.sol\":1920:1934  return cs == 0 */\n      swap3\n      pop\n      pop\n      pop\n        /* \"@openzeppelin/upgrades/contracts/Initializable.sol\":1441:1939  function isConstructor() private view returns (bool) {... */\n      swap1\n      jump\t// out\n        /* \"@openzeppelin/contracts-ethereum-package/contracts/ownership/Ownable.sol\":2314:2539  function _transferOwnership(address newOwner) internal {... */\n    tag_52:\n        /* \"@openzeppelin/contracts-ethereum-package/contracts/ownership/Ownable.sol\":2407:2408  0 */\n      0x00\n        /* \"@openzeppelin/contracts-ethereum-package/contracts/ownership/Ownable.sol\":2387:2409  newOwner != address(0) */\n      0xffffffffffffffffffffffffffffffffffffffff\n      and\n        /* \"@openzeppelin/contracts-ethereum-package/contracts/ownership/Ownable.sol\":2387:2395  newOwner */\n      dup2\n        /* \"@openzeppelin/contracts-ethereum-package/contracts/ownership/Ownable.sol\":2387:2409  newOwner != address(0) */\n      0xffffffffffffffffffffffffffffffffffffffff\n      and\n      sub\n        /* \"@openzeppelin/contracts-ethereum-package/contracts/ownership/Ownable.sol\":2379:2452  require(newOwner != address(0), \"Ownable: new owner is the zero address\") */\n      tag_56\n      jumpi\n      mload(0x40)\n      0x08c379a000000000000000000000000000000000000000000000000000000000\n      dup2\n      mstore\n      0x04\n      add\n      tag_57\n      swap1\n      tag_58\n      jump\t// in\n    tag_57:\n      mload(0x40)\n      dup1\n      swap2\n      sub\n      swap1\n      revert\n    tag_56:\n        /* \"@openzeppelin/contracts-ethereum-package/contracts/ownership/Ownable.sol\":2496:2504  newOwner */\n      dup1\n        /* \"@openzeppelin/contracts-ethereum-package/contracts/ownership/Ownable.sol\":2467:2505  OwnershipTransferred(_owner, newOwner) */\n      0xffffffffffffffffffffffffffffffffffffffff\n      and\n        /* \"@openzeppelin/contracts-ethereum-package/contracts/ownership/Ownable.sol\":2488:2494  _owner */\n      0x33\n      0x00\n      swap1\n      sload\n      swap1\n      0x0100\n      exp\n      swap1\n      div\n      0xffffffffffffffffffffffffffffffffffffffff\n      and\n        /* \"@openzeppelin/contracts-ethereum-package/contracts/ownership/Ownable.sol\":2467:2505  OwnershipTransferred(_owner, newOwner) */\n      0xffffffffffffffffffffffffffffffffffffffff\n      and\n      0x8be0079c531659141344cd1fd0a4f28419497f9722a3daafe3b4186f6b6457e0\n      mload(0x40)\n      mload(0x40)\n      dup1\n      swap2\n      sub\n      swap1\n      log3\n        /* \"@openzeppelin/contracts-ethereum-package/contracts/ownership/Ownable.sol\":2524:2532  newOwner */\n      dup1\n        /* \"@openzeppelin/contracts-ethereum-package/contracts/ownership/Ownable.sol\":2515:2521  _owner */\n      0x33\n      0x00\n        /* \"@openzeppelin/contracts-ethereum-package/contracts/ownership/Ownable.sol\":2515:2532  _owner = newOwner */\n      0x0100\n      exp\n      dup2\n      sload\n      dup2\n      0xffffffffffffffffffffffffffffffffffffffff\n      mul\n      not\n      and\n      swap1\n      dup4\n      0xffffffffffffffffffffffffffffffffffffffff\n      and\n      mul\n      or\n      swap1\n      sstore\n      pop\n        /* \"@openzeppelin/contracts-ethereum-package/contracts/ownership/Ownable.sol\":2314:2539  function _transferOwnership(address newOwner) internal {... */\n      pop\n      jump\t// out\n        /* \"#utility.yul\":7:133   */\n    tag_59:\n        /* \"#utility.yul\":44:51   */\n      0x00\n        /* \"#utility.yul\":84:126   */\n      0xffffffffffffffffffffffffffffffffffffffff\n        /* \"#utility.yul\":77:82   */\n      dup3\n        /* \"#utility.yul\":73:127   */\n      and\n        /* \"#utility.yul\":62:127   */\n      swap1\n      pop\n        /* \"#utility.yul\":7:133   */\n      swap2\n      swap1\n      pop\n      jump\t// out\n        /* \"#utility.yul\":139:235   */\n    tag_60:\n        /* \"#utility.yul\":176:183   */\n      0x00\n        /* \"#utility.yul\":205:229   */\n      tag_79\n        /* \"#utility.yul\":223:228   */\n      dup3\n        /* \"#utility.yul\":205:229   */\n      tag_59\n      jump\t// in\n    tag_79:\n        /* \"#utility.yul\":194:229   */\n      swap1\n      pop\n        /* \"#utility.yul\":139:235   */\n      swap2\n      swap1\n      pop\n      jump\t// out\n        /* \"#utility.yul\":241:359   */\n    tag_61:\n        /* \"#utility.yul\":328:352   */\n      tag_81\n        /* \"#utility.yul\":346:351   */\n      dup2\n        /* \"#utility.yul\":328:352   */\n      tag_60\n      jump\t// in\n    tag_81:\n        /* \"#utility.yul\":323:326   */\n      dup3\n        /* \"#utility.yul\":316:353   */\n      mstore\n        /* \"#utility.yul\":241:359   */\n      pop\n      pop\n      jump\t// out\n        /* \"#utility.yul\":365:587   */\n    tag_13:\n        /* \"#utility.yul\":458:462   */\n      0x00\n        /* \"#utility.yul\":496:498   */\n      0x20\n        /* \"#utility.yul\":485:494   */\n      dup3\n        /* \"#utility.yul\":481:499   */\n      add\n        /* \"#utility.yul\":473:499   */\n      swap1\n      pop\n        /* \"#utility.yul\":509:580   */\n      tag_83\n        /* \"#utility.yul\":577:578   */\n      0x00\n        /* \"#utility.yul\":566:575   */\n      dup4\n        /* \"#utility.yul\":562:579   */\n      add\n        /* \"#utility.yul\":553:559   */\n      dup5\n        /* \"#utility.yul\":509:580   */\n      tag_61\n      jump\t// in\n    tag_83:\n        /* \"#utility.yul\":365:587   */\n      swap3\n      swap2\n      pop\n      pop\n      jump\t// out\n        /* \"#utility.yul\":593:683   */\n    tag_62:\n        /* \"#utility.yul\":627:634   */\n      0x00\n        /* \"#utility.yul\":670:675   */\n      dup2\n        /* \"#utility.yul\":663:676   */\n      iszero\n        /* \"#utility.yul\":656:677   */\n      iszero\n        /* \"#utility.yul\":645:677   */\n      swap1\n      pop\n        /* \"#utility.yul\":593:683   */\n      swap2\n      swap1\n      pop\n      jump\t// out\n        /* \"#utility.yul\":689:798   */\n    tag_63:\n        /* \"#utility.yul\":770:791   */\n      tag_86\n        /* \"#utility.yul\":785:790   */\n      dup2\n        /* \"#utility.yul\":770:791   */\n      tag_62\n      jump\t// in\n    tag_86:\n        /* \"#utility.yul\":765:768   */\n      dup3\n        /* \"#utility.yul\":758:792   */\n      mstore\n        /* \"#utility.yul\":689:798   */\n      pop\n      pop\n      jump\t// out\n        /* \"#utility.yul\":804:1014   */\n    tag_17:\n        /* \"#utility.yul\":891:895   */\n      0x00\n        /* \"#utility.yul\":929:931   */\n      0x20\n        /* \"#utility.yul\":918:927   */\n      dup3\n        /* \"#utility.yul\":914:932   */\n      add\n        /* \"#utility.yul\":906:932   */\n      swap1\n      pop\n        /* \"#utility.yul\":942:1007   */\n      tag_88\n        /* \"#utility.yul\":1004:1005   */\n      0x00\n        /* \"#utility.yul\":993:1002   */\n      dup4\n        /* \"#utility.yul\":989:1006   */\n      add\n        /* \"#utility.yul\":980:986   */\n      dup5\n        /* \"#utility.yul\":942:1007   */\n      tag_63\n      jump\t// in\n    tag_88:\n        /* \"#utility.yul\":804:1014   */\n      swap3\n      swap2\n      pop\n      pop\n      jump\t// out\n        /* \"#utility.yul\":1101:1218   */\n    tag_65:\n        /* \"#utility.yul\":1210:1211   */\n      0x00\n        /* \"#utility.yul\":1207:1208   */\n      dup1\n        /* \"#utility.yul\":1200:1212   */\n      revert\n        /* \"#utility.yul\":1347:1469   */\n    tag_67:\n        /* \"#utility.yul\":1420:1444   */\n      tag_93\n        /* \"#utility.yul\":1438:1443   */\n      dup2\n        /* \"#utility.yul\":1420:1444   */\n      tag_60\n      jump\t// in\n    tag_93:\n        /* \"#utility.yul\":1413:1418   */\n      dup2\n        /* \"#utility.yul\":1410:1445   */\n      eq\n        /* \"#utility.yul\":1400:1463   */\n      tag_94\n      jumpi\n        /* \"#utility.yul\":1459:1460   */\n      0x00\n        /* \"#utility.yul\":1456:1457   */\n      dup1\n        /* \"#utility.yul\":1449:1461   */\n      revert\n        /* \"#utility.yul\":1400:1463   */\n    tag_94:\n        /* \"#utility.yul\":1347:1469   */\n      pop\n      jump\t// out\n        /* \"#utility.yul\":1475:1614   */\n    tag_68:\n        /* \"#utility.yul\":1521:1526   */\n      0x00\n        /* \"#utility.yul\":1559:1565   */\n      dup2\n        /* \"#utility.yul\":1546:1566   */\n      calldataload\n        /* \"#utility.yul\":1537:1566   */\n      swap1\n      pop\n        /* \"#utility.yul\":1575:1608   */\n      tag_96\n        /* \"#utility.yul\":1602:1607   */\n      dup2\n        /* \"#utility.yul\":1575:1608   */\n      tag_67\n      jump\t// in\n    tag_96:\n        /* \"#utility.yul\":1475:1614   */\n      swap3\n      swap2\n      pop\n      pop\n      jump\t// out\n        /* \"#utility.yul\":1620:1949   */\n    tag_20:\n        /* \"#utility.yul\":1679:1685   */\n      0x00\n        /* \"#utility.yul\":1728:1730   */\n      0x20\n        /* \"#utility.yul\":1716:1725   */\n      dup3\n        /* \"#utility.yul\":1707:1714   */\n      dup5\n        /* \"#utility.yul\":1703:1726   */\n      sub\n        /* \"#utility.yul\":1699:1731   */\n      slt\n        /* \"#utility.yul\":1696:1815   */\n      iszero\n      tag_98\n      jumpi\n        /* \"#utility.yul\":1734:1813   */\n      tag_99\n      tag_65\n      jump\t// in\n    tag_99:\n        /* \"#utility.yul\":1696:1815   */\n    tag_98:\n        /* \"#utility.yul\":1854:1855   */\n      0x00\n        /* \"#utility.yul\":1879:1932   */\n      tag_100\n        /* \"#utility.yul\":1924:1931   */\n      dup5\n        /* \"#utility.yul\":1915:1921   */\n      dup3\n        /* \"#utility.yul\":1904:1913   */\n      dup6\n        /* \"#utility.yul\":1900:1922   */\n      add\n        /* \"#utility.yul\":1879:1932   */\n      tag_68\n      jump\t// in\n    tag_100:\n        /* \"#utility.yul\":1869:1932   */\n      swap2\n      pop\n        /* \"#utility.yul\":1825:1942   */\n      pop\n        /* \"#utility.yul\":1620:1949   */\n      swap3\n      swap2\n      pop\n      pop\n      jump\t// out\n        /* \"#utility.yul\":1955:2124   */\n    tag_69:\n        /* \"#utility.yul\":2039:2050   */\n      0x00\n        /* \"#utility.yul\":2073:2079   */\n      dup3\n        /* \"#utility.yul\":2068:2071   */\n      dup3\n        /* \"#utility.yul\":2061:2080   */\n      mstore\n        /* \"#utility.yul\":2113:2117   */\n      0x20\n        /* \"#utility.yul\":2108:2111   */\n      dup3\n        /* \"#utility.yul\":2104:2118   */\n      add\n        /* \"#utility.yul\":2089:2118   */\n      swap1\n      pop\n        /* \"#utility.yul\":1955:2124   */\n      swap3\n      swap2\n      pop\n      pop\n      jump\t// out\n        /* \"#utility.yul\":2130:2312   */\n    tag_70:\n        /* \"#utility.yul\":2270:2304   */\n      0x4f776e61626c653a2063616c6c6572206973206e6f7420746865206f776e6572\n        /* \"#utility.yul\":2266:2267   */\n      0x00\n        /* \"#utility.yul\":2258:2264   */\n      dup3\n        /* \"#utility.yul\":2254:2268   */\n      add\n        /* \"#utility.yul\":2247:2305   */\n      mstore\n        /* \"#utility.yul\":2130:2312   */\n      pop\n      jump\t// out\n        /* \"#utility.yul\":2318:2684   */\n    tag_71:\n        /* \"#utility.yul\":2460:2463   */\n      0x00\n        /* \"#utility.yul\":2481:2548   */\n      tag_104\n        /* \"#utility.yul\":2545:2547   */\n      0x20\n        /* \"#utility.yul\":2540:2543   */\n      dup4\n        /* \"#utility.yul\":2481:2548   */\n      tag_69\n      jump\t// in\n    tag_104:\n        /* \"#utility.yul\":2474:2548   */\n      swap2\n      pop\n        /* \"#utility.yul\":2557:2650   */\n      tag_105\n        /* \"#utility.yul\":2646:2649   */\n      dup3\n        /* \"#utility.yul\":2557:2650   */\n      tag_70\n      jump\t// in\n    tag_105:\n        /* \"#utility.yul\":2675:2677   */\n      0x20\n        /* \"#utility.yul\":2670:2673   */\n      dup3\n        /* \"#utility.yul\":2666:2678   */\n      add\n        /* \"#utility.yul\":2659:2678   */\n      swap1\n      pop\n        /* \"#utility.yul\":2318:2684   */\n      swap2\n      swap1\n      pop\n      jump\t// out\n        /* \"#utility.yul\":2690:3109   */\n    tag_29:\n        /* \"#utility.yul\":2856:2860   */\n      0x00\n        /* \"#utility.yul\":2894:2896   */\n      0x20\n        /* \"#utility.yul\":2883:2892   */\n      dup3\n        /* \"#utility.yul\":2879:2897   */\n      add\n        /* \"#utility.yul\":2871:2897   */\n      swap1\n      pop\n        /* \"#utility.yul\":2943:2952   */\n      dup2\n        /* \"#utility.yul\":2937:2941   */\n      dup2\n        /* \"#utility.yul\":2933:2953   */\n      sub\n        /* \"#utility.yul\":2929:2930   */\n      0x00\n        /* \"#utility.yul\":2918:2927   */\n      dup4\n        /* \"#utility.yul\":2914:2931   */\n      add\n        /* \"#utility.yul\":2907:2954   */\n      mstore\n        /* \"#utility.yul\":2971:3102   */\n      tag_107\n        /* \"#utility.yul\":3097:3101   */\n      dup2\n        /* \"#utility.yul\":2971:3102   */\n      tag_71\n      jump\t// in\n    tag_107:\n        /* \"#utility.yul\":2963:3102   */\n      swap1\n      pop\n        /* \"#utility.yul\":2690:3109   */\n      swap2\n      swap1\n      pop\n      jump\t// out\n        /* \"#utility.yul\":3115:3348   */\n    tag_72:\n        /* \"#utility.yul\":3255:3289   */\n      0x436f6e747261637420696e7374616e63652068617320616c7265616479206265\n        /* \"#utility.yul\":3251:3252   */\n      0x00\n        /* \"#utility.yul\":3243:3249   */\n      dup3\n        /* \"#utility.yul\":3239:3253   */\n      add\n        /* \"#utility.yul\":3232:3290   */\n      mstore\n        /* \"#utility.yul\":3324:3340   */\n      0x656e20696e697469616c697a6564000000000000000000000000000000000000\n        /* \"#utility.yul\":3319:3321   */\n      0x20\n        /* \"#utility.yul\":3311:3317   */\n      dup3\n        /* \"#utility.yul\":3307:3322   */\n      add\n        /* \"#utility.yul\":3300:3341   */\n      mstore\n        /* \"#utility.yul\":3115:3348   */\n      pop\n      jump\t// out\n        /* \"#utility.yul\":3354:3720   */\n    tag_73:\n        /* \"#utility.yul\":3496:3499   */\n      0x00\n        /* \"#utility.yul\":3517:3584   */\n      tag_110\n        /* \"#utility.yul\":3581:3583   */\n      0x2e\n        /* \"#utility.yul\":3576:3579   */\n      dup4\n        /* \"#utility.yul\":3517:3584   */\n      tag_69\n      jump\t// in\n    tag_110:\n        /* \"#utility.yul\":3510:3584   */\n      swap2\n      pop\n        /* \"#utility.yul\":3593:3686   */\n      tag_111\n        /* \"#utility.yul\":3682:3685   */\n      dup3\n        /* \"#utility.yul\":3593:3686   */\n      tag_72\n      jump\t// in\n    tag_111:\n        /* \"#utility.yul\":3711:3713   */\n      0x40\n        /* \"#utility.yul\":3706:3709   */\n      dup3\n        /* \"#utility.yul\":3702:3714   */\n      add\n        /* \"#utility.yul\":3695:3714   */\n      swap1\n      pop\n        /* \"#utility.yul\":3354:3720   */\n      swap2\n      swap1\n      pop\n      jump\t// out\n        /* \"#utility.yul\":3726:4145   */\n    tag_42:\n        /* \"#utility.yul\":3892:3896   */\n      0x00\n        /* \"#utility.yul\":3930:3932   */\n      0x20\n        /* \"#utility.yul\":3919:3928   */\n      dup3\n        /* \"#utility.yul\":3915:3933   */\n      add\n        /* \"#utility.yul\":3907:3933   */\n      swap1\n      pop\n        /* \"#utility.yul\":3979:3988   */\n      dup2\n        /* \"#utility.yul\":3973:3977   */\n      dup2\n        /* \"#utility.yul\":3969:3989   */\n      sub\n        /* \"#utility.yul\":3965:3966   */\n      0x00\n        /* \"#utility.yul\":3954:3963   */\n      dup4\n        /* \"#utility.yul\":3950:3967   */\n      add\n        /* \"#utility.yul\":3943:3990   */\n      mstore\n        /* \"#utility.yul\":4007:4138   */\n      tag_113\n        /* \"#utility.yul\":4133:4137   */\n      dup2\n        /* \"#utility.yul\":4007:4138   */\n      tag_73\n      jump\t// in\n    tag_113:\n        /* \"#utility.yul\":3999:4138   */\n      swap1\n      pop\n        /* \"#utility.yul\":3726:4145   */\n      swap2\n      swap1\n      pop\n      jump\t// out\n        /* \"#utility.yul\":4151:4376   */\n    tag_74:\n        /* \"#utility.yul\":4291:4325   */\n      0x4f776e61626c653a206e6577206f776e657220697320746865207a65726f2061\n        /* \"#utility.yul\":4287:4288   */\n      0x00\n        /* \"#utility.yul\":4279:4285   */\n      dup3\n        /* \"#utility.yul\":4275:4289   */\n      add\n        /* \"#utility.yul\":4268:4326   */\n      mstore\n        /* \"#utility.yul\":4360:4368   */\n      0x6464726573730000000000000000000000000000000000000000000000000000\n        /* \"#utility.yul\":4355:4357   */\n      0x20\n        /* \"#utility.yul\":4347:4353   */\n      dup3\n        /* \"#utility.yul\":4343:4358   */\n      add\n        /* \"#utility.yul\":4336:4369   */\n      mstore\n        /* \"#utility.yul\":4151:4376   */\n      pop\n      jump\t// out\n        /* \"#utility.yul\":4382:4748   */\n    tag_75:\n        /* \"#utility.yul\":4524:4527   */\n      0x00\n        /* \"#utility.yul\":4545:4612   */\n      tag_116\n        /* \"#utility.yul\":4609:4611   */\n      0x26\n        /* \"#utility.yul\":4604:4607   */\n      dup4\n        /* \"#utility.yul\":4545:4612   */\n      tag_69\n      jump\t// in\n    tag_116:\n        /* \"#utility.yul\":4538:4612   */\n      swap2\n      pop\n        /* \"#utility.yul\":4621:4714   */\n      tag_117\n        /* \"#utility.yul\":4710:4713   */\n      dup3\n        /* \"#utility.yul\":4621:4714   */\n      tag_74\n      jump\t// in\n    tag_117:\n        /* \"#utility.yul\":4739:4741   */\n      0x40\n        /* \"#utility.yul\":4734:4737   */\n      dup3\n        /* \"#utility.yul\":4730:4742   */\n      add\n        /* \"#utility.yul\":4723:4742   */\n      swap1\n      pop\n        /* \"#utility.yul\":4382:4748   */\n      swap2\n      swap1\n      pop\n      jump\t// out\n        /* \"#utility.yul\":4754:5173   */\n    tag_58:\n        /* \"#utility.yul\":4920:4924   */\n      0x00\n        /* \"#utility.yul\":4958:4960   */\n      0x20\n        /* \"#utility.yul\":4947:4956   */\n      dup3\n        /* \"#utility.yul\":4943:4961   */\n      add\n        /* \"#utility.yul\":4935:4961   */\n      swap1\n      pop\n        /* \"#utility.yul\":5007:5016   */\n      dup2\n        /* \"#utility.yul\":5001:5005   */\n      dup2\n        /* \"#utility.yul\":4997:5017   */\n      sub\n        /* \"#utility.yul\":4993:4994   */\n      0x00\n        /* \"#utility.yul\":4982:4991   */\n      dup4\n        /* \"#utility.yul\":4978:4995   */\n      add\n        /* \"#utility.yul\":4971:5018   */\n      mstore\n        /* \"#utility.yul\":5035:5166   */\n      tag_119\n        /* \"#utility.yul\":5161:5165   */\n      dup2\n        /* \"#utility.yul\":5035:5166   */\n      tag_75\n      jump\t// in\n    tag_119:\n        /* \"#utility.yul\":5027:5166   */\n      swap1\n      pop\n        /* \"#utility.yul\":4754:5173   */\n      swap2\n      swap1\n      pop\n      jump\t// out\n\n    auxdata: 0xa264697066735822122018310322d1a26bc97358fc774ce9fe9def7d66f6330cdfaf06cd8be7f473f38b64736f6c63430008130033\n}\n",
				"bytecode": {
					"linkReferences": {},
					"object": "608060405234801561001057600080fd5b5061087a806100206000396000f3fe608060405234801561001057600080fd5b50600436106100575760003560e01c8063715018a61461005c5780638da5cb5b146100665780638f32d59b14610084578063c4d66de8146100a2578063f2fde38b146100be575b600080fd5b6100646100da565b005b61006e6101e2565b60405161007b91906105f4565b60405180910390f35b61008c61020c565b604051610099919061062a565b60405180910390f35b6100bc60048036038101906100b79190610676565b61026b565b005b6100d860048036038101906100d39190610676565b610412565b005b6100e261020c565b610121576040517f08c379a000000000000000000000000000000000000000000000000000000000815260040161011890610700565b60405180910390fd5b600073ffffffffffffffffffffffffffffffffffffffff16603360009054906101000a900473ffffffffffffffffffffffffffffffffffffffff1673ffffffffffffffffffffffffffffffffffffffff167f8be0079c531659141344cd1fd0a4f28419497f9722a3daafe3b4186f6b6457e060405160405180910390a36000603360006101000a81548173ffffffffffffffffffffffffffffffffffffffff021916908373ffffffffffffffffffffffffffffffffffffffff160217905550565b6000603360009054906101000a900473ffffffffffffffffffffffffffffffffffffffff16905090565b6000603360009054906101000a900473ffffffffffffffffffffffffffffffffffffffff1673ffffffffffffffffffffffffffffffffffffffff1661024f610465565b73ffffffffffffffffffffffffffffffffffffffff1614905090565b600060019054906101000a900460ff168061028a575061028961046d565b5b806102a0575060008054906101000a900460ff16155b6102df576040517f08c379a00000000000000000000000000000000000000000000000000000000081526004016102d690610792565b60405180910390fd5b60008060019054906101000a900460ff16159050801561032f576001600060016101000a81548160ff02191690831515021790555060016000806101000a81548160ff0219169083151502179055505b81603360006101000a81548173ffffffffffffffffffffffffffffffffffffffff021916908373ffffffffffffffffffffffffffffffffffffffff160217905550603360009054906101000a900473ffffffffffffffffffffffffffffffffffffffff1673ffffffffffffffffffffffffffffffffffffffff16600073ffffffffffffffffffffffffffffffffffffffff167f8be0079c531659141344cd1fd0a4f28419497f9722a3daafe3b4186f6b6457e060405160405180910390a3801561040e5760008060016101000a81548160ff0219169083151502179055505b5050565b61041a61020c565b610459576040517f08c379a000000000000000000000000000000000000000000000000000000000815260040161045090610700565b60405180910390fd5b61046281610484565b50565b600033905090565b6000803090506000813b9050600081149250505090565b600073ffffffffffffffffffffffffffffffffffffffff168173ffffffffffffffffffffffffffffffffffffffff16036104f3576040517f08c379a00000000000000000000000000000000000000000000000000000000081526004016104ea90610824565b60405180910390fd5b8073ffffffffffffffffffffffffffffffffffffffff16603360009054906101000a900473ffffffffffffffffffffffffffffffffffffffff1673ffffffffffffffffffffffffffffffffffffffff167f8be0079c531659141344cd1fd0a4f28419497f9722a3daafe3b4186f6b6457e060405160405180910390a380603360006101000a81548173ffffffffffffffffffffffffffffffffffffffff021916908373ffffffffffffffffffffffffffffffffffffffff16021790555050565b600073ffffffffffffffffffffffffffffffffffffffff82169050919050565b60006105de826105b3565b9050919050565b6105ee816105d3565b82525050565b600060208201905061060960008301846105e5565b92915050565b60008115159050919050565b6106248161060f565b82525050565b600060208201905061063f600083018461061b565b92915050565b600080fd5b610653816105d3565b811461065e57600080fd5b50565b6000813590506106708161064a565b92915050565b60006020828403121561068c5761068b610645565b5b600061069a84828501610661565b91505092915050565b600082825260208201905092915050565b7f4f776e61626c653a2063616c6c6572206973206e6f7420746865206f776e6572600082015250565b60006106ea6020836106a3565b91506106f5826106b4565b602082019050919050565b60006020820190508181036000830152610719816106dd565b9050919050565b7f436f6e747261637420696e7374616e63652068617320616c726561647920626560008201527f656e20696e697469616c697a6564000000000000000000000000000000000000602082015250565b600061077c602e836106a3565b915061078782610720565b604082019050919050565b600060208201905081810360008301526107ab8161076f565b9050919050565b7f4f776e61626c653a206e6577206f776e657220697320746865207a65726f206160008201527f6464726573730000000000000000000000000000000000000000000000000000602082015250565b600061080e6026836106a3565b9150610819826107b2565b604082019050919050565b6000602082019050818103600083015261083d81610801565b905091905056fea264697066735822122018310322d1a26bc97358fc774ce9fe9def7d66f6330cdfaf06cd8be7f473f38b64736f6c63430008130033",
					"opcodes": "PUSH1 0x80 PUSH1 0x40 MSTORE CALLVALUE DUP1 ISZERO PUSH2 0x10 JUMPI PUSH1 0x0 DUP1 REVERT JUMPDEST POP PUSH2 0x87A DUP1 PUSH2 0x20 PUSH1 0x0 CODECOPY PUSH1 0x0 RETURN INVALID PUSH1 0x80 PUSH1 0x40 MSTORE CALLVALUE DUP1 ISZERO PUSH2 0x10 JUMPI PUSH1 0x0 DUP1 REVERT JUMPDEST POP PUSH1 0x4 CALLDATASIZE LT PUSH2 0x57 JUMPI PUSH1 0x0 CALLDATALOAD PUSH1 0xE0 SHR DUP1 PUSH4 0x715018A6 EQ PUSH2 0x5C JUMPI DUP1 PUSH4 0x8DA5CB5B EQ PUSH2 0x66 JUMPI DUP1 PUSH4 0x8F32D59B EQ PUSH2 0x84 JUMPI DUP1 PUSH4 0xC4D66DE8 EQ PUSH2 0xA2 JUMPI DUP1 PUSH4 0xF2FDE38B EQ PUSH2 0xBE JUMPI JUMPDEST PUSH1 0x0 DUP1 REVERT JUMPDEST PUSH2 0x64 PUSH2 0xDA JUMP JUMPDEST STOP JUMPDEST PUSH2 0x6E PUSH2 0x1E2 JUMP JUMPDEST PUSH1 0x40 MLOAD PUSH2 0x7B SWAP2 SWAP1 PUSH2 0x5F4 JUMP JUMPDEST PUSH1 0x40 MLOAD DUP1 SWAP2 SUB SWAP1 RETURN JUMPDEST PUSH2 0x8C PUSH2 0x20C JUMP JUMPDEST PUSH1 0x40 MLOAD PUSH2 0x99 SWAP2 SWAP1 PUSH2 0x62A JUMP JUMPDEST PUSH1 0x40 MLOAD DUP1 SWAP2 SUB SWAP1 RETURN JUMPDEST PUSH2 0xBC PUSH1 0x4 DUP1 CALLDATASIZE SUB DUP2 ADD SWAP1 PUSH2 0xB7 SWAP2 SWAP1 PUSH2 0x676 JUMP JUMPDEST PUSH2 0x26B JUMP JUMPDEST STOP JUMPDEST PUSH2 0xD8 PUSH1 0x4 DUP1 CALLDATASIZE SUB DUP2 ADD SWAP1 PUSH2 0xD3 SWAP2 SWAP1 PUSH2 0x676 JUMP JUMPDEST PUSH2 0x412 JUMP JUMPDEST STOP JUMPDEST PUSH2 0xE2 PUSH2 0x20C JUMP JUMPDEST PUSH2 0x121 JUMPI PUSH1 0x40 MLOAD PUSH32 0x8C379A000000000000000000000000000000000000000000000000000000000 DUP2 MSTORE PUSH1 0x4 ADD PUSH2 0x118 SWAP1 PUSH2 0x700 JUMP JUMPDEST PUSH1 0x40 MLOAD DUP1 SWAP2 SUB SWAP1 REVERT JUMPDEST PUSH1 0x0 PUSH20 0xFFFFFFFFFFFFFFFFFFFFFFFFFFFFFFFFFFFFFFFF AND PUSH1 0x33 PUSH1 0x0 SWAP1 SLOAD SWAP1 PUSH2 0x100 EXP SWAP1 DIV PUSH20 0xFFFFFFFFFFFFFFFFFFFFFFFFFFFFFFFFFFFFFFFF AND PUSH20 0xFFFFFFFFFFFFFFFFFFFFFFFFFFFFFFFFFFFFFFFF AND PUSH32 0x8BE0079C531659141344CD1FD0A4F28419497F9722A3DAAFE3B4186F6B6457E0 PUSH1 0x40 MLOAD PUSH1 0x40 MLOAD DUP1 SWAP2 SUB SWAP1 LOG3 PUSH1 0x0 PUSH1 0x33 PUSH1 0x0 PUSH2 0x100 EXP DUP2 SLOAD DUP2 PUSH20 0xFFFFFFFFFFFFFFFFFFFFFFFFFFFFFFFFFFFFFFFF MUL NOT AND SWAP1 DUP4 PUSH20 0xFFFFFFFFFFFFFFFFFFFFFFFFFFFFFFFFFFFFFFFF AND MUL OR SWAP1 SSTORE POP JUMP JUMPDEST PUSH1 0x0 PUSH1 0x33 PUSH1 0x0 SWAP1 SLOAD SWAP1 PUSH2 0x100 EXP SWAP1 DIV PUSH20 0xFFFFFFFFFFFFFFFFFFFFFFFFFFFFFFFFFFFFFFFF AND SWAP1 POP SWAP1 JUMP JUMPDEST PUSH1 0x0 PUSH1 0x33 PUSH1 0x0 SWAP1 SLOAD SWAP1 PUSH2 0x100 EXP SWAP1 DIV PUSH20 0xFFFFFFFFFFFFFFFFFFFFFFFFFFFFFFFFFFFFFFFF AND PUSH20 0xFFFFFFFFFFFFFFFFFFFFFFFFFFFFFFFFFFFFFFFF AND PUSH2 0x24F PUSH2 0x465 JUMP JUMPDEST PUSH20 0xFFFFFFFFFFFFFFFFFFFFFFFFFFFFFFFFFFFFFFFF AND EQ SWAP1 POP SWAP1 JUMP JUMPDEST PUSH1 0x0 PUSH1 0x1 SWAP1 SLOAD SWAP1 PUSH2 0x100 EXP SWAP1 DIV PUSH1 0xFF AND DUP1 PUSH2 0x28A JUMPI POP PUSH2 0x289 PUSH2 0x46D JUMP JUMPDEST JUMPDEST DUP1 PUSH2 0x2A0 JUMPI POP PUSH1 0x0 DUP1 SLOAD SWAP1 PUSH2 0x100 EXP SWAP1 DIV PUSH1 0xFF AND ISZERO JUMPDEST PUSH2 0x2DF JUMPI PUSH1 0x40 MLOAD PUSH32 0x8C379A000000000000000000000000000000000000000000000000000000000 DUP2 MSTORE PUSH1 0x4 ADD PUSH2 0x2D6 SWAP1 PUSH2 0x792 JUMP JUMPDEST PUSH1 0x40 MLOAD DUP1 SWAP2 SUB SWAP1 REVERT JUMPDEST PUSH1 0x0 DUP1 PUSH1 0x1 SWAP1 SLOAD SWAP1 PUSH2 0x100 EXP SWAP1 DIV PUSH1 0xFF AND ISZERO SWAP1 POP DUP1 ISZERO PUSH2 0x32F JUMPI PUSH1 0x1 PUSH1 0x0 PUSH1 0x1 PUSH2 0x100 EXP DUP2 SLOAD DUP2 PUSH1 0xFF MUL NOT AND SWAP1 DUP4 ISZERO ISZERO MUL OR SWAP1 SSTORE POP PUSH1 0x1 PUSH1 0x0 DUP1 PUSH2 0x100 EXP DUP2 SLOAD DUP2 PUSH1 0xFF MUL NOT AND SWAP1 DUP4 ISZERO ISZERO MUL OR SWAP1 SSTORE POP JUMPDEST DUP2 PUSH1 0x33 PUSH1 0x0 PUSH2 0x100 EXP DUP2 SLOAD DUP2 PUSH20 0xFFFFFFFFFFFFFFFFFFFFFFFFFFFFFFFFFFFFFFFF MUL NOT AND SWAP1 DUP4 PUSH20 0xFFFFFFFFFFFFFFFFFFFFFFFFFFFFFFFFFFFFFFFF AND MUL OR SWAP1 SSTORE POP PUSH1 0x33 PUSH1 0x0 SWAP1 SLOAD SWAP1 PUSH2 0x100 EXP SWAP1 DIV PUSH20 0xFFFFFFFFFFFFFFFFFFFFFFFFFFFFFFFFFFFFFFFF AND PUSH20 0xFFFFFFFFFFFFFFFFFFFFFFFFFFFFFFFFFFFFFFFF AND PUSH1 0x0 PUSH20 0xFFFFFFFFFFFFFFFFFFFFFFFFFFFFFFFFFFFFFFFF AND PUSH32 0x8BE0079C531659141344CD1FD0A4F28419497F9722A3DAAFE3B4186F6B6457E0 PUSH1 0x40 MLOAD PUSH1 0x40 MLOAD DUP1 SWAP2 SUB SWAP1 LOG3 DUP1 ISZERO PUSH2 0x40E JUMPI PUSH1 0x0 DUP1 PUSH1 0x1 PUSH2 0x100 EXP DUP2 SLOAD DUP2 PUSH1 0xFF MUL NOT AND SWAP1 DUP4 ISZERO ISZERO MUL OR SWAP1 SSTORE POP JUMPDEST POP POP JUMP JUMPDEST PUSH2 0x41A PUSH2 0x20C JUMP JUMPDEST PUSH2 0x459 JUMPI PUSH1 0x40 MLOAD PUSH32 0x8C379A000000000000000000000000000000000000000000000000000000000 DUP2 MSTORE PUSH1 0x4 ADD PUSH2 0x450 SWAP1 PUSH2 0x700 JUMP JUMPDEST PUSH1 0x40 MLOAD DUP1 SWAP2 SUB SWAP1 REVERT JUMPDEST PUSH2 0x462 DUP2 PUSH2 0x484 JUMP JUMPDEST POP JUMP JUMPDEST PUSH1 0x0 CALLER SWAP1 POP SWAP1 JUMP JUMPDEST PUSH1 0x0 DUP1 ADDRESS SWAP1 POP PUSH1 0x0 DUP2 EXTCODESIZE SWAP1 POP PUSH1 0x0 DUP2 EQ SWAP3 POP POP POP SWAP1 JUMP JUMPDEST PUSH1 0x0 PUSH20 0xFFFFFFFFFFFFFFFFFFFFFFFFFFFFFFFFFFFFFFFF AND DUP2 PUSH20 0xFFFFFFFFFFFFFFFFFFFFFFFFFFFFFFFFFFFFFFFF AND SUB PUSH2 0x4F3 JUMPI PUSH1 0x40 MLOAD PUSH32 0x8C379A000000000000000000000000000000000000000000000000000000000 DUP2 MSTORE PUSH1 0x4 ADD PUSH2 0x4EA SWAP1 PUSH2 0x824 JUMP JUMPDEST PUSH1 0x40 MLOAD DUP1 SWAP2 SUB SWAP1 REVERT JUMPDEST DUP1 PUSH20 0xFFFFFFFFFFFFFFFFFFFFFFFFFFFFFFFFFFFFFFFF AND PUSH1 0x33 PUSH1 0x0 SWAP1 SLOAD SWAP1 PUSH2 0x100 EXP SWAP1 DIV PUSH20 0xFFFFFFFFFFFFFFFFFFFFFFFFFFFFFFFFFFFFFFFF AND PUSH20 0xFFFFFFFFFFFFFFFFFFFFFFFFFFFFFFFFFFFFFFFF AND PUSH32 0x8BE0079C531659141344CD1FD0A4F28419497F9722A3DAAFE3B4186F6B6457E0 PUSH1 0x40 MLOAD PUSH1 0x40 MLOAD DUP1 SWAP2 SUB SWAP1 LOG3 DUP1 PUSH1 0x33 PUSH1 0x0 PUSH2 0x100 EXP DUP2 SLOAD DUP2 PUSH20 0xFFFFFFFFFFFFFFFFFFFFFFFFFFFFFFFFFFFFFFFF MUL NOT AND SWAP1 DUP4 PUSH20 0xFFFFFFFFFFFFFFFFFFFFFFFFFFFFFFFFFFFFFFFF AND MUL OR SWAP1 SSTORE POP POP JUMP JUMPDEST PUSH1 0x0 PUSH20 0xFFFFFFFFFFFFFFFFFFFFFFFFFFFFFFFFFFFFFFFF DUP3 AND SWAP1 POP SWAP2 SWAP1 POP JUMP JUMPDEST PUSH1 0x0 PUSH2 0x5DE DUP3 PUSH2 0x5B3 JUMP JUMPDEST SWAP1 POP SWAP2 SWAP1 POP JUMP JUMPDEST PUSH2 0x5EE DUP2 PUSH2 0x5D3 JUMP JUMPDEST DUP3 MSTORE POP POP JUMP JUMPDEST PUSH1 0x0 PUSH1 0x20 DUP3 ADD SWAP1 POP PUSH2 0x609 PUSH1 0x0 DUP4 ADD DUP5 PUSH2 0x5E5 JUMP JUMPDEST SWAP3 SWAP2 POP POP JUMP JUMPDEST PUSH1 0x0 DUP2 ISZERO ISZERO SWAP1 POP SWAP2 SWAP1 POP JUMP JUMPDEST PUSH2 0x624 DUP2 PUSH2 0x60F JUMP JUMPDEST DUP3 MSTORE POP POP JUMP JUMPDEST PUSH1 0x0 PUSH1 0x20 DUP3 ADD SWAP1 POP PUSH2 0x63F PUSH1 0x0 DUP4 ADD DUP5 PUSH2 0x61B JUMP JUMPDEST SWAP3 SWAP2 POP POP JUMP JUMPDEST PUSH1 0x0 DUP1 REVERT JUMPDEST PUSH2 0x653 DUP2 PUSH2 0x5D3 JUMP JUMPDEST DUP2 EQ PUSH2 0x65E JUMPI PUSH1 0x0 DUP1 REVERT JUMPDEST POP JUMP JUMPDEST PUSH1 0x0 DUP2 CALLDATALOAD SWAP1 POP PUSH2 0x670 DUP2 PUSH2 0x64A JUMP JUMPDEST SWAP3 SWAP2 POP POP JUMP JUMPDEST PUSH1 0x0 PUSH1 0x20 DUP3 DUP5 SUB SLT ISZERO PUSH2 0x68C JUMPI PUSH2 0x68B PUSH2 0x645 JUMP JUMPDEST JUMPDEST PUSH1 0x0 PUSH2 0x69A DUP5 DUP3 DUP6 ADD PUSH2 0x661 JUMP JUMPDEST SWAP2 POP POP SWAP3 SWAP2 POP POP JUMP JUMPDEST PUSH1 0x0 DUP3 DUP3 MSTORE PUSH1 0x20 DUP3 ADD SWAP1 POP SWAP3 SWAP2 POP POP JUMP JUMPDEST PUSH32 0x4F776E61626C653A2063616C6C6572206973206E6F7420746865206F776E6572 PUSH1 0x0 DUP3 ADD MSTORE POP JUMP JUMPDEST PUSH1 0x0 PUSH2 0x6EA PUSH1 0x20 DUP4 PUSH2 0x6A3 JUMP JUMPDEST SWAP2 POP PUSH2 0x6F5 DUP3 PUSH2 0x6B4 JUMP JUMPDEST PUSH1 0x20 DUP3 ADD SWAP1 POP SWAP2 SWAP1 POP JUMP JUMPDEST PUSH1 0x0 PUSH1 0x20 DUP3 ADD SWAP1 POP DUP2 DUP2 SUB PUSH1 0x0 DUP4 ADD MSTORE PUSH2 0x719 DUP2 PUSH2 0x6DD JUMP JUMPDEST SWAP1 POP SWAP2 SWAP1 POP JUMP JUMPDEST PUSH32 0x436F6E747261637420696E7374616E63652068617320616C7265616479206265 PUSH1 0x0 DUP3 ADD MSTORE PUSH32 0x656E20696E697469616C697A6564000000000000000000000000000000000000 PUSH1 0x20 DUP3 ADD MSTORE POP JUMP JUMPDEST PUSH1 0x0 PUSH2 0x77C PUSH1 0x2E DUP4 PUSH2 0x6A3 JUMP JUMPDEST SWAP2 POP PUSH2 0x787 DUP3 PUSH2 0x720 JUMP JUMPDEST PUSH1 0x40 DUP3 ADD SWAP1 POP SWAP2 SWAP1 POP JUMP JUMPDEST PUSH1 0x0 PUSH1 0x20 DUP3 ADD SWAP1 POP DUP2 DUP2 SUB PUSH1 0x0 DUP4 ADD MSTORE PUSH2 0x7AB DUP2 PUSH2 0x76F JUMP JUMPDEST SWAP1 POP SWAP2 SWAP1 POP JUMP JUMPDEST PUSH32 0x4F776E61626C653A206E6577206F776E657220697320746865207A65726F2061 PUSH1 0x0 DUP3 ADD MSTORE PUSH32 0x6464726573730000000000000000000000000000000000000000000000000000 PUSH1 0x20 DUP3 ADD MSTORE POP JUMP JUMPDEST PUSH1 0x0 PUSH2 0x80E PUSH1 0x26 DUP4 PUSH2 0x6A3 JUMP JUMPDEST SWAP2 POP PUSH2 0x819 DUP3 PUSH2 0x7B2 JUMP JUMPDEST PUSH1 0x40 DUP3 ADD SWAP1 POP SWAP2 SWAP1 POP JUMP JUMPDEST PUSH1 0x0 PUSH1 0x20 DUP3 ADD SWAP1 POP DUP2 DUP2 SUB PUSH1 0x0 DUP4 ADD MSTORE PUSH2 0x83D DUP2 PUSH2 0x801 JUMP JUMPDEST SWAP1 POP SWAP2 SWAP1 POP JUMP INVALID LOG2 PUSH5 0x6970667358 0x22 SLT KECCAK256 XOR BALANCE SUB 0x22 0xD1 LOG2 PUSH12 0xC97358FC774CE9FE9DEF7D66 0xF6 CALLER 0xC 0xDF 0xAF MOD 0xCD DUP12 0xE7 DELEGATECALL PUSH20 0xF38B64736F6C6343000813003300000000000000 "
				},
				"gasEstimates": {
					"creation": {
						"codeDepositCost": "434000",
						"executionCost": "468",
						"totalCost": "434468"
					},
					"external": {
						"initialize(address)": "110639",
						"isOwner()": "2553",
						"owner()": "2522",
						"renounceOwnership()": "30310",
						"transferOwnership(address)": "30773"
					},
					"internal": {
						"_transferOwnership(address)": "infinite"
					}
				},
				"methodIdentifiers": {
					"initialize(address)": "c4d66de8",
					"isOwner()": "8f32d59b",
					"owner()": "8da5cb5b",
					"renounceOwnership()": "715018a6",
					"transferOwnership(address)": "f2fde38b"
				}
			},
			"storageLayout": {
				"storage": [
					{
						"astId": 678,
						"contract": "@openzeppelin/contracts-ethereum-package/contracts/ownership/Ownable.sol:Ownable",
						"label": "initialized",
						"offset": 0,
						"slot": "0",
						"type": "t_bool"
					},
					{
						"astId": 681,
						"contract": "@openzeppelin/contracts-ethereum-package/contracts/ownership/Ownable.sol:Ownable",
						"label": "initializing",
						"offset": 1,
						"slot": "0",
						"type": "t_bool"
					},
					{
						"astId": 746,
						"contract": "@openzeppelin/contracts-ethereum-package/contracts/ownership/Ownable.sol:Ownable",
						"label": "______gap",
						"offset": 0,
						"slot": "1",
						"type": "t_array(t_uint256)50_storage"
					},
					{
						"astId": 32,
						"contract": "@openzeppelin/contracts-ethereum-package/contracts/ownership/Ownable.sol:Ownable",
						"label": "_owner",
						"offset": 0,
						"slot": "51",
						"type": "t_address"
					},
					{
						"astId": 156,
						"contract": "@openzeppelin/contracts-ethereum-package/contracts/ownership/Ownable.sol:Ownable",
						"label": "______gap",
						"offset": 0,
						"slot": "52",
						"type": "t_array(t_uint256)50_storage"
					}
				],
				"types": {
					"t_address": {
						"encoding": "inplace",
						"label": "address",
						"numberOfBytes": "20"
					},
					"t_array(t_uint256)50_storage": {
						"base": "t_uint256",
						"encoding": "inplace",
						"label": "uint256[50]",
						"numberOfBytes": "1600"
					},
					"t_bool": {
						"encoding": "inplace",
						"label": "bool",
						"numberOfBytes": "1"
					},
					"t_uint256": {
						"encoding": "inplace",
						"label": "uint256",
						"numberOfBytes": "32"
					}
				}
			},
			"userdoc": {
				"kind": "user",
				"methods": {},
				"version": 1
			}
		}
	}
}