{
	"data": {
		"bytecode": {
			"linkReferences": {},
			"object": "60806040526014606b556001606c5534801561001a57600080fd5b506000606860006101000a81548160ff021916908315150217905550613e7c806100456000396000f3fe6080604052600436106102135760003560e01c806368f7339111610118578063c4d66de8116100a0578063dfc5d8721161006f578063dfc5d87214610781578063e64d3979146107aa578063f2fde38b146107e7578063f3ca7b4114610810578063f7f204cb1461083b57610268565b8063c4d66de8146106c7578063c68c4cc5146106f0578063d9f774fc1461072d578063deaa59df1461075857610268565b8063715018a6116100e7578063715018a6146106185780638456cb591461062f5780638b7bf3eb146106465780638da5cb5b146106715780638f32d59b1461069c57610268565b806368f733911461057d5780636b10e7e41461059b5780636cd07154146105c457806370480275146105ef57610268565b8063317d94531161019b578063492da13b1161016a578063492da13b146104b35780634d7df08d146104d157806351fb012d146104fc578063521eb273146105275780635c975abb1461055257610268565b8063317d94531461043157806331c911171461045c5780633bed33ce146104735780633f4ba83a1461049c57610268565b8063224a271f116101e2578063224a271f1461035e57806324d7806c14610389578063280da6fa146103c657806330e76dae146103dd578063315a095d1461040857610268565b8063052d9e7e146102b85780630e949e5c146102e15780631785f53c1461030a5780631f33b2f91461033357610268565b36610268573373ffffffffffffffffffffffffffffffffffffffff167f89c97b8fdda0bc916bf8986e40ebb0c827bbef4b17f09586ce69a696815727de3460405161025e9190612c0f565b60405180910390a2005b3373ffffffffffffffffffffffffffffffffffffffff167f1d01cf726c71f8d8fe63939223b6f641789776dac1dfdc9abbb06e60917845a3346040516102ae9190612c0f565b60405180910390a2005b3480156102c457600080fd5b506102df60048036038101906102da9190612c67565b610866565b005b3480156102ed57600080fd5b5061030860048036038101906103039190612cc0565b6108cb565b005b34801561031657600080fd5b50610331600480360381019061032c9190612d5e565b610974565b005b34801561033f57600080fd5b50610348610a16565b6040516103559190612c0f565b60405180910390f35b34801561036a57600080fd5b50610373610a46565b6040516103809190612c0f565b60405180910390f35b34801561039557600080fd5b506103b060048036038101906103ab9190612d5e565b610a76565b6040516103bd9190612d9a565b60405180910390f35b3480156103d257600080fd5b506103db610a93565b005b3480156103e957600080fd5b506103f2610ca6565b6040516103ff9190612c0f565b60405180910390f35b34801561041457600080fd5b5061042f600480360381019061042a9190612db5565b610cae565b005b34801561043d57600080fd5b50610446610f05565b6040516104539190612c0f565b60405180910390f35b34801561046857600080fd5b50610471610fa8565b005b34801561047f57600080fd5b5061049a60048036038101906104959190612db5565b6110e8565b005b3480156104a857600080fd5b506104b161126c565b005b6104bb611357565b6040516104c89190612c0f565b60405180910390f35b3480156104dd57600080fd5b506104e66117f7565b6040516104f39190612c0f565b60405180910390f35b34801561050857600080fd5b506105116117fd565b60405161051e9190612d9a565b60405180910390f35b34801561053357600080fd5b5061053c611810565b6040516105499190612df1565b60405180910390f35b34801561055e57600080fd5b50610567611836565b6040516105749190612d9a565b60405180910390f35b61058561184d565b6040516105929190612c0f565b60405180910390f35b3480156105a757600080fd5b506105c260048036038101906105bd9190612e0c565b611bf3565b005b3480156105d057600080fd5b506105d9611d94565b6040516105e69190612ef8565b60405180910390f35b3480156105fb57600080fd5b5061061660048036038101906106119190612d5e565b611dba565b005b34801561062457600080fd5b5061062d611e5c565b005b34801561063b57600080fd5b50610644611f64565b005b34801561065257600080fd5b5061065b612050565b6040516106689190612c0f565b60405180910390f35b34801561067d57600080fd5b50610686612061565b6040516106939190612df1565b60405180910390f35b3480156106a857600080fd5b506106b161208b565b6040516106be9190612d9a565b60405180910390f35b3480156106d357600080fd5b506106ee60048036038101906106e99190612d5e565b6120ea565b005b3480156106fc57600080fd5b5061071760048036038101906107129190612d5e565b612291565b6040516107249190612c0f565b60405180910390f35b34801561073957600080fd5b50610742612336565b60405161074f9190612fd1565b60405180910390f35b34801561076457600080fd5b5061077f600480360381019061077a9190612d5e565b61241b565b005b34801561078d57600080fd5b506107a860048036038101906107a39190613031565b612501565b005b3480156107b657600080fd5b506107d160048036038101906107cc9190612db5565b61260d565b6040516107de9190612c0f565b60405180910390f35b3480156107f357600080fd5b5061080e60048036038101906108099190612d5e565b61263f565b005b34801561081c57600080fd5b50610825612692565b6040516108329190613092565b60405180910390f35b34801561084757600080fd5b506108506126b8565b60405161085d9190612c0f565b60405180910390f35b61086f33610a76565b6108ae576040517f08c379a00000000000000000000000000000000000000000000000000000000081526004016108a590613130565b60405180910390fd5b80606960146101000a81548160ff02191690831515021790555050565b6108d433610a76565b610913576040517f08c379a000000000000000000000000000000000000000000000000000000000815260040161090a90613130565b60405180910390fd5b6000821180156109235750600081115b610962576040517f08c379a0000000000000000000000000000000000000000000000000000000008152600401610959906131c2565b60405180910390fd5b81606b8190555080606c819055505050565b61097c61208b565b6109bb576040517f08c379a00000000000000000000000000000000000000000000000000000000081526004016109b29061322e565b60405180910390fd5b6109cf8160666126be90919063ffffffff16565b508073ffffffffffffffffffffffffffffffffffffffff167f753f40ca3312b2408759a67875b367955e7baa221daf08aa3d643d96202ac12b60405160405180910390a250565b600080610a21610ca6565b90506000811115610a3d57610a35816126ee565b915050610a43565b60009150505b90565b600080610a51610f05565b90506000811115610a6d57610a65816126ee565b915050610a73565b60009150505b90565b6000610a8c82606661271790919063ffffffff16565b9050919050565b610a9c33610a76565b610adb576040517f08c379a0000000000000000000000000000000000000000000000000000000008152600401610ad290613130565b60405180910390fd5b6000606860019054906101000a900473ffffffffffffffffffffffffffffffffffffffff1673ffffffffffffffffffffffffffffffffffffffff166370a08231306040518263ffffffff1660e01b8152600401610b389190612df1565b602060405180830381865afa158015610b55573d6000803e3d6000fd5b505050506040513d601f19601f82011682018060405250810190610b799190613263565b905060008111610bbe576040517f08c379a0000000000000000000000000000000000000000000000000000000008152600401610bb590613302565b60405180910390fd5b6000606860019054906101000a900473ffffffffffffffffffffffffffffffffffffffff1673ffffffffffffffffffffffffffffffffffffffff1663a9059cbb33846040518363ffffffff1660e01b8152600401610c1d929190613322565b6020604051808303816000875af1158015610c3c573d6000803e3d6000fd5b505050506040513d601f19601f82011682018060405250810190610c609190613360565b905080610ca2576040517f08c379a0000000000000000000000000000000000000000000000000000000008152600401610c99906133ff565b60405180910390fd5b5050565b600047905090565b610cb733610a76565b610cf6576040517f08c379a0000000000000000000000000000000000000000000000000000000008152600401610ced90613130565b60405180910390fd5b6000606860019054906101000a900473ffffffffffffffffffffffffffffffffffffffff1673ffffffffffffffffffffffffffffffffffffffff166370a08231306040518263ffffffff1660e01b8152600401610d539190612df1565b602060405180830381865afa158015610d70573d6000803e3d6000fd5b505050506040513d601f19601f82011682018060405250810190610d949190613263565b905060008111610dd9576040517f08c379a0000000000000000000000000000000000000000000000000000000008152600401610dd090613302565b60405180910390fd5b81811015610e1c576040517f08c379a0000000000000000000000000000000000000000000000000000000008152600401610e1390613491565b60405180910390fd5b6000606860019054906101000a900473ffffffffffffffffffffffffffffffffffffffff1673ffffffffffffffffffffffffffffffffffffffff1663a9059cbb33856040518363ffffffff1660e01b8152600401610e7b929190613322565b6020604051808303816000875af1158015610e9a573d6000803e3d6000fd5b505050506040513d601f19601f82011682018060405250810190610ebe9190613360565b905080610f00576040517f08c379a0000000000000000000000000000000000000000000000000000000008152600401610ef7906133ff565b60405180910390fd5b505050565b6000606860019054906101000a900473ffffffffffffffffffffffffffffffffffffffff1673ffffffffffffffffffffffffffffffffffffffff166370a08231306040518263ffffffff1660e01b8152600401610f629190612df1565b602060405180830381865afa158015610f7f573d6000803e3d6000fd5b505050506040513d601f19601f82011682018060405250810190610fa39190613263565b905090565b610fb133610a76565b610ff0576040517f08c379a0000000000000000000000000000000000000000000000000000000008152600401610fe790613130565b60405180910390fd5b600047905060008111611038576040517f08c379a000000000000000000000000000000000000000000000000000000000815260040161102f906134fd565b60405180910390fd5b60003373ffffffffffffffffffffffffffffffffffffffff164760405161105e9061354e565b60006040518083038185875af1925050503d806000811461109b576040519150601f19603f3d011682016040523d82523d6000602084013e6110a0565b606091505b50509050806110e4576040517f08c379a00000000000000000000000000000000000000000000000000000000081526004016110db906135d5565b60405180910390fd5b5050565b6110f133610a76565b611130576040517f08c379a000000000000000000000000000000000000000000000000000000000815260040161112790613130565b60405180910390fd5b600047905060008111611178576040517f08c379a000000000000000000000000000000000000000000000000000000000815260040161116f906134fd565b60405180910390fd5b818110156111bb576040517f08c379a00000000000000000000000000000000000000000000000000000000081526004016111b290613491565b60405180910390fd5b60003373ffffffffffffffffffffffffffffffffffffffff16836040516111e19061354e565b60006040518083038185875af1925050503d806000811461121e576040519150601f19603f3d011682016040523d82523d6000602084013e611223565b606091505b5050905080611267576040517f08c379a000000000000000000000000000000000000000000000000000000000815260040161125e906135d5565b60405180910390fd5b505050565b61127533610a76565b6112b4576040517f08c379a00000000000000000000000000000000000000000000000000000000081526004016112ab90613130565b60405180910390fd5b606860009054906101000a900460ff16611303576040517f08c379a00000000000000000000000000000000000000000000000000000000081526004016112fa90613641565b60405180910390fd5b6000606860006101000a81548160ff0219169083151502179055507f5db9ee0a495bf2e6ff9c91a7834c1ba4fdd244a5e8aa4e537bd38aeae4b073aa3360405161134d9190612df1565b60405180910390a1565b6000606860009054906101000a900460ff16156113a9576040517f08c379a00000000000000000000000000000000000000000000000000000000081526004016113a0906136ad565b60405180910390fd5b600073ffffffffffffffffffffffffffffffffffffffff16606a60009054906101000a900473ffffffffffffffffffffffffffffffffffffffff1673ffffffffffffffffffffffffffffffffffffffff160361143a576040517f08c379a00000000000000000000000000000000000000000000000000000000081526004016114319061373f565b60405180910390fd5b6000341161147d576040517f08c379a0000000000000000000000000000000000000000000000000000000008152600401611474906137ab565b60405180910390fd5b606960149054906101000a900460ff161561151e57606960009054906101000a900473ffffffffffffffffffffffffffffffffffffffff1673ffffffffffffffffffffffffffffffffffffffff16639a718924336040518263ffffffff1660e01b81526004016114ed9190612df1565b60006040518083038186803b15801561150557600080fd5b505afa158015611519573d6000803e3d6000fd5b505050505b60006115293461260d565b90506000811161156e576040517f08c379a00000000000000000000000000000000000000000000000000000000081526004016115659061383d565b60405180910390fd5b6000606860019054906101000a900473ffffffffffffffffffffffffffffffffffffffff1673ffffffffffffffffffffffffffffffffffffffff166370a08231306040518263ffffffff1660e01b81526004016115cb9190612df1565b602060405180830381865afa1580156115e8573d6000803e3d6000fd5b505050506040513d601f19601f8201168201806040525081019061160c9190613263565b905081811015611651576040517f08c379a0000000000000000000000000000000000000000000000000000000008152600401611648906138a9565b60405180910390fd5b606a60009054906101000a900473ffffffffffffffffffffffffffffffffffffffff1673ffffffffffffffffffffffffffffffffffffffff166108fc349081150290604051600060405180830381858888f193505050501580156116b9573d6000803e3d6000fd5b506000606860019054906101000a900473ffffffffffffffffffffffffffffffffffffffff1673ffffffffffffffffffffffffffffffffffffffff1663a9059cbb33856040518363ffffffff1660e01b8152600401611719929190613322565b6020604051808303816000875af1158015611738573d6000803e3d6000fd5b505050506040513d601f19601f8201168201806040525081019061175c9190613360565b90508061179e576040517f08c379a00000000000000000000000000000000000000000000000000000000081526004016117959061393b565b60405180910390fd5b3373ffffffffffffffffffffffffffffffffffffffff167f0a37b72bb67eee30e09084cf386f8a17817c57f620c3ab95fb25d6a20356ec7734856040516117e692919061395b565b60405180910390a282935050505090565b606c5481565b606960149054906101000a900460ff1681565b606a60009054906101000a900473ffffffffffffffffffffffffffffffffffffffff1681565b6000606860009054906101000a900460ff16905090565b6000606860009054906101000a900460ff161561189f576040517f08c379a0000000000000000000000000000000000000000000000000000000008152600401611896906136ad565b60405180910390fd5b600034116118e2576040517f08c379a00000000000000000000000000000000000000000000000000000000081526004016118d9906137ab565b60405180910390fd5b606960149054906101000a900460ff161561198357606960009054906101000a900473ffffffffffffffffffffffffffffffffffffffff1673ffffffffffffffffffffffffffffffffffffffff16639a718924336040518263ffffffff1660e01b81526004016119529190612df1565b60006040518083038186803b15801561196a57600080fd5b505afa15801561197e573d6000803e3d6000fd5b505050505b600061198e3461260d565b9050600081116119d3576040517f08c379a00000000000000000000000000000000000000000000000000000000081526004016119ca9061383d565b60405180910390fd5b6000606860019054906101000a900473ffffffffffffffffffffffffffffffffffffffff1673ffffffffffffffffffffffffffffffffffffffff166370a08231306040518263ffffffff1660e01b8152600401611a309190612df1565b602060405180830381865afa158015611a4d573d6000803e3d6000fd5b505050506040513d601f19601f82011682018060405250810190611a719190613263565b905081811015611ab6576040517f08c379a0000000000000000000000000000000000000000000000000000000008152600401611aad906138a9565b60405180910390fd5b6000606860019054906101000a900473ffffffffffffffffffffffffffffffffffffffff1673ffffffffffffffffffffffffffffffffffffffff1663a9059cbb33856040518363ffffffff1660e01b8152600401611b15929190613322565b6020604051808303816000875af1158015611b34573d6000803e3d6000fd5b505050506040513d601f19601f82011682018060405250810190611b589190613360565b905080611b9a576040517f08c379a0000000000000000000000000000000000000000000000000000000008152600401611b919061393b565b60405180910390fd5b3373ffffffffffffffffffffffffffffffffffffffff167f0a37b72bb67eee30e09084cf386f8a17817c57f620c3ab95fb25d6a20356ec773485604051611be292919061395b565b60405180910390a282935050505090565b600060019054906101000a900460ff1680611c125750611c11612747565b5b80611c28575060008054906101000a900460ff16155b611c67576040517f08c379a0000000000000000000000000000000000000000000000000000000008152600401611c5e906139f6565b60405180910390fd5b60008060019054906101000a900460ff161590508015611cb7576001600060016101000a81548160ff02191690831515021790555060016000806101000a81548160ff0219169083151502179055505b611cc0876120ea565b85606860016101000a81548173ffffffffffffffffffffffffffffffffffffffff021916908373ffffffffffffffffffffffffffffffffffffffff16021790555084606960006101000a81548173ffffffffffffffffffffffffffffffffffffffff021916908373ffffffffffffffffffffffffffffffffffffffff16021790555083606960146101000a81548160ff02191690831515021790555082606b8190555081606c819055508015611d8b5760008060016101000a81548160ff0219169083151502179055505b50505050505050565b606860019054906101000a900473ffffffffffffffffffffffffffffffffffffffff1681565b611dc261208b565b611e01576040517f08c379a0000000000000000000000000000000000000000000000000000000008152600401611df89061322e565b60405180910390fd5b611e1581606661275e90919063ffffffff16565b508073ffffffffffffffffffffffffffffffffffffffff167fad6de4452a631e641cb59902236607946ce9272b9b981f2f80e8d129cb9084ba60405160405180910390a250565b611e6461208b565b611ea3576040517f08c379a0000000000000000000000000000000000000000000000000000000008152600401611e9a9061322e565b60405180910390fd5b600073ffffffffffffffffffffffffffffffffffffffff16603360009054906101000a900473ffffffffffffffffffffffffffffffffffffffff1673ffffffffffffffffffffffffffffffffffffffff167f8be0079c531659141344cd1fd0a4f28419497f9722a3daafe3b4186f6b6457e060405160405180910390a36000603360006101000a81548173ffffffffffffffffffffffffffffffffffffffff021916908373ffffffffffffffffffffffffffffffffffffffff160217905550565b611f6d33610a76565b611fac576040517f08c379a0000000000000000000000000000000000000000000000000000000008152600401611fa390613130565b60405180910390fd5b606860009054906101000a900460ff1615611ffc576040517f08c379a0000000000000000000000000000000000000000000000000000000008152600401611ff3906136ad565b60405180910390fd5b6001606860006101000a81548160ff0219169083151502179055507f62e78cea01bee320cd4e420270b5ea74000d11b0c9f74754ebdbfc544b05a258336040516120469190612df1565b60405180910390a1565b600061205c606661278e565b905090565b6000603360009054906101000a900473ffffffffffffffffffffffffffffffffffffffff16905090565b6000603360009054906101000a900473ffffffffffffffffffffffffffffffffffffffff1673ffffffffffffffffffffffffffffffffffffffff166120ce6127a3565b73ffffffffffffffffffffffffffffffffffffffff1614905090565b600060019054906101000a900460ff16806121095750612108612747565b5b8061211f575060008054906101000a900460ff16155b61215e576040517f08c379a0000000000000000000000000000000000000000000000000000000008152600401612155906139f6565b60405180910390fd5b60008060019054906101000a900460ff1615905080156121ae576001600060016101000a81548160ff02191690831515021790555060016000806101000a81548160ff0219169083151502179055505b81603360006101000a81548173ffffffffffffffffffffffffffffffffffffffff021916908373ffffffffffffffffffffffffffffffffffffffff160217905550603360009054906101000a900473ffffffffffffffffffffffffffffffffffffffff1673ffffffffffffffffffffffffffffffffffffffff16600073ffffffffffffffffffffffffffffffffffffffff167f8be0079c531659141344cd1fd0a4f28419497f9722a3daafe3b4186f6b6457e060405160405180910390a3801561228d5760008060016101000a81548160ff0219169083151502179055505b5050565b6000606860019054906101000a900473ffffffffffffffffffffffffffffffffffffffff1673ffffffffffffffffffffffffffffffffffffffff166370a08231836040518263ffffffff1660e01b81526004016122ee9190612df1565b602060405180830381865afa15801561230b573d6000803e3d6000fd5b505050506040513d601f19601f8201168201806040525081019061232f9190613263565b9050919050565b60606000612344606661278e565b905060008167ffffffffffffffff81111561236257612361613a16565b5b6040519080825280602002602001820160405280156123905781602001602082028036833780820191505090505b50905060005b82811015612412576123b28160666127ab90919063ffffffff16565b8282815181106123c5576123c4613a45565b5b602002602001019073ffffffffffffffffffffffffffffffffffffffff16908173ffffffffffffffffffffffffffffffffffffffff1681525050808061240a90613aa3565b915050612396565b50809250505090565b61242433610a76565b612463576040517f08c379a000000000000000000000000000000000000000000000000000000000815260040161245a90613130565b60405180910390fd5b80606a60006101000a81548173ffffffffffffffffffffffffffffffffffffffff021916908373ffffffffffffffffffffffffffffffffffffffff1602179055503373ffffffffffffffffffffffffffffffffffffffff168173ffffffffffffffffffffffffffffffffffffffff167f8595877311e370fe3ac87d4f6d12473603393f02ac660e68d2e5e3da5adb610c60405160405180910390a350565b61250a33610a76565b612549576040517f08c379a000000000000000000000000000000000000000000000000000000000815260040161254090613130565b60405180910390fd5b81606960006101000a81548173ffffffffffffffffffffffffffffffffffffffff021916908373ffffffffffffffffffffffffffffffffffffffff16021790555080606960146101000a81548160ff0219169083151502179055503373ffffffffffffffffffffffffffffffffffffffff168273ffffffffffffffffffffffffffffffffffffffff167f864d5a965313dc4bf4fd85bb02b7efff05cb1681cb2c4a4baf0d7e8520fb356c836040516126019190612d9a565b60405180910390a35050565b6000612638606c5461262a606b54856127c590919063ffffffff16565b61283f90919063ffffffff16565b9050919050565b61264761208b565b612686576040517f08c379a000000000000000000000000000000000000000000000000000000000815260040161267d9061322e565b60405180910390fd5b61268f81612897565b50565b606960009054906101000a900473ffffffffffffffffffffffffffffffffffffffff1681565b606b5481565b60006126e6836000018373ffffffffffffffffffffffffffffffffffffffff1660001b6129c6565b905092915050565b60008061270c670de0b6b3a76400008461283f90919063ffffffff16565b905080915050919050565b600061273f836000018373ffffffffffffffffffffffffffffffffffffffff1660001b612ade565b905092915050565b6000803090506000813b9050600081149250505090565b6000612786836000018373ffffffffffffffffffffffffffffffffffffffff1660001b612b01565b905092915050565b600061279c82600001612b71565b9050919050565b600033905090565b60006127ba8360000183612b82565b60001c905092915050565b60008083036127d75760009050612839565b600082846127e59190613aeb565b90508284826127f49190613b5c565b14612834576040517f08c379a000000000000000000000000000000000000000000000000000000000815260040161282b90613bff565b60405180910390fd5b809150505b92915050565b6000808211612883576040517f08c379a000000000000000000000000000000000000000000000000000000000815260040161287a90613c6b565b60405180910390fd5b818361288f9190613b5c565b905092915050565b600073ffffffffffffffffffffffffffffffffffffffff168173ffffffffffffffffffffffffffffffffffffffff1603612906576040517f08c379a00000000000000000000000000000000000000000000000000000000081526004016128fd90613cfd565b60405180910390fd5b8073ffffffffffffffffffffffffffffffffffffffff16603360009054906101000a900473ffffffffffffffffffffffffffffffffffffffff1673ffffffffffffffffffffffffffffffffffffffff167f8be0079c531659141344cd1fd0a4f28419497f9722a3daafe3b4186f6b6457e060405160405180910390a380603360006101000a81548173ffffffffffffffffffffffffffffffffffffffff021916908373ffffffffffffffffffffffffffffffffffffffff16021790555050565b60008083600101600084815260200190815260200160002054905060008114612ad25760006001826129f89190613d1d565b9050600060018660000180549050612a109190613d1d565b90506000866000018281548110612a2a57612a29613a45565b5b9060005260206000200154905080876000018481548110612a4e57612a4d613a45565b5b9060005260206000200181905550600183612a699190613d51565b8760010160008381526020019081526020016000208190555086600001805480612a9657612a95613d85565b5b60019003818190600052602060002001600090559055866001016000878152602001908152602001600020600090556001945050505050612ad8565b60009150505b92915050565b600080836001016000848152602001908152602001600020541415905092915050565b6000612b0d8383612ade565b612b66578260000182908060018154018082558091505060019003906000526020600020016000909190919091505582600001805490508360010160008481526020019081526020016000208190555060019050612b6b565b600090505b92915050565b600081600001805490509050919050565b600081836000018054905011612bcd576040517f08c379a0000000000000000000000000000000000000000000000000000000008152600401612bc490613e26565b60405180910390fd5b826000018281548110612be357612be2613a45565b5b9060005260206000200154905092915050565b6000819050919050565b612c0981612bf6565b82525050565b6000602082019050612c246000830184612c00565b92915050565b600080fd5b60008115159050919050565b612c4481612c2f565b8114612c4f57600080fd5b50565b600081359050612c6181612c3b565b92915050565b600060208284031215612c7d57612c7c612c2a565b5b6000612c8b84828501612c52565b91505092915050565b612c9d81612bf6565b8114612ca857600080fd5b50565b600081359050612cba81612c94565b92915050565b60008060408385031215612cd757612cd6612c2a565b5b6000612ce585828601612cab565b9250506020612cf685828601612cab565b9150509250929050565b600073ffffffffffffffffffffffffffffffffffffffff82169050919050565b6000612d2b82612d00565b9050919050565b612d3b81612d20565b8114612d4657600080fd5b50565b600081359050612d5881612d32565b92915050565b600060208284031215612d7457612d73612c2a565b5b6000612d8284828501612d49565b91505092915050565b612d9481612c2f565b82525050565b6000602082019050612daf6000830184612d8b565b92915050565b600060208284031215612dcb57612dca612c2a565b5b6000612dd984828501612cab565b91505092915050565b612deb81612d20565b82525050565b6000602082019050612e066000830184612de2565b92915050565b60008060008060008060c08789031215612e2957612e28612c2a565b5b6000612e3789828a01612d49565b9650506020612e4889828a01612d49565b9550506040612e5989828a01612d49565b9450506060612e6a89828a01612c52565b9350506080612e7b89828a01612cab565b92505060a0612e8c89828a01612cab565b9150509295509295509295565b6000819050919050565b6000612ebe612eb9612eb484612d00565b612e99565b612d00565b9050919050565b6000612ed082612ea3565b9050919050565b6000612ee282612ec5565b9050919050565b612ef281612ed7565b82525050565b6000602082019050612f0d6000830184612ee9565b92915050565b600081519050919050565b600082825260208201905092915050565b6000819050602082019050919050565b612f4881612d20565b82525050565b6000612f5a8383612f3f565b60208301905092915050565b6000602082019050919050565b6000612f7e82612f13565b612f888185612f1e565b9350612f9383612f2f565b8060005b83811015612fc4578151612fab8882612f4e565b9750612fb683612f66565b925050600181019050612f97565b5085935050505092915050565b60006020820190508181036000830152612feb8184612f73565b905092915050565b6000612ffe82612d20565b9050919050565b61300e81612ff3565b811461301957600080fd5b50565b60008135905061302b81613005565b92915050565b6000806040838503121561304857613047612c2a565b5b60006130568582860161301c565b925050602061306785828601612c52565b9150509250929050565b600061307c82612ec5565b9050919050565b61308c81613071565b82525050565b60006020820190506130a76000830184613083565b92915050565b600082825260208201905092915050565b7f41646d696e69737472617465643a204d73672073656e646572206973206e6f7460008201527f2061646d696e0000000000000000000000000000000000000000000000000000602082015250565b600061311a6026836130ad565b9150613125826130be565b604082019050919050565b600060208201905081810360008301526131498161310d565b9050919050565b7f57686974656c6973746564546f6b656e53616c653a207261746573206d75737460008201527f206265203e203000000000000000000000000000000000000000000000000000602082015250565b60006131ac6027836130ad565b91506131b782613150565b604082019050919050565b600060208201905081810360008301526131db8161319f565b9050919050565b7f4f776e61626c653a2063616c6c6572206973206e6f7420746865206f776e6572600082015250565b60006132186020836130ad565b9150613223826131e2565b602082019050919050565b600060208201905081810360008301526132478161320b565b9050919050565b60008151905061325d81612c94565b92915050565b60006020828403121561327957613278612c2a565b5b60006132878482850161324e565b91505092915050565b7f4e6f20636f6e74726163742062616c616e6365206f66206f757220746f6b656e60008201527f20746f2077697468647261770000000000000000000000000000000000000000602082015250565b60006132ec602c836130ad565b91506132f782613290565b604082019050919050565b6000602082019050818103600083015261331b816132df565b9050919050565b60006040820190506133376000830185612de2565b6133446020830184612c00565b9392505050565b60008151905061335a81612c3b565b92915050565b60006020828403121561337657613375612c2a565b5b60006133848482850161334b565b91505092915050565b7f4661696c656420746f2073656e6420636f6e747261637420746f6b656e73207460008201527f6f2061646d696e00000000000000000000000000000000000000000000000000602082015250565b60006133e96027836130ad565b91506133f48261338d565b604082019050919050565b60006020820190508181036000830152613418816133dc565b9050919050565b7f436f6e747261637420646f6573206e6f7420686f6c6420616d6f756e7420726560008201527f7175657374656400000000000000000000000000000000000000000000000000602082015250565b600061347b6027836130ad565b91506134868261341f565b604082019050919050565b600060208201905081810360008301526134aa8161346e565b9050919050565b7f4e6f20636f6e74726163742062616c616e636520746f20776974686472617700600082015250565b60006134e7601f836130ad565b91506134f2826134b1565b602082019050919050565b60006020820190508181036000830152613516816134da565b9050919050565b600081905092915050565b50565b600061353860008361351d565b915061354382613528565b600082019050919050565b60006135598261352b565b9150819050919050565b7f4661696c656420746f2073656e6420636f6e74726163742062616c616e63652060008201527f6261636b20746f20746865206f776e6572000000000000000000000000000000602082015250565b60006135bf6031836130ad565b91506135ca82613563565b604082019050919050565b600060208201905081810360008301526135ee816135b2565b9050919050565b7f5061757361626c653a206e6f7420706175736564000000000000000000000000600082015250565b600061362b6014836130ad565b9150613636826135f5565b602082019050919050565b6000602082019050818103600083015261365a8161361e565b9050919050565b7f5061757361626c653a2070617573656400000000000000000000000000000000600082015250565b60006136976010836130ad565b91506136a282613661565b602082019050919050565b600060208201905081810360008301526136c68161368a565b9050919050565b7f57686974656c6973746564546f6b656e53616c653a2077616c6c65742069732060008201527f6e756c6c00000000000000000000000000000000000000000000000000000000602082015250565b60006137296024836130ad565b9150613734826136cd565b604082019050919050565b600060208201905081810360008301526137588161371c565b9050919050565b7f53656e642045544820746f2062757920736f6d6520746f6b656e730000000000600082015250565b6000613795601b836130ad565b91506137a08261375f565b602082019050919050565b600060208201905081810360008301526137c481613788565b9050919050565b7f57686974656c6973746564546f6b656e53616c653a20616d6f756e74546f427560008201527f79206d757374206265203e203000000000000000000000000000000000000000602082015250565b6000613827602d836130ad565b9150613832826137cb565b604082019050919050565b600060208201905081810360008301526138568161381a565b9050919050565b7f4f757220746f6b656e2062616c616e636520746f6f206c6f7700000000000000600082015250565b60006138936019836130ad565b915061389e8261385d565b602082019050919050565b600060208201905081810360008301526138c281613886565b9050919050565b7f4661696c656420746f207472616e7366657220746f6b656e7320746f2063757360008201527f746f6d6572000000000000000000000000000000000000000000000000000000602082015250565b60006139256025836130ad565b9150613930826138c9565b604082019050919050565b6000602082019050818103600083015261395481613918565b9050919050565b60006040820190506139706000830185612c00565b61397d6020830184612c00565b9392505050565b7f436f6e747261637420696e7374616e63652068617320616c726561647920626560008201527f656e20696e697469616c697a6564000000000000000000000000000000000000602082015250565b60006139e0602e836130ad565b91506139eb82613984565b604082019050919050565b60006020820190508181036000830152613a0f816139d3565b9050919050565b7f4e487b7100000000000000000000000000000000000000000000000000000000600052604160045260246000fd5b7f4e487b7100000000000000000000000000000000000000000000000000000000600052603260045260246000fd5b7f4e487b7100000000000000000000000000000000000000000000000000000000600052601160045260246000fd5b6000613aae82612bf6565b91507fffffffffffffffffffffffffffffffffffffffffffffffffffffffffffffffff8203613ae057613adf613a74565b5b600182019050919050565b6000613af682612bf6565b9150613b0183612bf6565b9250828202613b0f81612bf6565b91508282048414831517613b2657613b25613a74565b5b5092915050565b7f4e487b7100000000000000000000000000000000000000000000000000000000600052601260045260246000fd5b6000613b6782612bf6565b9150613b7283612bf6565b925082613b8257613b81613b2d565b5b828204905092915050565b7f536166654d6174683a206d756c7469706c69636174696f6e206f766572666c6f60008201527f7700000000000000000000000000000000000000000000000000000000000000602082015250565b6000613be96021836130ad565b9150613bf482613b8d565b604082019050919050565b60006020820190508181036000830152613c1881613bdc565b9050919050565b7f536166654d6174683a206469766973696f6e206279207a65726f000000000000600082015250565b6000613c55601a836130ad565b9150613c6082613c1f565b602082019050919050565b60006020820190508181036000830152613c8481613c48565b9050919050565b7f4f776e61626c653a206e6577206f776e657220697320746865207a65726f206160008201527f6464726573730000000000000000000000000000000000000000000000000000602082015250565b6000613ce76026836130ad565b9150613cf282613c8b565b604082019050919050565b60006020820190508181036000830152613d1681613cda565b9050919050565b6000613d2882612bf6565b9150613d3383612bf6565b9250828203905081811115613d4b57613d4a613a74565b5b92915050565b6000613d5c82612bf6565b9150613d6783612bf6565b9250828201905080821115613d7f57613d7e613a74565b5b92915050565b7f4e487b7100000000000000000000000000000000000000000000000000000000600052603160045260246000fd5b7f456e756d657261626c655365743a20696e646578206f7574206f6620626f756e60008201527f6473000000000000000000000000000000000000000000000000000000000000602082015250565b6000613e106022836130ad565b9150613e1b82613db4565b604082019050919050565b60006020820190508181036000830152613e3f81613e03565b905091905056fea264697066735822122087d607eb599bc6e0752bc6923041c2f060f2739b5a558b46f80482a42c4324d964736f6c63430008120033",
			"opcodes": "PUSH1 0x80 PUSH1 0x40 MSTORE PUSH1 0x14 PUSH1 0x6B SSTORE PUSH1 0x1 PUSH1 0x6C SSTORE CALLVALUE DUP1 ISZERO PUSH2 0x1A JUMPI PUSH1 0x0 DUP1 REVERT JUMPDEST POP PUSH1 0x0 PUSH1 0x68 PUSH1 0x0 PUSH2 0x100 EXP DUP2 SLOAD DUP2 PUSH1 0xFF MUL NOT AND SWAP1 DUP4 ISZERO ISZERO MUL OR SWAP1 SSTORE POP PUSH2 0x3E7C DUP1 PUSH2 0x45 PUSH1 0x0 CODECOPY PUSH1 0x0 RETURN INVALID PUSH1 0x80 PUSH1 0x40 MSTORE PUSH1 0x4 CALLDATASIZE LT PUSH2 0x213 JUMPI PUSH1 0x0 CALLDATALOAD PUSH1 0xE0 SHR DUP1 PUSH4 0x68F73391 GT PUSH2 0x118 JUMPI DUP1 PUSH4 0xC4D66DE8 GT PUSH2 0xA0 JUMPI DUP1 PUSH4 0xDFC5D872 GT PUSH2 0x6F JUMPI DUP1 PUSH4 0xDFC5D872 EQ PUSH2 0x781 JUMPI DUP1 PUSH4 0xE64D3979 EQ PUSH2 0x7AA JUMPI DUP1 PUSH4 0xF2FDE38B EQ PUSH2 0x7E7 JUMPI DUP1 PUSH4 0xF3CA7B41 EQ PUSH2 0x810 JUMPI DUP1 PUSH4 0xF7F204CB EQ PUSH2 0x83B JUMPI PUSH2 0x268 JUMP JUMPDEST DUP1 PUSH4 0xC4D66DE8 EQ PUSH2 0x6C7 JUMPI DUP1 PUSH4 0xC68C4CC5 EQ PUSH2 0x6F0 JUMPI DUP1 PUSH4 0xD9F774FC EQ PUSH2 0x72D JUMPI DUP1 PUSH4 0xDEAA59DF EQ PUSH2 0x758 JUMPI PUSH2 0x268 JUMP JUMPDEST DUP1 PUSH4 0x715018A6 GT PUSH2 0xE7 JUMPI DUP1 PUSH4 0x715018A6 EQ PUSH2 0x618 JUMPI DUP1 PUSH4 0x8456CB59 EQ PUSH2 0x62F JUMPI DUP1 PUSH4 0x8B7BF3EB EQ PUSH2 0x646 JUMPI DUP1 PUSH4 0x8DA5CB5B EQ PUSH2 0x671 JUMPI DUP1 PUSH4 0x8F32D59B EQ PUSH2 0x69C JUMPI PUSH2 0x268 JUMP JUMPDEST DUP1 PUSH4 0x68F73391 EQ PUSH2 0x57D JUMPI DUP1 PUSH4 0x6B10E7E4 EQ PUSH2 0x59B JUMPI DUP1 PUSH4 0x6CD07154 EQ PUSH2 0x5C4 JUMPI DUP1 PUSH4 0x70480275 EQ PUSH2 0x5EF JUMPI PUSH2 0x268 JUMP JUMPDEST DUP1 PUSH4 0x317D9453 GT PUSH2 0x19B JUMPI DUP1 PUSH4 0x492DA13B GT PUSH2 0x16A JUMPI DUP1 PUSH4 0x492DA13B EQ PUSH2 0x4B3 JUMPI DUP1 PUSH4 0x4D7DF08D EQ PUSH2 0x4D1 JUMPI DUP1 PUSH4 0x51FB012D EQ PUSH2 0x4FC JUMPI DUP1 PUSH4 0x521EB273 EQ PUSH2 0x527 JUMPI DUP1 PUSH4 0x5C975ABB EQ PUSH2 0x552 JUMPI PUSH2 0x268 JUMP JUMPDEST DUP1 PUSH4 0x317D9453 EQ PUSH2 0x431 JUMPI DUP1 PUSH4 0x31C91117 EQ PUSH2 0x45C JUMPI DUP1 PUSH4 0x3BED33CE EQ PUSH2 0x473 JUMPI DUP1 PUSH4 0x3F4BA83A EQ PUSH2 0x49C JUMPI PUSH2 0x268 JUMP JUMPDEST DUP1 PUSH4 0x224A271F GT PUSH2 0x1E2 JUMPI DUP1 PUSH4 0x224A271F EQ PUSH2 0x35E JUMPI DUP1 PUSH4 0x24D7806C EQ PUSH2 0x389 JUMPI DUP1 PUSH4 0x280DA6FA EQ PUSH2 0x3C6 JUMPI DUP1 PUSH4 0x30E76DAE EQ PUSH2 0x3DD JUMPI DUP1 PUSH4 0x315A095D EQ PUSH2 0x408 JUMPI PUSH2 0x268 JUMP JUMPDEST DUP1 PUSH4 0x52D9E7E EQ PUSH2 0x2B8 JUMPI DUP1 PUSH4 0xE949E5C EQ PUSH2 0x2E1 JUMPI DUP1 PUSH4 0x1785F53C EQ PUSH2 0x30A JUMPI DUP1 PUSH4 0x1F33B2F9 EQ PUSH2 0x333 JUMPI PUSH2 0x268 JUMP JUMPDEST CALLDATASIZE PUSH2 0x268 JUMPI CALLER PUSH20 0xFFFFFFFFFFFFFFFFFFFFFFFFFFFFFFFFFFFFFFFF AND PUSH32 0x89C97B8FDDA0BC916BF8986E40EBB0C827BBEF4B17F09586CE69A696815727DE CALLVALUE PUSH1 0x40 MLOAD PUSH2 0x25E SWAP2 SWAP1 PUSH2 0x2C0F JUMP JUMPDEST PUSH1 0x40 MLOAD DUP1 SWAP2 SUB SWAP1 LOG2 STOP JUMPDEST CALLER PUSH20 0xFFFFFFFFFFFFFFFFFFFFFFFFFFFFFFFFFFFFFFFF AND PUSH32 0x1D01CF726C71F8D8FE63939223B6F641789776DAC1DFDC9ABBB06E60917845A3 CALLVALUE PUSH1 0x40 MLOAD PUSH2 0x2AE SWAP2 SWAP1 PUSH2 0x2C0F JUMP JUMPDEST PUSH1 0x40 MLOAD DUP1 SWAP2 SUB SWAP1 LOG2 STOP JUMPDEST CALLVALUE DUP1 ISZERO PUSH2 0x2C4 JUMPI PUSH1 0x0 DUP1 REVERT JUMPDEST POP PUSH2 0x2DF PUSH1 0x4 DUP1 CALLDATASIZE SUB DUP2 ADD SWAP1 PUSH2 0x2DA SWAP2 SWAP1 PUSH2 0x2C67 JUMP JUMPDEST PUSH2 0x866 JUMP JUMPDEST STOP JUMPDEST CALLVALUE DUP1 ISZERO PUSH2 0x2ED JUMPI PUSH1 0x0 DUP1 REVERT JUMPDEST POP PUSH2 0x308 PUSH1 0x4 DUP1 CALLDATASIZE SUB DUP2 ADD SWAP1 PUSH2 0x303 SWAP2 SWAP1 PUSH2 0x2CC0 JUMP JUMPDEST PUSH2 0x8CB JUMP JUMPDEST STOP JUMPDEST CALLVALUE DUP1 ISZERO PUSH2 0x316 JUMPI PUSH1 0x0 DUP1 REVERT JUMPDEST POP PUSH2 0x331 PUSH1 0x4 DUP1 CALLDATASIZE SUB DUP2 ADD SWAP1 PUSH2 0x32C SWAP2 SWAP1 PUSH2 0x2D5E JUMP JUMPDEST PUSH2 0x974 JUMP JUMPDEST STOP JUMPDEST CALLVALUE DUP1 ISZERO PUSH2 0x33F JUMPI PUSH1 0x0 DUP1 REVERT JUMPDEST POP PUSH2 0x348 PUSH2 0xA16 JUMP JUMPDEST PUSH1 0x40 MLOAD PUSH2 0x355 SWAP2 SWAP1 PUSH2 0x2C0F JUMP JUMPDEST PUSH1 0x40 MLOAD DUP1 SWAP2 SUB SWAP1 RETURN JUMPDEST CALLVALUE DUP1 ISZERO PUSH2 0x36A JUMPI PUSH1 0x0 DUP1 REVERT JUMPDEST POP PUSH2 0x373 PUSH2 0xA46 JUMP JUMPDEST PUSH1 0x40 MLOAD PUSH2 0x380 SWAP2 SWAP1 PUSH2 0x2C0F JUMP JUMPDEST PUSH1 0x40 MLOAD DUP1 SWAP2 SUB SWAP1 RETURN JUMPDEST CALLVALUE DUP1 ISZERO PUSH2 0x395 JUMPI PUSH1 0x0 DUP1 REVERT JUMPDEST POP PUSH2 0x3B0 PUSH1 0x4 DUP1 CALLDATASIZE SUB DUP2 ADD SWAP1 PUSH2 0x3AB SWAP2 SWAP1 PUSH2 0x2D5E JUMP JUMPDEST PUSH2 0xA76 JUMP JUMPDEST PUSH1 0x40 MLOAD PUSH2 0x3BD SWAP2 SWAP1 PUSH2 0x2D9A JUMP JUMPDEST PUSH1 0x40 MLOAD DUP1 SWAP2 SUB SWAP1 RETURN JUMPDEST CALLVALUE DUP1 ISZERO PUSH2 0x3D2 JUMPI PUSH1 0x0 DUP1 REVERT JUMPDEST POP PUSH2 0x3DB PUSH2 0xA93 JUMP JUMPDEST STOP JUMPDEST CALLVALUE DUP1 ISZERO PUSH2 0x3E9 JUMPI PUSH1 0x0 DUP1 REVERT JUMPDEST POP PUSH2 0x3F2 PUSH2 0xCA6 JUMP JUMPDEST PUSH1 0x40 MLOAD PUSH2 0x3FF SWAP2 SWAP1 PUSH2 0x2C0F JUMP JUMPDEST PUSH1 0x40 MLOAD DUP1 SWAP2 SUB SWAP1 RETURN JUMPDEST CALLVALUE DUP1 ISZERO PUSH2 0x414 JUMPI PUSH1 0x0 DUP1 REVERT JUMPDEST POP PUSH2 0x42F PUSH1 0x4 DUP1 CALLDATASIZE SUB DUP2 ADD SWAP1 PUSH2 0x42A SWAP2 SWAP1 PUSH2 0x2DB5 JUMP JUMPDEST PUSH2 0xCAE JUMP JUMPDEST STOP JUMPDEST CALLVALUE DUP1 ISZERO PUSH2 0x43D JUMPI PUSH1 0x0 DUP1 REVERT JUMPDEST POP PUSH2 0x446 PUSH2 0xF05 JUMP JUMPDEST PUSH1 0x40 MLOAD PUSH2 0x453 SWAP2 SWAP1 PUSH2 0x2C0F JUMP JUMPDEST PUSH1 0x40 MLOAD DUP1 SWAP2 SUB SWAP1 RETURN JUMPDEST CALLVALUE DUP1 ISZERO PUSH2 0x468 JUMPI PUSH1 0x0 DUP1 REVERT JUMPDEST POP PUSH2 0x471 PUSH2 0xFA8 JUMP JUMPDEST STOP JUMPDEST CALLVALUE DUP1 ISZERO PUSH2 0x47F JUMPI PUSH1 0x0 DUP1 REVERT JUMPDEST POP PUSH2 0x49A PUSH1 0x4 DUP1 CALLDATASIZE SUB DUP2 ADD SWAP1 PUSH2 0x495 SWAP2 SWAP1 PUSH2 0x2DB5 JUMP JUMPDEST PUSH2 0x10E8 JUMP JUMPDEST STOP JUMPDEST CALLVALUE DUP1 ISZERO PUSH2 0x4A8 JUMPI PUSH1 0x0 DUP1 REVERT JUMPDEST POP PUSH2 0x4B1 PUSH2 0x126C JUMP JUMPDEST STOP JUMPDEST PUSH2 0x4BB PUSH2 0x1357 JUMP JUMPDEST PUSH1 0x40 MLOAD PUSH2 0x4C8 SWAP2 SWAP1 PUSH2 0x2C0F JUMP JUMPDEST PUSH1 0x40 MLOAD DUP1 SWAP2 SUB SWAP1 RETURN JUMPDEST CALLVALUE DUP1 ISZERO PUSH2 0x4DD JUMPI PUSH1 0x0 DUP1 REVERT JUMPDEST POP PUSH2 0x4E6 PUSH2 0x17F7 JUMP JUMPDEST PUSH1 0x40 MLOAD PUSH2 0x4F3 SWAP2 SWAP1 PUSH2 0x2C0F JUMP JUMPDEST PUSH1 0x40 MLOAD DUP1 SWAP2 SUB SWAP1 RETURN JUMPDEST CALLVALUE DUP1 ISZERO PUSH2 0x508 JUMPI PUSH1 0x0 DUP1 REVERT JUMPDEST POP PUSH2 0x511 PUSH2 0x17FD JUMP JUMPDEST PUSH1 0x40 MLOAD PUSH2 0x51E SWAP2 SWAP1 PUSH2 0x2D9A JUMP JUMPDEST PUSH1 0x40 MLOAD DUP1 SWAP2 SUB SWAP1 RETURN JUMPDEST CALLVALUE DUP1 ISZERO PUSH2 0x533 JUMPI PUSH1 0x0 DUP1 REVERT JUMPDEST POP PUSH2 0x53C PUSH2 0x1810 JUMP JUMPDEST PUSH1 0x40 MLOAD PUSH2 0x549 SWAP2 SWAP1 PUSH2 0x2DF1 JUMP JUMPDEST PUSH1 0x40 MLOAD DUP1 SWAP2 SUB SWAP1 RETURN JUMPDEST CALLVALUE DUP1 ISZERO PUSH2 0x55E JUMPI PUSH1 0x0 DUP1 REVERT JUMPDEST POP PUSH2 0x567 PUSH2 0x1836 JUMP JUMPDEST PUSH1 0x40 MLOAD PUSH2 0x574 SWAP2 SWAP1 PUSH2 0x2D9A JUMP JUMPDEST PUSH1 0x40 MLOAD DUP1 SWAP2 SUB SWAP1 RETURN JUMPDEST PUSH2 0x585 PUSH2 0x184D JUMP JUMPDEST PUSH1 0x40 MLOAD PUSH2 0x592 SWAP2 SWAP1 PUSH2 0x2C0F JUMP JUMPDEST PUSH1 0x40 MLOAD DUP1 SWAP2 SUB SWAP1 RETURN JUMPDEST CALLVALUE DUP1 ISZERO PUSH2 0x5A7 JUMPI PUSH1 0x0 DUP1 REVERT JUMPDEST POP PUSH2 0x5C2 PUSH1 0x4 DUP1 CALLDATASIZE SUB DUP2 ADD SWAP1 PUSH2 0x5BD SWAP2 SWAP1 PUSH2 0x2E0C JUMP JUMPDEST PUSH2 0x1BF3 JUMP JUMPDEST STOP JUMPDEST CALLVALUE DUP1 ISZERO PUSH2 0x5D0 JUMPI PUSH1 0x0 DUP1 REVERT JUMPDEST POP PUSH2 0x5D9 PUSH2 0x1D94 JUMP JUMPDEST PUSH1 0x40 MLOAD PUSH2 0x5E6 SWAP2 SWAP1 PUSH2 0x2EF8 JUMP JUMPDEST PUSH1 0x40 MLOAD DUP1 SWAP2 SUB SWAP1 RETURN JUMPDEST CALLVALUE DUP1 ISZERO PUSH2 0x5FB JUMPI PUSH1 0x0 DUP1 REVERT JUMPDEST POP PUSH2 0x616 PUSH1 0x4 DUP1 CALLDATASIZE SUB DUP2 ADD SWAP1 PUSH2 0x611 SWAP2 SWAP1 PUSH2 0x2D5E JUMP JUMPDEST PUSH2 0x1DBA JUMP JUMPDEST STOP JUMPDEST CALLVALUE DUP1 ISZERO PUSH2 0x624 JUMPI PUSH1 0x0 DUP1 REVERT JUMPDEST POP PUSH2 0x62D PUSH2 0x1E5C JUMP JUMPDEST STOP JUMPDEST CALLVALUE DUP1 ISZERO PUSH2 0x63B JUMPI PUSH1 0x0 DUP1 REVERT JUMPDEST POP PUSH2 0x644 PUSH2 0x1F64 JUMP JUMPDEST STOP JUMPDEST CALLVALUE DUP1 ISZERO PUSH2 0x652 JUMPI PUSH1 0x0 DUP1 REVERT JUMPDEST POP PUSH2 0x65B PUSH2 0x2050 JUMP JUMPDEST PUSH1 0x40 MLOAD PUSH2 0x668 SWAP2 SWAP1 PUSH2 0x2C0F JUMP JUMPDEST PUSH1 0x40 MLOAD DUP1 SWAP2 SUB SWAP1 RETURN JUMPDEST CALLVALUE DUP1 ISZERO PUSH2 0x67D JUMPI PUSH1 0x0 DUP1 REVERT JUMPDEST POP PUSH2 0x686 PUSH2 0x2061 JUMP JUMPDEST PUSH1 0x40 MLOAD PUSH2 0x693 SWAP2 SWAP1 PUSH2 0x2DF1 JUMP JUMPDEST PUSH1 0x40 MLOAD DUP1 SWAP2 SUB SWAP1 RETURN JUMPDEST CALLVALUE DUP1 ISZERO PUSH2 0x6A8 JUMPI PUSH1 0x0 DUP1 REVERT JUMPDEST POP PUSH2 0x6B1 PUSH2 0x208B JUMP JUMPDEST PUSH1 0x40 MLOAD PUSH2 0x6BE SWAP2 SWAP1 PUSH2 0x2D9A JUMP JUMPDEST PUSH1 0x40 MLOAD DUP1 SWAP2 SUB SWAP1 RETURN JUMPDEST CALLVALUE DUP1 ISZERO PUSH2 0x6D3 JUMPI PUSH1 0x0 DUP1 REVERT JUMPDEST POP PUSH2 0x6EE PUSH1 0x4 DUP1 CALLDATASIZE SUB DUP2 ADD SWAP1 PUSH2 0x6E9 SWAP2 SWAP1 PUSH2 0x2D5E JUMP JUMPDEST PUSH2 0x20EA JUMP JUMPDEST STOP JUMPDEST CALLVALUE DUP1 ISZERO PUSH2 0x6FC JUMPI PUSH1 0x0 DUP1 REVERT JUMPDEST POP PUSH2 0x717 PUSH1 0x4 DUP1 CALLDATASIZE SUB DUP2 ADD SWAP1 PUSH2 0x712 SWAP2 SWAP1 PUSH2 0x2D5E JUMP JUMPDEST PUSH2 0x2291 JUMP JUMPDEST PUSH1 0x40 MLOAD PUSH2 0x724 SWAP2 SWAP1 PUSH2 0x2C0F JUMP JUMPDEST PUSH1 0x40 MLOAD DUP1 SWAP2 SUB SWAP1 RETURN JUMPDEST CALLVALUE DUP1 ISZERO PUSH2 0x739 JUMPI PUSH1 0x0 DUP1 REVERT JUMPDEST POP PUSH2 0x742 PUSH2 0x2336 JUMP JUMPDEST PUSH1 0x40 MLOAD PUSH2 0x74F SWAP2 SWAP1 PUSH2 0x2FD1 JUMP JUMPDEST PUSH1 0x40 MLOAD DUP1 SWAP2 SUB SWAP1 RETURN JUMPDEST CALLVALUE DUP1 ISZERO PUSH2 0x764 JUMPI PUSH1 0x0 DUP1 REVERT JUMPDEST POP PUSH2 0x77F PUSH1 0x4 DUP1 CALLDATASIZE SUB DUP2 ADD SWAP1 PUSH2 0x77A SWAP2 SWAP1 PUSH2 0x2D5E JUMP JUMPDEST PUSH2 0x241B JUMP JUMPDEST STOP JUMPDEST CALLVALUE DUP1 ISZERO PUSH2 0x78D JUMPI PUSH1 0x0 DUP1 REVERT JUMPDEST POP PUSH2 0x7A8 PUSH1 0x4 DUP1 CALLDATASIZE SUB DUP2 ADD SWAP1 PUSH2 0x7A3 SWAP2 SWAP1 PUSH2 0x3031 JUMP JUMPDEST PUSH2 0x2501 JUMP JUMPDEST STOP JUMPDEST CALLVALUE DUP1 ISZERO PUSH2 0x7B6 JUMPI PUSH1 0x0 DUP1 REVERT JUMPDEST POP PUSH2 0x7D1 PUSH1 0x4 DUP1 CALLDATASIZE SUB DUP2 ADD SWAP1 PUSH2 0x7CC SWAP2 SWAP1 PUSH2 0x2DB5 JUMP JUMPDEST PUSH2 0x260D JUMP JUMPDEST PUSH1 0x40 MLOAD PUSH2 0x7DE SWAP2 SWAP1 PUSH2 0x2C0F JUMP JUMPDEST PUSH1 0x40 MLOAD DUP1 SWAP2 SUB SWAP1 RETURN JUMPDEST CALLVALUE DUP1 ISZERO PUSH2 0x7F3 JUMPI PUSH1 0x0 DUP1 REVERT JUMPDEST POP PUSH2 0x80E PUSH1 0x4 DUP1 CALLDATASIZE SUB DUP2 ADD SWAP1 PUSH2 0x809 SWAP2 SWAP1 PUSH2 0x2D5E JUMP JUMPDEST PUSH2 0x263F JUMP JUMPDEST STOP JUMPDEST CALLVALUE DUP1 ISZERO PUSH2 0x81C JUMPI PUSH1 0x0 DUP1 REVERT JUMPDEST POP PUSH2 0x825 PUSH2 0x2692 JUMP JUMPDEST PUSH1 0x40 MLOAD PUSH2 0x832 SWAP2 SWAP1 PUSH2 0x3092 JUMP JUMPDEST PUSH1 0x40 MLOAD DUP1 SWAP2 SUB SWAP1 RETURN JUMPDEST CALLVALUE DUP1 ISZERO PUSH2 0x847 JUMPI PUSH1 0x0 DUP1 REVERT JUMPDEST POP PUSH2 0x850 PUSH2 0x26B8 JUMP JUMPDEST PUSH1 0x40 MLOAD PUSH2 0x85D SWAP2 SWAP1 PUSH2 0x2C0F JUMP JUMPDEST PUSH1 0x40 MLOAD DUP1 SWAP2 SUB SWAP1 RETURN JUMPDEST PUSH2 0x86F CALLER PUSH2 0xA76 JUMP JUMPDEST PUSH2 0x8AE JUMPI PUSH1 0x40 MLOAD PUSH32 0x8C379A000000000000000000000000000000000000000000000000000000000 DUP2 MSTORE PUSH1 0x4 ADD PUSH2 0x8A5 SWAP1 PUSH2 0x3130 JUMP JUMPDEST PUSH1 0x40 MLOAD DUP1 SWAP2 SUB SWAP1 REVERT JUMPDEST DUP1 PUSH1 0x69 PUSH1 0x14 PUSH2 0x100 EXP DUP2 SLOAD DUP2 PUSH1 0xFF MUL NOT AND SWAP1 DUP4 ISZERO ISZERO MUL OR SWAP1 SSTORE POP POP JUMP JUMPDEST PUSH2 0x8D4 CALLER PUSH2 0xA76 JUMP JUMPDEST PUSH2 0x913 JUMPI PUSH1 0x40 MLOAD PUSH32 0x8C379A000000000000000000000000000000000000000000000000000000000 DUP2 MSTORE PUSH1 0x4 ADD PUSH2 0x90A SWAP1 PUSH2 0x3130 JUMP JUMPDEST PUSH1 0x40 MLOAD DUP1 SWAP2 SUB SWAP1 REVERT JUMPDEST PUSH1 0x0 DUP3 GT DUP1 ISZERO PUSH2 0x923 JUMPI POP PUSH1 0x0 DUP2 GT JUMPDEST PUSH2 0x962 JUMPI PUSH1 0x40 MLOAD PUSH32 0x8C379A000000000000000000000000000000000000000000000000000000000 DUP2 MSTORE PUSH1 0x4 ADD PUSH2 0x959 SWAP1 PUSH2 0x31C2 JUMP JUMPDEST PUSH1 0x40 MLOAD DUP1 SWAP2 SUB SWAP1 REVERT JUMPDEST DUP2 PUSH1 0x6B DUP2 SWAP1 SSTORE POP DUP1 PUSH1 0x6C DUP2 SWAP1 SSTORE POP POP POP JUMP JUMPDEST PUSH2 0x97C PUSH2 0x208B JUMP JUMPDEST PUSH2 0x9BB JUMPI PUSH1 0x40 MLOAD PUSH32 0x8C379A000000000000000000000000000000000000000000000000000000000 DUP2 MSTORE PUSH1 0x4 ADD PUSH2 0x9B2 SWAP1 PUSH2 0x322E JUMP JUMPDEST PUSH1 0x40 MLOAD DUP1 SWAP2 SUB SWAP1 REVERT JUMPDEST PUSH2 0x9CF DUP2 PUSH1 0x66 PUSH2 0x26BE SWAP1 SWAP2 SWAP1 PUSH4 0xFFFFFFFF AND JUMP JUMPDEST POP DUP1 PUSH20 0xFFFFFFFFFFFFFFFFFFFFFFFFFFFFFFFFFFFFFFFF AND PUSH32 0x753F40CA3312B2408759A67875B367955E7BAA221DAF08AA3D643D96202AC12B PUSH1 0x40 MLOAD PUSH1 0x40 MLOAD DUP1 SWAP2 SUB SWAP1 LOG2 POP JUMP JUMPDEST PUSH1 0x0 DUP1 PUSH2 0xA21 PUSH2 0xCA6 JUMP JUMPDEST SWAP1 POP PUSH1 0x0 DUP2 GT ISZERO PUSH2 0xA3D JUMPI PUSH2 0xA35 DUP2 PUSH2 0x26EE JUMP JUMPDEST SWAP2 POP POP PUSH2 0xA43 JUMP JUMPDEST PUSH1 0x0 SWAP2 POP POP JUMPDEST SWAP1 JUMP JUMPDEST PUSH1 0x0 DUP1 PUSH2 0xA51 PUSH2 0xF05 JUMP JUMPDEST SWAP1 POP PUSH1 0x0 DUP2 GT ISZERO PUSH2 0xA6D JUMPI PUSH2 0xA65 DUP2 PUSH2 0x26EE JUMP JUMPDEST SWAP2 POP POP PUSH2 0xA73 JUMP JUMPDEST PUSH1 0x0 SWAP2 POP POP JUMPDEST SWAP1 JUMP JUMPDEST PUSH1 0x0 PUSH2 0xA8C DUP3 PUSH1 0x66 PUSH2 0x2717 SWAP1 SWAP2 SWAP1 PUSH4 0xFFFFFFFF AND JUMP JUMPDEST SWAP1 POP SWAP2 SWAP1 POP JUMP JUMPDEST PUSH2 0xA9C CALLER PUSH2 0xA76 JUMP JUMPDEST PUSH2 0xADB JUMPI PUSH1 0x40 MLOAD PUSH32 0x8C379A000000000000000000000000000000000000000000000000000000000 DUP2 MSTORE PUSH1 0x4 ADD PUSH2 0xAD2 SWAP1 PUSH2 0x3130 JUMP JUMPDEST PUSH1 0x40 MLOAD DUP1 SWAP2 SUB SWAP1 REVERT JUMPDEST PUSH1 0x0 PUSH1 0x68 PUSH1 0x1 SWAP1 SLOAD SWAP1 PUSH2 0x100 EXP SWAP1 DIV PUSH20 0xFFFFFFFFFFFFFFFFFFFFFFFFFFFFFFFFFFFFFFFF AND PUSH20 0xFFFFFFFFFFFFFFFFFFFFFFFFFFFFFFFFFFFFFFFF AND PUSH4 0x70A08231 ADDRESS PUSH1 0x40 MLOAD DUP3 PUSH4 0xFFFFFFFF AND PUSH1 0xE0 SHL DUP2 MSTORE PUSH1 0x4 ADD PUSH2 0xB38 SWAP2 SWAP1 PUSH2 0x2DF1 JUMP JUMPDEST PUSH1 0x20 PUSH1 0x40 MLOAD DUP1 DUP4 SUB DUP2 DUP7 GAS STATICCALL ISZERO DUP1 ISZERO PUSH2 0xB55 JUMPI RETURNDATASIZE PUSH1 0x0 DUP1 RETURNDATACOPY RETURNDATASIZE PUSH1 0x0 REVERT JUMPDEST POP POP POP POP PUSH1 0x40 MLOAD RETURNDATASIZE PUSH1 0x1F NOT PUSH1 0x1F DUP3 ADD AND DUP3 ADD DUP1 PUSH1 0x40 MSTORE POP DUP2 ADD SWAP1 PUSH2 0xB79 SWAP2 SWAP1 PUSH2 0x3263 JUMP JUMPDEST SWAP1 POP PUSH1 0x0 DUP2 GT PUSH2 0xBBE JUMPI PUSH1 0x40 MLOAD PUSH32 0x8C379A000000000000000000000000000000000000000000000000000000000 DUP2 MSTORE PUSH1 0x4 ADD PUSH2 0xBB5 SWAP1 PUSH2 0x3302 JUMP JUMPDEST PUSH1 0x40 MLOAD DUP1 SWAP2 SUB SWAP1 REVERT JUMPDEST PUSH1 0x0 PUSH1 0x68 PUSH1 0x1 SWAP1 SLOAD SWAP1 PUSH2 0x100 EXP SWAP1 DIV PUSH20 0xFFFFFFFFFFFFFFFFFFFFFFFFFFFFFFFFFFFFFFFF AND PUSH20 0xFFFFFFFFFFFFFFFFFFFFFFFFFFFFFFFFFFFFFFFF AND PUSH4 0xA9059CBB CALLER DUP5 PUSH1 0x40 MLOAD DUP4 PUSH4 0xFFFFFFFF AND PUSH1 0xE0 SHL DUP2 MSTORE PUSH1 0x4 ADD PUSH2 0xC1D SWAP3 SWAP2 SWAP1 PUSH2 0x3322 JUMP JUMPDEST PUSH1 0x20 PUSH1 0x40 MLOAD DUP1 DUP4 SUB DUP2 PUSH1 0x0 DUP8 GAS CALL ISZERO DUP1 ISZERO PUSH2 0xC3C JUMPI RETURNDATASIZE PUSH1 0x0 DUP1 RETURNDATACOPY RETURNDATASIZE PUSH1 0x0 REVERT JUMPDEST POP POP POP POP PUSH1 0x40 MLOAD RETURNDATASIZE PUSH1 0x1F NOT PUSH1 0x1F DUP3 ADD AND DUP3 ADD DUP1 PUSH1 0x40 MSTORE POP DUP2 ADD SWAP1 PUSH2 0xC60 SWAP2 SWAP1 PUSH2 0x3360 JUMP JUMPDEST SWAP1 POP DUP1 PUSH2 0xCA2 JUMPI PUSH1 0x40 MLOAD PUSH32 0x8C379A000000000000000000000000000000000000000000000000000000000 DUP2 MSTORE PUSH1 0x4 ADD PUSH2 0xC99 SWAP1 PUSH2 0x33FF JUMP JUMPDEST PUSH1 0x40 MLOAD DUP1 SWAP2 SUB SWAP1 REVERT JUMPDEST POP POP JUMP JUMPDEST PUSH1 0x0 SELFBALANCE SWAP1 POP SWAP1 JUMP JUMPDEST PUSH2 0xCB7 CALLER PUSH2 0xA76 JUMP JUMPDEST PUSH2 0xCF6 JUMPI PUSH1 0x40 MLOAD PUSH32 0x8C379A000000000000000000000000000000000000000000000000000000000 DUP2 MSTORE PUSH1 0x4 ADD PUSH2 0xCED SWAP1 PUSH2 0x3130 JUMP JUMPDEST PUSH1 0x40 MLOAD DUP1 SWAP2 SUB SWAP1 REVERT JUMPDEST PUSH1 0x0 PUSH1 0x68 PUSH1 0x1 SWAP1 SLOAD SWAP1 PUSH2 0x100 EXP SWAP1 DIV PUSH20 0xFFFFFFFFFFFFFFFFFFFFFFFFFFFFFFFFFFFFFFFF AND PUSH20 0xFFFFFFFFFFFFFFFFFFFFFFFFFFFFFFFFFFFFFFFF AND PUSH4 0x70A08231 ADDRESS PUSH1 0x40 MLOAD DUP3 PUSH4 0xFFFFFFFF AND PUSH1 0xE0 SHL DUP2 MSTORE PUSH1 0x4 ADD PUSH2 0xD53 SWAP2 SWAP1 PUSH2 0x2DF1 JUMP JUMPDEST PUSH1 0x20 PUSH1 0x40 MLOAD DUP1 DUP4 SUB DUP2 DUP7 GAS STATICCALL ISZERO DUP1 ISZERO PUSH2 0xD70 JUMPI RETURNDATASIZE PUSH1 0x0 DUP1 RETURNDATACOPY RETURNDATASIZE PUSH1 0x0 REVERT JUMPDEST POP POP POP POP PUSH1 0x40 MLOAD RETURNDATASIZE PUSH1 0x1F NOT PUSH1 0x1F DUP3 ADD AND DUP3 ADD DUP1 PUSH1 0x40 MSTORE POP DUP2 ADD SWAP1 PUSH2 0xD94 SWAP2 SWAP1 PUSH2 0x3263 JUMP JUMPDEST SWAP1 POP PUSH1 0x0 DUP2 GT PUSH2 0xDD9 JUMPI PUSH1 0x40 MLOAD PUSH32 0x8C379A000000000000000000000000000000000000000000000000000000000 DUP2 MSTORE PUSH1 0x4 ADD PUSH2 0xDD0 SWAP1 PUSH2 0x3302 JUMP JUMPDEST PUSH1 0x40 MLOAD DUP1 SWAP2 SUB SWAP1 REVERT JUMPDEST DUP2 DUP2 LT ISZERO PUSH2 0xE1C JUMPI PUSH1 0x40 MLOAD PUSH32 0x8C379A000000000000000000000000000000000000000000000000000000000 DUP2 MSTORE PUSH1 0x4 ADD PUSH2 0xE13 SWAP1 PUSH2 0x3491 JUMP JUMPDEST PUSH1 0x40 MLOAD DUP1 SWAP2 SUB SWAP1 REVERT JUMPDEST PUSH1 0x0 PUSH1 0x68 PUSH1 0x1 SWAP1 SLOAD SWAP1 PUSH2 0x100 EXP SWAP1 DIV PUSH20 0xFFFFFFFFFFFFFFFFFFFFFFFFFFFFFFFFFFFFFFFF AND PUSH20 0xFFFFFFFFFFFFFFFFFFFFFFFFFFFFFFFFFFFFFFFF AND PUSH4 0xA9059CBB CALLER DUP6 PUSH1 0x40 MLOAD DUP4 PUSH4 0xFFFFFFFF AND PUSH1 0xE0 SHL DUP2 MSTORE PUSH1 0x4 ADD PUSH2 0xE7B SWAP3 SWAP2 SWAP1 PUSH2 0x3322 JUMP JUMPDEST PUSH1 0x20 PUSH1 0x40 MLOAD DUP1 DUP4 SUB DUP2 PUSH1 0x0 DUP8 GAS CALL ISZERO DUP1 ISZERO PUSH2 0xE9A JUMPI RETURNDATASIZE PUSH1 0x0 DUP1 RETURNDATACOPY RETURNDATASIZE PUSH1 0x0 REVERT JUMPDEST POP POP POP POP PUSH1 0x40 MLOAD RETURNDATASIZE PUSH1 0x1F NOT PUSH1 0x1F DUP3 ADD AND DUP3 ADD DUP1 PUSH1 0x40 MSTORE POP DUP2 ADD SWAP1 PUSH2 0xEBE SWAP2 SWAP1 PUSH2 0x3360 JUMP JUMPDEST SWAP1 POP DUP1 PUSH2 0xF00 JUMPI PUSH1 0x40 MLOAD PUSH32 0x8C379A000000000000000000000000000000000000000000000000000000000 DUP2 MSTORE PUSH1 0x4 ADD PUSH2 0xEF7 SWAP1 PUSH2 0x33FF JUMP JUMPDEST PUSH1 0x40 MLOAD DUP1 SWAP2 SUB SWAP1 REVERT JUMPDEST POP POP POP JUMP JUMPDEST PUSH1 0x0 PUSH1 0x68 PUSH1 0x1 SWAP1 SLOAD SWAP1 PUSH2 0x100 EXP SWAP1 DIV PUSH20 0xFFFFFFFFFFFFFFFFFFFFFFFFFFFFFFFFFFFFFFFF AND PUSH20 0xFFFFFFFFFFFFFFFFFFFFFFFFFFFFFFFFFFFFFFFF AND PUSH4 0x70A08231 ADDRESS PUSH1 0x40 MLOAD DUP3 PUSH4 0xFFFFFFFF AND PUSH1 0xE0 SHL DUP2 MSTORE PUSH1 0x4 ADD PUSH2 0xF62 SWAP2 SWAP1 PUSH2 0x2DF1 JUMP JUMPDEST PUSH1 0x20 PUSH1 0x40 MLOAD DUP1 DUP4 SUB DUP2 DUP7 GAS STATICCALL ISZERO DUP1 ISZERO PUSH2 0xF7F JUMPI RETURNDATASIZE PUSH1 0x0 DUP1 RETURNDATACOPY RETURNDATASIZE PUSH1 0x0 REVERT JUMPDEST POP POP POP POP PUSH1 0x40 MLOAD RETURNDATASIZE PUSH1 0x1F NOT PUSH1 0x1F DUP3 ADD AND DUP3 ADD DUP1 PUSH1 0x40 MSTORE POP DUP2 ADD SWAP1 PUSH2 0xFA3 SWAP2 SWAP1 PUSH2 0x3263 JUMP JUMPDEST SWAP1 POP SWAP1 JUMP JUMPDEST PUSH2 0xFB1 CALLER PUSH2 0xA76 JUMP JUMPDEST PUSH2 0xFF0 JUMPI PUSH1 0x40 MLOAD PUSH32 0x8C379A000000000000000000000000000000000000000000000000000000000 DUP2 MSTORE PUSH1 0x4 ADD PUSH2 0xFE7 SWAP1 PUSH2 0x3130 JUMP JUMPDEST PUSH1 0x40 MLOAD DUP1 SWAP2 SUB SWAP1 REVERT JUMPDEST PUSH1 0x0 SELFBALANCE SWAP1 POP PUSH1 0x0 DUP2 GT PUSH2 0x1038 JUMPI PUSH1 0x40 MLOAD PUSH32 0x8C379A000000000000000000000000000000000000000000000000000000000 DUP2 MSTORE PUSH1 0x4 ADD PUSH2 0x102F SWAP1 PUSH2 0x34FD JUMP JUMPDEST PUSH1 0x40 MLOAD DUP1 SWAP2 SUB SWAP1 REVERT JUMPDEST PUSH1 0x0 CALLER PUSH20 0xFFFFFFFFFFFFFFFFFFFFFFFFFFFFFFFFFFFFFFFF AND SELFBALANCE PUSH1 0x40 MLOAD PUSH2 0x105E SWAP1 PUSH2 0x354E JUMP JUMPDEST PUSH1 0x0 PUSH1 0x40 MLOAD DUP1 DUP4 SUB DUP2 DUP6 DUP8 GAS CALL SWAP3 POP POP POP RETURNDATASIZE DUP1 PUSH1 0x0 DUP2 EQ PUSH2 0x109B JUMPI PUSH1 0x40 MLOAD SWAP2 POP PUSH1 0x1F NOT PUSH1 0x3F RETURNDATASIZE ADD AND DUP3 ADD PUSH1 0x40 MSTORE RETURNDATASIZE DUP3 MSTORE RETURNDATASIZE PUSH1 0x0 PUSH1 0x20 DUP5 ADD RETURNDATACOPY PUSH2 0x10A0 JUMP JUMPDEST PUSH1 0x60 SWAP2 POP JUMPDEST POP POP SWAP1 POP DUP1 PUSH2 0x10E4 JUMPI PUSH1 0x40 MLOAD PUSH32 0x8C379A000000000000000000000000000000000000000000000000000000000 DUP2 MSTORE PUSH1 0x4 ADD PUSH2 0x10DB SWAP1 PUSH2 0x35D5 JUMP JUMPDEST PUSH1 0x40 MLOAD DUP1 SWAP2 SUB SWAP1 REVERT JUMPDEST POP POP JUMP JUMPDEST PUSH2 0x10F1 CALLER PUSH2 0xA76 JUMP JUMPDEST PUSH2 0x1130 JUMPI PUSH1 0x40 MLOAD PUSH32 0x8C379A000000000000000000000000000000000000000000000000000000000 DUP2 MSTORE PUSH1 0x4 ADD PUSH2 0x1127 SWAP1 PUSH2 0x3130 JUMP JUMPDEST PUSH1 0x40 MLOAD DUP1 SWAP2 SUB SWAP1 REVERT JUMPDEST PUSH1 0x0 SELFBALANCE SWAP1 POP PUSH1 0x0 DUP2 GT PUSH2 0x1178 JUMPI PUSH1 0x40 MLOAD PUSH32 0x8C379A000000000000000000000000000000000000000000000000000000000 DUP2 MSTORE PUSH1 0x4 ADD PUSH2 0x116F SWAP1 PUSH2 0x34FD JUMP JUMPDEST PUSH1 0x40 MLOAD DUP1 SWAP2 SUB SWAP1 REVERT JUMPDEST DUP2 DUP2 LT ISZERO PUSH2 0x11BB JUMPI PUSH1 0x40 MLOAD PUSH32 0x8C379A000000000000000000000000000000000000000000000000000000000 DUP2 MSTORE PUSH1 0x4 ADD PUSH2 0x11B2 SWAP1 PUSH2 0x3491 JUMP JUMPDEST PUSH1 0x40 MLOAD DUP1 SWAP2 SUB SWAP1 REVERT JUMPDEST PUSH1 0x0 CALLER PUSH20 0xFFFFFFFFFFFFFFFFFFFFFFFFFFFFFFFFFFFFFFFF AND DUP4 PUSH1 0x40 MLOAD PUSH2 0x11E1 SWAP1 PUSH2 0x354E JUMP JUMPDEST PUSH1 0x0 PUSH1 0x40 MLOAD DUP1 DUP4 SUB DUP2 DUP6 DUP8 GAS CALL SWAP3 POP POP POP RETURNDATASIZE DUP1 PUSH1 0x0 DUP2 EQ PUSH2 0x121E JUMPI PUSH1 0x40 MLOAD SWAP2 POP PUSH1 0x1F NOT PUSH1 0x3F RETURNDATASIZE ADD AND DUP3 ADD PUSH1 0x40 MSTORE RETURNDATASIZE DUP3 MSTORE RETURNDATASIZE PUSH1 0x0 PUSH1 0x20 DUP5 ADD RETURNDATACOPY PUSH2 0x1223 JUMP JUMPDEST PUSH1 0x60 SWAP2 POP JUMPDEST POP POP SWAP1 POP DUP1 PUSH2 0x1267 JUMPI PUSH1 0x40 MLOAD PUSH32 0x8C379A000000000000000000000000000000000000000000000000000000000 DUP2 MSTORE PUSH1 0x4 ADD PUSH2 0x125E SWAP1 PUSH2 0x35D5 JUMP JUMPDEST PUSH1 0x40 MLOAD DUP1 SWAP2 SUB SWAP1 REVERT JUMPDEST POP POP POP JUMP JUMPDEST PUSH2 0x1275 CALLER PUSH2 0xA76 JUMP JUMPDEST PUSH2 0x12B4 JUMPI PUSH1 0x40 MLOAD PUSH32 0x8C379A000000000000000000000000000000000000000000000000000000000 DUP2 MSTORE PUSH1 0x4 ADD PUSH2 0x12AB SWAP1 PUSH2 0x3130 JUMP JUMPDEST PUSH1 0x40 MLOAD DUP1 SWAP2 SUB SWAP1 REVERT JUMPDEST PUSH1 0x68 PUSH1 0x0 SWAP1 SLOAD SWAP1 PUSH2 0x100 EXP SWAP1 DIV PUSH1 0xFF AND PUSH2 0x1303 JUMPI PUSH1 0x40 MLOAD PUSH32 0x8C379A000000000000000000000000000000000000000000000000000000000 DUP2 MSTORE PUSH1 0x4 ADD PUSH2 0x12FA SWAP1 PUSH2 0x3641 JUMP JUMPDEST PUSH1 0x40 MLOAD DUP1 SWAP2 SUB SWAP1 REVERT JUMPDEST PUSH1 0x0 PUSH1 0x68 PUSH1 0x0 PUSH2 0x100 EXP DUP2 SLOAD DUP2 PUSH1 0xFF MUL NOT AND SWAP1 DUP4 ISZERO ISZERO MUL OR SWAP1 SSTORE POP PUSH32 0x5DB9EE0A495BF2E6FF9C91A7834C1BA4FDD244A5E8AA4E537BD38AEAE4B073AA CALLER PUSH1 0x40 MLOAD PUSH2 0x134D SWAP2 SWAP1 PUSH2 0x2DF1 JUMP JUMPDEST PUSH1 0x40 MLOAD DUP1 SWAP2 SUB SWAP1 LOG1 JUMP JUMPDEST PUSH1 0x0 PUSH1 0x68 PUSH1 0x0 SWAP1 SLOAD SWAP1 PUSH2 0x100 EXP SWAP1 DIV PUSH1 0xFF AND ISZERO PUSH2 0x13A9 JUMPI PUSH1 0x40 MLOAD PUSH32 0x8C379A000000000000000000000000000000000000000000000000000000000 DUP2 MSTORE PUSH1 0x4 ADD PUSH2 0x13A0 SWAP1 PUSH2 0x36AD JUMP JUMPDEST PUSH1 0x40 MLOAD DUP1 SWAP2 SUB SWAP1 REVERT JUMPDEST PUSH1 0x0 PUSH20 0xFFFFFFFFFFFFFFFFFFFFFFFFFFFFFFFFFFFFFFFF AND PUSH1 0x6A PUSH1 0x0 SWAP1 SLOAD SWAP1 PUSH2 0x100 EXP SWAP1 DIV PUSH20 0xFFFFFFFFFFFFFFFFFFFFFFFFFFFFFFFFFFFFFFFF AND PUSH20 0xFFFFFFFFFFFFFFFFFFFFFFFFFFFFFFFFFFFFFFFF AND SUB PUSH2 0x143A JUMPI PUSH1 0x40 MLOAD PUSH32 0x8C379A000000000000000000000000000000000000000000000000000000000 DUP2 MSTORE PUSH1 0x4 ADD PUSH2 0x1431 SWAP1 PUSH2 0x373F JUMP JUMPDEST PUSH1 0x40 MLOAD DUP1 SWAP2 SUB SWAP1 REVERT JUMPDEST PUSH1 0x0 CALLVALUE GT PUSH2 0x147D JUMPI PUSH1 0x40 MLOAD PUSH32 0x8C379A000000000000000000000000000000000000000000000000000000000 DUP2 MSTORE PUSH1 0x4 ADD PUSH2 0x1474 SWAP1 PUSH2 0x37AB JUMP JUMPDEST PUSH1 0x40 MLOAD DUP1 SWAP2 SUB SWAP1 REVERT JUMPDEST PUSH1 0x69 PUSH1 0x14 SWAP1 SLOAD SWAP1 PUSH2 0x100 EXP SWAP1 DIV PUSH1 0xFF AND ISZERO PUSH2 0x151E JUMPI PUSH1 0x69 PUSH1 0x0 SWAP1 SLOAD SWAP1 PUSH2 0x100 EXP SWAP1 DIV PUSH20 0xFFFFFFFFFFFFFFFFFFFFFFFFFFFFFFFFFFFFFFFF AND PUSH20 0xFFFFFFFFFFFFFFFFFFFFFFFFFFFFFFFFFFFFFFFF AND PUSH4 0x9A718924 CALLER PUSH1 0x40 MLOAD DUP3 PUSH4 0xFFFFFFFF AND PUSH1 0xE0 SHL DUP2 MSTORE PUSH1 0x4 ADD PUSH2 0x14ED SWAP2 SWAP1 PUSH2 0x2DF1 JUMP JUMPDEST PUSH1 0x0 PUSH1 0x40 MLOAD DUP1 DUP4 SUB DUP2 DUP7 DUP1 EXTCODESIZE ISZERO DUP1 ISZERO PUSH2 0x1505 JUMPI PUSH1 0x0 DUP1 REVERT JUMPDEST POP GAS STATICCALL ISZERO DUP1 ISZERO PUSH2 0x1519 JUMPI RETURNDATASIZE PUSH1 0x0 DUP1 RETURNDATACOPY RETURNDATASIZE PUSH1 0x0 REVERT JUMPDEST POP POP POP POP JUMPDEST PUSH1 0x0 PUSH2 0x1529 CALLVALUE PUSH2 0x260D JUMP JUMPDEST SWAP1 POP PUSH1 0x0 DUP2 GT PUSH2 0x156E JUMPI PUSH1 0x40 MLOAD PUSH32 0x8C379A000000000000000000000000000000000000000000000000000000000 DUP2 MSTORE PUSH1 0x4 ADD PUSH2 0x1565 SWAP1 PUSH2 0x383D JUMP JUMPDEST PUSH1 0x40 MLOAD DUP1 SWAP2 SUB SWAP1 REVERT JUMPDEST PUSH1 0x0 PUSH1 0x68 PUSH1 0x1 SWAP1 SLOAD SWAP1 PUSH2 0x100 EXP SWAP1 DIV PUSH20 0xFFFFFFFFFFFFFFFFFFFFFFFFFFFFFFFFFFFFFFFF AND PUSH20 0xFFFFFFFFFFFFFFFFFFFFFFFFFFFFFFFFFFFFFFFF AND PUSH4 0x70A08231 ADDRESS PUSH1 0x40 MLOAD DUP3 PUSH4 0xFFFFFFFF AND PUSH1 0xE0 SHL DUP2 MSTORE PUSH1 0x4 ADD PUSH2 0x15CB SWAP2 SWAP1 PUSH2 0x2DF1 JUMP JUMPDEST PUSH1 0x20 PUSH1 0x40 MLOAD DUP1 DUP4 SUB DUP2 DUP7 GAS STATICCALL ISZERO DUP1 ISZERO PUSH2 0x15E8 JUMPI RETURNDATASIZE PUSH1 0x0 DUP1 RETURNDATACOPY RETURNDATASIZE PUSH1 0x0 REVERT JUMPDEST POP POP POP POP PUSH1 0x40 MLOAD RETURNDATASIZE PUSH1 0x1F NOT PUSH1 0x1F DUP3 ADD AND DUP3 ADD DUP1 PUSH1 0x40 MSTORE POP DUP2 ADD SWAP1 PUSH2 0x160C SWAP2 SWAP1 PUSH2 0x3263 JUMP JUMPDEST SWAP1 POP DUP2 DUP2 LT ISZERO PUSH2 0x1651 JUMPI PUSH1 0x40 MLOAD PUSH32 0x8C379A000000000000000000000000000000000000000000000000000000000 DUP2 MSTORE PUSH1 0x4 ADD PUSH2 0x1648 SWAP1 PUSH2 0x38A9 JUMP JUMPDEST PUSH1 0x40 MLOAD DUP1 SWAP2 SUB SWAP1 REVERT JUMPDEST PUSH1 0x6A PUSH1 0x0 SWAP1 SLOAD SWAP1 PUSH2 0x100 EXP SWAP1 DIV PUSH20 0xFFFFFFFFFFFFFFFFFFFFFFFFFFFFFFFFFFFFFFFF AND PUSH20 0xFFFFFFFFFFFFFFFFFFFFFFFFFFFFFFFFFFFFFFFF AND PUSH2 0x8FC CALLVALUE SWAP1 DUP2 ISZERO MUL SWAP1 PUSH1 0x40 MLOAD PUSH1 0x0 PUSH1 0x40 MLOAD DUP1 DUP4 SUB DUP2 DUP6 DUP9 DUP9 CALL SWAP4 POP POP POP POP ISZERO DUP1 ISZERO PUSH2 0x16B9 JUMPI RETURNDATASIZE PUSH1 0x0 DUP1 RETURNDATACOPY RETURNDATASIZE PUSH1 0x0 REVERT JUMPDEST POP PUSH1 0x0 PUSH1 0x68 PUSH1 0x1 SWAP1 SLOAD SWAP1 PUSH2 0x100 EXP SWAP1 DIV PUSH20 0xFFFFFFFFFFFFFFFFFFFFFFFFFFFFFFFFFFFFFFFF AND PUSH20 0xFFFFFFFFFFFFFFFFFFFFFFFFFFFFFFFFFFFFFFFF AND PUSH4 0xA9059CBB CALLER DUP6 PUSH1 0x40 MLOAD DUP4 PUSH4 0xFFFFFFFF AND PUSH1 0xE0 SHL DUP2 MSTORE PUSH1 0x4 ADD PUSH2 0x1719 SWAP3 SWAP2 SWAP1 PUSH2 0x3322 JUMP JUMPDEST PUSH1 0x20 PUSH1 0x40 MLOAD DUP1 DUP4 SUB DUP2 PUSH1 0x0 DUP8 GAS CALL ISZERO DUP1 ISZERO PUSH2 0x1738 JUMPI RETURNDATASIZE PUSH1 0x0 DUP1 RETURNDATACOPY RETURNDATASIZE PUSH1 0x0 REVERT JUMPDEST POP POP POP POP PUSH1 0x40 MLOAD RETURNDATASIZE PUSH1 0x1F NOT PUSH1 0x1F DUP3 ADD AND DUP3 ADD DUP1 PUSH1 0x40 MSTORE POP DUP2 ADD SWAP1 PUSH2 0x175C SWAP2 SWAP1 PUSH2 0x3360 JUMP JUMPDEST SWAP1 POP DUP1 PUSH2 0x179E JUMPI PUSH1 0x40 MLOAD PUSH32 0x8C379A000000000000000000000000000000000000000000000000000000000 DUP2 MSTORE PUSH1 0x4 ADD PUSH2 0x1795 SWAP1 PUSH2 0x393B JUMP JUMPDEST PUSH1 0x40 MLOAD DUP1 SWAP2 SUB SWAP1 REVERT JUMPDEST CALLER PUSH20 0xFFFFFFFFFFFFFFFFFFFFFFFFFFFFFFFFFFFFFFFF AND PUSH32 0xA37B72BB67EEE30E09084CF386F8A17817C57F620C3AB95FB25D6A20356EC77 CALLVALUE DUP6 PUSH1 0x40 MLOAD PUSH2 0x17E6 SWAP3 SWAP2 SWAP1 PUSH2 0x395B JUMP JUMPDEST PUSH1 0x40 MLOAD DUP1 SWAP2 SUB SWAP1 LOG2 DUP3 SWAP4 POP POP POP POP SWAP1 JUMP JUMPDEST PUSH1 0x6C SLOAD DUP2 JUMP JUMPDEST PUSH1 0x69 PUSH1 0x14 SWAP1 SLOAD SWAP1 PUSH2 0x100 EXP SWAP1 DIV PUSH1 0xFF AND DUP2 JUMP JUMPDEST PUSH1 0x6A PUSH1 0x0 SWAP1 SLOAD SWAP1 PUSH2 0x100 EXP SWAP1 DIV PUSH20 0xFFFFFFFFFFFFFFFFFFFFFFFFFFFFFFFFFFFFFFFF AND DUP2 JUMP JUMPDEST PUSH1 0x0 PUSH1 0x68 PUSH1 0x0 SWAP1 SLOAD SWAP1 PUSH2 0x100 EXP SWAP1 DIV PUSH1 0xFF AND SWAP1 POP SWAP1 JUMP JUMPDEST PUSH1 0x0 PUSH1 0x68 PUSH1 0x0 SWAP1 SLOAD SWAP1 PUSH2 0x100 EXP SWAP1 DIV PUSH1 0xFF AND ISZERO PUSH2 0x189F JUMPI PUSH1 0x40 MLOAD PUSH32 0x8C379A000000000000000000000000000000000000000000000000000000000 DUP2 MSTORE PUSH1 0x4 ADD PUSH2 0x1896 SWAP1 PUSH2 0x36AD JUMP JUMPDEST PUSH1 0x40 MLOAD DUP1 SWAP2 SUB SWAP1 REVERT JUMPDEST PUSH1 0x0 CALLVALUE GT PUSH2 0x18E2 JUMPI PUSH1 0x40 MLOAD PUSH32 0x8C379A000000000000000000000000000000000000000000000000000000000 DUP2 MSTORE PUSH1 0x4 ADD PUSH2 0x18D9 SWAP1 PUSH2 0x37AB JUMP JUMPDEST PUSH1 0x40 MLOAD DUP1 SWAP2 SUB SWAP1 REVERT JUMPDEST PUSH1 0x69 PUSH1 0x14 SWAP1 SLOAD SWAP1 PUSH2 0x100 EXP SWAP1 DIV PUSH1 0xFF AND ISZERO PUSH2 0x1983 JUMPI PUSH1 0x69 PUSH1 0x0 SWAP1 SLOAD SWAP1 PUSH2 0x100 EXP SWAP1 DIV PUSH20 0xFFFFFFFFFFFFFFFFFFFFFFFFFFFFFFFFFFFFFFFF AND PUSH20 0xFFFFFFFFFFFFFFFFFFFFFFFFFFFFFFFFFFFFFFFF AND PUSH4 0x9A718924 CALLER PUSH1 0x40 MLOAD DUP3 PUSH4 0xFFFFFFFF AND PUSH1 0xE0 SHL DUP2 MSTORE PUSH1 0x4 ADD PUSH2 0x1952 SWAP2 SWAP1 PUSH2 0x2DF1 JUMP JUMPDEST PUSH1 0x0 PUSH1 0x40 MLOAD DUP1 DUP4 SUB DUP2 DUP7 DUP1 EXTCODESIZE ISZERO DUP1 ISZERO PUSH2 0x196A JUMPI PUSH1 0x0 DUP1 REVERT JUMPDEST POP GAS STATICCALL ISZERO DUP1 ISZERO PUSH2 0x197E JUMPI RETURNDATASIZE PUSH1 0x0 DUP1 RETURNDATACOPY RETURNDATASIZE PUSH1 0x0 REVERT JUMPDEST POP POP POP POP JUMPDEST PUSH1 0x0 PUSH2 0x198E CALLVALUE PUSH2 0x260D JUMP JUMPDEST SWAP1 POP PUSH1 0x0 DUP2 GT PUSH2 0x19D3 JUMPI PUSH1 0x40 MLOAD PUSH32 0x8C379A000000000000000000000000000000000000000000000000000000000 DUP2 MSTORE PUSH1 0x4 ADD PUSH2 0x19CA SWAP1 PUSH2 0x383D JUMP JUMPDEST PUSH1 0x40 MLOAD DUP1 SWAP2 SUB SWAP1 REVERT JUMPDEST PUSH1 0x0 PUSH1 0x68 PUSH1 0x1 SWAP1 SLOAD SWAP1 PUSH2 0x100 EXP SWAP1 DIV PUSH20 0xFFFFFFFFFFFFFFFFFFFFFFFFFFFFFFFFFFFFFFFF AND PUSH20 0xFFFFFFFFFFFFFFFFFFFFFFFFFFFFFFFFFFFFFFFF AND PUSH4 0x70A08231 ADDRESS PUSH1 0x40 MLOAD DUP3 PUSH4 0xFFFFFFFF AND PUSH1 0xE0 SHL DUP2 MSTORE PUSH1 0x4 ADD PUSH2 0x1A30 SWAP2 SWAP1 PUSH2 0x2DF1 JUMP JUMPDEST PUSH1 0x20 PUSH1 0x40 MLOAD DUP1 DUP4 SUB DUP2 DUP7 GAS STATICCALL ISZERO DUP1 ISZERO PUSH2 0x1A4D JUMPI RETURNDATASIZE PUSH1 0x0 DUP1 RETURNDATACOPY RETURNDATASIZE PUSH1 0x0 REVERT JUMPDEST POP POP POP POP PUSH1 0x40 MLOAD RETURNDATASIZE PUSH1 0x1F NOT PUSH1 0x1F DUP3 ADD AND DUP3 ADD DUP1 PUSH1 0x40 MSTORE POP DUP2 ADD SWAP1 PUSH2 0x1A71 SWAP2 SWAP1 PUSH2 0x3263 JUMP JUMPDEST SWAP1 POP DUP2 DUP2 LT ISZERO PUSH2 0x1AB6 JUMPI PUSH1 0x40 MLOAD PUSH32 0x8C379A000000000000000000000000000000000000000000000000000000000 DUP2 MSTORE PUSH1 0x4 ADD PUSH2 0x1AAD SWAP1 PUSH2 0x38A9 JUMP JUMPDEST PUSH1 0x40 MLOAD DUP1 SWAP2 SUB SWAP1 REVERT JUMPDEST PUSH1 0x0 PUSH1 0x68 PUSH1 0x1 SWAP1 SLOAD SWAP1 PUSH2 0x100 EXP SWAP1 DIV PUSH20 0xFFFFFFFFFFFFFFFFFFFFFFFFFFFFFFFFFFFFFFFF AND PUSH20 0xFFFFFFFFFFFFFFFFFFFFFFFFFFFFFFFFFFFFFFFF AND PUSH4 0xA9059CBB CALLER DUP6 PUSH1 0x40 MLOAD DUP4 PUSH4 0xFFFFFFFF AND PUSH1 0xE0 SHL DUP2 MSTORE PUSH1 0x4 ADD PUSH2 0x1B15 SWAP3 SWAP2 SWAP1 PUSH2 0x3322 JUMP JUMPDEST PUSH1 0x20 PUSH1 0x40 MLOAD DUP1 DUP4 SUB DUP2 PUSH1 0x0 DUP8 GAS CALL ISZERO DUP1 ISZERO PUSH2 0x1B34 JUMPI RETURNDATASIZE PUSH1 0x0 DUP1 RETURNDATACOPY RETURNDATASIZE PUSH1 0x0 REVERT JUMPDEST POP POP POP POP PUSH1 0x40 MLOAD RETURNDATASIZE PUSH1 0x1F NOT PUSH1 0x1F DUP3 ADD AND DUP3 ADD DUP1 PUSH1 0x40 MSTORE POP DUP2 ADD SWAP1 PUSH2 0x1B58 SWAP2 SWAP1 PUSH2 0x3360 JUMP JUMPDEST SWAP1 POP DUP1 PUSH2 0x1B9A JUMPI PUSH1 0x40 MLOAD PUSH32 0x8C379A000000000000000000000000000000000000000000000000000000000 DUP2 MSTORE PUSH1 0x4 ADD PUSH2 0x1B91 SWAP1 PUSH2 0x393B JUMP JUMPDEST PUSH1 0x40 MLOAD DUP1 SWAP2 SUB SWAP1 REVERT JUMPDEST CALLER PUSH20 0xFFFFFFFFFFFFFFFFFFFFFFFFFFFFFFFFFFFFFFFF AND PUSH32 0xA37B72BB67EEE30E09084CF386F8A17817C57F620C3AB95FB25D6A20356EC77 CALLVALUE DUP6 PUSH1 0x40 MLOAD PUSH2 0x1BE2 SWAP3 SWAP2 SWAP1 PUSH2 0x395B JUMP JUMPDEST PUSH1 0x40 MLOAD DUP1 SWAP2 SUB SWAP1 LOG2 DUP3 SWAP4 POP POP POP POP SWAP1 JUMP JUMPDEST PUSH1 0x0 PUSH1 0x1 SWAP1 SLOAD SWAP1 PUSH2 0x100 EXP SWAP1 DIV PUSH1 0xFF AND DUP1 PUSH2 0x1C12 JUMPI POP PUSH2 0x1C11 PUSH2 0x2747 JUMP JUMPDEST JUMPDEST DUP1 PUSH2 0x1C28 JUMPI POP PUSH1 0x0 DUP1 SLOAD SWAP1 PUSH2 0x100 EXP SWAP1 DIV PUSH1 0xFF AND ISZERO JUMPDEST PUSH2 0x1C67 JUMPI PUSH1 0x40 MLOAD PUSH32 0x8C379A000000000000000000000000000000000000000000000000000000000 DUP2 MSTORE PUSH1 0x4 ADD PUSH2 0x1C5E SWAP1 PUSH2 0x39F6 JUMP JUMPDEST PUSH1 0x40 MLOAD DUP1 SWAP2 SUB SWAP1 REVERT JUMPDEST PUSH1 0x0 DUP1 PUSH1 0x1 SWAP1 SLOAD SWAP1 PUSH2 0x100 EXP SWAP1 DIV PUSH1 0xFF AND ISZERO SWAP1 POP DUP1 ISZERO PUSH2 0x1CB7 JUMPI PUSH1 0x1 PUSH1 0x0 PUSH1 0x1 PUSH2 0x100 EXP DUP2 SLOAD DUP2 PUSH1 0xFF MUL NOT AND SWAP1 DUP4 ISZERO ISZERO MUL OR SWAP1 SSTORE POP PUSH1 0x1 PUSH1 0x0 DUP1 PUSH2 0x100 EXP DUP2 SLOAD DUP2 PUSH1 0xFF MUL NOT AND SWAP1 DUP4 ISZERO ISZERO MUL OR SWAP1 SSTORE POP JUMPDEST PUSH2 0x1CC0 DUP8 PUSH2 0x20EA JUMP JUMPDEST DUP6 PUSH1 0x68 PUSH1 0x1 PUSH2 0x100 EXP DUP2 SLOAD DUP2 PUSH20 0xFFFFFFFFFFFFFFFFFFFFFFFFFFFFFFFFFFFFFFFF MUL NOT AND SWAP1 DUP4 PUSH20 0xFFFFFFFFFFFFFFFFFFFFFFFFFFFFFFFFFFFFFFFF AND MUL OR SWAP1 SSTORE POP DUP5 PUSH1 0x69 PUSH1 0x0 PUSH2 0x100 EXP DUP2 SLOAD DUP2 PUSH20 0xFFFFFFFFFFFFFFFFFFFFFFFFFFFFFFFFFFFFFFFF MUL NOT AND SWAP1 DUP4 PUSH20 0xFFFFFFFFFFFFFFFFFFFFFFFFFFFFFFFFFFFFFFFF AND MUL OR SWAP1 SSTORE POP DUP4 PUSH1 0x69 PUSH1 0x14 PUSH2 0x100 EXP DUP2 SLOAD DUP2 PUSH1 0xFF MUL NOT AND SWAP1 DUP4 ISZERO ISZERO MUL OR SWAP1 SSTORE POP DUP3 PUSH1 0x6B DUP2 SWAP1 SSTORE POP DUP2 PUSH1 0x6C DUP2 SWAP1 SSTORE POP DUP1 ISZERO PUSH2 0x1D8B JUMPI PUSH1 0x0 DUP1 PUSH1 0x1 PUSH2 0x100 EXP DUP2 SLOAD DUP2 PUSH1 0xFF MUL NOT AND SWAP1 DUP4 ISZERO ISZERO MUL OR SWAP1 SSTORE POP JUMPDEST POP POP POP POP POP POP POP JUMP JUMPDEST PUSH1 0x68 PUSH1 0x1 SWAP1 SLOAD SWAP1 PUSH2 0x100 EXP SWAP1 DIV PUSH20 0xFFFFFFFFFFFFFFFFFFFFFFFFFFFFFFFFFFFFFFFF AND DUP2 JUMP JUMPDEST PUSH2 0x1DC2 PUSH2 0x208B JUMP JUMPDEST PUSH2 0x1E01 JUMPI PUSH1 0x40 MLOAD PUSH32 0x8C379A000000000000000000000000000000000000000000000000000000000 DUP2 MSTORE PUSH1 0x4 ADD PUSH2 0x1DF8 SWAP1 PUSH2 0x322E JUMP JUMPDEST PUSH1 0x40 MLOAD DUP1 SWAP2 SUB SWAP1 REVERT JUMPDEST PUSH2 0x1E15 DUP2 PUSH1 0x66 PUSH2 0x275E SWAP1 SWAP2 SWAP1 PUSH4 0xFFFFFFFF AND JUMP JUMPDEST POP DUP1 PUSH20 0xFFFFFFFFFFFFFFFFFFFFFFFFFFFFFFFFFFFFFFFF AND PUSH32 0xAD6DE4452A631E641CB59902236607946CE9272B9B981F2F80E8D129CB9084BA PUSH1 0x40 MLOAD PUSH1 0x40 MLOAD DUP1 SWAP2 SUB SWAP1 LOG2 POP JUMP JUMPDEST PUSH2 0x1E64 PUSH2 0x208B JUMP JUMPDEST PUSH2 0x1EA3 JUMPI PUSH1 0x40 MLOAD PUSH32 0x8C379A000000000000000000000000000000000000000000000000000000000 DUP2 MSTORE PUSH1 0x4 ADD PUSH2 0x1E9A SWAP1 PUSH2 0x322E JUMP JUMPDEST PUSH1 0x40 MLOAD DUP1 SWAP2 SUB SWAP1 REVERT JUMPDEST PUSH1 0x0 PUSH20 0xFFFFFFFFFFFFFFFFFFFFFFFFFFFFFFFFFFFFFFFF AND PUSH1 0x33 PUSH1 0x0 SWAP1 SLOAD SWAP1 PUSH2 0x100 EXP SWAP1 DIV PUSH20 0xFFFFFFFFFFFFFFFFFFFFFFFFFFFFFFFFFFFFFFFF AND PUSH20 0xFFFFFFFFFFFFFFFFFFFFFFFFFFFFFFFFFFFFFFFF AND PUSH32 0x8BE0079C531659141344CD1FD0A4F28419497F9722A3DAAFE3B4186F6B6457E0 PUSH1 0x40 MLOAD PUSH1 0x40 MLOAD DUP1 SWAP2 SUB SWAP1 LOG3 PUSH1 0x0 PUSH1 0x33 PUSH1 0x0 PUSH2 0x100 EXP DUP2 SLOAD DUP2 PUSH20 0xFFFFFFFFFFFFFFFFFFFFFFFFFFFFFFFFFFFFFFFF MUL NOT AND SWAP1 DUP4 PUSH20 0xFFFFFFFFFFFFFFFFFFFFFFFFFFFFFFFFFFFFFFFF AND MUL OR SWAP1 SSTORE POP JUMP JUMPDEST PUSH2 0x1F6D CALLER PUSH2 0xA76 JUMP JUMPDEST PUSH2 0x1FAC JUMPI PUSH1 0x40 MLOAD PUSH32 0x8C379A000000000000000000000000000000000000000000000000000000000 DUP2 MSTORE PUSH1 0x4 ADD PUSH2 0x1FA3 SWAP1 PUSH2 0x3130 JUMP JUMPDEST PUSH1 0x40 MLOAD DUP1 SWAP2 SUB SWAP1 REVERT JUMPDEST PUSH1 0x68 PUSH1 0x0 SWAP1 SLOAD SWAP1 PUSH2 0x100 EXP SWAP1 DIV PUSH1 0xFF AND ISZERO PUSH2 0x1FFC JUMPI PUSH1 0x40 MLOAD PUSH32 0x8C379A000000000000000000000000000000000000000000000000000000000 DUP2 MSTORE PUSH1 0x4 ADD PUSH2 0x1FF3 SWAP1 PUSH2 0x36AD JUMP JUMPDEST PUSH1 0x40 MLOAD DUP1 SWAP2 SUB SWAP1 REVERT JUMPDEST PUSH1 0x1 PUSH1 0x68 PUSH1 0x0 PUSH2 0x100 EXP DUP2 SLOAD DUP2 PUSH1 0xFF MUL NOT AND SWAP1 DUP4 ISZERO ISZERO MUL OR SWAP1 SSTORE POP PUSH32 0x62E78CEA01BEE320CD4E420270B5EA74000D11B0C9F74754EBDBFC544B05A258 CALLER PUSH1 0x40 MLOAD PUSH2 0x2046 SWAP2 SWAP1 PUSH2 0x2DF1 JUMP JUMPDEST PUSH1 0x40 MLOAD DUP1 SWAP2 SUB SWAP1 LOG1 JUMP JUMPDEST PUSH1 0x0 PUSH2 0x205C PUSH1 0x66 PUSH2 0x278E JUMP JUMPDEST SWAP1 POP SWAP1 JUMP JUMPDEST PUSH1 0x0 PUSH1 0x33 PUSH1 0x0 SWAP1 SLOAD SWAP1 PUSH2 0x100 EXP SWAP1 DIV PUSH20 0xFFFFFFFFFFFFFFFFFFFFFFFFFFFFFFFFFFFFFFFF AND SWAP1 POP SWAP1 JUMP JUMPDEST PUSH1 0x0 PUSH1 0x33 PUSH1 0x0 SWAP1 SLOAD SWAP1 PUSH2 0x100 EXP SWAP1 DIV PUSH20 0xFFFFFFFFFFFFFFFFFFFFFFFFFFFFFFFFFFFFFFFF AND PUSH20 0xFFFFFFFFFFFFFFFFFFFFFFFFFFFFFFFFFFFFFFFF AND PUSH2 0x20CE PUSH2 0x27A3 JUMP JUMPDEST PUSH20 0xFFFFFFFFFFFFFFFFFFFFFFFFFFFFFFFFFFFFFFFF AND EQ SWAP1 POP SWAP1 JUMP JUMPDEST PUSH1 0x0 PUSH1 0x1 SWAP1 SLOAD SWAP1 PUSH2 0x100 EXP SWAP1 DIV PUSH1 0xFF AND DUP1 PUSH2 0x2109 JUMPI POP PUSH2 0x2108 PUSH2 0x2747 JUMP JUMPDEST JUMPDEST DUP1 PUSH2 0x211F JUMPI POP PUSH1 0x0 DUP1 SLOAD SWAP1 PUSH2 0x100 EXP SWAP1 DIV PUSH1 0xFF AND ISZERO JUMPDEST PUSH2 0x215E JUMPI PUSH1 0x40 MLOAD PUSH32 0x8C379A000000000000000000000000000000000000000000000000000000000 DUP2 MSTORE PUSH1 0x4 ADD PUSH2 0x2155 SWAP1 PUSH2 0x39F6 JUMP JUMPDEST PUSH1 0x40 MLOAD DUP1 SWAP2 SUB SWAP1 REVERT JUMPDEST PUSH1 0x0 DUP1 PUSH1 0x1 SWAP1 SLOAD SWAP1 PUSH2 0x100 EXP SWAP1 DIV PUSH1 0xFF AND ISZERO SWAP1 POP DUP1 ISZERO PUSH2 0x21AE JUMPI PUSH1 0x1 PUSH1 0x0 PUSH1 0x1 PUSH2 0x100 EXP DUP2 SLOAD DUP2 PUSH1 0xFF MUL NOT AND SWAP1 DUP4 ISZERO ISZERO MUL OR SWAP1 SSTORE POP PUSH1 0x1 PUSH1 0x0 DUP1 PUSH2 0x100 EXP DUP2 SLOAD DUP2 PUSH1 0xFF MUL NOT AND SWAP1 DUP4 ISZERO ISZERO MUL OR SWAP1 SSTORE POP JUMPDEST DUP2 PUSH1 0x33 PUSH1 0x0 PUSH2 0x100 EXP DUP2 SLOAD DUP2 PUSH20 0xFFFFFFFFFFFFFFFFFFFFFFFFFFFFFFFFFFFFFFFF MUL NOT AND SWAP1 DUP4 PUSH20 0xFFFFFFFFFFFFFFFFFFFFFFFFFFFFFFFFFFFFFFFF AND MUL OR SWAP1 SSTORE POP PUSH1 0x33 PUSH1 0x0 SWAP1 SLOAD SWAP1 PUSH2 0x100 EXP SWAP1 DIV PUSH20 0xFFFFFFFFFFFFFFFFFFFFFFFFFFFFFFFFFFFFFFFF AND PUSH20 0xFFFFFFFFFFFFFFFFFFFFFFFFFFFFFFFFFFFFFFFF AND PUSH1 0x0 PUSH20 0xFFFFFFFFFFFFFFFFFFFFFFFFFFFFFFFFFFFFFFFF AND PUSH32 0x8BE0079C531659141344CD1FD0A4F28419497F9722A3DAAFE3B4186F6B6457E0 PUSH1 0x40 MLOAD PUSH1 0x40 MLOAD DUP1 SWAP2 SUB SWAP1 LOG3 DUP1 ISZERO PUSH2 0x228D JUMPI PUSH1 0x0 DUP1 PUSH1 0x1 PUSH2 0x100 EXP DUP2 SLOAD DUP2 PUSH1 0xFF MUL NOT AND SWAP1 DUP4 ISZERO ISZERO MUL OR SWAP1 SSTORE POP JUMPDEST POP POP JUMP JUMPDEST PUSH1 0x0 PUSH1 0x68 PUSH1 0x1 SWAP1 SLOAD SWAP1 PUSH2 0x100 EXP SWAP1 DIV PUSH20 0xFFFFFFFFFFFFFFFFFFFFFFFFFFFFFFFFFFFFFFFF AND PUSH20 0xFFFFFFFFFFFFFFFFFFFFFFFFFFFFFFFFFFFFFFFF AND PUSH4 0x70A08231 DUP4 PUSH1 0x40 MLOAD DUP3 PUSH4 0xFFFFFFFF AND PUSH1 0xE0 SHL DUP2 MSTORE PUSH1 0x4 ADD PUSH2 0x22EE SWAP2 SWAP1 PUSH2 0x2DF1 JUMP JUMPDEST PUSH1 0x20 PUSH1 0x40 MLOAD DUP1 DUP4 SUB DUP2 DUP7 GAS STATICCALL ISZERO DUP1 ISZERO PUSH2 0x230B JUMPI RETURNDATASIZE PUSH1 0x0 DUP1 RETURNDATACOPY RETURNDATASIZE PUSH1 0x0 REVERT JUMPDEST POP POP POP POP PUSH1 0x40 MLOAD RETURNDATASIZE PUSH1 0x1F NOT PUSH1 0x1F DUP3 ADD AND DUP3 ADD DUP1 PUSH1 0x40 MSTORE POP DUP2 ADD SWAP1 PUSH2 0x232F SWAP2 SWAP1 PUSH2 0x3263 JUMP JUMPDEST SWAP1 POP SWAP2 SWAP1 POP JUMP JUMPDEST PUSH1 0x60 PUSH1 0x0 PUSH2 0x2344 PUSH1 0x66 PUSH2 0x278E JUMP JUMPDEST SWAP1 POP PUSH1 0x0 DUP2 PUSH8 0xFFFFFFFFFFFFFFFF DUP2 GT ISZERO PUSH2 0x2362 JUMPI PUSH2 0x2361 PUSH2 0x3A16 JUMP JUMPDEST JUMPDEST PUSH1 0x40 MLOAD SWAP1 DUP1 DUP3 MSTORE DUP1 PUSH1 0x20 MUL PUSH1 0x20 ADD DUP3 ADD PUSH1 0x40 MSTORE DUP1 ISZERO PUSH2 0x2390 JUMPI DUP2 PUSH1 0x20 ADD PUSH1 0x20 DUP3 MUL DUP1 CALLDATASIZE DUP4 CALLDATACOPY DUP1 DUP3 ADD SWAP2 POP POP SWAP1 POP JUMPDEST POP SWAP1 POP PUSH1 0x0 JUMPDEST DUP3 DUP2 LT ISZERO PUSH2 0x2412 JUMPI PUSH2 0x23B2 DUP2 PUSH1 0x66 PUSH2 0x27AB SWAP1 SWAP2 SWAP1 PUSH4 0xFFFFFFFF AND JUMP JUMPDEST DUP3 DUP3 DUP2 MLOAD DUP2 LT PUSH2 0x23C5 JUMPI PUSH2 0x23C4 PUSH2 0x3A45 JUMP JUMPDEST JUMPDEST PUSH1 0x20 MUL PUSH1 0x20 ADD ADD SWAP1 PUSH20 0xFFFFFFFFFFFFFFFFFFFFFFFFFFFFFFFFFFFFFFFF AND SWAP1 DUP2 PUSH20 0xFFFFFFFFFFFFFFFFFFFFFFFFFFFFFFFFFFFFFFFF AND DUP2 MSTORE POP POP DUP1 DUP1 PUSH2 0x240A SWAP1 PUSH2 0x3AA3 JUMP JUMPDEST SWAP2 POP POP PUSH2 0x2396 JUMP JUMPDEST POP DUP1 SWAP3 POP POP POP SWAP1 JUMP JUMPDEST PUSH2 0x2424 CALLER PUSH2 0xA76 JUMP JUMPDEST PUSH2 0x2463 JUMPI PUSH1 0x40 MLOAD PUSH32 0x8C379A000000000000000000000000000000000000000000000000000000000 DUP2 MSTORE PUSH1 0x4 ADD PUSH2 0x245A SWAP1 PUSH2 0x3130 JUMP JUMPDEST PUSH1 0x40 MLOAD DUP1 SWAP2 SUB SWAP1 REVERT JUMPDEST DUP1 PUSH1 0x6A PUSH1 0x0 PUSH2 0x100 EXP DUP2 SLOAD DUP2 PUSH20 0xFFFFFFFFFFFFFFFFFFFFFFFFFFFFFFFFFFFFFFFF MUL NOT AND SWAP1 DUP4 PUSH20 0xFFFFFFFFFFFFFFFFFFFFFFFFFFFFFFFFFFFFFFFF AND MUL OR SWAP1 SSTORE POP CALLER PUSH20 0xFFFFFFFFFFFFFFFFFFFFFFFFFFFFFFFFFFFFFFFF AND DUP2 PUSH20 0xFFFFFFFFFFFFFFFFFFFFFFFFFFFFFFFFFFFFFFFF AND PUSH32 0x8595877311E370FE3AC87D4F6D12473603393F02AC660E68D2E5E3DA5ADB610C PUSH1 0x40 MLOAD PUSH1 0x40 MLOAD DUP1 SWAP2 SUB SWAP1 LOG3 POP JUMP JUMPDEST PUSH2 0x250A CALLER PUSH2 0xA76 JUMP JUMPDEST PUSH2 0x2549 JUMPI PUSH1 0x40 MLOAD PUSH32 0x8C379A000000000000000000000000000000000000000000000000000000000 DUP2 MSTORE PUSH1 0x4 ADD PUSH2 0x2540 SWAP1 PUSH2 0x3130 JUMP JUMPDEST PUSH1 0x40 MLOAD DUP1 SWAP2 SUB SWAP1 REVERT JUMPDEST DUP2 PUSH1 0x69 PUSH1 0x0 PUSH2 0x100 EXP DUP2 SLOAD DUP2 PUSH20 0xFFFFFFFFFFFFFFFFFFFFFFFFFFFFFFFFFFFFFFFF MUL NOT AND SWAP1 DUP4 PUSH20 0xFFFFFFFFFFFFFFFFFFFFFFFFFFFFFFFFFFFFFFFF AND MUL OR SWAP1 SSTORE POP DUP1 PUSH1 0x69 PUSH1 0x14 PUSH2 0x100 EXP DUP2 SLOAD DUP2 PUSH1 0xFF MUL NOT AND SWAP1 DUP4 ISZERO ISZERO MUL OR SWAP1 SSTORE POP CALLER PUSH20 0xFFFFFFFFFFFFFFFFFFFFFFFFFFFFFFFFFFFFFFFF AND DUP3 PUSH20 0xFFFFFFFFFFFFFFFFFFFFFFFFFFFFFFFFFFFFFFFF AND PUSH32 0x864D5A965313DC4BF4FD85BB02B7EFFF05CB1681CB2C4A4BAF0D7E8520FB356C DUP4 PUSH1 0x40 MLOAD PUSH2 0x2601 SWAP2 SWAP1 PUSH2 0x2D9A JUMP JUMPDEST PUSH1 0x40 MLOAD DUP1 SWAP2 SUB SWAP1 LOG3 POP POP JUMP JUMPDEST PUSH1 0x0 PUSH2 0x2638 PUSH1 0x6C SLOAD PUSH2 0x262A PUSH1 0x6B SLOAD DUP6 PUSH2 0x27C5 SWAP1 SWAP2 SWAP1 PUSH4 0xFFFFFFFF AND JUMP JUMPDEST PUSH2 0x283F SWAP1 SWAP2 SWAP1 PUSH4 0xFFFFFFFF AND JUMP JUMPDEST SWAP1 POP SWAP2 SWAP1 POP JUMP JUMPDEST PUSH2 0x2647 PUSH2 0x208B JUMP JUMPDEST PUSH2 0x2686 JUMPI PUSH1 0x40 MLOAD PUSH32 0x8C379A000000000000000000000000000000000000000000000000000000000 DUP2 MSTORE PUSH1 0x4 ADD PUSH2 0x267D SWAP1 PUSH2 0x322E JUMP JUMPDEST PUSH1 0x40 MLOAD DUP1 SWAP2 SUB SWAP1 REVERT JUMPDEST PUSH2 0x268F DUP2 PUSH2 0x2897 JUMP JUMPDEST POP JUMP JUMPDEST PUSH1 0x69 PUSH1 0x0 SWAP1 SLOAD SWAP1 PUSH2 0x100 EXP SWAP1 DIV PUSH20 0xFFFFFFFFFFFFFFFFFFFFFFFFFFFFFFFFFFFFFFFF AND DUP2 JUMP JUMPDEST PUSH1 0x6B SLOAD DUP2 JUMP JUMPDEST PUSH1 0x0 PUSH2 0x26E6 DUP4 PUSH1 0x0 ADD DUP4 PUSH20 0xFFFFFFFFFFFFFFFFFFFFFFFFFFFFFFFFFFFFFFFF AND PUSH1 0x0 SHL PUSH2 0x29C6 JUMP JUMPDEST SWAP1 POP SWAP3 SWAP2 POP POP JUMP JUMPDEST PUSH1 0x0 DUP1 PUSH2 0x270C PUSH8 0xDE0B6B3A7640000 DUP5 PUSH2 0x283F SWAP1 SWAP2 SWAP1 PUSH4 0xFFFFFFFF AND JUMP JUMPDEST SWAP1 POP DUP1 SWAP2 POP POP SWAP2 SWAP1 POP JUMP JUMPDEST PUSH1 0x0 PUSH2 0x273F DUP4 PUSH1 0x0 ADD DUP4 PUSH20 0xFFFFFFFFFFFFFFFFFFFFFFFFFFFFFFFFFFFFFFFF AND PUSH1 0x0 SHL PUSH2 0x2ADE JUMP JUMPDEST SWAP1 POP SWAP3 SWAP2 POP POP JUMP JUMPDEST PUSH1 0x0 DUP1 ADDRESS SWAP1 POP PUSH1 0x0 DUP2 EXTCODESIZE SWAP1 POP PUSH1 0x0 DUP2 EQ SWAP3 POP POP POP SWAP1 JUMP JUMPDEST PUSH1 0x0 PUSH2 0x2786 DUP4 PUSH1 0x0 ADD DUP4 PUSH20 0xFFFFFFFFFFFFFFFFFFFFFFFFFFFFFFFFFFFFFFFF AND PUSH1 0x0 SHL PUSH2 0x2B01 JUMP JUMPDEST SWAP1 POP SWAP3 SWAP2 POP POP JUMP JUMPDEST PUSH1 0x0 PUSH2 0x279C DUP3 PUSH1 0x0 ADD PUSH2 0x2B71 JUMP JUMPDEST SWAP1 POP SWAP2 SWAP1 POP JUMP JUMPDEST PUSH1 0x0 CALLER SWAP1 POP SWAP1 JUMP JUMPDEST PUSH1 0x0 PUSH2 0x27BA DUP4 PUSH1 0x0 ADD DUP4 PUSH2 0x2B82 JUMP JUMPDEST PUSH1 0x0 SHR SWAP1 POP SWAP3 SWAP2 POP POP JUMP JUMPDEST PUSH1 0x0 DUP1 DUP4 SUB PUSH2 0x27D7 JUMPI PUSH1 0x0 SWAP1 POP PUSH2 0x2839 JUMP JUMPDEST PUSH1 0x0 DUP3 DUP5 PUSH2 0x27E5 SWAP2 SWAP1 PUSH2 0x3AEB JUMP JUMPDEST SWAP1 POP DUP3 DUP5 DUP3 PUSH2 0x27F4 SWAP2 SWAP1 PUSH2 0x3B5C JUMP JUMPDEST EQ PUSH2 0x2834 JUMPI PUSH1 0x40 MLOAD PUSH32 0x8C379A000000000000000000000000000000000000000000000000000000000 DUP2 MSTORE PUSH1 0x4 ADD PUSH2 0x282B SWAP1 PUSH2 0x3BFF JUMP JUMPDEST PUSH1 0x40 MLOAD DUP1 SWAP2 SUB SWAP1 REVERT JUMPDEST DUP1 SWAP2 POP POP JUMPDEST SWAP3 SWAP2 POP POP JUMP JUMPDEST PUSH1 0x0 DUP1 DUP3 GT PUSH2 0x2883 JUMPI PUSH1 0x40 MLOAD PUSH32 0x8C379A000000000000000000000000000000000000000000000000000000000 DUP2 MSTORE PUSH1 0x4 ADD PUSH2 0x287A SWAP1 PUSH2 0x3C6B JUMP JUMPDEST PUSH1 0x40 MLOAD DUP1 SWAP2 SUB SWAP1 REVERT JUMPDEST DUP2 DUP4 PUSH2 0x288F SWAP2 SWAP1 PUSH2 0x3B5C JUMP JUMPDEST SWAP1 POP SWAP3 SWAP2 POP POP JUMP JUMPDEST PUSH1 0x0 PUSH20 0xFFFFFFFFFFFFFFFFFFFFFFFFFFFFFFFFFFFFFFFF AND DUP2 PUSH20 0xFFFFFFFFFFFFFFFFFFFFFFFFFFFFFFFFFFFFFFFF AND SUB PUSH2 0x2906 JUMPI PUSH1 0x40 MLOAD PUSH32 0x8C379A000000000000000000000000000000000000000000000000000000000 DUP2 MSTORE PUSH1 0x4 ADD PUSH2 0x28FD SWAP1 PUSH2 0x3CFD JUMP JUMPDEST PUSH1 0x40 MLOAD DUP1 SWAP2 SUB SWAP1 REVERT JUMPDEST DUP1 PUSH20 0xFFFFFFFFFFFFFFFFFFFFFFFFFFFFFFFFFFFFFFFF AND PUSH1 0x33 PUSH1 0x0 SWAP1 SLOAD SWAP1 PUSH2 0x100 EXP SWAP1 DIV PUSH20 0xFFFFFFFFFFFFFFFFFFFFFFFFFFFFFFFFFFFFFFFF AND PUSH20 0xFFFFFFFFFFFFFFFFFFFFFFFFFFFFFFFFFFFFFFFF AND PUSH32 0x8BE0079C531659141344CD1FD0A4F28419497F9722A3DAAFE3B4186F6B6457E0 PUSH1 0x40 MLOAD PUSH1 0x40 MLOAD DUP1 SWAP2 SUB SWAP1 LOG3 DUP1 PUSH1 0x33 PUSH1 0x0 PUSH2 0x100 EXP DUP2 SLOAD DUP2 PUSH20 0xFFFFFFFFFFFFFFFFFFFFFFFFFFFFFFFFFFFFFFFF MUL NOT AND SWAP1 DUP4 PUSH20 0xFFFFFFFFFFFFFFFFFFFFFFFFFFFFFFFFFFFFFFFF AND MUL OR SWAP1 SSTORE POP POP JUMP JUMPDEST PUSH1 0x0 DUP1 DUP4 PUSH1 0x1 ADD PUSH1 0x0 DUP5 DUP2 MSTORE PUSH1 0x20 ADD SWAP1 DUP2 MSTORE PUSH1 0x20 ADD PUSH1 0x0 KECCAK256 SLOAD SWAP1 POP PUSH1 0x0 DUP2 EQ PUSH2 0x2AD2 JUMPI PUSH1 0x0 PUSH1 0x1 DUP3 PUSH2 0x29F8 SWAP2 SWAP1 PUSH2 0x3D1D JUMP JUMPDEST SWAP1 POP PUSH1 0x0 PUSH1 0x1 DUP7 PUSH1 0x0 ADD DUP1 SLOAD SWAP1 POP PUSH2 0x2A10 SWAP2 SWAP1 PUSH2 0x3D1D JUMP JUMPDEST SWAP1 POP PUSH1 0x0 DUP7 PUSH1 0x0 ADD DUP3 DUP2 SLOAD DUP2 LT PUSH2 0x2A2A JUMPI PUSH2 0x2A29 PUSH2 0x3A45 JUMP JUMPDEST JUMPDEST SWAP1 PUSH1 0x0 MSTORE PUSH1 0x20 PUSH1 0x0 KECCAK256 ADD SLOAD SWAP1 POP DUP1 DUP8 PUSH1 0x0 ADD DUP5 DUP2 SLOAD DUP2 LT PUSH2 0x2A4E JUMPI PUSH2 0x2A4D PUSH2 0x3A45 JUMP JUMPDEST JUMPDEST SWAP1 PUSH1 0x0 MSTORE PUSH1 0x20 PUSH1 0x0 KECCAK256 ADD DUP2 SWAP1 SSTORE POP PUSH1 0x1 DUP4 PUSH2 0x2A69 SWAP2 SWAP1 PUSH2 0x3D51 JUMP JUMPDEST DUP8 PUSH1 0x1 ADD PUSH1 0x0 DUP4 DUP2 MSTORE PUSH1 0x20 ADD SWAP1 DUP2 MSTORE PUSH1 0x20 ADD PUSH1 0x0 KECCAK256 DUP2 SWAP1 SSTORE POP DUP7 PUSH1 0x0 ADD DUP1 SLOAD DUP1 PUSH2 0x2A96 JUMPI PUSH2 0x2A95 PUSH2 0x3D85 JUMP JUMPDEST JUMPDEST PUSH1 0x1 SWAP1 SUB DUP2 DUP2 SWAP1 PUSH1 0x0 MSTORE PUSH1 0x20 PUSH1 0x0 KECCAK256 ADD PUSH1 0x0 SWAP1 SSTORE SWAP1 SSTORE DUP7 PUSH1 0x1 ADD PUSH1 0x0 DUP8 DUP2 MSTORE PUSH1 0x20 ADD SWAP1 DUP2 MSTORE PUSH1 0x20 ADD PUSH1 0x0 KECCAK256 PUSH1 0x0 SWAP1 SSTORE PUSH1 0x1 SWAP5 POP POP POP POP POP PUSH2 0x2AD8 JUMP JUMPDEST PUSH1 0x0 SWAP2 POP POP JUMPDEST SWAP3 SWAP2 POP POP JUMP JUMPDEST PUSH1 0x0 DUP1 DUP4 PUSH1 0x1 ADD PUSH1 0x0 DUP5 DUP2 MSTORE PUSH1 0x20 ADD SWAP1 DUP2 MSTORE PUSH1 0x20 ADD PUSH1 0x0 KECCAK256 SLOAD EQ ISZERO SWAP1 POP SWAP3 SWAP2 POP POP JUMP JUMPDEST PUSH1 0x0 PUSH2 0x2B0D DUP4 DUP4 PUSH2 0x2ADE JUMP JUMPDEST PUSH2 0x2B66 JUMPI DUP3 PUSH1 0x0 ADD DUP3 SWAP1 DUP1 PUSH1 0x1 DUP2 SLOAD ADD DUP1 DUP3 SSTORE DUP1 SWAP2 POP POP PUSH1 0x1 SWAP1 SUB SWAP1 PUSH1 0x0 MSTORE PUSH1 0x20 PUSH1 0x0 KECCAK256 ADD PUSH1 0x0 SWAP1 SWAP2 SWAP1 SWAP2 SWAP1 SWAP2 POP SSTORE DUP3 PUSH1 0x0 ADD DUP1 SLOAD SWAP1 POP DUP4 PUSH1 0x1 ADD PUSH1 0x0 DUP5 DUP2 MSTORE PUSH1 0x20 ADD SWAP1 DUP2 MSTORE PUSH1 0x20 ADD PUSH1 0x0 KECCAK256 DUP2 SWAP1 SSTORE POP PUSH1 0x1 SWAP1 POP PUSH2 0x2B6B JUMP JUMPDEST PUSH1 0x0 SWAP1 POP JUMPDEST SWAP3 SWAP2 POP POP JUMP JUMPDEST PUSH1 0x0 DUP2 PUSH1 0x0 ADD DUP1 SLOAD SWAP1 POP SWAP1 POP SWAP2 SWAP1 POP JUMP JUMPDEST PUSH1 0x0 DUP2 DUP4 PUSH1 0x0 ADD DUP1 SLOAD SWAP1 POP GT PUSH2 0x2BCD JUMPI PUSH1 0x40 MLOAD PUSH32 0x8C379A000000000000000000000000000000000000000000000000000000000 DUP2 MSTORE PUSH1 0x4 ADD PUSH2 0x2BC4 SWAP1 PUSH2 0x3E26 JUMP JUMPDEST PUSH1 0x40 MLOAD DUP1 SWAP2 SUB SWAP1 REVERT JUMPDEST DUP3 PUSH1 0x0 ADD DUP3 DUP2 SLOAD DUP2 LT PUSH2 0x2BE3 JUMPI PUSH2 0x2BE2 PUSH2 0x3A45 JUMP JUMPDEST JUMPDEST SWAP1 PUSH1 0x0 MSTORE PUSH1 0x20 PUSH1 0x0 KECCAK256 ADD SLOAD SWAP1 POP SWAP3 SWAP2 POP POP JUMP JUMPDEST PUSH1 0x0 DUP2 SWAP1 POP SWAP2 SWAP1 POP JUMP JUMPDEST PUSH2 0x2C09 DUP2 PUSH2 0x2BF6 JUMP JUMPDEST DUP3 MSTORE POP POP JUMP JUMPDEST PUSH1 0x0 PUSH1 0x20 DUP3 ADD SWAP1 POP PUSH2 0x2C24 PUSH1 0x0 DUP4 ADD DUP5 PUSH2 0x2C00 JUMP JUMPDEST SWAP3 SWAP2 POP POP JUMP JUMPDEST PUSH1 0x0 DUP1 REVERT JUMPDEST PUSH1 0x0 DUP2 ISZERO ISZERO SWAP1 POP SWAP2 SWAP1 POP JUMP JUMPDEST PUSH2 0x2C44 DUP2 PUSH2 0x2C2F JUMP JUMPDEST DUP2 EQ PUSH2 0x2C4F JUMPI PUSH1 0x0 DUP1 REVERT JUMPDEST POP JUMP JUMPDEST PUSH1 0x0 DUP2 CALLDATALOAD SWAP1 POP PUSH2 0x2C61 DUP2 PUSH2 0x2C3B JUMP JUMPDEST SWAP3 SWAP2 POP POP JUMP JUMPDEST PUSH1 0x0 PUSH1 0x20 DUP3 DUP5 SUB SLT ISZERO PUSH2 0x2C7D JUMPI PUSH2 0x2C7C PUSH2 0x2C2A JUMP JUMPDEST JUMPDEST PUSH1 0x0 PUSH2 0x2C8B DUP5 DUP3 DUP6 ADD PUSH2 0x2C52 JUMP JUMPDEST SWAP2 POP POP SWAP3 SWAP2 POP POP JUMP JUMPDEST PUSH2 0x2C9D DUP2 PUSH2 0x2BF6 JUMP JUMPDEST DUP2 EQ PUSH2 0x2CA8 JUMPI PUSH1 0x0 DUP1 REVERT JUMPDEST POP JUMP JUMPDEST PUSH1 0x0 DUP2 CALLDATALOAD SWAP1 POP PUSH2 0x2CBA DUP2 PUSH2 0x2C94 JUMP JUMPDEST SWAP3 SWAP2 POP POP JUMP JUMPDEST PUSH1 0x0 DUP1 PUSH1 0x40 DUP4 DUP6 SUB SLT ISZERO PUSH2 0x2CD7 JUMPI PUSH2 0x2CD6 PUSH2 0x2C2A JUMP JUMPDEST JUMPDEST PUSH1 0x0 PUSH2 0x2CE5 DUP6 DUP3 DUP7 ADD PUSH2 0x2CAB JUMP JUMPDEST SWAP3 POP POP PUSH1 0x20 PUSH2 0x2CF6 DUP6 DUP3 DUP7 ADD PUSH2 0x2CAB JUMP JUMPDEST SWAP2 POP POP SWAP3 POP SWAP3 SWAP1 POP JUMP JUMPDEST PUSH1 0x0 PUSH20 0xFFFFFFFFFFFFFFFFFFFFFFFFFFFFFFFFFFFFFFFF DUP3 AND SWAP1 POP SWAP2 SWAP1 POP JUMP JUMPDEST PUSH1 0x0 PUSH2 0x2D2B DUP3 PUSH2 0x2D00 JUMP JUMPDEST SWAP1 POP SWAP2 SWAP1 POP JUMP JUMPDEST PUSH2 0x2D3B DUP2 PUSH2 0x2D20 JUMP JUMPDEST DUP2 EQ PUSH2 0x2D46 JUMPI PUSH1 0x0 DUP1 REVERT JUMPDEST POP JUMP JUMPDEST PUSH1 0x0 DUP2 CALLDATALOAD SWAP1 POP PUSH2 0x2D58 DUP2 PUSH2 0x2D32 JUMP JUMPDEST SWAP3 SWAP2 POP POP JUMP JUMPDEST PUSH1 0x0 PUSH1 0x20 DUP3 DUP5 SUB SLT ISZERO PUSH2 0x2D74 JUMPI PUSH2 0x2D73 PUSH2 0x2C2A JUMP JUMPDEST JUMPDEST PUSH1 0x0 PUSH2 0x2D82 DUP5 DUP3 DUP6 ADD PUSH2 0x2D49 JUMP JUMPDEST SWAP2 POP POP SWAP3 SWAP2 POP POP JUMP JUMPDEST PUSH2 0x2D94 DUP2 PUSH2 0x2C2F JUMP JUMPDEST DUP3 MSTORE POP POP JUMP JUMPDEST PUSH1 0x0 PUSH1 0x20 DUP3 ADD SWAP1 POP PUSH2 0x2DAF PUSH1 0x0 DUP4 ADD DUP5 PUSH2 0x2D8B JUMP JUMPDEST SWAP3 SWAP2 POP POP JUMP JUMPDEST PUSH1 0x0 PUSH1 0x20 DUP3 DUP5 SUB SLT ISZERO PUSH2 0x2DCB JUMPI PUSH2 0x2DCA PUSH2 0x2C2A JUMP JUMPDEST JUMPDEST PUSH1 0x0 PUSH2 0x2DD9 DUP5 DUP3 DUP6 ADD PUSH2 0x2CAB JUMP JUMPDEST SWAP2 POP POP SWAP3 SWAP2 POP POP JUMP JUMPDEST PUSH2 0x2DEB DUP2 PUSH2 0x2D20 JUMP JUMPDEST DUP3 MSTORE POP POP JUMP JUMPDEST PUSH1 0x0 PUSH1 0x20 DUP3 ADD SWAP1 POP PUSH2 0x2E06 PUSH1 0x0 DUP4 ADD DUP5 PUSH2 0x2DE2 JUMP JUMPDEST SWAP3 SWAP2 POP POP JUMP JUMPDEST PUSH1 0x0 DUP1 PUSH1 0x0 DUP1 PUSH1 0x0 DUP1 PUSH1 0xC0 DUP8 DUP10 SUB SLT ISZERO PUSH2 0x2E29 JUMPI PUSH2 0x2E28 PUSH2 0x2C2A JUMP JUMPDEST JUMPDEST PUSH1 0x0 PUSH2 0x2E37 DUP10 DUP3 DUP11 ADD PUSH2 0x2D49 JUMP JUMPDEST SWAP7 POP POP PUSH1 0x20 PUSH2 0x2E48 DUP10 DUP3 DUP11 ADD PUSH2 0x2D49 JUMP JUMPDEST SWAP6 POP POP PUSH1 0x40 PUSH2 0x2E59 DUP10 DUP3 DUP11 ADD PUSH2 0x2D49 JUMP JUMPDEST SWAP5 POP POP PUSH1 0x60 PUSH2 0x2E6A DUP10 DUP3 DUP11 ADD PUSH2 0x2C52 JUMP JUMPDEST SWAP4 POP POP PUSH1 0x80 PUSH2 0x2E7B DUP10 DUP3 DUP11 ADD PUSH2 0x2CAB JUMP JUMPDEST SWAP3 POP POP PUSH1 0xA0 PUSH2 0x2E8C DUP10 DUP3 DUP11 ADD PUSH2 0x2CAB JUMP JUMPDEST SWAP2 POP POP SWAP3 SWAP6 POP SWAP3 SWAP6 POP SWAP3 SWAP6 JUMP JUMPDEST PUSH1 0x0 DUP2 SWAP1 POP SWAP2 SWAP1 POP JUMP JUMPDEST PUSH1 0x0 PUSH2 0x2EBE PUSH2 0x2EB9 PUSH2 0x2EB4 DUP5 PUSH2 0x2D00 JUMP JUMPDEST PUSH2 0x2E99 JUMP JUMPDEST PUSH2 0x2D00 JUMP JUMPDEST SWAP1 POP SWAP2 SWAP1 POP JUMP JUMPDEST PUSH1 0x0 PUSH2 0x2ED0 DUP3 PUSH2 0x2EA3 JUMP JUMPDEST SWAP1 POP SWAP2 SWAP1 POP JUMP JUMPDEST PUSH1 0x0 PUSH2 0x2EE2 DUP3 PUSH2 0x2EC5 JUMP JUMPDEST SWAP1 POP SWAP2 SWAP1 POP JUMP JUMPDEST PUSH2 0x2EF2 DUP2 PUSH2 0x2ED7 JUMP JUMPDEST DUP3 MSTORE POP POP JUMP JUMPDEST PUSH1 0x0 PUSH1 0x20 DUP3 ADD SWAP1 POP PUSH2 0x2F0D PUSH1 0x0 DUP4 ADD DUP5 PUSH2 0x2EE9 JUMP JUMPDEST SWAP3 SWAP2 POP POP JUMP JUMPDEST PUSH1 0x0 DUP2 MLOAD SWAP1 POP SWAP2 SWAP1 POP JUMP JUMPDEST PUSH1 0x0 DUP3 DUP3 MSTORE PUSH1 0x20 DUP3 ADD SWAP1 POP SWAP3 SWAP2 POP POP JUMP JUMPDEST PUSH1 0x0 DUP2 SWAP1 POP PUSH1 0x20 DUP3 ADD SWAP1 POP SWAP2 SWAP1 POP JUMP JUMPDEST PUSH2 0x2F48 DUP2 PUSH2 0x2D20 JUMP JUMPDEST DUP3 MSTORE POP POP JUMP JUMPDEST PUSH1 0x0 PUSH2 0x2F5A DUP4 DUP4 PUSH2 0x2F3F JUMP JUMPDEST PUSH1 0x20 DUP4 ADD SWAP1 POP SWAP3 SWAP2 POP POP JUMP JUMPDEST PUSH1 0x0 PUSH1 0x20 DUP3 ADD SWAP1 POP SWAP2 SWAP1 POP JUMP JUMPDEST PUSH1 0x0 PUSH2 0x2F7E DUP3 PUSH2 0x2F13 JUMP JUMPDEST PUSH2 0x2F88 DUP2 DUP6 PUSH2 0x2F1E JUMP JUMPDEST SWAP4 POP PUSH2 0x2F93 DUP4 PUSH2 0x2F2F JUMP JUMPDEST DUP1 PUSH1 0x0 JUMPDEST DUP4 DUP2 LT ISZERO PUSH2 0x2FC4 JUMPI DUP2 MLOAD PUSH2 0x2FAB DUP9 DUP3 PUSH2 0x2F4E JUMP JUMPDEST SWAP8 POP PUSH2 0x2FB6 DUP4 PUSH2 0x2F66 JUMP JUMPDEST SWAP3 POP POP PUSH1 0x1 DUP2 ADD SWAP1 POP PUSH2 0x2F97 JUMP JUMPDEST POP DUP6 SWAP4 POP POP POP POP SWAP3 SWAP2 POP POP JUMP JUMPDEST PUSH1 0x0 PUSH1 0x20 DUP3 ADD SWAP1 POP DUP2 DUP2 SUB PUSH1 0x0 DUP4 ADD MSTORE PUSH2 0x2FEB DUP2 DUP5 PUSH2 0x2F73 JUMP JUMPDEST SWAP1 POP SWAP3 SWAP2 POP POP JUMP JUMPDEST PUSH1 0x0 PUSH2 0x2FFE DUP3 PUSH2 0x2D20 JUMP JUMPDEST SWAP1 POP SWAP2 SWAP1 POP JUMP JUMPDEST PUSH2 0x300E DUP2 PUSH2 0x2FF3 JUMP JUMPDEST DUP2 EQ PUSH2 0x3019 JUMPI PUSH1 0x0 DUP1 REVERT JUMPDEST POP JUMP JUMPDEST PUSH1 0x0 DUP2 CALLDATALOAD SWAP1 POP PUSH2 0x302B DUP2 PUSH2 0x3005 JUMP JUMPDEST SWAP3 SWAP2 POP POP JUMP JUMPDEST PUSH1 0x0 DUP1 PUSH1 0x40 DUP4 DUP6 SUB SLT ISZERO PUSH2 0x3048 JUMPI PUSH2 0x3047 PUSH2 0x2C2A JUMP JUMPDEST JUMPDEST PUSH1 0x0 PUSH2 0x3056 DUP6 DUP3 DUP7 ADD PUSH2 0x301C JUMP JUMPDEST SWAP3 POP POP PUSH1 0x20 PUSH2 0x3067 DUP6 DUP3 DUP7 ADD PUSH2 0x2C52 JUMP JUMPDEST SWAP2 POP POP SWAP3 POP SWAP3 SWAP1 POP JUMP JUMPDEST PUSH1 0x0 PUSH2 0x307C DUP3 PUSH2 0x2EC5 JUMP JUMPDEST SWAP1 POP SWAP2 SWAP1 POP JUMP JUMPDEST PUSH2 0x308C DUP2 PUSH2 0x3071 JUMP JUMPDEST DUP3 MSTORE POP POP JUMP JUMPDEST PUSH1 0x0 PUSH1 0x20 DUP3 ADD SWAP1 POP PUSH2 0x30A7 PUSH1 0x0 DUP4 ADD DUP5 PUSH2 0x3083 JUMP JUMPDEST SWAP3 SWAP2 POP POP JUMP JUMPDEST PUSH1 0x0 DUP3 DUP3 MSTORE PUSH1 0x20 DUP3 ADD SWAP1 POP SWAP3 SWAP2 POP POP JUMP JUMPDEST PUSH32 0x41646D696E69737472617465643A204D73672073656E646572206973206E6F74 PUSH1 0x0 DUP3 ADD MSTORE PUSH32 0x2061646D696E0000000000000000000000000000000000000000000000000000 PUSH1 0x20 DUP3 ADD MSTORE POP JUMP JUMPDEST PUSH1 0x0 PUSH2 0x311A PUSH1 0x26 DUP4 PUSH2 0x30AD JUMP JUMPDEST SWAP2 POP PUSH2 0x3125 DUP3 PUSH2 0x30BE JUMP JUMPDEST PUSH1 0x40 DUP3 ADD SWAP1 POP SWAP2 SWAP1 POP JUMP JUMPDEST PUSH1 0x0 PUSH1 0x20 DUP3 ADD SWAP1 POP DUP2 DUP2 SUB PUSH1 0x0 DUP4 ADD MSTORE PUSH2 0x3149 DUP2 PUSH2 0x310D JUMP JUMPDEST SWAP1 POP SWAP2 SWAP1 POP JUMP JUMPDEST PUSH32 0x57686974656C6973746564546F6B656E53616C653A207261746573206D757374 PUSH1 0x0 DUP3 ADD MSTORE PUSH32 0x206265203E203000000000000000000000000000000000000000000000000000 PUSH1 0x20 DUP3 ADD MSTORE POP JUMP JUMPDEST PUSH1 0x0 PUSH2 0x31AC PUSH1 0x27 DUP4 PUSH2 0x30AD JUMP JUMPDEST SWAP2 POP PUSH2 0x31B7 DUP3 PUSH2 0x3150 JUMP JUMPDEST PUSH1 0x40 DUP3 ADD SWAP1 POP SWAP2 SWAP1 POP JUMP JUMPDEST PUSH1 0x0 PUSH1 0x20 DUP3 ADD SWAP1 POP DUP2 DUP2 SUB PUSH1 0x0 DUP4 ADD MSTORE PUSH2 0x31DB DUP2 PUSH2 0x319F JUMP JUMPDEST SWAP1 POP SWAP2 SWAP1 POP JUMP JUMPDEST PUSH32 0x4F776E61626C653A2063616C6C6572206973206E6F7420746865206F776E6572 PUSH1 0x0 DUP3 ADD MSTORE POP JUMP JUMPDEST PUSH1 0x0 PUSH2 0x3218 PUSH1 0x20 DUP4 PUSH2 0x30AD JUMP JUMPDEST SWAP2 POP PUSH2 0x3223 DUP3 PUSH2 0x31E2 JUMP JUMPDEST PUSH1 0x20 DUP3 ADD SWAP1 POP SWAP2 SWAP1 POP JUMP JUMPDEST PUSH1 0x0 PUSH1 0x20 DUP3 ADD SWAP1 POP DUP2 DUP2 SUB PUSH1 0x0 DUP4 ADD MSTORE PUSH2 0x3247 DUP2 PUSH2 0x320B JUMP JUMPDEST SWAP1 POP SWAP2 SWAP1 POP JUMP JUMPDEST PUSH1 0x0 DUP2 MLOAD SWAP1 POP PUSH2 0x325D DUP2 PUSH2 0x2C94 JUMP JUMPDEST SWAP3 SWAP2 POP POP JUMP JUMPDEST PUSH1 0x0 PUSH1 0x20 DUP3 DUP5 SUB SLT ISZERO PUSH2 0x3279 JUMPI PUSH2 0x3278 PUSH2 0x2C2A JUMP JUMPDEST JUMPDEST PUSH1 0x0 PUSH2 0x3287 DUP5 DUP3 DUP6 ADD PUSH2 0x324E JUMP JUMPDEST SWAP2 POP POP SWAP3 SWAP2 POP POP JUMP JUMPDEST PUSH32 0x4E6F20636F6E74726163742062616C616E6365206F66206F757220746F6B656E PUSH1 0x0 DUP3 ADD MSTORE PUSH32 0x20746F2077697468647261770000000000000000000000000000000000000000 PUSH1 0x20 DUP3 ADD MSTORE POP JUMP JUMPDEST PUSH1 0x0 PUSH2 0x32EC PUSH1 0x2C DUP4 PUSH2 0x30AD JUMP JUMPDEST SWAP2 POP PUSH2 0x32F7 DUP3 PUSH2 0x3290 JUMP JUMPDEST PUSH1 0x40 DUP3 ADD SWAP1 POP SWAP2 SWAP1 POP JUMP JUMPDEST PUSH1 0x0 PUSH1 0x20 DUP3 ADD SWAP1 POP DUP2 DUP2 SUB PUSH1 0x0 DUP4 ADD MSTORE PUSH2 0x331B DUP2 PUSH2 0x32DF JUMP JUMPDEST SWAP1 POP SWAP2 SWAP1 POP JUMP JUMPDEST PUSH1 0x0 PUSH1 0x40 DUP3 ADD SWAP1 POP PUSH2 0x3337 PUSH1 0x0 DUP4 ADD DUP6 PUSH2 0x2DE2 JUMP JUMPDEST PUSH2 0x3344 PUSH1 0x20 DUP4 ADD DUP5 PUSH2 0x2C00 JUMP JUMPDEST SWAP4 SWAP3 POP POP POP JUMP JUMPDEST PUSH1 0x0 DUP2 MLOAD SWAP1 POP PUSH2 0x335A DUP2 PUSH2 0x2C3B JUMP JUMPDEST SWAP3 SWAP2 POP POP JUMP JUMPDEST PUSH1 0x0 PUSH1 0x20 DUP3 DUP5 SUB SLT ISZERO PUSH2 0x3376 JUMPI PUSH2 0x3375 PUSH2 0x2C2A JUMP JUMPDEST JUMPDEST PUSH1 0x0 PUSH2 0x3384 DUP5 DUP3 DUP6 ADD PUSH2 0x334B JUMP JUMPDEST SWAP2 POP POP SWAP3 SWAP2 POP POP JUMP JUMPDEST PUSH32 0x4661696C656420746F2073656E6420636F6E747261637420746F6B656E732074 PUSH1 0x0 DUP3 ADD MSTORE PUSH32 0x6F2061646D696E00000000000000000000000000000000000000000000000000 PUSH1 0x20 DUP3 ADD MSTORE POP JUMP JUMPDEST PUSH1 0x0 PUSH2 0x33E9 PUSH1 0x27 DUP4 PUSH2 0x30AD JUMP JUMPDEST SWAP2 POP PUSH2 0x33F4 DUP3 PUSH2 0x338D JUMP JUMPDEST PUSH1 0x40 DUP3 ADD SWAP1 POP SWAP2 SWAP1 POP JUMP JUMPDEST PUSH1 0x0 PUSH1 0x20 DUP3 ADD SWAP1 POP DUP2 DUP2 SUB PUSH1 0x0 DUP4 ADD MSTORE PUSH2 0x3418 DUP2 PUSH2 0x33DC JUMP JUMPDEST SWAP1 POP SWAP2 SWAP1 POP JUMP JUMPDEST PUSH32 0x436F6E747261637420646F6573206E6F7420686F6C6420616D6F756E74207265 PUSH1 0x0 DUP3 ADD MSTORE PUSH32 0x7175657374656400000000000000000000000000000000000000000000000000 PUSH1 0x20 DUP3 ADD MSTORE POP JUMP JUMPDEST PUSH1 0x0 PUSH2 0x347B PUSH1 0x27 DUP4 PUSH2 0x30AD JUMP JUMPDEST SWAP2 POP PUSH2 0x3486 DUP3 PUSH2 0x341F JUMP JUMPDEST PUSH1 0x40 DUP3 ADD SWAP1 POP SWAP2 SWAP1 POP JUMP JUMPDEST PUSH1 0x0 PUSH1 0x20 DUP3 ADD SWAP1 POP DUP2 DUP2 SUB PUSH1 0x0 DUP4 ADD MSTORE PUSH2 0x34AA DUP2 PUSH2 0x346E JUMP JUMPDEST SWAP1 POP SWAP2 SWAP1 POP JUMP JUMPDEST PUSH32 0x4E6F20636F6E74726163742062616C616E636520746F20776974686472617700 PUSH1 0x0 DUP3 ADD MSTORE POP JUMP JUMPDEST PUSH1 0x0 PUSH2 0x34E7 PUSH1 0x1F DUP4 PUSH2 0x30AD JUMP JUMPDEST SWAP2 POP PUSH2 0x34F2 DUP3 PUSH2 0x34B1 JUMP JUMPDEST PUSH1 0x20 DUP3 ADD SWAP1 POP SWAP2 SWAP1 POP JUMP JUMPDEST PUSH1 0x0 PUSH1 0x20 DUP3 ADD SWAP1 POP DUP2 DUP2 SUB PUSH1 0x0 DUP4 ADD MSTORE PUSH2 0x3516 DUP2 PUSH2 0x34DA JUMP JUMPDEST SWAP1 POP SWAP2 SWAP1 POP JUMP JUMPDEST PUSH1 0x0 DUP2 SWAP1 POP SWAP3 SWAP2 POP POP JUMP JUMPDEST POP JUMP JUMPDEST PUSH1 0x0 PUSH2 0x3538 PUSH1 0x0 DUP4 PUSH2 0x351D JUMP JUMPDEST SWAP2 POP PUSH2 0x3543 DUP3 PUSH2 0x3528 JUMP JUMPDEST PUSH1 0x0 DUP3 ADD SWAP1 POP SWAP2 SWAP1 POP JUMP JUMPDEST PUSH1 0x0 PUSH2 0x3559 DUP3 PUSH2 0x352B JUMP JUMPDEST SWAP2 POP DUP2 SWAP1 POP SWAP2 SWAP1 POP JUMP JUMPDEST PUSH32 0x4661696C656420746F2073656E6420636F6E74726163742062616C616E636520 PUSH1 0x0 DUP3 ADD MSTORE PUSH32 0x6261636B20746F20746865206F776E6572000000000000000000000000000000 PUSH1 0x20 DUP3 ADD MSTORE POP JUMP JUMPDEST PUSH1 0x0 PUSH2 0x35BF PUSH1 0x31 DUP4 PUSH2 0x30AD JUMP JUMPDEST SWAP2 POP PUSH2 0x35CA DUP3 PUSH2 0x3563 JUMP JUMPDEST PUSH1 0x40 DUP3 ADD SWAP1 POP SWAP2 SWAP1 POP JUMP JUMPDEST PUSH1 0x0 PUSH1 0x20 DUP3 ADD SWAP1 POP DUP2 DUP2 SUB PUSH1 0x0 DUP4 ADD MSTORE PUSH2 0x35EE DUP2 PUSH2 0x35B2 JUMP JUMPDEST SWAP1 POP SWAP2 SWAP1 POP JUMP JUMPDEST PUSH32 0x5061757361626C653A206E6F7420706175736564000000000000000000000000 PUSH1 0x0 DUP3 ADD MSTORE POP JUMP JUMPDEST PUSH1 0x0 PUSH2 0x362B PUSH1 0x14 DUP4 PUSH2 0x30AD JUMP JUMPDEST SWAP2 POP PUSH2 0x3636 DUP3 PUSH2 0x35F5 JUMP JUMPDEST PUSH1 0x20 DUP3 ADD SWAP1 POP SWAP2 SWAP1 POP JUMP JUMPDEST PUSH1 0x0 PUSH1 0x20 DUP3 ADD SWAP1 POP DUP2 DUP2 SUB PUSH1 0x0 DUP4 ADD MSTORE PUSH2 0x365A DUP2 PUSH2 0x361E JUMP JUMPDEST SWAP1 POP SWAP2 SWAP1 POP JUMP JUMPDEST PUSH32 0x5061757361626C653A2070617573656400000000000000000000000000000000 PUSH1 0x0 DUP3 ADD MSTORE POP JUMP JUMPDEST PUSH1 0x0 PUSH2 0x3697 PUSH1 0x10 DUP4 PUSH2 0x30AD JUMP JUMPDEST SWAP2 POP PUSH2 0x36A2 DUP3 PUSH2 0x3661 JUMP JUMPDEST PUSH1 0x20 DUP3 ADD SWAP1 POP SWAP2 SWAP1 POP JUMP JUMPDEST PUSH1 0x0 PUSH1 0x20 DUP3 ADD SWAP1 POP DUP2 DUP2 SUB PUSH1 0x0 DUP4 ADD MSTORE PUSH2 0x36C6 DUP2 PUSH2 0x368A JUMP JUMPDEST SWAP1 POP SWAP2 SWAP1 POP JUMP JUMPDEST PUSH32 0x57686974656C6973746564546F6B656E53616C653A2077616C6C657420697320 PUSH1 0x0 DUP3 ADD MSTORE PUSH32 0x6E756C6C00000000000000000000000000000000000000000000000000000000 PUSH1 0x20 DUP3 ADD MSTORE POP JUMP JUMPDEST PUSH1 0x0 PUSH2 0x3729 PUSH1 0x24 DUP4 PUSH2 0x30AD JUMP JUMPDEST SWAP2 POP PUSH2 0x3734 DUP3 PUSH2 0x36CD JUMP JUMPDEST PUSH1 0x40 DUP3 ADD SWAP1 POP SWAP2 SWAP1 POP JUMP JUMPDEST PUSH1 0x0 PUSH1 0x20 DUP3 ADD SWAP1 POP DUP2 DUP2 SUB PUSH1 0x0 DUP4 ADD MSTORE PUSH2 0x3758 DUP2 PUSH2 0x371C JUMP JUMPDEST SWAP1 POP SWAP2 SWAP1 POP JUMP JUMPDEST PUSH32 0x53656E642045544820746F2062757920736F6D6520746F6B656E730000000000 PUSH1 0x0 DUP3 ADD MSTORE POP JUMP JUMPDEST PUSH1 0x0 PUSH2 0x3795 PUSH1 0x1B DUP4 PUSH2 0x30AD JUMP JUMPDEST SWAP2 POP PUSH2 0x37A0 DUP3 PUSH2 0x375F JUMP JUMPDEST PUSH1 0x20 DUP3 ADD SWAP1 POP SWAP2 SWAP1 POP JUMP JUMPDEST PUSH1 0x0 PUSH1 0x20 DUP3 ADD SWAP1 POP DUP2 DUP2 SUB PUSH1 0x0 DUP4 ADD MSTORE PUSH2 0x37C4 DUP2 PUSH2 0x3788 JUMP JUMPDEST SWAP1 POP SWAP2 SWAP1 POP JUMP JUMPDEST PUSH32 0x57686974656C6973746564546F6B656E53616C653A20616D6F756E74546F4275 PUSH1 0x0 DUP3 ADD MSTORE PUSH32 0x79206D757374206265203E203000000000000000000000000000000000000000 PUSH1 0x20 DUP3 ADD MSTORE POP JUMP JUMPDEST PUSH1 0x0 PUSH2 0x3827 PUSH1 0x2D DUP4 PUSH2 0x30AD JUMP JUMPDEST SWAP2 POP PUSH2 0x3832 DUP3 PUSH2 0x37CB JUMP JUMPDEST PUSH1 0x40 DUP3 ADD SWAP1 POP SWAP2 SWAP1 POP JUMP JUMPDEST PUSH1 0x0 PUSH1 0x20 DUP3 ADD SWAP1 POP DUP2 DUP2 SUB PUSH1 0x0 DUP4 ADD MSTORE PUSH2 0x3856 DUP2 PUSH2 0x381A JUMP JUMPDEST SWAP1 POP SWAP2 SWAP1 POP JUMP JUMPDEST PUSH32 0x4F757220746F6B656E2062616C616E636520746F6F206C6F7700000000000000 PUSH1 0x0 DUP3 ADD MSTORE POP JUMP JUMPDEST PUSH1 0x0 PUSH2 0x3893 PUSH1 0x19 DUP4 PUSH2 0x30AD JUMP JUMPDEST SWAP2 POP PUSH2 0x389E DUP3 PUSH2 0x385D JUMP JUMPDEST PUSH1 0x20 DUP3 ADD SWAP1 POP SWAP2 SWAP1 POP JUMP JUMPDEST PUSH1 0x0 PUSH1 0x20 DUP3 ADD SWAP1 POP DUP2 DUP2 SUB PUSH1 0x0 DUP4 ADD MSTORE PUSH2 0x38C2 DUP2 PUSH2 0x3886 JUMP JUMPDEST SWAP1 POP SWAP2 SWAP1 POP JUMP JUMPDEST PUSH32 0x4661696C656420746F207472616E7366657220746F6B656E7320746F20637573 PUSH1 0x0 DUP3 ADD MSTORE PUSH32 0x746F6D6572000000000000000000000000000000000000000000000000000000 PUSH1 0x20 DUP3 ADD MSTORE POP JUMP JUMPDEST PUSH1 0x0 PUSH2 0x3925 PUSH1 0x25 DUP4 PUSH2 0x30AD JUMP JUMPDEST SWAP2 POP PUSH2 0x3930 DUP3 PUSH2 0x38C9 JUMP JUMPDEST PUSH1 0x40 DUP3 ADD SWAP1 POP SWAP2 SWAP1 POP JUMP JUMPDEST PUSH1 0x0 PUSH1 0x20 DUP3 ADD SWAP1 POP DUP2 DUP2 SUB PUSH1 0x0 DUP4 ADD MSTORE PUSH2 0x3954 DUP2 PUSH2 0x3918 JUMP JUMPDEST SWAP1 POP SWAP2 SWAP1 POP JUMP JUMPDEST PUSH1 0x0 PUSH1 0x40 DUP3 ADD SWAP1 POP PUSH2 0x3970 PUSH1 0x0 DUP4 ADD DUP6 PUSH2 0x2C00 JUMP JUMPDEST PUSH2 0x397D PUSH1 0x20 DUP4 ADD DUP5 PUSH2 0x2C00 JUMP JUMPDEST SWAP4 SWAP3 POP POP POP JUMP JUMPDEST PUSH32 0x436F6E747261637420696E7374616E63652068617320616C7265616479206265 PUSH1 0x0 DUP3 ADD MSTORE PUSH32 0x656E20696E697469616C697A6564000000000000000000000000000000000000 PUSH1 0x20 DUP3 ADD MSTORE POP JUMP JUMPDEST PUSH1 0x0 PUSH2 0x39E0 PUSH1 0x2E DUP4 PUSH2 0x30AD JUMP JUMPDEST SWAP2 POP PUSH2 0x39EB DUP3 PUSH2 0x3984 JUMP JUMPDEST PUSH1 0x40 DUP3 ADD SWAP1 POP SWAP2 SWAP1 POP JUMP JUMPDEST PUSH1 0x0 PUSH1 0x20 DUP3 ADD SWAP1 POP DUP2 DUP2 SUB PUSH1 0x0 DUP4 ADD MSTORE PUSH2 0x3A0F DUP2 PUSH2 0x39D3 JUMP JUMPDEST SWAP1 POP SWAP2 SWAP1 POP JUMP JUMPDEST PUSH32 0x4E487B7100000000000000000000000000000000000000000000000000000000 PUSH1 0x0 MSTORE PUSH1 0x41 PUSH1 0x4 MSTORE PUSH1 0x24 PUSH1 0x0 REVERT JUMPDEST PUSH32 0x4E487B7100000000000000000000000000000000000000000000000000000000 PUSH1 0x0 MSTORE PUSH1 0x32 PUSH1 0x4 MSTORE PUSH1 0x24 PUSH1 0x0 REVERT JUMPDEST PUSH32 0x4E487B7100000000000000000000000000000000000000000000000000000000 PUSH1 0x0 MSTORE PUSH1 0x11 PUSH1 0x4 MSTORE PUSH1 0x24 PUSH1 0x0 REVERT JUMPDEST PUSH1 0x0 PUSH2 0x3AAE DUP3 PUSH2 0x2BF6 JUMP JUMPDEST SWAP2 POP PUSH32 0xFFFFFFFFFFFFFFFFFFFFFFFFFFFFFFFFFFFFFFFFFFFFFFFFFFFFFFFFFFFFFFFF DUP3 SUB PUSH2 0x3AE0 JUMPI PUSH2 0x3ADF PUSH2 0x3A74 JUMP JUMPDEST JUMPDEST PUSH1 0x1 DUP3 ADD SWAP1 POP SWAP2 SWAP1 POP JUMP JUMPDEST PUSH1 0x0 PUSH2 0x3AF6 DUP3 PUSH2 0x2BF6 JUMP JUMPDEST SWAP2 POP PUSH2 0x3B01 DUP4 PUSH2 0x2BF6 JUMP JUMPDEST SWAP3 POP DUP3 DUP3 MUL PUSH2 0x3B0F DUP2 PUSH2 0x2BF6 JUMP JUMPDEST SWAP2 POP DUP3 DUP3 DIV DUP5 EQ DUP4 ISZERO OR PUSH2 0x3B26 JUMPI PUSH2 0x3B25 PUSH2 0x3A74 JUMP JUMPDEST JUMPDEST POP SWAP3 SWAP2 POP POP JUMP JUMPDEST PUSH32 0x4E487B7100000000000000000000000000000000000000000000000000000000 PUSH1 0x0 MSTORE PUSH1 0x12 PUSH1 0x4 MSTORE PUSH1 0x24 PUSH1 0x0 REVERT JUMPDEST PUSH1 0x0 PUSH2 0x3B67 DUP3 PUSH2 0x2BF6 JUMP JUMPDEST SWAP2 POP PUSH2 0x3B72 DUP4 PUSH2 0x2BF6 JUMP JUMPDEST SWAP3 POP DUP3 PUSH2 0x3B82 JUMPI PUSH2 0x3B81 PUSH2 0x3B2D JUMP JUMPDEST JUMPDEST DUP3 DUP3 DIV SWAP1 POP SWAP3 SWAP2 POP POP JUMP JUMPDEST PUSH32 0x536166654D6174683A206D756C7469706C69636174696F6E206F766572666C6F PUSH1 0x0 DUP3 ADD MSTORE PUSH32 0x7700000000000000000000000000000000000000000000000000000000000000 PUSH1 0x20 DUP3 ADD MSTORE POP JUMP JUMPDEST PUSH1 0x0 PUSH2 0x3BE9 PUSH1 0x21 DUP4 PUSH2 0x30AD JUMP JUMPDEST SWAP2 POP PUSH2 0x3BF4 DUP3 PUSH2 0x3B8D JUMP JUMPDEST PUSH1 0x40 DUP3 ADD SWAP1 POP SWAP2 SWAP1 POP JUMP JUMPDEST PUSH1 0x0 PUSH1 0x20 DUP3 ADD SWAP1 POP DUP2 DUP2 SUB PUSH1 0x0 DUP4 ADD MSTORE PUSH2 0x3C18 DUP2 PUSH2 0x3BDC JUMP JUMPDEST SWAP1 POP SWAP2 SWAP1 POP JUMP JUMPDEST PUSH32 0x536166654D6174683A206469766973696F6E206279207A65726F000000000000 PUSH1 0x0 DUP3 ADD MSTORE POP JUMP JUMPDEST PUSH1 0x0 PUSH2 0x3C55 PUSH1 0x1A DUP4 PUSH2 0x30AD JUMP JUMPDEST SWAP2 POP PUSH2 0x3C60 DUP3 PUSH2 0x3C1F JUMP JUMPDEST PUSH1 0x20 DUP3 ADD SWAP1 POP SWAP2 SWAP1 POP JUMP JUMPDEST PUSH1 0x0 PUSH1 0x20 DUP3 ADD SWAP1 POP DUP2 DUP2 SUB PUSH1 0x0 DUP4 ADD MSTORE PUSH2 0x3C84 DUP2 PUSH2 0x3C48 JUMP JUMPDEST SWAP1 POP SWAP2 SWAP1 POP JUMP JUMPDEST PUSH32 0x4F776E61626C653A206E6577206F776E657220697320746865207A65726F2061 PUSH1 0x0 DUP3 ADD MSTORE PUSH32 0x6464726573730000000000000000000000000000000000000000000000000000 PUSH1 0x20 DUP3 ADD MSTORE POP JUMP JUMPDEST PUSH1 0x0 PUSH2 0x3CE7 PUSH1 0x26 DUP4 PUSH2 0x30AD JUMP JUMPDEST SWAP2 POP PUSH2 0x3CF2 DUP3 PUSH2 0x3C8B JUMP JUMPDEST PUSH1 0x40 DUP3 ADD SWAP1 POP SWAP2 SWAP1 POP JUMP JUMPDEST PUSH1 0x0 PUSH1 0x20 DUP3 ADD SWAP1 POP DUP2 DUP2 SUB PUSH1 0x0 DUP4 ADD MSTORE PUSH2 0x3D16 DUP2 PUSH2 0x3CDA JUMP JUMPDEST SWAP1 POP SWAP2 SWAP1 POP JUMP JUMPDEST PUSH1 0x0 PUSH2 0x3D28 DUP3 PUSH2 0x2BF6 JUMP JUMPDEST SWAP2 POP PUSH2 0x3D33 DUP4 PUSH2 0x2BF6 JUMP JUMPDEST SWAP3 POP DUP3 DUP3 SUB SWAP1 POP DUP2 DUP2 GT ISZERO PUSH2 0x3D4B JUMPI PUSH2 0x3D4A PUSH2 0x3A74 JUMP JUMPDEST JUMPDEST SWAP3 SWAP2 POP POP JUMP JUMPDEST PUSH1 0x0 PUSH2 0x3D5C DUP3 PUSH2 0x2BF6 JUMP JUMPDEST SWAP2 POP PUSH2 0x3D67 DUP4 PUSH2 0x2BF6 JUMP JUMPDEST SWAP3 POP DUP3 DUP3 ADD SWAP1 POP DUP1 DUP3 GT ISZERO PUSH2 0x3D7F JUMPI PUSH2 0x3D7E PUSH2 0x3A74 JUMP JUMPDEST JUMPDEST SWAP3 SWAP2 POP POP JUMP JUMPDEST PUSH32 0x4E487B7100000000000000000000000000000000000000000000000000000000 PUSH1 0x0 MSTORE PUSH1 0x31 PUSH1 0x4 MSTORE PUSH1 0x24 PUSH1 0x0 REVERT JUMPDEST PUSH32 0x456E756D657261626C655365743A20696E646578206F7574206F6620626F756E PUSH1 0x0 DUP3 ADD MSTORE PUSH32 0x6473000000000000000000000000000000000000000000000000000000000000 PUSH1 0x20 DUP3 ADD MSTORE POP JUMP JUMPDEST PUSH1 0x0 PUSH2 0x3E10 PUSH1 0x22 DUP4 PUSH2 0x30AD JUMP JUMPDEST SWAP2 POP PUSH2 0x3E1B DUP3 PUSH2 0x3DB4 JUMP JUMPDEST PUSH1 0x40 DUP3 ADD SWAP1 POP SWAP2 SWAP1 POP JUMP JUMPDEST PUSH1 0x0 PUSH1 0x20 DUP3 ADD SWAP1 POP DUP2 DUP2 SUB PUSH1 0x0 DUP4 ADD MSTORE PUSH2 0x3E3F DUP2 PUSH2 0x3E03 JUMP JUMPDEST SWAP1 POP SWAP2 SWAP1 POP JUMP INVALID LOG2 PUSH5 0x6970667358 0x22 SLT KECCAK256 DUP8 0xD6 SMOD 0xEB MSIZE SWAP12 0xC6 0xE0 PUSH22 0x2BC6923041C2F060F2739B5A558B46F80482A42C4324 0xD9 PUSH5 0x736F6C6343 STOP ADDMOD SLT STOP CALLER "
		},
		"gasEstimates": {
			"creation": {
				"codeDepositCost": "3199200",
				"executionCost": "72018",
				"totalCost": "3271218"
			},
			"external": {
				"": "1793",
				"addAdmin(address)": "infinite",
				"buyTokensHoldInContract()": "infinite",
				"buyTokensSendToWallet()": "infinite",
				"getAdminCount()": "2632",
				"getAdminList()": "infinite",
				"getContractEtherBalance()": "451",
				"getContractEtherBalanceWholeTokens()": "infinite",
				"getContractTokenBalance()": "infinite",
				"getContractTokenBalanceWholeTokens()": "infinite",
				"getTokenAmountInWei(uint256)": "infinite",
				"getTokenBalanceAnyWallet(address)": "infinite",
				"initialize(address)": "110640",
				"initialize(address,address,address,bool,uint256,uint256)": "infinite",
				"isAdmin(address)": "infinite",
				"isOwner()": "2664",
				"owner()": "2633",
				"pause()": "infinite",
				"paused()": "2612",
				"removeAdmin(address)": "infinite",
				"renounceOwnership()": "30377",
				"setTokenMath(uint256,uint256)": "infinite",
				"setTokenSaleWhitelistRegistry(address,bool)": "infinite",
				"setWallet(address)": "infinite",
				"setWhitelistEnabled(bool)": "infinite",
				"tokenSaleWhitelistRegistry()": "infinite",
				"tokenToSell()": "infinite",
				"tokensPerEthDivisor()": "2496",
				"tokensPerEthMultiplier()": "2561",
				"transferOwnership(address)": "30795",
				"unpause()": "infinite",
				"wallet()": "2625",
				"whitelistEnabled()": "2610",
				"withdrawAllEther()": "infinite",
				"withdrawAllTokens()": "infinite",
				"withdrawEther(uint256)": "infinite",
				"withdrawTokens(uint256)": "infinite"
			},
			"internal": {
				"convertWeiToEther(uint256)": "infinite"
			}
		},
		"methodIdentifiers": {
			"addAdmin(address)": "70480275",
			"buyTokensHoldInContract()": "68f73391",
			"buyTokensSendToWallet()": "492da13b",
			"getAdminCount()": "8b7bf3eb",
			"getAdminList()": "d9f774fc",
			"getContractEtherBalance()": "30e76dae",
			"getContractEtherBalanceWholeTokens()": "1f33b2f9",
			"getContractTokenBalance()": "317d9453",
			"getContractTokenBalanceWholeTokens()": "224a271f",
			"getTokenAmountInWei(uint256)": "e64d3979",
			"getTokenBalanceAnyWallet(address)": "c68c4cc5",
			"initialize(address)": "c4d66de8",
			"initialize(address,address,address,bool,uint256,uint256)": "6b10e7e4",
			"isAdmin(address)": "24d7806c",
			"isOwner()": "8f32d59b",
			"owner()": "8da5cb5b",
			"pause()": "8456cb59",
			"paused()": "5c975abb",
			"removeAdmin(address)": "1785f53c",
			"renounceOwnership()": "715018a6",
			"setTokenMath(uint256,uint256)": "0e949e5c",
			"setTokenSaleWhitelistRegistry(address,bool)": "dfc5d872",
			"setWallet(address)": "deaa59df",
			"setWhitelistEnabled(bool)": "052d9e7e",
			"tokenSaleWhitelistRegistry()": "f3ca7b41",
			"tokenToSell()": "6cd07154",
			"tokensPerEthDivisor()": "4d7df08d",
			"tokensPerEthMultiplier()": "f7f204cb",
			"transferOwnership(address)": "f2fde38b",
			"unpause()": "3f4ba83a",
			"wallet()": "521eb273",
			"whitelistEnabled()": "51fb012d",
			"withdrawAllEther()": "31c91117",
			"withdrawAllTokens()": "280da6fa",
			"withdrawEther(uint256)": "3bed33ce",
			"withdrawTokens(uint256)": "315a095d"
		}
	},
	"abi": [
		{
			"inputs": [],
			"stateMutability": "nonpayable",
			"type": "constructor"
		},
		{
			"anonymous": false,
			"inputs": [
				{
					"indexed": true,
					"internalType": "address",
					"name": "admin",
					"type": "address"
				}
			],
			"name": "AddAdmin",
			"type": "event"
		},
		{
			"anonymous": false,
			"inputs": [
				{
					"indexed": true,
					"internalType": "address",
					"name": "customer",
					"type": "address"
				},
				{
					"indexed": false,
					"internalType": "uint256",
					"name": "ethAmount",
					"type": "uint256"
				},
				{
					"indexed": false,
					"internalType": "uint256",
					"name": "tokenAmount",
					"type": "uint256"
				}
			],
			"name": "BuyTokens",
			"type": "event"
		},
		{
			"anonymous": false,
			"inputs": [
				{
					"indexed": true,
					"internalType": "address",
					"name": "spender",
					"type": "address"
				},
				{
					"indexed": true,
					"internalType": "address",
					"name": "customer",
					"type": "address"
				},
				{
					"indexed": true,
					"internalType": "address",
					"name": "token",
					"type": "address"
				},
				{
					"indexed": false,
					"internalType": "uint256",
					"name": "tokenAmount",
					"type": "uint256"
				},
				{
					"indexed": false,
					"internalType": "uint256",
					"name": "resultAmount",
					"type": "uint256"
				}
			],
			"name": "BuyTokens",
			"type": "event"
		},
		{
			"anonymous": false,
			"inputs": [
				{
					"indexed": true,
					"internalType": "address",
					"name": "from",
					"type": "address"
				},
				{
					"indexed": false,
					"internalType": "uint256",
					"name": "amount",
					"type": "uint256"
				}
			],
			"name": "ContractFallbackReceivedTokens",
			"type": "event"
		},
		{
			"anonymous": false,
			"inputs": [
				{
					"indexed": true,
					"internalType": "address",
					"name": "from",
					"type": "address"
				},
				{
					"indexed": false,
					"internalType": "uint256",
					"name": "amount",
					"type": "uint256"
				}
			],
			"name": "ContractReceivedTokens",
			"type": "event"
		},
		{
			"anonymous": false,
			"inputs": [
				{
					"indexed": true,
					"internalType": "address",
					"name": "previousOwner",
					"type": "address"
				},
				{
					"indexed": true,
					"internalType": "address",
					"name": "newOwner",
					"type": "address"
				}
			],
			"name": "OwnershipTransferred",
			"type": "event"
		},
		{
			"anonymous": false,
			"inputs": [
				{
					"indexed": false,
					"internalType": "address",
					"name": "admin",
					"type": "address"
				}
			],
			"name": "Paused",
			"type": "event"
		},
		{
			"anonymous": false,
			"inputs": [
				{
					"indexed": true,
					"internalType": "address",
					"name": "admin",
					"type": "address"
				}
			],
			"name": "RemoveAdmin",
			"type": "event"
		},
		{
			"anonymous": false,
			"inputs": [
				{
					"indexed": true,
					"internalType": "address",
					"name": "token",
					"type": "address"
				},
				{
					"indexed": true,
					"internalType": "address",
					"name": "admin",
					"type": "address"
				}
			],
			"name": "RemoveCustomerToken",
			"type": "event"
		},
		{
			"anonymous": false,
			"inputs": [
				{
					"indexed": true,
					"internalType": "address",
					"name": "tokenSaleRegistry",
					"type": "address"
				},
				{
					"indexed": true,
					"internalType": "address",
					"name": "admin",
					"type": "address"
				},
				{
					"indexed": false,
					"internalType": "bool",
					"name": "enabled",
					"type": "bool"
				}
			],
			"name": "SetTokenSaleRegistry",
			"type": "event"
		},
		{
			"anonymous": false,
			"inputs": [
				{
					"indexed": true,
					"internalType": "address",
					"name": "wallet",
					"type": "address"
				},
				{
					"indexed": true,
					"internalType": "address",
					"name": "admin",
					"type": "address"
				}
			],
			"name": "SetWallet",
			"type": "event"
		},
		{
			"anonymous": false,
			"inputs": [
				{
					"indexed": false,
					"internalType": "address",
					"name": "admin",
					"type": "address"
				}
			],
			"name": "Unpaused",
			"type": "event"
		},
		{
			"anonymous": false,
			"inputs": [
				{
					"indexed": true,
					"internalType": "address",
					"name": "token",
					"type": "address"
				},
				{
					"indexed": false,
					"internalType": "uint256",
					"name": "rateMul",
					"type": "uint256"
				},
				{
					"indexed": false,
					"internalType": "uint256",
					"name": "rateDiv",
					"type": "uint256"
				},
				{
					"indexed": true,
					"internalType": "address",
					"name": "admin",
					"type": "address"
				}
			],
			"name": "UpdateCustomerToken",
			"type": "event"
		},
		{
			"stateMutability": "payable",
			"type": "fallback"
		},
		{
			"inputs": [
				{
					"internalType": "address",
					"name": "_admin",
					"type": "address"
				}
			],
			"name": "addAdmin",
			"outputs": [],
			"stateMutability": "nonpayable",
			"type": "function"
		},
		{
			"inputs": [],
			"name": "buyTokensHoldInContract",
			"outputs": [
				{
					"internalType": "uint256",
					"name": "",
					"type": "uint256"
				}
			],
			"stateMutability": "payable",
			"type": "function"
		},
		{
			"inputs": [],
			"name": "buyTokensSendToWallet",
			"outputs": [
				{
					"internalType": "uint256",
					"name": "",
					"type": "uint256"
				}
			],
			"stateMutability": "payable",
			"type": "function"
		},
		{
			"inputs": [],
			"name": "getAdminCount",
			"outputs": [
				{
					"internalType": "uint256",
					"name": "",
					"type": "uint256"
				}
			],
			"stateMutability": "view",
			"type": "function"
		},
		{
			"inputs": [],
			"name": "getAdminList",
			"outputs": [
				{
					"internalType": "address[]",
					"name": "",
					"type": "address[]"
				}
			],
			"stateMutability": "view",
			"type": "function"
		},
		{
			"inputs": [],
			"name": "getContractEtherBalance",
			"outputs": [
				{
					"internalType": "uint256",
					"name": "",
					"type": "uint256"
				}
			],
			"stateMutability": "view",
			"type": "function"
		},
		{
			"inputs": [],
			"name": "getContractEtherBalanceWholeTokens",
			"outputs": [
				{
					"internalType": "uint256",
					"name": "",
					"type": "uint256"
				}
			],
			"stateMutability": "view",
			"type": "function"
		},
		{
			"inputs": [],
			"name": "getContractTokenBalance",
			"outputs": [
				{
					"internalType": "uint256",
					"name": "",
					"type": "uint256"
				}
			],
			"stateMutability": "view",
			"type": "function"
		},
		{
			"inputs": [],
			"name": "getContractTokenBalanceWholeTokens",
			"outputs": [
				{
					"internalType": "uint256",
					"name": "",
					"type": "uint256"
				}
			],
			"stateMutability": "view",
			"type": "function"
		},
		{
			"inputs": [
				{
					"internalType": "uint256",
					"name": "_weiAmount",
					"type": "uint256"
				}
			],
			"name": "getTokenAmountInWei",
			"outputs": [
				{
					"internalType": "uint256",
					"name": "",
					"type": "uint256"
				}
			],
			"stateMutability": "view",
			"type": "function"
		},
		{
			"inputs": [
				{
					"internalType": "address",
					"name": "someOwner",
					"type": "address"
				}
			],
			"name": "getTokenBalanceAnyWallet",
			"outputs": [
				{
					"internalType": "uint256",
					"name": "",
					"type": "uint256"
				}
			],
			"stateMutability": "view",
			"type": "function"
		},
		{
			"inputs": [
				{
					"internalType": "address",
					"name": "_owner",
					"type": "address"
				},
				{
					"internalType": "address",
					"name": "_tokenToSell",
					"type": "address"
				},
				{
					"internalType": "address",
					"name": "_tokenSaleRegistry",
					"type": "address"
				},
				{
					"internalType": "bool",
					"name": "_whitelistEnabled",
					"type": "bool"
				},
				{
					"internalType": "uint256",
					"name": "_tokensPerEthMultiplier",
					"type": "uint256"
				},
				{
					"internalType": "uint256",
					"name": "_tokensPerEthDivisor",
					"type": "uint256"
				}
			],
			"name": "initialize",
			"outputs": [],
			"stateMutability": "nonpayable",
			"type": "function"
		},
		{
			"inputs": [
				{
					"internalType": "address",
					"name": "sender",
					"type": "address"
				}
			],
			"name": "initialize",
			"outputs": [],
			"stateMutability": "nonpayable",
			"type": "function"
		},
		{
			"inputs": [
				{
					"internalType": "address",
					"name": "_admin",
					"type": "address"
				}
			],
			"name": "isAdmin",
			"outputs": [
				{
					"internalType": "bool",
					"name": "",
					"type": "bool"
				}
			],
			"stateMutability": "view",
			"type": "function"
		},
		{
			"inputs": [],
			"name": "isOwner",
			"outputs": [
				{
					"internalType": "bool",
					"name": "",
					"type": "bool"
				}
			],
			"stateMutability": "view",
			"type": "function"
		},
		{
			"inputs": [],
			"name": "owner",
			"outputs": [
				{
					"internalType": "address",
					"name": "",
					"type": "address"
				}
			],
			"stateMutability": "view",
			"type": "function"
		},
		{
			"inputs": [],
			"name": "pause",
			"outputs": [],
			"stateMutability": "nonpayable",
			"type": "function"
		},
		{
			"inputs": [],
			"name": "paused",
			"outputs": [
				{
					"internalType": "bool",
					"name": "",
					"type": "bool"
				}
			],
			"stateMutability": "view",
			"type": "function"
		},
		{
			"inputs": [
				{
					"internalType": "address",
					"name": "_admin",
					"type": "address"
				}
			],
			"name": "removeAdmin",
			"outputs": [],
			"stateMutability": "nonpayable",
			"type": "function"
		},
		{
			"inputs": [],
			"name": "renounceOwnership",
			"outputs": [],
			"stateMutability": "nonpayable",
			"type": "function"
		},
		{
			"inputs": [
				{
					"internalType": "uint256",
					"name": "_tokensPerEthMultiplier",
					"type": "uint256"
				},
				{
					"internalType": "uint256",
					"name": "_tokensPerEthDivisor",
					"type": "uint256"
				}
			],
			"name": "setTokenMath",
			"outputs": [],
			"stateMutability": "nonpayable",
			"type": "function"
		},
		{
			"inputs": [
				{
					"internalType": "contract ITokenSaleRegistry",
					"name": "_tokenSaleWhitelistRegistry",
					"type": "address"
				},
				{
					"internalType": "bool",
					"name": "_whitelistEnabled",
					"type": "bool"
				}
			],
			"name": "setTokenSaleWhitelistRegistry",
			"outputs": [],
			"stateMutability": "nonpayable",
			"type": "function"
		},
		{
			"inputs": [
				{
					"internalType": "address",
					"name": "_wallet",
					"type": "address"
				}
			],
			"name": "setWallet",
			"outputs": [],
			"stateMutability": "nonpayable",
			"type": "function"
		},
		{
			"inputs": [
				{
					"internalType": "bool",
					"name": "_whitelistEnabled",
					"type": "bool"
				}
			],
			"name": "setWhitelistEnabled",
			"outputs": [],
			"stateMutability": "nonpayable",
			"type": "function"
		},
		{
			"inputs": [],
			"name": "tokenSaleWhitelistRegistry",
			"outputs": [
				{
					"internalType": "contract ITokenSaleRegistry",
					"name": "",
					"type": "address"
				}
			],
			"stateMutability": "view",
			"type": "function"
		},
		{
			"inputs": [],
			"name": "tokenToSell",
			"outputs": [
				{
					"internalType": "contract IERC20",
					"name": "",
					"type": "address"
				}
			],
			"stateMutability": "view",
			"type": "function"
		},
		{
			"inputs": [],
			"name": "tokensPerEthDivisor",
			"outputs": [
				{
					"internalType": "uint256",
					"name": "",
					"type": "uint256"
				}
			],
			"stateMutability": "view",
			"type": "function"
		},
		{
			"inputs": [],
			"name": "tokensPerEthMultiplier",
			"outputs": [
				{
					"internalType": "uint256",
					"name": "",
					"type": "uint256"
				}
			],
			"stateMutability": "view",
			"type": "function"
		},
		{
			"inputs": [
				{
					"internalType": "address",
					"name": "newOwner",
					"type": "address"
				}
			],
			"name": "transferOwnership",
			"outputs": [],
			"stateMutability": "nonpayable",
			"type": "function"
		},
		{
			"inputs": [],
			"name": "unpause",
			"outputs": [],
			"stateMutability": "nonpayable",
			"type": "function"
		},
		{
			"inputs": [],
			"name": "wallet",
			"outputs": [
				{
					"internalType": "address",
					"name": "",
					"type": "address"
				}
			],
			"stateMutability": "view",
			"type": "function"
		},
		{
			"inputs": [],
			"name": "whitelistEnabled",
			"outputs": [
				{
					"internalType": "bool",
					"name": "",
					"type": "bool"
				}
			],
			"stateMutability": "view",
			"type": "function"
		},
		{
			"inputs": [],
			"name": "withdrawAllEther",
			"outputs": [],
			"stateMutability": "nonpayable",
			"type": "function"
		},
		{
			"inputs": [],
			"name": "withdrawAllTokens",
			"outputs": [],
			"stateMutability": "nonpayable",
			"type": "function"
		},
		{
			"inputs": [
				{
					"internalType": "uint256",
					"name": "amount",
					"type": "uint256"
				}
			],
			"name": "withdrawEther",
			"outputs": [],
			"stateMutability": "nonpayable",
			"type": "function"
		},
		{
			"inputs": [
				{
					"internalType": "uint256",
					"name": "amount",
					"type": "uint256"
				}
			],
			"name": "withdrawTokens",
			"outputs": [],
			"stateMutability": "nonpayable",
			"type": "function"
		},
		{
			"stateMutability": "payable",
			"type": "receive"
		}
	]
}